S020000050452056322E3020323031342E30382E30382070756C73652E737265630D
S1130000F8FF0020110400003B6500003B65000080
S11300103B6500003B6500003B6500003B6500005C
S11300203B6500003B6500003B6500003B6500004C
S11300303B6500003B6500003B6500003B6500003C
S11300403B6500003B6500003B6500003B6500002C
S11300503B6500003B6500003B6500003B6500001C
S11300603B6500003B6500003B6500003B6500000C
S11300703B6500003B6500003B6500003B650000FC
S11300803B6500003B6500003B6500003B650000EC
S11300903B6500003B6500003B6500003B650000DC
S11300A03B6500003B6500003B6500003B650000CC
S11300B03B6500003B6500003B6500003B650000BC
S11300C03B6500003B6500003B6500003B650000AC
S11300D03B6500003B6500003B6500003B6500009C
S11300E03B6500003B6500003B6500003B6500008C
S11300F03B6500003B6500003B6500003B6500007C
S11301003B6500003B6500003B6500003B6500006B
S11301103B6500003B6500003B6500003B6500005B
S11301203B6500003B6500003B6500003B6500004B
S11301303B6500003B6500003B6500003B6500003B
S11301403B6500003B6500003B6500003B6500002B
S1130150B57700003B6500003B6500003B6500008F
S11301603B6500003B6500003B6500003B6500000B
S11301703B6500003B6500003B6500003B650000FB
S11301803B6500003B6500003B6500003B650000EB
S11301903B6500003B6500003B6500003B650000DB
S1130400FFFFFFFFFFFFFFFFFFFFFFFFFEFFFFFFF9
S11304104FF000004FF000014FF000024FF00003D6
S11304204FF000044FF000054FF000064FF00007B6
S11304304FF000084FF000094FF0000A4FF0000B96
S11304404FF0000C62B607F05BFAFEE710B500222D
S113045000240023DFF81C18002003E000220A70A7
S1130460491C401CC0B28A28F8D3DFF80C180020BD
S113047003E000220A70491C401CC0B28A28F8D349
S113048002F0CCFCDFF8F4270021002002F0BFFFCB
S1130490DFF8EC2700213C2002F0B9FFDFF8E42765
S11304A00221002002F0B3FFDFF8DC2702213C2008
S11304B002F0ADFFDFF8D4270421002002F0A7FFEB
S11304C0DFF8CC2704213C2002F0A1FF03F062F8FE
S11304D003F0A0F8DFF8BC1708706E2003F022FACE
S11304E0DFF8B0070078012840F0A080DFF8A40707
S11304F0FF210170DFF8A0070121017002F0F1FD76
S11305008CE0DDA20021002002F081FFDFF88C07DF
S11305100068DFF88C1703F029FA03F093FA80B22D
S1130520020000213C2002F004FFD4A2022100209A
S113053002F06DFFDFF8182E02213C2002F067FF65
S1130540CFA20421002002F062FFDFF8502E042124
S11305503C2002F05CFFCBA20621002002F057FFF2
S1130560DFF83C2E06213C2002F051FF6E2003F000
S1130570D9F903F00FF803F04DF8DFF8441E0870C2
S1130580DFF83C0E0078FF2805D0DFF80807DFF815
S1130590301E09780170DFF8FC060078072813D1B3
S11305A0DFF8F806006803F06FFADFF8F826DFF8E2
S11305B0F83603F0A1FA03F013FBDFF8E016086045
S11305C0DFF8D006FF210170DFF8C806007808289C
S11305D013D1DFF8C806006803F056FADFF8C42622
S11305E0DFF8C83603F088FA03F0FAFADFF8AC163D
S11305F00860DFF8A006FF210170DFF89806007894
S113060009280BD1DFF89006FF210170DFF884067A
S1130610FF210170DFF8A80DFF210170DFF87806D3
S1130620007801283FF46DAF02F05BFDDFF864064B
S11306300078022840F09C80DFF85806FF21017002
S1130640DFF854060221017002F04BFD88E06E20B1
S113065003F068F902F09EFF02F0DCFFDFF8601D92
S11306600870DFF85C0D0078FF2805D0DFF8240659
S1130670DFF84C1D09780170D7A20021002002F098
S1130680C6FEDFF82C060068DFF8141603F06EF9D6
S113069003F0D8F980B2020000213C2002F049FEA8
S11306A076A20221002002F0B2FEDFF8B82D02216A
S11306B03C2002F0ACFE72A20421002002F0A7FE4E
S11306C0DFF82C2E04213C2002F0A1FE6DA20621AD
S11306D0002002F09CFEDFF81C2E06213C2002F0D4
S11306E096FEDFF8B0050078072813D1DFF8C005BF
S11306F0006803F0C9F9DFF8AC25DFF8AC3503F086
S1130700FBF903F06DFADFF8A8150860DFF884053B
S1130710FF210170DFF87C050078082813D1DFF889
S11307209005006803F0B0F9DFF87825DFF87C3530
S113073003F0E2F903F054FADFF874150860DFF807
S11307405405FF210170DFF84C050078092807D112
S1130750DFF84405FF210170DFF83805FF2101703F
S1130760DFF83405007802283FF471AF02F0B9FCD9
S1130770DFF820050078032840F0A680DFF8140590
S1130780FF210170DFF810050321017002F0A9FCBC
S113079092E06E2003F0C6F802F0FCFE02F03AFF8D
S11307A0DFF81C1C0870DFF8180C0078FF2805D04F
S11307B0DFF8E004DFF8081C09780170D3A20021F7
S11307C0002002F024FEDFF87C0D0068DFF8D0146E
S11307D003F0CCF803F036F980B2020000213C208B
S11307E002F0A7FD25A20221002002F010FEDFF88E
S11307F0742C02213C2002F00AFE21A204210020D4
S113080002F005FEDFF8E82C04213C2002F0FFFD95
S11308101CA20621002002F0FAFDDFF8D82C0621E4
S11308203C2002F0F4FDDFF86C040078072813D1B3
S1130830DFF8100D006803F027F9DFF86824DFF80B
S1130840683403F059F903F0CBF9DFF8F81C0860B9
S1130850DFF84004FF210170DFF83804007808282D
S11308601DD1DFF8E00C006803F00EF9DFF8342442
S1130870DFF8383408E000BF53703A002B3A000028
S11308802D3A000052653A0003F036F903F0A8F956
S1130890DFF8B01C0860DFF8FC03FF210170DFF80B
S11308A0F4030078092807D1DFF8EC03FF21017075
S11308B0DFF8E003FF210170DFF8DC030078032890
S11308C03FF467AF02F00DFCDFF8C803007804289A
S11308D040F09980DFF8BC03FF210170DFF8B80312
S11308E00421017002F0FDFB86E06E2003F01AF88B
S11308F002F050FE02F08EFEDFF8C41A0870DFF832
S1130900C00A0078FF2805D0DFF88803DFF8B01AA2
S113091009780170DFF8302C0021002002F077FD07
S1130920DFF8280C0068DFF8281C03F01FF803F038
S113093089F880B2020000213C2002F0BCFDC6A26E
S11309400221002002F063FDDFF8182B02213C2075
S113095002F05DFDC5A20421002002F058FDDFF87D
S1130960902B04213C2002F052FDC1A2062100205C
S113097002F04DFDDFF87C2B06213C2002F047FD00
S1130980C4480078072812D1DFF8C00B006803F0D0
S11309907BF8DFF8C02BDFF8C03B03F0ADF803F0C1
S11309A01FF9DFF8A81B0860BA48FF210170B94895
S11309B00078082816D1DFF8940B006803F064F877
S11309C0DFF8902BDFF8943B03F096F803F008F976
S11309D0DFF8781B02E000BF53693A000860AD48B5
S11309E0FF210170AB480078092805D1AA48FF21EE
S11309F00170A848FF210170A748007804283FF43B
S1130A0074AF02F06EFBA348007805285AD1A148C0
S1130A10FF210170A0480521017002F062FB4BE048
S1130A206E2002F07FFF02F0B5FD02F0F3FDDFF867
S1130A3090190870DFF888090078FF2804D09548D9
S1130A40DFF87C1909780170DFF8142B00210020ED
S1130A5002F0DDFCDFF80C0B027800213C2002F0F0
S1130A602AFD83A20621002002F0D1FCDFF8302900
S1130A7006213C2002F0CBFC86480078072806D1EA
S1130A80DFF8E00A012101708248FF2101708148EA
S1130A900078082806D1DFF8CC0A002101707D48CF
S1130AA0FF2101707B480078092805D17A48FF218D
S1130AB001707848FF210170774800780528AFD08D
S1130AC002F00FFB7348007806287AD17148FF21A1
S1130AD0017071480621017002F003FB6BE06E2087
S1130AE002F020FF02F056FD02F094FDDFF8D0186A
S1130AF00870DFF8CC080078FF2804D06548DFF8D8
S1130B00C01809780170DFF8602A01E053643A00E4
S1130B100021002002F07BFCDFF8500AB0F900202D
S1130B2000213C2002F0C7FC4BA20221002002F06D
S1130B306EFCDFF8302902213C2002F068FC4BA255
S1130B400421002002F063FCDFF8A42904213C20E6
S1130B5002F05DFC46A20621002002F058FCDFF8FA
S1130B60942906213C2002F052FC4A4800780728C8
S1130B7009D1DFF8F8090088401CDFF8F019088073
S1130B804448FF21017043480078082809D1DFF860
S1130B90DC090088401EDFF8D41908803D48FF2195
S1130BA001703C480078092805D13B48FF210170B9
S1130BB03848FF2101703848007806288FD002F0A9
S1130BC090FA344800780A287FF45CAC3148FF215D
S1130BD0017002F086FADFF86C0902683448016893
S1130BE02E48006803F048F8FA2002F09BFEDFF874
S1130BF080290021002002F00AFCDFF87829002176
S1130C003C2002F004FCDFF870290221002002F0ED
S1130C10FEFBDFF868290421002002F0F8FBDFF86E
S1130C20602904213C2002F0F2FBDFF85829062158
S1130C30002002F0ECFB02F0ADFC02F0EBFC1549E5
S1130C4008706E2002F06EFE12480078012840F011
S1130C50C680104802E000BF2B3A0000FF2101705B
S1130C600D480121017002F03CFAB0E02D3A000079
S1130C7052653A00C406FF1F4407FF1FA87B00000B
S1130C80B07B0000B87B0000C07B0000C87B000084
S1130C90307B00007A04FF1F7C04FF1F8004FF1FC9
S1130CA00000C8427B14AE47E17A843FE17A84BFF6
S1130CB08404FF1FDFA20021002002F0A8FBDFF85C
S1130CC0C8080068DFF8881802F050FE02F0BAFE87
S1130CD080B2020000213C2002F0EDFBD6A20221EA
S1130CE0002002F094FBDFF8682602213C2002F089
S1130CF08EFBD2A20421002002F089FBDFF89C269F
S1130D0004213C2002F083FBCDA20621002002F046
S1130D107EFBDFF88C2606213C2002F078FB6E2057
S1130D2002F000FE02F036FC02F074FCDFF89016CC
S1130D300870DFF88C060078FF2805D0DFF84C082F
S1130D40DFF87C1609780170DFF84008007807287E
S1130D5013D1DFF83408006802F096FEDFF8F427B8
S1130D60DFF8F43702F0C8FE02F03AFFDFF8181893
S1130D700860DFF81808FF210170DFF81008007818
S1130D80082813D1DFF80008006802F07DFEDFF8C0
S1130D90C427DFF8C83702F0AFFE02F021FFDFF806
S1130DA0E8170860DFF8E407FF210170DFF8DC07CB
S1130DB0007809280BD1DFF8D807FF210170DFF88C
S1130DC0CC07FF210170DFF8F805FF210170DFF87F
S1130DD0C007007801283FF46DAF02F082F9DFF814
S1130DE0AC070078022840F09C80DFF8A007FF21C0
S1130DF00170DFF89C070221017002F072F988E0AB
S1130E006E2002F08FFD02F0C5FB02F003FCDFF858
S1130E10B0150870DFF8A8050078FF2805D0DFF8C2
S1130E206C07DFF89C1509780170CAA20021002024
S1130E3002F0EDFADFF85C070068DFF8141702F03F
S1130E4095FD02F0FFFD80B2020000213C2002F07B
S1130E5032FB79A20221002002F0D9FADFF804263D
S1130E6002213C2002F0D3FA74A20421002002F0F3
S1130E70CEFADFF87C2604213C2002F0C8FA70A2E6
S1130E800621002002F0C3FADFF8682606213C2080
S1130E9002F0BDFADFF8F4060078072813D1DFF872
S1130EA0F406006802F0F0FDDFF8A826DFF8A836A3
S1130EB002F022FE02F094FEDFF8D8160860DFF894
S1130EC0CC06FF210170DFF8C4060078082813D18E
S1130ED0DFF8C006006802F0D7FDDFF87826DFF8F7
S1130EE07C3602F009FE02F07BFEDFF8A8160860EB
S1130EF0DFF89806FF210170DFF8900600780928D2
S1130F0007D1DFF88C06FF210170DFF88006FF218E
S1130F100170DFF87C06007802283FF471AF02F01C
S1130F20E0F8DFF868060078032840F0A580DFF8D1
S1130F305C06FF210170DFF858060321017002F0FE
S1130F40D0F891E06E2002F0EDFC02F023FB02F0F9
S1130F5061FBDFF86C140870DFF864040078FF2884
S1130F6005D0DFF82806DFF8581409780170D5A2F7
S1130F700021002002F04BFADFF81C060068DFF8BD
S1130F80D01502F0F3FC02F05DFD80B202000021F6
S1130F903C2002F090FA28A20221002002F037FA45
S1130FA0DFF8C02402213C2002F031FA23A20421FC
S1130FB0002002F02CFADFF8382504213C2002F04E
S1130FC026FA1FA20621002002F021FADFF82425C8
S1130FD006213C2002F01BFADFF8B0050078072850
S1130FE013D1DFF8B405006802F04EFDDFF8642584
S1130FF0DFF8643502F080FD02F0F2FDDFF89815A9
S11310000860DFF88805FF210170DFF880050078AB
S113101008281CD1DFF88005006802F035FDDFF8F0
S11310203425DFF8383502F067FD02F0D9FDDFF82A
S1131030681507E04B703A002B3A00002D3A000087
S113104052653A000860DFF84405FF210170DFF8BB
S11310503C050078092807D1DFF83405FF21017029
S1131060DFF82805FF210170DFF824050078032844
S11310703FF468AF02F035F8DFF810050078042873
S113108040F08380DFF80405FF210170DFF80005DC
S11310900421017002F025F870E06E2002F042FC99
S11310A002F078FA02F0B6FAC5490870C44800782C
S11310B0FF2804D0DFF8D404C14909780170DFF8AF
S11310C01C2D0021002002F0A2F9DFF8140DB0F964
S11310D0002000213C2002F0EEF9D2A202210020DF
S11310E002F095F9DFF87C2302213C2002F08FF90D
S11310F0CDA20421002002F08AF9DFF8F4230421B0
S11311003C2002F084F9C9A20621002002F07FF9F4
S1131110DFF8E02306213C2002F079F9DFF86C04C3
S1131120007807280AD1DFF8B80C0088401DDFF8E2
S1131130B01C0880DFF85404FF210170DFF84C0470
S1131140007808280DD1DFF8980C0088401FDFF8DC
S1131150901C01E04B693A000880DFF83004FF215D
S11311600170DFF828040078092807D1DFF820048B
S1131170FF210170DFF81404FF210170DFF810046F
S11311800078042889D001F0ACFFDFF8000400786F
S1131190052875D1DFF8F403FF210170DFF8F003AF
S11311A00521017001F09DFF64E06E2002F0BAFB9E
S11311B002F0F0F902F02EFA8149087080480078B4
S11311C0FF2804D0DFF8C4037D4909780170DFF8F3
S11311D0182C0021002002F01AF9DFF8100CB0F9E5
S11311E0002000213C2002F066F98EA2022100209A
S11311F002F00DF99B4A02213C2002F008F98AA270
S11312000421002002F003F9B94A04213C2002F031
S1131210FEF886A20621002002F0F9F8B54A06215C
S11312203C2002F0F4F8DFF864030078072809D1C1
S1131230DFF8B80B0088401DDFF8B01B0880D348E6
S1131240FF210170D1480078082809D1DFF89C0BF0
S11312500088401FDFF8941B0880CC48FF210170F0
S1131260CA480078092805D1C948FF210170C74838
S1131270FF210170C6480078052896D001F031FF9F
S1131280C2480078062879D1C048FF210170C048BF
S11312900621017001F025FF6AE06E2002F042FB96
S11312A002F078F902F0B6F945490870444800782C
S11312B0FF2803D0B548424909780170DFF8342B80
S11312C002E000BF4B643A000021002002F09FF8C6
S11312D0DFF8240BB0F9002000213C2002F0EBF8E9
S11312E050A20221002002F092F85E4A02213C2022
S11312F002F08DF84CA20421002002F088F87C4A08
S113130004213C2002F083F848A20621002002F0C8
S11313107EF8784A06213C2002F079F89B48007850
S1131320072809D1DFF8D00A0088401DDFF8C81A61
S113133008809648FF2101709448007808280DD150
S1131340DFF8B40A0088401FDFF8AC1A02E000BFDF
S1131350D07B000008808D48FF2101708B48007805
S1131360092805D18A48FF2101708848FF210170AE
S113137087480078062890D001F0B3FE83480078AF
S11313800A287FF431AC8148FF21017001F0A9FEE5
S1131390FA2002F0C7FADFF8682A03E0D87B0000DD
S11313A0E07B00000021002002F031F8DFF8542A2D
S11313B00021282002F02BF8DFF84C2A02E000BFBD
S11313C07904FF1F00215A2002F021F8DFF83C2A9B
S11313D00221002002F01BF8DFF8342A0221462003
S11313E002F015F8DFF82C2A0421462002F00FF849
S11313F002F0D0F802F00EF9644908706E2002F091
S113140091FA62480078012840F08D805F48FF21FE
S113141001705F480121017001F063FE7CE0DFF898
S1131420F82905E02B3A00002D3A000052653A00F5
S11314300021002001F0EBFFDFF8E009B0F9002003
S113144092B200213C2001F074FFC9A202210020C5
S113145001F0DDFFDFF8C82902213C2001F0D7FFAD
S1131460C4A201E0E87B00000421002001F0CFFFCA
S1131470DFF8B02904213C2001F0C9FFDFA20621D6
S1131480002001F0C4FFDFF8A02906213C2001F070
S1131490BEFF6E2002F046FA02F07CF802F0BAF8C1
S11314A0DFF8501E0870DFF84C0E0078FF2804D0D7
S11314B03648DFF8401E0978017034480078072860
S11314C009D1DFF858090088401CDFF8501908805A
S11314D02E48FF2101702D48007808280ED1DFF82E
S11314E03C090088401EDFF834190880274803E0CF
S11314F0F07B0000F87B0000FF2101702348007896
S1131500092809D12248FF2101702048FF210170D8
S1131510DFF8E00DFF2101701D48007801283FF439
S11315207EAF01F0DEFD19480078022840F0AF805C
S11315301648FF21017016480221017001F0D1FD07
S11315409EE000BF8804FF1F007C00002804FF1FEA
S1131550000020419A9999999999B93F9999B9BFED
S1131560087C00001F04FF1F107C00004804FF1FBC
S1131570187C0000207C0000287C0000307C0000E7
S1131580387C0000407C00005404FF1F7A04FF1FD5
S11315907C04FF1FC807FF1F5804FF1F6E2002F0C2
S11315A0C1F901F0F7FF02F035F8DFF8481D0870C3
S11315B0DFF8400D0078FF2805D0DFF87008DFF869
S11315C0341D09780170DFF868280021002001F03B
S11315D01EFFDFF86008B0F9002092B200213C2021
S11315E001F069FF62A20221002001F010FFDFF880
S11315F0142E02213C2001F00AFF5EA204210020E7
S113160001F005FFDFF8002E04213C2001F0FFFE6D
S11316107AA20621002001F0FAFEDFF8F02D06215F
S11316203C2001F0F4FEDFF80408007807280AD112
S1131630DFF8000800880A30DFF8F8170880DFF8C0
S1131640EC07FF210170DFF8E407007808280AD1CD
S1131650DFF8E00700880A38DFF8D8170880DFF8D9
S1131660CC07FF210170DFF8C4070078092807D1EF
S1131670DFF8C407FF210170DFF8B007FF21017014
S1131680DFF8B4070078022888D001F02AFDDFF8DB
S11316909C070078032840F08880DFF89007FF213A
S11316A00170DFF894070321017001F01AFD75E061
S11316B06E2002F037F901F06DFF01F0ABFFDFF8A7
S11316C0341C0870DFF82C0C0078FF2805D0DFF8F4
S11316D05C07DFF8201C09780170DFF8602700211F
S11316E0002001F094FEDFF85807B0F90020002133
S11316F03C2001F01EFE1EA20221002001F087FE04
S1131700DFF8002D02213C2001F081FE19A2042102
S1131710002001F07CFEDFF8F02C04213C2001F0D5
S113172076FE36A20621002001F071FEDFF8DC2CE3
S113173006213C2001F06BFEDFF8F0060078072854
S11317400AD1DFF8FC060088401CDFF8F416088094
S1131750DFF8D806FF210170DFF8D00600780828EA
S11317600FD1DFF8DC060088401EDFF8D41603E052
S11317702B3A00002D3A00000880DFF8B006FF2164
S11317800170DFF8A8060078092807D1DFF8A80659
S1131790FF210170DFF89406FF210170DFF898063D
S11317A00078032884D001F09CFCDFF880060078E0
S11317B0042840F08780DFF87406FF210170DFF809
S11317C078060421017001F08CFC74E06E2002F0B4
S11317D0A9F801F0DFFE01F01DFFDFF8181B087007
S11317E0DFF8100B0078FF2805D0DFF84006DFF89B
S11317F0041B09780170DFF84C2601E052653A00B9
S11318000021002001F003FEDFF83C06B0F90020BF
S113181092B200213C2001F04EFEE3A202210020FE
S113182001F0F5FDDFF8DC2B02213C2001F0EFFD97
S1131830E1A20421002001F0EAFDDFF8CC2B042111
S11318403C2001F0E4FDDDA20621002001F0DFFDD3
S1131850DFF8B82B06213C2001F0D9FDDFF8CC05D8
S1131860007807280AD1DFF8E0050088401CDFF87B
S1131870D8150880DFF8B405FF210170DFF8AC0546
S1131880007808280AD1DFF8C0050088401EDFF878
S1131890B8150880DFF89405FF210170DFF88C0586
S11318A00078092807D1DFF89005FF210170DFF8DF
S11318B07C05FF210170DFF880050078042885D0BD
S11318C001F00FFCDFF864050078052840F08480FF
S11318D0DFF85805FF210170DFF85C050521017070
S11318E001F0FFFB71E06E2002F01CF801F052FEE3
S11318F001F090FEDFF8FC190870DFF8F8090078B1
S1131900FF2805D0DFF82405DFF8E819097801700D
S1131910DFF8F82D0021002001F079FDDFF8F00D4B
S1131920B0F9002092B200213C2001F0C4FD9EA237
S11319300221002001F06BFDDFF8C82A02213C20BF
S113194001F065FD9CA20421002001F060FDDFF898
S1131950B82A04213C2001F05AFD98A20621002057
S113196001F055FDDFF8A42A06213C2001F04FFDCB
S1131970DFF8B804007807280AD1DFF8940D00884E
S1131980401CDFF88C1D0880DFF8A004FF210170E3
S1131990DFF89804007808280AD1DFF8740D00886D
S11319A0401EDFF86C1D0880DFF88004FF21017001
S11319B0DFF878040078092807D1DFF87C04FF21D8
S11319C00170DFF86804FF210170DFF86C0400780F
S11319D0052888D001F085FBDFF85004007806283C
S11319E040F07F80DFF84404FF210170DFF84804F1
S11319F00621017001F075FB6DE06E2001F092FF8D
S1131A0001F0C8FD01F006FEDFF8E8180870DFF801
S1131A10E4080078FF2805D0DFF81004DFF8D418B4
S1131A2009780170DFF8EC2C0021002001F0EFFCB4
S1131A30DFF8E40CB0F9002092B200213C2001F060
S1131A403AFD59A20221002001F0E1FCDFF8B4299B
S1131A5002213C2001F0DBFC57A20421002001F00C
S1131A60D6FCDFF8A42904213C2001F0D0FC53A2C9
S1131A700621002001F0CBFCDFF8902906213C2050
S1131A8001F0C5FCDFF8A403007807280AD1DFF8C9
S1131A90880C0088401CDFF8801C0880DFF88C0369
S1131AA0FF210170DFF884030078082809D1DFF8EA
S1131AB0680C0088401EDFF8601C0880DB48FF21AA
S1131AC00170DA480078092805D1DB48FF2101704C
S1131AD0D648FF210170D848007806288DD001F03F
S1131AE000FBD24800780A287FF452ACCF48FF218B
S1131AF0017001F0F6FAFA2001F014FFDFF81C2C53
S1131B000021002001F083FCDFF8142C0021462082
S1131B1001F07DFCDFF8102C0221002001F077FC9D
S1131B20DFF80C2C0421002001F071FCDFF8042CF8
S1131B300421462001F06BFCDFF8FC2B0621002079
S1131B4001F065FC01F026FD01F064FDB749087061
S1131B506E2001F0E7FEB5480078012840F09A8035
S1131B60B248FF210170B4480121017001F0B9FAB3
S1131B7089E09CA20021002001F049FCDFF8BC0BA5
S1131B800068DFF8641E01F0F1FE01F05BFF80B233
S1131B90020000213C2001F08EFC03A2022100205F
S1131BA001F035FC9E4A01E02B3A000002213C2062
S1131BB001F02DFC00A203E02D3A000052653A002A
S1131BC00421002001F023FC964A04213C2001F06A
S1131BD01EFC87A20621002001F019FC924A06216E
S1131BE03C2001F014FC6E2001F09CFE01F0D2FCBC
S1131BF001F010FDDFF8FC160870DFF8F806007835
S1131C00FF2804D08948DFF8EC160978017087486A
S1131C100078072812D1DFF8240B006801F034FFA4
S1131C20DFF8602EDFF8603E01F066FF01F0D8FFB8
S1131C30DFF8081B08607D48FF2101707B480078AD
S1131C40082812D1DFF8F40A006801F01DFFDFF85C
S1131C50342EDFF8383E01F04FFF01F0C1FFDFF80A
S1131C60DC1A08607148FF21017070480078092867
S1131C7009D17148FF2101706C48FF210170DFF820
S1131C807406FF2101706C48007801283FF471AF9D
S1131C9001F027FA65480078022840F091806348F3
S1131CA0FF21017064480221017001F01AFA80E0FA
S1131CB06E2001F037FE01F06DFC01F0ABFCDFF8A3
S1131CC034160870DFF82C060078FF2804D0574833
S1131CD0DFF820160978017048A20021002001F0E5
S1131CE096FBDFF85C0A0068DFF8FC1C01F03EFE9E
S1131CF001F0A8FE80B2020000213C2001F0DBFBD1
S1131D00C5A20221002001F082FBDFF8F82602219F
S1131D103C2001F07CFBE1A20421002001F077FBD0
S1131D20DFF8E42604213C2001F071FB30A20621F7
S1131D30002001F06CFBDFF8D42606213C2001F0E2
S1131D4066FB3A480078072812D1DFF8F4090068E6
S1131D5001F09AFEDFF82C2DDFF82C3D01F0CCFECB
S1131D6001F03EFFDFF8D81908603048FF21017008
S1131D702E480078082812D1DFF8C409006801F061
S1131D8083FEDFF8002DDFF8043D01F0B5FE01F01D
S1131D9027FFDFF8AC1908602448FF2101702348AD
S1131DA00078092805D12448FF2101701F48FF212C
S1131DB001702148007802283FF47AAF01F091F9CC
S1131DC01A480078032840F0BA801848FF210170AF
S1131DD019480321017001F084F9A9E03C7B00005B
S1131DE06E04FF1F73703A00487B00007004FF1FED
S1131DF052653A00487C00004404FF1F73643A00B3
S1131E00507C0000587C0000607C0000687C00006E
S1131E10707C0000787C0000807C00002C04FF1F94
S1131E20D07B0000D87B0000E07B00007A04FF1F19
S1131E30887C00003004FF1F7C04FF1F907C00009E
S1131E402E04FF1F987C00002004FF1F6E2001F069
S1131E5069FD01F09FFB01F0DDFBDFF898140870C9
S1131E60DFF890040078FF2805D0DFF81C0EDFF8B7
S1131E70841409780170DFF8142E0021002001F089
S1131E80C6FADFF80C0EB0F9002092B200213C2013
S1131E9001F011FB60A20221002001F0B8FADFF882
S1131EA0642502213C2001F0B2FA7CA20421002026
S1131EB001F0ADFADFF8502504213C2001F0A7FA27
S1131EC0D7A20621002001F0A2FADFF8402506215E
S1131ED03C2001F09CFADFF8B00D007807280AD105
S1131EE0DFF8AC0D0088401CDFF8A41D0880DFF883
S1131EF0980DFF210170DFF8900D007808280AD1B1
S1131F00DFF88C0D0088401EDFF8841D0880DFF8A0
S1131F10780DFF210170DFF8700D0078092807D1D2
S1131F20DFF8700DFF210170DFF85C0DFF210170F7
S1131F30DFF8600D0078032888D001F0D2F8DFF8CC
S1131F40480D0078042840F08280DFF83C0DFF2122
S1131F500170DFF8400D0421017001F0C2F86FE058
S1131F606E2001F0DFFC01F015FB01F053FBE149A9
S1131F700870E0480078FF2804D0DFF80C0DDD4934
S1131F8009780170DCA20021002001F040FADFF89A
S1131F90080DB0F9002000213C2001F08CFA1EA2AB
S1131FA00221002001F033FADFF8582402213C20FA
S1131FB001F02DFA39A20421002001F028FADFF8FB
S1131FC0482404213C2001F022FA95A20621002095
S1131FD001F01DFADFF8342406213C2001F017FA41
S1131FE0DFF8A40C007807280AD1DFF8AC0C0088CD
S1131FF0401DDFF8A41C0880DFF88C0CFF21017061
S1132000DFF8840C007808280DD1DFF88C0C0088E8
S1132010401FDFF8841C01E02B3A00000880DFF841
S1132020680CFF210170DFF8600C0078092807D1E3
S1132030DFF8600CFF210170DFF84C0CFF21017008
S1132040DFF8500C007804288AD001F04AF8DFF851
S1132050380C0078052840F09B80DFF82C0CFF2119
S11320600170DFF8300C0521017001F03AF887E0C7
S11320706E2001F057FC01F08DFA01F0CBFA9D4976
S113208008709C480078FF2804D0DFF8FC0B9949BD
S113209009780170DFF8682D02E000BF2D3A0000D6
S11320A00021002001F0B3F9DFF8580D0068DFF8D3
S11320B0381901F05BFC01F0C5FC80B2020000217C
S11320C03C2001F0F8F9D2A20221002001F09FF98E
S11320D0CC4A02213C2001F09AF9CEA2042100202E
S11320E001F095F9C84A04213C2001F090F94CA272
S11320F00621002001F08BF9C44A06213C2001F09E
S113210086F9DFF8840B0078072813D1DFF8F40C84
S1132110006801F0B9FCDFF86C29DFF86C3901F0D4
S1132120EBFC01F05DFDDFF8DC1C0860DFF8580B08
S1132130FF210170DFF8500B0078082813D1DFF875
S1132140C40C006801F0A0FCDFF83829DFF83C3942
S113215001F0D2FC01F044FDDFF8A81C0860DFF8B0
S1132160280BFF210170DFF8200B0078092807D124
S1132170DFF8200BFF210170DFF80C0BFF21017049
S1132180DFF8100B007805283FF472AF00F0A9FFC8
S1132190DFF8F40A0078062840F08180DFF8E80AC6
S11321A0FF210170DFF8EC0A0621017000F099FFAD
S11321B06EE06E2001F0B6FB01F0ECF901F02AFAB2
S11321C04C4908704B480078FF2804D0DFF8B80A5F
S11321D0484909780170DFF8B02C0021002001F093
S11321E016F9DFF8A80CB0F9002092B200213C20C7
S11321F001F061F986A20221002001F008F9814A68
S113220002213C2001F003F982A20421002001F004
S1132210FEF87D4A04213C2001F0F9F800A201E017
S113222052653A000621002001F0F1F8774A0621B0
S11322303C2001F0ECF8DFF8500A007807280AD1B6
S1132240DFF8480C0088401CDFF8401C0880DFF8E9
S1132250380AFF210170DFF8300A007808280AD113
S1132260DFF8280C0088401EDFF8201C0880DFF807
S1132270180AFF210170DFF8100A0078092807D135
S1132280DFF8100AFF210170DFF8FC09FF2101705B
S1132290DFF8000A007806288BD000F022FFDFF870
S11322A0E80900780A287FF426ACDFF8DC09FF216E
S11322B0017000F016FFFA2001F034FBDFF8482B20
S11322C00021002001F0A3F8DFF8402B0021462074
S11322D001F09DF8DFF8382B0221002001F097F877
S11322E0DFF8302B0221462001F091F8DFF8282B8B
S11322F004E000BF7904FF1F504F3A00042100207E
S113230001F085F8DFF8882B0421462001F07FF8DE
S113231001F040F901F07EF9DFF86C1908706E20C5
S113232001F000FBDFF860090078012840F092809A
S1132330DFF85409FF210170DFF858090121017009
S113234000F0CFFE7EE0DFF84C2B0021002001F0EE
S11323505EF8DFF8440B027800213C2001F0ABF872
S11323602BA20221002001F052F8DFF8302B0221C9
S11323703C2001F04CF827A20421002001F047F88A
S1132380DFF81C2B04213C2001F041F8C8A20621EF
S1132390002001F03CF8DFF80C2B06213C2001F072
S11323A036F86E2001F0BEFA01F0F4F801F032F9CB
S11323B0DFF8F81A0870DFF8F40A0078FF2805D06F
S11323C0DFF8C408DFF8E41A09780170DFF8B80808
S11323D0007807280AD1DFF8C00A0078401CDFF82B
S11323E0B81A0870DFF8A008FF210170DFF8980818
S11323F00078082815D1DFF8A00A0078401EDFF81D
S1132400981A09E0E87B0000F07B0000F87B0000EC
S11324102B3A00002D3A00000870DFF86C08FF2109
S11324200170DFF86408007809280BD1DFF864082C
S1132430FF210170DFF85008FF210170DFF86C0AFA
S1132440FF210170DFF84C08007801283FF47BAFCE
S113245000F047FEDFF830080078022840F09D8045
S1132460DFF82408FF210170DFF828080221017039
S113247000F037FE89E06E2001F054FA01F08AF88A
S113248001F0C8F8DFF8241A0870DFF8200A007891
S1132490FF2805D0DFF8F007DFF8101A097801707B
S11324A0DFF80C2A0021002000F0B1FFDFF8040A55
S11324B00068DFF8341501F059FA01F0C3FA80B26C
S11324C0020000213C2000F0F6FF96A20221002029
S11324D000F09DFFDFF8E02902213C2000F097FF87
S11324E092A20421002000F092FFDFF8D0290421F9
S11324F03C2000F08CFF6EA20621002000F087FF34
S1132500DFF8BC2906213C2000F081FFDFF87807C2
S11325100078072813D1DFF89C09006801F0B4FAA9
S1132520DFF86025DFF8603501F0E6FA01F058FBCA
S1132530DFF880190860DFF85007FF210170DFF829
S113254048070078082813D1DFF86809006801F00B
S11325509BFADFF83025DFF8343501F0CDFA01F0CD
S11325603FFBDFF850190860DFF81C07FF210170FA
S1132570DFF814070078092807D1DFF81807FF21CE
S11325800170DFF80407FF210170DFF80807007805
S113259002283FF470AF00F0A4FDDFF8EC060078E9
S11325A0032840F0A180DFF8E006FF210170DFF886
S11325B0E4060321017000F094FD8DE06E2001F02B
S11325C0B1F900F0E7FF01F025F8DFF8E018087032
S11325D0DFF8D8080078FF2805D0DFF8AC06DFF86C
S11325E0CC1809780170DFF8DC280021002000F005
S11325F00EFFDFF8D4080068DFF8EC1301F0B6F939
S113260001F020FA80B2020000213C2000F053FFC8
S113261044A20221002000F0FAFEDFF89C280221E7
S11326203C2000F0F4FE41A20421002000F0EFFE63
S1132630DFF8882804213C2000F0E9FE1CA20621D2
S1132640002000F0E4FEDFF8782806213C2000F0AA
S1132650DEFEDFF834060078072813D1DFF86808B7
S1132660006801F011FADFF81C24DFF81C3401F0D3
S113267043FA01F0B5FADFF850180860DFF80806ED
S1132680FF210170DFF800060078082817D1DFF871
S11326903808006801F0F8F9DFF8E823DFF8EC33D4
S11326A001F02AFA01F09CFADFF81C1802E000BFDE
S11326B052653A000860DFF8D005FF210170DFF8A9
S11326C0C8050078092807D1DFF8C805FF21017083
S11326D0DFF8B405FF210170DFF8B805007803289E
S11326E03FF46CAF00F0FDFCDFF89C050078042893
S11326F040F0B580DFF89005FF210170DFF8940504
S11327000421017000F0EDFCA1E000BFA07C0000FA
S11327102204FF1FA87C00003C04FF1FB07C0000C3
S1132720B87C00002B3A0000547B00002D3A0000D6
S1132730C07C0000C87C0000607B00003404FF1FE4
S11327403804FF1F6E2001F0EDF800F023FF00F0C5
S113275061FFDFF858170870DFF850070078FF288A
S113276005D0DFF82405DFF8441709780170DFF895
S11327705C270021002000F04AFEDFF854070068BF
S1132780994901F0F3F801F05DF980B202000021EB
S11327903C2000F090FED4A20221002000F037FE7D
S11327A0DFF8142702213C2000F031FECFA20421DF
S11327B0002000F02CFEDFF8042704213C2000F068
S11327C026FEDBA20621002000F021FEDFF8F02621
S11327D006213C2000F01BFEDFF8AC04007807283B
S11327E011D1DFF8EC06006801F04EF9A54AA64BBA
S11327F001F082F901F0F4F9DFF8D4160860DFF88B
S11328008804FF210170DFF880040078082811D1C2
S1132810DFF8BC06006801F037F99A4A9B4B01F0D7
S11328206BF901F0DDF9DFF8A8160860DFF8580449
S1132830FF210170DFF850040078092807D1DFF880
S11328405404FF210170DFF84004FF210170DFF818
S11328504404007804283FF475AF00F042FCDFF82C
S11328602804007805287CD1DFF81C04FF210170BE
S1132870DFF820040521017000F033FC6BE06E20CA
S113288001F050F800F086FE00F0C4FEDFF81C16DC
S11328900870DFF818060078FF2805D0DFF8E80391
S11328A0DFF8081609780170DFF8282600210020D7
S11328B000F0ADFDDFF82006B0F9002000213C2037
S11328C000F0F9FD88A20221002000F0A0FDDFF84D
S11328D0E82502213C2000F09AFD84A20421002076
S11328E000F095FDDFF8D42504213C2000F08FFD95
S11328F08FA20621002000F08AFDDFF8C4250621FE
S11329003C2000F084FDDFF88003007807280AD11A
S1132910DFF8C4050088401CDFF8BC150880DFF828
S11329206803FF210170D8480078082809D1DFF82E
S1132930A8050088401EDFF8A0150880D248FF21B2
S11329400170D1480078092805D1D248FF210170CF
S1132950CD48FF210170CF48007805288FD000F0C2
S1132960C0FBC948007806287BD1C748FF21017005
S1132970C8480621017000F0B4FB6CE06E2000F042
S1132980D1FF00F007FE00F045FEDFF820150870C7
S1132990DFF818050078FF2804D0BB48DFF80C15D1
S11329A009780170DFF834250021002000F02FFDA4
S11329B0DFF82C05B0F9002000213C2000F07BFD5D
S11329C049A20221002000F022FDDFF8EC240221BC
S11329D03C2000F01CFD45A20421002000F017FD5E
S11329E0DFF8D82402E000BF0000204104213C208D
S11329F000F00DFD4EA20621002000F008FDDFF8D6
S1132A00C02406213C2000F002FD9F4800780728DE
S1132A1009D1DFF8CC040088401CDFF8C414088016
S1132A209948FF21017098480078082809D1DFF8F7
S1132A30B0040088401EDFF8A81408809248FF21E3
S1132A40017091480078092805D19248FF2101704E
S1132A508D48FF2101708F48007806288ED000F041
S1132A6040FB894800780A287FF425AC8648FF217A
S1132A70017000F036FBDFF86C040078012810D1F7
S1132A8086A205E09A9999999999B93F9999B9BFFC
S1132A900021002000F0BBFCFA2000F043FF00F00E
S1132AA020FBDFF8400402210170DFF83C0401211F
S1132AB00180DFF8380401210180DFF83404007854
S1132AC0012840F09F80DFF8280400210170DFF81E
S1132AD0240401F071FA01F037FCDFF81C040088CB
S1132AE0DFF8181404E000BF2B3A00002D3A000070
S1132AF009880818DFF800140880DFF80404008847
S1132B00DFF8001409880818DFF8F4130880DFF8E8
S1132B10F8030088DFF8F41309880818DFF8E813CD
S1132B200880DFF8EC030088DFF8E81302E000BF58
S1132B3052653A0009784018DFF8D4130880641C01
S1132B40200000B20A285DDB0024DFF8AC03B0F9F2
S1132B5000000A2190FBF1F0DFF8BC130880DFF8D5
S1132B60A003B0F900000A2190FBF1F0DFF8AC13E8
S1132B700880DFF89403B0F900000A2190FBF1F01B
S1132B80DFF89C130880DFF88803B0F900000A21FD
S1132B9090FBF1F0DFF88C130870DFF87403002168
S1132BA00180DFF8540300210180DFF85403002181
S1132BB00180DFF8540300210180DFF864030088FA
S1132BC0DFF858130988401ADFF85C130880DFF82F
S1132BD05C03DFF8541309880180CF48B0F9002062
S1132BE000210A2000F043FBCC48B0F90020022168
S1132BF00A2000F03CFBCA48B0F90020022146201C
S1132C0000F035FB00F0C6FC00F004FDA749087095
S1132C10A6480078FF2803D01B48A449097801700E
S1132C20194800780C287FF426AF1748FF2101705B
S1132C3018480C21017000F054FA1CE06E2000F0DA
S1132C4071FE00F0A7FC00F0E5FC98490870974875
S1132C500078FF2803D00C489449097801700A4889
S1132C6000780C2805D10B48FF2101700648FF218C
S1132C70017000F036FA074800780C28DED0994835
S1132C80012101704DE000BF7A04FF1F6C7B00003E
S1132C905004FF1F7C04FF1F8C04FF1F636A0000A5
S1132CA0A3480021017002F077FBA248B0F900208C
S1132CB000210A2000F0DBFA9F48B0F9002000212F
S1132CC0462000F0D4FA8F48B0F9002002210A20EF
S1132CD000F0CDFA8D48B0F900200221462000F022
S1132CE0C6FA964802680421002000F022FB9448AA
S1132CF0B0F900200621002000F01BFB9148B0F938
S1132D0000200621462000F014FB8F48B0F9000093
S1132D10012806D18C480021018002F079FC02F0E0
S1132D2031FD70480078012813D15FA206213C20B0
S1132D3000F06DFB4FF47A7000F0F4FD00F0D1F96F
S1132D406948002101806948002101807F480121F0
S1132D500170644802210170654800780128D4D1CB
S1132D60634800210170634801F026F901F0ECFA90
S1132D7002F0A0F97648012101706E48B0F9000014
S1132D8001281BD16C48B0F90000012816D167480E
S1132D90B0F9000019305D49B1F90010594AB2F98F
S1132DA00020891A884209DA6A480078002805D187
S1132DB05F48012101706748012101705C48007877
S1132DC001287FF470AF6448B0F90000411C624AE6
S1132DD011806249B1F9001000B28842BFF660AFB9
S1132DE05F48B0F900005F49B1F90010401A09309A
S1132DF01328FFF458AF5A485A490988018052E70A
S1132E00D07C00006404FF1FD87C0000E07C00003C
S1132E10E87C0000F07C0000F87C000080B572B60D
S1132E205FF4E1325048B0F90010504802F068FEF7
S1132E304FF49671002002F069FF4D48B0F900206C
S1132E400221002003F0D7F842F21071012002F0B1
S1132E505DFF03F0DAF903F03CFA00F05DFF00F0E7
S1132E6069F9444A4449454800F006FF4FF47A7032
S1132E7000F0FEFE4EF66021002003F0B1FA0020BF
S1132E8003F0DDFA62B601BD787B00005204FF1F37
S1132E90007D0000087D00007804FF1FD07B000047
S1132EA0D87B0000E07B0000676F00007904FF1FFF
S1132EB0847B00005C04FF1FE87B0000F07B0000C3
S1132EC0F87B0000907B00006004FF1F107D000071
S1132ED06804FF1F187D00007604FF1F207D00009A
S1132EE07404FF1F7B04FF1F4C04FF1F4E04FF1FCD
S1132EF0B008FF1FC406FF1F9208FF1F0808FF1F2A
S1132F009408FF1FE607FF1F9608FF1F1404FF1F06
S1132F109808FF1F1E04FF1F1408FF1F1008FF1F3F
S1132F201604FF1F4A04FF1F9A08FF1F0608FF1F0D
S1132F30B508FF1F7C08FF1F7E08FF1FBC06FF1F8C
S1132F406C04FF1F8808FF1F8C08FF1FB308FF1FB6
S1132F50B708FF1FB608FF1F9C08FF1F8C04FF1F44
S1132F601808FF1F1A08FF1FE007FF1F00D00640C4
S1132F702C04FF1FCDCC4C3ECDCC4C3D9A99D93F6F
S1132F800821DFF8F425126852F40032DFF8E8353E
S1132F901A6000BFDFF8E025126832F48042DFF8DF
S1132FA0D8351A6000BF19E0DFF8CC25126832F476
S1132FB00042DFF8C4351A60DFF8BC25126852F409
S1132FC08042DFF8B4351A6000BFDFF8AC25126820
S1132FD032F48042DFF8A0351A6040000A00511E26
S1132FE0D2B2002A0AD00206DED5DFF88C25126898
S1132FF052F40042DFF880351A60DDE770470000C4
S11330000821DFF87425126832F40032DFF86835DD
S11330101A60DFF86425126832F48042DFF858350C
S11330201A6019E0DFF85025126832F40042DFF824
S113303048351A60DFF84025126852F48042DFF800
S113304038351A6000BFDFF83025126832F4804248
S1133050DFF824351A6040000A00511ED2B2002A5B
S11330600AD00206DED5DFF81025126852F40042B9
S1133070DFF804351A60DDE7704710B50400B1F1DC
S11330805000C0B2FFF7BCFFE4B2200950F01000BA
S1133090C0B2FFF7B5FF14F00F0050F00100C0B24A
S11330A0FFF7AEFF10BD70B50400002508E0200056
S11330B0C0B2FFF765FF761CF6B2802EF7D36D1C05
S11330C0EDB2082D0CD2B5F15000C0B2FFF798FF55
S11330D00120FFF795FF1020FFF792FF0026EBE792
S11330E070BD38B5002407E00020FFF749FF6D1CD0
S11330F0EDB2802DF8D3641CE4B2082C0CD2B4F1E8
S11331005000C0B2FFF77CFF0120FFF779FF1020C9
S1133110FFF776FF0025EBE731BD07E043F22641D8
S11331200A00511E92B2002AFAD1401E80B2002831
S1133130F4D1704780B5DFF844044FF48071016026
S1133140DFF83C044FF480710160DFF838044FF479
S113315080710160DFF830044FF480710160DFF8A2
S11331602C045FF470310160DFF80C04006850F443
S11331708040DFF804140860DFF8FC03006830F4D2
S11331808030DFF8F41308603220FFF7C6FFDFF861
S1133190E803006850F48030DFF8DC130860AE20E8
S11331A0FFF72EFF0020FFF72BFF1020FFF728FF6B
S11331B04020FFF725FF8120FFF722FFCF20FFF7F4
S11331C01FFFA120FFF71CFFC820FFF719FFA6204F
S11331D0FFF716FFA820FFF713FF3F20FFF710FFAC
S11331E0D320FFF70DFF0020FFF70AFFD520FFF7DC
S11331F007FF8020FFF704FFD920FFF701FFF1202C
S1133200FFF7FEFEDA20FFF7FBFE1220FFF7F8FEC1
S1133210DB20FFF7F5FE4020FFF7F2FE2020FFF74A
S1133220EFFE0220FFF7ECFE8D20FFF7E9FE1420ED
S1133230FFF7E6FEA420FFF7E3FEA620FFF7E0FE7B
S1133240AF20FFF7DDFE0020FFF72DFF0021002057
S1133250FFF713FFFF20FFF726FF642000F062FB57
S11332600020FFF720FF642000F05CFB01BD2DE986
S1133270FC4104000D00002600275FF000086420D4
S113328092FBF0F08DF80000642092FBF0F100FB5B
S113329011200A2190FBF1F08DF801000A2092FB25
S11332A0F0F100FB11208DF802000020804610E0B0
S11332B0F6B2300150FA87F0DFF8D4124018007AE1
S11332C0FFF75EFE7F1CFFB2082FF1D3083418F11C
S11332D001085FFA88F8B8F1030F28D25FFA88F87A
S11332E000A818F8000010F11006E4B2792C01D3FC
S11332F000246D1C2900C9B22000C0B2FFF7BDFE36
S1133300002709E0F6B2300150FA87F0DFF88012A6
S1133310405CFFF735FE7F1CFFB2082FF2D3691C17
S1133320C9B22000C0B2FFF7A8FE0027CBE7BDE872
S1133330F3812DE9FC4104000D00002600275FF015
S113334000084FF47A7092FBF0F08DF800004FF40F
S11333507A7092FBF0F100FB1120642190FBF1F0F4
S11333608DF80100642092FBF0F100FB11200A218A
S113337090FBF1F08DF802000A2092FBF0F100FBC3
S113338011208DF803000020804610E0F6B23001D1
S113339050FA87F0DFF8F8114018007AFFF7F0FDD3
S11333A07F1CFFB2082FF1D3083418F101085FFA2B
S11333B088F8B8F1040F28D25FFA88F800A818F842
S11333C0000010F11006E4B2792C01D300246D1C26
S11333D02900C9B22000C0B2FFF74FFE002709E060
S11333E0F6B2300150FA87F0DFF8A411405CFFF721
S11333F0C7FD7F1CFFB2082FF2D3691CC9B220009D
S1133400C0B2FFF73AFE0027CBE7BDE8F3812DE910
S1133410F84304000D00160000275FF000085FF079
S1133420000913E0FFB2380150FA88F0DFF86011A8
S11334304018007AFFF7A4FD18F101085FFA88F834
S1133440B8F1080FEED3083419F101095FFA89F9CC
S113345019F8060000282CD05FFA89F919F806003B
S1133460B0F12007E4B2792C01D300246D1C2900AB
S1133470C9B22000C0B2FFF700FE5FF000080AE006
S1133480FFB2380150FA88F0DFF80411405CFFF70E
S113349077FD18F101085FFA88F8B8F1080FEFD347
S11334A0691CC9B22000C0B2FFF7E7FD5FF0000855
S11334B0C4E7BDE8F1832DE9F04182B004000D00BA
S11334C0002600275FF000086420B2FBF0F08DF8BE
S11334D000000A20B2FBF0F00A21B0FBF1F301FB7B
S11334E013008DF801000A20B2FBF0F100FB11205B
S11334F08DF80200002080460FE0F6B2300150FA49
S113350087F023494018007AFFF73AFD7F1CFFB289
S1133510082FF2D3083418F101085FFA88F8B8F1DB
S1133520030F27D25FFA88F800A818F8000010F1FA
S11335301006E4B2792C01D300246D1C2900C9B211
S11335402000C0B2FFF799FD002708E0F6B2300171
S113355050FA87F00E49405CFFF712FD7F1CFFB262
S1133560082FF3D3691CC9B22000C0B2FFF785FD50
S11335700027CCE7BDE8F38100F00F403890044009
S11335803C900440409004404490044014F00F40A8
S1133590AC6F000080B5DFF88403006850F48050FD
S11335A0DFF878130860002300220021DFF870039D
S11335B002F072FF002300220121DFF8640302F00D
S11335C06BFF002300220221DFF8540302F064FFA2
S11335D0002300220321DFF8480302F05DFF0123EA
S11335E000220421DFF8380302F056FF01230022F1
S11335F00521DFF82C0302F04FFF012300220621EE
S1133600C74802F049FF002300220721C44802F002
S113361043FF01BDF8B50025FF240023012200214A
S1133620BF4802F039FF012301220121BC4802F006
S113363033FF012301220221B94802F02DFF0123A7
S113364001220321B64802F027FF0421B44802F006
S11336506DFF06000521B24802F068FF070006214D
S1133660AF4802F063FF790111EB061111EB8016EC
S11336700721AB4802F05AFF16EBC0100500EDB26B
S1133680702D2AD00A2000F04DF90421A44802F03C
S11336904DFF05000521A24802F048FF060006215F
S11336A09F4802F043FF710111EB051111EB8015E6
S11336B007219B4802F03AFF15EBC015EDB2702DBF
S11336C00BD0EDB2302D07D0502D03D0602D04D196
S11336D00A2402E00B2400E00C240123012200212F
S11336E08F4802F0D9FE0023012201218C4802F008
S11336F0D3FE012301220221894802F0CDFE0123D9
S113370001220321864802F0C7FE0421844802F006
S11337100DFF05000521824802F008FF060006217E
S11337207F4802F003FF710111EB051111EB8015C5
S113373007217B4802F0FAFE15EBC015EDB2702D9F
S11337402AD00A2000F0EEF80421754802F0EEFEBB
S113375005000521724802F0E9FE060006217048C2
S113376002F0E4FE710111EB051111EB8015072144
S11337706B4802F0DBFE15EBC015EDB2702D0BD0DB
S1133780EDB2302D07D0502D03D0602D04D1072485
S113379002E0082400E009240123012200216048FA
S11337A002F07AFE0123012201215D4802F074FE39
S11337B00023012202215A4802F06EFE0123012255
S11337C00321574802F068FE0421554802F0AEFE7A
S11337D005000521524802F0A9FE060006215048C2
S11337E002F0A4FE710111EB051111EB8015072104
S11337F04B4802F09BFE15EBC015EDB2702D2AD09C
S11338000A2000F08FF80421454802F08FFE0500DD
S11338100521434802F08AFE06000621404802F0D2
S113382085FE710111EB051111EB801507213C4850
S113383002F07CFE15EBC015EDB2702D0BD0EDB28D
S1133840302D07D0502D03D0602D04D1042402E084
S1133850052400E00624012301220021304802F05F
S11338601BFE0123012201212D4802F015FE012334
S1133870012202212A4802F00FFE00230122032123
S1133880274802F009FE0421254802F04FFE0500F6
S11338900521234802F04AFE06000621204802F0D2
S11338A045FE710111EB051111EB801507211C4830
S11338B002F03CFE15EBC015EDB2702D2AD00A20A3
S11338C000F030F80421164802F030FE050005210E
S11338D0134802F02BFE06000621114802F026FED2
S11338E0710111EB051111EB801507210C4802F051
S11338F01DFE15EBC015EDB2702D0BD0EDB2302DC1
S113390007D0502D03D0602D04D1012402E00224FD
S113391000E003242000C0B2F2BD0000388004405F
S1133920C0F00F400D49096851F001010B4A1160C4
S11339300B4908600B48052101600B48006850F0F2
S1133940010009490860084800680006FBD50648DC
S1133950006840084000044908607047388004400B
S1133960080004400400044000000440FF2212EA5E
S1133970D05C1DBF12EAD153944593422BE09C4482
S1133980D30780EA01021A4043EA002043EA0121F6
S1133990A1FB0030410038BF40007CF17F010BDB0C
S11339A0FE294ADA5B0842EAC15153EA006373F123
S11339B0004C51EB10207047D1F1080CDCF12001D0
S11339C02FDB5B0810FA01F10B4373F1004120FA7D
S11339D00CF05041704794451CBF02EAD153934206
S11339E080EA010202F000421DD0400019D04900D3
S11339F017D05BB9634514D00902B1FA81F3994039
S1133A00BCEB030CC00140F00040C1E70002B0FA77
S1133A1080FC10FA0CF0B3EB0C0CC90141F000412E
S1133A20B6E71000704740000AD0490008D010F1F2
S1133A30807F94BF11F1807F02E042F0FF40704725
S1133A40D04370474100090E7F3915D4D1F11F01CD
S1133A5014D4400007D2C00140F00040C84048BF21
S1133A606FF000407047C00140F00040C8404CBFB8
S1133A704FF00040404270470020704700424FF032
S1133A80004058BFC04370475FF0FF0C1CEAD051A0
S1133A9014BF614506E0C110400721F0E04101F187
S1133AA06051704779B900F0004100020AD0B0FAC1
S1133AB080FC00FA0CF001F16051A1EB0C5101EB18
S1133AC0D0214005704741020CBF40F4E0016FF083
S1133AD000010020704750F8041B61B150F8042B1A
S1133AE0D30744BFA9F101039A18002342F8043B09
S1133AF0091FFAD1EFE7704770B44FF0004591EA1F
S1133B00030C44BF6B4002F023BD00BF841A71EB69
S1133B10030603D2001BB141121973414FF4001C78
S1133B201CEB410F34BF7CEB430443E00C0DA4EBCE
S1133B301356352E50DC45EAC323DB0A45EAC1217E
S1133B40C912B6F120050DDD63FA05F6EB4086EAED
S1133B500305124218BF45F00105C01851F10001D8
S1133B600CD213E062FA06F5F2405540F3415A4094
S1133B70B340F3405A408018594107D349085FEADB
S1133B8030005FEA350528BF45F0010501F58011D5
S1133B90420875F1004250F1000041EB045170BC41
S1133BA04FF4001C1CEB410F38BF70470020090D77
S1133BB0090570471CEB410F10D252EA43060BD0A3
S1133BC0BCEB410F05D80C0DAB43661E342EB5DD9E
S1133BD002E0AB438018594170BC704770BC704719
S1133BE04FEAF17CBCF1E04C2CBFBCF5001F11E0A6
S1133BF05FEA4C0C34BFBCF17F5F2EE05FEA9C0CA3
S1133C004FEA0C1C4FEA3C0CC10071F100414CEB33
S1133C1050707047C90241EA5051C00218BF41F0C8
S1133C20010141F000414FEA6C50C0F10900212824
S1133C3010D240EACC7CCCF1200C11FA0CF070F1DB
S1133C400040CCF1200C21FA0CF00CF0004C40EBBD
S1133C500C0070474FEACC707047490011F5001F03
S1133C6004D84FEACC10FF30C0057047C81770471E
S1133C702649096808607047244B1B6898602348EC
S1133C800068C160214800680261704710B51F498F
S1133C9009680968081A1E4908601D48006802F08E
S1133CA00DFD1A4909688968FFF760FE040017488A
S1133CB00068406902F002FD14490968C968FFF709
S1133CC055FE0100200002F011FD04000F480068B9
S1133CD0806902F0F3FC0D4909680969FFF746FEA3
S1133CE0210002F077FDFFF7ADFE0A49086007489E
S1133CF00068064909684969816104480068044903
S1133D00096841610348006810BD00001004FF1FEA
S1133D101405FF1F1805FF1F80B501230122002190
S1133D20DFF8E40502F0B8FB012301220121DFF8EA
S1133D30D80502F0B1FB012301220C21DFF8CC05E8
S1133D4002F0AAFB012301220D21DFF8C00502F0D5
S1133D50A3FB012002F080FD01BD10B50123012267
S1133D600021DFF8A40502F097FB01F003FB012317
S1133D7001220121DFF8900502F08EFB01F0FAFA2E
S1133D80002301220021DFF8800502F085FB01F009
S1133D90F1FA002301220121DFF86C0502F07CFB1B
S1133DA0002416E001F0E6FA01F0E4FA012301220E
S1133DB00121DFF8540502F06FFB01F0DBFA01F09A
S1133DC0D9FA002301220121DFF83C0502F064FB4B
S1133DD0641CE4B27F2CE5D301F0CCFA01F0CAFAFA
S1133DE0012301220121DFF8200502F055FB01F037
S1133DF0C1FA01F0BFFA002301220121DFF808050E
S1133E0002F04AFB10BD38B5040001230122002151
S1133E10DFF8F40402F040FB01F0ACFA01230122C4
S1133E200121DFF8E40402F037FB01F0A3FA0023D8
S1133E3001220021DFF8D00402F02EFB01F09AFAEF
S1133E40002502E001F096FA6D1CEDB2962DF9D32F
S1133E5008220621012002F026FD2070641C0023A4
S1133E6001220121DFF8A00402F016FB00251DE069
S1133E7001F080FA01F07EFA012301220121DFF82A
S1133E80880402F009FB01F075FA01F073FA0822C4
S1133E900621012002F007FD2070641C002301228A
S1133EA00121DFF8640402F0F7FA6D1CEDB27F2DF6
S1133EB0DED301F05FFA01F05DFA01230122012152
S1133EC0DFF8440402F0E8FA01F054FA01F052FA7F
S1133ED0002301220121DFF8300402F0DDFA31BDB4
S1133EE080B5DFF82C14802000F04DF8DFF824149E
S1133EF00870DFF82004007819214843802190FBE2
S1133F00F1F0DFF814140870DFF810040088DFF80B
S1133F1008140978401ADFF808140880DFF8000450
S1133F20B0F90000DFF8FC13B1F90010C84206DA5A
S1133F30DFF8F4030078401EDFF8EC130870DFF8B4
S1133F40E403B0F90000DFF8D813B1F90010884297
S1133F5006DADFF8D4030078401CDFF8CC130870CD
S1133F60DFF8C4030078022803D2DFF8BC03012180
S1133F700170DFF8B4030078142803D3DFF8A80332
S1133F801421017001BD10B40023002204E00C7858
S1133F9053FA84F3491C521CD2B2C0B28242F6D303
S1133FA09BB2C0B293FBF0F0C0B210BC70470028C3
S1133FB001D54042FFE77047F8B5002400250026EC
S1133FC000200021DFF84823D279DFF860331A801B
S1133FD0DFF83C23D279DFF858331A80072713E03F
S1133FE0FFB2DFF82C03385CDFF84413B1F900109A
S1133FF000B2884207DA3800FFB2DFF81413795CA4
S1134000DFF82C2311807F1CFFB2792F13D2DFF845
S11340101C03B0F90000FFB2DFF8F412795C09B2B6
S11340208842DDDA3E00FFB2DFF8E402385CDFF8F4
S1134030FC120880E7E7DFF8F402B0F90000F6B2FA
S1134040DFF8CC12711811F8021C401A0B2836DB69
S1134050DFF8D802B0F90000F6B2DFF8B412711834
S11340608978401A0B282ADBF6B2DFF8A40230184C
S113407010F8020CF6B2DFF8981271188978401A19
S1134080FFF795FF0A281ADAF6B2DFF8840230182F
S113409010F8020CF6B2DFF878127118897851FA28
S11340A080F0022190FBF1F0F6B2DFF86412705454
S11340B0F6B2DFF85C02305CDFF870120880DFF8DB
S11340C06C02B0F90000DFF86812B1F900100818AA
S11340D0022190FBF1F0DFF85C12088007270CE066
S11340E0DFF854020088FFB2DFF82412795C40182C
S11340F0DFF8441208806D1C7F1CFFB2792F17D2A1
S1134100FFB2DFF80C02385CDFF82812B1F90010B6
S113411000B28842E4DBDFF824020088FFB2DFF853
S1134120F011795C4018DFF814120880641CE3E78E
S1134130DFF80802B0F90000E4B290FBF4F0DFF815
S1134140FC110880DFF8F001B0F90000EDB290FB3B
S1134150F5F0DFF8E4110880DFF8E001B0F90000C1
S1134160DFF8D411B1F900100818022190FBF1F026
S1134170DFF8C0110880072712E0DFF8C4010488C3
S1134180FFB2DFF88C01385CDFF8A811B1F9001038
S1134190401AFFF70CFF0019DFF8A41108807F1CF8
S11341A0FFB2782FE9D3DFF89801B0F9000072214B
S11341B090FBF1F0DFF888110880DFF88401B0F992
S11341C0000010284DDB072705E0FFB2DFF84001AF
S11341D0002139547F1CFFB2792F10D2FFB2DFF8CF
S11341E03001385CDFF84C11B1F9001000B288429C
S11341F0EBDBFFB2DFF8180101213954EAE7DFF8FD
S11342001001C079012809D10027FFB2082F0FD26D
S1134210FFB23F48012139547F1CF6E7002704E030
S1134220FFB23B48002139547F1CFFB2082FF7D35B
S1134230374890F87800012809D17827FFB2802FF9
S11342402ED2FFB23248012139547F1CF6E7782779
S1134250FFB2802F24D2FFB22D48002139547F1C95
S1134260F6E73748B0F90000102819DA3548007825
S11342702D490978884209D20027FFB2802F0FD236
S1134280FFB22348002139547F1CF6E7002704E0DD
S1134290FFB21F48012139547F1CFFB2802FF7D38E
S11342A003202CE0C0B21A49415C002910D1C0B2ED
S11342B01749411811F8011C012909D1C0B2144948
S11342C041184978012903D1C0B21149012242544D
S11342D0C0B20F49415C012910D1C0B20C49411848
S11342E011F8011C002909D1C0B2094941184978C3
S11342F0002903D1C0B2064900224254401CC0B276
S11343007D28CFD3F1BD000000F10F4000F00F4035
S1134310C406FF1F9E08FF1F9F08FF1F1A04FF1FEC
S11343204608FF1F1C04FF1F1E04FF1FE807FF1F92
S1134330EA07FF1FEC07FF1F4C08FF1F4A08FF1F77
S11343404808FF1F4A04FF1F10B50020DFF8141DA2
S1134350B1F900104A1CDFF80C3D1A8009B2332968
S113436003DBDFF8000D332101800020DFF8F81CA7
S113437000220A70DFF8F41C0978002903D1DFF861
S1134380F00C00210170DFF8EC0C0078002803D158
S1134390DFF8E40C00210170792004E0DFF8DC1C74
S11343A000220A80401E00B2062825DB00B2DFF896
S11343B0D01C415C0129F1D100B2DFF8C41C4118C2
S11343C011F8011C0029E9D100B2DFF8B41C41182E
S11343D011F8021C0029E1D100B2DFF8A41C411835
S11343E011F8031C0029D9D1801EDFF8981C08801D
S11343F0DFF8880C01210180062004E0DFF8881C26
S113440000220A80401C00B27A2822DA00B2DFF8C7
S1134410701C415C0129F1D100B2DFF8641C411821
S113442049780029EAD100B2DFF8541C4118897890
S11344300029E3D100B2DFF8481C4118C9780029EB
S1134440DCD1801CDFF8441C0880DFF83C0C01211F
S11344500180DFF8280CB0F90000012840F0078142
S1134460DFF8240CB0F90000012840F00081DFF8E7
S1134470200C0088401CDFF8181C0880DFF8140C9E
S113448000210180DFF8EC0D00210180DFF8080C29
S113449000210180DFF8040C00210170DFF8EC0B2F
S11344A0B0F90000DFF8DC1BB1F90010884280F29B
S11344B0A180DFF8B00BB0F900003328C0F28D8082
S11344C0DFF8DC0B007801283ED1DFF89C0BDFF825
S11344D0D01B09780170DFF8CC0BB0F9000001287B
S11344E00FD1DFF8C40BB0F90000002809D1DFF8C0
S11344F0940B0088DFF8B41B09880818DFF88C1BBC
S11345000880DFF8A00BB0F9000000280FD1DFF815
S1134510980BB0F90000012809D1DFF8700B00886E
S1134520DFF8881B0988401ADFF8581B0880DFF879
S11345304C0BDFF8701B09880180DFF84C0BDFF8A7
S1134540681B09880180F7E1DFF8400BB0F900002F
S1134550DFF8381BB1F900100818DFF8501BB1F967
S11345600010401A022190FBF1F0DFF8441BB1F96E
S11345700010401AFFF71BFD0400DFF8080BB0F928
S11345800000DFF8001BB1F900100818DFF81C1B4D
S1134590B1F900104018022190FBF1F0DFF8101B74
S11345A0B1F90010401AFFF702FD84420ADADFF87D
S11345B0DC0A0088DFF8F41A0988401ADFF8C41A04
S11345C00880B9E1DFF8BC0A0088DFF8E01A09883E
S11345D00818DFF8B81A0880AEE1DFF8A80ADFF897
S11345E0981C09880180DFF8A40ADFF8901C098868
S11345F00180A1E1DFF8940AB0F90000DFF8841A21
S1134600B1F90010401ADFF8A41AB1F900100A3900
S113461088422BDADFF86C0AB0F90000DFF86C1A74
S1134620B1F900100818022190FBF1F03F280EDACE
S1134630DFF8580A0088DFF8441C0988401ADFF8BC
S1134640381C09880818DFF83C1A088074E1DFF880
S1134650340A0088DFF8241C09880818DFF8181CBD
S11346600988401ADFF8241A088065E164E1DFF85C
S11346700C0AB0F90000012840F08180DFF8080A34
S1134680B0F9000000287AD1DFF8040A0021018083
S1134690DFF8000A0088401CDFF8F8190880DFF80A
S11346A0D40B00210180DFF8F00900210180DFF83C
S11346B0CC0BB0F90000DFF8CC19B1F90010884236
S11346C00CDADFF8C009DFF8B01B09880180DFF8D5
S11346D0BC09DFF8A81B098801802DE1DFF89C0BD9
S11346E0B0F90000DFF89C19B1F900108842C0F25B
S11346F02381DFF89009B0F90000DFF8B019B1F9AF
S11347000010D1F1700188422ADADFF86C09012126
S11347100170DFF86C0BDFF86C1B09880180DFF88F
S1134720640BDFF8641B09880180DFF85C0BDFF899
S11347305C1B09880180DFF8540BDFF848190988ED
S11347400180DFF840090088DFF8301B0988081869
S1134750DFF8241B0988401ADFF830190880EBE0E1
S1134760DFF820090088DFF8141B09880818DFF82F
S1134770081B0988401ADFF814190880DCE0DFF808
S1134780FC08B0F90000002840F08080DFF8F80849
S1134790B0F90000012879D1DFF8F4080021018084
S11347A0DFF8F00800210180DFF8C80A0088401C07
S11347B0DFF8C01A0880DFF8E00800210180DFF884
S11347C0CC08B0F90000DFF8B01AB1F90010884243
S11347D00CDADFF8B008DFF8A01A09880180DFF8E6
S11347E0AC08DFF8981A09880180A5E0DFF89C0876
S11347F0B0F90000DFF8801AB1F900108842C0F265
S11348009B80DFF8A808B0F900000F30DFF87C18AF
S1134810B1F9001088422ADADFF854080121017046
S1134820DFF86C0ADFF86C1A09880180DFF8640A83
S1134830DFF8641A09880180DFF85C0ADFF85C1A83
S113484009880180DFF8540ADFF8401809880180DC
S1134850DFF838080088DFF8241A0988401ADFF8DE
S1134860181A09880818DFF81C18088064E0DFF8B3
S11348701C080088DFF8041A0988401ADFF8F819C0
S113488009880818DFF8FC17088055E0DFF8EC0702
S11348900088DFF8F4170988084300B200284BD1D8
S11348A0DFF8FC090078DFF8FC19097888421CD28B
S11348B0DFF8B40701210170DFF8C807DFF8E81951
S11348C009880180DFF8C407DFF8E019098801804E
S11348D0DFF8A807DFF8CC1709880180DFF8A807FC
S11348E0DFF8C4170988018013E0DFF8B8090078FD
S11348F0DFF8AC19097888420BD2DFF88807DFF8B3
S1134900781909880180DFF88407DFF870190988AD
S11349100180DFF87C0700210180DFF8780700219F
S11349200180DFF8500900210180DFF86C0700885E
S1134930401CDFF864170880DFF86407DFF82817E5
S113494009780170DFF84409B0F90000DFF838197C
S1134950B1F900100818DFF82C19B1F9001040184B
S1134960032190FBF1F0DFF848190880DFF81C09F7
S1134970B0F90000DFF83819B1F90010401ADFF877
S11349800C19B1F90010DFF82829B2F90020891AAE
S1134990DFF8F428B2F90020DFF81439B3F9003055
S11349A0D21ADFF8E438B3F90030DFF80449B4F977
S11349B000401B1B5A4301FB0020DFF8C818B1F963
S11349C00010DFF8EC28B2F90020891ADFF8B428C7
S11349D0B2F90020DFF8D838B3F90030D21A02FB5C
S11349E00100032190FBF1F0DFF8C8180880DFF81C
S11349F0AC08B0F90000DFF8A018B1F900100818ED
S1134A00DFF89018B1F900104018032190FBF1F081
S1134A10DFF8A4180880DFF88408B0F90000DFF894
S1134A209818B1F90010401ADFF87018B1F90010A5
S1134A30DFF88428B2F90020891ADFF85C28B2F97B
S1134A400020DFF87438B3F90030D21ADFF84838A0
S1134A50B3F90030DFF86048B4F900401B1B5A4337
S1134A6001FB0020DFF82C18B1F90010DFF848280A
S1134A70B2F90020891ADFF81C28B2F90020DFF807
S1134A803838B3F90030D21A02FB0100032190FB3D
S1134A90F1F0DFF828180880DFF8E8050088DFF86F
S1134AA0D8170988401ADFF8D01709880818DFF8E2
S1134AB010180988401ADFF8081809880818DFF860
S1134AC004180988401ADFF800180880DFF8BC05CC
S1134AD00088DFF8A8170988401ADFF8A0170988AA
S1134AE00818DFF8E8170988401ADFF8E017098882
S1134AF00818DFF8DC170988401ADFF8D81708808F
S1134B00DFF88005B0F90000DFF89C17B1F9001058
S1134B10401ADFF87015B1F90010DFF88C27B2F9EC
S1134B200020891ADFF85027B2F90020DFF878371F
S1134B30B3F90030D21ADFF84037B3F90030DFF8A8
S1134B406847B4F900401B1B5A4301FB0020DFF8FF
S1134B507017B1F90010DFF85027B2F90020891A54
S1134B60DFF85C27B2F90020DFF83C37B3F90030F6
S1134B70D21A02FB0100032190FBF1F0DFF8581771
S1134B800880DFF80805B0F90000DFF82017B1F954
S1134B900010401ADFF8F414B1F90010DFF80C2704
S1134BA0B2F90020891ADFF8D426B2F90020DFF820
S1134BB0FC36B3F90030D21ADFF8C036B3F900304E
S1134BC0DFF8E846B4F900401B1B5A4301FB002000
S1134BD0DFF8F816B1F90010DFF8D026B2F900209A
S1134BE0891ADFF8E826B2F90020DFF8C036B3F9F5
S1134BF00030D21A02FB0100032190FBF1F0DFF830
S1134C00DC160880DFF8D8060078012840F0EC8034
S1134C10DFF864040078012867D1DFF8C80600884B
S1134C20401CDFF8C0160880DFF8B806B0F90000B1
S1134C3004285ADBDFF8AC06B0F90000001F80B28C
S1134C4038283AD2DFF86404B0F90000401DDFF8D8
S1134C502C16B1F90010DFF82026B2F90020891AC9
S1134C60884203DBDFF8800601210170DFF8780653
S1134C700078012839D1DFF8FC0301210170DFF845
S1134C806406B0F9000019282FDADFF82004B0F91F
S1134C900000022190FBF1F0D0F19100DFF8E41361
S1134CA00880DFF80804B0F90000022190FBF1F05D
S1134CB09130DFF8D813088017E0DFF828060021C8
S1134CC00180DFF8B40300210170DFF81C06002125
S1134CD00170DFF8A00300210170DFF81006002145
S1134CE00180DFF80C0601210170DFF88C030078E5
S1134CF0DFF8801309780843C0B2002803D1DFF835
S1134D00E40500210180DA480078012860D1DFF849
S1134D10E4050088401CDFF8DC150880DFF8D405C2
S1134D20B0F90000042853DBDFF8C805B0F900002F
S1134D30001F80B2382835D2DC48B0F90000401D8D
S1134D40DFF83815B1F90010DFF82C25B2F900208E
S1134D50891A884203DBDFF8A00501210170DFF81E
S1134D6098050078012833D1C04801210170DFF88B
S1134D708405B0F9000019282ADA7FF01100CB4924
S1134D80B1F90010022291FBF2F1401ABD490880EA
S1134D90C648B0F90000022190FBF1F01238BB497B
S1134DA0088015E0DFF84C0500210180B04800219F
S1134DB00170DFF8440500210170AC480021017046
S1134DC0DFF8280500210180DFF8240501210170A6
S1134DD0A7480078A54909780843C0B2002803D140
S1134DE0DFF8100500210180A648B0F90000A749AA
S1134DF0B1F900100818022190FBF1F0DFF8FC145F
S1134E00B1F90010401A012814DB9C48B0F90000E5
S1134E10002823D19C48B0F9000001281ED19948EC
S1134E20DFF85414098801809848DFF85014098881
S1134E30018013E09148B0F9000001280ED1924896
S1134E40B0F90000002809D18E48DFF82C14098835
S1134E5001808E48DFF82414098801808B48B0F95A
S1134E6000008849B1F90010884209DA8548DFF862
S1134E700814098801808548DFF800140988018036
S1134E808048B0F900008149B1F9001008180221E6
S1134E9090FBF1F0DFF868140880DFF86404008800
S1134EA0DFF858140988401ADFF85814088080483D
S1134EB0DFF84C14098801807A4870490988018018
S1134EC07948714909880180DFF83C04DFF83C1413
S1134ED009880180DFF83804DFF838140988018074
S1134EE0DFF82804DFF8DC1309880180DFF82404E4
S1134EF0DFF8DC1309880180DFF8C803DFF8C0138A
S1134F0009880180DFF8C803DFF8C013098801802D
S1134F10DFF8AC03D84909880180DFF8B003D7492A
S1134F2009880180D448574909880180D3485749E2
S1134F3009880180DFF8E003DFF8E01309880180C5
S1134F40DFF8D803DFF8D81309880180DFF8D0032D
S1134F50DFF8D01309880180DFF8C803DFF8C8132D
S1134F6009880180DFF8C003DFF8C01309880180D5
S1134F70DFF8B803DFF8B81309880180DFF8B0035D
S1134F80DFF8B01309880180DFF8A803DFF8A8135D
S1134F9009880180DFF8A003DFF8A01309880180E5
S1134FA0DFF89803DFF85C1309880180DFF88C03CD
S1134FB00088DFF884130988401ADFF88413088016
S1134FC0DFF874030088DFF86C130988401ADFF8EF
S1134FD074130880DFF85C030088DFF85413098831
S1134FE0401ADFF864130880DFF844030088DFF810
S1134FF03C130988401ADFF854130880DFF82C03A7
S11350000088DFF824130988401ADFF84413088065
S1135010DFF814030088DFF80C130988401ADFF85E
S113502034130880DFF8FC020088DFF8F4120988E2
S1135030401ADFF824130880DFF8E4020088DFF860
S1135040DC120988401ADFF814130880DFF8CC0258
S11350500088DFF8C4120988401ADFF8E0150880D8
S113506010BD00007608FF1FA808FF1FA308FF1F3C
S1135070A208FF1FA408FF1FA108FF1F7C08FF1F31
S1135080C406FF1FE607FF1F7E08FF1F1404FF1F4F
S11350908008FF1F8208FF1F8608FF1FA008FF1F4C
S11350A0A908FF1F7808FF1F7A08FF1F0608FF1FC3
S11350B00A08FF1F30B4032006210022DFF8A032C3
S11350C000241C80DFF89C3200241C80DFF870353B
S11350D000241C800B1A5B1C1A00DFF88C32DFF8EA
S11350E0244224881C8064230CE0DBB2DFF878427D
S11350F014EB430434F8024CDBB2DFF86C5225F8AD
S113510013405B1EDBB2012BEFD200230CE0DFF86F
S11351105C422488DBB2DFF8505235F813502C1966
S1135120DFF848522C805B1CDBB2032BEFD3DFF893
S11351303C32B3F90030032493FBF4F3DFF82C4240
S11351402380002310E0DBB2DFF81C4234F8134064
S1135150DBB2DFF8145235F813506C43DBB2DFF8DE
S1135160105225F813405B1CDBB2032BEBD3002356
S11351700CE0DFF8EC412488DBB2DFF8F45135F8B9
S113518013502C19DFF8D8512C805B1CDBB2032B95
S1135190EFD3DFF8CC31B3F90030032493FBF4F3FD
S11351A0DFF8C0412380DFF8C43100241C800023D1
S11351B006E0DBB2DFF8B841002524F813505B1C8D
S11351C0DBB2052BF5D3DFF8983100241C800300F3
S11351D00CE0DFF898412488DBB2DFF88C5135F815
S11351E013502C19DFF884512C805B1CDBB2C9B23C
S11351F08B42EED3DFF87431B3F90030C9B293FBBC
S1135200F1F3DFF868412380030010E0DBB2DFF83C
S1135210584134F81340DBB2DFF84C5135F81350E1
S11352206C43DBB2DFF8485125F813405B1CDBB25A
S1135230C9B28B42EAD303000CE0DFF824010088F2
S1135240DBB2DFF82C4134F813402018DFF81041AA
S113525020805B1CDBB2C9B28B42EED3DFF80001C5
S1135260B0F90000D2B290FBF2F0DFF8D41308805A
S113527030BC70478408FF1FF207FF1FF407FF1FAD
S11352806C08FF1F6A08FF1F6808FF1F6608FF1FDE
S11352906408FF1F6208FF1F6008FF1F5E08FF1FEE
S11352A01E04FF1F4A04FF1F1008FF1F1604FF1FE0
S11352B07008FF1F7208FF1F6E08FF1F7408FF1F8E
S11352C0F607FF1FFA07FF1FEE07FF1FF807FF1F70
S11352D0FC07FF1FF007FF1F0C08FF1F0E08FF1F2E
S11352E01F04FF1F5008FF1FA608FF1F4E08FF1FC3
S11352F0A708FF1F5208FF1FA508FF1F1408FF1F60
S11353000808FF1F1808FF1F0208FF1FFE07FF1FE2
S11353100408FF1F0008FF1F2E08FF1F2C08FF1F93
S11353202A08FF1F2808FF1F2608FF1F2408FF1F45
S11353302208FF1F2008FF1F1E08FF1F1C08FF1F55
S11353403008FF1F3208FF1F3408FF1F3608FF1FF5
S11353503808FF1F3A08FF1F3C08FF1F3E08FF1FC5
S11353605808FF1F5A08FF1F2C05FF1F5608FF1F70
S1135370F405FF1F81B000208DF8000006E000BF97
S113538000BF9DF80000401C8DF800009DF800004F
S11353900128F4D301B0704770B5DFF8A403DFF837
S11353A0A41309880180DFF89803B0F9000001F024
S11353B085F9DFF894130968FEF7D8FADFF88C133F
S11353C00860DFF8880301680020FEF7CFFADFF8F1
S11353D07C130968FEF7CAFADFF870130968FEF750
S11353E0C5FA0100DFF86403006801F07FF90400E6
S11353F0DFF858030168DFF85803FEF7B7FADFF85F
S11354004C130968FEF7B2FADFF840130968FEF797
S1135410ADFADFF838130968FEF7A8FADFF82C13A1
S11354200968FEF7A3FA210001F0D4F9FEF72CFB7A
S1135430DFF82023C2E90001DFF81C030068FEF74F
S113544023FB02000B00DFF80C43D4E9000101F058
S1135450F1FADFF80023C2E90001DFF8F822D2E90B
S113546000010122DFF8F43201F008FC06D8DFF86D
S1135470E4020022DFF8E432C0E90023DFF8D4229A
S1135480D2E900010022DFF8D83201F00FFC06D285
S1135490DFF8C0020022DFF8C832C0E90023DFF8D9
S11354A0B422D2E900010022002301F0FFFB09D25B
S11354B0DFF8A002DFF89C12D1E9002393F0004347
S11354C0C0E90023DFF878020088DFF89812098821
S11354D0401ADFF894120880DFF89002007801285F
S11354E015D1DFF88C0200684FF4C87190FBF1F01D
S11354F001F0E4F8DFF87C120968FEF737FADFF808
S11355007812096801F066F9DFF870120860DFF8B4
S11355107002B0F9000001F0D1F80400DFF82002B5
S1135520B0F9000001F0CAF8DFF850120968FEF77C
S11355301DFA210001F04EF9FEF7A6FA04000D0051
S1135540DFF830020068FEF79FFADFF81C65D6E941
S1135550002301F0C3FB22002B00FEF7CDFA040068
S11355600D00DFF80402B0F9000001F0A7F8DFF83D
S1135570FC140968FEF7FAF9FEF786FA22002B00FC
S1135580FEF7BAFA01F07CFCDFF80C150880DFF8AE
S1135590D401DFF8AC1109880180DFF8E401B0F927
S11355A00000DFF8CC14B1F900100818DFF8E81493
S11355B0B1F90010884209DADFF8C4010088DFF885
S11355C0B01409880818DFF8D0140880DFF8C8047C
S11355D0B0F90000DFF8A811B1F90010DFF8902449
S11355E0B2F90020891A884209DADFF894010088A8
S11355F0DFF87C140988401ADFF89C140880DFF86F
S11356009804B0F900200221002000F0A3FD70BD31
S1135610DFF888040068DFF85C140880DFF85804B9
S11356200088DFF8501409880818DFF84C14088043
S1135630DFF8680400210160704700004008FF1F84
S11356405C08FF1FDFF83404B0F90000DFF8301401
S1135650B1F9001088422DDBDFF828040121017024
S1135660DFF82404B0F900000B2818DBDFF81C0471
S1135670B0F90000DFF8F8100968884204DADFF8AE
S1135680EC000121017046E0DFF8FC0300210180F9
S1135690DFF8FC03DFF8FC13098801803BE0DFF846
S11356A0E80300210180DFF8E803DFF8E813098844
S11356B0018030E0DFF8C403B0F90000DFF8C01364
S11356C0B1F90010884226DADFF8B803007801281F
S11356D007D1DFF8B00300210170DFF8AC0300212B
S11356E00180DFF8A4030088401CDFF89C130880C5
S11356F0DFF89403B0F90000042806DBDFF8900318
S1135700DFF89C130988018005E0DFF88403DFF8E3
S1135710841309880180DFF88C030078012804D001
S1135720DFF884030078012808D1DFF880030078CB
S1135730002803D1DFF878030121017070470000CD
S11357401208FF1F1808FF1F2404FF1FC006FF1FB5
S113575000004040E004FF1F2804FF1F0000344005
S1135760000034C01608FF1F4208FF1FAA08FF1FCD
S1135770BC06FF1FC807FF1F5C04FF1F5404FF1F64
S11357802C04FF1F70B5DFF83003DFF8EC12B1F919
S113579000100160DFF8E00200210180DFF81C0343
S11357A00078012805D1DFF8140300210170FFF708
S11357B049FFDFF80C03B0F90000DFF8FC120968B8
S11357C0884209DADFF8C8020088DFF8F81209888D
S11357D0401ADFF8BC120880DFF8EC02B0F90000D0
S11357E0DFF8E812B1F90010401A022190FBF1F041
S11357F0DFF8C4120968A54AB2F90020891A91FB9E
S1135800F0F001F063FB91F00041DFF8C422C2E93B
S11358100001DFF8BC02D0E900230020002101F0E0
S11358205DFADFF8AC42D4E9002301F057FADFF85F
S1135830A042D4E9002301F051FA02000B00DFF882
S11358409042D4E9000100F079FE04000D00DFF875
S11358508002D0E900230020DFF8781201F03EFA3C
S1135860DFF86C62D6E9002301F038FADFF86062F1
S1135870D6E9002301F032FADFF85462D6E90023B6
S113588001F02CFADFF84862D6E9002301F026FA89
S113589022002B00FEF730F90022DFF83C3201F041
S11358A01DFA01F0EDFADFF80C120880DFF82C0283
S11358B0007801281FD17548B0F90000DFF8F8110D
S11358C00968884206DADFF81802DFF8E811098867
S11358D001807BE0DFF80402002101706A480021A6
S11358E00180DFF8000200210180DFF8F4014FF4A9
S11358F0487101806AE06648B0F90000DFF8A01141
S1135900B1F90010884233D1DFF8DC01006801F0FE
S1135910DDFA5FF03332DFF8D43101F0DFF9020051
S11359200B0014001D00DFF89001006801F0CEFAAE
S113593022002B0001F0BAF905D2DFF8A4014FF4DC
S11359407A71018042E05648B0F90000FEF790F900
S113595059480068132148430A2190FBF1F0FEF7EF
S113596095F94B4909884018DFF8741108802DE037
S1135970DFF87401006801F0A9FA00225C4B01F021
S1135980ADF902000B0014001D004B48006801F043
S11359909DFA22002B0001F089F904D250484FF4FB
S11359A01671018012E03B48B0F90000FEF760F97F
S11359B041480068132148430A2190FBF1F0FEF7A7
S11359C065F9334909884018454908803848007802
S11359D0012815D12D48B0F900001438364909685A
S11359E0884203DA3E484349018009E030480021F7
S11359F001702E480121017039484FF4487101802B
S1135A003748B0F9000040F2E341884203DB3448F0
S1135A1040F2E24101803248B0F900003549884241
S1135A2002DA2F48334901802D48B0F900000128DB
S1135A300BDB0023012209212F4800F02DFD2F4804
S1135A402749B1F9001001600DE001230122092169
S1135A50294800F021FD2248B0F9000040F2E2415B
S1135A6008182649086070BDE804FF1F5804FF1F8A
S1135A702E04FF1FE407FF1F4408FF1F5A08FF1FDF
S1135A805004FF1FAB08FF1F5408FF1F3004FF1F03
S1135A906C04FF1F7004FF1F1804FF1F04800B40D9
S1135AA06E04FF1FA308FF1FA408FF1FAD08FF1FFC
S1135AB0AC08FF1F7204FF1FBC06FF1FB708FF1FBF
S1135AC07604FF1F7404FF1F4404FF1F4604FF1FD6
S1135AD0F004FF1F0000084000002840AA08FF1F30
S1135AE08808FF1F8A08FF1F4004FF1F3333E33F6A
S1135AF00000E03F1EFBFFFF40F00F40109003400A
S1135B0030B4DFF8B83198420AD1DFF8B4314FF439
S1135B1040741C60DFF8AC314FF440741C6049E001
S1135B20DFF8A43198420AD1DFF8A0314FF4407471
S1135B301C60DFF89C314FF440741C603AE0DFF8DD
S1135B40943198420AD1DFF890314FF440741C60CC
S1135B50DFF888314FF440741C602BE0DFF88031AB
S1135B6098420AD1DFF87C314FF440741C60DFF8AE
S1135B7078314FF440741C601CE0DFF870319842B7
S1135B800AD1DFF86C314FF440741C60DFF86431E3
S1135B904FF440741C600DE0DFF85C31984209D189
S1135BA0DFF858314FF440741C60DFF854314FF47F
S1135BB040741C60DFF80431984208D1DFF84431A6
S1135BC01B6853F48063DFF83C4123603BE0DFF85B
S1135BD0F830984208D1DFF82C311B6853F4006385
S1135BE0DFF8204123602EE0DFF8E830984208D146
S1135BF0DFF810311B6853F48053DFF80841236049
S1135C0021E0DFF8DC30984208D1DFF8F8301B6877
S1135C1053F40053DFF8EC40236014E0DFF8CC3099
S1135C20984208D1DFF8E0301B6853F48063DFF852
S1135C30D840236007E0DFF8D0301B6853F40063DA
S1135C40DFF8C4402360C37813F0F303C370002368
S1135C5083701A4B984208D000231B4CA04204D0F6
S1135C6053F00003DBB2002B00D049184FF47A73D1
S1135C7003FB01F31401B3FBF4F3047814F0E00420
S1135C809BB21D0A15F01F052C43047043704FF49A
S1135C90FA4461431201B1FBF2F19BB2B1EB43113F
S1135CA0827A12F0E00411F01F0121438172C1785D
S1135CB051F00C01C17030BC7047000000A00640D8
S1135CC018C004401CC0044000B0064010B004409A
S1135CD00CB0044000C006400CC0044008C004409E
S1135CE000D0064044B0044040B0044000A00E4040
S1135CF060D0044064D0044000B00E4020D0044082
S1135D0024D00440348004402880044030B400236C
S1135D10DFF8202612684FF47A7462438A4201D273
S1135D2000209EE0802303FB01F3B2FBF3F44FF663
S1135D30FF739C4280F017810723C0B2002840F013
S1135D409280DFF8F4552C60402404FB01F4B2FB8C
S1135D50F4F44FF6FF75AC4260D20623C0B20028BB
S1135D6040F09180DFF8D0552C604C01B2FBF4F484
S1135D704FF6FF75AC4251D20523C0B2002840F063
S1135D809280DFF8B4552C600C01B2FBF4F44FF6AA
S1135D90FF75AC4242D20423C0B2002840F0938085
S1135DA0DFF894552C60CC00B2FBF4F44FF6FF7589
S1135DB0AC4233D20323C0B2002840F09480DFF811
S1135DC078552C608C00B2FBF4F44FF6FF75AC42AE
S1135DD024D20223C0B2002840F09580DFF8585541
S1135DE02C604C00B2FBF4F44FF6FF75AC4215D2B4
S1135DF00123C0B2002840F09680DFF83C552C60A7
S1135E00B2FBF1F44FF6FF718C4207D20023C0B20B
S1135E10002840F09880DFF820150C60C0B20028FC
S1135E2040F0A380DFF81405006850F08070DFF8BC
S1135E300C150860DBB213F0070050F00800DFF81F
S1135E4000150860DFF8FC0400210160DFF8F804A5
S1135E5000210160DFF8F404DFF8DC140968016054
S1135E60012030BC7047C0B2012803D1DFF8E054F0
S1135E702C6069E7C0B2022803D1DFF8D8542C6043
S1135E8062E70020EDE7C0B2012803D1DFF8C05477
S1135E902C606AE7C0B2022803D1DFF8B8542C6042
S1135EA063E70020DDE7C0B2012803D1DFF8A05486
S1135EB02C6069E7C0B2022803D1DFF898542C6043
S1135EC062E70020CDE7C0B2012803D1DFF8805497
S1135ED02C6068E7C0B2022803D1DFF878542C6044
S1135EE061E70020BDE7C0B2012803D1DFF86054A8
S1135EF02C6067E7C0B2022803D1DFF858542C6045
S1135F0060E70020ADE7C0B2012803D1DFF84054B8
S1135F102C6066E7C0B2022803D1DFF838542C6045
S1135F205FE700209DE7C0B2012803D1DFF82054C9
S1135F302C6065E7C0B2022803D1DFF818542C6046
