S01E000050452056312E3420323031342E30362E3239206973722E73726563E6
S1130000F8FF002011040000835F0000835F0000FC
S1130010835F0000835F0000835F0000835F000054
S1130020835F0000835F0000835F0000835F000044
S1130030835F0000835F0000835F0000835F000034
S1130040835F0000835F0000835F0000835F000024
S1130050835F0000835F0000835F0000835F000014
S1130060835F0000835F0000835F0000835F000004
S1130070835F0000835F0000835F0000835F0000F4
S1130080835F0000835F0000835F0000835F0000E4
S1130090835F0000835F0000835F0000835F0000D4
S11300A0835F0000835F0000835F0000835F0000C4
S11300B0835F0000835F0000835F0000835F0000B4
S11300C0835F0000835F0000835F0000835F0000A4
S11300D0835F0000835F0000835F0000835F000094
S11300E0835F0000835F0000835F0000835F000084
S11300F0835F0000835F0000835F0000835F000074
S1130100835F0000835F0000835F0000835F000063
S1130110835F0000835F0000835F0000835F000053
S1130120835F0000835F0000835F0000835F000043
S1130130835F0000835F0000835F0000835F000033
S1130140835F0000835F0000835F0000835F000023
S1130150F5770000835F0000835F0000835F000089
S1130160835F0000835F0000835F0000835F000003
S1130170835F0000835F0000835F0000835F0000F3
S1130180835F0000835F0000835F0000835F0000E3
S1130190835F0000835F0000835F0000835F0000D3
S1130400FFFFFFFFFFFFFFFFFFFFFFFFFEFFFFFFF9
S11304104FF000004FF000014FF000024FF00003D6
S11304204FF000044FF000054FF000064FF00007B6
S11304304FF000084FF000094FF0000A4FF0000B96
S11304404FF0000C62B607F083FAFEE738B50022DD
S113045000240025DFF87817002003E000220A704A
S1130460491C401CC0B28A28F8D302F003FCDFF810
S1130470600EB0F9000002F0BBFCDFF85827002141
S1130480002002F050FFDFF8502700213C2002F04A
S11304904AFFDFF848270221002002F044FF03F05E
S11304A005F803F043F8DFF82C1E08706E2003F003
S11304B0C5F9DFF8200E0078012840F0A080DFF8AD
S11304C0140EFF210170DFF818070121017002F0FA
S11304D094FD8CE0AFA20021002002F024FFDFF89D
S11304E004070068DFF8001703F0CCF903F036FACC
S11304F080B2020000213C2002F069FFEAA202213E
S1130500002002F010FFDFF84C2E02213C2002F004
S11305100AFFE9A20421002002F005FFDFF8642E9F
S113052004213C2002F0FFFEE4A20621002002F098
S1130530FAFEDFF86C2E06213C2002F0F4FE6E2059
S113054003F07CF902F0B2FF02F0F0FFDFF8541E72
S11305500870DFF8500E0078FF2805D0DFF8740D1E
S1130560DFF8401E09780170DFF8680D007807286D
S113057013D1DFF87006006803F012FADFF86C2676
S1130580DFF86C3603F044FA03F0B6FADFF85416D9
S11305900860DFF8400DFF210170DFF8380D0078A6
S11305A0082813D1DFF83C06006803F0F9F9DFF8F6
S11305B03C26DFF8403603F02BFA03F09DFADFF80F
S11305C024160860DFF80C0DFF210170DFF8040D1C
S11305D0007809280BD1DFF80806FF210170DFF845
S11305E0F40CFF210170DFF8BC0DFF210170DFF86E
S11305F0F005007801283FF46DAF02F0FEFCDFF84F
S1130600D40C0078022840F09C80DFF8C80CFF214D
S11306100170DFF8CC050221017002F0EEFC88E0E5
S11306206E2003F00BF902F041FF02F07FFFDFF8C8
S1130630741D0870DFF86C0D0078FF2805D0DFF812
S1130640940CDFF8601D09780170D8A20021002005
S113065002F069FEDFF8A0050068DFF88C1503F0EE
S113066011F903F07BF980B2020000213C2002F072
S1130670AEFE8DA20221002002F055FEDFF8F82D17
S113068002213C2002F04FFE8BA20421002002F044
S11306904AFEDFF8E82D04213C2002F044FE87A244
S11306A00621002002F03FFEDFF8D42D06213C2075
S11306B002F039FEDFF81C0C0078072813D1DFF8AC
S11306C03805006803F06CF9DFF82025DFF82035E1
S11306D003F09EF903F010FADFF81C150860DFF848
S11306E0F40BFF210170DFF8EC0B0078082813D11C
S11306F0DFF80405006803F053F9DFF8F024DFF8AD
S1130700F43403F085F903F0F7F9DFF8EC1408602A
S1130710DFF8C00BFF210170DFF8B80B007809285F
S113072007D1DFF8BC04FF210170DFF8A80BFF211B
S11307300170DFF8AC04007802283FF471AF02F0D6
S11307405CFCDFF8900B0078032840F09E80DFF813
S1130750840BFF210170DFF888040321017002F08B
S11307604CFC8BE06E2003F069F802F09FFE02F06F
S1130770DDFEDFF8301C0870DFF8280C0078FF2855
S113078005D0DFF8500BDFF81C1C09780170CFA2EC
S113079002E000BF53703A000021002002F0C3FDC4
S11307A0DFF8E00C0068DFF8401403F06BF803F0A6
S11307B0D5F880B2020000213C2002F008FE3AA2E3
S11307C00221002002F0AFFDDFF8AC2C02213C2016
S11307D002F0A9FD38A20421002002F0A4FDDFF8F4
S11307E09C2C04213C2002F09EFD34A20621002012
S11307F002F099FDDFF8882C06213C2002F093FDDD
S1130800DFF8D00A0078072813D1DFF8780C0068E5
S113081003F0C6F8DFF8D423DFF8D43303F0F8F894
S113082003F06AF9DFF85C1C0860DFF8A80AFF210E
S11308300170DFF8A00A0078082813D1DFF8440C0F
S1130840006803F0ADF8DFF8A423DFF8A83303F061
S1130850DFF803F051F9DFF82C1C0860DFF8740AA4
S1130860FF210170DFF86C0A0078092806D1DC4802
S1130870FF210170DFF85C0AFF210170D84800787D
S113088003283FF46FAF02F0B8FBDFF8480A0078A2
S11308900A287FF4F2ADDFF83C0AFF21017002F070
S11308A0ACFBDFF8E00B01E02B3A00000268D24811
S11308B00168CC4804E000BF2D3A000052653A00BC
S11308C0006802F099FAFA2002F0B8FFDFF8B82BBA
S11308D00021002002F027FDDFF8B02B00213C208E
S11308E002F021FDDFF8A82B0221002002F01BFDFD
S11308F0DFF8A42B0421002002F015FDDFF8A02B63
S113090004213C2002F00FFDDFF89C2B062100207F
S113091002F009FD02F0CAFD02F008FEDFF8B41986
S113092008706E2002F08AFFDFF8A8090078012819
S113093040F09C80DFF89C09FF210170A848012148
S1130940017002F05AFB8AE09FA20021002002F00D
S1130950EAFCDFF8580B0068A34902F093FF02F0A9
S1130960FDFF80B2020000213C2002F030FDD3A242
S11309700221002002F0D7FCDFF8D82902213C2014
S113098002F0D1FCCEA20421002002F0CCFCDFF85E
S1130990F42904213C2002F0C6FCCAA2062100204E
S11309A002F0C1FCDFF8F82902E000BF53693A0005
S11309B006213C2002F0B7FC6E2002F03FFF02F05B
S11309C075FD02F0B3FDDFF8DC190870DFF8D40917
S11309D00078FF2805D0DFF8FC08DFF8C81909788B
S11309E00170DFF8F0080078072811D1DFF8BC0A9D
S11309F0006802F0D5FF7D4A7D4B03F009F803F04F
S1130A007BF8DFF8A81A0860DFF8C808FF21017036
S1130A10DFF8C0080078082811D1DFF8900A0068D0
S1130A2002F0BEFF714A734B02F0F2FF03F064F868
S1130A30DFF8781A0860DFF89C08FF210170DFF8FE
S1130A409408007809280AD16548FF210170DFF86D
S1130A508408FF210170DFF84C09FF210170604810
S1130A60007801283FF470AF02F0C7FADFF8640899
S1130A700078022840F09880DFF85808FF210170C0
S1130A8057480221017002F0B8FA86E06E2002F0A5
S1130A90D5FE02F00BFD02F049FDDFF808190870DD
S1130AA0DFF800090078FF2805D0DFF82808DFF810
S1130AB0F4180978017045A20021002002F033FCEB
S1130AC0DFF8EC090068484902E000BF53643A00CB
S1130AD002F0D8FE02F042FF80B2020000213C2066
S1130AE002F075FC75A20221002002F01CFCDFF864
S1130AF0882902213C2002F016FC71A20421002066
S1130B0002F011FCDFF8742904213C2002F00BFCF4
S1130B106CA20621002002F006FCDFF864290621FD
S1130B203C2002F000FCDFF8AC070078072811D164
S1130B30DFF87C09006802F033FF2C4A2C4B02F0EA
S1130B4067FF02F0D9FFDFF868190860DFF884074F
S1130B50FF210170DFF87C070078082811D1DFF845
S1130B605009006802F01CFF204A224B02F050FF9B
S1130B7002F0C2FFDFF838190860DFF85807FF21D8
S1130B800170DFF850070078092806D11448FF21C6
S1130B900170DFF84007FF21017011480078022836
S1130BA03FF474AF02F029FADFF82807007803282D
S1130BB040F0A480DFF81C07FF21017008480321DE
S1130BC0017002F01AFA91E04B703A004B643A005B
S1130BD0A006FF1FE07B0000E87B0000F07B000024
S1130BE07E04FF1F8004FF1F000020419A999999F9
S1130BF09999B93F9999B9BFA007FF1F6E2002F0D8
S1130C001DFE02F053FC02F091FCDFF89817087007
S1130C10DFF890070078FF2805D0DFF8B806DFF882
S1130C20841709780170DFF88C280021002002F075
S1130C307AFBDFF88408B0F9002000213C2002F0A0
S1130C40C6FB1EA20221002002F06DFBDFF828285B
S1130C5002213C2002F067FB19A20421002002F0CB
S1130C6062FBDFF8182804213C2002F05CFB15A28B
S1130C700621002002F057FBDFF8042806213C205F
S1130C8002F051FBDFF84C06007807280AD1DFF8A0
S1130C9028080088401CDFF820180880DFF8340694
S1130CA0FF210170DFF82C060078082811D1DFF845
S1130CB008080088401EDFF8001805E02B3A000001
S1130CC02D3A000052653A000880DFF80806FF213B
S1130CD00170DFF800060078092807D1DFF8DC0787
S1130CE0FF210170DFF8EC05FF210170DFF8CC076C
S1130CF0007803283FF482AF02F07FF9DFF8D405CF
S1130D000078042840F08380DFF8C805FF210170D3
S1130D10DFF8A8070421017002F06FF970E06E207B
S1130D2002F08CFD02F0C2FB02F000FCDFF8741646
S1130D300870DFF870060078FF2805D0DFF8940506
S1130D40DFF8601609780170DFF8742700210020AD
S1130D5002F0E9FADFF87805B0F9002000213C2020
S1130D6002F035FBE4A20221002002F0DCFADFF8F5
S1130D70082702213C2002F0D6FAE0A20421002038
S1130D8002F0D1FADFF8F42604213C2002F0CBFA79
S1130D90E1A20621002002F0C6FADFF8E4260621CB
S1130DA03C2002F0C0FADFF82C05007807280AD1AD
S1130DB0DFF81C050088401CDFF814150880DFF8F4
S1130DC01405FF210170DFF80C05007808280AD10A
S1130DD0DFF8FC040088401EDFF8F4140880DFF814
S1130DE0F404FF210170DFF8EC040078092807D12E
S1130DF0DFF8C806FF210170DFF8D804FF21017075
S1130E00DFF8B8060078042889D002F0F6F8DFF895
S1130E10C4040078052840F08380DFF8B804FF217B
S1130E200170DFF898060521017002F0E6F870E021
S1130E306E2002F003FD02F039FB02F077FBDFF8CD
S1130E4064150870DFF85C050078FF2805D0DFF82A
S1130E508404DFF8501509780170DFF86826002152
S1130E60002002F060FADFF86006B0F900200021EB
S1130E703C2002F0ACFAA0A20221002002F053FAB6
S1130E80DFF8F42502213C2002F04DFA9BA2042154
S1130E90002002F048FADFF8E42504213C2002F0A7
S1130EA042FA9DA20621002002F03DFADFF8D02587
S1130EB006213C2002F037FADFF8180400780728EE
S1130EC00AD1DFF804060088401CDFF8FC1508800E
S1130ED0DFF80004FF210170DFF8F8030078082828
S1130EE00AD1DFF8E4050088401EDFF8DC1508802D
S1130EF0DFF8E003FF210170DFF8D8030078092848
S1130F0007D1DFF8B805FF210170DFF8C803FF211E
S1130F100170DFF8A8050078052889D002F06DF883
S1130F20DFF8B003007806287CD1DFF8A803FF219E
S1130F300170DFF888050621017002F05EF86AE0AE
S1130F406E2002F07BFC02F0B1FA02F0EFFADFF857
S1130F5054140870DFF84C040078FF2805D0DFF83B
S1130F607403DFF8401409780170DFF8142D0021B0
S1130F70002002F0D8F9DFF80C0DB0F900200021B0
S1130F803C2002F024FA5CA20221002002F0CBF9FA
S1130F90DFF8E42402213C2002F0C5F957A2042121
S1130FA0002002F0C0F9DFF8D42404213C2002F030
S1130FB0BAF959A20621002002F0B5F9DFF8C024DD
S1130FC006213C2002F0AFF9C2480078072809D175
S1130FD0DFF8B00C0088401CDFF8A81C0880BD486E
S1130FE0FF210170BB480078082809D1DFF8940C70
S1130FF00088401EDFF88C1C0880B648FF21017071
S1131000B4480078092806D1DFF8B004FF21017044
S1131010B048FF210170DFF8A404007806288FD0BF
S113102001F0EBFFAB4800780A287FF44CACA948E8
S1131030FF21017001F0E1FFFA2002F0FFFBDFF86D
S1131040482C0021002002F06EF9DFF8402C022128
S1131050002002F068F9DFF8382C0421002002F0A7
S113106062F9DFF8302C0021462002F05CF9DFF849
S1131070282C0221462002F056F9DFF8202C042106
S1131080462002F050F902F011FA02F04FFA9149A9
S113109008706E2002F0D2FB8E480078012840F0E0
S11310A099808C48FF210170DFF810040121017040
S11310B001F0A3FF87E0DFF8E82B0021002002F015
S11310C032F9DFF8E00B0068DFF8DC1B02F0DAFB32
S11310D002F044FC80B2020000213C2002F077F9C7
S11310E005A20221002002F01EF99A4A02213C20A6
S11310F002F019F901A203E02B3A00002D3A000096
S11311000421002002F00FF99E4A04213C2002F041
S11311100AF901A202E000BF52653A00062100204C
S113112002F001F99E4A06213C2002F0FCF86E20F0
S113113002F084FB02F0BAF902F0F8F99949087058
S113114098480078FF2803D06248964909780170CE
S113115060480078072812D1DFF8480B006802F0D5
S11311601FFCDFF8482BDFF8483B02F051FC02F08B
S1131170C3FCDFF8301B08605648FF210170554856
S11311800078082812D1DFF81C0B006802F008FC74
S1131190DFF8182BDFF81C3B02F03AFC02F0ACFC41
S11311A0DFF8001B08604B48FF21017049480078B4
S11311B0092808D1C148FF2101704648FF21017068
S11311C07848FF210170BD48007801283FF473AFCF
S11311D001F013FF3F480078022840F095803D4815
S11311E0FF210170B5480221017001F006FF84E07F
S11311F06E2002F023FB02F059F902F097F96949D5
S1131200087068480078FF2803D032486549097897
S11312100170DFF8A42A0021002002F084F8DFF82E
S11312209C0A0068DFF8801A02F02CFB02F096FB9F
S113123080B2020000213C2002F0C9F895A20221EC
S1131240002002F070F88C4A02213C2002F06BF876
S113125092A20421002002F066F8884A04213C206E
S113126002F061F88FA20621002002F05CF8844AA3
S113127006213C2002F057F816480078072812D1BE
S1131280DFF8380A006802F08BFBDFF8202ADFF869
S1131290203A02F0BDFB02F02FFCDFF8201A0860B0
S11312A00C48FF2101700B480078082819D1DFF899
S11312B00C0A006802F074FBDFF8F029DFF8F43957
S11312C002F0A6FB02F018FCDFF8F01904E000BFFE
S11312D06E04FF1F7C04FF1F0860DFF8E409FF2190
S11312E00170DFF8DC090078092806D17348FF2172
S11312F00170DFF8CC09FF210170704800780228E2
S11313003FF476AF01F079FEDFF8B40900780328E2
S113131040F0A280DFF8A809FF210170674803218B
S1131320017001F06AFE90E06E2002F087FA02F08C
S1131330BDF802F0FBF81B4908701A480078FF2832
S113134004D0DFF87C09174909780170DFF87429A3
S113135002E000BFF87B00000021002001F0E3FF61
S1131360DFF864090068DFF8401902F08BFA02F034
S1131370F5FA80B2020000213C2002F028F845A2D0
S113138002E000BF007C00000221002001F0CBFF3E
S1131390394A02213C2001F0C6FF40A204E000BF0C
S11313A0087C00007B04FF1F0421002001F0BBFF28
S11313B0324A04213C2001F0B6FF3AA20621002063
S11313C001F0B1FF2E4A06213C2001F0ACFFDFF80A
S11313D0F0080078072813D1DFF8EC08006802F061
S11313E0DFFADFF8C828DFF8C83802F011FB02F092
S11313F083FBDFF8D4180860DFF8C408FF2101700C
S1131400DFF8BC080078082813D1DFF8BC080068AE
S113141002F0C6FADFF89428DFF8983802F0F8FAF8
S113142002F06AFBDFF8A0180860DFF89408FF21D7
S11314300170DFF88C080078092806D11F48FF21C5
S11314400170DFF87C08FF2101701C480078032834
S11314503FF46AAF01F0D1FDDFF864080078042896
S113146040F0C680DFF85808FF21017013480421BA
S1131470017001F0C2FDB3E0107C0000187C000094
S1131480207C0000A407FF1F287C0000307C0000A3
S1131490387C00002B3A0000407C00002D3A00000C
S11314A0487C000052653A00507C00003004FF1F65
S11314B03804FF1F587C00006C04FF1F7E04FF1FCC
S11314C0747B0000807B00007204FF1F6E2002F01A
S11314D0B5F901F0EBFF02F029F8DFF81C1E0870E3
S11314E0DFF8140E0078FF2805D0DFF8D407DFF802
S11314F0081E09780170DFF8D4270021002001F0CC
S113150012FFDFF8CC070068DFF89C1702F0BAF985
S113151002F024FA80B2020000213C2001F057FFBF
S1131520EBA20221002001F0FEFEDFF8582E02217A
S11315303C2001F0F8FEE7A20421002001F0F3FEB4
S1131540DFF8702E04213C2001F0EDFEE2A206211A
S1131550002001F0E8FEDFF8602E06213C2001F0B7
S1131560E2FEDFF85C070078072813D1DFF8600794
S1131570006802F015FADFF83427DFF8343702F098
S113158047FA02F0B9FADFF848170860DFF83007C5
S1131590FF210170DFF828070078082813D1DFF84D
S11315A03007006802F0FCF9DFF80027DFF80437A1
S11315B002F02EFA02F0A0FADFF814170860DFF840
S11315C00007FF210170DFF8F8060078092807D129
S11315D0DFF80007FF210170DFF8E406FF21017046
S11315E0DFF8F006007804283FF470AF01F005FD41
S11315F0DFF8CC060078052840F09D80DFF8C006AF
S1131600FF210170DFF8CC060521017001F0F5FC23
S113161089E06E2002F012F901F048FF01F086FF24
S1131620DFF8D41C0870DFF8D00C0078FF2805D050
S1131630DFF88C06DFF8C01C09780170DFF8982603
S11316400021002001F06FFEDFF890060068DFF84B
S1131650581602F017F902F081F980B20200002155
S11316603C2001F0B4FE9AA20221002001F05BFEAE
S1131670DFF8102D02213C2001F055FE95A2042133
S1131680002001F050FEDFF82C2D04213C2001F055
S11316904AFE91A20621002001F045FEDFF8182D34
S11316A006213C2001F03FFEDFF8140600780728ED
S11316B013D1DFF82806006802F072F9DFF8EC2590
S11316C0DFF8EC3502F0A4F902F016FADFF80C1694
S11316D00860DFF8EC05FF210170DFF8E40500780D
S11316E0082813D1DFF8F405006802F059F9DFF88F
S11316F0BC25DFF8C03502F08BF902F0FDF9DFF804
S1131700DC150860DFF8B805FF210170DFF8B005CB
S11317100078092807D1DFF8BC05FF210170DFF844
S1131720A005FF210170DFF8AC05007805283FF41F
S113173070AF01F062FCDFF888050078062840F0FD
S11317409D80DFF87C05FF210170DFF88805062104
S1131750017001F052FC89E06E2002F06FF801F094
S1131760A5FE01F0E3FEDFF8901B0870DFF8880B9C
S11317700078FF2805D0DFF84805DFF87C1B0978DE
S11317800170DFF8382D0021002001F0CCFDDFF8D6
S1131790300D0068DFF8101502F074F802F0DEF87E
S11317A080B2020000213C2001F011FE48A2022177
S11317B0002001F0B8FDDFF8CC2B02213C2001F021
S11317C0B2FD44A20421002001F0ADFDDFF8E42BBA
S11317D004213C2001F0A7FD3FA20621002001F0D6
S11317E0A2FDDFF8D42B06213C2001F09CFDDFF89C
S11317F0D0040078072813D1DFF8C40C006802F085
S1131800CFF8DFF8A824DFF8A83402F001F902F0D9
S113181073F9DFF8AC1C0860DFF8A404FF21017041
S1131820DFF89C040078082813D1DFF8940C0068D2
S113183002F0B6F8DFF87424DFF8783402F0E8F840
S113184002F05AF9DFF8781C0860DFF87404FF210D
S11318500170DFF86C040078092807D1DFF87404FC
S1131860FF210170DFF85804FF210170DFF86404E0
S1131870007806283FF470AF01F0BFFBDFF84004A6
S113188000780A287FF4D8ABDFF83404FF21017014
S113189001F0B3FBFA2001F0D1FFDFF8282C00217E
S11318A0002001F040FDDFF8202C0021462001F04B
S11318B03AFDDFF8182C0221002001F034FDDFF896
S11318C0102C0421002001F02EFDDFF8082C05E087
S11318D02B3A00002D3A000052653A0004214620BC
S11318E001F021FDDFF8F02B0621002001F01BFDA3
S11318F001F0DCFD01F01AFEDFF8C41308706E205D
S113190001F09CFFDFF8B8030078012840F09480D0
S1131910DFF8AC03FF210170DFF8B8030121017087
S113192001F06BFB81E0DFF8B42B0021002001F013
S1131930FAFCDFF8AC0B0068DFF86C1301F0A2FFCF
S113194002F00CF880B2020000213C2001F03FFDBF
S1131950C4A20221002001F0E6FCDFF8882B02215A
S11319603C2001F0E0FCC0A20421002001F0DBFCDB
S1131970DFF8742B04213C2001F0D5FCBBA2062126
S1131980002001F0D0FCDFF8642B06213C2001F09C
S1131990CAFC6E2001F052FF01F088FD01F0C6FD83
S11319A0DFF854190870DFF850090078FF2804D0D4
S11319B0C348DFF8441909780170C1480078072842
S11319C010D1DFF81C0B006801F0EAFFB74AB84BEE
S11319D002F01EF802F090F8DFF8041B0860B84823
S11319E0FF210170B6480078082810D1DFF8F00A0A
S11319F0006801F0D5FFAD4AAE4B02F009F802F0E1
S1131A007BF8DFF8DC1A0860AD48FF210170AC48B0
S1131A100078092809D1AF48FF210170A848FF21A7
S1131A200170DFF8D408FF210170AA48007801286A
S1131A303FF479AF01F0E1FAA1480078022840F0C0
S1131A408D809F48FF210170A2480221017001F09E
S1131A50D4FA7CE06E2001F0F1FE01F027FD01F0E4
S1131A6065FDDFF894180870DFF88C080078FF280B
S1131A7004D09348DFF8801809780170DFF8702AE1
S1131A800021002001F04FFCDFF8680A0068864955
S1131A9001F0F8FE01F062FF80B2020000213C2058
S1131AA001F095FC6FA20221002001F03CFCDFF85C
S1131AB0D42802213C2001F036FC6BA20421002032
S1131AC001F031FCDFF8EC2804213C2001F02BFC70
S1131AD066A20621002001F026FCDFF8DC2806219E
S1131AE03C2001F020FC76480078072810D1DFF86C
S1131AF0040A006801F054FF6C4A6D4B01F088FF42
S1131B0001F0FAFFDFF8EC1908606D48FF2101705D
S1131B106B480078082810D1DFF8D809006801F074
S1131B203FFF624A634B01F073FF01F0E5FFDFF80A
S1131B30C41908606248FF210170614800780928CF
S1131B4005D16448FF2101705D48FF21017061489F
S1131B50007802283FF47EAF01F04FFA584800782D
S1131B60032878D15648FF2101705A480321017097
S1131B7001F043FA69E06E2001F060FE01F096FC8A
S1131B8001F0D4FCDFF870170870DFF86C070078F8
S1131B90FF2804D04A48DFF8601709780170DFF89D
S1131BA058290021002001F0BEFBDFF85009B0F9EC
S1131BB0002092B200213C2001F009FC29A202215C
S1131BC0002001F0B0FBDFF8BC2702213C2001F02B
S1131BD0AAFB25A20421002001F0A5FBDFF8D427ED
S1131BE004213C2001F09FFB20A20621002001F0EB
S1131BF09AFBDFF8C42706213C2001F094FB30480F
S1131C000078072809D1DFF8F4080088401CDFF8C1
S1131C10EC1808802A48FF21017029480078082818
S1131C2009D1DFF8D8080088401EDFF8D0180880F2
S1131C302348FF21017022480078092805D125484E
S1131C40FF2101701E48FF210170224800780328FB
S1131C5091D001F0D2F91A480078042840F0D280DB
S1131C60174805E02B3A00002D3A000052653A006F
S1131C70FF21017017480421017001F0BEF9B9E099
S1131C80607C00007004FF1F687C0000707C000012
S1131C90787C0000807C0000887C0000907C000040
S1131CA0987C00004004FF1F000020419A999999F4
S1131CB09999B93F9999B9BFA07C00004404FF1FCA
S1131CC07C04FF1FA87C00004804FF1FB07C0000B8
S1131CD05404FF1F7E04FF1FB87C00005804FF1F3C
S1131CE06E2001F0ABFD01F0E1FB01F01FFCDFF819
S1131CF008160870DFF800060078FF2805D0DFF822
S1131D00100EDFF8F41509780170DFF8082E0021B1
S1131D10002001F008FBDFF8000E0068DFF8FC1D6E
S1131D2001F0B0FD01F01AFE80B2020000213C2057
S1131D3001F04DFBE0A20221002001F0F4FADFF8EB
S1131D40442602213C2001F0EEFADCA2042100200A
S1131D5001F0E9FADFF85C2604213C2001F0E3FA03
S1131D60E8A20621002001F0DEFADFF84C26062165
S1131D703C2001F0D8FADFF8980D0078072813D139
S1131D80DFF8940D006801F00BFEDFF8942DDFF806
S1131D90943D01F03DFE01F0AFFEDFF87C1D0860CC
S1131DA0DFF86C0DFF210170DFF8640D007808285E
S1131DB013D1DFF8640D006801F0F2FDDFF8602D47
S1131DC0DFF8643D01F024FE01F096FEDFF8481DC3
S1131DD00860DFF83C0DFF210170DFF8340D007856
S1131DE0092807D1DFF8440DFF210170DFF8200D29
S1131DF0FF210170DFF8340D007804283FF470AF40
S1131E0001F0FBF8DFF8080D0078052840F09D800C
S1131E10DFF8FC0CFF210170DFF8100D05210170C3
S1131E2001F0EBF889E06E2001F008FD01F03EFBC3
S1131E3001F07CFBDFF8C0140870DFF8BC04007804
S1131E40FF2805D0DFF8C80CDFF8AC14097801705E
S1131E50DFF8082E0021002001F065FADFF8000EFB
S1131E600068DFF8B81C01F00DFD01F077FD80B2C9
S1131E70020000213C2001F0AAFA8FA202210020D6
S1131E8001F051FADFF8FC2402213C2001F04BFA66
S1131E908AA20421002001F046FADFF81825042163
S1131EA03C2001F040FA97A20621002001F03BFA01
S1131EB0DFF8042506213C2001F035FADFF8500C48
S1131EC00078072813D1DFF8980D006801F068FD49
S1131ED0DFF84C2CDFF84C3C01F09AFD01F00CFECD
S1131EE0DFF87C1D0860DFF8280CFF210170DFF8A3
S1131EF0200C0078082813D1DFF8640D006801F085
S1131F004FFDDFF81C2CDFF8203C01F081FD01F0CF
S1131F10F3FDDFF84C1D0860DFF8F40BFF210170BE
S1131F20DFF8EC0B0078092807D1DFF8000CFF215B
S1131F300170DFF8DC0BFF210170DFF8F00B007893
S1131F4005283FF470AF01F058F8DFF8C40B0078AF
S1131F50062840F08180DFF8B80BFF210170DFF81C
S1131F60CC0B0621017001F048F86EE06E2001F000
S1131F7065FC01F09BFA01F0D9FADF490870DE48EC
S1131F800078FF2804D0DFF8880BDB49097801705A
S1131F90DFF8D02C0021002001F0C5F9DFF8C80CCF
S1131FA0B0F9002092B200213C2001F010FA42A2C4
S1131FB00221002001F0B7F9DFF8C82302213C20F8
S1131FC001F0B1F93DA20421002001F0ACF9DFF8E1
S1131FD0E42304213C2001F0A6F94AA206210020B2
S1131FE001F0A1F9DFF8D02306213C2001F09BF990
S1131FF0DFF81C0B007807280AD1DFF86C0C008886
S1132000401CDFF8641C0880DFF8040BFF2101701A
S1132010DFF8FC0A007808280AD1DFF84C0C0088A5
S1132020401EDFF8441C0880DFF8E40AFF21017039
S1132030DFF8DC0A0078092807D1DFF8F00AFF216D
S11320400170DFF8CC0AFF210170DFF8E00A0078A4
S113205006288BD000F0D1FFDFF8B40A00780A28F4
S11320607FF418ACDFF8A80AFF21017000F0C5FF67
S1132070FA2001F0E3FBDFF8742C0021002001F0CA
S113208052F9DFF86C2C0021462001F04CF9DFF8FE
S1132090642C0221002001F046F9DFF85C2C0221B7
S11320A0462001F040F9DFF8542C0421002001F00F
S11320B03AF9DFF84C2C03E02B3A00002D3A0000EB
S11320C00421462001F02FF901F0F0F901F02EFA75
S11320D0DFF83C1A08706E2001F0B0FBDFF8300A1C
S11320E00078012840F08480DFF8240AFF21017081
S11320F0DFF8380A0121017000F07FFF71E0DFF89A
S11321006C2B01E052653A000021002001F00BF92C
S1132110DFF85C0B027800213C2001F058F9CEA2D4
S11321200221002001F0FFF8DFF8B82302213C204F
S113213001F0F9F8C9A20421002001F0F4F8DFF855
S1132140A82304213C2001F0EEF8C5A206210020BA
S113215001F0E9F8E54A06213C2001F0E4F86E209C
S113216001F06CFB01F0A2F901F0E0F9624908709A
S113217061480078FF2804D0DFF894095E490978A3
S11321800170DFF88C09007807280AD1DFF8E00A2B
S11321900078401CDFF8D81A0870DFF87409FF21B2
S11321A00170DFF86C09007808280AD1DFF8C00A4A
S11321B00078401EDFF8B81A0870DFF85409FF21D0
S11321C00170DFF84C09007809280AD1DFF85C09AE
S11321D0FF210170DFF83809FF2101704648FF2113
S11321E00170DFF848090078012888D000F005FF65
S11321F0DFF81C090078022840F09A80DFF8100903
S1132200FF210170DFF824090221017000F0F5FEBE
S113221086E06E2001F012FB01F048F901F086F926
S11322203549087034480078FF2804D0DFF8E00806
S1132230314909780170DFF8CC2A0021002001F02F
S113224072F8DFF8C40A0068DFF8D01801F01AFB4E
S113225001F084FB80B2020000213C2001F0B7F8B9
S11322607DA20221002001F05EF8464A02213C20B2
S113227001F059F879A20421002001F054F84D4AE4
S113228004213C2001F04FF875A20621002001F042
S11322904AF8494A06213C2001F045F8DFF8700865
S11322A00078072813D1DFF8600A006801F078FB92
S11322B0DFF86C28DFF86C3801F0AAFB01F01CFC95
S11322C0DFF8441A0860DFF84808FF210170DFF8DE
S11322D040080078082816D1DFF82C0A006801F0BD
S11322E05FFBDFF83C28DFF8403801F091FB01F098
S11322F003FCDFF8141A01E07B04FF1F0860DFF819
S11323001008FF210170DFF808080078092807D1B8
S1132310DFF81808FF210170DFF8F407FF210170CE
S1132320DFF80808007802283FF473AF00F065FE78
S1132330DFF8DC070078032840F0AE80DFF8D00730
S1132340FF210170DFF8E4070321017000F055FE5E
S11323509AE06E2001F072FA01F0A8F801F0E6F8B4
S1132360DFF8AC190870DFF8A8090078FF2805D059
S1132370DFF89C07DFF8981909780170DFF89429D1
S113238002E000BF107C00000021002000F0CBFF21
S1132390DFF884090068DFF8841701F073FA01F0AC
S11323A0DDFA80B2020000213C2001F010F82AA2DC
S11323B004E000BF187C0000207C00000221002003
S11323C000F0B1FFDFF8542902213C2000F0ABFFFC
S11323D022A20421002000F0A6FFDFF844290421F2
S11323E03C2000F0A0FF1EA20621002000F09BFF6D
S11323F0DFF8302906213C2000F095FFDFF81007B4
S11324000078072813D1DFF81009006801F0C8FA32
S1132410DFF80C27DFF80C3701F0FAFA01F06CFB57
S1132420DFF8F4180860DFF8E806FF210170DFF830
S1132430E006007808281AD1DFF8DC08006801F00B
S1132440AFFADFF8DC26DFF8E03601F0E1FA01F05C
S113245053FBDFF8C41805E02B3A00002D3A0000C6
S113246052653A000860DFF8A806FF210170DFF822
S1132470A0060078092807D1DFF8B006FF21017013
S1132480DFF88C06FF210170DFF8A006007803282E
S11324903FF45FAF00F0B1FDDFF874060078042864
S11324A040F0C080DFF86806FF210170DFF87C0689
S11324B00421017000F0A1FDACE000BFC07C00006D
S11324C05C04FF1FC87C0000D07C00008C7B0000F3
S11324D0D87C0000E07C0000987B0000E87C0000D1
S11324E04C04FF1FF87B0000007C0000087C000007
S11324F0F07C00005004FF1FA47B00002A04FF1F8F
S11325006E2001F09BF900F0D1FF01F00FF8DFF825
S113251000180870DFF8F8070078FF2805D0DFF806
S1132520F005DFF8EC1709780170DFF8FC270021CB
S1132530002000F0F8FEDFF8F4070068DFF8DC158F
S113254001F0A0F901F00AFA80B2020000213C2057
S113255000F03DFFD5A20221002000F0E4FEDFF8E8
S1132560BC2702213C2000F0DEFED1A20421002081
S113257000F0D9FEDFF8A82704213C2000F0D3FEA8
S1132580CCA20621002000F0CEFEDFF89827062119
S11325903C2000F0C8FEDFF878050078072813D146
S11325A0DFF88807006801F0FBF9DFF87425DFF82D
S11325B0743501F02DFA01F09FFADFF87017086006
S11325C0DFF84C05FF210170DFF844050078082886
S11325D013D1DFF85807006801F0E2F9DFF840256D
S11325E0DFF8443501F014FA01F086FADFF83C17FD
S11325F00860DFF81C05FF210170DFF8140500787E
S1132600092807D1DFF82405FF210170DFF8000550
S1132610FF210170DFF81405007804283FF470AF3F
S113262000F0EBFCDFF8E8040078052840F0838034
S1132630DFF8DC04FF210170DFF8F00405210170EC
S113264000F0DBFC70E06E2001F0F8F800F02EFFE3
S113265000F06CFFDFF8B8160870DFF8B4060078F5
S1132660FF2805D0DFF8A804DFF8A4160978017064
S1132670DFF8BC260021002000F055FEDFF8B40688
S1132680B0F9002000213C2000F0A1FE87A2022125
S1132690002000F048FEDFF8842602213C2000F0F0
S11326A042FE83A20421002000F03DFEDFF87026E4
S11326B004213C2000F037FE7EA20621002000F019
S11326C032FEDFF8602606213C2000F02CFEDFF805
S11326D04004007807280AD1DFF858060088401C17
S11326E0DFF850160880DFF82804FF210170DFF8B6
S11326F02004007808280AD1DFF838060088401E34
S1132700DFF830160880DFF80804FF210170DFF8D5
S113271000040078092807D1DFF81004FF210170B4
S1132720DFF8EC03FF210170DFF8000400780528CE
S113273089D000F062FCDFF8D803007806287AD14B
S1132740DFF8CC03FF210170DFF8E00306210170FC
S113275000F053FC69E06E2001F070F800F0A6FE72
S113276000F0E4FEDFF8A8150870DFF8A40500788F
S1132770FF2805D0DFF89803DFF894150978017075
S1132780DFF8B4250021002000F0CDFDDFF8AC0512
S1132790B0F9002000213C2000F019FE43A20221E0
S11327A0002000F0C0FDDFF8742502213C2000F079
S11327B0BAFD3FA20421002000F0B5FDDFF860253A
S11327C004213C2000F0AFFD3AA20621002000F0D5
S11327D0AAFDDFF8502506213C2000F0A4FDCC48DA
S11327E00078072809D1DFF854050088401CDFF879
S11327F04C150880C648FF210170C5480078082898
S113280009D1DFF838050088401EDFF8301508804C
S1132810BF48FF210170BE480078092805D1C3488C
S1132820FF210170BA48FF210170C04800780628D2
S113283091D000F0E2FBB64800780A287FF418AC87
S1132840B348FF21017000F0D8FBDFF8F4040078EE
S1132850012809D1B6A20021002000F064FDFA206D
S113286000F0ECFF00F0C9FBDFF8D4040221017092
S1132870DFF8D00401210180DFF8CC0401210180BC
S1132880DFF8C8040078012840F08780DFF8BC0432
S113289000210170DFF8B80401F0DCFB01F01EFE3A
S11328A0DFF8B0040088DFF8B01405E02B3A00002C
S11328B02D3A000052653A0009880818DFF894148C
S11328C00880DFF898040088DFF894140988081851
S11328D0DFF888140880DFF88C040088DFF8881497
S11328E009880818DFF87C140880641C200000B2F2
S11328F00A2852DB0024DFF85C04B0F900000A2146
S113290090FBF1F0DFF864140880DFF85004B0F9AC
S113291000000A2190FBF1F0DFF854140880DFF87E
S11329204404B0F900000A2190FBF1F0DFF84414EC
S11329300880DFF8200400210180DFF82004002152
S11329400180DFF8200400210180DFF828040088DA
S1132950DFF81C140988401ADFF81C140880DFF81B
S11329601C04DFF8141409880180DFF80004B0F9AE
S1132970002000210A2000F006FCDFF8F403B0F97F
S1132980002002210A2000F0FEFBDFF8E803B0F982
S113299000200221462000F0F6FBDFF8E403007873
S11329A0012874D1DFF8D80300210170DFF8D403C3
S11329B001F064FC02F0AAFCDFF8CC030088DFF825
S11329C0CC1309880818DFF8C0130880DFF8C003A7
S11329D00088DFF8C01309880818DFF8B4130880EA
S11329E0DFF8B4030088DFF8B41309880818DFF8A7
S11329F0A81308806D1C280000B20A2847DB0025B4
S1132A00DFF88403B0F900000A2190FBF1F0DFF84D
S1132A1090130880DFF87803B0F900000A2190FBD6
S1132A20F1F0DFF880130880DFF86C03B0F90000E0
S1132A300A2190FBF1F0DFF870130880D2480021DE
S1132A400180D34800210180D34800210180D64869
S1132A500088D4490988401AD4490880D448D34905
S1132A6009880180CE48B0F9002004210A2000F032
S1132A708AFBCC48B0F9002006210A2000F083FB31
S1132A80C948B0F900200621462000F07CFB00F084
S1132A900DFD00F04BFD9E4908709D480078FF280D
S1132AA003D01B489A4909780170194800780C280A
S1132AB07FF4CBAE1648FF2101701C480C21017035
S1132AC000F09BFA1CE06E2000F0B8FE00F0EEFC73
S1132AD000F02CFD8E4908708D480078FF2803D043
S1132AE00B488B4909780170094800780C2805D1F6
S1132AF00E48FF2101700648FF21017000F07DFAA5
S1132B000A4800780C28DED08D48012101706BE062
S1132B107C04FF1FF87C00006004FF1F00002041BC
S1132B209A9999999999B93F9999B9BF7E04FF1FC8
S1132B30636A00009F480068332803DB9E487FF0E7
S1132B40C70101808E480078012807D18C480021F4
S1132B5001708C4801F092FB02F0DCFA7B480078AB
S1132B60012841D1794800210170794801F072FAB5
S1132B7001F0B4FC02F0D8F902F038FE8F48027874
S1132B8000210A2000F0FFFA8D4802780021462037
S1132B9000F0F9FA7248B0F9002002210A2000F08E
S1132BA0F2FA7148B0F900200221462000F0EBFA55
S1132BB08448B0F9002004210A2000F0E4FA824895
S1132BC0B0F900200421462000F0DDFA7F48B0F976
S1132BD000200621002000F038FB7D48B0F90020D9
S1132BE00621462000F0CFFA55480078012810D17C
S1132BF046A206213C2000F096FB4FF4FA6000F058
S1132C001DFE00F0FAF94F48002101804E480021D2
S1132C1001804B48022101706E48B0F90000012880
S1132C2090D16C480021018002F08BFE6A48B0F913
S1132C300000022886D15F48006810F1310FBFF60A
S1132C4079AF002301220921644803F049F964485B
S1132C50002101603B480121018073E7007D0000F1
S1132C606404FF1FB07B00002C04FF1F387D0000AC
S1132C707A04FF1F80B572B65FF4E13259480168E7
S1132C80594803F07FF9002300220821574803F034
S1132C9027F94FF49671002003F07AFA41F22A22C0
S1132CA00221002003F0E9FB42F21071012003F03D
S1132CB06FFA03F0ECFC03F04EFD00F065FF00F04A
S1132CC0C5F9002200215FF07F5000F095F84FF421
S1132CD07A7000F08DF84EF66021002003F0C2FDFA
S1132CE0002003F0EEFD62B601BD0000087D000087
S1132CF0107D0000187D0000207D0000287D00006C
S1132D00307D0000BC7B00003404FF1F676F0000AF
S1132D107B04FF1FC87B00003C04FF1F107C0000E5
S1132D20187C0000207C0000407D00006804FF1F28
S1132D30487D00007804FF1F507D00007604FF1FCB
S1132D407D04FF1FAE08FF1FB008FF1FC808FF1F48
S1132D50A006FF1FA208FF1FE607FF1FA408FF1F0E
S1132D60C407FF1FA608FF1F1404FF1FEE07FF1F61
S1132D70EA07FF1F1604FF1FB408FF1FE407FF1F25
S1132D80C908FF1F2007FF1FA808FF1F2C08FF1FEB
S1132D90AA08FF1F1A08FF1FAC08FF1F1804FF1F13
S1132DA03008FF1F2E08FF1F1A04FF1FB608FF1F5D
S1132DB02A08FF1F9C06FF1F6C04FF1FBE08FF1F8D
S1132DC0BD08FF1F6C08FF1F6A08FF1F7408FF1F60
S1132DD09208FF1FA008FF1F9408FF1F40F00F4038
S1132DE010900340BC07FF1F00D0064080F00F4046
S1132DF02649096808607047244B1B68986023487B
S1132E000068C160214800680261704710B51F491D
S1132E1009680968081A1E4908601D48006803F01B
S1132E207DFD1A490968896800F02CFD04001748E3
S1132E300068406903F072FD14490968C96800F02C
S1132E4021FD0100200003F081FD04000F4800680B
S1132E50806903F063FD0D490968096900F012FDFA
S1132E60210003F0E7FD00F079FD0A4908600748F6
S1132E700068064909684969816104480068044991
S1132E80096841610348006810BD00001004FF1F79
S1132E90EC04FF1FF004FF1F0821DFF8F42512687B
S1132EA052F40032DFF8E8351A6000BFDFF8E0259D
S1132EB0126832F48042DFF8D8351A6000BF19E096
S1132EC0DFF8CC25126832F40042DFF8C4351A600A
S1132ED0DFF8BC25126852F48042DFF8B4351A607A
S1132EE000BFDFF8AC25126832F48042DFF8A03569
S1132EF01A6040000A00511ED2B2002A0AD002060B
S1132F00DED5DFF88C25126852F40042DFF88035F4
S1132F101A60DDE7704700000821DFF874251268A5
S1132F2032F40032DFF868351A60DFF8642512687D
S1132F3032F48042DFF858351A6019E0DFF8502582
S1132F40126832F40042DFF848351A60DFF8402591
S1132F50126852F48042DFF838351A6000BFDFF897
S1132F603025126832F48042DFF824351A604000BC
S1132F700A00511ED2B2002A0AD00206DED5DFF8BA
S1132F801025126852F40042DFF804351A60DDE7B8
S1132F90704710B50400B1F15000C0B2FFF7BCFF98
S1132FA0E4B2200950F01000C0B2FFF7B5FF14F0EE
S1132FB00F0050F00100C0B2FFF7AEFF10BD70B5B6
S1132FC00400002508E02000C0B2FFF765FF761C6E
S1132FD0F6B2802EF7D36D1CEDB2082D0CD2B5F1EC
S1132FE05000C0B2FFF798FF0120FFF795FF1020B3
S1132FF0FFF792FF0026EBE770BD38B5002407E029
S11330000020FFF749FF6D1CEDB2802DF8D3641C3E
S1133010E4B2082C0CD2B4F15000C0B2FFF77CFF2C
S11330200120FFF779FF1020FFF776FF0025EBE77B
S113303031BD07E043F226410A00511E92B2002A34
S1133040FAD1401E80B20028F4D1704780B5DFF871
S113305044044FF480710160DFF83C044FF4807144
S11330600160DFF838044FF480710160DFF8300448
S11330704FF480710160DFF82C045FF4703101605B
S1133080DFF80C04006850F48040DFF80414086092
S1133090DFF8FC03006830F48030DFF8F4130860D4
S11330A03220FFF7C6FFDFF8E803006850F48030F1
S11330B0DFF8DC130860AE20FFF72EFF0020FFF7D7
S11330C02BFF1020FFF728FF4020FFF725FF81206A
S11330D0FFF722FFCF20FFF71FFFA120FFF71CFF00
S11330E0C820FFF719FFA620FFF716FFA820FFF757
S11330F013FF3F20FFF710FFD320FFF70DFF002041
S1133100FFF70AFFD520FFF707FF8020FFF704FF32
S1133110D920FFF701FFF120FFF7FEFEDA20FFF7C9
S1133120FBFE1220FFF7F8FEDB20FFF7F5FE402040
S1133130FFF7F2FE2020FFF7EFFE0220FFF7ECFE80
S11331408D20FFF7E9FE1420FFF7E6FEA420FFF729
S1133150E3FEA620FFF7E0FEAF20FFF7DDFE002030
S1133160FFF72DFF00210020FFF713FFFF20FFF7DB
S113317026FF642000F062FB0020FFF720FF64209C
S113318000F05CFB01BD2DE9FC4104000D000026AC
S113319000275FF00008642092FBF0F08DF8000037
S11331A0642092FBF0F100FB11200A2190FBF1F066
S11331B08DF801000A2092FBF0F100FB11208DF83C
S11331C002000020804610E0F6B2300150FA87F089
S11331D0DFF8D4124018007AFFF75EFE7F1CFFB2BE
S11331E0082FF1D3083418F101085FFA88F8B8F110
S11331F0030F28D25FFA88F800A818F8000010F12D
S11332001006E4B2792C01D300246D1C2900C9B244
S11332102000C0B2FFF7BDFE002709E0F6B230017E
S113322050FA87F0DFF88012405CFFF735FE7F1C10
S1133230FFB2082FF2D3691CC9B22000C0B2FFF755
S1133240A8FE0027CBE7BDE8F3812DE9FC4104008B
S11332500D00002600275FF000084FF47A7092FBFF
S1133260F0F08DF800004FF47A7092FBF0F100FB5F
S11332701120642190FBF1F08DF80100642092FB91
S1133280F0F100FB11200A2190FBF1F08DF802000F
S11332900A2092FBF0F100FB11208DF803000020BE
S11332A0804610E0F6B2300150FA87F0DFF8F811EA
S11332B04018007AFFF7F0FD7F1CFFB2082FF1D30E
S11332C0083418F101085FFA88F8B8F1040F28D21D
S11332D05FFA88F800A818F8000010F11006E4B2AC
S11332E0792C01D300246D1C2900C9B22000C0B27E
S11332F0FFF74FFE002709E0F6B2300150FA87F0DD
S1133300DFF8A411405CFFF7C7FD7F1CFFB2082F54
S1133310F2D3691CC9B22000C0B2FFF73AFE0027FD
S1133320CBE7BDE8F3812DE9F84304000D00160056
S113333000275FF000085FF0000913E0FFB23801D6
S113334050FA88F0DFF860114018007AFFF7A4FD06
S113335018F101085FFA88F8B8F1080FEED30834C1
S113336019F101095FFA89F919F8060000282CD02F
S11333705FFA89F919F80600B0F12007E4B2792C54
S113338001D300246D1C2900C9B22000C0B2FFF78C
S113339000FE5FF000080AE0FFB2380150FA88F03E
S11333A0DFF80411405CFFF777FD18F101085FFABC
S11333B088F8B8F1080FEFD3691CC9B22000C0B275
S11333C0FFF7E7FD5FF00008C4E7BDE8F1832DE9EE
S11333D0F04182B004000D00002600275FF00008D1
S11333E06420B2FBF0F08DF800000A20B2FBF0F08C
S11333F00A21B0FBF1F301FB13008DF801000A2050
S1133400B2FBF0F100FB11208DF802000020804691
S11334100FE0F6B2300150FA87F023494018007AE1
S1133420FFF73AFD7F1CFFB2082FF2D3083418F1DE
S113343001085FFA88F8B8F1030F27D25FFA88F819
S113344000A818F8000010F11006E4B2792C01D39A
S113345000246D1C2900C9B22000C0B2FFF799FDF9
S1133460002708E0F6B2300150FA87F00E49405CBC
S1133470FFF712FD7F1CFFB2082FF3D3691CC9B2FA
S11334802000C0B2FFF785FD0027CCE7BDE8F3813B
S113349000F00F40389004403C90044040900440B9
S11334A04490044014F00F40EC6F000080B5DFF846
S11334B08403006850F48050DFF878130860002318
S11334C000220021DFF8700302F00AFD002300222D
S11334D00121DFF8640302F003FD0023002202212E
S11334E0DFF8540302F0FCFC002300220321DFF880
S11334F0480302F0F5FC012300220421DFF838031D
S113350002F0EEFC012300220521DFF82C0302F077
S1133510E7FC012300220621C74802F0E1FC002356
S113352000220721C44802F0DBFC01BDF8B50025E8
S1133530FF24002301220021BF4802F0D1FC012313
S113354001220121BC4802F0CBFC0123012202210B
S1133550B94802F0C5FC012301220321B64802F058
S1133560BFFC0421B44802F005FD06000521B24861
S113357002F000FD07000621AF4802F0FBFC7901D0
S113358011EB061111EB80160721AB4802F0F2FC97
S113359016EBC0100500EDB2702D2AD00A2000F001
S11335A04DF90421A44802F0E5FC05000521A248D8
S11335B002F0E0FC060006219F4802F0DBFC7101EA
S11335C011EB051111EB801507219B4802F0D2FC89
S11335D015EBC015EDB2702D0BD0EDB2302D07D028
S11335E0502D03D0602D04D10A2402E00B2400E006
S11335F00C240123012200218F4802F071FC0023D6
S1133600012201218C4802F06BFC012301220221DA
S1133610894802F065FC012301220321864802F057
S11336205FFC0421844802F0A5FC050005218248C2
S113363002F0A0FC060006217F4802F09BFC710109
S113364011EB051111EB801507217B4802F092FC68
S113365015EBC015EDB2702D2AD00A2000F0EEF85B
S11336600421754802F086FC05000521724802F029
S113367081FC06000621704802F07CFC710111EB0C
S1133680051111EB801507216B4802F073FC15EB53
S1133690C015EDB2702D0BD0EDB2302D07D0502DEA
S11336A003D0602D04D1072402E0082400E009249B
S11336B0012301220021604802F012FC01230122AF
S11336C001215D4802F00CFC0023012202215A482A
S11336D002F006FC012301220321574802F000FCFA
S11336E00421554802F046FC05000521524802F029
S11336F041FC06000621504802F03CFC710111EB2C
S1133700051111EB801507214B4802F033FC15EB32
S1133710C015EDB2702D2AD00A2000F08FF80421D4
S1133720454802F027FC05000521434802F022FC2D
S113373006000621404802F01DFC710111EB051141
S113374011EB801507213C4802F014FC15EBC01561
S1133750EDB2702D0BD0EDB2302D07D0502D03D02B
S1133760602D04D1042402E0052400E00624012392
S113377001220021304802F0B3FB01230122012180
S11337802D4802F0ADFB0123012202212A4802F058
S1133790A7FB002301220321274802F0A1FB0421F7
S11337A0254802F0E7FB05000521234802F0E2FB6F
S11337B006000621204802F0DDFB710111EB051122
S11337C011EB801507211C4802F0D4FB15EBC01542
S11337D0EDB2702D2AD00A2000F030F804211648EA
S11337E002F0C8FB05000521134802F0C3FB0600E4
S11337F00621114802F0BEFB710111EB051111EB1A
S1133800801507210C4802F0B5FB15EBC015EDB28D
S1133810702D0BD0EDB2302D07D0502D03D0602D7C
S113382004D1012402E0022400E003242000C0B2F9
S1133830F2BD000038800440C0F00F400D49096813
S113384051F001010B4A11600B4908600B48052136
S113385001600B48006850F00100094908600848FD
S113386000680006FBD5064800684008400004498B
S11338700860704738800440080004400400044095
S113388000000440FF2212EAD05C1DBF12EAD153AB
S1133890944593422BE09C44D30780EA01021A40EA
S11338A043EA002043EA0121A1FB0030410038BF74
S11338B040007CF17F010BDBFE294ADA5B0842EA17
S11338C0C15153EA006373F1004C51EB102070476F
S11338D0D1F1080CDCF120012FDB5B0810FA01F1B7
S11338E00B4373F1004120FA0CF0504170479445AA
S11338F01CBF02EAD153934280EA010202F0004263
S11339001DD0400019D0490017D05BB9634514D0CD
S11339100902B1FA81F39940BCEB030CC00140F0F9
S11339200040C1E70002B0FA80FC10FA0CF0B3EBDF
S11339300C0CC90141F00041B6E71000704740008B
S11339400AD0490008D010F1807F94BF11F1807F24
S113395002E042F0FF407047D04370474100090E37
S11339607F3915D4D1F11F0114D4400007D2C0010E
S113397040F00040C84048BF6FF000407047C001AD
S113398040F00040C8404CBF4FF0004040427047F8
S11339900020704700424FF0004058BFC0437047BA
S11339A05FF0FF0C1CEAD05114BF614506E0C11062
S11339B0400721F0E04101F16051704779B900F00E
S11339C0004100020AD0B0FA80FC00FA0CF001F1C8
S11339D06051A1EB0C5101EBD0214005704741022D
S11339E00CBF40F4E0016FF000010020704750F874
S11339F0041B61B150F8042BD30744BFA9F10103A0
S1133A009A18002342F8043B091FFAD1EFE77047E4
S1133A1070B44FF0004591EA030C44BF6B4003F0CF
S1133A204BB800BF841A71EB030603D2001BB141EB
S1133A30121973414FF4001C1CEB410F34BF7CEB93
S1133A40430443E00C0DA4EB1356352E50DC45EA39
S1133A50C323DB0A45EAC121C912B6F120050DDDF5
S1133A6063FA05F6EB4086EA0305124218BF45F0F7
S1133A700105C01851F100010CD213E062FA06F5F9
S1133A80F2405540F3415A40B340F3405A40801845
S1133A90594107D349085FEA30005FEA350528BF7A
S1133AA045F0010501F58011420875F1004250F11D
S1133AB0000041EB045170BC4FF4001C1CEB410F9F
S1133AC038BF70470020090D090570471CEB410FF2
S1133AD010D252EA43060BD0BCEB410F05D80C0DB3
S1133AE0AB43661E342EB5DD02E0AB43801859416A
S1133AF070BC704770BC70474FEAF17CBCF1E04C7D
S1133B002CBFBCF5001F11E05FEA4C0C34BFBCF1C4
S1133B107F5F2EE05FEA9C0C4FEA0C1C4FEA3C0CE2
S1133B20C10071F100414CEB50707047C90241EA89
S1133B305051C00218BF41F0010141F000414FEA69
S1133B406C50C0F10900212810D240EACC7CCCF1A1
S1133B50200C11FA0CF070F10040CCF1200C21FA89
S1133B600CF00CF0004C40EB0C0070474FEACC70AA
S1133B707047490011F5001F04D84FEACC10FF30FC
S1133B80C0057047C817704780B501230122002182
S1133B90DFF8F80802F0A4F9012301220121DFF87B
S1133BA0EC0802F09DF9012301220C21DFF8E00862
S1133BB002F096F9012301220D21DFF8D40802F066
S1133BC08FF9012003F02EF801BD10B50123012265
S1133BD00021DFF8B80802F083F901F0F5FD0123B4
S1133BE001220121DFF8A40802F07AF901F0ECFDCA
S1133BF0002301220021DFF8940802F071F901F09A
S1133C00E3FD002301220121DFF8800802F068F9B6
S1133C10002416E001F0D8FD01F0D6FD01230122B5
S1133C200121DFF8680802F05BF901F0CDFD01F035
S1133C30CBFD002301220121DFF8500802F050F9E6
S1133C40641CE4B27F2CE5D301F0BEFD01F0BCFDA1
S1133C50012301220121DFF8340802F041F901F0C7
S1133C60B3FD01F0B1FD002301220121DFF81C089E
S1133C7002F036F910BD10B5012301220C21DFF842
S1133C80100802F02DF901F09FFD012301220D21FE
S1133C90DFF8FC0702F024F901F096FD002301226D
S1133CA00C21DFF8EC0702F01BF901F08DFD002375
S1133CB001220D21DFF8D80702F012F9002416E0E2
S1133CC001F082FD01F080FD012301220D21DFF8C6
S1133CD0C00702F005F901F077FD01F075FD00233E
S1133CE001220D21DFF8A80702F0FAF8641CE4B2FF
S1133CF07F2CE5D301F068FD01F066FD012301226C
S1133D000D21DFF88C0702F0EBF801F05DFD01F006
S1133D105BFD002301220D21DFF8740702F0E0F8B7
S1133D2010BD38B50400012301220021DFF85C072F
S1133D3002F0D6F801F048FD012301220121DFF849
S1133D404C0702F0CDF801F03FFD002301220021D1
S1133D50DFF8380702F0C4F801F036FD002502E070
S1133D6001F032FD6D1CEDB2962DF9D30822062127
S1133D70012002F07EFF2070641C00230122012137
S1133D80DFF8080702F0ACF800251DE001F01CFD87
S1133D9001F01AFD012301220121DFF8F00602F0EF
S1133DA09FF801F011FD01F00FFD0822062101200A
S1133DB002F05FFF2070641C002301220121DFF860
S1133DC0CC0602F08DF86D1CEDB27F2DDED301F030
S1133DD0FBFC01F0F9FC012301220121DFF8AC0610
S1133DE002F07EF801F0F0FC01F0EEFC0023012269
S1133DF00121DFF8980602F073F831BD38B50400EC
S1133E00012301220C21DFF8880602F069F801F091
S1133E10DBFC012301220D21DFF8740602F060F8B7
S1133E2001F0D2FC002301220C21DFF8640602F029
S1133E3057F801F0C9FC002502E001F0C5FC6D1C37
S1133E40EDB2502DF9D308220E21012002F011FF0A
S1133E502070641C002301220D21DFF8340602F0D7
S1133E603FF800251DE001F0AFFC01F0ADFC01239B
S1133E7001220D21DFF8180602F032F801F0A4FC4B
S1133E8001F0A2FC08220E21012002F0F2FE2070B3
S1133E90641C002301220D21DFF8F40502F020F850
S1133EA06D1CEDB27F2DDED301F08EFC01F08CFC95
S1133EB0012301220D21DFF8D80502F011F801F0E9
S1133EC083FC01F081FC002301220D21DFF8C005F1
S1133ED002F006F831BD80B5DFF8B815802000F097
S1133EE0A0F8DFF8B4150870DFF8AC0500781921E4
S1133EF04843802190FBF1F0DFF8A0150870DFF84B
S1133F00A0050088DFF894150978401ADFF89415A5
S1133F100880DFF89005B0F90000DFF88C15B1F9DE
S1133F200010C84206DADFF884050078401EDFF886
S1133F307C150870DFF87005B0F90000DFF864152F
S1133F40B1F90010884206DADFF860050078401CF9
S1133F50DFF858150870DFF854050078022803D2FA
S1133F60DFF8480501210170DFF8400500781428C6
S1133F7003D3DFF838051421017001BD80B5DFF8E3
S1133F803015802000F04DF8DFF828150870DFF8B0
S1133F902405007819214843802190FBF1F0DFF8D3
S1133FA018150870DFF8F8040088DFF80C15097894
S1133FB0401ADFF8F0140880DFF8E804B0F90000D4
S1133FC0DFF8E414B1F90010C84206DADFF8EC04B3
S1133FD00078401EDFF8E4140870DFF8CC04B0F970
S1133FE00000DFF8C014B1F90010884206DADFF8E7
S1133FF0CC040078401CDFF8C4140870DFF8BC045B
S11340000078022803D2DFF8B40401210170DFF83C
S1134010AC040078032803D3DFF8A0040321017063
S113402001BD10B40023002204E00C7853FA84F399
S1134030491C521CD2B2C0B28242F6D39BB2C0B267
S113404093FBF0F0C0B210BC7047002801D5404289
S1134050FFE77047F8B5040000250026002700207C
S1134060DFF830144978DFF858241180DFF824147D
S11340704978DFF850241180012113E0C9B2DFF838
S11340801404085CDFF83C24B2F9002000B290422A
S113409007DA0800C9B2DFF8FC238A5CDFF82434AD
S11340A01A80491CC9B27F2913D2DFF81404B0F96D
S11340B00000C9B2DFF8DC238A5C12B29042DDDA78
S11340C00F00C9B2DFF8CC03085CDFF8F4231080DA
S11340D0E7E7DFF8EC03B0F90000FFB2DFF8B41350
S11340E0791811F8021C401A0B2832DBDFF8D003D0
S11340F0B0F90000FFB2DFF89C1379188978401AF0
S11341000B2826DBFFB2DFF88C03381810F8020CFA
S1134110FFB2DFF8801379188978401AFFF795FF0A
S11341200A2816DAFFB2DFF86C03381810F8020C0C
S1134130FFB2DFF86013791889780818FFB2DFF846
S113414054137854FFB2DFF84C03385CDFF8701373
S11341500880DFF86C03B0F90000DFF86813B1F9E8
S113416000100818022190FBF1F0DFF85C130880BE
S113417000210BE0DFF854030088C9B2C54A8A5C09
S11341808018DFF848231080761C491CC9B27F29A7
S113419012D2C9B2BF48085CCB4AB2F9002000B2BF
S11341A09042E7DBCA480088C9B2BA4A8A5C8018E0
S11341B0C74A10806D1CE8E7C548B0F90000EDB2AD
S11341C090FBF5F0C2490880C048B0F90000F6B28F
S11341D090FBF6F0BD490880BD48B0F90000BB492A
S11341E0B1F900100818022190FBF1F0B6490880DB
S11341F0002103E000202070641C491CC9B28029FE
S113420009D22078B04AB2F9002000B29042F1DB22
S113421001202070F0E703202CE0C0B29D49415CEE
S1134220002910D1C0B29B49411811F8011C012981
S113423009D1C0B2974941184978012903D1C0B2C4
S1134240944901224254C0B29249415C012910D1DF
S1134250C0B29049411811F8011C002909D1C0B21B
S11342608C4941184978002903D1C0B289490022F8
S11342704254401CC0B27D28CFD3F1BDF8B5040030
S1134280002500260027002089494978914A118099
S113429087494978904A118001210FE0C9B28448C6
S11342A0085C8D4AB2F9002000B2904205DA080099
S11342B0C9B27F4A8A5C884B1A80491CC9B27F29DB
S11342C00FD28448B0F90000C9B2794A8A5C12B2AC
S11342D09042E3DA0F00C9B27548085C7D4A108049
S11342E0EBE77C48B0F90000FFB27149791811F886
S11342F0021C401A0B2829DB7648B0F90000FFB2F3
S11343006B4979188978401A0B281FDBFFB268487B
S1134310381810F8020CFFB2654979188978401AE8
S1134320FFF793FE0A2811DAFFB26148381810F833
S1134330020CFFB25E49791889780818FFB25C490B
S11343407854FFB25A48385C624908806148B0F931
S113435000006149B1F900100818022190FBF1F046
S1134360DFF8B41B088000210BE0DFF8B00B0088F5
S1134370C9B24F4A8A5C8018DFF8A02B1080761CE3
S1134380491CC9B27F2915D2C9B24948085CDFF873
S1134390882BB2F9002000B29042E6DBDFF8800BF4
S11343A00088C9B2424A8A5C8018DFF8742B1080F6
S11343B06D1CE5E7DFF8680BB0F90000EDB290FB87
S11343C0F5F0DFF85C1B0880DFF8500BB0F9000053
S11343D0F6B290FBF6F0DFF8441B0880DFF8400BE0
S11343E0B0F90000DFF8341BB1F9001008180221FD
S11343F090FBF1F0DFF8201B0880002103E000208F
S11344002070641C491CC9B280290AD22078DFF8C4
S1134410082BB2F9002000B29042F0DB012020709A
S1134420EFE703202CE0C0B22149415C002910D100
S1134430C0B21F49411811F8011C012909D1C0B2A9
S11344401B4941184978012903D1C0B218490122F6
S11344504254C0B21649415C012910D1C0B214497A
S1134460411811F8011C002909D1C0B210494118A2
S11344704978002903D1C0B20D4900224254401C9E
S1134480C0B27D28CFD3F1BD0000000000F10F4081
S113449000F00F40A006FF1FB808FF1FB908FF1F58
S11344A01E04FF1F5E08FF1F2004FF1F2204FF1FBE
S11344B02007FF1FBA08FF1FBB08FF1F2304FF1FAD
S11344C0C607FF1FC807FF1FCA07FF1F6208FF1F99
S11344D06008FF1F1C08FF1F1E08FF1F38B50022BD
S11344E0DFF8403AB3F900305C1CDFF8385A2C800E
S11344F01BB2C92B03DBDFF82C2AC923138000224B
S1134500DFF8E43B1B78002B03D1DFF8E02B00231A
S11345101370DFF8DC2B1278002A03D1DFF8D42BD8
S113452000231370792201E00020521E12B2062AE1
S113453022DB12B2DFF8C00B105C0128F4D112B2F6
S1134540DFF8B40B101810F8010C0028ECD112B2EB
S1134550DFF8A40B101810F8020C0028E4D112B2F2
S1134560DFF8940B101810F8030C0028DCD1901E0F
S1134570DFF8882B10800120062201E00021521C64
S113458012B27A2A1FDA12B2DFF86C1B515C0129CD
S1134590F4D112B2DFF8601B511849780029EDD12B
S11345A012B2DFF8541B511889780029E6D112B2EF
S11345B0DFF8441B5118C9780029DFD1911CDFF8BA
S11345C0402B1180012100B2012840F0D68009B2AD
S11345D0012940F0D280DFF82C0B00210170DFF8B4
S11345E0280BB0F90000DFF8241BB1F90010401AC1
S11345F02E28C0F29B80DFF8080BB0F90000DFF82A
S1134600FC1AB1F9001088425BDADFF81809B0F936
S11346100000C92848DBDFF8E80AB0F90000DFF839
S1134620E01AB1F900100818DFF8E41AB1F9001023
S1134630401A022190FBF1F0DFF86C1CB1F9001074
S1134640401AFFF702FD0400DFF8B00AB0F90000D9
S1134650DFF8A81AB1F900100818DFF8B41AB1F994
S113466000104018022190FBF1F0DFF83C1CB1F976
S11346700010401AFFF7E9FC84420ADADFF8800AE6
S11346800088DFF88C1A0988401ADFF8701A08804D
S1134690A1E1DFF8680A0088DFF8741A09880818AD
S11346A0DFF85C1A088096E1DFF8500ADFF8FC1B9B
S11346B009880180DFF8480ADFF8F41B09880180C3
S11346C089E1DFF83C0AB0F90000DFF8301AB1F9EB
S11346D00010401ADFF8381AB1F900100A3988427C
S11346E080F27981DFF8140AB0F90000DFF8101ABB
S11346F0B1F900100818022190FBF1F03F280ADA02
S1134700DFF8FC090088DFF8081A0988401ADFF886
S1134710EC1908805FE1DFF8E4090088DFF8F0199C
S113472009880818DFF8D819088054E1DFF8D80997
S1134730B0F90000DFF8D419B1F90010401A2E289E
S113474080F24981DFF86C0B0078092808D2DFF881
S1134750AC091D210180DFF8A809622101803AE13A
S1134760DFF89809DFF8441B09880180DFF8900915
S1134770DFF83C1B098801802DE100B2012840F0DC
S1134780888009B2002940F08480DFF87C09B0F900
S11347900000DFF87819B1F90010401A2E285FDB09
S11347A0DFF80C0BB0F90000DFF85019B1F9001074
S11347B088420CDADFF84409DFF8F01A098801802E
S11347C0DFF83C09DFF8E81A0988018003E1DFF823
S11347D0E00AB0F90000DFF82419B1F900108842AA
S11347E0C0F2F980DFF81409B0F90000DFF82019ED
S11347F0B1F90010D1F17A01884226DADFF8F40821
S113480001210170DFF8B00ADFF8B01A09880180CD
S1134810DFF8A80ADFF8A81A09880180DFF8A00ADF
S1134820DFF8A01A09880180DFF8980ADFF8CC18AD
S113483009880180DFF8C4080088DFF8D4180988E3
S11348400818DFF8BC180880C5E0DFF8B008008855
S1134850DFF8BC1809880818DFF8A4180880BAE043
S1134860DFF8A408B0F90000DFF8A018B1F90010CF
S1134870401A2E2880F2AF80DFF88008DFF82C1A67
S113488009880180DFF87808DFF8241A0988018094
S1134890A1E000B2002879D109B2012976D1DFF86C
S11348A06808B0F90000DFF86418B1F90010401A84
S11348B02E2853DBDFF84808B0F90000DFF8EC19C4
S11348C0B1F9001088420CDADFF83008DFF8DC199F
S11348D009880180DFF82808DFF8D41909880180E5
S11348E079E0DFF82C08B0F90000401DDFF810185B
S11348F0B1F90010884226DADFF8F00701210170CF
S1134900DFF8C409DFF8C41909880180DFF8BC099D
S1134910DFF8BC1909880180DFF8B409DFF8B4199D
S113492009880180DFF8AC09DFF8D4170988018011
S1134930DFF8CC070088DFF8D8170988401ADFF8B9
S1134940BC17088047E0DFF8B8070088DFF8C01715
S11349500988401ADFF8A41708803CE0DFF8A807AC
S1134960B0F90000DFF8A417B1F90010401A2E289E
S113497031DADFF88807DFF8341909880180DFF8B5
S11349808007DFF82C190988018024E0084300B26D
S1134990002820D1DFF81409B0F90000402805DA16
S11349A0DFF80C09B0F9000040280CDADFF84C07F6
S11349B0DFF8F81809880180DFF84407DFF8F018F9
S11349C00988018007E0DFF834071D210180DFF842
S11349D0300762210180DFF8EC08B0F90000DFF84D
S11349E0E018B1F900100818DFF8D018B1F9001078
S11349F04018032190FBF1F0DFF8DC180880DFF8A1
S1134A00C408B0F90000DFF8D018B1F90010401A5A
S1134A10DFF8B018B1F90010DFF8BC28B2F90020B3
S1134A20891ADFF89C28B2F90020DFF8AC38B3F912
S1134A300030D21ADFF88838B3F90030DFF898482C
S1134A40B4F900401B1B5A4301FB0020DFF86C182B
S1134A50B1F90010DFF88028B2F90020891ADFF8D4
S1134A605C28B2F90020DFF87038B3F90030D21AAC
S1134A7002FB0100032190FBF1F0DFF860180880CD
S1134A80DFF85008B0F90000DFF84418B1F900105D
S1134A900818DFF83818B1F900104018032190FB0A
S1134AA0F1F0DFF83C180880DFF82808B0F90000BE
S1134AB0DFF82C18B1F90010401ADFF81818B1F912
S1134AC00010DFF81C28B2F90020891ADFF800284A
S1134AD0B2F90020DFF80838B3F90030D21ADFF851
S1134AE0F037B3F90030DFF8F847B4F900401B1B86
S1134AF05A4301FB0020DFF8D417B1F90010DFF8A6
S1134B00E027B2F90020891ADFF8C027B2F90020A3
S1134B10DFF8CC37B3F90030D21A02FB01000321CD
S1134B2090FBF1F0DFF8BC170880DFF8D0050088AF
S1134B30DFF878170988401ADFF870170988081811
S1134B40DFF8A4170988401ADFF89C1709880818A9
S1134B50DFF898170988401ADFF894170880DFF8FF
S1134B60A0050088DFF848170988401ADFF84017C5
S1134B7009880818DFF87C170988401ADFF87417C9
S1134B8009880818DFF870170988401ADFF86C17CD
S1134B900880DFF860050078012856D1DFF8600747
S1134BA00088401CDFF858170880DFF85407B0F974
S1134BB00000032849DBDFF84807B0F90000C01EF5
S1134BC080B239282DD2DFF83C07B0F90000522812
S1134BD00FDADFF82C07B0F90000032809D1DFF859
S1134BE0700BB0F900000B2803DBDFF81C07012170
S1134BF00170DFF814070078012826D1DFF8F004EB
S1134C0001210170DFF8F806B0F9000014281CDA5D
S1134C10DFF8E8047F210180DFF8E4047F210180CC
S1134C2013E0DFF8DC0600210180DFF8C80400216E
S1134C300170DFF8D40600210170DFF8B40400210C
S1134C400170DFF8100B00210180DFF8A804007860
S1134C50DFF89C1409780843C0B2002803D1DFF8B8
S1134C60A00600210180DFF884040078012856D1D1
S1134C70DFF8E40A0088401CDFF8DC1A0880DFF85B
S1134C80D80AB0F90000032849DBDFF8CC0AB0F9F0
S1134C900000C01E80B239282DD2DFF86806B0F9B2
S1134CA0000052280FDADFF8B00AB0F90000032838
S1134CB009D1DFF89C0AB0F90000092803DBDFF80A
S1134CC09C0A01210170DFF8940A0078012826D19A
S1134CD0DFF8140401210170DFF87C0AB0F9000048
S1134CE014281CDADFF8140400210180DFF8100412
S1134CF00021018013E0DFF8600A00210180DFF861
S1134D00EC0300210170DFF8540A00210170DFF880
S1134D10D80300210170DFF83C0A00210180DFF88C
S1134D20CC030078DFF8C01309780843C0B2002828
S1134D3003D1DFF8240A00210180F048B0F9000013
S1134D40EF49B1F900100818022190FBF1F0DFF8E7
S1134D50101A0880DFF8080A0088DFF8081A0988A2
S1134D60401ADFF8141A0880DFF83C05DFF8F01960
S1134D7009880180DFF8F009DFF8F019098801805B
S1134D80DFF8EC09DFF8EC1909880180DFF8DC09A9
S1134D90DFF8581509880180DFF8D809DFF85815BD
S1134DA009880180DFF84405DFF83C150988018093
S1134DB0DFF84405DFF83C1509880180DFF8280591
S1134DC0DFF8E81409880180DFF82805DFF8E0142B
S1134DD009880180DFF8D404C84909880180DFF814
S1134DE0D004C74909880180DFF8B409DFF88C19B9
S1134DF009880180DFF88409DFF8841909880180B3
S1134E00DFF87C09DFF87C1909880180DFF8740970
S1134E10DFF8741909880180DFF86C09DFF86C1970
S1134E2009880180DFF86409DFF8641909880180C2
S1134E30DFF85C09DFF85C1909880180DFF85409A0
S1134E40DFF8541909880180DFF84C09DFF84C19A0
S1134E5009880180DFF84409DFF81C1909880180FA
S1134E60DFF838090088DFF830190988401ADFF8BC
S1134E7034190880DFF820090088DFF81819098838
S1134E80401ADFF824190880DFF808090088DFF8E1
S1134E9000190988401ADFF814190880DFF8F008AF
S1134EA00088DFF8E8180988401ADFF80419088038
S1134EB0DFF8D8080088DFF8D0180988401ADFF82E
S1134EC0F4180880DFF8C0080088DFF8B8180988EB
S1134ED0401ADFF8E4180880DFF8A8080088DFF833
S1134EE0A0180988401ADFF8D4180880DFF8900861
S1134EF00088DFF888180988401ADFF8C418088089
S1134F00DFF878080088DFF898180988401ADFF875
S1134F10E41A088031BD00002008FF1F6608FF1F47
S1134F206408FF1F9008FF1F30B4032006210022ED
S1134F30DFF8903800241C80DFF8C83300241C807C
S1134F40DFF8B43A00241C800B1A5B1C1A00DFF84B
S1134F507439DFF8244824881C8064230CE0DBB215
S1134F60DFF8604914EB430434F8024CDBB2DFF899
S1134F70545925F813405B1EDBB2012BEFD20023FA
S1134F800CE0DFF844492488DBB2DFF8385935F8FF
S1134F9013502C19DFF830592C805B1CDBB2032B27
S1134FA0EFD3DFF82439B3F90030032493FBF4F38F
S1134FB0DFF814492380002310E0DBB2DFF8044952
S1134FC034F81340DBB2DFF8FC5835F813506C4367
S1134FD0DBB2DFF8405925F813405B1CDBB2032B2E
S1134FE0EBD300230CE0DFF8DC472488DBB2DFF8E6
S1134FF0245935F813502C19DFF8C8572C805B1C42
S1135000DBB2032BEFD3DFF8BC37B3F90030032452
S113501093FBF4F3BB4C2380DFF8AC3800241C80F2
S1135020002306E0DBB2DFF8EC48002524F8135037
S11350305B1CDBB2052BF5D3DFF8883700241C801A
S113504003000CE0DFF880482488DBB2DFF87458F2
S113505035F813502C19DFF870582C805B1CDBB228
S1135060C9B28B42EED3DFF86038B3F90030C9B26D
S113507093FBF1F3DFF850482380030010E0DBB228
S1135080DFF8404834F81340DBB2DFF8385835F81D
S113509013506C43DBB2DFF87C5825F813405B1CDB
S11350A0DBB2C9B28B42EAD303000CE0DFF8140789
S11350B00088DBB2DFF85C4834F813402018DFF8CE
S11350C0044720805B1CDBB2C9B28B42EED3DFF80D
S11350D0F406B0F90000D2B290FBF2F0DFF8181930
S11350E0088030BC70470000BF08FF1FBE08FF1FC8
S11350F0C008FF1FBD08FF1FA006FF1FC407FF1F36
S11351001404FF1FBC08FF1F6008FF1F6208FF1F75
S1135110E407FF1F30B58BB00024002505A8142137
S113512001F06EFE00A8142101F06AFE7E2022E048
S113513000B2DFF8C8184118497801291AD100B221
S1135140DFF8B818415C012914D100B2DFF8AC18BB
S1135150411811F8011C00290CD100B2DFF89C1889
S1135160411811F8021C002904D124B205A921F820
S11351701400641C401E00B20228D9DA012021E088
S113518000B2DFF87818411811F8011C012918D170
S113519000B2DFF86818415C012912D100B2DFF8CF
S11351A05C184118497800290BD100B2DFF84C187B
S11351B041188978002904D12DB200A921F81500DD
S11351C06D1C401C00B27E28DADB24B2032C48D1CB
S11351D02DB2032D45D1BDF81600BDF80010401ABC
S11351E0DFF81C180880BDF81400BDF80210401A3E
S11351F0DFF810180880BDF91600BDF9021001FA95
S113520080F0022190FBF1F0DFF8FC170880DFF852
S1135210F007B0F90000DFF8EC17B1F90010401AFC
S1135220FEF713FF05281CDADFF8E007B0F90000E9
S1135230DFF8D417B1F90010401AFEF706FF05286D
S11352400FDADFF8BC07B0F900000F2809DBDFF83C
S1135250B407B0F900000F2803DBDFF8B40701211D
S11352600180DFF8AC07B0F90000012819D1DFF89C
S1135270A407B0F90000411CDFF89827118000B2A0
S113528015280EDBDFF88C0700210180DFF880078A
S113529000210180DFF82C0B0088401CDFF8241B60
S11352A008800BB030BD0000E807FF1FD007FF1FC8
S11352B0D207FF1F2204FF1F8608FF1F8408FF1F59
S11352C08208FF1F8008FF1F7E08FF1F7C08FF1F46
S11352D07A08FF1F7808FF1F8A08FF1F8C08FF1F2A
S11352E08808FF1F8E08FF1FD407FF1FD807FF1F62
S11352F0CC07FF1FD607FF1FDA07FF1FCE07FF1FCC
S11353006A08FF1F7408FF1FC208FF1F10B40023A0
S113531000210B007E2101E00022491E09B204296C
S113532022DB09B2DFF8D4268A5C012AF4D109B25F
S1135330DFF8C8268A1812F8012C002AECD109B229
S1135340DFF8B8268A1812F8022C002AE4D109B230
S1135350DFF8A8268A1812F8032C002ADCD18A1E4A
S1135360DFF8B4361A800122012301E000205B1C1F
S11353701BB27B2B1FDA1BB2DFF88006185C0128F6
S1135380F4D11BB2DFF87406181840780028EDD168
S11353901BB2DFF86806181880780028E6D11BB223
S11353A0DFF858061818C0780028DFD1981CDFF8F9
S11353B06C462080012012B2012A5AD100B2012881
S11353C057D1DFF85C06B0F90000DFF85826B2F9CF
S11353D00020801A2E283FDBDFF84006B0F90000D9
S11353E0DFF83426B2F90020904280F2E780DFF83B
S11353F03806B0F90000DFF82426B2F90020801A3C
S11354001F280EDB881EDFF810160880DFF8080658
S11354100088DFF8181609880818DFF800160880D5
S1135420CCE0DFF8F405B0F90000DFF80416B1F9B8
S11354300010401A1F28C0F2C180981CDFF8DC1548
S11354400880DFF8D8050088DFF8E0150988401ADD
S1135450DFF8C4150880B1E0DFF8BC05DFF8D0152B
S113546009880180DFF8B405DFF8BC1509880180DC
S1135470A4E012B2012A3CD100B2002839D1DFF8ED
S1135480A005B0F90000DFF89C15B1F90010401A2E
S11354902E2821DBDFF89005B0F90000DFF878153D
S11354A0B1F9001088420CDADFF86C05DFF88015DA
S11354B009880180DFF86405DFF86C15098801802C
S11354C07CE0DFF854050088DFF8601509880818C7
S11354D0DFF84815088071E0DFF83C05DFF8501567
S11354E009880180DFF83405DFF83C15098801805C
S11354F064E012B2002A3CD100B2012839D1DFF8AD
S11355002005B0F90000DFF81C15B1F90010401AAD
S11355102E2821DBDFF80405B0F90000DFF81015B0
S1135520B1F9001088420CDADFF8EC04DFF800155A
S113553009880180DFF8E404DFF8EC1409880180AD
S11355403CE0DFF884080088DFF8E0140988401A9A
S1135550DFF8C414088031E0DFF8BC04DFF8D014AD
S113556009880180DFF8B404DFF8BC1409880180DD
S113557024E0104300B2002820D1DFF8B404B0F9CD
S11355800000402805DADFF8A004B0F90000402844
S11355900CDADFF88404DFF8981409880180DFF856
S11355A07C04DFF884140988018007E0DFF86804CC
S11355B000210180DFF864047F210180DFF85804B2
S11355C0B0F90000DFF85414B1F9001008180221F2
S11355D090FBF1F0DFF8F4170880DFF8F00700889B
S11355E0DFF828140988401ADFF8E4170880DFF888
S11355F04004DFF8241409880180DFF82C04DFF864
S11356001C1409880180DFF8CC07DFF8241409880A
S11356100180DFF8C407DFF8101409880180DFF87F
S1135620D407DFF8D41709880180DFF8CC07DFF846
S1135630CC1709880180DFF8C407DFF8C41709888C
S11356400180DFF8BC07DFF8941709880180DFF8D0
S11356508C07DFF88C1709880180DFF88407DFF8EE
S1135660841709880180DFF87C07DFF87C17098834
S11356700180DFF87407DFF8741709880180DFF808
S11356806C07DFF86C1709880180DFF86407DFF81E
S1135690401709880180DFF858070088DFF84C17A5
S11356A00988401ADFF85C170880DFF84007008893
S11356B0DFF834170988401ADFF84C170880DFF840
S11356C028070088DFF81C170988401ADFF83C1700
S11356D00880DFF810070088DFF804170988401AEB
S11356E0DFF82C170880DFF8F8060088DFF8EC16DE
S11356F00988401ADFF81C170880DFF8E0060088E4
S1135700DFF8FC160988401ADFF80C170880DFF868
S1135710F0060088DFF8E4160988401ADFF8FC1662
S11357200880DFF8D8060088DFF8CC160988401A0C
S1135730DFF8EC160880DFF8C0060088DFF8B4163E
S11357400988401ADFF8DC16088010BC7047000096
S11357506E08FF1F6808FF1F6C08FF1FC108FF1FAA
S1135760E607FF1FEE07FF1FE007FF1FDC07FF1F11
S1135770E207FF1FDE07FF1FF207FF1F0408FF1FDA
S11357800208FF1F0008FF1FFE07FF1FFC07FF1F83
S1135790FA07FF1FF807FF1FF607FF1FF407FF1F95
S11357A00608FF1F0808FF1F0A08FF1F0C08FF1F39
S11357B00E08FF1F1008FF1F1208FF1F1408FF1F09
S11357C01608FF1F7208FF1F81B000208DF800002B
S11357D006E000BF00BF9DF80000401C8DF80000EB
S11357E09DF800000128F4D301B0704710B5DFF82C
S11357F03806DFF8381609680160DFF83406DFF888
S1135800341609880180DFF828060088DFF8281696
S11358100988401ADFF824160880DFF81406B0F966
S1135820000001F07BF8DFF818160968FEF72AF883
S1135830DFF8101601F0FEF80400DFF80006B0F9F6
S1135840000001F06BF8DFF800160968FEF71AF89B
S1135850210001F0EFF8FEF781F8DFF8F015088079
S1135860DFF8D405DFF8C81509880180DFF8DC0506
S1135870B0F9000041F2A371884204DBDFF8CC05E3
S113588041F2A2710180DFF8C405B0F9000040F6CE
S1135890B241884204DADFF8B40540F6B24101802F
S11358A0DFF8A805B0F900200221002000F094FEE2
S11358B0DFF89805B0F9000001F030F8DFF86C1556
S11358C0086010BD0C05FF1F7008FF1F10B5DFF83E
S11358D05C050068DFF85015096801F037F804002A
S11358E0DFF86C05B0F90000401C01F017F8210046
S11358F0FDF7C8FFDFF85C1501F086FADFF828151C
S1135900096801F097F8FEF729F8DFF840150880D8
S113591010BD0000D405FF1FDFF83C050068DFF868
S11359203C150880DFF838050088DFF83015098851
S11359300818DFF82C150880DFF81C050021016029
S1135940704780B5DFF81C05DFF81415B1F90010B5
S11359500160DFF80C050021018000F06BF8DFF82E
S11359606404B0F90000022804D1DFF8FC04DFF875
S1135970FC140180DFF8F004B0F90000FDF738FAF8
S1135980DFF8E0040068052148430D2190FBF1F0A5
S11359903030FDF73BFADFF8D01409884018DFF8FF
S11359A0D0140880DFF8C804B0F9000001280EDB29
S11359B0002301220921DFF8BC0400F091FADFF88A
S11359C0B804DFF8AC14B1F90010016010E0012351
S11359D001220921DFF89C0400F082FADFF8900428
S11359E0B0F9000040F2E2410818DFF88C140860B6
S11359F001BD00001808FF1F7608FF1F2007FF1FC6
S1135A009608FF1F9808FF1F9A08FF1F3008FF1F02
S1135A109208FF1F9C08FF1F1A08FF1F1804FF1F8E
S1135A206008FF1F6208FF1F2408FF1F2A08FF1FCA
S1135A302208FF1FDFF80804DFF84014096801603A
S1135A40DFF80404DFF8381409680160DFF834046F
S1135A50B0F90000DFF83014B1F90010884280F288
S1135A603181DFF8DC03DFF8241409680160DFF812
S1135A70D803DFF81C1409680160DFF81804012159
S1135A800170DFF81404B0F90000801F80B202280E
S1135A902FD2DFF80804B0F90000DFF80414097805
S1135AA009B288421FDADFF8F4030088401CDFF8EB
S1135AB0EC130880DFF8EC03B0F900004042DFF893
S1135AC0A41309684FF4C87291FBF2F14843DFF85C
S1135AD0C813B1F900100A2291FBF2F14843DFF830
S1135AE08813088005E0DFF88003DFF8BC13098819
S1135AF00180DFF8A403B0F90000083880B20A2856
S1135B0030D2DFF89803B0F90000DFF8A013097869
S1135B1009B288421FDADFF884030088401CDFF8EA
S1135B207C130880DFF87C03B0F900004042DFF802
S1135B30341309684FF4C87291FBF2F14843DFF85B
S1135B405813B1F900100A2291FBF2F14843DFF82F
S1135B5018130880EFE0DFF81003DFF84C1309880E
S1135B600180E8E0DFF83003B0F90000123880B2B9
S1135B700A2830D2DFF82403B0F90000DFF830132C
S1135B80097809B288421FDADFF810030088401C44
S1135B90DFF808130880DFF80C03B0F90000404276
S1135BA0DFF8C01209684FF4C87291FBF2F1484360
S1135BB0DFF8E412B1F900100A2291FBF2F1484334
S1135BC0DFF8A4120880B6E0DFF89C02DFF8D812F0
S1135BD009880180AFE0DFF8C002B0F900001C388A
S1135BE080B2142830D2DFF8B402B0F90000DFF834
S1135BF0C412097809B288421FDADFF8A0020088CB
S1135C00401CDFF898120880DFF89802B0F9000011
S1135C104042DFF8501209684FF4C87291FBF2F168
S1135C204843DFF87412B1F900100A2291FBF2F133
S1135C304843DFF8341208807DE0DFF82C02DFF8F7
S1135C4068120988018076E0DFF84C02B0F90000A0
S1135C50302830DBDFF84402B0F90000DFF85812D6
S1135C60097809B288421FDADFF830020088401C44
S1135C70DFF828120880DFF82C02B0F90000404257
S1135C80DFF8E01109684FF4C87291FBF2F1484360
S1135C90DFF80412B1F900100A2291FBF2F1484333
S1135CA0DFF8C411088046E0DFF8BC01DFF8F81122
S1135CB0098801803FE0DFF8B001DFF8EC110988C2
S1135CC0018038E0DFF8C001B0F90000DFF8EC1122
S1135CD0B1F90010884224DADFF8B801007801280D
S1135CE007D1DFF8B00100210170DFF8AC01002119
S1135CF00180DFF8A80100210180DFF89C01008801
S1135D00401CDFF894110880DFF88C01B0F9000022
S1135D10032810DBDFF85001DFF8A41109880180A3
S1135D2009E0DFF8700101210170DFF83C01DFF8C0
S1135D30941109880180DFF890010078012804D0CB
S1135D40DFF888010078012827D1DFF88401008872
S1135D50401CDFF87C110880DFF87401B0F9000002
S1135D600C2805DADFF80001DFF86811018014E07F
S1135D70DFF85C01B0F900000C3880B2102807D2BB
S1135D80DFF8E40000883230DFF8DC10088004E03B
S1135D90DFF8D4004FF4C8710180DFF83C01B0F99A
S1135DA00000DFF8C0100968884209DADFF8B8009B
S1135DB00088DFF828110988401ADFF8AC10088041
S1135DC0704700009408FF1F1404FF1F2C08FF1FD6
S1135DD03208FF1F2608FF1F2808FF1F3E08FF1F69
S1135DE03C08FF1F3A08FF1F3808FF1F3608FF1F33
S1135DF03408FF1F4608FF1F4408FF1F4208FF1F07
S1135E004008FF1F4808FF1F4A08FF1F4C08FF1FD8
S1135E104E08FF1F5008FF1F5208FF1F5408FF1FA2
S1135E205608FF1F5808FF1F0405FF1F0805FF1F22
S1135E30EC07FF1FF207FF1FF007FF1F5A08FF1FA1
S1135E403004FF1F005091453804FF1F1C04FF1F3E
S1135E50C207FF1F0000A04104800B40C007FF1FC2
S1135E605C08FF1F9C06FF1F6C04FF1F0CFEFFFF56
S1135E709E08FF1F40F00F40109003403404FF1FA2
S1135E803C04FF1F2A04FF1F7408FF1F4004FF1F68
S1135E905404FF1FC308FF1F6E08FF1FB208FF1F33
S1135EA02404FF1F7404FF1F7004FF1F2504FF1F39
S1135EB02604FF1F2704FF1F2804FF1F2C04FF1FB5
S1135EC06E04FF1F7204FF1FBF08FF1FC008FF1FDF
S1135ED06808FF1F70FEFFFF7804FF1F7604FF1F92
S1135EE070B405001D4EAD1B08D0403D08D0403DA8
S1135EF008D0403D08D0403D08D009E0184C07E0E8
S1135F00184C05E0184C03E0184C01E0184CFFE76E
S1135F104FF4807544F82150012A15D142690124B7
S1135F208C4022434261012B06D10268012313FAFB
S1135F3001F1114301600EE00268012313FA01F13B
