S023000050452056312E3420323031342E30352E32302077616E64616F5F322E737265632E
S1130000F8FF0020110400009F4600009F460000F6
S11300109F4600009F4600009F4600009F46000048
S11300209F4600009F4600009F4600009F46000038
S11300309F4600009F4600009F4600009F46000028
S11300409F4600009F4600009F4600009F46000018
S11300509F4600009F4600009F4600009F46000008
S11300609F4600009F4600009F4600009F460000F8
S11300709F4600009F4600009F4600009F460000E8
S11300809F4600009F4600009F4600009F460000D8
S11300909F4600009F4600009F4600009F460000C8
S11300A09F4600009F4600009F4600009F460000B8
S11300B09F4600009F4600009F4600009F460000A8
S11300C09F4600009F4600009F4600009F46000098
S11300D09F4600009F4600009F4600009F46000088
S11300E09F4600009F4600009F4600009F46000078
S11300F09F4600009F4600009F4600009F46000068
S11301009F4600009F4600009F4600009F46000057
S11301109F4600009F4600009F4600009F46000047
S11301209F4600009F4600009F4600009F46000037
S11301309F4600009F4600009F4600009F46000027
S11301409F4600009F4600009F4600009F46000017
S1130150855F00009F4600009F4600009F46000008
S11301609F4600009F4600009F4600009F460000F7
S11301709F4600009F4600009F4600009F460000E7
S11301809F4600009F4600009F4600009F460000D7
S11301909F4600009F4600009F4600009F460000C7
S1130400FFFFFFFFFFFFFFFFFFFFFFFFFEFFFFFFF9
S11304104FF000004FF000014FF000024FF00003D6
S11304204FF000044FF000054FF000064FF00007B6
S11304304FF000084FF000094FF0000A4FF0000B96
S11304404FF0000C62B605F025FEFEE738B5002437
S11304500025DFF8C417002003E000220A70491CBD
S1130460401CC0B28A28F8D302F07EF9DFF8AC272A
S11304700021002002F0F3FBDFF8A42700213C2038
S113048002F0EDFBDFF89C270221002002F0E7FBDD
S1130490DFF894270421002002F0E1FBDFF88C2729
S11304A004213C2002F0DBFBDFF884270621002036
S11304B002F0D5FB02F096FC02F0D4FCDFF87417CE
S11304C008706E2002F056FEDFF8680700780128F5
S11304D040F0A080DFF85C07FF210170DFF85807C7
S11304E00121017002F093FA8CE0D4A200210020D3
S11304F002F0B5FBDFF844070068DFF8F01D02F0F6
S11305005DFE02F0C7FE80B2020000213C2002F032
S1130510FAFBECA20221002002F0A1FBDFF8302E4E
S113052002213C2002F09BFBE7A20421002002F000
S113053096FBDFF8202E04213C2002F090FBEAA277
S11305400621002002F08BFBDFF80C2E06213C2054
S113055002F085FB6E2002F00DFE02F043FC02F077
S113056081FCDFF8F81D0870DFF8F00D0078FF2833
S113057005D0DFF8C006DFF8E41D09780170DFF864
S1130580B4060078072813D1DFF8B006006802F03B
S1130590A3FEDFF81C2EDFF81C3E02F0D5FE02F0AD
S11305A047FFDFF898160860DFF88806FF2101701E
S11305B0DFF880060078082813D1DFF88006006889
S11305C002F08AFEDFF8E82DDFF80C3E02F0BCFEF4
S11305D002F02EFFDFF864160860DFF85806FF21EA
S11305E00170DFF85006007809280BD1DFF84806BF
S11305F0FF210170DFF83C06FF210170DFF85C0D7C
S1130600FF210170DFF83006007801283FF46DAF58
S113061002F0FDF9DFF81C060078022840F09C8007
S1130620DFF81006FF210170DFF80C0602210170CB
S113063002F0EDF988E06E2002F09CFD02F0D2FB9E
S113064002F010FCDFF8141D0870DFF8100D0078BC
S1130650FF2805D0DFF8DC05DFF8001D09780170FC
S1130660DAA20021002002F0FAFADFF8D4050068CB
S1130670DFF8781C02F0A2FD02F00CFE80B202004A
S113068000213C2002F03FFB8EA20221002002F058
S1130690E6FADFF8A82D02213C2002F0E0FA8AA253
S11306A00421002002F0DBFADFF8942D04213C2021
S11306B002F0D5FA8CA20621002002F0D0FADFF86D
S11306C0842D06213C2002F0CAFADFF86805007880
S11306D0072813D1DFF86805006802F0FDFDDFF894
S11306E0D02CDFF8D03C02F02FFE02F0A1FEDFF8A0
S11306F050150860DFF83C05FF210170DFF8340570
S11307000078082813D1DFF83805006802F0E4FD0A
S1130710DFF89C2CDFF8C03C02F016FE02F088FEE5
S1130720DFF81C150860DFF80C05FF210170DFF805
S113073004050078092807D1DFF8FC04FF210170C3
S1130740DFF8F004FF210170DFF8EC0400780228E0
S11307503FF471AF02F05BF9DFF8D80400780328A6
S113076040F08780DFF8CC04FF210170DFF8C80473
S11307700321017002F04BF974E06E2002F0FAFCE0
S113078002F030FB02F06EFBDFF8D01B0870DFF8DC
S1130790CC0B0078FF2805D0DFF89804DFF8BC1BE9
S11307A009780170DFF8A02C0021002002F057FA2C
S11307B0DFF8980CB0F9002000213C2002F0A3FAE5
S11307C040A20221002002F04AFADFF8702C022134
S11307D03C2002F044FA3CA20421002002F03FFA3B
S11307E0DFF85C2C04213C2002F039FA3EA20621F9
S11307F0002002F034FADFF84C2C06213C2002F0F1
S11308002EFADFF83004007807280AD1DFF83C0C10
S11308100088401CDFF8341C0880DFF81804FF212E
S11308200170DFF81004007808280ED1DFF81C0CE2
S11308300088401EDFF8141C02E000BF4B703A0031
S11308400880DFF8F003FF210170DFF8E803007887
S1130850092807D1DFF8E003FF210170DFF8D40392
S1130860FF210170DFF8D0030078032885D002F05F
S1130870CEF8DFF8C0030078042840F08380DFF866
S1130880B403FF210170DFF8B0030421017002F00A
S1130890BEF871E06E2002F06DFC02F0A3FA02F0E3
S11308A0E1FADFF8B81A0870DFF8B00A0078FF2818
S11308B005D0DFF88003DFF8A41A09780170DFF8A7
S11308C0902B03E02B3A00002D3A00000021002079
S11308D002F0C5F9DFF87C0BB0F9002000213C20C0
S11308E002F011FAC9A201E052653A000221002087
S11308F002F0B5F9DFF8442B02213C2002F0AFF9F5
S1130900C3A20421002002F0AAF9DFF8342B042149
S11309103C2002F0A4F9BFA20621002002F09FF9B6
S1130920DFF8202B06213C2002F099F9C148007819
S1130930072809D1DFF81C0B0088401CDFF8141BC2
S11309400880BC48FF210170BA480078082809D102
S1130950DFF8000B0088401EDFF8F81A0880B5485D
S1130960FF210170B3480078092805D1B248FF215E
S11309700170B048FF210170AF480078042889D085
S113098002F045F8AB48007805287AD1A948FF2140
S11309900170A9480521017002F039F86BE06E205E
S11309A002F0E8FB02F01EFA02F05CFADFF8AC1980
S11309B00870DFF8A8090078FF2804D09D48DFF804
S11309C09C1909780170DFF8902A01E04B643A0021
S11309D00021002002F043F9DFF8800AB0F900207A
S11309E000213C2002F08FF988A20221002002F0AD
S11309F036F9DFF8482A02213C2002F030F984A2BB
S1130A000421002002F02BF9DFF8342A04213C20D1
S1130A1002F025F97FA20621002002F020F9DFF878
S1130A20242A06213C2002F01AF98248007807287B
S1130A3009D1DFF8280A0088401CDFF8201A088052
S1130A407C48FF2101707B480078082809D1DFF831
S1130A500C0A0088401EDFF8041A08807548FF213C
S1130A60017074480078092805D17348FF2101708A
S1130A707048FF2101707048007805288FD001F07C
S1130A80C6FF6C480078062877D16A48FF210170B8
S1130A9069480621017001F0BAFF68E06E2002F097
S1130AA069FB02F09FF902F0DDF9DFF8B018087075
S1130AB0DFF8A8080078FF2804D05E48DFF89C1807
S1130AC009780170DFF898290021002002F0C7F8A6
S1130AD0DFF89009B0F9002000213C2002F013F95E
S1130AE04AA20221002002F0BAF8DFF850290221BC
S1130AF03C2002F0B4F846A20421002002F0AFF832
S1130B00DFF83C2904213C2002F0A9F841A2062187
S1130B10002002F0A4F8DFF82C2906213C2002F082
S1130B209EF844480078072809D1DFF8380900887E
S1130B30401CDFF8301908803E48FF2101703D4811
S1130B400078082809D1DFF81C090088401EDFF866
S1130B50141908803748FF210170364800780928A5
S1130B6005D13548FF2101703248FF210170324818
S1130B700078062892D001F04AFF2E4800780A280F
S1130B807FF474AC2B48FF21017001F040FF4FF457
S1130B90FA7002F0EFFADFF8D0280021002002F00A
S1130BA05EF8DFF8C8280221002002F058F8DFF8C8
S1130BB0C0280421002002F052F8DFF8B8280021F0
S1130BC0462002F04CF8DFF8B0280221462002F05B
S1130BD046F8DFF8A8280421462002F040F802F085
S1130BE001F902F03FF9134908706E2002F0C2FACD
S1130BF010480078012840F0BB800E48FF210170A6
S1130C000D480121017001F002FFA9E02B3A000018
S1130C102D3A000052653A009006FF1F146300004D
S1130C201C630000246300002C6300003463000094
S1130C303C6300007004FF1F7204FF1F2404FF1FA5
S1130C402C04FF1FDFF838280021002002F007F8E9
S1130C50DFF830080068DFF8941602F0AFFA02F00B
S1130C6019FB80B2020000213C2002F04CF8D7A20C
S1130C700221002001F0F3FFDFF8D42602213C20FA
S1130C8001F0EDFFD2A20421002001F0E8FFDFF81B
S1130C90C42604213C2001F0E2FFCEA2062100205C
S1130CA001F0DDFFDFF8B02606213C2001F0D7FF7C
S1130CB06E2002F05FFA02F095F802F0D3F8DFF844
S1130CC09C160870DFF894060078FF2805D0DFF83A
S1130CD0B807DFF8881609780170DFF8AC070078E8
S1130CE0072813D1DFF89C07006802F0F5FADFF853
S1130CF0C026DFF8C03602F027FB02F099FBDFF8CC
S1130D0084170860DFF88007FF210170DFF8780797
S1130D100078082813D1DFF86C07006802F0DCFAC9
S1130D20DFF88C26DFF8B03602F00EFB02F080FB11
S1130D30DFF850170860DFF85007FF210170DFF873
S1130D404807007809280BD1DFF84007FF2101701C
S1130D50DFF83407FF210170DFF80006FF2101707E
S1130D60DFF82807007801283FF46CAF01F04FFE4C
S1130D70DFF814070078022840F09D80DFF80807A8
S1130D80FF210170DFF804070221017001F03FFE2A
S1130D9089E06E2002F0EEF902F024F802F062F825
S1130DA0DFF8B8150870DFF8B4050078FF2805D01F
S1130DB0DFF8D406DFF8A41509780170DFF8D0262F
S1130DC00021002001F04BFFDFF8C8060068DFF8BF
S1130DD01C1502F0F3F902F05DFA80B20200002162
S1130DE03C2001F090FF79A20221002001F037FF9E
S1130DF0DFF8482602213C2001F031FF74A20421CF
S1130E00002001F02CFFDFF8382604213C2001F0FB
S1130E1026FF70A20621002001F021FFDFF824261E
S1130E2006213C2001F01BFFDFF85C060078072850
S1130E3013D1DFF86006006802F04EFADFF870257F
S1130E40DFF8703502F080FA02F0F2FADFF84416A7
S1130E500860DFF83406FF210170DFF82C06007803
S1130E60082813D1DFF82C06006802F035FADFF801
S1130E704025DFF8643502F067FA02F0D9FADFF8AA
S1130E8014160860DFF80006FF210170DFF8F8058A
S1130E900078092807D1DFF8F405FF210170DFF895
S1130EA0E805FF210170DFF8E405007802283FF42B
S1130EB070AF01F0ACFDDFF8D0050078032840F0F6
S1130EC0A580DFF8C405FF210170DFF8C005032108
S1130ED0017001F09CFD91E06E2002F04BF901F0ED
S1130EE081FF01F0BFFFDFF874140870DFF86C04B1
S1130EF00078FF2805D0DFF89005DFF86014097842
S1130F000170DFF894250021002001F0A8FEDFF82D
S1130F108C050068DFF8D41302F050F902F0BAF936
S1130F2080B2020000213C2001F0EDFE27A2022144
S1130F30002001F094FEDFF8042502213C2001F09A
S1130F408EFE23A20421002001F089FEDFF8F024A4
S1130F5004213C2001F083FE1EA20621002001F0A2
S1130F607EFEDFF8E02406213C2001F078FEDFF865
S1130F7018050078072813D1DFF82005006802F06F
S1130F80ABF9DFF82C24DFF82C3402F0DDF902F0A1
S1130F904FFADFF808150860DFF8EC04FF21017050
S1130FA0DFF8E404007808281BD1DFF8F0040068B7
S1130FB002F092F9DFF8F823DFF81C3402F0C4F9E8
S1130FC002F036FADFF8D41406E000BF2B3A000032
S1130FD02D3A000052653A000860DFF8AC04FF21A6
S1130FE00170DFF8A4040078092807D1DFF89C0415
S1130FF0FF210170DFF89004FF210170DFF88C04F9
S1131000007803283FF468AF01F001FDDFF87804AD
S11310100078042840F09580DFF86C04FF2101700B
S1131020DFF868040421017001F0F1FC81E06E2016
S113103002F0A0F801F0D6FE01F014FFC7490870D1
S1131040C6480078FF2804D0DFF83C04C349097877
S11310500170DFF8F82C0021002001F000FEDFF819
S1131060F00C0068A14902F0A9F802F013F980B26B
S1131070020000213C2001F046FECCA20221002007
S113108001F0EDFDDFF8B42302213C2001F0E7FD7F
S1131090D0A20421002001F0E2FDDFF8A423042102
S11310A03C2001F0DCFDCDA20621002001F0D7FD9B
S11310B0DFF8902306213C2001F0D1FDDFF8C803BE
S11310C00078072811D1DFF8880C006802F004F9D1
S11310D0B74AB84B02F038F902F0AAF9DFF8701CED
S11310E00860DFF8A403FF210170DFF89C03007897
S11310F0082811D1DFF8580C006802F0EDF8AC4A6A
S1131100B54B02F021F902F093F9DFF8441C0860B2
S1131110DFF87403FF210170DFF86C0300780928FD
S113112007D1DFF86803FF210170DFF85C03FF21BA
S11311300170DFF85803007804283FF478AF01F019
S113114066FCD1480078052840F08680CE48FF210F
S11311500170CE480521017001F059FC76E06E2043
S113116002F008F801F03EFE01F07CFE7B490870B5
S11311707A480078FF2803D0C34878490978017079
S1131180DFF8D02B0021002001F069FDDFF8C80B47
S11311900068564902F012F802F07CF880B20200AE
S11311A000213C2001F0AFFD80A20221002001F0CB
S11311B056FDA24A02213C2001F051FD85A20421E2
S11311C0002001F04CFD9E4A04213C2001F047FD23
S11311D082A20621002001F042FD9A4A06213C2009
S11311E001F03DFDA8480078072810D1DFF8680B0E
S11311F0006802F071F86E4A6E4B02F0A5F802F036
S113120017F9DFF8541B08609F48FF2101709E48BE
S11312100078082810D1DFF8400B006802F05CF871
S1131220634A6D4B02F090F802F002F9DFF8281BD4
S113123008609548FF21017093480078092805D17A
S11312409248FF2101709048FF2101708F48007877
S1131250052884D001F0DBFB8B480078062840F099
S113126094808948FF21017088480621017001F0AB
S1131270CEFB83E06E2001F07DFF01F0B3FD01F0B1
S1131280F1FD3649087035480078FF2803D07E48C0
S1131290324909780170DFF8C42A0021002001F0E6
S11312A0DEFCDFF8BC0A0068104901F087FF01F09A
S11312B0F1FF80B2020000213C2001F024FD3BA29A
S11312C00221002001F0CBFC5C4A02213C2001F009
S11312D0C6FC40A20421002001F0C1FC584A0421AC
S11312E03C2001F0BCFC3DA202E000BF0000204114
S11312F00621002001F0B3FC524A06213C2001F0F3
S1131300AEFC61480078072810D1DFF8540A006861
S113131001F0E2FF264A274B02F016F802F088F8A3
S1131320DFF83C1A08605848FF21017056480078DD
S1131330082819D1DFF8280A006801F0CDFF1C4AFB
S1131340254B02F001F802F073F8DFF8141A07E0F5
S1131350446300004C630000546300006F04FF1FEB
S113136008604948FF21017047480078092805D1E1
S11313704648FF2101704448FF210170434800782A
S113138006283FF477AF01F042FB3F4800780A2873
S11313907FF4FDAB3C48FF21017001F038FB4FF4B2
S11313A0FA7001F0E7FEDFF8BC2905E02B3A0000F3
S11313B09A9999999999B93F0021002001F04FFC1D
S11313C0DFF8A4290021462001F049FCDFF89C291C
S11313D006E000BF2D3A00009999B9BF52653A0062
S11313E00221002001F03BFCDFF8842904210020C5
S11313F001F035FCDFF87C290421462001F02FFCA4
S1131400DFF874290621002001F029FC01F0EAFC30
S113141001F028FD1C4908706E2001F0ABFE1A484B
S11314200078012840F0D2801748FF210170174846
S11314300121017001F0EBFAC0E000BF5C63000021
S1131440646300006C630000746300006004FF1FA9
S1131450A86200006204FF1FB46200006604FF1F5C
S11314607C6300006404FF1F846300008C6300003D
S1131470946300009C630000A4630000AC6300005C
S1131480B46300003404FF1F7004FF1F7204FF1FC5
S1131490BC6300003804FF1FC46300003C04FF1F4A
S11314A0DFF8D8280021002001F0D9FBDFF8D008AC
S11314B00068DFF8381E01F081FE01F0EBFE80B217
S11314C0020000213C2001F01EFCCBA202210020DE
S11314D001F0C5FBDFF8AC2802213C2001F0BFFB82
S11314E0E7A20421002001F0BAFBDFF89C280421C4
S11314F03C2001F0B4FBE3A20621002001F0AFFB85
S1131500DFF8882806213C2001F0A9FB6E2001F0B9
S113151031FE01F067FC01F0A5FCDFF8581E0870ED
S1131520DFF8500E0078FF2805D0DFF86408DFF8F4
S1131530441E09780170DFF858080078072813D191
S1131540DFF83C08006801F0C7FEDFF8442EDFF83E
S1131550443E01F0F9FE01F06BFFDFF82418086047
S1131560DFF82C08FF210170DFF824080078082830
S113157013D1DFF80C08006801F0AEFEDFF8102E7E
S1131580DFF8143E01F0E0FE01F052FFDFF8F0173F
S11315900860DFF8FC07FF210170DFF8F40700782A
S11315A009280BD1DFF8EC07FF210170DFF8E00711
S11315B0FF210170DFF8BC0DFF210170DFF8D407B3
S11315C0007801283FF46CAF01F021FADFF8C0077E
S11315D00078022840F09D80DFF8B407FF210170F5
S11315E0DFF8B0070221017001F011FA89E06E20E2
S11315F001F0C0FD01F0F6FB01F034FCDFF8741DCE
S11316000870DFF8700D0078FF2805D0DFF8800738
S1131610DFF8601D09780170DFF87C2700210020C5
S113162001F01DFBDFF874070068DFF8C01C01F04F
S1131630C5FD01F02FFE80B2020000213C2001F024
S113164062FB6DA20221002001F009FBDFF8542E99
S113165002213C2001F003FB89A20421002001F0B7
S1131660FEFADFF8702E04213C2001F0F8FA85A27E
S11316700621002001F0F3FADFF85C2E06213C205D
S113168001F0EDFADFF808070078072813D1DFF836
S11316900C07006801F020FEDFF8F42CDFF8F43CBE
S11316A001F052FE01F0C4FEDFF8F0160860DFF826
S11316B0E006FF210170DFF8D8060078082813D16E
S11316C0DFF8D806006801F007FEDFF8C42CDFF865
S11316D0C83C01F039FE01F0ABFEDFF8C01608602B
S11316E0DFF8AC06FF210170DFF8A40600780928B2
S11316F007D1DFF8A006FF210170DFF89406FF216F
S11317000170DFF89006007802283FF470AF01F012
S11317107EF9DFF87C060078032840F08880DFF843
S11317207006FF210170DFF86C060321017001F0DF
S11317306EF975E06E2001F01DFD01F053FB01F020
S113174091FBDFF8301C0870DFF8280C0078FF28C4
S113175005D0DFF83C06DFF81C1C09780170DFF8BF
S1131760E02D0021002001F07AFADFF8D80DB0F95D
S1131770002092B200213C2001F0C5FA1EA20221F1
S1131780002001F06CFADFF81C2D02213C2001F04E
S113179066FA3BA20421002001F061FADFF8342D3F
S11317A004213C2001F05BFA36A20621002001F05E
S11317B056FADFF8242D06213C2001F050FADFF818
S11317C0D005007807280AD1DFF8780D0088401C7E
S11317D0DFF8701D0880DFF8B805FF210170DFF81D
S11317E0B005007808280ED1DFF8580D0088401E97
S11317F0DFF8501D02E000BF2B3A00000880DFF83C
S11318009005FF210170DFF888050078092807D1C9
S1131810DFF88005FF210170DFF87405FF210170F6
S1131820DFF870050078032884D001F0F0F8DFF8C1
S113183060050078042840F0A280DFF85405FF21F9
S11318400170DFF850050421017001F0E0F88EE02A
S11318506E2001F08FFC01F0C5FA01F003FBDFF804
S1131860141B0870DFF80C0B0078FF2805D0DFF894
S11318702005DFF8001B09780170DFF8CC2C03E0A9
S11318802D3A000052653A000021002001F0E7F9EA
S1131890DFF8B80C0068DFF8541A01F08FFC01F08F
S11318A0F9FC80B2020000213C2001F02CFAD7A2FE
S11318B00221002001F0D3F9DFF8E82B02213C20BB
S11318C001F0CDF9D2A20421002001F0C8F9DFF81B
S11318D0042C04213C2001F0C2F9DDA206210020E1
S11318E001F0BDF9DFF8F02B06213C2001F0B7F937
S11318F0DFF89C040078072813D1DFF8500C006847
S113190001F0EAFCDFF8882ADFF8883A01F01CFDD0
S113191001F08EFDDFF8341C0860DFF87404FF2149
S11319200170DFF86C040078082813D1DFF81C0C70
S1131930006801F0D1FCDFF8582ADFF85C3A01F0C6
S113194003FD01F075FDDFF8041C0860DFF84004B6
S1131950FF210170DFF838040078092807D1DFF887
S11319603404FF210170DFF82804FF210170DFF83F
S11319702404007804283FF46BAF01F048F8DFF842
S113198010040078052840F09580DFF80404FF2156
S11319900170DFF800040521017001F038F882E0DD
S11319A06E2001F0E7FB01F01DFA01F05BFADFF8AD
S11319B0C4190870DFF8BC090078FF2805D0DFF8E7
S11319C0D003DFF8B01909780170DFF8702D002119
S11319D0002001F044F9DFF8680D0068DFF80C1905
S11319E001F0ECFB01F056FC80B2020000213C2027
S11319F001F089F985A20221002001F030F9DFF815
S1131A00A42A02213C2001F02AF981A20421002009
S1131A1001F025F9DFF8BC2A04213C2001F01FF96C
S1131A208BA20621002001F01AF9DFF8AC2A062166
S1131A303C2001F014F9D6480078072812D1DFF8C9
S1131A40000D006801F048FCDFF84429DFF8443950
S1131A5001F07AFC01F0ECFCDFF8E41C0860CC48EF
S1131A60FF210170CA480078082812D1DFF8D00C91
S1131A70006801F031FCDFF81829DFF81C3901F0A7
S1131A8063FC01F0D5FCDFF8B81C0860C048FF21F6
S1131A900170BF480078092805D1BE48FF210170B4
S1131AA0BB48FF210170BB48007805283FF478AF9C
S1131AB000F0ADFFB6480078062878D1B448FF217D
S1131AC00170B4480621017000F0A1FF69E06E20A6
S1131AD001F050FB01F086F901F0C4F9DFF8941825
S1131AE00870DFF890080078FF2804D0A848DFF8D1
S1131AF0841809780170DFF84C2C0021002001F0D3
S1131B00AEF8DFF8440CB0F9002092B200213C207A
S1131B1001F0F9F83DA20221002001F0A0F8DFF85D
S1131B20842902213C2001F09AF839A204210020E2
S1131B3001F095F8DFF89C2904213C2001F08FF88E
S1131B4043A20621002001F08AF8DFF88C2906213F
S1131B503C2001F084F88E480078072809D1DFF88A
S1131B60E80B0088401CDFF8E01B08808848FF2150
S1131B70017087480078082809D1DFF8CC0B008869
S1131B80401EDFF8C41B08808148FF210170804893
S1131B900078092805D17F48FF2101707C48FF2186
S1131BA001707C480078062891D000F030FF784816
S1131BB000780A287FF4F3AB7548FF21017000F028
S1131BC026FF4FF4FA7001F0D5FADFF8802B0021DC
S1131BD0002001F044F8DFF8782B0021462001F0C2
S1131BE03EF8DFF8702B0221002001F038F8DFF80E
S1131BF0682B0221462001F032F8DFF8602B042123
S1131C00002001F02CF8DFF8582B03E02B3A0000F9
S1131C102D3A00000421462001F021F801F0E2F8F9
S1131C2001F020F95A4908706E2001F0A3FA5848CF
S1131C30007801287BD15648FF21017055480121C5
S1131C40017000F0E4FE6CE0DFF8942B02E000BFCA
S1131C5052653A000021002001F001F8DFF8840BFE
S1131C60027800213C2001F04EF8DBA20221002082
S1131C7000F0F5FF434A02213C2000F0F0FFD7A218
S1131C800421002000F0EBFF3F4A04213C2000F037
S1131C90E6FFD3A20621002000F0E1FF3B4A062123
S1131CA03C2000F0DCFF6E2001F064FA01F09AF8A9
S1131CB001F0D8F8DFF8BC160870DFF8B806007831
S1131CC0FF2804D03248DFF8AC1609780170304898
S1131CD00078072809D1DFF80C0B0078401CDFF8E6
S1131CE0041B08702A48FF2101702948007808283D
S1131CF009D1DFF8F00A0078401EDFF8E81A08700E
S1131D002348FF21017022480078092809D121487D
S1131D10FF2101701E48FF210170DFF85806FF21E2
S1131D2001701C48007801288ED000F070FE18481D
S1131D300078022840F0C6801548FF21017015483C
S1131D400221017000F063FEB4E000BFCC63000028
S1131D504804FF1FD46300004C04FF1FDC63000031
S1131D605004FF1FE4630000EC630000C062000045
S1131D70F4630000FC630000CC6200000464000013
S1131D804004FF1F446300004C63000054630000E0
S1131D907004FF1F7204FF1F0C6400004404FF1F43
S1131DA06E2001F0E7F901F01DF801F05BF8DFF8AF
S1131DB0C4150870DFF8BC050078FF2805D0DFF8EB
S1131DC0280ADFF8B01509780170DFF8202A00210D
S1131DD0002000F044FFDFF8180A0068DFF80C1553
S1131DE001F0ECF901F056FA80B2020000213C2027
S1131DF000F089FF78A20221002000F030FFDFF814
S1131E00A42602213C2000F02AFF74A20421002011
S1131E1000F025FFDFF8BC2604213C2000F01FFF62
S1131E206FA20621002000F01AFFDFF8AC2606217D
S1131E303C2000F014FFDFF8B0090078072813D124
S1131E40DFF8AC09006801F047FADFF84425DFF851
S1131E50443501F079FA01F0EBFADFF894190860DF
S1131E60DFF88409FF210170DFF87C090078082875
S1131E7013D1DFF87C09006801F02EFADFF8102591
S1131E80DFF8143501F060FA01F0D2FADFF86019D6
S1131E900860DFF85409FF210170DFF84C0900786D
S1131EA0092807D1DFF84C09FF210170DFF8380950
S1131EB0FF210170DFF83C09007802283FF470AF7D
S1131EC000F0A5FDDFF820090078032840F0A48085
S1131ED0DFF81409FF210170DFF8180903210170EC
S1131EE000F095FD90E06E2001F044F900F07AFFD7
S1131EF000F0B8FFDFF87C140870DFF8780400788D
S1131F00FF2805D0DFF8E008DFF8681409780170CD
S1131F10DFF8E4280021002000F0A1FEDFF8DC084F
S1131F200068DFF8C81301F049F901F0B3F980B291
S1131F30020000213C2000F0E6FE27A2022100203E
S1131F4000F08DFEDFF85C2502213C2000F087FEC6
S1131F5022A20421002000F082FEDFF8782504216B
S1131F603C2000F07CFE1EA20621002000F077FE3B
S1131F70DFF8642506213C2000F071FEDFF86808D4
S1131F800078072813D1DFF87408006801F0A4F979
S1131F90DFF8FC23DFF8FC3301F0D6F901F048FA4E
S1131FA0DFF858180860DFF84008FF210170DFF8F7
S1131FB03808007808281AD1DFF84008006801F0D2
S1131FC08BF9DFF8CC23DFF8D03301F0BDF901F051
S1131FD02FFADFF8281805E02B3A00002D3A00000C
S1131FE052653A000860DFF80008FF210170DFF84D
S1131FF0F8070078092807D1DFF8F807FF210170F6
S1132000DFF8E407FF210170DFF8E8070078032810
S11320103FF469AF00F0FBFCDFF8CC07007804283C
S113202040F09580DFF8C007FF210170DFF8C40796
S11320300421017000F0EBFC81E06E2001F09AF8BD
S113204000F0D0FE00F00EFFCA490870C9480078BD
S1132050FF2804D0DFF89007C64909780170DFF83B
S1132060A0270021002000F0FAFDDFF8980700689F
S11320709E4901F0A3F801F00DF980B2020000219D
S11320803C2000F040FEE0A20221002000F0E7FD29
S1132090DFF8102402213C2000F0E1FDDBA2042142
S11320A0002000F0DCFDDFF82C2404213C2000F0AB
S11320B0D6FDD7A20621002000F0D1FDDFF81824B8
S11320C006213C2000F0CBFDDFF81C070078072830
S11320D011D1DFF83007006801F0FEF8AC4AAD4BCF
S11320E001F032F901F0A4F9DFF818170860DFF8FD
S11320F0F806FF210170DFF8F0060078082811D1F6
S1132100DFF80007006801F0E7F8A14AA24B01F0EC
S11321101BF901F08DF9DFF8EC160860DFF8C8064A
S1132120FF210170DFF8C0060078092807D1DFF825
S1132130C406FF210170DFF8B006FF210170DFF84B
S1132140B406007804283FF478AF00F060FCDFF8B0
S11321509806007805287CD1DFF88C06FF210170F1
S1132160DFF890060521017000F051FC6AE06E2052
S113217001F000F800F036FE00F074FE7D490870AE
S11321807C480078FF2804D0DFF85C067949097898
S11321900170DFF874260021002000F060FDDFF8F4
S11321A06C06B0F9002000213C2000F0ACFD96A2A2
S11321B00221002000F053FDBA4A02213C2000F025
S11321C04EFD92A20421002000F049FDC14A0421E1
S11321D03C2000F044FD8EA20621002000F03FFDCB
S11321E0BD4A06213C2000F03AFDDFF8FC050078EA
S11321F007280AD1DFF814060088401CDFF80C1603
S11322000880DFF8E405FF210170DFF8DC050078C1
S113221008280AD1DFF8F4050088401EDFF8EC1521
S11322200880DFF8C405FF210170DFF8BC050078E1
S1132230092807D1DFF8BC05FF210170DFF8A805E4
S1132240FF210170DFF8AC05007805288FD000F07D
S1132250DEFBDFF894050078062840F08180DFF883
S11322608805FF210170DFF88C050621017000F05C
S1132270CEFB6EE06E2000F07DFF00F0B3FD00F0B9
S1132280F1FD3C4908703B480078FF2804D0DFF892
S11322905805384909780170DFF8742500210020B9
S11322A000F0DDFCDFF86C05B0F9002000213C20D3
S11322B000F029FD54A20221002000F0D0FC794A4C
S11322C002213C2000F0CBFC50A20421002000F0AD
S11322D0C6FC804A04213C2000F0C1FC4CA206212B
S11322E0002000F0BCFC7C4A02E000BF000020415A
S11322F006213C2000F0B3FCDFF8EC04007807284A
S11323000AD1DFF810050088401CDFF808150880A2
S1132310DFF8D404FF210170DFF8CC04007808282A
S11323200AD1DFF8F0040088401EDFF8E8140880C2
S1132330DFF8B404FF210170DFF8AC040078092849
S113234007D1DFF8B004FF210170DFF89C04FF21FE
S11323500170DFF8A004007806288BD000F057FB4A
S1132360DFF8840400780A287FF42BACDFF87804C3
S113237002E000BF6F04FF1FFF21017000F047FB64
S1132380DFF894040078012812D171A206E000BF9E
S11323909A9999999999B93F9999B9BF00210020BF
S11323A000F05DFC40F24C4000F0E4FE00F02FFB36
S11323B0DFF8640402210170DFF860040121018068
S11323C0DFF85C0401210180DFF85804007801285B
S11323D0D6D1DFF8500400210170641C2000C0B283
S11323E0052804D30024DFF8400401F081FEDFF85F
S11323F0380401F0B5F901F0E1FADFF8300400889F
S1132400DFF82C1406E000BF2B3A00002D3A000040
S113241052653A0009880818DFF810140880DFF8BC
S113242014040088DFF8101409880818DFF804146D
S11324300880DFF808040088DFF804140988081805
S1132440DFF8F81308806D1C280000B20F2897DB12
S11324500025DFF8D803B0F900000F2190FBF1F05C
S1132460DFF8E0130880DFF8CC03B0F900000F2197
S113247090FBF1F0DFF8D0130880DFF8C003B0F967
S113248000000F2190FBF1F0DFF8C0130880DFF8A3
S11324909C0300210180DFF89C0300210180DFF808
S11324A09C0301E05C63000000210180DFF89C03D1
S11324B00088DFF894130988401ADFF89413088021
S11324C0DFF89003DFF8881309880180DFF87403CC
S11324D004E000BF646300006C630000B0F90020F6
S11324E000210A2000F059FBDFF85C03B0F900205A
S11324F002210A2000F051FBDFF85003B0F900205C
S11325000221462000F049FB00F0ACFCDFF8481340
S11325100870D1480078FF2803D0B348CE49097821
S11325200170B14800780C287FF42AAFAE48FF212F
S11325300170B0480C21017000F069FA25E000BF79
S1132540D86200002004FF1F146400005404FF1F1D
S1132550636A00006E2000F00DFE00F083FCBE49AB
S11325600870BD480078FF2803D09F48BA4909780D
S113257001709D4800780C2805D19E48FF21017008
S11325809948FF21017000F042FA9A4800780C281B
S1132590E0D0A148012101709F48007801280AD1A8
S11325A070A206213C2000F05AFB40F24C4000F09F
S11325B0E1FD00F02CFA98480221017097480021AF
S11325C001809748002101809648007801281BD19A
S11325D0944800210170641C2000C0B2052800D377
S11325E00024914801F0BCF801F0E8F901F088FCFE
S11325F09A480078401C9949087098480078052842
S113260002D19648002101709548B0F900000128D4
S1132610C2D18948B0F9002002210A2000F0BDFA95
S11326208748B0F900200221462000F0B6FA8D4810
S1132630B0F9002092B20421002000F0AEFA8A4AD8
S11326400421462000F00BFB884802780421642012
S113265000F0A3FA8648B0F9002092B206210A20BD
S113266000F09BFA8348B0F9002092B2062146207C
S113267000F093FA8048006880490968884203DAC8
S11326807D487E49096801607D48B0F900007549BC
S1132690B1F90010884203DA794872490988018047
S11326A07848B0F900007849B1F90010884203DA9B
S11326B074487549098801807448B0F90000744968
S11326C0B1F90010884203DA704871490988018021
S11326D063480021018001F047FE08216D4801F0A4
S11326E0D7FF01287FF458AF6B4A0021002000F087
S11326F0B6FA6448B0F900200021462000F04DFAF3
S11327005F48B0F9002002210A2000F046FA5A4836
S113271002680221462000F040FA5C48B0F900202B
S113272004210A2000F039FA5C48002101603B488A
S1132730012101803A4801210180D5E71C64000091
S11327405804FF1FE46200002204FF1F24640000F9
S11327502C640000346400003C6400004464000005
S11327604C640000676F000080B572B65FF4E1321C
S11327704B4801684B4801F093FF002300220821D5
S1132780444801F03BFF4FF49671002002F092F8A8
S11327904FF496520221002002F001FA4FF47A71AC
S11327A0012002F087F802F004FB02F066FB00F05F
S11327B087FE00F055F9002200215FF07F5002F0FF
S11327C0E7FB3948B0F9000002F0DEFB4EF6602169
S11327D0002002F02DFC002002F059FC62B601BD7D
S11327E0546400006E04FF1F7004FF1FF0620000B9
S11327F02804FF1F7204FF1FFC6200003004FF1F47
S11328005C6400005C04FF1F646400006C04FF1F30
S11328106C6400006A04FF1F7104FF1F9A07FF1F06
S11328209C07FF1FAC07FF1F9006FF1F9207FF1FA7
S11328304207FF1F9407FF1F3007FF1F9607FF1F64
S11328401404FF1F4807FF1F4407FF1F1604FF1F40
S1132850A407FF1F4007FF1F6F04FF1FAF07FF1FE1
S11328609007FF1F8E07FF1F74640000A807FF1F57
S11328708807FF1F8A07FF1F1007FF1F8C06FF1F13
S1132880A007FF1FA207FF1F6207FF1F9807FF1F74
S11328907E07FF1F80F00F407C640000109003400F
S11328A02807FF1F00D006406204FF1F0821DFF83D
S11328B01825126852F40032DFF80C351A6000BF94
S11328C0DFF80425126832F48042DFF8FC341A6021
S11328D000BF19E0DFF8F024126832F40042DFF898
S11328E0E8341A60DFF8E024126852F48042DFF81A
S11328F0D8341A6000BFDFF8D024126832F4804262
S1132900DFF8C4341A6040000A00511ED2B2002A13
S11329100AD00206DED5DFF8B024126852F4004271
S1132920DFF8A4341A60DDE7704700000821DFF8FF
S11329309824126832F40032DFF88C341A60DFF81D
S11329408824126832F48042DFF87C341A6019E07B
S1132950DFF87424126832F40042DFF86C341A6031
S1132960DFF86424126852F48042DFF85C341A60A1
S113297000BFDFF85424126832F48042DFF8483490
S11329801A6040000A00511ED2B2002A0AD0020680
S1132990DED5DFF83424126852F40042DFF828341C
S11329A01A60DDE7704710B50400B1F15000C0B201
S11329B0FFF7BCFFE4B2200950F01000C0B2FFF7EB
S11329C0B5FF14F00F0050F00100C0B2FFF7AEFFE6
S11329D010BD70B50400002508E02000C0B2FFF768
S11329E065FF761CF6B2802EF7D36D1CEDB2082D70
S11329F00CD2B5F15000C0B2FFF798FF0120FFF7E9
S1132A0095FF1020FFF792FF0026EBE770BD38B565
S1132A10002407E00020FFF749FF6D1CEDB2802D74
S1132A20F8D3641CE4B2082C0CD2B4F15000C0B248
S1132A30FFF77CFF0120FFF779FF1020FFF776FFF7
S1132A400025EBE731BD07E043F226410A00511EA1
S1132A5092B2002AFAD1401E80B20028F4D1704705
S1132A6080B5DFF868034FF480710160DFF860031C
S1132A704FF480710160DFF85C034FF480710160F2
S1132A80DFF854034FF480710160DFF850035FF402
S1132A9070310160DFF83003006850F48040DFF8E3
S1132AA028130860DFF82003006830F48030DFF872
S1132AB0181308603220FFF7C6FFDFF80C03006824
S1132AC050F48030DFF800130860AE20FFF72EFFCB
S1132AD00020FFF72BFF1020FFF728FF4020FFF70F
S1132AE025FF8120FFF722FFCF20FFF71FFFA12042
S1132AF0FFF71CFFC820FFF719FFA620FFF716FFFA
S1132B00A820FFF713FF3F20FFF710FFD320FFF7A4
S1132B100DFF0020FFF70AFFD520FFF707FF8020F5
S1132B20FFF704FFD920FFF701FFF120FFF7FEFEB6
S1132B30DA20FFF7FBFE1220FFF7F8FEDB20FFF799
S1132B40F5FE4020FFF7F2FE2020FFF7EFFE022003
S1132B50FFF7ECFE8D20FFF7E9FE1420FFF7E6FEF9
S1132B60A420FFF7E3FEA620FFF7E0FEAF20FFF767
S1132B70DDFE0020FFF72DFF00210020FFF713FFEB
S1132B80FF20FFF726FF642000F0F4FA0020FFF78F
S1132B9020FF642000F0EEFA01BD2DE9FC410400A1
S1132BA00D00002600275FF00008642092FBF0F07F
S1132BB08DF80000642092FBF0F100FB11200A2143
S1132BC090FBF1F08DF801000A2092FBF0F100FB7C
S1132BD011208DF802000020804610E0F6B230018A
S1132BE050FA87F0DFF8F8114018007AFFF75EFE1C
S1132BF07F1CFFB2082FF1D3083418F101085FFAE3
S1132C0088F8B8F1030F28D25FFA88F800A818F8FA
S1132C10000010F11006E4B2792C01D300246D1CDD
S1132C202900C9B22000C0B2FFF7BDFE002709E0A9
S1132C30F6B2300150FA87F0DFF8A411405CFFF7D8
S1132C4035FE7F1CFFB2082FF2D3691CC9B22000E5
S1132C50C0B2FFF7A8FE0027CBE7BDE8F3812DE95A
S1132C60F84304000D00160000275FF000085FF031
S1132C70000913E0FFB2380150FA88F0DFF8601160
S1132C804018007AFFF712FE18F101085FFA88F87D
S1132C90B8F1080FEED3083419F101095FFA89F984
S1132CA019F8060000282CD05FFA89F919F80600F3
S1132CB0B0F12007E4B2792C01D300246D1C290063
S1132CC0C9B22000C0B2FFF76EFE5FF000080AE050
S1132CD0FFB2380150FA88F0DFF80411405CFFF7C6
S1132CE0E5FD18F101085FFA88F8B8F1080FEFD391
S1132CF0691CC9B22000C0B2FFF755FE5FF000089E
S1132D00C4E7BDE8F1832DE9F04182B004000D0071
S1132D10002600275FF000086420B2FBF0F08DF875
S1132D2000000A20B2FBF0F00A21B0FBF1F301FB32
S1132D3013008DF801000A20B2FBF0F100FB112012
S1132D408DF80200002080460FE0F6B2300150FA00
S1132D5087F023494018007AFFF7A8FD7F1CFFB2D3
S1132D60082FF2D3083418F101085FFA88F8B8F193
S1132D70030F27D25FFA88F800A818F8000010F1B2
S1132D801006E4B2792C01D300246D1C2900C9B2C9
S1132D902000C0B2FFF707FE002708E0F6B23001BA
S1132DA050FA87F00E49405CFFF780FD7F1CFFB2AC
S1132DB0082FF3D3691CC9B22000C0B2FFF7F3FD9A
S1132DC00027CCE7BDE8F38100F00F4038900440C1
S1132DD03C900440409004404490044014F00F4060
S1132DE07C57000080B5DFF88403006850F48050FD
S1132DF0DFF878130860002300220021DFF8700355
S1132E0001F0FCFB002300220121DFF8640301F040
S1132E10F5FB002300220221DFF8540301F0EEFB4E
S1132E20002300220321DFF8480301F0E7FB01231C
S1132E3000220421DFF8380301F0E0FB0123002223
S1132E400521DFF82C0301F0D9FB01230022062120
S1132E50C74801F0D3FB002300220721C44801F036
S1132E60CDFB01BDF8B50025FF240023012200217C
S1132E70BF4801F0C3FB012301220121BC4801F03A
S1132E80BDFB012301220221B94801F0B7FB012354
S1132E9001220321B64801F0B1FB0421B44801F03A
S1132EA0F7FB06000521B24801F0F2FB07000621FA
S1132EB0AF4801F0EDFB790111EB061111EB80161F
S1132EC00721AB4801F0E4FB16EBC0100500EDB29E
S1132ED0702D2AD00A2000F04DF90421A44801F0F5
S1132EE0D7FB05000521A24801F0D2FB060006210C
S1132EF09F4801F0CDFB710111EB051111EB801519
S1132F0007219B4801F0C4FB15EBC015EDB2702DF1
S1132F100BD0EDB2302D07D0502D03D0602D04D14D
S1132F200A2402E00B2400E00C24012301220021E6
S1132F308F4801F063FB0023012201218C4801F03A
S1132F405DFB012301220221894801F057FB012383
S1132F5001220321864801F051FB0421844801F039
S1132F6097FB05000521824801F092FB060006212B
S1132F707F4801F08DFB710111EB051111EB8015F8
S1132F8007217B4801F084FB15EBC015EDB2702DD1
S1132F902AD00A2000F0EEF80421754801F078FBED
S1132FA005000521724801F073FB060006217048F4
S1132FB001F06EFB710111EB051111EB8015072176
S1132FC06B4801F065FB15EBC015EDB2702D0BD00D
S1132FD0EDB2302D07D0502D03D0602D04D107243D
S1132FE002E0082400E009240123012200216048B2
S1132FF001F004FB0123012201215D4801F0FEFAE6
S11330000023012202215A4801F0F8FA0123012287
S11330100321574801F0F2FA0421554801F038FB26
S113302005000521524801F033FB060006215048F3
S113303001F02EFB710111EB051111EB8015072135
S11330404B4801F025FB15EBC015EDB2702D2AD0CD
S11330500A2000F08FF80421454801F019FB05000F
S11330600521434801F014FB06000621404801F005
S11330700FFB710111EB051111EB801507213C4881
S113308001F006FB15EBC015EDB2702D0BD0EDB2BF
S1133090302D07D0502D03D0602D04D1042402E03C
S11330A0052400E00624012301220021304801F018
S11330B0A5FA0123012201212D4801F09FFA0123E1
S11330C0012202212A4801F099FA00230122032156
S11330D0274801F093FA0421254801F0D9FA0500A4
S11330E00521234801F0D4FA06000621204801F006
S11330F0CFFA710111EB051111EB801507211C4862
S113310001F0C6FA15EBC015EDB2702D2AD00A20D5
S113311000F030F80421164801F0BAFA0500052140
S1133120134801F0B5FA06000621114801F0B0FA7F
S1133130710111EB051111EB801507210C4801F009
S1133140A7FA15EBC015EDB2702D0BD0EDB2302DF2
S113315007D0502D03D0602D04D1012402E00224B5
S113316000E003242000C0B2F2BD00003880044017
S1133170C0F00F400D49096851F001010B4A11607C
S11331800B4908600B48052101600B48006850F0AA
S1133190010009490860084800680006FBD5064894
S11331A000684008400004490860704738800440C3
S11331B0080004400400044000000440FF2212EA16
S11331C0D05C1DBF12EAD153944593422BE09C443A
S11331D0D30780EA01021A4043EA002043EA0121AE
S11331E0A1FB0030410038BF40007CF17F010BDBC4
S11331F0FE294ADA5B0842EAC15153EA006373F1DB
S1133200004C51EB10207047D1F1080CDCF1200187
S11332102FDB5B0810FA01F10B4373F1004120FA34
S11332200CF05041704794451CBF02EAD1539342BD
S113323080EA010202F000421DD0400019D049008A
S113324017D05BB9634514D00902B1FA81F39940F0
S1133250BCEB030CC00140F00040C1E70002B0FA2F
S113326080FC10FA0CF0B3EB0C0CC90141F00041E6
S1133270B6E71000704740000AD0490008D010F1AA
S1133280807F94BF11F1807F02E042F0FF407047DD
S1133290D04370474100090E7F3915D4D1F11F0185
S11332A014D4400007D2C00140F00040C84048BFD9
S11332B06FF000407047C00140F00040C8404CBF70
S11332C04FF00040404270470020704700424FF0EA
S11332D0004058BFC04370475FF0FF0C1CEAD05158
S11332E014BF614506E0C110400721F0E04101F13F
S11332F06051704779B900F0004100020AD0B0FA79
S113330080FC00FA0CF001F16051A1EB0C5101EBCF
S1133310D0214005704741020CBF40F4E0016FF03A
S113332000010020704750F8041B61B150F8042BD1
S1133330D30744BFA9F101039A18002342F8043BC0
S1133340091FFAD1EFE7704770B44FF0004591EAD6
S1133350030C44BF6B4001F0C7BE00BF841A71EB7D
S1133360030603D2001BB141121973414FF4001C30
S11333701CEB410F34BF7CEB430443E00C0DA4EB86
S11333801356352E50DC45EAC323DB0A45EAC12136
S1133390C912B6F120050DDD63FA05F6EB4086EAA5
S11333A00305124218BF45F00105C01851F1000190
S11333B00CD213E062FA06F5F2405540F3415A404C
S11333C0B340F3405A408018594107D349085FEA93
S11333D030005FEA350528BF45F0010501F580118D
S11333E0420875F1004250F1000041EB045170BCF9
S11333F04FF4001C1CEB410F38BF70470020090D2F
S1133400090570471CEB410F10D252EA43060BD05A
S1133410BCEB410F05D80C0DAB43661E342EB5DD55
S113342002E0AB438018594170BC704770BC7047D0
S11334304FEAF17CBCF1E04C2CBFBCF5001F11E05D
S11334405FEA4C0C34BFBCF17F5F2EE05FEA9C0C5A
S11334504FEA0C1C4FEA3C0CC10071F100414CEBEB
S113346050707047C90241EA5051C00218BF41F080
S1133470010141F000414FEA6C50C0F109002128DC
S113348010D240EACC7CCCF1200C11FA0CF070F193
S11334900040CCF1200C21FA0CF00CF0004C40EB75
S11334A00C0070474FEACC707047490011F5001FBB
S11334B004D84FEACC10FF30C0057047C8177047D6
S11334C080B5012301220021DFF8E80401F096F819
S11334D0012301220121DFF8DC0401F08FF801232C
S11334E001220C21DFF8D00401F088F80123012225
S11334F00D21DFF8C40401F081F8012001F0AAFED7
S113350001BD10B5012301220021DFF8A80401F058
S113351075F800F04DFE012301220121DFF8940427
S113352001F06CF800F044FE002301220021DFF8D2
S1133530840401F063F800F03BFE00230122012122
S1133540DFF8700401F05AF8002416E000F030FEB1
S113355000F02EFE012301220121DFF8580401F0BE
S11335604DF800F025FE00F023FE00230122012186
S1133570DFF8400401F042F8641CE4B27F2CE5D388
S113358000F016FE00F014FE012301220121DFF8F1
S1133590240401F033F800F00BFE00F009FE0023D0
S11335A001220121DFF80C0401F028F810BD38B520
S11335B00400012301220021DFF8F80301F01EF8C2
S11335C000F0F6FD012301220121DFF8E80301F0F8
S11335D015F800F0EDFD002301220021DFF8D403EB
S11335E001F00CF800F0E4FD002502E000F0E0FD3D
S11335F06D1CEDB2502DF9D308220621012001F0F3
S113360050FE2070641C002301220121DFF8A40372
S113361000F0F4FF00251DE000F0CAFD00F0C8FD35
S1133620012301220121DFF88C0300F0E7FF00F001
S1133630BFFD00F0BDFD08220621012001F031FE8E
S11336402070641C002301220121DFF8680300F0CC
S1133650D5FF6D1CEDB27F2DDED300F0A9FD00F087
S1133660A7FD012301220121DFF8480300F0C6FF72
S113367000F09EFD00F09CFD002301220121DFF8F3
S1133680340300F0BBFF31BD80B5DFF85C18802047
S113369000F04DF8DFF854180870DFF8500800788F
S11336A019214843802190FBF1F0DFF84418087099
S11336B0DFF840080088DFF838180978401ADFF886
S11336C038180880DFF83008B0F90000DFF82C184B
S11336D0B1F90010C84206DADFF8E4090078401EA8
S11336E0DFF8DC190870DFF81408B0F90000DFF81F
S11336F00818B1F90010884206DADFF8C409007826
S1133700401CDFF8BC190870DFF8B40900780228FF
S113371003D2DFF8AC0901210170DFF8A4090078B5
S1133720142803D3DFF898091421017001BD10B4E3
S11337300023002204E00C7853FA84F3491C521C41
S1133740D2B2C0B28242F6D39BB2C0B293FBF0F0C5
S1133750C0B210BC7047002801D54042FFE7704753
S1133760F8B504000025002600270020DFF87817AC
S11337704978DFF850291180DFF86C174978DFF8B1
S113378048291180012113E0C9B2DFF85C07085C05
S1133790DFF83429B2F9002000B2904207DA0800B9
S11337A0C9B2DFF844278A5CDFF81C391A80491C47
S11337B0C9B27F2913D2DFF80C09B0F90000C9B2ED
S11337C0DFF824278A5C12B29042DDDA0F00C9B216
S11337D0DFF81407085CDFF8EC281080E7E7DFF86F
S11337E0E408B0F90000FFB2DFF8FC16791811F80C
S11337F0021C401A0B2832DBDFF8C808B0F90000BD
S1133800FFB2DFF8E41679188978401A0B2826DB12
S1133810FFB2DFF8D406381810F8020CFFB2DFF854
S1133820C81679188978401AFFF795FF0A2816DA1E
S1133830FFB2DFF8B406381810F8020CFFB2DFF854
S1133840A816791889780818FFB2DFF89C167854FE
S1133850FFB2DFF89406385CDFF868180880DFF8F8
S11338606408B0F90000DFF86018B1F90010081816
S1133870022190FBF1F0DFF85418088000210CE0DD
S1133880DFF84C080088C9B2DFF85C268A5C80182F
S1133890DFF83C281080761C491CC9B27F2917D256
S11338A0C9B2DFF84406085CDFF82028B2F900202A
S11338B000B29042E4DBDFF81C080088C9B2DFF8EC
S11338C028268A5C8018DFF80C2810806D1CE3E73A
S11338D0DFF80008B0F90000EDB290FBF5F0DFF876
S11338E0F4170880DFF8E807B0F90000F6B290FB9F
S11338F0F6F0DFF8DC170880DFF8D807B0F900002D
S1133900DFF8CC17B1F900100818022190FBF1F090
S1133910DFF8B8170880002103E000202070641C41
S1133920491CC9B280290AD22078DFF8A027B2F94D
S1133930002000B29042F0DB01202070EFE703206A
S113394034E0C0B2DFF8A015415C002913D1C0B245
S1133950DFF89415411811F8011C01290BD1C0B2EC
S1133960DFF8841541184978012904D1C0B2DFF881
S1133970781501224254C0B2DFF86C15415C01296C
S113398013D1C0B2DFF86015411811F8011C0029E9
S11339900BD1C0B2DFF8501541184978002904D181
S11339A0C0B2DFF8441500224254401CC0B27D2846
S11339B0C7D3F1BD00F10F4000F00F4010B4002355
S11339C000210B007E2101E00022491E09B20429D6
S11339D022DB09B2DFF810258A5C012AF4D109B28E
S11339E0DFF804258A1812F8012C002AECD109B258
S11339F0DFF8F4248A1812F8022C002AE4D109B260
S1133A00DFF8E4248A1812F8032C002ADCD18A1E79
S1133A10DFF8C4361A800122012301E000205B1C78
S1133A201BB27B2B1FDA1BB2DFF8BC04185C012825
S1133A30F4D11BB2DFF8B004181840780028EDD197
S1133A401BB2DFF8A404181880780028E6D11BB252
S1133A50DFF894041818C0780028DFD1981CDFF828
S1133A607C462080012012B2012A6AD100B20128CA
S1133A7067D1DFF86C0600220270DFF85806B0F94F
S1133A800000DFF84C26B2F90020801A2E283FDB14
S1133A90DFF84806B0F90000DFF83C26B2F9002050
S1133AA0904280F25781DFF83C06B0F90000DFF85D
S1133AB02C26B2F90020801A1F280EDB881EDFF89E
S1133AC018160880DFF810060088DFF81C1609882D
S1133AD00818DFF8081608803CE1DFF8FC05B0F9A7
S1133AE00000DFF80816B1F90010401A1F28C0F2D0
S1133AF03181981CDFF8E4150880DFF8E0050088C0
S1133B00DFF8E4150988401ADFF8CC15088021E1B4
S1133B10DFF8C005B0F90000DFF8B415B1F9001002
S1133B20401A2E2880F21681DFF8AC05DFF8BC15A8
S1133B3009880180DFF8A405DFF8A8150988018049
S1133B4008E112B2012A65D100B2002862D1DFF87F
S1133B50900500210170DFF87C05B0F90000DFF862
S1133B607015B1F90010401A2E283ADBDFF87405FD
S1133B70B0F90000DFF86015B1F9001088420CDAE2
S1133B80DFF85405DFF8641509880180DFF84C0577
S1133B90DFF8501509880180DCE0DFF83C05B0F956
S1133BA00000DFF84415B1F90010D1F16601884234
S1133BB00CDADFF82405DFF8341509880180DFF812
S1133BC01C05DFF8201509880180C3E0DFF808052B
S1133BD00088DFF8141509880818DFF80015088034
S1133BE0B8E0DFF8F004B0F90000DFF8E414B1F94C
S1133BF00010401A2E2880F2AD80DFF8DC04DFF8D4
S1133C00EC1409880180DFF8D404DFF8D81409889B
S1133C1001809FE012B2002A63D100B2012860D172
S1133C20DFF8BC0400210170DFF8A804B0F900003B
S1133C30DFF89C14B1F90010401A2E2839DBDFF8A4
S1133C409C04B0F90000DFF8A414B1F90010884214
S1133C500CDADFF88404DFF8941409880180DFF8B3
S1133C607C04DFF880140988018073E0DFF87804AD
S1133C70B0F900001930DFF86414B1F9001088427B
S1133C800CDADFF85404DFF8641409880180DFF8E3
S1133C904C04DFF85014098801805BE0DFF83C0431
S1133CA00088DFF844140988401ADFF82C140880CF
S1133CB050E0DFF82004B0F90000DFF81414B1F983
S1133CC00010401A2E2845DADFF80C04DFF81C1423
S1133CD009880180DFF80404DFF8081409880180EA
S1133CE038E0104300B2002834D1DFF8F403007840
S1133CF0002807D1DFF8B40400210180DFF8E003D5
S1133D0001210170DFF8A4040088401CDFF89C1432
S1133D100880DFF8D803B0F90000402805DADFF89E
S1133D20C403B0F9000040280CDADFF8AC03DFF874
S1133D30BC1309880180DFF8A403DFF8A8130988FD
S1133D40018007E0DFF8900300210180DFF88C0395
S1133D507F210180DFF88003B0F90000DFF87C13D5
S1133D60B1F900100818022190FBF1F0DFF83C15BE
S1133D700880DFF838050088DFF834150988401A10
S1133D80DFF830150880DFF86403DFF84C13098886
S1133D900180DFF85003DFF8441309880180DFF85D
S1133DA01805DFF8481309880180DFF81005DFF8EB
S1133DB0341309880180DFF87805DFF8781509885D
S1133DC00180DFF87005DFF8701509880180DFF8DD
S1133DD06805DFF8681509880180DFF86005DFF8F9
S1133DE0601509880180DFF85805DFF8581509883F
S1133DF00180DFF85005DFF8501509880180DFF8ED
S1133E004805DFF8481509880180DFF84005DFF828
S1133E10401509880180DFF83805DFF8381509886E
S1133E200180DFF83005DFF88C1409880180DFF8A1
S1133E3024050088DFF818150988401ADFF81815DA
S1133E400880DFF80C050088DFF800150988401A9F
S1133E50DFF808150880DFF8F4040088DFF8E814B8
S1133E600988401ADFF8F8140880DFF8DC040088B9
S1133E70DFF8D0140988401ADFF8E8140880DFF866
S1133E80C4040088DFF8B8140988401ADFF87415F0
S1133E900880DFF8AC040088DFF8A0140988401A11
S1133EA0DFF864150880DFF894040088DFF88814CC
S1133EB00988401ADFF854150880DFF87C0400886C
S1133EC0DFF870140988401ADFF844150880DFF819
S1133ED064040088DFF858140988401ADFF848158C
S1133EE0088010BC704700009006FF1FA607FF1F44
S1133EF0A707FF1F1A04FF1F7807FF1F1C04FF1FDB
S1133F0030B4032006210022DFF8083500241C8089
S1133F10DFF8043500241C80DFF8103500241C80F1
S1133F200B1A5B1C1A00DFF8F434DFF8884324888A
S1133F301C8064230CE0DBB2DFF8E04414EB4304A0
S1133F4034F8024CDBB2DFF8D45425F813405B1E7E
S1133F50DBB2012BEFD200230CE0DFF8C444248849
S1133F60DBB2DFF8B85435F813502C19DFF8B0542D
S1133F702C805B1CDBB2032BEFD3DFF8A434B3F942
S1133F800030032493FBF4F3DFF8944423800023EC
S1133F9010E0DBB2DFF8844434F81340DBB2DFF81E
S1133FA07C5435F813506C43DBB2DFF8785425F8B1
S1133FB013405B1CDBB2032BEBD300230CE0DFF8D4
S1133FC054442488DBB2DFF85C5435F813502C19C0
S1133FD0DFF840542C805B1CDBB2032BEFD3DFF8FB
S1133FE03434B3F90030032493FBF4F3DFF82844AA
S1133FF02380DFF82C3400241C80002306E0DBB28D
S1134000DFF82044002524F813505B1CDBB2052B99
S1134010F5D3DFF8003400241C8003000CE0DFF843
S113402000442488DBB2DFF8F45335F813502C191C
S1134030DFF8EC532C805B1CDBB2C9B28B42EED3AD
S1134040DFF8DC33B3F90030C9B293FBF1F3DFF8E6
S1134050D0432380030010E0DBB2DFF8C04334F820
S11340601340DBB2DFF8B45335F813506C43DBB2C2
S1134070DFF8B05325F813405B1CDBB2C9B28B42A6
S1134080EAD303000CE0DFF88C030088DBB2DFF82E
S1134090944334F813402018DFF8784320805B1CE5
S11340A0DBB2C9B28B42EED3DFF86803B0F900008B
S11340B0D2B290FBF2F0DFF87413088030BC704782
S11340C01E04FF1F3207FF1F3407FF1F3607FF1FA1
S11340D07C07FF1F7A07FF1F3007FF1F1404FF1F11
S11340E0A807FF1F3A07FF1F4007FF1F3807FF1FDE
S11340F070B5040000262A21DFF8A00400F0ADFB0F
S11341004C21DFF8980400F0A8FB4421DFF88C046C
S113411000F0A3FB002000F01DF8002000F01AF8C6
S1134120002000F017F8002000F014F8002504E047
S1134130207800F00FF8641C6D1CEDB2802DF7D3CD
S11341403000C0B200F006F82321DFF8500400F07C
S113415084FB70BD10B50400E4B22009C0B20A2883
S113416007D210F13001C9B2DFF8300400F075FB5A
S113417006E010F13701C9B2DFF8200400F06DFB4E
S113418014F00F00C0B20A2807D210F13001C9B2EE
S1134190DFF8080400F061FB06E010F13701C9B252
S11341A0DFF8F80300F059FB10BD00007E07FF1F85
S11341B081B000208DF8000006E000BF00BF9DF82C
S11341C00000401C8DF800009DF800000128F4D385
S11341D001B0704710B5DFF8A003DFF8B813096821
S11341E00160DFF89803334909880180DFF88C0304
S11341F00088DFF88C130988401ADFF888130880D8
S1134200DFF87803B0F9000001F012F9DFF8781351
S11342100968FEF7D3FFDFF8741301F021F90400F5
S1134220DFF86003B0F9000001F002F9DFF8601371
S11342300968FEF7C3FF210001F012F9FFF72AF81D
S1134240DFF854130880DFF83803DFF830130988E7
S11342500180DFF84403B0F9000041F639018842D7
S113426004DBDFF8340341F638010180DFF828036A
S1134270B0F9000040F6E441884204DADFF818039C
S113428040F6E4410180DFF81003B0F90020022178
S1134290002000F033FDDFF80003B0F9000001F066
S11342A0C7F8DFF8F012086010BD00004207FF1FD6
S11342B04807FF1F4C07FF1F3C07FF1F3E07FF1F58
S11342C010B5DFF8D0020068DFF8AC12096801F01D
S11342D009F90400DFF8C802B0F90000401C01F03D
S11342E0A7F82100FEF76AFFDFF8B81201F06EF9B3
S11342F0DFF88412096801F0B3F8FEF7CBFFDFF8AA
S11343009812088010BDDFF8AC020068DFF898123C
S11343100880DFF898020088DFF88C1209880818F2
S1134320DFF888120880DFF88C02002101607047F2
S11343306007FF1F5E07FF1F5C07FF1F5A07FF1F71
S11343405807FF1F5607FF1F5407FF1F5207FF1F81
S11343505007FF1F4E07FF1F6207FF1F6407FF1F61
S11343606607FF1F6807FF1F80B5DFF84C02DFF800
S11343703C12B1F900100160DFF830020021018025
S113438000F056F8DFF83402B0F9000000F0FCFD4C
S1134390DFF824020068052148430D2190FBF1F069
S11343A0303000F0FFFDDFF8141209884018DFF800
S11343B000120880DFF8F801B0F9000001280EDBD4
S11343C0002301220921DFF8F80100F017F9DFF8D2
S11343D0F401DFF8DC11B1F90010016010E00123F1
S11343E001220921DFF8D80100F008F9DFF8C00143
S11343F0B0F9000040F2E2410818DFF8C811086083
S113440001BD00006A07FF1F6C07FF1F6E07FF1F37
S11344107007FF1F8207FF1F8407FF1FFC04FF1F95
S11344208007FF1FC405FF1F7207FF1F8607FF1FBA
S1134430DFF89C01B0F90000DFF89011B1F9001029
S1134440884239DADFF8A40101210170DFF8900114
S1134450B0F900000D2828DBDFF87801B0F900007E
S1134460DFF88011097809B2884217DADFF86401AD
S11344700088401CDFF85C110880DFF85C01B0F9AB
S113448000004042DFF83011096848434FF4AF712F
S113449090FBF1F0DFF82411088046E0DFF81C01FE
S11344A0DFF84C11098801803FE0DFF81001DFF8E4
S11344B040110988018038E0DFF81001B0F90000EC
S11344C0DFF80411B1F90010884224DADFF81C0186
S11344D00078012807D1DFF8140100210170DFF80A
S11344E0000100210180DFF8EC0000210180DFF8E9
S11344F0F0000088401CDFF8E8100880DFF8E000D6
S1134500B0F90000032810DBDFF8B000DFF8D810A2
S11345100988018009E0DFF8D40001210170DFF887
S11345209C00DFF8B81009880180DFF8C800B0F9F2
S11345300000DFF884100968884209DADFF87C009B
S11345400088DFF8B4100988401ADFF8701008807A
S1134550DFF864000068052148430D2190FBF1F069
S1134560303010F1640F05DADFF85000DFF86C101A
S11345700988018070470000F404FF1F4607FF1FED
S11345804A07FF1F7407FF1F2404FF1F0070944590
S11345902C04FF1FF804FF1F1804FF1F00D006405F
S11345A02E07FF1F0000A0412C07FF1F7607FF1FE7
S11345B08C07FF1F04800B408C06FF1F6004FF1F45
S11345C040F00F40109003402204FF1F8407FF1F98
S11345D02004FF1F9E07FF1F6804FF1F6604FF1FC0
S11345E08E07FF1F1F04FF1F6204FF1FA907FF1F81
S11345F06404FF1F6C04FF1F6A04FF1F70B40500EE
S11346001D4EAD1B08D0403D08D0403D08D0403D74
S113461008D0403D08D009E0184C07E0184C05E0EC
S1134620184C03E0184C01E0184CFFE74FF4807578
S113463044F82150012A15D1426901248C402243B7
S11346404261012B06D10268012313FA01F11143DF
S113465001600EE00268012313FA01F132EA01015C
S1134660016006E04269012313FA01F132EA010113
S1134670416170BC7047000000F00F40009004409E
S113468000A0044000B0044000C0044000D0044036
S1134690006901228A401040C840C0B27047704788
S11346A030B4DFF8C03198420AD1DFF8BC314FF49E
S11346B040741C60DFF8B4314FF440741C6049E06E
S11346C0DFF8AC3198420AD1DFF8A8314FF44074D6
S11346D01C60DFF8A4314FF440741C603AE0DFF84A
S11346E09C3198420AD1DFF898314FF440741C6031
S11346F0DFF890314FF440741C602BE0DFF8883110
S113470098420AD1DFF884314FF440741C60DFF81A
S113471080314FF440741C601CE0DFF8783198421B
S11347200AD1DFF874314FF440741C60DFF86C3147
S11347304FF440741C600DE0DFF86431984209D1F5
S1134740DFF860314FF440741C60DFF85C314FF4E3
S113475040741C60DFF80C31984208D1DFF84C310A
S11347601B6853F48063DFF8444123603BE0DFF8C7
S11347700031984208D1DFF834311B6853F40063E8
S1134780DFF8284123602EE0DFF8F030984208D1AA
S1134790DFF818311B6853F48053DFF810412360AD
S11347A021E0DFF8E430984208D1DFF800311B68DB
S11347B053F40053DFF8F440236014E0DFF8D430FE
S11347C0984208D1DFF8E8301B6853F48063DFF8BF
S11347D0E040236007E0DFF8D8301B6853F400633F
S11347E0DFF8CC402360C37813F0F303C3700023D5
S11347F083701C4B984208D000231D4CA04204D067
S113480053F00003DBB2002B00D049184FF47A7345
S113481003FB01F31401B3FBF4F3047814F0E00494
S11348209BB21D0A15F01F052C43047043704FF40E
S1134830FA4461431201B1FBF2F19BB2B1EB4311B3
S1134840827A12F0E00411F01F0121438172C178D1
S113485051F00C01C17030BC704702791206FCD5CE
S1134860C171704700A0064018C004401CC0044039
S113487000B0064010B004400CB0044000C0064034
S11348800CC0044008C0044000D0064044B00440BA
S113489040B0044000A00E4060D0044064D0044006
S11348A000B00E4020D0044024D0044034800440A2
S11348B02880044030B40023DFF8202612684FF427
S11348C07A7462438A4201D200209EE0802303FB73
S11348D001F3B2FBF3F44FF6FF739C4280F01781AF
S11348E00723C0B2002840F09280DFF8F4552C6012
S11348F0402404FB01F4B2FBF4F44FF6FF75AC4220
S113490060D20623C0B2002840F09180DFF8D05571
S11349102C604C01B2FBF4F44FF6FF75AC4251D25B
S11349200523C0B2002840F09280DFF8B4552C6013
S11349300C01B2FBF4F44FF6FF75AC4242D20423EF
S1134940C0B2002840F09380DFF894552C60CC006E
S1134950B2FBF4F44FF6FF75AC4233D20323C0B27A
S1134960002840F09480DFF878552C608C00B2FB6E
S1134970F4F44FF6FF75AC4224D20223C0B20028EF
S113498040F09580DFF858552C604C00B2FBF4F4ED
S11349904FF6FF75AC4215D20123C0B2002840F097
S11349A09680DFF83C552C60B2FBF1F44FF6FF71B2
S11349B08C4207D20023C0B2002840F09880DFF870
S11349C020150C60C0B2002840F0A380DFF8140565
S11349D0006850F08070DFF80C150860DBB213F04B
S11349E0070050F00800DFF800150860DFF8FC0449
S11349F000210160DFF8F80400210160DFF8F4040D
S1134A00DFF8DC1409680160012030BC7047C0B2D3
S1134A10012803D1DFF8E0542C6069E7C0B2022812
S1134A2003D1DFF8D8542C6062E70020EDE7C0B270
S1134A30012803D1DFF8C0542C606AE7C0B2022811
S1134A4003D1DFF8B8542C6063E70020DDE7C0B27F
S1134A50012803D1DFF8A0542C6069E7C0B2022812
S1134A6003D1DFF898542C6062E70020CDE7C0B290
S1134A70012803D1DFF880542C6068E7C0B2022813
S1134A8003D1DFF878542C6061E70020BDE7C0B2A1
S1134A90012803D1DFF860542C6067E7C0B2022814
S1134AA003D1DFF858542C6060E70020ADE7C0B2B2
S1134AB0012803D1DFF840542C6066E7C0B2022815
S1134AC003D1DFF838542C605FE700209DE7C0B2C3
S1134AD0012803D1DFF820542C6065E7C0B2022816
S1134AE003D1DFF818542C605EE700208DE7C0B2D4
S1134AF0012803D1DFF800140C6063E7C0B2022878
S1134B0003D1DFF8F8130C605CE700207DE7002098
S1134B107BE7C0B201281ED1DFF8C803006850F05B
S1134B200070DFF8C0130860DBB213F0070050F028
S1134B300800DFF8CC130860DFF8C8030021016027
S1134B40DFF8C40300210160DFF8C003DFF8A81315
S1134B500968016058E7C0B202281ED1DFF8B0032B
S1134B60006850F08070DFF8A8130860DBB213F01F
S1134B70070050F00800DFF89C130860DFF8980382
S1134B8000210160DFF8940300210160DFF8900345
S1134B90DFF868130968016036E7002035E718B4C8
S1134BA042F211739A4201D3002066E0C0B2002899
S1134BB065D1DFF82C331B680093009B5B1C5A43C0
S1134BC042F21073B2FBF3F2C0B2002828D1C9B28A
S1134BD00B00002B022B05D9DB1E6CD05B1E032BB4
S1134BE079D985E0DFF83C331B684FF40074234324
S1134BF0DFF830432360C9B28B0003F1804313F51F
S1134C0092234FF44074DC60C9B2DFF81C332824CB
S1134C1043F83140C9B2DFF8103313EBC1035A60D3
S1134C20C0B2012818D1C9B2002963D1BD4B1B6899
S1134C3053F48063BB4C2360C9B2BC4B4FF4407443
S1134C4043F82140C9B2BA4B282443F83140C9B2D1
S1134C50B74B13EBC1035A60C0B202280CD1C9B2DE
S1134C60002949D1C9B2B348282340F83130C9B228
S1134C70B04810EBC1004260012012BC7047C0B2C2
S1134C80012809D1009B9C4C2468A34201D1012333
S1134C9000E00023DBB290E7C0B2022809D1009BF8
S1134CA0964C2468A34201D1012300E00023DBB227
S1134CB083E70020E1E79B4B1B6853F40063994CA6
S1134CC02360C9B28B0003F1804313F596234FF49C
S1134CD080645C6098E7934B1B6853F48053914C59
S1134CE02360C9B2944B4FF4806443F821408BE7AE
S1134CF00020C2E70020C0E70020BEE718B442F25B
S1134D0011739A4201D3002019E0C0B2002818D1CF
S1134D10734B1B680093009B5B1C5A4342F2107355
S1134D20B2FBF3F2C0B200282FD1C9B2002903D0DC
S1134D30022925D021D326E080480260012012BC3C
S1134D407047C0B2012809D1009B6B4C2468A34270
S1134D5001D1012300E00023DBB2DCE7C0B202286A
S1134D6009D1009B654C2468A34201D1012300E0D2
S1134D700023DBB2CFE70020E1E771480260DDE702
S1134D8070480260DAE70020D9E7C0B2012805D1F3
S1134D90C9B2674810EBC1004260CFE7C0B2022835
S1134DA005D1C9B2634810EBC1004260C6E70020D8
S1134DB0C5E780B50023012209216348FFF71EFCE3
S1134DC05848006850F400605649086057484FF44A
S1134DD0507101604348006850F000704149086018
S1134DE05348006850F00800514908605048006872
S1134DF030F004004E4908604D48006850F020002F
S1134E004B4908603E48292101605048006850F031
S1134E1004004E4908604D480068400840004B4972
S1134E2008604B48FE2101604A48002101604A485D
S1134E3000210160494800210160494800210160C6
S1134E404848006840084000464908604648002138
S1134E5001604648002101604548002101602A485C
S1134E6000210160294840F2E241016041480021EB
S1134E70016024480021016001BD2548006850F00C
S1134E808070234908603C484FF4C06101603B488E
S1134E904FF4C06101603A48006850F0040038499A
S1134EA008603848006850F00800364908601B481C
S1134EB0002101601A484FF6FF7101603148006813
S1134EC050F001002F4908602D48006850F001009F
S1134ED02B49086010480021016070472807FF1F14
S1134EE01407FF1F3C8004400080034004800340FB
S1134EF04C800340088003401807FF1F1C07FF1F56
S1134F0000900340049003404C90034008900340F9
S1134F103080044000800B4004800B404C800B40E8
S1134F2008800B40388004400C80034000A00440FB
S1134F300C9003400C800B4000C0044010800340E0
S1134F40188003402080034040F00F4054900340F9
S1134F5060900340649003405C9003406C90034075
S1134F6070900340809003409090034094900340DD
S1134F70989003401090034048A004404CA0044083
S1134F8054800B4080800B402649096808607047B4
S1134F90244B1B68986023480068C160214800685E
S1134FA00261704710B51F4909680968081A1E494B
S1134FB008601D48006800F03BFA1A4909688968CE
S1134FC0FEF7FCF8040017480068406900F030FA66
S1134FD014490968C968FEF7F1F80100200000F0DF
S1134FE081FA04000F480068806900F021FA0D4935
S1134FF009680969FEF7E2F8210000F031FAFEF7CA
S113500049F90A4908600748006806490968496976
S113501081610448006804490968416103480068E3
S113502010BD00001004FF1FDC04FF1FE004FF1F7D
S11350302A4A126852F40002284B1A60284A12685D
S113504032F00202264B1A60254A126852F001021D
S1135050234B1A60C0B20201224BD150C0B2214985
S113506011EB0011896851F00101C0B21D4A12EB25
S113507000129160C0B21B4911EB0011896831F034
S11350800201C0B2174A12EB00108160704780B56C
S1135090C0B2144911EB0011896851F00201C0B289
S11350A0104A12EB00129160C0B2002805D0022809
S11350B00BD006D303280CD00EE0442000F007FBED
S11350C00AE0452000F003FB06E0462000F0FFFA6A
S11350D002E0472000F0FBFA01BD00003C800440E0
S11350E00070034000710340841A71EB030604D27C
S11350F06E40001BB141121973414FF4001C1CEBAC
S1135100410F34BF7CEB430684E00C0DA4EB135633
S1135110362E7DDC012E43DC45EAC32343EA525399
S113512012BFD20292025B08240545EAC12141EA7A
S11351305051D2EBC020994125D407D1B0FA80F662
S113514010FA06F164D00020203608E0B1FA81F6A6
S1135150B140C6F1200220FA02F21143B0404FEAF6
S1135160F474B4EB465434F001064FEA74040AD8DC
S1135170D6F50016760D04F00044F04061FA06F20C
S11351805040F1404840C00A40EA415021F00041FB
S113519028BF5FEA500550F1000044EBD12137E00D
S11351A045EAC323DB0A45EAC121C90AB6F1200551
S11351B00EDD42EA0242120CC5F1200603FA06F69D
S11351C0EB4042EA06056D42984161F100010DE0B1
S11351D062FA06F5F240554063FA06FC82EA0C02D4
S11351E0F3405A406D42904161EB030111F4801F7A
S11351F005D1641E620502D06D004041494121F48D
S11352008011430875F1004350F1000041EB045153
S113521070BC70471CEB410F15D223F0004352EAD7
S113522043060BD04FEA4C0CBCEB410F04D80C0DD9
S1135230661E342EB7DDEBE7801A994150EA410629
S113524008BF0021E4E708BF1CEB430F28BF6FF041
S11352500001DDE7002810D16D48006850F00060BF
S11352606B4908606B48006830F090006949086039
S11352706848002101600120704701280FD1664869
S1135280006850F00060644908606248006830F4C7
S11352901040604908605F4800210160EBE700208E
S11352A0EAE738B505000024D2B2280000F01EF861
S11352B0002D0CD1594800680006FBD558480468F5
S11352C05648006830F08000544908600BE05548A7
S11352D000680006FBD5544804685248006830F062
S11352E0800050490860200080B232BD10B50C0027
S11352F00021D2B2082A06D00A2A08D00C2A04D0E7
S1135300102A06D007E0002106E0012104E0022172
S113531002E0032100E00021890011F00C0151F0AA
S11353205001424A1170414904224A703F4941F2F6
S113533034224A803D4945F278628A8000282AD185
S1135340042C0BDA14F01F0050F0400037490872A7
S11353503649324800F048F8012010BD201F1428B7
S11353600AD214F01F0050F04000304908722F494F
S11353702A4800F039F8EFE71A2C0AD114F01F007C
S113538050F04000294908722849244800F02CF8BC
S1135390E2E70020E1E7042C09DA14F01F0050F0E2
S11353A040002249087221491C4800F01DF8201FC2
S11353B014280AD214F01F0050F040001B49087250
S11353C01A49184800F010F8C6E71A2C0AD114F04C
S11353D01F0050F04000154908721449114800F0AC
S11353E003F8B9E70020B8E70A7882604A78C26017
S11353F04A8882618A88C2618A790262CA79426271
S1135400CA6802650A7A0260497A416070470000FE
S11354103C800440188004403080044000B00340C5
S113542010B0034000B00B4010B00B40E404FF1F69
S1135430002840F10780F446404200F003F850F0A1
S1135440004060470AD0B0FA80F18840D1F19D0154
S1135450C905020672F1004241EB102070470000BA
S113546090EA010F44BF81F0004100F043B800BF4F
S1135470421A3CBF801A89184FF0004CC0F3C7523F
S1135480FF2A24D0C1F3C75313B3D21AD2F119039C
S113549027DD4CEA01214CFA03F321EA0303D1404E
S11354A0C20D4CEA0020401834BF20EA0C004CEA3C
S11354B05000D20553EA006373EB0C0C52EB10203E
S11354C0420012F1807F38BF7047C00DC00570479D
S11354D0490212BF9A4200EB5120F8E7D2F11703B8
S11354E0D9D5704790EA010F44BF81F00041FFF71E
S11354F0BFBF00BF431A4FF000423EBF5340C01A23
S1135500C91800BFD3095FEAD05C13EB400F34BF66
S1135510B3EB410F40E07CEBD1530CD342EA0121C1
S113552022D8D1EB402009D3400A28BF5FEA5001BA
S113553040EBCC507047401A15D04002B0FA80F2CC
S1135540521C9040400A4FEA3C23B3EB026384BFF1
S113555000EB730007E040F400001A16DB07C2F109
S11355600102D04018437047182BFCDC31FA03F2D7
S113557002FA03F3591A38BF42F00102D2EB402079
S11355803CBF4000ACF1010C5FEACC5CC20572F197
S113559000414CEB5020704713EB400F0FD24B00EF
S11355A009D0ACEBD153022B03DB4902172BDDDD11
S11355B070479143401A4300D5D10020704713EB44
S11355C0410FD0D36FF000007047000010B5FF23E7
S11355D013EAD0541DBF13EAD1529C429A4239E0D7
S11355E0A41ADA0780EA0103134042EA012142EADD
S11355F00020421A3CBF641E01EB4202090AB2FBBE
S1135600F1FE01FB1E221202B2FBF1F001FB10229B
S11356106EF30F201202B2FBF1FE4EEA00207F343B
S113562006DDFE2C24DA53EA500050EBC45010BDC2
S1135630D4F1020401FB1E2240F08071192C1DDC00
S113564021FA04F0C4F12004A140114371F1004295
S1135650584110BD9C421ABF03EAD1529A420FE04E
S113566080EA010E0EF00043400004D0490016D138
S113567043F0FF4010BD490008BFD343180010BDDC
S11356809C4205D1D21AF7D001F00041484010BD28
S11356904A0212BF0846484000F0004010BD4AB913
S11356A00902B1FA81F2914044B1A418C00140F05A
S11356B000409EE7C90141F0004152420002B0FAA5
S11356C080F4A040141B94E72549086070475C28C7
S11356D000DB5B20202190FBF1F1002903D002299B
S11356E029D014D33AE00121202290FBF2F303FBEA
S11356F0120399401B4A11600121202290FBF2F30E
S113570003FB120311FA03F01749086026E0012194
S1135710202290FBF2F303FB12039940134A116019
S11357200121202290FBF2F303FB120311FA03F090
S11357300F49086012E00121202290FBF2F303FBE1
S1135740120399400B4A11600121202290FBF2F3CD
S113575003FB120311FA03F00749086070470000C5
S113576008ED00E080E200E000E100E084E200E017
S113577004E100E088E200E008E100E0000000004D
S1135780000000000000000000000000000000F81D
S113579000000000000000333000000000100C0680
S11357A0100C0600000000000000000040C078401B
S11357B0C0784000043F04043F040400007088FCE7
S11357C008300000001820FF211E0000F008F0003F
S11357D0E018000000211C031E211E0000F00888B0
S11357E0700000001E2123241927211010160E001A
S11357F0000000000000000000000000000000E0C5
S113580018040200000000071820400000020418D9
S1135810E00000000040201807000000404080F035
S1135820804040000202010F01020200000000F06B
S1135830000000000101011F01010100000000003F
S11358400000000080B070000000000000000000B4
S1135850000000000001010101010101000000003D
S113586000000000003030000000000000000000D4
S113587080601804006018060100000000E01008B1
S11358800810E000000F102020100F00001010F886
S1135890000000000020203F2020000000700808C5
S11358A00888700000302824222130000030088845
S11358B0884830000018202020110E000000C0206D
S11358C010F8000000070424243F240000F808888E
S11358D0880808000019212020110E0000E010881B
S11358E088180000000F112020110E00003808084D
S11358F0C83808000000003F00000000007088085D
S113590008887000001C222121221C0000E01008DD
S11359100810E0000000312222110F00000000C036
S1135920C0000000000000303000000000000080D3
S113593000000000000080600000000000008040C3
S113594020100800000102040810200040404040DC
S1135950404040000404040404040400000810202F
S11359604080000000201008040201000070480874
S11359700808F0000000003036010000C030C828DC
S1135980E810E0000718272423140B000000C03897
S1135990E0000000203C23020227382008F8888811
S11359A088700000203F202020110E00C03008081D
S11359B008083800071820202010080008F80808F4
S11359C00810E000203F202020100F0008F88888ED
S11359D0E8081000203F20202320180008F88888B9
S11359E0E8081000203F200003000000C030080831
S11359F00838000007182020221E020008F80800BA
S1135A000008F808203F210101213F20000808F880
S1135A10080800000020203F2020000000000808A3
S1135A20F8080800C08080807F00000008F888C063
S1135A3028180800203F20012638200008F8080014
S1135A4000000000203F20202020300008F8F8004B
S1135A50F8F80800203F003F003F200008F830C05D
S1135A600008F808203F200007183F00E01008084D
S1135A700810E0000F10202020100F0008F808087C
S1135A800808F000203F210101010000E01008088F
S1135A900810E0000F18242438504F0008F88888B4
S1135AA088887000203F2000030C30200070880894
S1135AB0080838000038202121221C00180808F8A2
S1135AC0080818000000203F2000000008F8080023
S1135AD00008F808001F202020201F0008788800F4
S1135AE000C83808000007380E010000F80800F864
S1135AF00008F800033C0700073C0300081868800E
S1135B008068180820302C03032C30200838C80083
S1135B10C83808000000203F2000000010080808D2
S1135B20C83808002038262120201800000000FE74
S1135B30020202000000007F40404000000C30C020
S1135B4000000000000000010638C000000202024C
S1135B50FE000000004040407F00000000000402FE
S1135B600202040000000000000000000000000029
S1135B700000000080808080808080800002020419
S1135B800000000000000000000000000000808011
S1135B90808000000019242222223F2008F800807F
S1135BA080000000003F112020110E000000008042
S1135BB080800000000E11202020110000000080D1
S1135BC08088F800000E112020103F200000808003
S1135BD080800000001F222222221300008080F017
S1135BE0888888180020203F202000000000808042
S1135BF080808000006B94949493600008F8008087
S1135C0080800000203F210000203F2000809898E1
S1135C10000000000020203F202000000000008041
S1135C209898000000C08080807F000008F8000081
S1135C3080808000203F24022D302000000808F8D6
S1135C40000000000020203F202000008080808091
S1135C5080808000203F20003F20003F8080008023
S1135C6080800000203F210000203F200000808031
S1135C7080800000001F202020201F0080800080E2
S1135C808000000080FFA12020110E000000008091
S1135C9080808000000E112020A0FF808080800082
S1135CA08080800020203F212000010000008080AF
S1135CB0808080000033242424241900008080E0A4
S1135CC0808000000000001F202000008080000071
S1135CD000808000001F202020103F208080800052
S1135CE00080808000010E30080601008080008062
S1135CF0008080800F300C030C300F000080800087
S1135D00808080000020312E0E31200080808000B1
S1135D100080808080818E70180601000080808061
S1135D20808080000021302C2221300000000000FF
S1135D30807C020200000000003F404000000000A0
S1135D40FF00000000000000FF0000000002027CD1
S1135D50800000000040403F0000000000060101F8
S1135D60020204040000000000000000DFF800F05C
S1135D707504FF1F80B57348006850F4785071496A
S1135D8008601021052000F02FF86F4908606E4864
S1135D9000684FF47A7148436C4908606B480068A6
S1135DA06B490968C1F30361491CB0FBF1F069490F
S1135DB0086000F003F800F00CF801BD66480068C4
S1135DC050F480506449086064484FF4E061016015
S1135DD070476348006850F00100614908606148F9
S1135DE04FF4A0610160704780B50A00C0B2092871
S1135DF001D30020A4E0D2B2112A01D301209FE0F4
S1135E00594A00231370594A126852F08052574B72
S1135E101A60574A127852F08002554B1A70554A4C
S1135E2098231370544A1278D206FBD4524A12783B
S1135E30C2F38102D2B2022AF8D1504A0E2313705F
S1135E404F4A00231370C0B200280BD002281FD081
S1135E5013D3042832D026D3062845D039D30728B3
S1135E604DD056E00123002200210020FFF77EFFE1
S1135E7043484121017032214BE0032301220121D7
S1135E800020FFF773FF3E485A210170642140E06F
S1135E900323012201210020FFF768FF384858211D
S1135EA00170782135E00123002200210020FFF752
S1135EB05DFF33484021017030212AE0052302228E
S1135EC002210020FFF752FF2D484F210170962137
S1135ED01FE00723022202210020FFF747FF284882
S1135EE05E210170B42114E0072302220221002064
S1135EF0FFF73CFF22485E210170CF2109E008230F
S1135F00022202210020FFF731FF1D485E210170AB
S1135F10E121194800788006FBD51748007840062F
S1135F20FBD51448007810F03F00124A1070124854
S1135F300078C0F38100C0B20328F8D10800C0B2D1
