S021000050452056312E3420323031342E30352E3031207368616368652E73726563D0
S1130000F8FF002011040000A7430000A7430000EC
S1130010A7430000A7430000A7430000A743000034
S1130020A7430000A7430000A7430000A743000024
S1130030A7430000A7430000A7430000A743000014
S1130040A7430000A7430000A7430000A743000004
S1130050A7430000A7430000A7430000A7430000F4
S1130060A7430000A7430000A7430000A7430000E4
S1130070A7430000A7430000A7430000A7430000D4
S1130080A7430000A7430000A7430000A7430000C4
S1130090A7430000A7430000A7430000A7430000B4
S11300A0A7430000A7430000A7430000A7430000A4
S11300B0A7430000A7430000A7430000A743000094
S11300C0A7430000A7430000A7430000A743000084
S11300D0A7430000A7430000A7430000A743000074
S11300E0A7430000A7430000A7430000A743000064
S11300F0A7430000A7430000A7430000A743000054
S1130100A7430000A7430000A7430000A743000043
S1130110A7430000A7430000A7430000A743000033
S1130120A7430000A7430000A7430000A743000023
S1130130A7430000A7430000A7430000A743000013
S1130140A7430000A7430000A7430000A743000003
S1130150A95C0000A7430000A7430000A7430000D8
S1130160A7430000A7430000A7430000A7430000E3
S1130170A7430000A7430000A7430000A7430000D3
S1130180A7430000A7430000A7430000A7430000C3
S1130190A7430000A7430000A7430000A7430000B3
S1130400FFFFFFFFFFFFFFFFFFFFFFFFFEFFFFFFF9
S11304104FF000004FF000014FF000024FF00003D6
S11304204FF000044FF000054FF000064FF00007B6
S11304304FF000084FF000094FF0000A4FF0000B96
S11304404FF0000C62B605F0B7FCFEE738B50024A7
S11304500025DFF8C417002003E000220A70491CBD
S1130460401CC0B28A28F8D302F034F8DFF8AC2775
S11304700021002002F0ADFADFF8A42700213C207F
S113048002F0A7FADFF89C270221002002F0A1FA6B
S1130490DFF894270421002002F09BFADFF88C2770
S11304A004213C2002F095FADFF88427062100207D
S11304B002F08FFA02F050FB02F08EFBDFF87417A3
S11304C008706E2002F010FDDFF86807007801283C
S11304D040F0A080DFF85C07FF210170DFF85807C7
S11304E00121017002F04DF98CE0D4A2002100201A
S11304F002F06FFADFF844070068DFF8F01D02F03D
S113050017FD02F081FD80B2020000213C2002F0C0
S1130510B4FAECA20221002002F05BFADFF8302EDC
S113052002213C2002F055FAE7A20421002002F047
S113053050FADFF8202E04213C2002F04AFAEAA205
S11305400621002002F045FADFF80C2E06213C209B
S113055002F03FFA6E2002F0C7FC02F0FDFA02F04E
S11305603BFBDFF8F81D0870DFF8F00D0078FF287A
S113057005D0DFF8C006DFF8E41D09780170DFF864
S1130580B4060078072813D1DFF8B006006802F03B
S11305905DFDDFF81C2EDFF81C3E02F08FFD02F03B
S11305A001FEDFF898160860DFF88806FF21017065
S11305B0DFF880060078082813D1DFF88006006889
S11305C002F044FDDFF8E82DDFF80C3E02F076FD82
S11305D002F0E8FDDFF864160860DFF85806FF2132
S11305E00170DFF85006007809280BD1DFF84806BF
S11305F0FF210170DFF83C06FF210170DFF85C0D7C
S1130600FF210170DFF83006007801283FF46DAF58
S113061002F0B7F8DFF81C060078022840F09C804E
S1130620DFF81006FF210170DFF80C0602210170CB
S113063002F0A7F888E06E2002F056FC02F08CFA73
S113064002F0CAFADFF8141D0870DFF8100D007804
S1130650FF2805D0DFF8DC05DFF8001D09780170FC
S1130660DAA20021002002F0B4F9DFF8D405006812
S1130670DFF8781C02F05CFC02F0C6FC80B20200D9
S113068000213C2002F0F9F98EA20221002002F0A0
S1130690A0F9DFF8A82D02213C2002F09AF98AA2E1
S11306A00421002002F095F9DFF8942D04213C2068
S11306B002F08FF98CA20621002002F08AF9DFF8FB
S11306C0842D06213C2002F084F9DFF868050078C7
S11306D0072813D1DFF86805006802F0B7FCDFF8DB
S11306E0D02CDFF8D03C02F0E9FC02F05BFDDFF82F
S11306F050150860DFF83C05FF210170DFF8340570
S11307000078082813D1DFF83805006802F09EFC51
S1130710DFF89C2CDFF8C03C02F0D0FC02F042FD74
S1130720DFF81C150860DFF80C05FF210170DFF805
S113073004050078092807D1DFF8FC04FF210170C3
S1130740DFF8F004FF210170DFF8EC0400780228E0
S11307503FF471AF02F015F8DFF8D80400780328ED
S113076040F08780DFF8CC04FF210170DFF8C80473
S11307700321017002F005F874E06E2002F0B4FB6E
S113078002F0EAF902F028FADFF8D01B0870DFF86B
S1130790CC0B0078FF2805D0DFF89804DFF8BC1BE9
S11307A009780170DFF8A02C0021002002F011F973
S11307B0DFF8980CB0F9002000213C2002F05DF92C
S11307C040A20221002002F004F9DFF8702C02217B
S11307D03C2002F0FEF83CA20421002002F0F9F8CB
S11307E0DFF85C2C04213C2002F0F3F83EA2062141
S11307F0002002F0EEF8DFF84C2C06213C2002F039
S1130800E8F8DFF83004007807280AD1DFF83C0C58
S11308100088401DDFF8341C0880DFF81804FF212D
S11308200170DFF81004007808280ED1DFF81C0CE2
S11308300088401FDFF8141C02E000BF4B703A0030
S11308400880DFF8F003FF210170DFF8E803007887
S1130850092807D1DFF8E003FF210170DFF8D40392
S1130860FF210170DFF8D0030078032885D001F060
S113087088FFDFF8C0030078042840F08380DFF8A5
S1130880B403FF210170DFF8B0030421017001F00B
S113089078FF71E06E2002F027FB02F05DF902F0B0
S11308A09BF9DFF8B81A0870DFF8B00A0078FF285F
S11308B005D0DFF88003DFF8A41A09780170DFF8A7
S11308C0902B03E02B3A00002D3A00000021002079
S11308D002F07FF8DFF87C0BB0F9002000213C2007
S11308E002F0CBF8C9A201E052653A0002210020CF
S11308F002F06FF8DFF8442B02213C2002F069F883
S1130900C3A20421002002F064F8DFF8342B042190
S11309103C2002F05EF8BFA20621002002F059F844
S1130920DFF8202B06213C2002F053F8C148007860
S1130930072809D1DFF81C0B0088401DDFF8141BC1
S11309400880BC48FF210170BA480078082809D102
S1130950DFF8000B0088401FDFF8F81A0880B5485C
S1130960FF210170B3480078092805D1B248FF215E
S11309700170B048FF210170AF480078042889D085
S113098001F0FFFEAB48007805287AD1A948FF2181
S11309900170A9480521017001F0F3FE6BE06E209F
S11309A002F0A2FA02F0D8F802F016F9DFF8AC1956
S11309B00870DFF8A8090078FF2804D09D48DFF804
S11309C09C1909780170DFF8902A01E04B643A0021
S11309D00021002001F0FDFFDFF8800AB0F90020BB
S11309E000213C2002F049F888A20221002001F0F5
S11309F0F0FFDFF8482A02213C2001F0EAFF84A23C
S1130A000421002001F0E5FFDFF8342A04213C2012
S1130A1001F0DFFF7FA20621002001F0DAFFDFF8FA
S1130A20242A06213C2001F0D4FF824800780728BC
S1130A3009D1DFF8280A0088401DDFF8201A088051
S1130A407C48FF2101707B480078082809D1DFF831
S1130A500C0A0088401FDFF8041A08807548FF213B
S1130A60017074480078092805D17348FF2101708A
S1130A707048FF2101707048007805288FD001F07C
S1130A8080FE6C480078062877D16A48FF210170FF
S1130A9069480621017001F074FE68E06E2002F0DE
S1130AA023FA02F059F802F097F8DFF8B01808704A
S1130AB0DFF8A8080078FF2804D05E48DFF89C1807
S1130AC009780170DFF898290021002001F081FFE6
S1130AD0DFF89009B0F9002000213C2001F0CDFF9F
S1130AE04AA20221002001F074FFDFF850290221FC
S1130AF03C2001F06EFF46A20421002001F069FFB2
S1130B00DFF83C2904213C2001F063FF41A20621C7
S1130B10002001F05EFFDFF82C2906213C2001F0C3
S1130B2058FF44480078072809D1DFF838090088BD
S1130B30401DDFF8301908803E48FF2101703D4810
S1130B400078082809D1DFF81C090088401FDFF865
S1130B50141908803748FF210170364800780928A5
S1130B6005D13548FF2101703248FF210170324818
S1130B700078062892D001F004FE2E4800780A2856
S1130B807FF474AC2B48FF21017001F0FAFD4FF49F
S1130B90FA7002F0A9F9DFF8D0280021002001F052
S1130BA018FFDFF8C8280221002001F012FFDFF847
S1130BB0C0280421002001F00CFFDFF8B828002130
S1130BC0462001F006FFDFF8B0280221462001F09C
S1130BD000FFDFF8A8280421462001F0FAFE01F006
S1130BE0BBFF01F0F9FF134908706E2002F07CF995
S1130BF010480078012840F0BB800E48FF210170A6
S1130C000D480121017001F0BCFDA9E02B3A000060
S1130C102D3A000052653A009406FF1F3860000028
S1130C204060000048600000506000005860000010
S1130C30606000006E04FF1F7004FF1F2804FF1F84
S1130C403004FF1FDFF838280021002001F0C1FE26
S1130C50DFF830080068DFF8941602F069F902F052
S1130C60D3F980B2020000213C2001F006FFD7A294
S1130C700221002001F0ADFEDFF8D42602213C2041
S1130C8001F0A7FED2A20421002001F0A2FEDFF8A9
S1130C90C42604213C2001F09CFECEA206210020A3
S1130CA001F097FEDFF8B02606213C2001F091FE0A
S1130CB06E2002F019F901F04FFF01F08DFFDFF80B
S1130CC09C160870DFF894060078FF2805D0DFF83A
S1130CD0B807DFF8881609780170DFF8AC070078E8
S1130CE0072813D1DFF89C07006802F0AFF9DFF89A
S1130CF0C026DFF8C03602F0E1F902F053FADFF85B
S1130D0084170860DFF88007FF210170DFF8780797
S1130D100078082813D1DFF86C07006802F096F910
S1130D20DFF88C26DFF8B03602F0C8F902F03AFAA0
S1130D30DFF850170860DFF85007FF210170DFF873
S1130D404807007809280BD1DFF84007FF2101701C
S1130D50DFF83407FF210170DFF80006FF2101707E
S1130D60DFF82807007801283FF46CAF01F009FD93
S1130D70DFF814070078022840F09D80DFF80807A8
S1130D80FF210170DFF804070221017001F0F9FC72
S1130D9089E06E2002F0A8F801F0DEFE01F01CFFED
S1130DA0DFF8B8150870DFF8B4050078FF2805D01F
S1130DB0DFF8D406DFF8A41509780170DFF8D0262F
S1130DC00021002001F005FEDFF8C8060068DFF806
S1130DD01C1502F0ADF802F017F980B202000021F0
S1130DE03C2001F04AFE79A20221002001F0F1FD2D
S1130DF0DFF8482602213C2001F0EBFD74A2042117
S1130E00002001F0E6FDDFF8382604213C2001F043
S1130E10E0FD70A20621002001F0DBFDDFF82426AE
S1130E2006213C2001F0D5FDDFF85C060078072898
S1130E3013D1DFF86006006802F008F9DFF87025C6
S1130E40DFF8703502F03AF902F0ACF9DFF8441635
S1130E500860DFF83406FF210170DFF82C06007803
S1130E60082813D1DFF82C06006802F0EFF8DFF849
S1130E704025DFF8643502F021F902F093F9DFF838
S1130E8014160860DFF80006FF210170DFF8F8058A
S1130E900078092807D1DFF8F405FF210170DFF895
S1130EA0E805FF210170DFF8E405007802283FF42B
S1130EB070AF01F066FCDFF8D0050078032840F03D
S1130EC0A580DFF8C405FF210170DFF8C005032108
S1130ED0017001F056FC91E06E2002F005F801F07B
S1130EE03BFE01F079FEDFF874140870DFF86C043F
S1130EF00078FF2805D0DFF89005DFF86014097842
S1130F000170DFF894250021002001F062FDDFF874
S1130F108C050068DFF8D41302F00AF802F074F8C4
S1130F2080B2020000213C2001F0A7FD27A202218B
S1130F30002001F04EFDDFF8042502213C2001F0E1
S1130F4048FD23A20421002001F043FDDFF8F02432
S1130F5004213C2001F03DFD1EA20621002001F0E9
S1130F6038FDDFF8E02406213C2001F032FDDFF8F3
S1130F7018050078072813D1DFF82005006802F06F
S1130F8065F8DFF82C24DFF82C3402F097F802F02F
S1130F9009F9DFF808150860DFF8EC04FF21017097
S1130FA0DFF8E404007808281BD1DFF8F0040068B7
S1130FB002F04CF8DFF8F823DFF81C3402F07EF876
S1130FC002F0F0F8DFF8D41406E000BF2B3A00007A
S1130FD02D3A000052653A000860DFF8AC04FF21A6
S1130FE00170DFF8A4040078092807D1DFF89C0415
S1130FF0FF210170DFF89004FF210170DFF88C04F9
S1131000007803283FF468AF01F0BBFBDFF87804F5
S11310100078042840F09580DFF86C04FF2101700B
S1131020DFF868040421017001F0ABFB81E06E205D
S113103001F05AFF01F090FD01F0CEFDC7490870A0
S1131040C6480078FF2804D0DFF83C04C349097877
S11310500170DFF8382D0021002001F0BAFCDFF820
S1131060300D0068A14901F063FF01F0CDFF80B2AB
S1131070020000213C2001F000FDCCA2022100204E
S113108001F0A7FCDFF8B42302213C2001F0A1FC0D
S1131090D0A20421002001F09CFCDFF8A423042149
S11310A03C2001F096FCCDA20621002001F091FC29
S11310B0DFF8902306213C2001F08BFCDFF8C80305
S11310C00078072811D1DFF8C80C006801F0BEFFD2
S11310D0B74AB84B01F0F2FF02F064F8DFF8B01C35
S11310E00860DFF8A403FF210170DFF89C03007897
S11310F0082811D1DFF8980C006801F0A7FFAC4A6A
S1131100B54B01F0DBFF02F04DF8DFF8841C0860FA
S1131110DFF87403FF210170DFF86C0300780928FD
S113112007D1DFF86803FF210170DFF85C03FF21BA
S11311300170DFF85803007804283FF478AF01F019
S113114020FBD1480078052840F08680CE48FF2156
S11311500170CE480521017001F013FB76E06E208A
S113116001F0C2FE01F0F8FC01F036FD7B49087085
S11311707A480078FF2803D0C34878490978017079
S1131180DFF8102C0021002001F023FCDFF8080C0C
S11311900068564901F0CCFE01F036FF80B202002F
S11311A000213C2001F069FC80A20221002001F012
S11311B010FCA24A02213C2001F00BFC85A2042170
S11311C0002001F006FC9E4A04213C2001F001FCB1
S11311D082A20621002001F0FCFB9A4A06213C2051
S11311E001F0F7FBA8480078072810D1DFF8A80B16
S11311F0006801F02BFF6E4A6E4B01F05FFF01F0B7
S1131200D1FFDFF8941B08609F48FF2101709E48BE
S11312100078082810D1DFF8800B006801F016FF71
S1131220634A6D4B01F04AFF01F0BCFFDFF8681B15
S113123008609548FF21017093480078092805D17A
S11312409248FF2101709048FF2101708F48007877
S1131250052884D001F095FA8B480078062840F0E0
S113126094808948FF21017088480621017001F0AB
S113127088FA83E06E2001F037FE01F06DFC01F086
S1131280ABFC3649087035480078FF2803D07E4807
S1131290324909780170DFF8042B0021002001F0A5
S11312A098FBDFF8FC0A0068104901F041FE01F0E8
S11312B0ABFE80B2020000213C2001F0DEFB3BA229
S11312C00221002001F085FB5C4A02213C2001F050
S11312D080FB40A20421002001F07BFB584A04213A
S11312E03C2001F076FB3DA202E000BF000020415B
S11312F00621002001F06DFB524A06213C2001F03A
S113130068FB61480078072810D1DFF8940A006868
S113131001F09CFE264A274B01F0D0FE01F042FF6B
S1131320DFF87C1A08605848FF210170564800789D
S1131330082819D1DFF8680A006801F087FE1C4A02
S1131340254B01F0BBFE01F02DFFDFF8541A07E036
S11313506860000070600000786000006D04FF1F8A
S113136008604948FF21017047480078092805D1E1
S11313704648FF2101704448FF210170434800782A
S113138006283FF477AF01F0FCF93F4800780A28BB
S11313907FF4FDAB3C48FF21017001F0F2F94FF4FA
S11313A0FA7001F0A1FDDFF8FC2905E02B3A0000FA
S11313B09A9999999999B93F0021002001F009FB64
S11313C0DFF8E4290021462001F003FBDFF8DC29E3
S11313D006E000BF2D3A00009999B9BF52653A0062
S11313E00221002001F0F5FADFF8C42904210020CD
S11313F001F0EFFADFF8BC290421462001F0E9FAF4
S1131400DFF8B4290621002001F0E3FA01F0A4FB7F
S113141001F0E2FB1C4908706E2001F065FD1A48DA
S11314200078012840F0D2801748FF210170174846
S11314300121017001F0A5F9C0E000BF8060000047
S11314408860000090600000986000006404FF1F42
S1131450CC5F00006604FF1FD85F00006804FF1F14
S1131460A06000006A04FF1FA8600000B0600000D4
S1131470B8600000C0600000C8600000D0600000D8
S1131480D86000003804FF1F6E04FF1F7004FF1FA4
S1131490E06000003C04FF1FE86000004004FF1F00
S11314A0DFF85C2E0021002001F093FADFF8540EDF
S11314B00068DFF8541E01F03BFD01F0A5FD80B289
S11314C0020000213C2001F0D8FACBA20221002026
S11314D001F07FFADFF8342E02213C2001F079FA82
S11314E0E7A20421002001F074FADFF8242E04217D
S11314F03C2001F06EFAE3A20621002001F069FA13
S1131500DFF8102E06213C2001F063FA6E2001F072
S1131510EBFC01F021FB01F05FFBDFF8841E087097
S1131520DFF87C0E0078FF2805D0DFF8EC0DDFF83B
S1131530701E09780170DFF8E00D0078072813D1D8
S1131540DFF8C00D006801F081FDDFF8D02DDFF871
S1131550D03D01F0B3FD01F025FEDFF8A81D0860C1
S1131560DFF8B40DFF210170DFF8AC0D0078082816
S113157013D1DFF8900D006801F068FDDFF89C2DB1
S1131580DFF8A03D01F09AFD01F00CFEDFF8741DB8
S11315900860DFF8840DFF210170DFF87C0D00780E
S11315A009280BD1DFF8800DFF210170DFF8680DE9
S11315B0FF210170DFF8E80DFF210170DFF8680DED
S11315C0007801283FF46CAF01F0DBF8DFF8480D38
S11315D00078022840F09D80DFF83C0DFF21017067
S11315E0DFF8440D0221017001F0CBF889E06E2090
S11315F001F07AFC01F0B0FA01F0EEFADFF8A01D78
S11316000870DFF89C0D0078FF2805D0DFF8080D7E
S1131610DFF88C1D09780170DFF8102D00210020FF
S113162001F0D7F9DFF8080D0068DFF8DC1C01F0E1
S11316307FFC01F0E9FC80B2020000213C2001F0B3
S11316401CFA6DA20221002001F0C3F9DFF8E42C9A
S113165002213C2001F0BDF989A20421002001F0FF
S1131660B8F9DFF8D42C04213C2001F0B2F985A2AA
S11316700621002001F0ADF9DFF8C02C06213C2042
S113168001F0A7F9DFF8900C0078072813D1DFF8F0
S1131690A00C006801F0DAFCDFF8802CDFF8803C55
S11316A001F00CFD01F07EFDDFF8841C0860DFF81A
S11316B0680CFF210170DFF8600C0078082813D152
S11316C0DFF86C0C006801F0C1FCDFF8502CDFF887
S11316D0543C01F0F3FC01F065FDDFF8541C086094
S11316E0DFF8340CFF210170DFF82C0C0078092896
S11316F007D1DFF8340CFF210170DFF81C0CFF2147
S11317000170DFF8240C007802283FF470AF01F078
S113171038F8DFF8040C0078032840F08880DFF8FC
S1131720F80BFF210170DFF8000C0321017001F0B8
S113173028F875E06E2001F0D7FB01F00DFA01F0F6
S11317404BFADFF85C1C0870DFF8540C0078FF28B3
S113175005D0DFF8C40BDFF8481C09780170DFF806
S11317606C2D0021002001F034F9DFF8640DB0F98C
S1131770002092B200213C2001F07FF91EA2022138
S1131780002001F026F9DFF8AC2B02213C2001F007
S113179020F93BA20421002001F01BF9DFF8982B6B
S11317A004213C2001F015F936A20621002001F0A5
S11317B010F9DFF8882B06213C2001F00AF9DFF844
S11317C0580B007807280AD1DFF8040D0088401C64
S11317D0DFF8FC1C0880DFF8400BFF210170DFF804
S11317E0380B007808280ED1DFF8E40C0088401E7E
S11317F0DFF8DC1C02E000BF2B3A00000880DFF8B1
S1131800180BFF210170DFF8100B0078092807D1AD
S1131810DFF8140BFF210170DFF8FC0AFF210170CF
S1131820DFF8040B0078032884D000F0AAFFDFF867
S1131830E80A0078042840F0A280DFF8DC0AFF21DF
S11318400170DFF8E40A0421017000F09AFF8EE0D1
S11318506E2001F049FB01F07FF901F0BDF9DFF8DA
S1131860401B0870DFF8380B0078FF2805D0DFF83C
S1131870A80ADFF82C1B09780170DFF8E02C03E0DC
S11318802D3A000052653A000021002001F0A1F831
S1131890DFF8CC0C0068DFF8701A01F049FB01F0A6
S11318A0B3FB80B2020000213C2001F0E6F8DDA287
S11318B00221002001F08DF8DFF8782A02213C2073
S11318C001F087F8E9A20421002001F082F8DFF892
S11318D0682A04213C2001F07CF8E5A206210020BE
S11318E001F077F8DFF8542A06213C2001F071F862
S11318F0DFF8240A0078072813D1DFF8640C0068A5
S113190001F0A4FBDFF8142ADFF8143A01F0D6FB47
S113191001F048FCDFF8481C0860DFF8FC09FF21EF
S11319200170DFF8F4090078082813D1DFF8300CCF
S1131930006801F08BFBDFF8E429DFF8E83901F0F7
S1131940BDFB01F02FFCDFF8181C0860DFF8C809A4
S1131950FF210170DFF8C0090078092807D1DFF8FA
S1131960C809FF210170DFF8B009FF210170DFF819
S1131970B809007804283FF46BAF00F002FFDFF8E9
S113198098090078052840F09D80DFF88C09FF2134
S11319900170DFF894090521017000F0F2FE89E07E
S11319A06E2001F0A1FA01F0D7F801F015F9DFF883
S11319B0F0190870DFF8E8090078FF2805D0DFF88F
S11319C05809DFF8DC1909780170DFF8982B002139
S11319D0002000F0FEFFDFF8900B0068DFF8281904
S11319E001F0A6FA01F010FB80B2020000213C20B5
S11319F001F043F88BA20221002000F0EAFFDFF897
S1131A00342902213C2000F0E4FF98A204210020A4
S1131A1000F0DFFFDFF8202904213C2000F0D9FF8B
S1131A2093A20621002000F0D4FFDFF8102906213C
S1131A303C2000F0CEFFDFF8E0080078072813D13F
S1131A40DFF8240B006801F001FBDFF8D028DFF891
S1131A50D03801F033FB01F0A5FBDFF80C1B086064
S1131A60DFF8B408FF210170DFF8AC08007808281B
S1131A7013D1DFF8F40A006801F0E8FADFF89C28D3
S1131A80DFF8A03801F01AFB01F08CFBDFF8D81A5C
S1131A900860DFF88408FF210170DFF87C08007813
S1131AA0092807D1DFF88008FF210170DFF86808F2
S1131AB0FF210170DFF87008007805283FF470AF4B
S1131AC000F05FFEDFF850080078062840F08480BC
S1131AD0DFF84408FF210170DFF84C08062101708B
S1131AE000F04FFE71E06E2001F0FEF901F034F8D1
S1131AF001F072F8DFF8A8180870DFF8A40800787D
S1131B00FF2805D0DFF81008DFF894180978017071
S1131B10DFF85C2A0021002000F05BFFDFF8540AA4
S1131B20B0F9002092B200213C2000F0A6FF3DA2B3
S1131B300221002000F04DFFDFF8F82702213C20AD
S1131B4000F047FF49A20421002000F042FFDFF823
S1131B50E82704213C2000F03CFF45A20621002098
S1131B6000F037FFDFF8D42706213C2000F031FFD6
S1131B70DFF8A407007807280AD1DFF8F8090088FD
S1131B80401CDFF8F0190880DFF88C07FF21017092
S1131B90DFF88407007808280AD1DFF8D80900881C
S1131BA0401EDFF8D0190880DFF86C07FF210170B0
S1131BB0DFF864070078092807D1DFF86C07FF21F4
S1131BC00170DFF85407FF210170DFF85C0700782B
S1131BD0062888D000F0D5FDDFF83C0700780A28F5
S1131BE07FF4DDABDFF83007FF21017000F0C9FDA1
S1131BF04FF4FA7001F078F9DFF87C290021002015
S1131C0000F0E7FEDFF874290021462000F0E1FE31
S1131C10DFF86C290221002000F0DBFEDFF86429E4
S1131C2002E000BF2B3A00000221462000F0D1FE62
S1131C3000F092FF00F0D0FFDFF8DC1608706E2091
S1131C4001F052F9DFF8D0060078012840F08C80CA
S1131C50DFF8C406FF210170DFF8CC060121017012
S1131C6000F08FFD78E0DFF8202903E02D3A000032
S1131C7052653A000021002000F0ABFEDFF80C09A9
S1131C80027800213C2000F0F8FED8A202210020B6
S1131C9000F09FFEDFF8742602213C2000F099FE3C
S1131CA0D3A20421002000F094FEDFF8642604216E
S1131CB03C2000F08EFECFA20621002000F089FE19
S1131CC0DFF8502606213C2000F083FE6E2001F050
S1131CD00BF900F041FF00F07FFFDFF8C416087035
S1131CE0DFF8BC060078FF2805D0DFF82C06DFF803
S1131CF0B01609780170DFF82006007807280AD1A9
S1131D00DFF888080078401CDFF880180870DFF8D6
S1131D100806FF210170DFF80006007808280AD1C0
S1131D20DFF868080078401EDFF860180870DFF8F4
S1131D30E805FF210170DFF8E005007809280BD1E0
S1131D40DFF8E405FF210170DFF8CC05FF21017005
S1131D50DFF84C06FF210170DFF8CC05007801287C
S1131D603FF481AF00F00DFDDFF8AC0500780228E8
S1131D7040F0B680DFF8A005FF210170DFF8A80568
S1131D800221017000F0FDFCA2E000BFF060000041
S1131D904C04FF1FF86000005004FF1F00610000A6
S1131DA05404FF1F0861000010610000E45F00009C
S1131DB01861000020610000F05F00006E2001F057
S1131DC093F800F0C9FE00F007FFDFF8D41508709F
S1131DD0DFF8CC050078FF2805D0DFF83C05DFF8F4
S1131DE0C01509780170DFF8A8270021002000F051
S1131DF0F0FDDFF8A0070068DFF80C1501F098F893
S1131E0001F002F980B2020000213C2000F035FE0E
S1131E1076A20221002000F0DCFDDFF81825022163
S1131E203C2000F0D6FD72A20421002000F0D1FD78
S1131E30DFF8042504213C2000F0CBFD6DA206212F
S1131E40002000F0C6FDDFF8F42406213C2000F059
S1131E50C0FDDFF8C4040078072813D1DFF8340785
S1131E60006801F0F3F8DFF8B424DFF8B43401F0CB
S1131E7025F901F097F9DFF81C170860DFF89804DA
S1131E80FF210170DFF890040078082813D1DFF8EF
S1131E900407006801F0DAF8DFF88024DFF88434FE
S1131EA001F00CF901F07EF9DFF8E8160860DFF8BC
S1131EB06804FF210170DFF860040078092807D165
S1131EC0DFF86404FF210170DFF84C04FF21017086
S1131ED0DFF85404007802283FF470AF00F051FC9E
S1131EE0DFF834040078032840F09B80DFF82804EE
S1131EF0FF210170DFF830040321017000F041FC80
S1131F0088E06E2000F0F0FF00F026FE00F064FE92
S1131F10DFF88C140870DFF888040078FF2805D0F7
S1131F20DFF8F403DFF8781409780170DFF8682625
S1131F300021002000F04DFDDFF860060068DFF8A6
S1131F40C81300F0F5FF01F05FF880B20200002131
S1131F503C2000F092FD25A20221002000F039FD72
S1131F60DFF8D02302213C2000F033FD20A204211D
S1131F70002000F02EFDDFF8C02304213C2000F0F7
S1131F8028FD1CA20621002000F023FDDFF8AC236D
S1131F9006213C2000F01DFDDFF87C0300780728B3
S1131FA012D1DFF8F805006801F050F8DFF86C236F
S1131FB0DFF86C3301F082F801F0F4F8DFF8DC1597
S1131FC00860D548FF210170D3480078082817D14C
S1131FD0DFF8C805006801F039F8D04AD14B01F0A8
S1131FE06DF801F0DFF8DFF8B41505E02B3A0000D6
S1131FF02D3A000052653A000860C748FF2101707D
S1132000C5480078092805D1C748FF210170C24896
S1132010FF210170C448007803283FF472AF00F038
S1132020B0FBBD480078042840F08680BA48FF2100
S11320300170BD480421017000F0A3FB76E06E201E
S113204000F052FF00F088FD00F0C6FDD44908708E
S1132050D3480078FF2803D0AF48D14909780170EC
S1132060DFF83C250021002000F0B3FCDFF8340544
S11320700068A54900F05CFF00F0C6FF80B20200D2
S113208000213C2000F0F9FCADA20221002000F068
S1132090A0FCA84A02213C2000F09BFCA9A2042138
S11320A0002000F096FCA44A04213C2000F091FC9E
S11320B0A5A20621002000F08CFCA04A06213C20A9
S11320C000F087FC94480078072810D1DFF8D40486
S11320D0006800F0BBFF914A914B00F0EFFF01F064
S11320E061F8DFF8C01408608B48FF2101708A484A
S11320F00078082810D1DFF8AC04006800F0A6FFCF
S1132100864A884B00F0DAFF01F04CF8DFF89414AB
S113211008608148FF2101707F480078092805D1B3
S11321208148FF2101707C48FF2101707E480078BE
S1132130042884D000F025FB774800780A287FF42F
S113214057AD7548FF21017000F01BFBDFF8580400
S1132150007801282DD17DA20021002000F039FC57
S11321607AA200213C2000F034FC78A20221002055
S113217000F02FFC75A202213C2000F02AFC73A27F
S11321800421002000F025FC70A204213C2000F072
S113219020FC6EA20621002000F01BFC6BA206218D
S11321A03C2000F016FC40F24C4000F09DFE00F094
S11321B0E8FADFF8F40302210170DFF8F0030121EB
S11321C00180DFF8EC0301210180DFF8E8030078E7
S11321D00128BBD1DFF8DC0300210170641C20005E
S11321E0C0B2052804D30024DFF8CC0301F0B4FD09
S11321F0DFF8C40301F06EF901F096FADFF8BC03CE
S11322000088DFF8BC1309880818DFF8B0130880C9
S1132210DFF8B0030088DFF8B01309880818DFF886
S1132220A4130880DFF8A4030088DFF8A413098846
S11322300818DFF8981308806D1C280000B20F28D6
S113224084DB0025DFF87403B0F900000F2190FB54
S1132250F1F0DFF880130880DFF86803B0F90000BC
S11322600F2190FBF1F0DFF870130880DFF85C03B6
S1132270B0F900000F2190FBF1F0DFF86013088043
S1132280CE4800210180CF4800210180CF480021A1
S11322900180D2480088D0490988401AD049088072
S11322A0CC48B0F9002000210A2000F030FBCA48D5
S11322B0B0F9002002210A2000F029FBC748B0F938
S11322C000200221462000F022FB00F085FC344966
S11322D0087033480078FF2803D00F483049097844
S11322E001700D4800780C287FF430AF0A48FF21B4
S11322F001700D480C21017000F043FA43E000BF67
S1132300286100004404FF1F0000204168600000B1
S113231070600000786000006E04FF1F9A9999991C
S11323209999B93F9999B9BF7004FF1F30610000B2
S11323304804FF1F80600000886000009060000077
S11323402B3A00002D3A000052653A00636A0000FF
S11323506E2000F0C9FD00F03FFC114908701048E0
S11323600078FF2803D09F480D49097801709D48E3
S113237000780C2805D19C48FF2101709948FF2161
S1132380017000F0FEF9984800780C28E0D08648E7
S1132390012101708448007801280DD173A201E065
S11323A06D04FF1F06213C2000F013FB40F24C405B
S11323B000F09AFD00F0E5F97B48022101707B48AA
S11323C0002101807A48002101807A4800780128A0
S11323D01ED1784800210170641C2000C0B2052879
S11323E003D30024744801F0B7FC734801F072F879
S11323F001F09AF901F0BCFB7C480078401C7B4951
S113240008707A480078052802D1784800210170C4
S11324107748B0F900000128BCD17648B0F9000033
S11324202B49B1F90010884207DA6D4800885749F2
S1132430097840187049088013E04E48B0F900004C
S11324406C49B1F90010884207DA654800884F49A1
S1132450097840186849088003E06748604909889A
S1132460018001F065FC6548B0F9002092B20421B6
S11324700A2000F04CFA6248B0F9002092B206211A
S11324800A2000F044FA5B48B0F9002092B2062119
S1132490462000F03CFA56480021018001F080FDFE
S11324A01021584801F078FF01287FF473AF564A91
S11324B00021002000F08DFA5448002101603B48BF
S11324C0012101803A4801210180F0E7FC5F00000E
S11324D02204FF1F80B572B65FF4E1324C480168F4
S11324E04C4801F061FF4C48007850F020004A4904
S11324F00870332002F065F80021332002F0B8F8A8
S11325004FF49671002002F0C1F84FF49652022164
S1132510002002F030FA4FF47A71012002F0B6F88C
S113252002F033FB02F095FB00F084FE00F052F958
S1132530002200215FF07F5002F016FC3748B0F90A
S1132540000002F00DFC4EF66021002002F05CFC5D
S1132550002002F088FC62B601BD00003861000072
S11325605804FF1F406100005C04FF1F676F0000F8
S1132570086000002404FF1F48610000506100004F
S11325805861000060610000686100006C04FF1F76
S1132590146000002C04FF1F206000003404FF1F9F
S11325A0706100006004FF1F6F04FF1F9007FF1F8E
S11325B09207FF1FA007FF1F9406FF1F8A07FF1F34
S11325C04207FF1F8C07FF1F3007FF1F8E07FF1FE7
S11325D01404FF1F4807FF1F4407FF1F1604FF1FB3
S11325E09607FF1F6E04FF1F7004FF1FA207FF1F43
S11325F08807FF1F8407FF1F4007FF1F8607FF1F71
S11326008207FF1F80F00F407861000010900340A4
S11326102807FF1F00D0064003D006406404FF1FB4
S11326200821DFF81825126852F40032DFF80C355F
S11326301A6000BFDFF80425126832F48042DFF824
S1132640FC341A6000BF19E0DFF8F024126832F499
S11326500042DFF8E8341A60DFF8E024126852F42C
S11326608042DFF8D8341A6000BFDFF8D024126843
S113267032F48042DFF8C4341A6040000A00511E6C
S1132680D2B2002A0AD00206DED5DFF8B0241268DE
S113269052F40042DFF8A4341A60DDE7704700000A
S11326A00821DFF89824126832F40032DFF88C3401
S11326B01A60DFF88824126832F48042DFF87C3430
S11326C01A6019E0DFF87424126832F40042DFF86B
S11326D06C341A60DFF86424126852F48042DFF824
S11326E05C341A6000BFDFF85424126832F480426C
S11326F0DFF848341A6040000A00511ED2B2002AA2
S11327000AD00206DED5DFF83424126852F40042FF
S1132710DFF828341A60DDE7704710B50400B1F122
S11327205000C0B2FFF7BCFFE4B2200950F0100023
S1132730C0B2FFF7B5FF14F00F0050F00100C0B2B3
S1132740FFF7AEFF10BD70B50400002508E02000BF
S1132750C0B2FFF765FF761CF6B2802EF7D36D1C6E
S1132760EDB2082D0CD2B5F15000C0B2FFF798FFBE
S11327700120FFF795FF1020FFF792FF0026EBE7FB
S113278070BD38B5002407E00020FFF749FF6D1C39
S1132790EDB2802DF8D3641CE4B2082C0CD2B4F151
S11327A05000C0B2FFF77CFF0120FFF779FF102033
S11327B0FFF776FF0025EBE731BD07E043F2264142
S11327C00A00511E92B2002AFAD1401E80B200289B
S11327D0F4D1704780B5DFF868034FF4807101606D
S11327E0DFF860034FF480710160DFF85C034FF49D
S11327F080710160DFF854034FF480710160DFF8E9
S113280050035FF470310160DFF83003006850F466
S11328108040DFF828130860DFF82003006830F4F4
S11328208030DFF8181308603220FFF7C6FFDFF8A6
S11328300C03006850F48030DFF800130860AE2009
S1132840FFF72EFF0020FFF72BFF1020FFF728FFD4
S11328504020FFF725FF8120FFF722FFCF20FFF75D
S11328601FFFA120FFF71CFFC820FFF719FFA620B8
S1132870FFF716FFA820FFF713FF3F20FFF710FF15
S1132880D320FFF70DFF0020FFF70AFFD520FFF745
S113289007FF8020FFF704FFD920FFF701FFF12095
S11328A0FFF7FEFEDA20FFF7FBFE1220FFF7F8FE2B
S11328B0DB20FFF7F5FE4020FFF7F2FE2020FFF7B4
S11328C0EFFE0220FFF7ECFE8D20FFF7E9FE142057
S11328D0FFF7E6FEA420FFF7E3FEA620FFF7E0FEE5
S11328E0AF20FFF7DDFE0020FFF72DFF00210020C1
S11328F0FFF713FFFF20FFF726FF642000F0F4FA30
S11329000020FFF720FF642000F0EEFA01BD2DE95E
S1132910FC4104000D00002600275FF0000864203D
S113292092FBF0F08DF80000642092FBF0F100FBC4
S113293011200A2190FBF1F08DF801000A2092FB8E
S1132940F0F100FB11208DF802000020804610E019
S1132950F6B2300150FA87F0DFF8F8114018007A27
S1132960FFF75EFE7F1CFFB2082FF1D3083418F185
S113297001085FFA88F8B8F1030F28D25FFA88F8E3
S113298000A818F8000010F11006E4B2792C01D365
S113299000246D1C2900C9B22000C0B2FFF7BDFE9F
S11329A0002709E0F6B2300150FA87F0DFF8A411ED
S11329B0405CFFF735FE7F1CFFB2082FF2D3691C81
S11329C0C9B22000C0B2FFF7A8FE0027CBE7BDE8DC
S11329D0F3812DE9F84304000D00160000275FF091
S11329E000085FF0000913E0FFB2380150FA88F0E4
S11329F0DFF860114018007AFFF712FE18F10108A1
S1132A005FFA88F8B8F1080FEED3083419F1010918
S1132A105FFA89F919F8060000282CD05FFA89F9C1
S1132A2019F80600B0F12007E4B2792C01D3002490
S1132A306D1C2900C9B22000C0B2FFF76EFE5FF022
S1132A4000080AE0FFB2380150FA88F0DFF80411F8
S1132A50405CFFF7E5FD18F101085FFA88F8B8F16A
S1132A60080FEFD3691CC9B22000C0B2FFF755FEAE
S1132A705FF00008C4E7BDE8F1832DE9F04182B0BE
S1132A8004000D00002600275FF000086420B2FB5C
S1132A90F0F08DF800000A20B2FBF0F00A21B0FB40
S1132AA0F1F301FB13008DF801000A20B2FBF0F1F1
S1132AB000FB11208DF80200002080460FE0F6B2E2
S1132AC0300150FA87F023494018007AFFF7A8FD37
S1132AD07F1CFFB2082FF2D3083418F101085FFA03
S1132AE088F8B8F1030F27D25FFA88F800A818F81D
S1132AF0000010F11006E4B2792C01D300246D1CFF
S1132B002900C9B22000C0B2FFF707FE002708E081
S1132B10F6B2300150FA87F00E49405CFFF780FDB1
S1132B207F1CFFB2082FF3D3691CC9B22000C0B2C6
S1132B30FFF7F3FD0027CCE7BDE8F38100F00F4079
S1132B40389004403C900440409004404490044039
S1132B5014F00F40A054000080B5DFF8840300682F
S1132B6050F48050DFF8781308600023002200211D
S1132B70DFF8700301F0C6FB002300220121DFF817
S1132B80640301F0BFFB002300220221DFF8540399
S1132B9001F0B8FB002300220321DFF8480301F011
S1132BA0B1FB012300220421DFF8380301F0AAFB62
S1132BB0012300220521DFF82C0301F0A3FB0123EC
S1132BC000220621C74801F09DFB002300220721B3
S1132BD0C44801F097FB01BDF8B50025FF2400238C
S1132BE001220021BF4801F08DFB012301220121B4
S1132BF0BC4801F087FB012301220221B94801F0FE
S1132C0081FB012301220321B64801F07BFB04214F
S1132C10B44801F0C1FB06000521B24801F0BCFB39
S1132C2007000621AF4801F0B7FB790111EB06114B
S1132C3011EB80160721AB4801F0AEFB16EBC01078
S1132C400500EDB2702D2AD00A2000F04DF90421C0
S1132C50A44801F0A1FB05000521A24801F09CFB5A
S1132C60060006219F4801F097FB710111EB051145
S1132C7011EB801507219B4801F08EFB15EBC01565
S1132C80EDB2702D0BD0EDB2302D07D0502D03D006
S1132C90602D04D10A2402E00B2400E00C2401235B
S1132CA0012200218F4801F02DFB00230122012184
S1132CB08C4801F027FB012301220221894801F0FD
S1132CC021FB012301220321864801F01BFB04217F
S1132CD0844801F061FB05000521824801F05CFB9A
S1132CE0060006217F4801F057FB710111EB051125
S1132CF011EB801507217B4801F04EFB15EBC01545
S1132D00EDB2702D2AD00A2000F0EEF804217548A7
S1132D1001F042FB05000521724801F03DFB06006D
S1132D200621704801F038FB710111EB051111EB1C
S1132D30801507216B4801F02FFB15EBC015EDB290
S1132D40702D0BD0EDB2302D07D0502D03D0602D57
S1132D5004D1072402E0082400E00924012301220D
S1132D600021604801F0CEFA0123012201215D48CF
S1132D7001F0C8FA0023012202215A4801F0C2FAE4
S1132D80012301220321574801F0BCFA04215548CC
S1132D9001F002FB05000521524801F0FDFA06008E
S1132DA00621504801F0F8FA710111EB051111EBFD
S1132DB0801507214B4801F0EFFA15EBC015EDB271
S1132DC0702D2AD00A2000F08FF80421454801F024
S1132DD0E3FA05000521434801F0DEFA0600062166
S1132DE0404801F0D9FA710111EB051111EB80157E
S1132DF007213C4801F0D0FA15EBC015EDB2702D57
S1132E000BD0EDB2302D07D0502D03D0602D04D15E
S1132E10042402E0052400E0062401230122002109
S1132E20304801F06FFA0123012201212D4801F0FD
S1132E3069FA0123012202212A4801F063FA0023DE
S1132E4001220321274801F05DFA0421254801F0FD
S1132E50A3FA05000521234801F09EFA0600062185
S1132E60204801F099FA710111EB051111EB80155D
S1132E7007211C4801F090FA15EBC015EDB2702D36
S1132E802AD00A2000F030F80421164801F084FA10
S1132E9005000521134801F07FFA060006211148B8
S1132EA001F07AFA710111EB051111EB801507217C
S1132EB00C4801F071FA15EBC015EDB2702D0BD072
S1132EC0EDB2302D07D0502D03D0602D04D1012454
S1132ED002E0022400E003242000C0B2F2BD00009E
S1132EE038800440C0F00F400D49096851F00101D9
S1132EF00B4A11600B4908600B48052101600B481F
S1132F00006850F00100094908600848006800069C
S1132F10FBD5064800684008400004490860704733
S1132F2038800440080004400400044000000440C9
S1132F30FF2212EAD05C1DBF12EAD153944593429A
S1132F402BE09C44D30780EA01021A4043EA0020A4
S1132F5043EA0121A1FB0030410038BF40007CF16D
S1132F607F010BDBFE294ADA5B0842EAC15153EACE
S1132F70006373F1004C51EB10207047D1F1080C41
S1132F80DCF120012FDB5B0810FA01F10B4373F134
S1132F90004120FA0CF05041704794451CBF02EAEE
S1132FA0D153934280EA010202F000421DD0400056
S1132FB019D0490017D05BB9634514D00902B1FA9E
S1132FC081F39940BCEB030CC00140F00040C1E721
S1132FD00002B0FA80FC10FA0CF0B3EB0C0CC9013F
S1132FE041F00041B6E71000704740000AD04900A4
S1132FF008D010F1807F94BF11F1807F02E042F08D
S1133000FF407047D04370474100090E7F3915D403
S1133010D1F11F0114D4400007D2C00140F0004098
S1133020C84048BF6FF000407047C00140F0004006
S1133030C8404CBF4FF000404042704700207047EA
S113304000424FF0004058BFC04370475FF0FF0C90
S11330501CEAD05114BF614506E0C110400721F0BD
S1133060E04101F16051704779B900F0004100027C
S11330700AD0B0FA80FC00FA0CF001F16051A1EB27
S11330800C5101EBD0214005704741020CBF40F4C4
S1133090E0016FF000010020704750F8041B61B19B
S11330A050F8042BD30744BFA9F101039A18002355
S11330B042F8043B091FFAD1EFE7704770B44FF0B0
S11330C0004591EA030C44BF6B4001F0F9BE00BF18
S11330D0841A71EB030603D2001BB1411219734128
S11330E04FF4001C1CEB410F34BF7CEB430443E062
S11330F00C0DA4EB1356352E50DC45EAC323DB0A32
S113310045EAC121C912B6F120050DDD63FA05F6C1
S1133110EB4086EA0305124218BF45F00105C018CA
S113312051F100010CD213E062FA06F5F240554069
S1133130F3415A40B340F3405A408018594107D3F1
S113314049085FEA30005FEA350528BF45F001050C
S113315001F58011420875F1004250F1000041EB85
S1133160045170BC4FF4001C1CEB410F38BF704776
S11331700020090D090570471CEB410F10D252EADB
S113318043060BD0BCEB410F05D80C0DAB43661EB8
S1133190342EB5DD02E0AB438018594170BC704752
S11331A070BC70474FEAF17CBCF1E04C2CBFBCF51D
S11331B0001F11E05FEA4C0C34BFBCF17F5F2EE0CE
S11331C05FEA9C0C4FEA0C1C4FEA3C0CC10071F105
S11331D000414CEB50707047C90241EA5051C002A3
S11331E018BF41F0010141F000414FEA6C50C0F1B9
S11331F00900212810D240EACC7CCCF1200C11FA31
S11332000CF070F10040CCF1200C21FA0CF00CF021
S1133210004C40EB0C0070474FEACC7070474900FB
S113322011F5001F04D84FEACC10FF30C0057047D9
S1133230C817704780B5012301220021DFF82C094B
S113324001F060F8012301220121DFF8200901F0D7
S113325059F8012301220A21DFF8F80A01F052F893
S1133260012301220B21DFF8EC0A01F04BF80120C5
S113327001F0DCFE01BD10B5012301220021DFF8BD
S1133280EC0801F03FF800F0D1FD012301220121F7
S1133290DFF8D80801F036F800F0C8FD0023012259
S11332A00021DFF8C80801F02DF800F0BFFD00236D
S11332B001220121DFF8B40801F024F8002416E00B
S11332C000F0B4FD00F0B2FD012301220121DFF87A
S11332D09C0801F017F800F0A9FD00F0A7FD0023F9
S11332E001220121DFF8840801F00CF8641CE4B227
S11332F07F2CE5D300F09AFD00F098FD0123012214
S11333000121DFF8680800F0FDFF00F08FFD00F0F8
S11333108DFD002301220121DFF8500800F0F2FFA7
S113332010BD38B50400012301220021DFF83C0858
S113333000F0E8FF00F07AFD012301220121DFF80B
S11333402C0800F0DFFF00F071FD002301220021B2
S1133350DFF8180800F0D6FF00F068FD002502E051
S113336000F064FD6D1CEDB2502DF9D30822062146
S1133370012001F082FE2070641C0023012201213F
S1133380DFF8E80700F0BEFF00251DE000F04EFD69
S113339000F04CFD012301220121DFF8D00700F0E9
S11333A0B1FF00F043FD00F041FD08220621012099
S11333B001F063FE2070641C002301220121DFF868
S11333C0AC0700F09FFF6D1CEDB27F2DDED300F043
S11333D02DFD00F02BFD012301220121DFF88C07D4
S11333E000F090FF00F022FD00F020FD00230122F8
S11333F00121DFF8780700F085FF31BD80B5DFF8E3
S1133400141A802000F04DF8DFF80C1A0870DFF869
S1133410080A007819214843802190FBF1F0DFF875
S1133420FC190870DFF8F8090088DFF8F01909784A
S1133430401ADFF8F0190880DFF8E809B0F9000055
S1133440DFF8E419B1F90010C84206DADFF8E40B3A
S11334500078401EDFF8DC1B0870DFF8CC09B0F9F7
S11334600000DFF8C019B1F90010884206DADFF86D
S1133470C40B0078401CDFF8BC1B0870DFF8B40BE9
S11334800078022803D2DFF8AC0B01210170DFF8C9
S1133490A40B0078142803D3DFF8980B14210170CF
S11334A001BD10B40023002204E00C7853FA84F325
S11334B0491C521CD2B2C0B28242F6D39BB2C0B2F3
S11334C093FBF0F0C0B210BC7047002801D5404215
S11334D0FFE77047F8B50400002500260027002008
S11334E0DFF830194978DFF8B42A1180DFF824199D
S11334F04978DFF8442B1180012113E0C9B2DFF8C9
S11335001409085CDFF8302BB2F9002000B29042B5
S113351007DA0800C9B2DFF8FC288A5CDFF8183B38
S11335201A80491CC9B27F2913D2DFF8700AB0F996
S11335300000C9B2DFF8DC288A5C12B29042DDDAFE
S11335400F00C9B2DFF8CC08085CDFF8502A1080FD
S1133550E7E7DFF8480AB0F90000FFB2DFF8B41873
S1133560791811F8021C401A0B2832DBDFF82C0AF8
S1133570B0F90000FFB2DFF89C1879188978401A76
S11335800B2826DBFFB2DFF88C08381810F8020C81
S1133590FFB2DFF8801879188978401AFFF795FF91
S11335A00A2816DAFFB2DFF86C08381810F8020C93
S11335B0FFB2DFF86018791889780818FFB2DFF8CD
S11335C054187854FFB2DFF84C08385CDFF8CC1993
S11335D00880DFF8C809B0F90000DFF85C1AB1F917
S11335E000100818022190FBF1F0DFF8501A08804F
S11335F000210CE0DFF8480A0088C9B2DFF814287B
S11336008A5C8018DFF8382A1080761C491CC9B2FD
S11336107F2917D2C9B2DFF8FC07085CDFF81C2A3F
S1133620B2F9002000B29042E4DBDFF8180A008807
S1133630C9B2DFF8E0278A5C8018DFF8082A108016
S11336406D1CE3E7DFF8FC09B0F90000EDB290FB74
S1133650F5F0DFF8F0190880DFF8E409B0F90000AC
S1133660F6B290FBF6F0DFF8D8190880DFF8D40939
S1133670B0F90000DFF8C819B1F9001008180221E8
S113368090FBF1F0DFF8B4190880002103E000207A
S11336902070641C491CC9B280290AD22078DFF842
S11336A09C29B2F9002000B29042F0DB0120207086
S11336B0EFE7032034E0C0B2DFF85817415C00297B
S11336C013D1C0B2DFF84C17411811F8011C0129BD
S11336D00BD1C0B2DFF83C1741184978012904D155
S11336E0C0B2DFF8301701224254C0B2DFF8241709
S11336F0415C012913D1C0B2DFF81817411811F841
S1133700011C00290BD1C0B2DFF808174118497811
S1133710002904D1C0B2DFF8FC1600224254401C38
S1133720C0B27D28C7D3F1BD10B4002300210B0023
S11337307E2101E00022491E09B2042922DB09B2DC
S1133740DFF8D0268A5C012AF4D109B2DFF8C42656
S11337508A1812F8012C002AECD109B2DFF8B42639
S11337608A1812F8022C002AE4D109B2DFF8A42640
S11337708A1812F8032C002ADCD18A1EDFF8C83814
S11337801A800122012301E000205B1C1BB27B2B69
S11337901FDA1BB2DFF87C06185C0128F4D11BB2D7
S11337A0DFF87006181840780028EDD11BB2DFF856
S11337B06406181880780028E6D11BB2DFF8540696
S11337C01818C0780028DFD1981CDFF880482080C2
S11337D0012012B2012A5AD100B2012857D1DFF8D0
S11337E06408B0F90000DFF85828B2F90020801A04
S11337F02E283FDBDFF85408B0F90000DFF8482832
S1133800B2F90020904280F2E780DFF84408B0F972
S11338100000DFF83828B2F90020801A1F280EDBD8
S1133820881EDFF824180880DFF81C080088DFF8F9
S1133830241809880818DFF814180880CCE0DFF889
S11338400808B0F90000DFF81018B1F90010401AA8
S11338501F28C0F2C180981CDFF8F0170880DFF839
S1133860EC070088DFF8EC170988401ADFF8D8174E
S11338700880B1E0DFF8D007DFF8DC1709880180A1
S1133880DFF8C807DFF8C81709880180A4E012B27E
S1133890012A3CD100B2002839D1DFF8A807B0F9D9
S11338A00000DFF89C17B1F90010401A2E2821DB24
S11338B0DFF89C07B0F90000DFF88C17B1F90010AD
S11338C088420CDADFF88007DFF88C17098801805A
S11338D0DFF87807DFF87817098801807CE0DFF8E3
S11338E068070088DFF86C1709880818DFF85C1788
S11338F0088071E0DFF85007DFF85C170988018061
S1133900DFF84807DFF848170988018064E012B23D
S1133910002A3CD100B2012839D1DFF82807B0F9D8
S11339200000DFF81C17B1F90010401A2E2821DB23
S1133930DFF81807B0F90000DFF81C17B1F9001020
S113394088420CDADFF80007DFF80C1709880180D9
S1133950DFF8F806DFF8F816098801803CE0DFF8A4
S1133960EC060088DFF8EC160988401ADFF8D81650
S1133970088031E0DFF8D006DFF8DC160988018022
S1133980DFF8C806DFF8C8160988018024E0104370
S113399000B2002820D1DFF8C006B0F900004028AA
S11339A005DADFF8AC06B0F9000040280CDADFF8DD
S11339B09806DFF8A41609880180DFF89006DFF87E
S11339C090160988018007E0DFF87C060021018059
S11339D0DFF878067F210180DFF86C06B0F900007B
S11339E0DFF86816B1F900100818022190FBF1F015
S11339F0DFF808180880DFF804080088DFF80018EA
S1133A000988401ADFF8FC170880DFF84C06DFF855
S1133A10381609880180DFF83806DFF8301609887F
S1133A200180DFF8E407DFF8301609880180DFF849
S1133A30DC07DFF81C1609880180DFF8D407DFF8FB
S1133A40D41709880180DFF8CC07DFF8CC17098880
S1133A500180DFF8C407DFF8C41709880180DFF8A4
S1133A60BC07DFF8BC1709880180DFF8B407DFF86A
S1133A70B41709880180DFF8AC07DFF8AC170988B0
S1133A800180DFF8A407DFF8A41709880180DFF8B4
S1133A909C07DFF89C1709880180DFF89407DFF89A
S1133AA0941709880180DFF88C07DFF85817098814
S1133AB00180DFF880070088DFF874170988401A4E
S1133AC0DFF874170880DFF868070088DFF85C17F0
S1133AD00988401ADFF864170880DFF85007008867
S1133AE0DFF844170988401ADFF854170880DFF814
S1133AF038070088DFF82C170988401ADFF84417C4
S1133B000880DFF820070088DFF814170988401AB6
S1133B10DFF834170880DFF808070088DFF8FC16A0
S1133B200988401ADFF824170880DFF8F0060088B7
S1133B30DFF8E4160988401ADFF814170880DFF864
S1133B40D8060088DFF8CC160988401ADFF8041775
S1133B500880DFF8C0060088DFF8B4160988401A28
S1133B60DFF80817088010BC7047000000F10F4010
S1133B7030B40A2014210022DFF8DC3600241C8033
S1133B80DFF8D83600241C80DFF8E43600241C80DB
S1133B900B1A5B1C1A00DFF8C836DFF86846248865
S1133BA01C8064230CE0DBB2DFF8B44614EB43045E
S1133BB034F8024CDBB2DFF8A85625F813405B1E3C
S1133BC0DBB2012BEFD200230CE0DFF89846248807
S1133BD0DBB2DFF88C5635F813502C19DFF8845615
S1133BE02C805B1CDBB20A2BEFD3DFF87836B3F9F9
S1133BF000300A2493FBF4F3DFF8684623800023A3
S1133C0010E0DBB2DFF8584634F81340DBB2DFF8DB
S1133C10505635F813506C43DBB2DFF84C5625F898
S1133C2013405B1CDBB20A2BEBD300230CE0DFF860
S1133C3028462488DBB2DFF8305635F813502C19A7
S1133C40DFF814562C805B1CDBB20A2BEFD3DFF8B1
S1133C500836B3F900300A2493FBF4F3DFF8FC458B
S1133C602380DFF8003600241C80002306E0DBB24A
S1133C70DFF8F445002524F813505B1CDBB2052B58
S1133C80F5D3DFF8D43500241C8003000CE0DFF802
S1133C90D4452488DBB2DFF8C85535F813502C1905
S1133CA0DFF8C0552C805B1CDBB2C9B28B42EED36B
S1133CB0DFF8B035B3F90030C9B293FBF1F3DFF8A4
S1133CC0A4452380030010E0DBB2DFF8944534F808
S1133CD01340DBB2DFF8885535F813506C43DBB280
S1133CE0DFF8845525F813405B1CDBB2C9B28B4264
S1133CF0EAD303000CE0DFF860050088DBB2DFF8EC
S1133D00684534F813402018DFF84C4520805B1CCC
S1133D10DBB2C9B28B42EED3DFF83C05B0F9000048
S1133D20D2B290FBF2F0DFF84815088030BC70473F
S1133D3080B5DFF81403B0F9002002210A20FEF751
S1133D40E6FDDFF80803B0F9002002214620FEF763
S1133D50DEFD01BD80F00F4070B5040000262A216D
S1133D60DFF8100500F0FDFB4C21DFF8080500F03A
S1133D70F8FB4421DFF8FC0400F0F3FB002000F022
S1133D801DF8002000F01AF8002000F017F80020B9
S1133D9000F014F8002504E0207800F00FF8641C0B
S1133DA06D1CEDB2802DF7D33000C0B200F006F8E0
S1133DB02321DFF8C00400F0D4FB70BD10B504006B
S1133DC0E4B22009C0B20A2807D210F13001C9B206
S1133DD0DFF8A00400F0C5FB06E010F13701C9B21A
S1133DE0DFF8900400F0BDFB14F00F00C0B20A2805
S1133DF007D210F13001C9B2DFF8780400F0B1FB4A
S1133E0006E010F13701C9B2DFF8680400F0A9FB3D
S1133E1010BD00009406FF1F9807FF1F9907FF1F9E
S1133E201A04FF1F7807FF1F1C04FF1F81B0002026
S1133E308DF8000006E000BF00BF9DF80000401CA4
S1133E408DF800009DF800000128F4D301B07047FC
S1133E5010B5DFF82404DFF8241409680160DFF8E2
S1133E602004DFF8A01309880180DFF81404008817
S1133E70DFF810140988401ADFF80C140880DFF802
S1133E800004B0F9000001F0BFF9DFF8001409687C
S1133E90FFF74EF8DFF8F81301F0CEF90400DFF86D
S1133EA0E803B0F9000001F0AFF9DFF8E81309689E
S1133EB0FFF73EF8210001F0BFF9FFF7A5F8DFF89E
S1133EC0D8130880DFF8BC03DFF8B4130988018035
S1133ED0DFF8C403B0F9000041F63901884204DB7D
S1133EE0DFF8B40341F638010180DFF8AC03B0F920
S1133EF0000040F64851884204DADFF89C0340F69B
S1133F0048510180DFF89003B0F90020022100201D
S1133F1000F0E0FDDFF88003B0F9000001F074F96F
S1133F20DFF85813086010BD10B5DFF850030068BF
S1133F30DFF84413096801F0C1F90400DFF85C03F9
S1133F40B0F90000401C01F05FF92100FEF7F0FF1A
S1133F50DFF84C1301F026FADFF81C13096801F0AE
S1133F606BF9FFF751F8DFF83013088010BD00003B
S1133F70DFF830030068DFF830130880DFF82C0323
S1133F800088DFF8241309880818DFF82013088054
S1133F90DFF8100300210160704700003207FF1FA3
S1133FA080B5DFF80C03DFF80413B1F900100160E9
S1133FB0DFF8F8020021018000F050F8DFF8F40285
S1133FC0B0F9000000F0CCFEDFF8E402006805213F
S1133FD048430D2190FBF1F0303000F0CFFEDFF8C4
S1133FE0D412B1F900104018DFF8CC120860DFF8E1
S1133FF0C802006801280DDB002301220921DFF833
S1134000BC0200F07FF9DFF8B802DFF8AC120968EF
S113401001600EE0012301220921DFF8A00200F073
S113402071F9DFF89402006800F2E240DFF89012C0
S1134030086001BD1E04FF1F3407FF1F3607FF1F62
S11340407C07FF1F7A07FF1F3007FF1F1404FF1FA1
S11340503A07FF1F4007FF1F3807FF1FDFF88C02D6
S113406000210170DFF8880200210170DFF884026A
S113407000780B2807D3DFF87C0200210170DFF8F9
S1134080440200210170DFF82C02DFF85412098881
S11340900180DFF83402B0F900007049B1F9001072
S11340A0884258DADFF8C801B0F90000DFF81C12C2
S11340B0B1F9001088426CDADFF83C02B0F9000074
S11340C01F2866DBDFF81402B0F900004042DFF875
S11340D0E4110880DFF8180201210170DFF8F00113
S11340E00088401CDFF8E8110880DFF8A001DFF841
S11340F0E41109680160DFF89C01DFF8DC1109684C
S11341000160DFF8C00101210170DFF8F0010A212C
S11341100170DFF8E401B0F90000512806DBDFF894
S1134120DC0100780A30DFF8D4110870DFF8CC0124
S11341300078DFF89C11B1F9001000B2884228DA47
S1134140DFF8B40100210180DFF86801DFF8901185
S1134150098801801DE0DFF87001B0F900003F49D3
S1134160B1F90010884214DBDFF8640100210180FA
S1134170DFF884010088401CDFF87C110880DFF838
S11341806C0101210170DFF82C01DFF8741109883A
S11341900180DFF830010078012806D1DFF85401EE
S11341A00078401CDFF84C110870DFF81801007823
S11341B000280BD1DFF8D400DFF82811096801606A
S11341C0DFF8D000DFF8201109680160DFF8100182
S11341D0B0F90000032190FBF1F0DFF8D410096876
S11341E0052251430D2291FBF2F13031814203DA71
S11341F0DFF8C000E6210180704700004207FF1F7E
S11342004807FF1F4C07FF1F3C07FF1F3E07FF1F08
S11342106007FF1F5E07FF1F5C07FF1F5A07FF1F92
S11342205807FF1F5607FF1F5407FF1F5207FF1FA2
S11342305007FF1F4E07FF1F6207FF1F6407FF1F82
S11342406607FF1F6807FF1F6A07FF1F6C07FF1F32
S11342506E07FF1F7007FF1F8007FF1F8207FF1FE6
S1134260FC04FF1F7E07FF1FC405FF1F7207FF1F0B
S11342708407FF1F00D00640F404FF1FF804FF1F4B
S11342804607FF1F4A07FF1F7407FF1F2804FF1F6D
S1134290007094453004FF1F1804FF1F2E07FF1FF2
S11342A00000A04104800B402C07FF1F7607FF1F6E
S11342B08C06FF1F6404FF1F9006FF1F40F00F4091
S11342C0109003401F04FF1F2404FF1F2204FF1F3C
S11342D09407FF1F3804FF1F4C04FF1F6A04FF1FCD
S11342E06804FF1F2C04FF1F3404FF1F9C07FF1FDB
S11342F09B07FF1F9A07FF1F8607FF1F2004FF1F4E
S11343006604FF1F70B405001D4EAD1B08D0403D70
S113431008D0403D08D0403D08D0403D08D009E0D9
S1134320184C07E0184C05E0184C03E0184C01E069
S1134330184CFFE74FF4807544F82150012A15D139
S1134340426901248C4022434261012B06D1026858
S1134350012313FA01F1114301600EE00268012305
S113436013FA01F132EA0101016006E04269012316
S113437013FA01F132EA0101416170BC7047000097
S113438000F00F400090044000A0044000B004403E
S113439000C0044000D00440006901228A4010405B
S11343A0C840C0B27047704730B4DFF8C03198429B
S11343B00AD1DFF8BC314FF440741C60DFF8B4312B
S11343C04FF440741C6049E0DFF8AC3198420AD1E4
S11343D0DFF8A8314FF440741C60DFF8A4314FF4C7
S11343E040741C603AE0DFF89C3198420AD1DFF84F
S11343F098314FF440741C60DFF890314FF44074EE
S11344001C602BE0DFF8883198420AD1DFF8843150
S11344104FF440741C60DFF880314FF440741C602A
S11344201CE0DFF8783198420AD1DFF874314FF498
S113443040741C60DFF86C314FF440741C600DE074
S1134440DFF86431984209D1DFF860314FF44074E9
S11344501C60DFF85C314FF440741C60DFF80C31F1
S1134460984208D1DFF84C311B6853F48063DFF8BD
S1134470444123603BE0DFF80031984208D1DFF883
S113448034311B6853F40063DFF8284123602EE0C5
S1134490DFF8F030984208D1DFF818311B6853F484
S11344A08053DFF81041236021E0DFF8E4309842C4
S11344B008D1DFF800311B6853F40053DFF8F440EF
S11344C0236014E0DFF8D430984208D1DFF8E830F4
S11344D01B6853F48063DFF8E040236007E0DFF8F3
S11344E0D8301B6853F40063DFF8CC402360C378F2
S11344F013F0F303C370002383701C4B984208D05D
S113450000231D4CA04204D053F00003DBB2002B67
S113451000D049184FF47A7303FB01F31401B3FB81
S1134520F4F3047814F0E0049BB21D0A15F01F059F
S11345302C43047043704FF4FA4461431201B1FBFD
S1134540F2F19BB2B1EB4311827A12F0E00411F064
S11345501F0121438172C17851F00C01C17030BC3C
S1134560704702791206FCD5C171704700A006405D
S113457018C004401CC0044000B0064010B0044001
S11345800CB0044000C006400CC0044008C0044005
S113459000D0064044B0044040B0044000A00E40A7
S11345A060D0044064D0044000B00E4020D00440E9
S11345B024D0044034800440288004402549086005
S11345C070475C2800DB5B20202190FBF1F100297F
S11345D003D0022929D014D33AE00121202290FBF0
S11345E0F2F303FB120399401B4A116001212022BC
S11345F090FBF2F303FB120311FA03F0174908606E
S113460026E00121202290FBF2F303FB12039940E0
S1134610134A11600121202290FBF2F303FB1203E1
S113462011FA03F00F49086012E00121202290FBE7
S1134630F2F303FB120399400B4A1160012120227B
S113464090FBF2F303FB120311FA03F0074908602D
S11346507047000008ED00E080E200E000E100E0C7
S113466084E200E004E100E088E200E008E100E028
S11346705C2800DB5B20102900DB0F2100F1604087
S113468010F56440090101707047000030B4002344
S1134690DFF8202612684FF47A7462438A4201D20A
S11346A000209EE0802303FB01F3B2FBF3F44FF6FA
S11346B0FF739C4280F017810723C0B2002840F0AA
S11346C09280DFF8F4552C60402404FB01F4B2FB23
S11346D0F4F44FF6FF75AC4260D20623C0B2002852
S11346E040F09180DFF8D0552C604C01B2FBF4F41B
S11346F04FF6FF75AC4251D20523C0B2002840F0FA
S11347009280DFF8B4552C600C01B2FBF4F44FF640
S1134710FF75AC4242D20423C0B2002840F093801B
S1134720DFF894552C60CC00B2FBF4F44FF6FF751F
S1134730AC4233D20323C0B2002840F09480DFF8A7
S113474078552C608C00B2FBF4F44FF6FF75AC4244
S113475024D20223C0B2002840F09580DFF85855D7
S11347602C604C00B2FBF4F44FF6FF75AC4215D24A
S11347700123C0B2002840F09680DFF83C552C603D
S1134780B2FBF1F44FF6FF718C4207D20023C0B2A2
S1134790002840F09880DFF820150C60C0B2002893
S11347A040F0A380DFF81405006850F08070DFF853
S11347B00C150860DBB213F0070050F00800DFF8B6
S11347C000150860DFF8FC0400210160DFF8F8043C
S11347D000210160DFF8F404DFF8DC1409680160EB
S11347E0012030BC7047C0B2012803D1DFF8E05487
S11347F02C6069E7C0B2022803D1DFF8D8542C60DA
S113480062E70020EDE7C0B2012803D1DFF8C0540D
S11348102C606AE7C0B2022803D1DFF8B8542C60D8
S113482063E70020DDE7C0B2012803D1DFF8A0541C
S11348302C6069E7C0B2022803D1DFF898542C60D9
S113484062E70020CDE7C0B2012803D1DFF880542D
S11348502C6068E7C0B2022803D1DFF878542C60DA
S113486061E70020BDE7C0B2012803D1DFF860543E
S11348702C6067E7C0B2022803D1DFF858542C60DB
S113488060E70020ADE7C0B2012803D1DFF840544F
S11348902C6066E7C0B2022803D1DFF838542C60DC
S11348A05FE700209DE7C0B2012803D1DFF8205460
S11348B02C6065E7C0B2022803D1DFF818542C60DD
S11348C05EE700208DE7C0B2012803D1DFF80014B1
S11348D00C6063E7C0B2022803D1DFF8F8130C6060
S11348E05CE700207DE700207BE7C0B201281ED1F1
S11348F0DFF8C803006850F00070DFF8C0130860E8
S1134900DBB213F0070050F00800DFF8CC130860A6
S1134910DFF8C80300210160DFF8C403002101604F
S1134920DFF8C003DFF8A8130968016058E7C0B2D4
S113493002281ED1DFF8B003006850F08070DFF861
S1134940A8130860DBB213F0070050F00800DFF88A
S11349509C130860DFF8980300210160DFF89403DA
S113496000210160DFF89003DFF868130968016033
S113497036E7002035E718B442F211739A4201D3A6
S1134980002066E0C0B2002865D1DFF82C331B6834
S11349900093009B5B1C5A4342F21073B2FBF3F288
S11349A0C0B2002828D1C9B20B00002B022B05D9B4
S11349B0DB1E6CD05B1E032B79D985E0DFF83C331A
S11349C01B684FF400742343DFF830432360C9B2FB
S11349D08B0003F1804313F592234FF44074DC60A1
S11349E0C9B2DFF81C33282443F83140C9B2DFF8D8
S11349F0103313EBC1035A60C0B2012818D1C9B2F5
S1134A00002963D1BD4B1B6853F48063BB4C236006
S1134A10C9B2BC4B4FF4407443F82140C9B2BA4BFD
S1134A20282443F83140C9B2B74B13EBC1035A6091
S1134A30C0B202280CD1C9B2002949D1C9B2B348C5
S1134A40282340F83130C9B2B04810EBC1004260AD
S1134A50012012BC7047C0B2012809D1009B9C4CB4
S1134A602468A34201D1012300E00023DBB290E7D4
S1134A70C0B2022809D1009B964C2468A34201D1FC
S1134A80012300E00023DBB283E70020E1E79B4B36
S1134A901B6853F40063994C2360C9B28B0003F183
S1134AA0804313F596234FF480645C6098E7934B3E
S1134AB01B6853F48053914C2360C9B2944B4FF458
S1134AC0806443F821408BE70020C2E70020C0E760
S1134AD00020BEE718B442F211739A4201D30020B9
S1134AE019E0C0B2002818D1734B1B680093009BD7
S1134AF05B1C5A4342F21073B2FBF3F2C0B20028BB
S1134B002FD1C9B2002903D0022925D021D326E010
S1134B1080480260012012BC7047C0B2012809D14C
S1134B20009B6B4C2468A34201D1012300E00023C5
S1134B30DBB2DCE7C0B2022809D1009B654C2468D3
S1134B40A34201D1012300E00023DBB2CFE7002020
S1134B50E1E771480260DDE770480260DAE70020AF
S1134B60D9E7C0B2012805D1C9B2674810EBC1002A
S1134B704260CFE7C0B2022805D1C9B2634810EB46
S1134B80C1004260C6E70020C5E780B500230122CA
S1134B9009216348FFF7B6FB5848006850F40060E9
S1134BA05649086057484FF4507101604348006803
S1134BB050F00070414908605348006850F0080004
S1134BC0514908605048006830F004004E490860BC
S1134BD04D48006850F020004B4908603E482921A8
S1134BE001605048006850F004004E4908604D4888
S1134BF00068400840004B4908604B48FE210160B2
S1134C004A48002101604A480021016049480021C6
S1134C10016049480021016048480068400840009C
S1134C204649086046480021016046480021016069
S1134C304548002101602A4800210160294840F2CA
S1134C40E2410160414800210160244800210160E3
S1134C5001BD2548006850F08070234908603C4835
S1134C604FF4C06101603B484FF4C06101603A48B1
S1134C70006850F00400384908603848006850F073
S1134C800800364908601B48002101601A484FF6A5
S1134C90FF7101603148006850F001002F4908603D
S1134CA02D48006850F001002B490860104800218D
S1134CB0016070472807FF1F1407FF1F3C80044052
S1134CC000800340048003404C800340088003407C
S1134CD01807FF1F1C07FF1F0090034004900340A8
S1134CE04C900340089003403080044000800B4007
S1134CF004800B404C800B4008800B4038800440FB
S1134D000C80034000A004400C9003400C800B4036
S1134D1000C00440108003401880034020800340FA
S1134D2040F00F405490034060900340649003406F
S1134D305C9003406C90034070900340809003406B
S1134D409090034094900340989003401090034047
S1134D5048A004404CA0044054800B4080800B4089
S1134D602649096808607047244B1B6898602348EB
S1134D700068C160214800680261704710B51F498E
S1134D8009680968081A1E4908601D48006800F08F
S1134D903BFA1A4909688968FEF7CAF804001748FB
S1134DA00068406900F030FA14490968C968FEF7E0
S1134DB0BFF80100200000F081FA04000F480068E9
S1134DC0806900F021FA0D4909680969FEF7B0F815
S1134DD0210000F031FAFEF717F90A490860074884
S1134DE00068064909684969816104480068044902
S1134DF0096841610348006810BD00001004FF1FEA
S1134E00DC04FF1FE004FF1F2A4A126852F4000268
S1134E10284B1A60284A126832F00202264B1A60A4
S1134E20254A126852F00102234B1A60C0B20201F3
S1134E30224BD150C0B2214911EB0011896851F0C5
S1134E400101C0B21D4A12EB00129160C0B21B49AD
S1134E5011EB0011896831F00201C0B2174A12EB5C
S1134E6000108160704780B5C0B2144911EB001185
S1134E70896851F00201C0B2104A12EB001291602D
S1134E80C0B2002805D002280BD006D303280CD0CA
S1134E900EE04420FFF795FB0AE04520FFF791FB65
S1134EA006E04620FFF78DFB02E04720FFF789FB71
S1134EB001BD00003C8004400070034000710340C9
S1134EC0841A71EB030604D26E40001BB14112191F
S1134ED073414FF4001C1CEB410F34BF7CEB4306C1
S1134EE084E00C0DA4EB1356362E7DDC012E43DC3E
S1134EF045EAC32343EA525312BFD20292025B082B
S1134F00240545EAC12141EA5051D2EBC020994120
S1134F1025D407D1B0FA80F610FA06F164D0002047
S1134F20203608E0B1FA81F6B140C6F1200220FA39
S1134F3002F21143B0404FEAF474B4EB465434F037
S1134F4001064FEA74040AD8D6F50016760D04F06B
S1134F500044F04061FA06F25040F1404840C00A73
S1134F6040EA415021F0004128BF5FEA500550F16A
S1134F70000044EBD12137E045EAC323DB0A45EACC
S1134F80C121C90AB6F120050EDD42EA0242120C23
S1134F90C5F1200603FA06F6EB4042EA06056D4227
S1134FA0984161F100010DE062FA06F5F2405540C6
S1134FB063FA06FC82EA0C02F3405A406D429041C7
S1134FC061EB030111F4801F05D1641E620502D058
S1134FD06D004041494121F48011430875F10043BB
S1134FE050F1000041EB045170BC70471CEB410FC1
S1134FF015D223F0004352EA43060BD04FEA4C0C7F
S1135000BCEB410F04D80C0D661E342EB7DDEBE764
S1135010801A994150EA410608BF0021E4E708BF1D
S11350201CEB430F28BF6FF00001DDE7002810D10F
S11350306D48006850F000606B4908606B48006878
S113504030F090006949086068480021016001203F
S1135050704701280FD16648006850F00060644929
S113506008606248006830F41040604908605F4896
S113507000210160EBE70020EAE738B505000024D1
S1135080D2B2280000F01EF8002D0CD15948006857
S11350900006FBD5584804685648006830F0800084
S11350A0544908600BE0554800680006FBD5544895
S11350B004685248006830F08000504908602000BD
S11350C080B232BD10B50C000021D2B2082A06D03D
S11350D00A2A08D00C2A04D0102A06D007E000219E
S11350E006E0012104E0022102E0032100E00021A6
S11350F0890011F00C0151F05001424A11704149EC
S113510004224A703F4941F234224A803D4945F223
S113511078628A8000282AD1042C0BDA14F01F004C
S113512050F04000374908723649324800F048F8D8
S1135130012010BD201F14280AD214F01F0050F0C3
S11351404000304908722F492A4800F039F8EFE747
S11351501A2C0AD114F01F0050F04000294908729B
S11351602849244800F02CF8E2E70020E1E7042C69
S113517009DA14F01F0050F0400022490872214956
S11351801C4800F01DF8201F14280AD214F01F0038
S113519050F040001B4908721A49184800F010F8F2
S11351A0C6E71A2C0AD114F01F0050F0400015492C
S11351B008721449114800F003F8B9E70020B8E771
S11351C00A7882604A78C2604A8882618A88C261A9
S11351D08A790262CA794262CA6802650A7A0260FE
S11351E0497A4160704700003C80044018800440C4
S11351F03080044000B0034010B0034000B00B40C6
S113520010B00B40E404FF1F002840F10780F4466F
S1135210404200F003F850F0004060470AD0B0FA72
S113522080F18840D1F19D01C905020672F1004266
S113523041EB10207047000090EA010F44BF81F059
S1135240004100F043B800BF421A3CBF801A8918DD
S11352504FF0004CC0F3C752FF2A24D0C1F3C75308
S113526013B3D21AD2F1190327DD4CEA01214CFA07
S113527003F321EA0303D140C20D4CEA0020401895
S113528034BF20EA0C004CEA5000D20553EA006314
S113529073EB0C0C52EB1020420012F1807F38BFEC
S11352A07047C00DC0057047490212BF9A4200EB17
S11352B05120F8E7D2F11703D9D5704790EA010FCE
S11352C044BF81F00041FFF7BFBF00BF431A4FF056
S11352D000423EBF5340C01AC91800BFD3095FEA59
S11352E0D05C13EB400F34BFB3EB410F40E07CEBD9
S11352F0D1530CD342EA012122D8D1EB402009D367
S1135300400A28BF5FEA500140EBCC507047401A76
S113531015D04002B0FA80F2521C9040400A4FEA85
S11353203C23B3EB026384BF00EB730007E040F45B
S113533000001A16DB07C2F10102D040184370477F
S1135340182BFCDC31FA03F202FA03F3591A38BFC2
S113535042F00102D2EB40203CBF4000ACF1010C12
S11353605FEACC5CC20572F100414CEB50207047FF
S113537013EB400F0FD24B0009D0ACEBD153022BEF
S113538003DB4902172BDDDD70479143401A4300CC
S1135390D5D10020704713EB410FD0D36FF000003C
S11353A07047000010B5FF2313EAD0541DBF13EA61
S11353B0D1529C429A4239E0A41ADA0780EA0103E6
S11353C0134042EA012142EA0020421A3CBF641E13
S11353D001EB4202090AB2FBF1FE01FB1E2212029A
S11353E0B2FBF1F001FB10226EF30F201202B2FBAC
S11353F0F1FE4EEA00207F3406DDFE2C24DA53EA67
S1135400500050EBC45010BDD4F1020401FB1E2225
S113541040F08071192C1DDC21FA04F0C4F1200441
S1135420A140114371F10042584110BD9C421ABF82
S113543003EAD1529A420FE080EA010E0EF00043D3
S1135440400004D0490016D143F0FF4010BD49008C
S113545008BFD343180010BD9C4205D1D21AF7D01F
S113546001F00041484010BD4A0212BF08464840BE
S113547000F0004010BD4AB90902B1FA81F291402E
S113548044B1A418C00140F000409EE7C90141F0B6
S1135490004152420002B0FA80F4A040141B94E789
S11354A000000000000000000000000000000000F8
S11354B0000000F80000000000000033300000008D
S11354C000100C06100C0600000000000000000094
S11354D040C07840C0784000043F04043F04040006
S11354E0007088FC08300000001820FF211E000016
S11354F0F008F000E018000000211C031E211E002B
S113550000F00888700000001E21232419272110B0
S113551010160E0000000000000000000000000053
S1135520000000E0180402000000000718204000FA
S113553000020418E00000000040201807000000EA
S1135540404080F0804040000202010F010202004E
S1135550000000F0000000000101011F0101010032
S1135560000000000000000080B070000000000097
S11355700000000000000000000101010101010120
S113558000000000000000000030300000000000B7
S1135590000000008060180400601806010000008C
S11355A000E010080810E000000F102020100F0089
S11355B0001010F8000000000020203F2020000010
S11355C00070080808887000003028242221300068
S11355D000300888884830000018202020110E0070
S11355E00000C02010F8000000070424243F240019
S11355F000F80888880808000019212020110E00EE
S113560000E0108888180000000F112020110E00FF
S113561000380808C83808000000003F00000000F7
S11356200070880808887000001C222121221C00B8
S113563000E010080810E0000000312222110F00E1
S1135640000000C0C0000000000000303000000076
S113565000000080000000000000806000000000E6
S113566000008040201008000001020408102000FF
S1135670404040404040400004040404040404004A
S113568000081020408000000020100804020100DF
S1135690007048080808F0000000003036010000DF
S11356A0C030C828E810E0000718272423140B0092
S11356B00000C038E0000000203C2302022738200C
S11356C008F8888888700000203F202020110E00F0
S11356D0C0300808080838000718202020100800E7
S11356E008F808080810E000203F202020100F00D0
S11356F008F88888E8081000203F2020232018009C
S113570008F88888E8081000203F20000300000003
S1135710C03008080838000007182020221E0200A4
S113572008F808000008F808203F210101213F2063
S1135730000808F8080800000020203F202000008E
S113574000000808F8080800C08080807F0000007E
S113575008F888C028180800203F200126382000B7
S113576008F8080000000000203F2020202030001E
S113577008F8F800F8F80800203F003F003F200038
S113578008F830C00008F808203F200007183F0040
S1135790E01008080810E0000F10202020100F006F
S11357A008F808080808F000203F21010101000062
S11357B0E01008080810E0000F18242438504F00A7
S11357C008F8888888887000203F2000030C302067
S11357D000708808080838000038202121221C00A5
S11357E0180808F8080818000000203F20000000EE
S11357F008F808000008F808001F202020201F00D7
S11358000878880000C83808000007380E01000036
S1135810F80800F80008F800033C0700073C030000
S1135820081868808068180820302C03032C302066
S11358300838C800C83808000000203F20000000D5
S113584010080808C838080020382621202018002D
S1135850000000FE020202000000007F4040400001
S1135860000C30C000000000000000010638C00039
S113587000020202FE000000004040407F000000E1
S11358800000040202020400000000000000000006
S11358900000000000000000808080808080808004
S11358A000020204000000000000000000000000EC
S11358B000008080808000000019242222223F20E2
S11358C008F8008080000000003F112020110E0025
S11358D00000008080800000000E112020201100B4
S11358E0000000808088F800000E112020103F2066
S11358F00000808080800000001F222222221300EA
S1135900008080F0888888180020203F2020000034
S11359100000808080808000006B949494936000E9
S113592008F8008080800000203F210000203F20F4
S113593000809898000000000020203F20200000F4
S1135940000000809898000000C08080807F0000E4
S113595008F8000080808000203F24022D302000C1
S1135960000808F8000000000020203F202000006C
S11359708080808080808000203F20003F20003F86
S11359808080008080800000203F210000203F2094
S11359900000808080800000001F202020201F0045
S11359A0808000808000000080FFA12020110E0074
S11359B00000008080808000000E112020A0FF8065
S11359C0808080008080800020203F212000010012
S11359D00000808080808000003324242424190067
S11359E0008080E0808000000000001F2020000074
S11359F08080000000808000001F202020103F20B5
S1135A00808080000080808000010E300806010044
S1135A1080800080008080800F300C030C300F00E9
S1135A2000808000808080000020312E0E31200014
S1135A30808080000080808080818E701806010044
S1135A4000808080808080000021302C2221300062
S1135A5000000000807C020200000000003F404083
S1135A6000000000FF00000000000000FF00000034
S1135A700002027C800000000040403F0000000063
S1135A8000060101020204040000000000000000FE
S1135A90DFF800F07504FF1F80B57348006850F408
S1135AA07850714908601021052000F02FF86F49E3
S1135AB008606E4800684FF47A7148436C49086086
S1135AC06B4800686B490968C1F30361491CB0FB6A
S1135AD0F1F06949086000F003F800F00CF801BD2A
S1135AE06648006850F480506449086064484FF484
S1135AF0E061016070476348006850F0010061494B
S1135B00086061484FF4A0610160704780B50A00E5
S1135B10C0B2092801D30020A4E0D2B2112A01D3D3
S1135B2001209FE0594A00231370594A126852F029
S1135B308052574B1A60574A127852F08002554BE4
S1135B401A70554A98231370544A1278D206FBD41B
S1135B50524A1278C2F38102D2B2022AF8D1504AD0
S1135B600E2313704F4A00231370C0B200280BD0C9
S1135B7002281FD013D3042832D026D3062845D0B8
S1135B8039D307284DD056E00123002200210020FC
S1135B90FFF77EFF43484121017032214BE003238C
S1135BA0012201210020FFF773FF3E485A210170B2
S1135BB0642140E00323012201210020FFF768FF54
S1135BC0384858210170782135E001230022002152
S1135BD00020FFF75DFF33484021017030212AE0A7
S1135BE00523022202210020FFF752FF2D484F21F6
S1135BF0017096211FE00723022202210020FFF7F3
S1135C0047FF28485E210170B42114E007230222D3
S1135C1002210020FFF73CFF22485E210170CF21C2
S1135C2009E00823022202210020FFF731FF1D486A
S1135C305E210170E121194800788006FBD51748E0
S1135C4000784006FBD51448007810F03F00124A53
S1135C50107012480078C0F38100C0B20328F8D154
S1135C600800C0B202BD0000388004402407FF1FB2
S1135C702007FF1F448004402807FF1F04800440BE
S1135C8018900440408004400CB004400140064099
S1135C903480044008C007400040064006400640E7
S1135CA0044006400540064080B572B63648007888
S1135CB0D0F114003549087034480078022807D31D
S1135CC03248007832490978884201D1FDF7D3FA85
S1135CD02F480078401C2E4908702D48007814285D
S1135CE00AD32B48002101702A48FDF71AFBFDF75F
S1135CF085FB29480121017028480078401C274968
S1135D000870FEF711F926480078401C24490870F1
S1135D1023480078012807D02AD303280DD00BD3B9
S1135D20052822D020D323E01E48B0F90000002823
S1135D3001D1FEF78DF81BE01AE01B48B0F9000012
S1135D40002810D1FEF714F918480078401C1749B0
S1135D50087016480078042805D3154801210180ED
S1135D6012480021017003E002E00D480021017097
S1135D701048006850F001000E4908600020FFF749
S1135D8072F862B601BD00BF1E04FF1FA107FF1F0A
S1135D909E07FF1F9406FF1FA007FF1F2E07FF1F6C
S1135DA09D07FF1F9207FF1F9007FF1F9F07FF1FFD
S1135DB08807FF1F0C71034080B500F055F800F010
S1135DC005F8FFF769FEFAF741FB01BD80B51C48F1
S1135DD01C4988420BD0002006E01949194A52F8A0
S1135DE0202041F82020401CB0F5826FF5D31448E0
S1135DF0FEF7E4FB1449154A1548801A03E01378AA
S1135E000B70521C491C0300581E002BF7D111497A
S1135E101148401A02E000220A70491C0200501E78
S1135E20002AF8D10D490E4A0E48801A03E013786F
S1135E300B70521C491C0300581E002BF7D101BDE6
S1135E400000FF1F000000001004FF1FA05E000000
S1135E50045F0000C004FF1FA307FF1F7404FF1F9B
S1135E60045F0000505F000080B500F009F80A48A4
S1135E7000884FF6FE7108400749088001BD000004
S1135E8072B606484CF22051018004484DF62811A0
S1135E90018062B670470000002005400E200540D6
S1135EA0C004FF1F7F008000AC121E0002000A0124
S1135EB0050064002C01000000007841CDCC6C4149
S1135EC00000A0413333B341000070410000504151
S1135ED000005841000058410000003F0000C0414C
S1135EE000009441000094410000B8410000A0412A
S1135EF00000C03FE6007201E600F40105FFFF0167
S1135F00FF00000070B4104C24680F4D2D6855F448
S1135F107F050D4E3560090611F0706151EA00707D
S1135F20110511F470010843190411F47021084398
S1135F3006490860002000E0401CC0B29842FBD330
