S022000050452056322E3020323031342E30382E3230207469616F7368692E7372656349
S1130000F8FF0020110400006F6200006F6200001E
S11300106F6200006F6200006F6200006F62000098
S11300206F6200006F6200006F6200006F62000088
S11300306F6200006F6200006F6200006F62000078
S11300406F6200006F6200006F6200006F62000068
S11300506F6200006F6200006F6200006F62000058
S11300606F6200006F6200006F6200006F62000048
S11300706F6200006F6200006F6200006F62000038
S11300806F6200006F6200006F6200006F62000028
S11300906F6200006F6200006F6200006F62000018
S11300A06F6200006F6200006F6200006F62000008
S11300B06F6200006F6200006F6200006F620000F8
S11300C06F6200006F6200006F6200006F620000E8
S11300D06F6200006F6200006F6200006F620000D8
S11300E06F6200006F6200006F6200006F620000C8
S11300F06F6200006F6200006F6200006F620000B8
S11301006F6200006F6200006F6200006F620000A7
S11301106F6200006F6200006F6200006F62000097
S11301206F6200006F6200006F6200006F62000087
S11301306F6200006F6200006F6200006F62000077
S11301406F6200006F6200006F6200006F62000067
S1130150197100006F6200006F6200006F6200009E
S11301606F6200006F6200006F6200006F62000047
S11301706F6200006F6200006F6200006F62000037
S11301806F6200006F6200006F6200006F62000027
S11301906F6200006F6200006F6200006F62000017
S1130400FFFFFFFFFFFFFFFFFFFFFFFFFEFFFFFFF9
S11304104FF000004FF000014FF000024FF00003D6
S11304204FF000044FF000054FF000064FF00007B6
S11304304FF000084FF000094FF0000A4FF0000B96
S11304404FF0000C62B607F097F8FEE710B50022F3
S113045000240023DFF87017002003E000220A7054
S1130460491C401CC0B28A28F8D3DFF8601700206A
S113047003E000220A70491C401CC0B28A28F8D349
S113048002F07EF8DFF848270021002002F087FB05
S1130490DFF8402700213C2002F081FBDFF83827F9
S11304A00221002002F07BFBDFF8302702213C20F0
S11304B002F075FBDFF828270421002002F06FFB0F
S11304C0DFF8202704213C2002F069FB02F02AFC1B
S11304D002F068FCDFF8C41D08706E2002F0EAFD2B
S11304E0DFF8B80D0078012840F08680DFF8AC0D05
S11304F0FF210170DFF8F0060121017002F0B9F963
S113050073E0DFF8E8260021002002F048FBDFF862
S1130510E006027800213C2002F0D3FA63A2022113
S1130520002002F03CFBDFF8CC2602213C2002F044
S113053036FB5FA20421002002F031FBDFF8B8266D
S113054004213C2002F02BFB5AA20621002002F0D9
S113055026FBDFF8A82606213C2002F020FB6E20B3
S113056002F0A8FD02F0DEFB02F01CFCDFF8A81D7F
S11305700870DFF8A40D0078FF2805D0DFF81C0D03
S1130580DFF8941D09780170DFF8100D0078072852
S11305900AD1DFF85C060078401CDFF854160870B6
S11305A0DFF8F80CFF210170DFF8F00C0078082860
S11305B00AD1DFF83C060078401EDFF834160870D4
S11305C0DFF8D80CFF210170DFF8D00C007809287F
S11305D00BD1DFF81406FF210170DFF8C00CFF21F6
S11305E00170DFF8340DFF210170DFF8FC0500789D
S11305F0012886D002F03DF9DFF8F40500780128DF
S113060027D1DFF8FC054FF4B4710180DFF8F4055D
S11306104FF48C710180DFF8F005DFF8F01501600C
S1130620DFF8EC05DFF8EC150160DFF8280E3C215B
S11306300180DFF8240E7FF013010180DFF8D80574
S1130640DFF8D8150160DFF8D805DFF8D8150160A8
S11306505DE0DFF89C05007802282DD1DFF8A005C5
S11306604FF4AF710180DFF89C054FF4877101806E
S1130670DFF89405DFF8B0150160DFF89405DFF8C2
S113068094150160DFF8CC0D50210180DFF8C80D0E
S113069000210180DFF88005DFF890150160DFF8A4
S11306A080055FF07C51016031E000BF2B3A00000F
S11306B02D3A000052653A00DFF83405007803282B
S11306C025D1DFF83C054FF4AA710180DFF8340529
S11306D04FF482710180DFF83005DFF8A81D016056
S11306E0DFF82C05DFF82C150160DFF8680D5A21BE
S11306F00180DFF8640D00210180DFF81C05DFF8BC
S113070024150160DFF81805DFF87C1D0160DFF8AF
S11307108C0B0078022840F08380DFF8800BFF21E7
S11307200170DFF8C4040221017002F0A2F870E045
S11307306E2002F0BFFC02F0F5FA02F033FBDFF8A2
S1130740D81B0870DFF8D00B0078FF2805D0DFF83D
S11307504C0BDFF8C41B09780170DFF8302D002141
S1130760002002F01CFADFF89804B0F90020002100
S11307703C2002F068FADBA20221002002F00FFA0A
S1130780DFF80C2D02213C2002F009FADCA204213E
S1130790002002F004FADFF8FC2C04213C2002F0D3
S11307A0FEF9D8A20621002002F0F9F9DFF8E82CBE
S11307B006213C2002F0F3F9DFF8E00A007807286C
S11307C00AD1DFF83C040088401DDFF834140880A7
S11307D0DFF8C80AFF210170DFF8C00A0078082892
S11307E00AD1DFF81C040088401FDFF814140880C5
S11307F0DFF8A80AFF210170DFF8A00A00780928B1
S113080007D1DFF8E403FF210170DFF8900AFF212C
S11308100170DFF8D4030078022889D002F029F8A7
S1130820DFF8780A007803287CD1DFF8700AFF210A
S11308300170DFF8B4030321017002F01AF86BE0D1
S11308406E2002F037FC02F06DFA02F0ABFADFF82A
S1130850C81A0870DFF8C00A0078FF2805D0DFF84E
S11308603C0ADFF8B41A09780170DFF8302C002153
S1130870002002F094F9DFF88C03B0F90020002185
S11308803C2002F0E0F997A20221002002F087F94F
S1130890DFF8FC2B02213C2002F081F998A204210C
S11308A0002002F07CF9DFF8EC2B04213C2002F05C
S11308B076F994A20621002002F071F9DFF8D82B12
S11308C006213C2002F06BF9DFF8D00900780728F4
S11308D008D1CC480088401DCA490880DFF8BC090B
S11308E0FF210170DFF8B4090078082808D1C54851
S11308F00088401FC3490880DFF8A009FF21017068
S1130900DFF898090078092806D1B748FF2101705B
S1130910DFF88809FF210170B348007803288FD0DD
S113092001F0A7FFDFF874090078042840F09580EF
S1130930DFF86809FF210170AB480421017001F060
S113094098FF83E09EA20021002002F028F9AE481F
S11309500068DFF84C1B02F0D1FB02F03BFC80B2D4
S1130960020000213C2002F06EF95EA20221002068
S113097002F015F99F4A02213C2002F010F960A20E
S11309800421002002F00BF99B4A04213C2002F0D0
S113099006F95CA20621002002F001F9974A06211B
S11309A03C2002F0FCF86E2002F084FB02F0BAF95D
S11309B002F0F8F9DFF860190870DFF85C090078D4
S11309C0FF2805D0DFF8D408DFF84C190978017046
S11309D0DFF8C8080078072811D18B48006802F0B6
S11309E01BFCDFF8C02ADFF8203E02F04DFC02F0C9
S11309F0BFFC85490860DFF8A408FF210170DFF817
S1130A009C080078082811D17F48006802F004FC93
S1130A10DFF8902ADFF8F43D02F036FC02F0A8FC7F
S1130A2079490860DFF87408FF210170DFF86C0869
S1130A30007809280AD16C48FF210170DFF85C08AE
S1130A40FF210170DFF8D008FF21017066480078AB
S1130A5004283FF477AF01F00CFFDFF8400800787A
S1130A60052840F09C80DFF83408FF2101705E48BF
S1130A700521017001F0FDFE8AE06E2002F01AFBF0
S1130A8002F050F902F08EF9DFF88C180870DFF8E4
S1130A9088080078FF2805D0DFF80008DFF8781808
S1130AA00978017047A20021002002F078F8584824
S1130AB00068DFF8EC1902F021FB02F08BFB80B236
S1130AC0020000213C2002F0BEF806A20221002010
S1130AD002F065F8DFF8B82902213C2002F05FF843
S1130AE007A201E02B3A00000421002002F057F88D
S1130AF0DFF8A02904213C2002F051F801A203E010
S1130B002D3A000052653A000621002002F047F811
S1130B10DFF8842906213C2002F041F8DFF87C0745
S1130B200078072811D13A48006802F075FBDFF815
S1130B307429DFF8D43C02F0A7FB02F019FC344915
S1130B400860DFF85807FF210170DFF850070078CC
S1130B50082811D12E48006802F05EFBDFF8442912
S1130B60DFF8A83C02F090FB02F002FC2849086080
S1130B70DFF82807FF210170DFF820070078092833
S1130B8006D11948FF210170DFF81007FF21017019
S1130B901548007805283FF470AF01F06AFEDFF8CD
S1130BA0FC060078062840F0BB80DFF8F006FF2141
S1130BB001700D480621017001F05BFEA9E000BF41
S1130BC04B703A004B643A00CC06FF1F4C07FF1FE2
S1130BD00C780000147800001C78000024780000D1
S1130BE02C780000A07700007504FF1F3478000003
S1130BF06004FF1F3C780000447800004C7800003B
S1130C006404FF1F6604FF1F4C04FF1F9A999D4153
S1130C105004FF1F0000A8415804FF1FCDCC4C3FD7
S1130C205C04FF1F9A99193F000090413333333F0E
S1130C306E2002F03FFA02F075F802F0B3F8DFF824
S1130C40D8160870DFF8D0060078FF2805D0DFF842
S1130C504C06DFF8C41609780170DFF84C2800212F
S1130C60002001F09CFFDFF84408B0F900200021C7
S1130C703C2001F0E8FFCBA20221002001F08FFF0D
S1130C80DFF80C2802213C2001F089FFE3A20421B3
S1130C90002001F084FFDFF8FC2704213C2001F050
S1130CA07EFFDFA20621002001F079FFDFF8E827AC
S1130CB006213C2001F073FFDFF8E00500780728E7
S1130CC00AD1DFF8E8070088401CDFF8E017088045
S1130CD0DFF8C805FF210170DFF8C0050078082897
S1130CE00AD1DFF8C8070088401EDFF8C017088063
S1130CF0DFF8A805FF210170DFF8A00500780928B6
S1130D0007D1DFF8AC07FF210170DFF89005FF2160
S1130D100170DFF89C070078062889D001F0A9FD4E
S1130D20DFF8780500780A287FF4ACABDFF86C05AF
S1130D30FF21017001F09DFDDFF878070268DFF8FC
S1130D4078070168DFF87407006802F05DFBFA2099
S1130D5002F0B0F9DFF868270021002001F01FFF3E
S1130D60DFF8602700213C2001F019FFDFF8582745
S1130D700221002001F013FFDFF850270421002096
S1130D8001F00DFFDFF8482704213C2001F007FFA4
S1130D90DFF840270621002001F001FF01F0C2FF27
S1130DA002F000F8DFF8F41408706E2002F082F903
S1130DB0DFF8E8040078012840F08380DFF8DC04E1
S1130DC0FF210170DFF8E8060121017001F051FDF7
S1130DD070E06E2002F06EF901F0A4FF01F0E2FF72
S1130DE0DFF834150870DFF830050078FF2805D0E7
S1130DF0DFF8A804DFF8201509780170DFF8D82699
S1130E000021002001F0CBFEDFF84806B0F90020F5
S1130E1000213C2001F017FF62A20221002001F012
S1130E20BEFEDFF86C2602213C2001F0B8FE7BA256
S1130E300421002001F0B3FEDFF8582604213C20F1
S1130E4001F0ADFE76A20621002001F0A8FEDFF835
S1130E50482606213C2001F0A2FEDFF84004007879
S1130E6007280AD1DFF8EC050088401DDFF8E415F7
S1130E700880DFF82804FF210170DFF820040078DF
S1130E8008280AD1DFF8CC050088401FDFF8C41514
S1130E900880DFF80804FF210170DFF800040078FF
S1130EA0092807D1DFF80806FF210170DFF8EC03F9
S1130EB0FF210170DFF8F8050078012889D001F0DE
S1130EC0D8FCDFF8D8030078022840F08380DFF8EC
S1130ED0CC03FF210170DFF8D8050221017001F075
S1130EE0C8FC70E06E2002F0E5F801F01BFF01F091
S1130EF059FFDFF824140870DFF81C040078FF2879
S1130F0005D0DFF89803DFF8101409780170DFF8D2
S1130F10CC250021002001F042FEDFF83C05B0F9A9
S1130F20000002F051FC020000213C2001F08BFE85
S1130F301CA20221002001F032FEDFF85425022118
S1130F403C2001F02CFE35A20421002001F027FEF4
S1130F50DFF8402504213C2001F021FE30A20621C7
S1130F60002001F01CFEDFF8302506213C2001F0B2
S1130F7016FECA480078072809D1DFF8DC04008887
S1130F80401DDFF8D4140880C448FF210170C34811
S1130F90007808280CD1DFF8C0040088401FDFF86F
S1130FA0B81401E02B3A00000880BC48FF2101700E
S1130FB0BA480078092806D1DFF8F404FF2101704B
S1130FC0B648FF210170DFF8E8040078022889D0D0
S1130FD001F04FFCB1480078032840F07E80AF4810
S1130FE0FF210170DFF8C8040321017001F041FC06
S1130FF06CE06E2002F05EF801F094FE01F0D2FE87
S1131000C5490870C4480078FF2803D0A348C249E2
S113101009780170DFF84C2D04E000BF2D3A000080
S113102052653A000021002001F0B9FDDFF8380DC7
S1131030B0F9002000213C2001F005FEB7A20221F6
S1131040002001F0ACFDDFF8482402213C2001F02F
S1131050A6FDB3A20421002001F0A1FDDFF8342491
S113106004213C2001F09BFDAEA20621002001F0EA
S113107096FDDFF8242406213C2001F090FD8748EA
S11310800078072809D1DFF8E00C0088401DDFF85C
S1131090D81C08808148FF21017080480078082806
S11310A009D1DFF8C40C0088401FDFF8BC1C08809D
S11310B07A48FF21017079480078092806D1DFF8C1
S11310C0F003FF2101707548FF210170DFF8E00390
S11310D0007803288DD001F0CCFB704800780428F8
S11310E079D16E48FF210170DFF8C4030421017037
S11310F001F0BFFB69E0DFF8D82D0021002001F0EA
S11311004EFDDFF8D00DB0F9002092B200213C2052
S113111001F0D7FC81A20221002001F040FDDFF89C
S1131120B82D02213C2001F03AFD7DA204210020CB
S113113001F035FDDFF8A42D04213C2001F02FFD42
S113114078A20621002001F02AFDDFF8942D062163
S11311503C2001F024FD6E2001F0ACFF01F0E2FD23
S113116001F020FE6C4908706B480078FF2803D01A
S11311704A4869490978017048480078072809D124
S1131180DFF8500D0088401DDFF8481D08804348F3
S1131190FF21017041480078082809D1DFF8340D97
S11311A00088401FDFF82C1D08803C48FF21017097
S11311B03A480078092808D1BD48FF210170374812
S11311C0FF2101705448FF210170B94800780428B8
S11311D091D001F04EFB31480078052877D12F4893
S11311E0FF210170B2480521017001F042FB68E063
S11311F06E2001F05FFF01F095FD01F0D3FD46493B
S1131200087045480078FF2803D0244842490978EB
S11312100170DFF8D02C0021002001F0C0FCDFF8C1
S1131220C80CB0F9002000213C2001F04AFC3BA28C
S11312300221002001F0B3FC954A02213C2001F078
S1131240AEFC37A20421002001F0A9FC914A04213C
S11312503C2001F0A4FC33A20621002001F09FFCF5
S11312608D4A06213C2001F09AFC0C48007807289E
S113127009D1DFF8740C0088401DDFF86C1C08806D
S11312800648FF2101700548007808280DD1DFF8D1
S1131290580C0088401FDFF8501C01E07304FF1F46
S11312A00880DFF8480CFF210170DFF8400C00785B
S11312B0092806D17E48FF210170DFF8300CFF2198
S11312C001707B480078052892D001F0D2FADFF84B
S11312D01C0C0078062840F08380DFF8100CFF21F6
S11312E0017073480621017001F0C3FA72E06E20A8
S11312F001F0E0FE01F016FD01F054FD064908700E
S113130005480078FF2804D0DFF8E00B024909788B
S11313100170DFF8DC2B07E07204FF1F2B3A00009A
S11313202D3A000052653A000021002001F037FCFC
S1131330DFF8C00BB0F9002000213C2001F083FC51
S1131340E6A20221002001F02AFC514A02213C209D
S113135001F025FCE2A20421002001F020FC4D4A0A
S113136004213C2001F01BFCDEA20621002001F038
S113137016FC494A06213C2001F011FCDFF86C0BF5
S1131380007807280AD1DFF86C0B0088401DDFF8CD
S1131390641B0880DFF8540BFF210170DFF84C0B4D
S11313A0007808280AD1DFF84C0B0088401FDFF8CA
S11313B0441B0880DFF8340BFF210170DFF82C0B8D
S11313C00078092806D13A48FF210170DFF81C0B88
S11313D0FF21017036480078062888D001F049FAC8
S11313E0DFF8080B00780A287FF4B1ACDFF8FC0AB8
S11313F0FF21017001F03DFAFA2001F05BFEDFF8F5
S1131400F82A0021002001F0CAFBDFF8F02A0021AD
S11314103C2001F0C4FBDFF8E82A0221002001F09F
S1131420BEFBDFF8E02A02213C2001F0B8FBDFF824
S1131430D82A0421002001F0B2FBDFF8D02A0421CD
S11314403C2001F0ACFB01F06DFC01F0ABFCDFF8DB
S11314509C1A03E02C04FF1F6E04FF1F08706E200B
S113146001F028FEDFF8840A0078012840F0B380F8
S1131470DFF8780AFF2101700D480121017001F0A5
S1131480F8F9A1E000008841CDCCCC3EAC77000057
S1131490547800005C78000064780000B87700009D
S11314A0000020419A9999996C7800003E04FF1F2E
S11314B07504FF1F8004FF1F7C04FF1F7804FF1FB7
S11314C0747800007C780000847800008C78000038
S11314D0C4770000947800009C780000A478000091
S11314E0DFF82C2A0021002001F059FBDFF8240A40
S11314F0027800213C2001F0E4FA78A202210020C5
S113150001F04DFBDFF8D02902213C2001F047FB1C
S113151073A20421002001F042FBDFF8C02904215A
S11315203C2001F03CFB6FA20621002001F037FBB8
S1131530DFF8AC2906213C2001F031FB6E2001F0DC
S1131540B9FD01F0EFFB01F02DFCDFF8181E087067
S1131550DFF8100E0078FF2805D0DFF89009DFF8D7
S1131560041E09780170DFF88409007807280AD17D
S1131570DFF8A0090078401CDFF898190870DFF83C
S11315806C09FF210170DFF86409007808280AD18A
S1131590DFF880090078401EDFF878190870DFF85A
S11315A04C09FF210170DFF84409007809280BD1A8
S11315B0DFF8B40DFF210170DFF83009FF2101705D
S11315C0DFF8A00DFF210170DFF89C0D00780128E1
S11315D086D001F04EF9DFF814090078022840F0B3
S11315E0A380DFF80809FF210170DFF87C0D0221D8
S11315F0017001F03EF98FE06E2001F05BFD01F017
S113160091FB01F0CFFBDFF85C1D0870DFF8540D8F
S11316100078FF2805D0DFF8D408DFF8481D0978E2
S11316200170DFF8482D0021002001F0B8FADFF83E
S1131630400D0068DFF83C1D01F060FD01F0CAFDBB
S113164080B2020000213C2001F0FDFA23A2022115
S1131650002001F0A4FADFF8202D02213C2001F043
S11316609EFA1FA20421002001F099FADFF80C2D44
S113167004213C2001F093FA1AA20621002001F073
S11316808EFADFF8FC2C06213C2001F088FADFF802
S11316905C080078072812D1DFF8D40C006801F048
S11316A0BBFDDFF8E02C584B01F0EEFD01F060FECD
S11316B0DFF8BC1C0860DFF83408FF210170DFF894
S11316C02C08007808281AD1DFF8A40C006801F06F
S11316D0A3FDDFF8B02C4D4B06E000BF2B3A000011
S11316E02D3A000052653A0001F0CEFD01F040FEB3
S11316F0DFF87C1C0860DFF8F407FF210170DFF8D5
S1131700EC070078092807D1DFF85C0CFF21017091
S1131710DFF8D807FF210170DFF84C0C00780228AD
S11317203FF46AAF01F0A5F8DFF8C007007803289A
S113173040F08780DFF8B407FF210170DFF8280C40
S11317400321017001F095F874E06E2001F0B2FC01
S113175001F0E8FA01F026FBDFF8081C0870DFF856
S1131760040C0078FF2805D0DFF88007DFF8F41BAD
S113177009780170DFF8E82D0021002001F00FFA4C
S1131780DFF8E00D027800213C2001F05CFAE6A2CB
S11317900221002001F003FADFF8DC2B02213C20B7
S11317A001F0FDF9E1A20421002001F0F8F9DFF8CD
S11317B0CC2B04213C2001F0F2F9DDA2062100200B
S11317C001F0EDF9DFF8B82B06213C2001F0E7F930
S11317D0DFF81807007807280AD1DFF8880D0078A9
S11317E0401CDFF8801D0870DFF80007FF2101703E
S11317F0DFF8F806007808280FD1DFF8680D0078C4
S1131800401EDFF8601D03E09999B93F9999B9BF6B
S11318100870DFF8D806FF210170DFF8D0060078E1
S1131820092807D1DFF8400BFF210170DFF8BC065F
S1131830FF210170DFF8300B0078032885D001F018
S113184018F8DFF8A8060078042840F0A180DFF833
S11318509C06FF210170DFF8100B0421017001F0D8
S113186008F88DE0DFF8002D0021002001F097F941
S1131870DFF8F80C0068DFF8F81C01F03FFC01F019
S1131880A9FC80B2020000213C2001F0DCF9A6A2F0
S11318900221002001F083F9DFF83C2602213C20DC
S11318A001F07DF9A1A20421002001F078F9DFF80C
S11318B02C2604213C2001F072F99DA2062100206F
S11318C001F06DF9DFF8182606213C2001F067F9D4
S11318D06E2001F0EFFB01F025FA01F063FADFF866
S11318E0841A0870DFF87C0A0078FF2805D0DFF836
S11318F0FC05DFF8701A09780170DFF8F00500784C
S1131900072813D1DFF8640C006801F085FCDFF8C8
S1131910642CDFF8643C01F0B7FC01F029FDDFF82A
S11319204C1C0860DFF8C405FF210170DFF8BC051A
S11319300078082813D1DFF8340C006801F06CFC3F
S1131940DFF8302CDFF8343C01F09EFC01F010FD90
S1131950DFF8181C0860DFF89405FF210170DFF838
S11319608C05007809280BD1DFF8FC09FF210170F0
S1131970DFF87805FF210170DFF8E809FF21017025
S1131980DFF8E409007804283FF46CAF00F071FF3D
S1131990DFF858050078052840F09D80DFF84C05F5
S11319A0FF210170DFF8C0090521017000F061FF1B
S11319B089E06E2001F07EFB01F0B4F901F0F2F948
S11319C0DFF8A0190870DFF89C090078FF2805D01B
S11319D0DFF81805DFF88C1909780170DFF8302C6E
S11319E00021002001F0DBF8DFF8280C0068DFF8A4
S11319F0801B01F083FB01F0EDFB80B202000021AB
S1131A003C2001F020F948A20221002001F0C7F88F
S1131A10DFF8642902213C2001F0C1F843A204212B
S1131A20002001F0BCF8DFF8542904213C2001F027
S1131A30B6F83FA20621002001F0B1F8DFF84029F2
S1131A4006213C2001F0ABF8DFF8A0040078072859
S1131A5013D1DFF8C00B006801F0DEFBDFF8142BB4
S1131A60DFF8143B01F010FC01F082FCDFF8A41B4A
S1131A700860DFF87804FF210170DFF87004007853
S1131A80082813D1DFF88C0B006801F0C5FBDFF8E0
S1131A90E42ADFF8E83A01F0F7FB01F069FCDFF82B
S1131AA0741B0860DFF84404FF210170DFF83C0474
S1131AB00078092807D1DFF8B008FF210170DFF8AA
S1131AC02C04FF210170DFF8A008007805283FF4FA
S1131AD070AF00F0CEFEDFF814040078062840F062
S1131AE08480DFF80804FF210170DFF87C080621F8
S1131AF0017000F0BEFE71E06E2001F0DBFA01F02F
S1131B0011F901F04FF9DFF85C180870DFF8540898
S1131B100078FF2805D0DFF8D403DFF848180978E7
S1131B200170DFF8F42A05E02B3A00002D3A00009A
S1131B3052653A000021002001F031F8DFF8DC0A98
S1131B40B0F9002000213C2001F07DF887A2022199
S1131B50002001F024F8DFF8202802213C2001F0C5
S1131B601EF883A20421002001F019F8DFF80C28E4
S1131B7004213C2001F013F87EA20621002001F08C
S1131B800EF8DFF8FC2706213C2001F008F8D748BE
S1131B900078072809D1DFF8840A0088401DDFF89F
S1131BA07C1A0880D148FF210170D04800780828A9
S1131BB009D1DFF8680A0088401FDFF8601A08803E
S1131BC0CA48FF210170C9480078092806D1DFF806
S1131BD09807FF210170C548FF210170DFF88807CD
S1131BE00078062888D000F044FEC04800780A280F
S1131BF07FF402ACBD48FF21017000F03AFEFA20E8
S1131C0001F058FADFF81C2A0021002000F0C7FF79
S1131C10DFF8142A00213C2000F0C1FFDFF80C2A71
S1131C200221002000F0BBFFDFF8042A02213C203F
S1131C3000F0B5FF01F076F801F0B4F8AB49087094
S1131C406E2001F037FAA948007801287AD1A74814
S1131C50FF210170DFF810070121017000F009FE77
S1131C6069E0DFF8D0290021002000F098FFDFF8B8
S1131C70C809027800213C2000F023FF3BA2022186
S1131C80002000F08CFF944A02213C2000F087FFE2
S1131C9037A20421002000F082FF904A04213C2056
S1131CA000F07DFF33A20621002000F078FF8C4A6B
S1131CB006213C2000F073FF6E2001F0FBF901F0D7
S1131CC031F801F06FF8DFF89C160870DFF894061D
S1131CD00078FF2804D08548DFF888160978017059
S1131CE082480078072809D1DFF84C090078401CA5
S1131CF0DFF8441908707D48FF2101707B480078A3
S1131D00082809D1DFF830090078401EDFF82819C7
S1131D1008707648FF2101707448007809280AD1B8
S1131D20DFF84406FF2101707048FF210170DFF8DD
S1131D303406FF210170DFF830060078012890D0C6
S1131D4000F097FD69480078022840F085806748D4
S1131D50FF210170DFF810060221017000F089FDF7
S1131D6073E000BFAC7800006C04FF1F2B3A000046
S1131D702D3A000052653A006E2001F09BF900F004
S1131D80D1FF01F00FF8DFF8DC150870DFF8D40597
S1131D900078FF2804D05548DFF8C8150978017089
S1131DA0DFF898280021002000F0F9FEDFF8900801
S1131DB0027800213C2000F046FFD5A20221002039
S1131DC000F0EDFEDFF8B02502213C2000F0E7FE34
S1131DD0D0A20421002000F0E2FEDFF8A0250421B7
S1131DE03C2000F0DCFECCA20621002000F0D7FE4F
S1131DF0DFF88C2506213C2000F0D1FE3B4800781A
S1131E00072809D1DFF838080078401CDFF83018BB
S1131E1008703648FF21017034480078082809D139
S1131E20DFF81C080078401EDFF8141808702F48EB
S1131E30FF2101702D480078092806D1DFF8280514
S1131E40FF2101702948FF210170DFF81C0500788B
S1131E50022891D000F00DFDDFF8E4070078012896
S1131E6004D1DFF8E007512101805EE0DFF8D007FC
S1131E700078022804D1DFF8CC076421018054E003
S1131E80DFF8BC070078032804D1DFF8B80779210C
S1131E9001804AE0DFF8A8070078042804D1DFF8BD
S1131EA0A4079021018040E0DFF89407007805281A
S1131EB004D1DFF89007A921018036E0DFF880071C
S1131EC00078062828D1DFF87C07C42101802CE0A3
S1131ED0B47800002804FF1F3C7800004478000018
S1131EE04C780000BC7800002A04FF1F7304FF1F15
S1131EF0C47800008404FF1FCC780000D47800006C
S1131F00DC780000E4780000EC780000F47800004D
S1131F10FC780000CF08FF1FDFF8240700780728AB
S1131F2003D1DFF82007E1210180DFF81C070078E6
S1131F30032840F08080DFF81007FF210170DFF8EC
S1131F4028040321017000F094FC6EE06E2001F07F
S1131F50B1F800F0E7FE00F025FFDFF80814087080
S1131F60DFF800040078FF2805D0DFF8DC06DFF88E
S1131F70F41309780170DFF8D4260021002000F062
S1131F800EFEDFF8CC06027800213C2000F05BFE58
S1131F905FA20221002000F002FEDFF8DC23022110
S1131FA03C2000F0FCFD5BA20421002000F0F7FDC2
S1131FB0DFF8C82304213C2000F0F1FD56A20621DD
S1131FC0002000F0ECFDDFF8B82306213C2000F0EF
S1131FD0E6FDDFF87406007807280AD1DFF87006FA
S1131FE00078401CDFF868160870DFF85C06FF21F3
S1131FF00170DFF85406007808280AD1DFF850068B
S11320000078401EDFF848160870DFF83C06FF2110
S11320100170DFF834060078092806D1D248FF2180
S11320200170DFF82406FF210170CF4800780328EF
S11320308CD000F01EFCDFF810060078042840F075
S11320408780DFF80406FF210170C748042101706E
S113205000F00FFC76E0DFF8FC250021002000F002
S11320609EFDDFF8F405027800213C2000F0EBFD32
S113207027A20221002000F092FDDFF8E0250221D2
S11320803C2000F08CFD23A20421002000F087FDF9
S1132090DFF8CC2504213C2000F081FD1EA206219E
S11320A0002000F07CFDDFF8BC2506213C2000F078
S11320B076FD6E2000F0FEFF00F034FE00F072FEAC
S11320C0A8490870A7480078FF2804D0DFF87805ED
S11320D0A44909780170DFF87005007807280AD14F
S11320E0DFF874050078401CDFF86C150870DFF821
S11320F05805FF210170DFF850050078082812D137
S1132100DFF854050078401EDFF84C1506E000BFE8
S11321102B3A00002D3A000052653A000870DFF8AF
S11321202805FF210170DFF820050078092809D16E
S11321308D48FF210170DFF81005FF2101708948E7
S1132140FF21017088480078042884D000F091FBB6
S1132150DFF8F40400780A287FF451ADDFF8E804CE
S1132160FF21017000F085FBDFF8FC0400780128F2
S113217009D185A20021002000F011FDFA2000F011
S113218099FF00F076FBDFF8E00402210170DFF82C
S1132190DC0401210180DFF8D80401210180DFF88B
S11321A0D4040078012840F09880DFF8C8040021A6
S11321B00170DFF8C40401F00CFB01F0DBFCDFF874
S11321C0BC040088DFF8B81409880818DFF8AC14D8
S11321D00880DFF8B0040088DFF8AC140988081818
S11321E0DFF8A0140880DFF8A4040088DFF8A01446
S11321F009880818DFF894140880DFF89804008828
S1132200DFF8941409784018DFF888140880641CF7
S1132210200000B20A2860DB0024DFF86004B0F973
S113222000000A2190FBF1F0DFF870140880DFF859
S11322305404B0F900000A2190FBF1F0DFF86014B7
S11322400880DFF84804B0F900000A2190FBF1F09F
S1132250DFF850140880DFF83C04B0F900000A21CC
S113226090FBF1F0DFF840140870DFF82804002137
S11322700180DFF8080400210180DFF80804002150
S11322800180DFF8080400210180DFF818040088C9
S1132290DFF80C140988401ADFF810140880DFF8FE
S11322A01004DFF8081409880180DFF8F003B0F99E
S11322B0002000210A2000F0A2FBDFF8E403B0F9BB
S11322C0002002210A2000F09AFBDFF8D803B0F9BD
S11322D000200221462000F092FB00F023FD00F0D4
S11322E061FD204908701F480078FF2804D0DFF8FA
S11322F058031C4909780170DFF84C0300780C2856
S11323007FF432AFDFF84003FF21017016480C213F
S1132310017000F0AEFA1CE06E2000F0CBFE00F07D
S113232001FD00F03FFD0F4908700E480078FF28BA
S113233003D0C5480B4909780170C34800780C28BC
S113234005D10948FF210170BF48FF21017000F049
S113235090FA054800780C28DED0C34801210170AA
S113236085E000BF7204FF1F7504FF1F047900009D
S11323702404FF1F00002041547800005C78000012
S1132380647800009A999999636A0000C948002109
S11323900170C9480078012815D1C8480088401C3C
S11323A0C6490880C548B0F9000097280BDBC2482D
S11323B000210170C14800210180C1480021018031
S11323C0C04800210170C048007801280CD1BF48E2
S11323D00088401CBD490880BC48B0F9000024288E
S11323E002DBB9480021017002F060FAB848B0F984
S11323F0002000210A2000F002FBB648B0F90020BA
S11324000021462000F0FBFA9F48B0F90020022189
S11324100A2000F0F4FA9E48B0F900200221462078
S113242000F0EDFAAC48B0F900200421462000F099
S113243048FB9F48B0F900200621002000F0DFFA95
S11324409348B0F900009049B1F90010421A0621EE
S1132450462000F0D4FAA148B0F90000012806D1C2
S11324609E480021018002F0A7FB02F05BFC7E483D
S11324700078012813D16AA206213C2000F08FFBCA
S11324804FF47A7000F016FE00F0F3F9774800215B
S11324900180774800210180914801210170724830
S11324A002210170734800780128D4D171480021B9
S11324B00170714801F08DF901F05CFB02F07CF8C9
S11324C08848012101708248B0F90000012824D114
S11324D08048B0F9000001281FD17548B0F9000008
S11324E016306B49B1F90010674AB2F90020891A15
S11324F0884212DA7348007800280ED16D48012111
S113250001707048012101706B4801210170764807
S1132510012101706C48012101706648007801288E
S11325207FF437AF6648B0F90000411C644A11805B
S11325306E49B1F9001000B28842BFF627AF6C486B
S1132540B0F900006B49B1F90010401A01F03CF9F0
S11325501428FFF61EAF664866490988018018E70B
S11325600C790000C508FF1F147900005804FF1FF0
S11325700000C8427B14AE47E17A843FE17A84BF0D
S113258010B572B65FF4E1325B48B0F900105B48F5
S113259003F00EF84FF49671002003F00FF9584839
S11325A0B0F900200221002003F07DFA42F21071FC
S11325B0012003F003F903F080FB03F0E2FB00F0D9
S11325C0B8FF00F07FF94F4A4F49504800F01CFF14
S11325D04FF47A7000F014FF002003F059FC01203E
S11325E003F056FC002402E000F05EFF641CC82CDB
S11325F0FADB00F077FF322000F05CFD4EF660213C
S1132600002003F087FD002003F0B3FD62B610BD87
S11326101C7900005C04FF1F247900003A04FF1FAA
S1132620676F00002C790000D0770000DC77000091
S1132630E877000034790000C608FF1F3C790000E9
S11326406104FF1F4604FF1F7304FF1FF47700009B
S1132650C708FF1F447900003C04FF1F3C780000BA
S1132660447800004C7800007404FF1F4204FF1FEC
S11326704404FF1FCA08FF1FCC06FF1F9008FF1F5A
S11326800808FF1F9208FF1FEA07FF1F9408FF1F97
S11326901404FF1F9608FF1F1E04FF1F1008FF1FCE
S11326A00C08FF1F1604FF1F4004FF1F9808FF1F9C
S11326B00608FF1FD008FF1FD508FF1FA808FF1F2B
S11326C09A08FF1FD108FF1FD608FF1FAA08FF1F83
S11326D07008FF1F7208FF1F5608FF1F8A08FF1F9C
S11326E0CD08FF1FD408FF1FBE08FF1F8404FF1F6F
S11326F01408FF1F1608FF1FE407FF1F00D0064041
S11327002804FF1F9A99993ECDCC4C3D9A99D93F04
S11327100821DFF8F425126852F40032DFF8E835B6
S11327201A6000BFDFF8E025126832F48042DFF857
S1132730D8351A6000BF19E0DFF8CC25126832F4EE
S11327400042DFF8C4351A60DFF8BC25126852F481
S11327508042DFF8B4351A6000BFDFF8AC25126898
S113276032F48042DFF8A0351A6040000A00511E9E
S1132770D2B2002A0AD00206DED5DFF88C25126810
S113278052F40042DFF880351A60DDE7704700003C
S11327900821DFF87425126832F40032DFF8683556
S11327A01A60DFF86425126832F48042DFF8583585
S11327B01A6019E0DFF85025126832F40042DFF89D
S11327C048351A60DFF84025126852F48042DFF879
S11327D038351A6000BFDFF83025126832F48042C1
S11327E0DFF824351A6040000A00511ED2B2002AD4
S11327F00AD00206DED5DFF81025126852F4004232
S1132800DFF804351A60DDE7704710B50400B1F154
S11328105000C0B2FFF7BCFFE4B2200950F0100032
S1132820C0B2FFF7B5FF14F00F0050F00100C0B2C2
S1132830FFF7AEFF10BD70B50400002508E02000CE
S1132840C0B2FFF765FF761CF6B2802EF7D36D1C7D
S1132850EDB2082D0CD2B5F15000C0B2FFF798FFCD
S11328600120FFF795FF1020FFF792FF0026EBE70A
S113287070BD38B5002407E00020FFF749FF6D1C48
S1132880EDB2802DF8D3641CE4B2082C0CD2B4F160
S11328905000C0B2FFF77CFF0120FFF779FF102042
S11328A0FFF776FF0025EBE731BD07E043F2264151
S11328B00A00511E92B2002AFAD1401E80B20028AA
S11328C0F4D1704780B5DFF844044FF4807101609F
S11328D0DFF83C044FF480710160DFF838044FF4F2
S11328E080710160DFF830044FF480710160DFF81B
S11328F02C045FF470310160DFF80C04006850F4BC
S11329008040DFF804140860DFF8FC03006830F44A
S11329108030DFF8F41308603220FFF7C6FFDFF8D9
S1132920E803006850F48030DFF8DC130860AE2060
S1132930FFF72EFF0020FFF72BFF1020FFF728FFE3
S11329404020FFF725FF8120FFF722FFCF20FFF76C
S11329501FFFA120FFF71CFFC820FFF719FFA620C7
S1132960FFF716FFA820FFF713FF3F20FFF710FF24
S1132970D320FFF70DFF0020FFF70AFFD520FFF754
S113298007FF8020FFF704FFD920FFF701FFF120A4
S1132990FFF7FEFEDA20FFF7FBFE1220FFF7F8FE3A
S11329A0DB20FFF7F5FE4020FFF7F2FE2020FFF7C3
S11329B0EFFE0220FFF7ECFE8D20FFF7E9FE142066
S11329C0FFF7E6FEA420FFF7E3FEA620FFF7E0FEF4
S11329D0AF20FFF7DDFE0020FFF72DFF00210020D0
S11329E0FFF713FFFF20FFF726FF642000F062FBD0
S11329F00020FFF720FF642000F05CFB01BD2DE9FF
S1132A00FC4104000D00002600275FF0000864204C
S1132A1092FBF0F08DF80000642092FBF0F100FBD3
S1132A2011200A2190FBF1F08DF801000A2092FB9D
S1132A30F0F100FB11208DF802000020804610E028
S1132A40F6B2300150FA87F0DFF8D4124018007A59
S1132A50FFF75EFE7F1CFFB2082FF1D3083418F194
S1132A6001085FFA88F8B8F1030F28D25FFA88F8F2
S1132A7000A818F8000010F11006E4B2792C01D374
S1132A8000246D1C2900C9B22000C0B2FFF7BDFEAE
S1132A90002709E0F6B2300150FA87F0DFF880121F
S1132AA0405CFFF735FE7F1CFFB2082FF2D3691C90
S1132AB0C9B22000C0B2FFF7A8FE0027CBE7BDE8EB
S1132AC0F3812DE9FC4104000D00002600275FF08E
S1132AD000084FF47A7092FBF0F08DF800004FF488
S1132AE07A7092FBF0F100FB1120642190FBF1F06D
S1132AF08DF80100642092FBF0F100FB11200A2103
S1132B0090FBF1F08DF802000A2092FBF0F100FB3B
S1132B1011208DF803000020804610E0F6B2300149
S1132B2050FA87F0DFF8F8114018007AFFF7F0FD4B
S1132B307F1CFFB2082FF1D3083418F101085FFAA3
S1132B4088F8B8F1040F28D25FFA88F800A818F8BA
S1132B50000010F11006E4B2792C01D300246D1C9E
S1132B602900C9B22000C0B2FFF74FFE002709E0D8
S1132B70F6B2300150FA87F0DFF8A411405CFFF799
S1132B80C7FD7F1CFFB2082FF2D3691CC9B2200015
S1132B90C0B2FFF73AFE0027CBE7BDE8F3812DE989
S1132BA0F84304000D00160000275FF000085FF0F2
S1132BB0000913E0FFB2380150FA88F0DFF8601121
S1132BC04018007AFFF7A4FD18F101085FFA88F8AD
S1132BD0B8F1080FEED3083419F101095FFA89F945
S1132BE019F8060000282CD05FFA89F919F80600B4
S1132BF0B0F12007E4B2792C01D300246D1C290024
S1132C00C9B22000C0B2FFF700FE5FF000080AE07E
S1132C10FFB2380150FA88F0DFF80411405CFFF786
S1132C2077FD18F101085FFA88F8B8F1080FEFD3BF
S1132C30691CC9B22000C0B2FFF7E7FD5FF00008CD
S1132C40C4E7BDE8F1832DE9F04182B004000D0032
S1132C50002600275FF000086420B2FBF0F08DF836
S1132C6000000A20B2FBF0F00A21B0FBF1F301FBF3
S1132C7013008DF801000A20B2FBF0F100FB1120D3
S1132C808DF80200002080460FE0F6B2300150FAC1
S1132C9087F023494018007AFFF73AFD7F1CFFB202
S1132CA0082FF2D3083418F101085FFA88F8B8F154
S1132CB0030F27D25FFA88F800A818F8000010F173
S1132CC01006E4B2792C01D300246D1C2900C9B28A
S1132CD02000C0B2FFF799FD002708E0F6B23001EA
S1132CE050FA87F00E49405CFFF712FD7F1CFFB2DB
S1132CF0082FF3D3691CC9B22000C0B2FFF785FDC9
S1132D000027CCE7BDE8F38100F00F403890044081
S1132D103C900440409004404490044014F00F4020
S1132D20286B000080B5DFF88403006850F48050FD
S1132D30DFF878130860002300220021DFF8700315
S1132D4003F044FA002300220121DFF8640303F0B6
S1132D503DFA002300220221DFF8540303F036FA7F
S1132D60002300220321DFF8480303F02FFA012394
S1132D7000220421DFF8380303F028FA012300229B
S1132D800521DFF82C0303F021FA01230022062198
S1132D90C74803F01BFA002300220721C44803F0AC
S1132DA015FA01BDF8B50025FF24002301220021F6
S1132DB0BF4803F00BFA012301220121BC4803F0B0
S1132DC005FA012301220221B94803F0FFF9012386
S1132DD001220321B64803F0F9F90421B44803F0B1
S1132DE03FFA06000521B24803F03AFA070006212B
S1132DF0AF4803F035FA790111EB061111EB801697
S1132E000721AB4803F02CFA16EBC0100500EDB215
S1132E10702D2AD00A2000F04DF90421A44803F0B3
S1132E201FFA05000521A24803F01AFA060006213C
S1132E309F4803F015FA710111EB051111EB801590
S1132E4007219B4803F00CFA15EBC015EDB2702D69
S1132E500BD0EDB2302D07D0502D03D0602D04D10E
S1132E600A2402E00B2400E00C24012301220021A7
S1132E708F4803F0ABF90023012201218C4803F0B1
S1132E80A5F9012301220221894803F09FF90123B6
S1132E9001220321864803F099F90421844803F0B0
S1132EA0DFF905000521824803F0DAF9060006215E
S1132EB07F4803F0D5F9710111EB051111EB801571
S1132EC007217B4803F0CCF915EBC015EDB2702D4A
S1132ED02AD00A2000F0EEF80421754803F0C0F966
S1132EE005000521724803F0BBF90600062170486D
S1132EF003F0B6F9710111EB051111EB80150721EF
S1132F006B4803F0ADF915EBC015EDB2702D0BD085
S1132F10EDB2302D07D0502D03D0602D04D10724FD
S1132F2002E0082400E00924012301220021604872
S1132F3003F04CF90123012201215D4803F046F915
S1132F400023012202215A4803F040F901230122FF
S1132F500321574803F03AF90421554803F080F956
S1132F6005000521524803F07BF90600062150486C
S1132F7003F076F9710111EB051111EB80150721AE
S1132F804B4803F06DF915EBC015EDB2702D2AD046
S1132F900A2000F08FF80421454803F061F9050088
S1132FA00521434803F05CF906000621404803F07C
S1132FB057F9710111EB051111EB801507213C48FC
S1132FC003F04EF915EBC015EDB2702D0BD0EDB238
S1132FD0302D07D0502D03D0602D04D1042402E0FD
S1132FE0052400E00624012301220021304803F0D7
S1132FF0EDF80123012201212D4803F0E7F8012314
S1133000012202212A4803F0E1F8002301220321CE
S1133010274803F0DBF80421254803F021F90500D3
S11330200521234803F01CF906000621204803F07B
S113303017F9710111EB051111EB801507211C48DB
S113304003F00EF915EBC015EDB2702D2AD00A204D
S113305000F030F80421164803F002F905000521B8
S1133060134803F0FDF806000621114803F0F8F8B0
S1133070710111EB051111EB801507210C4803F0C8
S1133080EFF815EBC015EDB2702D0BD0EDB2302D6D
S113309007D0502D03D0602D04D1012402E0022476
S11330A000E003242000C0B2F2BD000038800440D8
S11330B0C0F00F400D49096851F001010B4A11603D
S11330C00B4908600B48052101600B48006850F06B
S11330D0010009490860084800680006FBD5064855
S11330E00068400840000449086070473880044084
S11330F0080004400400044000000440FF2212EAD7
S1133100D05C1DBF12EAD153944593422BE09C44FA
S1133110D30780EA01021A4043EA002043EA01216E
S1133120A1FB0030410038BF40007CF17F010BDB84
S1133130FE294ADA5B0842EAC15153EA006373F19B
S1133140004C51EB10207047D1F1080CDCF1200148
S11331502FDB5B0810FA01F10B4373F1004120FAF5
S11331600CF05041704794451CBF02EAD15393427E
S113317080EA010202F000421DD0400019D049004B
S113318017D05BB9634514D00902B1FA81F39940B1
S1133190BCEB030CC00140F00040C1E70002B0FAF0
S11331A080FC10FA0CF0B3EB0C0CC90141F00041A7
S11331B0B6E71000704740000AD0490008D010F16B
S11331C0807F94BF11F1807F02E042F0FF4070479E
S11331D0D04370474100090E7F3915D4D1F11F0146
S11331E014D4400007D2C00140F00040C84048BF9A
S11331F06FF000407047C00140F00040C8404CBF31
S11332004FF00040404270470020704700424FF0AA
S1133210004058BFC04370475FF0FF0C1CEAD05118
S113322014BF614506E0C110400721F0E04101F1FF
S11332306051704779B900F0004100020AD0B0FA39
S113324080FC00FA0CF001F16051A1EB0C5101EB90
S1133250D0214005704741020CBF40F4E0016FF0FB
S113326000010020704750F8041B61B150F8042B92
S1133270D30744BFA9F101039A18002342F8043B81
S1133280091FFAD1EFE7704770B44FF0004591EA97
S1133290030C44BF6B4002F0F5BF00BF841A71EB0E
S11332A0030603D2001BB141121973414FF4001CF1
S11332B01CEB410F34BF7CEB430443E00C0DA4EB47
S11332C01356352E50DC45EAC323DB0A45EAC121F7
S11332D0C912B6F120050DDD63FA05F6EB4086EA66
S11332E00305124218BF45F00105C01851F1000151
S11332F00CD213E062FA06F5F2405540F3415A400D
S1133300B340F3405A408018594107D349085FEA53
S113331030005FEA350528BF45F0010501F580114D
S1133320420875F1004250F1000041EB045170BCB9
S11333304FF4001C1CEB410F38BF70470020090DEF
S1133340090570471CEB410F10D252EA43060BD01B
S1133350BCEB410F05D80C0DAB43661E342EB5DD16
S113336002E0AB438018594170BC704770BC704791
S11333704FEAF17CBCF1E04C2CBFBCF5001F11E01E
S11333805FEA4C0C34BFBCF17F5F2EE05FEA9C0C1B
S11333904FEA0C1C4FEA3C0CC10071F100414CEBAC
S11333A050707047C90241EA5051C00218BF41F041
S11333B0010141F000414FEA6C50C0F1090021289D
S11333C010D240EACC7CCCF1200C11FA0CF070F154
S11333D00040CCF1200C21FA0CF00CF0004C40EB36
S11333E00C0070474FEACC707047490011F5001F7C
S11333F004D84FEACC10FF30C0057047C817704797
S11334002649096808607047244B1B689860234864
S11334100068C160214800680261704710B51F4907
S113342009680968081A1E4908601D48006802F006
S1133430DFFF1A4909688968FFF760FE040017482E
S11334400068406902F0D4FF14490968C968FFF7AD
S113345055FE0100200002F0E3FF04000F4800685D
S1133460806902F0C5FF0D4909680969FFF746FE46
S1133470210003F049F8FFF7ADFE0A490860074848
S1133480006806490968496981610448006804497B
S1133490096841610348006810BD00001004FF1F63
S11334A00405FF1F0805FF1F80B514230C221121FA
S11334B0002002F06CFDDFF86816096811FA80F04C
S11334C0DFF85C16086014230C220721012002F0A7
S11334D05EFDDFF84C16496811FA80F0DFF84016FB
S11334E0486001BDDFF838060068C82190FBF1F0A0
S11334F0DFF830160880DFF828064068C82190FB02
S1133500F1F0DFF824160880704780B514230C22EC
S11335101121002002F03BFDDFF81016088014236F
S11335200C220721012002F032FDDFF80416088086
S113353001BD80B5012301220021DFF8F80502F066
S113354045FE012301220121DFF8E80502F03EFED9
S1133550012301220C21DFF8E00502F037FE0123EC
S113356001220D21DFF8D00502F030FE012002F027
S11335708FFC01BD10B5012301220021DFF8B40541
S113358002F024FE01F082FF012301220121DFF871
S1133590A40502F01BFE01F079FF002301220021A3
S11335A0DFF8900502F012FE01F070FF0023012203
S11335B00121DFF8800502F009FE002416E001F085
S11335C065FF01F063FF012301220121DFF8640597
S11335D002F0FCFD01F05AFF01F058FF0023012224
S11335E00121DFF8500502F0F1FD641CE4B27F2CE8
S11335F0E5D301F04BFF01F049FF01230122012132
S1133600DFF8300502F0E2FD01F040FF01F03EFF7B
S1133610002301220121DFF81C0502F0D7FD10BDB3
S113362038B50400012301220021DFF8080502F067
S1133630CDFD01F02BFF012301220121DFF8F40469
S113364002F0C4FD01F022FF002301220021DFF873
S1133650E40402F0BBFD01F019FF002502E001F0D3
S113366015FF6D1CEDB2962DF9D308220621012019
S113367002F035FC2070641C002301220121DFF8D4
S1133680B40402F0A3FD00251DE001F0FFFE01F0EB
S1133690FDFE012301220121DFF8980402F096FDCA
S11336A001F0F4FE01F0F2FE08220621012002F0EE
S11336B016FC2070641C002301220121DFF874042D
S11336C002F084FD6D1CEDB27F2DDED301F0DEFE31
S11336D001F0DCFE012301220121DFF8580402F08D
S11336E075FD01F0D3FE01F0D1FE0023012201217A
S11336F0DFF8400402F06AFD31BD80B5DFF83C1408
S1133700802000F04DF8DFF838140870DFF830043A
S1133710007819214843802190FBF1F0DFF824144C
S11337200870DFF824040088DFF818140978401AB8
S1133730DFF818140880DFF81404B0F90000DFF88B
S11337401014B1F90010C84206DADFF80804007852
S1133750401EDFF800140870DFF8F403B0F900002D
S1133760DFF8E813B1F90010884206DADFF8E40361
S11337700078401CDFF8DC130870DFF8D803007809
S1133780022803D2DFF8CC0301210170DFF8C4035F
S11337900078142803D3DFF8BC031421017001BDA1
S11337A010B40023002204E00C7853FA84F3491C7B
S11337B0521CD2B2C0B28242F6D39BB2C0B293FBC7
S11337C0F0F0C0B210BC7047002801D54042FFE7BA
S11337D07047F8B500240025002600200021DFF8FA
S11337E05C23D279DFF870331A80DFF85023D27962
S11337F0DFF868331A80072713E0FFB2DFF83C03D1
S1133800385CDFF85813B1F9001000B2884207DAC7
S11338103800FFB2DFF82413795CDFF8402311800D
S11338207F1CFFB2792F13D2DFF82C03B0F900000C
S1133830FFB2DFF80813795C09B28842DDDA3E0092
S1133840FFB2DFF8F802385CDFF80C130880E7E712
S1133850DFF80403B0F90000F6B2DFF8E0127118E3
S113386011F8021C401A0B2836DBDFF8EC02B0F921
S11338700000F6B2DFF8C41271188978401A0B28D8
S11338802ADBF6B2DFF8B402301810F8020CF6B2F4
S1133890DFF8A81271188978401AFFF795FF0A28F3
S11338A01ADAF6B2DFF89402301810F8020CF6B205
S11338B0DFF888127118897851FA80F0022190FBA0
S11338C0F1F0F6B2DFF874127054F6B2DFF86C025D
S11338D0305CDFF884120880DFF87C02B0F9000065
S11338E0DFF87812B1F900100818022190FBF1F00A
S11338F0DFF86C12088007270CE0DFF86802008804
S1133900FFB2DFF83812795C4018DFF858120880EB
S11339106D1C7F1CFFB2792F17D2FFB2DFF81C0297
S1133920385CDFF83C12B1F9001000B28842E4DBE5
S1133930DFF834020088FFB2DFF80012795C401827
S1133940DFF824120880641CE3E7DFF81C02B0F9F6
S11339500000E4B290FBF4F0DFF80C120880DFF80A
S11339600402B0F90000EDB290FBF5F0DFF8F411B9
S11339700880DFF8F401B0F90000DFF8E811B1F9CC
S113398000100818022190FBF1F0DFF8D411088030
S1133990072712E0DFF8D4010488FFB2DFF89C01A6
S11339A0385CDFF8BC11B1F90010401AFFF70CFFC6
S11339B00019DFF8B81108807F1CFFB2782FE9D313
S11339C0DFF8A801B0F90000722190FBF1F0DFF8F4
S11339D09C110880DFF89401B0F9000010284DDB39
S11339E0072705E0FFB2DFF85401002139547F1C9A
S11339F0FFB2792F10D2FFB2DFF84001385CDFF854
S1133A006011B1F9001000B28842EBDBFFB2DFF8BD
S1133A102C0101213954EAE7DFF82001C07901289B
S1133A2009D10027FFB2082F0FD2FFB2434801216A
S1133A3039547F1CF6E7002704E0FFB23F48002119
S1133A4039547F1CFFB2082FF7D33C4890F8780014
S1133A50012809D17827FFB2802F2ED2FFB2374830
S1133A60012139547F1CF6E77827FFB2802F24D236
S1133A70FFB23248002139547F1CF6E73B48B0F9C5
S1133A800000102819DA3A48007832490978884247
S1133A9009D20027FFB2802F0FD2FFB2274800219E
S1133AA039547F1CF6E7002704E0FFB223480121C4
S1133AB039547F1CFFB2802FF7D303202CE0C0B20F
S1133AC01E49415C002910D1C0B21C49411811F8AB
S1133AD0011C012909D1C0B21849411849780129AA
S1133AE003D1C0B2154901224254C0B21349415C0A
S1133AF0012910D1C0B21149411811F8011C002943
S1133B0009D1C0B20D4941184978002903D1C0B286
S1133B100A4900224254401CC0B27D28CFD3F1BDD3
S1133B201C05FF1FA008FF1FA208FF1F9C08FF1F02
S1133B309E08FF1F00F10F4000F00F40CC06FF1F4E
S1133B40AC08FF1FAD08FF1F1A04FF1F4208FF1F28
S1133B501C04FF1F1E04FF1FEC07FF1FEE07FF1FBF
S1133B60F007FF1F4808FF1F4608FF1F4408FF1FF8
S1133B704004FF1F10B5DFF82C0A0078012810D18B
S1133B80DFF8240A0088401CDFF81C1A0880DFF8DC
S1133B90180AB0F90000242803DBDFF80C0A2421FA
S1133BA00180DFF8D40B00210170DFF8D00B002175
S1133BB00170DFF8CC0B00210170DFF8C80B002185
S1133BC00170DFF8C40B0078002803D1DFF8BC0BC8
S1133BD000210170DFF8B80B0078002803D1DFF86A
S1133BE0CC0900210170792004E0DFF8C419002217
S1133BF00A80401E00B2062825DB00B2DFF8B419A3
S1133C00415C0129F1D100B2DFF8A819411811F87B
S1133C10011C0029E9D100B2DFF89819411811F804
S1133C20021C0029E1D100B2DFF88819411811F80B
S1133C30031C0029D9D1801EDFF8581B0880DFF847
S1133C40700901210180062004E0DFF84C1B0022EA
S1133C500A80401C00B27A2822DA00B2DFF8541934
S1133C60415C0129F1D100B2DFF8481941184978C3
S1133C700029EAD100B2DFF83C19411889780029FB
S1133C80E3D100B2DFF82C194118C9780029DCD13E
S1133C90801CDFF8081B0880DFF8FC0A0121018082
S1133CA0DFF80C09B0F90000012840F0B480DFF817
S1133CB0E80AB0F90000012840F0AD80DFF8E00A1E
S1133CC00088401CDFF8D81A0880DFF8D80A0021E1
S1133CD00180DFF8D40A00210180DFF8D00A002136
S1133CE00180DFF8B80AB0F90000DFF8A81AB1F9CA
S1133CF0001088427DDADFF8B008B0F9000024280B
S1133D006ADBDFF8AC0A0078012836D1DFF8AC0AA8
S1133D10B0F90000012813D1DFF8A40AB0F90000BB
S1133D2000280DD1DFF86C0A0088DFF8881A0988AA
S1133D300818DFF8901A0988401ADFF8601A08801A
S1133D40DFF8780AB0F90000002840F0C981DFF8F4
S1133D50700AB0F90000012840F0C281DFF83C0A83
S1133D600088DFF8501A0988401ADFF8581A0988C1
S1133D700818DFF8201A0880B2E1DFF8180AB0F951
S1133D800000DFF8401AB1F90010401AFFF71CFDDB
S1133D900400DFF8080AB0F90000DFF8181AB1F9D6
S1133DA00010401AFFF710FD84420ADADFF8E40934
S1133DB00088DFF8041A09880818DFF8E019088079
S1133DC08EE1DFF8D8090088DFF8EC190988401A79
S1133DD0DFF8C019088083E1DFF8B809DFF8E419D7
S1133DE009880180DFF8B409DFF8C819098801805F
S1133DF076E1DFF8A809B0F90000DFF89819B1F905
S1133E000010401ADFF8B019B1F90010491F8842B8
S1133E10C0F2668164E1DFF89807B0F90000012878
S1133E2040F08180DFF87009B0F9000000287AD1F1
S1133E30DFF86C0900210180DFF868090088401C64
S1133E40DFF860190880DFF8600900210180DFF8DD
S1133E505C0900210180DFF87009B0F90000DFF887
S1133E603419B1F9001088420CDADFF82809DFF8B8
S1133E70541909880180DFF82409DFF83819098802
S1133E8001802DE1DFF84009B0F90000DFF80419E2
S1133E90B1F900108842C0F22381DFF8F808B0F9C4
S1133EA00000DFF81419B1F90010D1F17001884253
S1133EB02ADADFF8F80601210170DFF81009DFF8CB
S1133EC0101909880180DFF80809DFF80819098842
S1133ED00180DFF80009DFF8001909880180DFF8A4
S1133EE0F808DFF8B01809880180DFF8A80800880E
S1133EF0DFF8C01809880818DFF8C8180988401ABC
S1133F00DFF898180880EBE0DFF888080088DFF80D
S1133F10A41809880818DFF8AC180988401ADFF8D3
S1133F207C180880DCE0DFF88806B0F9000000287F
S1133F3040F08080DFF86008B0F90000012879D1F2
S1133F40DFF85C0800210180DFF8580800210180B7
S1133F50DFF854080088401CDFF84C180880DFF8AC
S1133F604C0800210180DFF83408B0F90000DFF8C4
S1133F705818B1F9001088420CDADFF81808DFF895
S1133F80441809880180DFF81408DFF82818098824
S1133F900180A5E0DFF80408B0F90000DFF8281874
S1133FA0B1F900108842C0F29B80DFF80C08B0F928
S1133FB000000F30DFF8E417B1F9001088422ADA64
S1133FC0DFF8C80701210170DFF81008DFF81018C6
S1133FD009880180DFF80808DFF8081809880180DB
S1133FE0DFF80008DFF8001809880180DFF8F80717
S1133FF0DFF8A81709880180DFF8A0070088DFF838
S1134000B4170988401ADFF8BC1709880818DFF8C4
S11340108417088064E0DFF884070088DFF89417C9
S11340200988401ADFF89C1709880818DFF8641714
S1134030088055E0DFF878050088DFF85C17098808
S1134040084300B200284BD1DFF8A0070078DFF85E
S1134050A017097888421CD2DFF8280701210170D3
S1134060DFF84C05DFF8541709880180DFF82807CA
S1134070DFF84C1709880180DFF81807DFF8741798
S113408009880180DFF81407DFF86C1709880180BC
S113409013E0DFF85C070078DFF8501709788842EE
S11340A00BD2DFF8F006DFF81C1709880180DFF86F
S11340B0EC06DFF8001709880180DFF8E406002128
S11340C00180DFF8E00600210180DFF8DC06002132
S11340D00180DFF8D8060088401CDFF8D01608807D
S11340E0DFF8CC06DFF89C1609780170DFF80C07BE
S11340F00078012840F0F780DFF8B0040078012848
S113410067D1DFF8FC060088401CDFF8F41608804D
S1134110DFF8EC06B0F9000004285ADBDFF8E0060B
S1134120B0F90000001F80B210283AD2DFF88806E8
S1134130B0F90000401DDFF87C16B1F90010DFF87B
S11341408426B2F90020891A884203DBDFF8B4061A
S113415001210170DFF8AC060078012839D1DFF8BD
S1134160300601210170DFF89806B0F90000162826
S11341702FDADFF84406B0F90000022190FBF1F0D9
S1134180D0F19D00DFF80C160880DFF82C06B0F99A
S11341900000022190FBF1F09D30DFF8001608804A
S11341A017E0DFF85C0600210180DFF8000400213D
S11341B00170DFF8500600210170DFF8D4050021FA
S11341C00170DFF8440600210180DFF84006012178
S11341D00170DFF8D8030078DFF8B41509780843D4
S11341E0C0B2002803D1DFF8180600210180DFF8EF
S11341F09C050078012868D1DFF814060088401C6B
S1134200DFF80C160880DFF80806B0F9000004286F
S11342105BDBDFF8FC05B0F90000001F80B21A2850
S11342203BD2DFF89405B0F90000401DDFF8841597
S1134230B1F90010DFF88C25B2F90020891A884200
S113424003DBDFF8D00501210170DFF8C805007831
S113425001283AD1DFF8300501210170DFF8B005FB
S1134260B0F90000162830DA7FF01D00DFF8481599
S1134270B1F90010022291FBF2F1401ADFF8141593
S11342800880DFF83405B0F90000022190FBF1F05A
S11342901E38DFF80815088017E0DFF874050021E0
S11342A00180DFF8E80400210170DFF868050021CF
S11342B00170DFF8D40400210170DFF84C050021FF
S11342C00180DFF8480501210170DFF8C00400789F
S11342D0DFF8B41409780843C0B2002803D1DFF82A
S11342E0300500210180DFF8AC04B0F90000DFF8EC
S11342F0AC14B1F900100818022190FBF1F0DFF8BA
S11343001815B1F90010401A012817DBA848B0F9B4
S11343100000002829D1DFF88004B0F9000001284A
S113432023D1DFF87004DFF89C1409880180DFF8DA
S11343306C04DFF880140988018016E09C48B0F909
S11343400000012811D1DFF85004B0F90000002862
S11343500BD1DFF84004DFF86C1409880180DFF822
S11343603C04DFF8501409880180DFF83004B0F908
S11343700000DFF82014B1F9001088420BDADFF8EE
S11343801404DFF8401409880180DFF81004DFF812
S1134390241409880180DFF8FC03B0F90000DFF879
S11343A0FC13B1F900100818022190FBF1F0DFF8BA
S11343B06C140880DFF864040088DFF85C14098852
S11343C0401ADFF85C140880DFF85804EA490978D9
S11343D00170DFF85404E94909780170DFF84C04EE
S11343E0E74909780170DFF8E003DFF83014098841
S11343F00180DFF8C8036E4909880180DFF8C00333
S1134400E54909880180DFF82804DFF828140988C1
S11344100180DFF82404DFF8241409880180DFF820
S11344201404DFF81C1409880180DFF81004DFF895
S1134430141409880180DFF80804DFF80C140988D3
S11344400180DFF80004DFF8041409880180DFF834
S1134450F803DFF8701309880180DFF8F003D54909
S113446009880180DFF85C03CA4909880180D148C2
S1134470CA4909880180DFF8D803DFF8D81309880E
S11344800180DFF8D003DFF8D01309880180DFF85A
S1134490C803DFF8C81309880180DFF8C003DFF818
S11344A0C01309880180DFF8B803DFF8B81309885E
S11344B00180DFF8B003DFF8B01309880180DFF86A
S11344C0A803DFF8A81309880180DFF8A003DFF848
S11344D0A01309880180DFF89803DFF8981309888E
S11344E00180DFF89003DFF8381309880180DFF8D2
S11344F084030088DFF878130988401ADFF87813FA
S11345000880DFF86C030088DFF860130988401A1C
S1134510DFF868130880DFF854030088DFF84813D5
S11345200988401ADFF858130880DFF83C03008834
S1134530DFF830130988401ADFF848130880DFF8E1
S113454024030088DFF818130988401ADFF83813A9
S11345500880DFF80C030088DFF800130988401A8C
S1134560DFF828130880DFF8F4020088DFF8E81287
S11345700988401ADFF818130880DFF8DC02008885
S1134580DFF8D0120988401ADFF808130880DFF832
S1134590C4020088DFF8B8120988401ADFF844160C
S11345A0088010BDCD08FF1F6A08FF1FAE08FF1F5B
S11345B07008FF1FCC06FF1F30B403200621002221
S11345C0DFF8D43200241C80DFF8D03200241C80B1
S11345D0DFF8143600241C800B1A5B1C1A00DFF869
S11345E0C032DFF83C4224881C8064230CE0DBB238
S11345F0DFF8AC4214EB430434F8024CDBB2DFF8CE
S1134600A05225F813405B1EDBB2012BEFD200232E
S11346100CE0DFF890422488DBB2DFF8845235F8EE
S113462013502C19DFF87C522C805B1CDBB2032B5B
S1134630EFD3DFF87032B3F90030032493FBF4F3C3
S1134640DFF860422380002310E0DBB2DFF8504241
S113465034F81340DBB2DFF8485235F813506C439A
S1134660DBB2DFF8445225F813405B1CDBB2032BAA
S1134670EBD300230CE0DFF820422488DBB2DFF820
S1134680285235F813502C19DFF80C522C805B1C7F
S1134690DBB2032BEFD3DFF80032B3F9003003248D
S11346A093FBF4F3DFF8F4412380DFF8F8310024BE
S11346B01C80002306E0DBB2DFF8EC41002524F87F
S11346C013505B1CDBB2052BF5D3DFF8CC3100248F
S11346D01C8003000CE0DFF8CC412488DBB2DFF857
S11346E0C05135F813502C19DFF8B8512C805B1CDD
S11346F0DBB2C9B28B42EED3DFF8A831B3F9003094
S1134700C9B293FBF1F3DFF89C412380030010E06E
S1134710DBB2DFF88C4134F81340DBB2DFF88051B0
S113472035F813506C43DBB2DFF87C5125F81340A5
S11347305B1CDBB2C9B28B42EAD303000CE0DFF8A6
S113474058010088DBB2DFF8604134F813402018C8
S1134750DFF8444120805B1CDBB2C9B28B42EED34C
S1134760DFF83401B0F90000D2B290FBF2F0DFF8C8
S11347707814088030BC7047B708FF1FB808FF1FC3
S1134780B908FF1FB508FF1FB008FF1FAF08FF1FC0
S1134790B108FF1FEA07FF1F7208FF1F1404FF1F61
S11347A07408FF1F7608FF1F7808FF1F7A08FF1F91
S11347B0B608FF1FF407FF1F0608FF1F6C08FF1F42
S11347C06E08FF1FF207FF1F0A08FF1F6808FF1F7C
S11347D06608FF1F6408FF1F6208FF1F6008FF1FB1
S11347E05E08FF1F5C08FF1F5A08FF1F1E04FF1FFF
S11347F04004FF1F0C08FF1F1604FF1F1F04FF1FA8
S11348004C08FF1FB308FF1F4A08FF1FB408FF1F0F
S11348104E08FF1FB208FF1F1008FF1F0808FF1FE4
S11348201408FF1FBA08FF1FBB08FF1FBC08FF1FA7
S11348300208FF1FFE07FF1F0408FF1F0008FF1FD9
S1134840FA07FF1FFC07FF1FF607FF1FF807FF1FEC
S11348502A08FF1F2808FF1F2608FF1F2408FF1F20
S11348602208FF1F2008FF1F1E08FF1F1C08FF1F30
S11348701A08FF1F1808FF1F2C08FF1F2E08FF1F10
S11348803008FF1F3208FF1F3408FF1F3608FF1FC0
S11348903808FF1F3A08FF1F5408FF1F5608FF1F60
S11348A03005FF1F5208FF1FF805FF1F10B5DFF882
S11348B05404DFF8541409880180DFF850040078A8
S11348C0012840F0B580DFF83C04B0F90000652809
S11348D003DBDFF8300464210180DFF82804B0F939
S11348E000007FF06301884204DADFF818047FF0E7
S11348F063010180DFF80C04B0F9000001F078FDD9
S1134900DFF80C140968FEF7F9FBDFF808140860F7
S1134910DFF8000401680020FEF7F0FBDFF8F41371
S11349200968FEF7EBFBDFF8EC130968FEF7E6FB1A
S11349300100DFF8E003006801F072FD0400DFF815
S1134940D4030168DFF8D003FEF7D8FBDFF8C41303
S11349500968FEF7D3FBDFF8BC130968FEF7CEFB4A
S1134960DFF8B0130968FEF7C9FBDFF8A81309687C
S1134970FEF7C4FB210001F0C7FDFEF74DFCDFF894
S11349809C23C2E90001DFF898030068FEF744FCA9
S113499002000B00DFF88443D4E9000101F0F6FDC6
S11349A0DFF87823C2E90001DFF87023D2E90001BF
S11349B00122DFF8B83A01F00DFF06D8DFF85C03F6
S11349C00022DFF8A83AC0E90023DFF85023D2E937
S11349D000010022DFF8983A01F014FF06D2DFF854
S11349E03C030022DFF8883AC0E90023DFF82C23D7
S11349F0D2E900010022002301F004FF09D2DFF80C
S1134A001C03DFF81813D1E9002393F00043C0E935
S1134A100023DFF8600A0068FEF7FEFBBF4CD4E910
S1134A200023FEF731FCFEF7A3FCDFF84C1A086004
S1134A30B348B0F90000012808D1DFF83C0ADFF8D8
S1134A403C1A0160DFF8380A00210160AD48008893
S1134A50DFF8301A0988401ADFF82C1A0880DFF8CA
S1134A60500AB0F9000001F0C3FC0400A548B0F9F5
S1134A70000001F0BDFCDFF8001A0968FEF73EFBF8
S1134A80210001F041FD0400DFF8FC09B0F9000049
S1134A9001F0AEFCDFF8E8190968FEF72FFB2100EE
S1134AA001F032FDFEF796FBDFF82C1A0880DFF8E0
S1134AB0D409944909880180DFF8F80900780128AD
S1134AC004D0DFF8F4090078012836D1DFF8E009D2
S1134AD0B0F90000DFF8E419B1F9001008186430E7
S1134AE0DFF8F419B1F9001088420ADADFF8C009D6
S1134AF00088DFF8C819098808186430DFF8D81965
S1134B000880DFF8D409B0F90000DFF8A419B1F97E
S1134B100010DFF8A829B2F90020891A6439884204
S1134B2041DADFF88C090088DFF890190988401A07
S1134B306438DFF8A419088035E0DFF87409B0F9A7
S1134B400000DFF87819B1F9001008188238DFF88E
S1134B508819B1F9001088420ADADFF8540900888C
S1134B60DFF85819098808188238DFF86C190880AA
S1134B70DFF86409B0F90000DFF83419B1F9001066
S1134B80DFF83829B2F90020891A823188420ADA1A
S1134B90DFF81C090088DFF824190988401A8230DC
S1134BA0DFF834190880DFF83009B0F90020022159
S1134BB0002001F027F810BDDFF820090068DFF8B5
S1134BC000190880DFF8FC080088DFF8F418098869
S1134BD00818DFF8F0180880DFF8000900210160E8
S1134BE0704700003C08FF1F5808FF1FDFF8D80873
S1134BF0B0F90000DFF8D418B1F9001088422DDBB9
S1134C00DFF8CC0801210170DFF8D408B0F9000006
S1134C100B2818DBDFF8BC08B0F90000DFF8C41873
S1134C200968884204DADFF8C0080121017053E002
S1134C30DFF8AC0800210180DFF8B008DFF8B01815
S1134C400988018048E0DFF8980800210180DFF836
S1134C509C08DFF89C18098801803DE0DFF86808AB
S1134C60B0F90000DFF86418B1F90010884233DAB3
S1134C70DFF85C080078012807D1DFF85408002128
S1134C800170DFF85C0800210180DFF85408008817
S1134C90401CDFF84C180880DFF84408B0F9000025
S1134CA0032813DBDFF84408DFF84818098801807B
S1134CB0DFF830080068DFF84018B1F900108842C6
S1134CC00ADADFF838080121017005E0DFF81C0872
S1134CD0DFF81C1809880180DFF8D807007801285C
S1134CE004D0DFF8D4070078012808D1DFF81008D1
S1134CF00078002803D1DFF80C0801210170704707
S1134D007C08FF1F0E08FF1F1408FF1FCF08FF1F9A
S1134D102004FF1FC806FF1F00004040D804FF1FE7
S1134D202404FF1F70B5DFF8BC07DFF89817B1F94A
S1134D3000100160DFF88C0700210180DFF8C8074C
S1134D400078012815D1DFF8C00700210170DFF8D1
S1134D50BC07B0F900000A38DFF8B417B1F9001045
S1134D60DFF8B027B2F90020891A884201DAFFF788
S1134D703DFFDFF8A407007801285FD1DFF894072E
S1134D80B0F90000062839DBDFF88407B0F9000029
S1134D907A2833DADFF83407B0F90000DFF828178F
S1134DA0B1F90010884214DBDFF8700701210170AB
S1134DB0DFF86C070078012840D1DFF86407002190
S1134DC00170DFF860070088401CDFF8581708807E
S1134DD034E0DFF84C0701210170DFF84007007868
S1134DE001282BD1DFF8340700210170DFF83807E0
S1134DF00088401CDFF8301708801FE0DFF8240724
S1134E00B0F90000022809DBDFF81C07B0F9000044
S1134E10022803DBDFF8D00601210170DFF8040764
S1134E2000210180DFF8F40600210170DFF8F806A4
S1134E3000210180DFF8E80600210170DFF8EC06AC
S1134E40B0F90000DFF89C160968884209DADFF837
S1134E509C060088DFF8D8160988401ADFF88C16FB
S1134E600880DFF8D006B0F90000DFF8CC16B1F9FD
S1134E700010401A032190FBF1F0DFF85816B1F945
S1134E800010DFF860261268891A91FBF0F001F037
S1134E90D1FCDFF8A826C2E90001DFF8A006D0E9BA
S1134EA000230020002101F0DBFCDFF89046D4E968
S1134EB0002301F0D5FCDFF88446D4E9002301F097
S1134EC0CFFC02000B00DFF87446D4E9000101F0C6
S1134ED0CFF904000D00DFF86406D0E900230020B8
S1134EE0DFF85C1601F0BCFCDFF85066D6E900235D
S1134EF001F0B6FCDFF84466D6E9002301F0B0FC0B
S1134F00DFF83866D6E9002301F0AAFCDFF82C6646
S1134F10D6E9002301F0A4FC22002B00FEF7B4F92B
S1134F200022DFF82036FEF7AFF901F06BFDDFF861
S1134F3018160880DFF8B0050078012840F0E780F3
S1134F40DFF80806007801281FD1DFF88805B0F9DA
S1134F500000DFF890150968884206DADFF8F005EA
S1134F60DFF8E415098801800FE0DFF87C050021F3
S1134F700170DFF86C0500210180DFF8D8050021FD
S1134F800180DFF8CC0500210180DFF8C00500783E
S1134F90022840F02D81DFF83C05B0F900006430B0
S1134FA0DFF840150968884205DADFF8A405DFF860
S1134FB0A81501801CE1DFF81C05B0F90000503091
S1134FC0DFF82015096888420FDADFF80805B0F920
S1134FD000006430DFF80C150968884205DBDFF84F
S1134FE07005DFF87815018002E1DFF8E804B0F914
S1134FF000003C30DFF8EC14096888420FDADFF86F
S1135000D404B0F900005030DFF8D814096888429D
S113501005DBDFF83C05DFF848150180E8E0DFF840
S1135020B404B0F900002830DFF8B81409688842E5
S11350300FDADFF8A004B0F900003C30DFF8A41464
S11350400968884205DBDFF80805DFF818150180D8
S1135050CEE0DFF88004B0F900001430DFF88414E7
S1135060096888420FDADFF86C04B0F900002830D0
S1135070DFF870140968884205DBDFF8D404DFF830
S1135080E8140180B4E0DFF84C04B0F900000A3001
S1135090DFF85014096888420FDADFF83804B0F9F1
S11350A000001430DFF83C140968884205DBDFF89F
S11350B0A0047FF0C70101809AE0DFF81804B0F97A
S11350C00000DFF82014096888420FDADFF80404CE
S11350D0B0F900000A30DFF80C140968884205DBD7
S11350E0DFF86C047FF09501018081E0DFF8F803BC
S11350F000210170DFF8E80300210180DFF8540487
S113510000210180DFF848040021018070E0DFF80D
S1135110DC03B0F90000DFF8DC13B1F900108842B9
S113512033D1DFF8D403B0F9000001F061F9DFF8FE
S11351303C140968FDF7E2FF01000C00DFF8A4034A
S1135140006801F055F9210001F082FC05D2DFF876
S1135150000440F2E24101804AE0DFF89803B0F92C
S11351600000FEF74DF9DFF87C0300681321484383
S11351700A2190FBF1F0FEF751F9DFF87813098862
S11351804018DFF8CC13088032E0DFF86C03B0F984
S1135190000001F02DF9DFF8D8130968FDF7AEFF20
S11351A001000C00DFF83C03006801F021F9210044
S11351B001F04EFC05D2DFF898034FF448710180EA
S11351C016E0DFF82C03B0F90000FEF719F9DFF858
S11351D014030068132148430A2190FBF1F0FEF701
S11351E01DF9DFF80C1309884018DFF864130880F0
S11351F0DFF8F402007800284CD1DFF81403B0F98A
S11352000000DFF81013B1F90010401ADFF8FC12A7
S1135210B1F900100A3188423CDADFF85803B0F9DA
S11352200000DFF8A412B1F90010884232DBDFF885
S1135230C802B0F9000001F0DBF8DFF830130968A8
S1135240FDF75CFF01000C00DFF89802006801F034
S1135250CFF8210001F0FCFB05D2DFF8F40240F2A4
S1135260E241018016E0DFF88C02B0F90000FEF79D
S1135270C7F8DFF870020068132148430A2190FB45
S1135280F1F0FEF7CBF8DFF86C1209884018DFF86C
S1135290C0120880DFF8E002007801281ED1DFF890
S11352A048020078012815D1DFF8D0020088401C9C
S11352B0DFF8C8120880DFF8C402B0F900005128F2
S11352C00CDBDFF8B80200210180DFF81C020021AA
S11352D0017003E0DFF8A40200210180DFF8A002DE
S11352E0007801281DD1DFF89C020078012818D12C
S11352F0DFF89402B0F90000DFF8E8110968884289
S113530006DADFF84C02DFF840120988018008E071
S1135310DFF8700200210170DFF834024FF44871A5
S11353200180DFF8E001007801281AD1DFF85C027F
S1135330B0F90000DFF8AC110968884205DADFF83B
S11353401002DFF84C1201800BE0DFF8B8010021F5
S11353500170DFF8AC0101210170DFF8F4010021D4
S11353600180DFF83002B0F9000001283AD1DFF8FB
S113537028020078012804D1DFF8D401DFF8E01115
S11353800180DFF860010068052804DBDFF808020B
S11353900078022826D1DFF8000202210170DFF82C
S11353A04401006801F024F8DFF8F011096891F075
S11353B00041FDF7A3FE0400DFF828010068DFF8D0
S11353C0E0110968401A01F013F8DFF8D8110968F0
S11353D0FDF794FE210001F097F8FDF7FBFEDFF8DE
S11353E070110880DFF8B8013E4909680160DFF8F0
S11353F06001B0F9000040F2E341884204DBDFF8C9
S1135400500140F2E2410180DFF84401B0F90000AC
S1135410DFF87C11884204DADFF83401DFF8701118
S11354200180DFF82C01B0F9000001280DDB002316
S113543001220921DFF8700100F0C8FEDFF86C01D9
S11354404349B1F9001001600FE001230122092151
S1135450DFF8540100F0BAFE3D48B0F9000040F214
S1135460E2410818DFF84411086070BD00003440C0
S1135470000034C05404FF1F4C04FF1F00005041BF
S11354805004FF1F1208FF1F3E08FF1F81B00020B9
S11354908DF8000006E000BF00BF9DF80000401C2E
S11354A08DF800009DF800000128F4D301B0704786
S11354B02804FF1FB008FF1FB108FF1F2A04FF1FA5
S11354C0E807FF1F4008FF1F5608FF1F4604FF1F81
S11354D0BF08FF1F2C04FF1F1804FF1F04800B408C
S11354E05008FF1FC006FF1FBD08FF1F6204FF1FF7
S11354F06604FF1F6404FF1F3804FF1FC208FF1F58
S1135500C108FF1FC008FF1FD408FF1F0608FF1FA4
S11355101404FF1FEA07FF1FC508FF1FC308FF1F6E
S1135520C408FF1F8408FF1F8608FF1F6C04FF1FA9
S11355306A04FF1F3A04FF1F8208FF1FE004FF1FD5
S11355400000084000C072C06804FF1F3C04FF1F35
S11355507E08FF1F8008FF1FE0FCFFFFA8FDFFFF80
S11355600CFEFFFF70FEFFFFD4FEFFFF5804FF1F79
S11355705C04FF1F4804FF1FC608FF1F8808FF1FA5
S1135580C708FF1FBE08FF1F7004FF1F6E04FF1F24
S11355901EFBFFFF7C08FF1F2E04FF1F3004FF1FAC
S11355A0C406FF1F3404FF1F40F00F401090034057
S11355B030B4DFF8B83198420AD1DFF8B4314FF48F
S11355C040741C60DFF8AC314FF440741C6049E057
S11355D0DFF8A43198420AD1DFF8A0314FF44074C7
S11355E01C60DFF89C314FF440741C603AE0DFF833
S11355F0943198420AD1DFF890314FF440741C6022
S1135600DFF888314FF440741C602BE0DFF8803100
S113561098420AD1DFF87C314FF440741C60DFF803
S113562078314FF440741C601CE0DFF8703198420C
S11356300AD1DFF86C314FF440741C60DFF8643138
S11356404FF440741C600DE0DFF85C31984209D1DE
S1135650DFF858314FF440741C60DFF854314FF4D4
S113566040741C60DFF80431984208D1DFF84431FB
S11356701B6853F48063DFF83C4123603BE0DFF8B0
S1135680F830984208D1DFF82C311B6853F40063DA
S1135690DFF8204123602EE0DFF8E830984208D19B
S11356A0DFF810311B6853F48053DFF8084123609E
S11356B021E0DFF8DC30984208D1DFF8F8301B68CD
S11356C053F40053DFF8EC40236014E0DFF8CC30EF
S11356D0984208D1DFF8E0301B6853F48063DFF8A8
S11356E0D840236007E0DFF8D0301B6853F4006330
S11356F0DFF8C4402360C37813F0F303C3700023BE
S113570083701A4B984208D000231B4CA04204D04B
S113571053F00003DBB2002B00D049184FF47A7326
S113572003FB01F31401B3FBF4F3047814F0E00475
S11357309BB21D0A15F01F052C43047043704FF4EF
S1135740FA4461431201B1FBF2F19BB2B1EB431194
S1135750827A12F0E00411F01F0121438172C178B2
S113576051F00C01C17030BC7047000000A006402D
S113577018C004401CC0044000B0064010B00440EF
S11357800CB0044000C006400CC0044008C00440F3
S113579000D0064044B0044040B0044000A00E4095
S11357A060D0044064D0044000B00E4020D00440D7
S11357B024D00440348004402880044030B40023C2
S11357C0DFF8202612684FF47A7462438A4201D2C9
S11357D000209EE0802303FB01F3B2FBF3F44FF6B9
S11357E0FF739C4280F017810723C0B2002840F069
S11357F09280DFF8F4552C60402404FB01F4B2FBE2
S1135800F4F44FF6FF75AC4260D20623C0B2002810
S113581040F09180DFF8D0552C604C01B2FBF4F4D9
S11358204FF6FF75AC4251D20523C0B2002840F0B8
S11358309280DFF8B4552C600C01B2FBF4F44FF6FF
S1135840FF75AC4242D20423C0B2002840F09380DA
S1135850DFF894552C60CC00B2FBF4F44FF6FF75DE
S1135860AC4233D20323C0B2002840F09480DFF866
S113587078552C608C00B2FBF4F44FF6FF75AC4203
S113588024D20223C0B2002840F09580DFF8585596
S11358902C604C00B2FBF4F44FF6FF75AC4215D209
S11358A00123C0B2002840F09680DFF83C552C60FC
S11358B0B2FBF1F44FF6FF718C4207D20023C0B261
S11358C0002840F09880DFF820150C60C0B2002852
S11358D040F0A380DFF81405006850F08070DFF812
S11358E00C150860DBB213F0070050F00800DFF875
S11358F000150860DFF8FC0400210160DFF8F804FB
S113590000210160DFF8F404DFF8DC1409680160A9
S1135910012030BC7047C0B2012803D1DFF8E05445
S11359202C6069E7C0B2022803D1DFF8D8542C6098
S113593062E70020EDE7C0B2012803D1DFF8C054CC
S11359402C606AE7C0B2022803D1DFF8B8542C6097
S113595063E70020DDE7C0B2012803D1DFF8A054DB
S11359602C6069E7C0B2022803D1DFF898542C6098
S113597062E70020CDE7C0B2012803D1DFF88054EC
S11359802C6068E7C0B2022803D1DFF878542C6099
S113599061E70020BDE7C0B2012803D1DFF86054FD
S11359A02C6067E7C0B2022803D1DFF858542C609A
S11359B060E70020ADE7C0B2012803D1DFF840540E
S11359C02C6066E7C0B2022803D1DFF838542C609B
S11359D05FE700209DE7C0B2012803D1DFF820541F
S11359E02C6065E7C0B2022803D1DFF818542C609C
S11359F05EE700208DE7C0B2012803D1DFF8001470
S1135A000C6063E7C0B2022803D1DFF8F8130C601E
S1135A105CE700207DE700207BE7C0B201281ED1AF
S1135A20DFF8C803006850F00070DFF8C0130860A6
S1135A30DBB213F0070050F00800DFF8CC13086065
S1135A40DFF8C80300210160DFF8C403002101600E
S1135A50DFF8C003DFF8A8130968016058E7C0B293
S1135A6002281ED1DFF8B003006850F08070DFF820
S1135A70A8130860DBB213F0070050F00800DFF849
S1135A809C130860DFF8980300210160DFF8940399
S1135A9000210160DFF89003DFF8681309680160F2
S1135AA036E7002035E718B442F211739A4201D365
S1135AB0002066E0C0B2002865D1DFF82C331B68F3
S1135AC00093009B5B1C5A4342F21073B2FBF3F247
S1135AD0C0B2002828D1C9B20B00002B022B05D973
S1135AE0DB1E6CD05B1E032B79D985E0DFF83C33D9
S1135AF01B684FF400742343DFF830432360C9B2BA
S1135B008B0003F1804313F592234FF44074DC605F
S1135B10C9B2DFF81C33282443F83140C9B2DFF896
S1135B20103313EBC1035A60C0B2012818D1C9B2B3
S1135B30002963D1BD4B1B6853F48063BB4C2360C5
S1135B40C9B2BC4B4FF4407443F82140C9B2BA4BBC
S1135B50282443F83140C9B2B74B13EBC1035A6050
S1135B60C0B202280CD1C9B2002949D1C9B2B34884
S1135B70282340F83130C9B2B04810EBC10042606C
S1135B80012012BC7047C0B2012809D1009B9C4C73
S1135B902468A34201D1012300E00023DBB290E793
S1135BA0C0B2022809D1009B964C2468A34201D1BB
S1135BB0012300E00023DBB283E70020E1E79B4BF5
S1135BC01B6853F40063994C2360C9B28B0003F142
S1135BD0804313F596234FF480645C6098E7934BFD
S1135BE01B6853F48053914C2360C9B2944B4FF417
S1135BF0806443F821408BE70020C2E70020C0E71F
S1135C000020BEE718B442F211739A4201D3002077
S1135C1019E0C0B2002818D1734B1B680093009B95
S1135C205B1C5A4342F21073B2FBF3F2C0B2002879
S1135C302FD1C9B2002903D0022925D021D326E0CF
S1135C4080480260012012BC7047C0B2012809D10B
S1135C50009B6B4C2468A34201D1012300E0002384
S1135C60DBB2DCE7C0B2022809D1009B654C246892
S1135C70A34201D1012300E00023DBB2CFE70020DF
S1135C80E1E771480260DDE770480260DAE700206E
S1135C90D9E7C0B2012805D1C9B2674810EBC100E9
S1135CA04260CFE7C0B2022805D1C9B2634810EB05
S1135CB0C1004260C6E70020C5E780B50023012289
S1135CC00921634800F082FA5848006850F40060E3
S1135CD05649086057484FF45071016043480068C2
S1135CE050F00070414908605348006850F00800C3
S1135CF0514908605048006830F004004E4908607B
S1135D004D48006850F020004B4908603E48292166
S1135D1001605048006850F004004E4908604D4846
S1135D200068400840004B4908604B48FE21016070
S1135D304A48002101604A48002101604948002185
S1135D40016049480021016048480068400840005B
S1135D504649086046480021016046480021016028
S1135D604548002101602A4800210160294840F289
S1135D70E2410160414800210160244800210160A2
S1135D8001BD2548006850F08070234908603C48F4
S1135D904FF4C06101603B484FF4C06101603A4870
S1135DA0006850F00400384908603848006850F032
S1135DB00800364908601B48002101601A484FF664
S1135DC0FF7101603148006850F001002F490860FC
S1135DD02D48006850F001002B490860104800214C
S1135DE001607047E407FF1FD007FF1F3C80044099
S1135DF000800340048003404C800340088003403B
S1135E00D407FF1FD807FF1F0090034004900340EE
S1135E104C900340089003403080044000800B40C5
S1135E2004800B404C800B4008800B4038800440B9
S1135E300C80034000A004400C9003400C800B40F5
S1135E4000C00440108003401880034020800340B9
S1135E5040F00F405490034060900340649003402E
S1135E605C9003406C90034070900340809003402A
S1135E709090034094900340989003401090034006
S1135E8048A004404CA0044054800B4080800B4048
S1135E90002810D19748006850F0006095490860C8
S1135EA09548006830F090009349086092480021BA
S1135EB001600120704701280FD19048006850F01C
S1135EC000608E4908608C48006830F410408A49AC
S1135ED00860894800210160EBE70020EAE738B553
S1135EE005000024D2B2280000F072F8002D0CD175
S1135EF0834800680006FBD582480468804800682F
S1135F0030F080007E4908600BE07F48006800069E
S1135F10FBD57E4804687C48006830F080007A49EC
S1135F200860200080B232BD2DE9F04104000D006C
S1135F3016003200D2B229002000FFF7D0FF07007C
