S01F000050452056312E3420323031342E30372E313020646973752E7372656387
S1130000F8FF00201104000033670000336700008C
S11300103367000033670000336700003367000074
S11300203367000033670000336700003367000064
S11300303367000033670000336700003367000054
S11300403367000033670000336700003367000044
S11300503367000033670000336700003367000034
S11300603367000033670000336700003367000024
S11300703367000033670000336700003367000014
S11300803367000033670000336700003367000004
S113009033670000336700003367000033670000F4
S11300A033670000336700003367000033670000E4
S11300B033670000336700003367000033670000D4
S11300C033670000336700003367000033670000C4
S11300D033670000336700003367000033670000B4
S11300E033670000336700003367000033670000A4
S11300F03367000033670000336700003367000094
S11301003367000033670000336700003367000083
S11301103367000033670000336700003367000073
S11301203367000033670000336700003367000063
S11301303367000033670000336700003367000053
S11301403367000033670000336700003367000043
S11301504D820000336700003367000033670000FE
S11301603367000033670000336700003367000023
S11301703367000033670000336700003367000013
S11301803367000033670000336700003367000003
S113019033670000336700003367000033670000F3
S1130400FFFFFFFFFFFFFFFFFFFFFFFFFEFFFFFFF9
S11304104FF000004FF000014FF000024FF00003D6
S11304204FF000044FF000054FF000064FF00007B6
S11304304FF000084FF000094FF0000A4FF0000B96
S11304404FF0000C62B607F0DBFFFEE738B5002280
S113045000240025DFF81418002003E000220A70AD
S1130460491C401CC0B28A28F8D302F0CBFDDFF847
S11304704C0EB0F9000002F09BFEDFF8F4270021D7
S1130480002003F030F9DFF8EC2700213C2003F0D2
S11304902AF9DFF8E4270221002003F024F9DFF829
S11304A0DC2702213C2003F01EF9DFF8D4270421C5
S11304B0002003F018F9DFF8CC2704213C2003F0D6
S11304C012F903F0D3F903F011FADFF8BC1708703E
S11304D06E2003F093FBDFF8B0070078012840F0AA
S11304E0A080DFF8A407FF210170DFF8A007012135
S11304F0017002F062FF8CE0AFA20021002003F043
S1130500F2F8DFF88C070068DFF84C1E03F09AFB62
S113051003F004FC80B2020000213C2003F037F910
S1130520A6A20221002003F0DEF8DFF8302E02211B
S11305303C2003F0D8F8A2A20421002003F0D3F851
S1130540DFF8382E04213C2003F0CDF89DA20621CB
S1130550002003F0C8F8DFF8282E06213C2003F021
S1130560C2F86E2003F04AFB03F080F903F0BEF9F1
S1130570DFF82C1E0870DFF8280E0078FF2805D05D
S1130580DFF80407DFF8181E09780170DFF8F806B1
S11305900078072813D1DFF8F806006803F0E0FBC1
S11305A0DFF8002EDFF8003E03F012FC03F084FCB9
S11305B0DFF8DC160860DFF8D006FF210170DFF8F1
S11305C0C8060078082813D1DFF8C406006803F0D1
S11305D0C7FBDFF8D02DDFF8143E03F0F9FB03F07E
S11305E06BFCDFF8AC160860DFF89C06FF21017095
S11305F0DFF89406007809280BD1DFF89006FF2174
S11306000170DFF88406FF210170DFF8940DFF21EB
S11306100170DFF87806007801283FF46DAF02F02E
S1130620CCFEDFF864060078022840F09C80DFF8F6
S11306305806FF210170DFF854060221017002F010
S1130640BCFE88E06E2003F0D9FA03F00FF903F042
S11306504DF9DFF84C1D0870DFF8440D0078FF28D1
S113066005D0DFF82406DFF8381D09780170D7A219
S11306700021002003F037F8DFF818060068DFF8DF
S1130680D81C03F0DFFA03F049FB80B2020000211A
S11306903C2003F07CF849A20221002003F023F857
S11306A0DFF8B82D02213C2003F01DF844A20421F8
S11306B0002003F018F8DFF8302E04213C2003F06A
S11306C012F840A20621002003F00DF8DFF81C2EDA
S11306D006213C2003F007F8DFF8AC050078072872
S11306E013D1DFF8B005006803F03AFBDFF8B42C4F
S11306F0DFF8B43C03F06CFB03F0DEFBDFF8941589
S11307000860DFF88405FF210170DFF87C050078BC
S1130710082813D1DFF87C05006803F021FBDFF81B
S1130720842CDFF8C83C03F053FB03F0C5FBDFF86F
S113073064150860DFF85005FF210170DFF84805F3
S11307400078092807D1DFF84405FF210170DFF89C
S11307503805FF210170DFF83405007802283FF4E2
S113076071AF02F02AFEDFF820050078032840F07C
S1130770A680DFF81405FF210170DFF810050321BE
S1130780017002F01AFE92E06E2003F037FA03F0D3
S11307906DF803F0ABF8DFF8081C0870DFF8000C04
S11307A00078FF2805D0DFF8E004DFF8F41B0978AF
S11307B00170D4A208E000BF53703A002B3A000045
S11307C02D3A000052653A000021002002F08BFF10
S11307D0DFF86C0D0068DFF8801B03F033FA03F0D8
S11307E09DFA80B2020000213C2002F0D0FFD8A282
S11307F00221002002F077FFDFF8602C02213C2068
S113080002F071FFD3A20421002002F06CFFDFF894
S1130810D82C04213C2002F066FFCFA20621002040
S113082002F061FFDFF8C42C06213C2002F05BFFDC
S1130830DFF854040078072813D1DFF8040D0068AA
S113084003F08EFADFF85C2BDFF85C3B03F0C0FAB0
S113085003F032FBDFF8E81C0860DFF82C04FF210A
S11308600170DFF824040078082813D1DFF8D00CD5
S1130870006803F075FADFF82C2BDFF8703B03F007
S1130880A7FA03F019FBDFF8B81C0860DFF8F803D7
S1130890FF210170DFF8F0030078092807D1DFF8A1
S11308A0EC03FF210170DFF8E003FF210170DFF8A2
S11308B0DC03007803283FF467AF02F07EFDDFF825
S11308C0C8030078042840F09880DFF8BC03FF21B7
S11308D00170DFF8B8030421017002F06EFD85E0B9
S11308E06E2003F08BF902F0C1FF02F0FFFFDFF886
S11308F0B01A0870DFF8A80A0078FF2805D0DFF8DE
S11309008803DFF89C1A09780170DFF8382C00217D
S1130910002002F0E8FEDFF8300C0068DFF8381A37
S113092003F090F903F0FAF980B2020000213C20B0
S113093002F02DFF86A20221002002F0D4FEDFF88F
S11309401C2B02213C2002F0CEFE82A204210020B6
S113095002F0C9FEDFF8902B04213C2002F0C3FE14
S11309607DA20621002002F0BEFEDFF8802B0621C6
S11309703C2002F0B8FEC4480078072812D1DFF802
S1130980C80B006803F0ECF9DFF8182ADFF8183A0E
S113099003F01EFA03F090FADFF8AC1B0860BA48C3
S11309A0FF210170B8480078082815D1DFF8980BAA
S11309B0006803F0D5F9DFF8EC29DFF8303A03F0EA
S11309C007FA03F079FADFF8801B01E053693A0073
S11309D00860AD48FF210170AB480078092805D1B3
S11309E0AA48FF210170A848FF210170A748007898
S11309F004283FF475AF02F0E0FCA3480078052812
S1130A005AD1A148FF210170A0480521017002F0CC
S1130A10D4FC4BE06E2003F0F1F802F027FF02F063
S1130A2065FFDFF87C190870DFF874090078FF2887
S1130A3004D09548DFF8681909780170DFF80C2BA9
S1130A400021002002F04FFEDFF8040B02780021A1
S1130A503C2002F09CFE40A20621002002F043FE4E
S1130A60DFF81C2906213C2002F03DFE8648007870
S1130A70072806D1DFF8D80A012101708248FF2136
S1130A80017081480078082806D1DFF8C40A0021E3
S1130A9001707D48FF2101707B480078092805D149
S1130AA07A48FF2101707848FF2101707748007867
S1130AB00528AFD002F081FC73480078062840F086
S1130AC083807148FF21017070480621017002F093
S1130AD074FC73E06E2003F091F802F0C7FE02F09C
S1130AE005FFDFF8BC180870DFF8B4080078FF28A9
S1130AF004D06548DFF8A81809780170DFF8542A93
S1130B0002E000BF53643A000021002002F0EBFD34
S1130B10DFF8440AB0F9002000213C2002F037FE3F
S1130B200BA20221002002F0DEFDDFF830290221B1
S1130B303C2002F0D8FD07A20421002002F0D3FDDE
S1130B40DFF8A42904213C2002F0CDFD02A205E037
S1130B502B3A00002D3A000052653A00062100208D
S1130B6002F0C1FDDFF8842906213C2002F0BBFD20
S1130B7045480078072809D1DFF8DC090088401CC3
S1130B80DFF8D41908804048FF2101703E480078FE
S1130B90082809D1DFF8C0090088401EDFF8B81919
S1130BA008803948FF21017037480078092805D1A9
S1130BB03648FF2101703448FF2101703348007822
S1130BC0062887D002F0F9FB2F4800780A287FF422
S1130BD054AC2D48FF21017002F0EFFBDFF86009EF
S1130BE002682C4801682A48006802F0E5FAFA20F5
S1130BF003F004F8DFF864290021002002F073FDFB
S1130C00DFF85C2900213C2002F06DFDDFF8542957
S1130C100221002002F067FDDFF84C2904210020A6
S1130C2002F061FDDFF8442904213C2002F05BFD61
S1130C30DFF83C290621002002F055FD02F016FEE3
S1130C4002F054FE104908706E2002F0D7FF0E48DF
S1130C500078012840F0B5800B48FF2101700B4853
S1130C600121017002F0A9FBA3E000BFB406FF1F3D
S1130C70A4860000AC860000B4860000BC86000098
S1130C80C48600002C8600008404FF1F8604FF1F16
S1130C908804FF1FBC07FF1FD3A20021002002F01D
S1130CA022FDDFF8D0080068DFF8AC1602F0CAFFB6
S1130CB003F034F880B2020000213C2002F067FD0A
S1130CC0CAA20221002002F00EFDDFF890260221C4
S1130CD03C2002F008FDE6A20421002002F003FDFE
S1130CE0DFF8982604213C2002F0FDFCE1A2062155
S1130CF0002002F0F8FCDFF8882606213C2002F0F0
S1130D00F2FC6E2002F07AFF02F0B0FD02F0EEFD7C
S1130D10DFF88C160870DFF888060078FF2805D005
S1130D20DFF85408DFF8781609780170DFF848080E
S1130D300078072813D1DFF83C08006803F010F8A6
S1130D40DFF86026DFF8603603F042F803F0B4F809
S1130D50DFF820180860DFF82008FF210170DFF8B1
S1130D6018080078082813D1DFF80808006802F092
S1130D70F7FFDFF83026DFF8743603F029F803F0C4
S1130D809BF8DFF8F0170860DFF8EC07FF2101702B
S1130D90DFF8E407007809280BD1DFF8E007FF212A
S1130DA00170DFF8D407FF210170DFF8F405FF219B
S1130DB00170DFF8C807007801283FF46DAF02F036
S1130DC0FCFADFF8B4070078022840F09C80DFF8D2
S1130DD0A807FF210170DFF8A4070221017002F0C7
S1130DE0ECFA88E06E2002F009FF02F03FFD02F009
S1130DF07DFDDFF8AC150870DFF8A4050078FF2846
S1130E0005D0DFF87407DFF8981509780170E2A2BD
S1130E100021002002F067FCDFF864070068DFF8B7
S1130E20381502F00FFF02F079FF80B202000021B2
S1130E303C2002F0ACFC6DA20221002002F053FC25
S1130E40DFF8182602213C2002F04DFC88A2042180
S1130E50002002F048FCDFF8902604213C2002F038
S1130E6042FC84A20621002002F03DFCDFF87C262F
S1130E7006213C2002F037FCDFF8FC060078072846
S1130E8013D1DFF8FC06006802F06AFFDFF81425CE
S1130E90DFF8143502F09CFF03F00EF8DFF8E016DB
S1130EA00860DFF8D406FF210170DFF8CC06007873
S1130EB0082813D1DFF8C806006802F051FFDFF8F4
S1130EC0E424DFF8283502F083FF02F0F5FFDFF8B1
S1130ED0B0160860DFF8A006FF210170DFF898065D
S1130EE00078092807D1DFF89406FF210170DFF8A4
S1130EF08806FF210170DFF88406007802283FF499
S1130F0071AF02F05AFADFF870060078032840F057
S1130F108880DFF86406FF210170DFF86006032192
S1130F20017002F04AFA75E06E2002F067FE02F0EA
S1130F309DFC02F0DBFCDFF868140870DFF8600445
S1130F400078FF2805D0DFF83006DFF8541409785C
S1130F500170DFF830260021002002F0C4FBDFF826
S1130F602806B0F9002000213C2002F010FC1FA24A
S1130F700221002002F0B7FBDFF8E02402213C202C
S1130F8002F0B1FB3AA20421002002F0ACFBDFF82E
S1130F90582504213C2002F0A6FB36A2062100209D
S1130FA002F0A1FBDFF8442506213C2002F09BFB64
S1130FB0DFF8C405007807280AD1DFF8CC050088DB
S1130FC0401CDFF8C4150880DFF8AC05FF21017070
S1130FD0DFF8A405007808280FD1DFF8AC050088F5
S1130FE0401EDFF8A41503E04B703A002B3A0000D2
S1130FF00880DFF88405FF210170DFF87C050078A4
S1131000092807D1DFF87405FF210170DFF86805AE
S1131010FF210170DFF864050078032884D002F012
S1131020CCF9DFF854050078042840F08180DFF81B
S11310304805FF210170DFF844050421017002F026
S1131040BCF96EE06E2002F0D9FD02F00FFC02F054
S11310504DFCD3490870D2480078FF2804D0DFF84B
S11310601805CF4909780170DFF81C2D04E000BF92
S11310702D3A000052653A000021002002F033FBB3
S11310808E48B0F9002000213C2002F080FBC7A26A
S11310900221002002F027FBDFF8C02302213C20BC
S11310A002F021FBD2A20421002002F01CFBDFF895
S11310B0382404213C2002F016FBCEA20621002095
S11310C002F011FBDFF8242406213C2002F00BFB84
S11310D0DFF8A4040078072808D178480088401C69
S11310E076490880DFF89004FF210170DFF8880456
S11310F00078082808D171480088401E6F4908808C
S1131100DFF87404FF210170DFF86C04007809280B
S113111007D1DFF86804FF210170DFF85C04FF21C8
S11311200170DFF85804007804288BD002F045F9E8
S1131130DFF844040078052840F07E80DFF83804A6
S1131140FF210170DFF834040521017002F035F944
S11311506CE06E2002F052FD02F088FB02F0C6FB48
S11311608F4908708E480078FF2804D0DFF80804FF
S11311708B4909780170DFF8142C0021002002F05B
S1131180B2FADFF80C0CB0F9002000213C2002F088
S1131190FEFA86A202E000BF4B643A00022100205E
S11311A002F0A1FAAD4A02213C2002F09CFA90A27E
S11311B00421002002F097FACB4A04213C2002F0DB
S11311C092FA8CA20621002002F08DFAC74A062169
S11311D03C2002F088FADFF8A003007807280AD13F
S11311E0DFF8AC0B0088401CDFF8A41B0880DFF894
S11311F08803FF210170DFF88003007808280AD1F2
S1131200DFF88C0B0088401EDFF8841B0880DFF8B1
S11312106803FF210170DFF860030078092805D115
S1131220D648FF210170D448FF210170D3480078CB
S113123005288ED002F0C1F8CF480078062874D172
S1131240CD48FF210170CD480621017002F0B5F8A8
S113125065E06E2002F0D2FC02F008FB02F046FBCF
S11312604F4908704E480078FF2803D0C2484C49C3
S113127009780170DFF81C2B0021002002F033FAFA
S1131280DFF8140BB0F9002000213C2002F07FFAB3
S113129046A20221002002F026FA704A02213C20D4
S11312A002F021FA52A20421002002F01CFA8E4A14
S11312B004213C2002F017FA4EA201E07604FF1F3D
S11312C00621002002F00FFA884A06213C2002F091
S11312D00AFAA9480078072809D1DFF8BC0A00886F
S11312E0401CDFF8B41A0880A348FF210170A2480B
S11312F00078082809D1DFF8A00A0088401EDFF82A
S1131300981A08809C48FF2101709B48007809289E
S113131005D19A48FF2101709748FF210170974831
S11313200078062895D002F048F8934800780A28F7
S11313307FF45DAC9048FF21017002F03EF8FA2082
S113134002F05CFCDFF8542A0021002002F0CBF903
S1131350DFF84C2A04E000BF00002041CC860000E6
S11313600221002002F0BFF9DFF8382A042100200E
S113137002F0B9F9DFF8302A04E000BFD486000097
S1131380DC8600000021462002F0ADF9DFF81C2ABB
S11313900221462002F0A7F9DFF8142A08E000BF72
S11313A08304FF1F9A9999999999B93F2B3A0000A0
S11313B00421462002F097F902F058FA02F096FA56
S11313C06D4908706E2002F019FC6B480078012802
S11313D040F0A7806848FF2101706848012101702E
S11313E001F0EBFF96E0DFF8CC2905E09999B9BF4D
S11313F02D3A000052653A000021002002F073F9F2
S1131400DFF8B4090068DFF8541E02F01BFC02F098
S113141085FC80B2020000213C2002F0B8F9D1A280
S11314200221002002F05FF9DFF8902902213C201C
S113143002F059F9E5A20421002002F054F9DFF882
S1131440802904213C2002F04EF9E1A2062100206B
S113145002F049F9DFF86C2902E000BFE4860000DD
S113146006213C2002F03FF96E2002F0C7FB02F097
S1131470FDF902F03BFADFF8E81D0870DFF8E00D33
S11314800078FF2804D03C48DFF8D41D09780170A7
S113149039480078072812D1DFF81C09006802F0E7
S11314A05FFCDFF8482EDFF8483E02F091FC02F0C2
S11314B003FDDFF8041908602F48FF2101702E484E
S11314C00078082818D1DFF8F008006802F048FC1A
S11314D0DFF8182EDFF8643E02F07AFC02F0ECFC30
S11314E0DFF8D41804E000BFEC860000F4860000A6
S11314F008602148FF2101701F480078092809D19C
S11315001E48FF2101701C48FF210170DFF8500DB7
S1131510FF2101701948007801283FF464AF01F0FD
S11315204CFF15480078022840F0C2801248FF2181
S1131530017012480221017001F03FFFB0E000BFCA
S1131540C007FF1FFC8600002804FF1F048700005B
S1131550EE08FF1F0C8700003004FF1F14870000F3
S11315601C870000248700002C87000034870000BB
S11315703C8700003804FF1F8404FF1F8604FF1FFC
S11315804004FF1F448700007404FF1F6E2002F014
S113159035FB02F06BF902F0A9F9DFF8C41C0870FE
S11315A0DFF8BC0C0078FF2805D0DFF81C08DFF852
S11315B0B01C09780170DFF814280021002002F023
S11315C092F8DFF80C080068DFF8901C02F03AFB90
S11315D002F0A4FB80B2020000213C2002F0D7F804
S11315E060A20221002002F07EF8DFF8142E02210E
S11315F03C2002F078F875A20421002002F073F870
S1131600DFF8502E04213C2002F06DF870A2062170
S1131610002002F068F8DFF8402E06213C2002F09A
S113162062F8DFF8A4070078072813D1DFF8A007D1
S1131630006802F095FBDFF8B42CDFF8B43C02F04C
S1131640C7FB02F039FCDFF888170860DFF8780779
S1131650FF210170DFF870070078082813D1DFF844
S11316607007006802F07CFBDFF8802CDFF8CC3CCC
S113167002F0AEFB02F020FCDFF854170860DFF83C
S11316804807FF210170DFF840070078092807D1D7
S1131690DFF84007FF210170DFF82C07FF210170FC
S11316A0DFF83007007802283FF470AF01F085FEC0
S11316B0DFF814070078032840F0A680DFF8080755
S11316C0FF210170DFF80C070321017001F075FEA2
S11316D092E06E2002F092FA02F0C8F802F006F9E5
S11316E0DFF87C1B0870DFF8780B0078FF2805D042
S11316F0DFF8D406DFF8681B09780170DFF8D82614
S11317000021002001F0EFFFDFF8D0060068DFF8C9
S11317104C1B02F097FA02F001FB80B20200002198
S11317203C2002F034F80FA20221002001F0DBFF7C
S1131730DFF8CC2C02213C2001F0D5FF23A20421A8
S1131740002001F0D0FFDFF80C2D04213C2001F033
S1131750CAFF1FA20621002001F0C5FFDFF8F82C04
S113176002E000BF2B3A000006213C2001F0BBFF41
S1131770DFF854060078072813D1DFF86006006804
S113178002F0EEFADFF8642BDFF8643B02F020FB92
S113179002F092FBDFF844160860DFF82C06FF2104
S11317A00170DFF824060078082818D1DFF82C0629
S11317B0006802F0D5FADFF8342BDFF8803B02F042
S11317C007FB02F079FBDFF8141603E02D3A000062
S11317D052653A000860DFF8F005FF210170DFF878
S11317E0E8050078092807D1DFF8E805FF21017032
S11317F0DFF8D405FF210170DFF8D805007803284D
S11318003FF467AF01F0D9FDDFF8BC050078042888
S113181040F09D80DFF8B005FF210170DFF8B405CA
S11318200421017001F0C9FD89E06E2002F0E6F99F
S113183002F01CF802F05AF8DFF8241A0870DFF8F6
S1131840200A0078FF2805D0DFF87C05DFF8101A9D
S113185009780170DFF888250021002001F043FF9A
S1131860DFF880050068DFF8F41902F0EBF902F004
S113187055FA80B2020000213C2001F088FFE2A268
S11318800221002001F02FFFDFF8742B02213C20FD
S113189001F029FFDDA20421002001F024FFDFF87C
S11318A0B42B04213C2001F01EFFD9A20621002004
S11318B001F019FFDFF8A02B06213C2001F013FFF3
S11318C0DFF804050078072813D1DFF8180500684D
S11318D002F046FADFF8142ADFF8143A02F078FA34
S11318E002F0EAFADFF8FC140860DFF8DC04FF21F8
S11318F00170DFF8D4040078082813D1DFF8E40479
S1131900006802F02DFADFF8E429DFF8303A02F03B
S11319105FFA02F0D1FADFF8CC140860DFF8A8040B
S1131920FF210170DFF8A0040078092807D1DFF84F
S1131930A404FF210170DFF89004FF210170DFF897
S11319409404007804283FF470AF01F036FDDFF80A
S113195078040078052840F09880DFF86C04FF21B3
S11319600170DFF870040521017001F026FD85E0A7
S11319706E2002F043F901F079FF01F0B7FFDFF8C0
S1131980E0180870DFF8D8080078FF2805D0DFF8E1
S11319903804DFF8CC1809780170DFF8EC2C00214A
S11319A0002001F0A0FEDFF8E40C0068DFF8AC18BA
S11319B002F048F902F0B2F980B2020000213C20A2
S11319C001F0E5FE90A20221002001F08CFEDFF878
S11319D0302A02213C2001F086FE8CA20421002042
S11319E001F081FEDFF86C2A04213C2001F07BFE2B
S11319F087A20621002001F076FEDFF85C2A06218A
S1131A003C2001F070FEDFF8C0030078072813D1F2
S1131A10DFF8780C006802F0A3F9DFF8D028DFF8CB
S1131A20D03802F0D5F902F047FADFF8601C0860FC
S1131A30DFF89403FF210170DFF88C030078082895
S1131A4012D1DFF8480C006802F08AF9DFF89C280C
S1131A50DFF8E83802F0BCF902F02EFADFF82C1CAB
S1131A600860D948FF210170D7480078092805D1BA
S1131A70D848FF210170D448FF210170D54800786F
S1131A8005283FF475AF01F098FCCF48007806288C
S1131A9040F09280CC48FF210170CE4806210170AD
S1131AA001F08BFC81E06E2002F0A8F801F0DEFE6C
S1131AB001F01CFFDFF8A8170870DFF8A40700780E
S1131AC0FF2804D0C048DFF8981709780170DFF8C0
S1131AD0C02B0021002001F006FEDFF8B80B0068DF
S1131AE0DFF8781702F0AEF802F018F980B20200BD
S1131AF000213C2001F04BFE43A20221002001F012
S1131B00F2FDDFF8FC2802213C2001F0ECFD3FA2AD
S1131B100421002001F0E7FDDFF8382904213C20EE
S1131B2001F0E1FD3AA20621002001F0DCFDDFF81E
S1131B30282906213C2001F0D6FDA3480078072877
S1131B4012D1DFF8500B006802F00AF9DFF89C2785
S1131B50DFF89C3702F03CF902F0AEF9DFF8341BF1
S1131B6008609948FF21017097480078082812D12D
S1131B70DFF8200B006802F0F3F8DFF87027DFF8D5
S1131B80BC3702F025F902F097F9DFF8081B08606A
S1131B908D48FF2101708C480078092805D18D48B3
S1131BA0FF2101708848FF2101708A4800780628C7
S1131BB03FF479AF01F001FC834800780A287FF4F0
S1131BC0BEAB8148FF21017001F0F7FBFA2002F05F
S1131BD015F8DFF8C82A0021002001F084FDDFF8A1
S1131BE0C02A0021462001F07EFDDFF8B82A022138
S1131BF0002001F078FDDFF8B02A0421002001F074
S1131C0072FDDFF8A82A05E02B3A00002D3A000007
S1131C1052653A000421462001F065FDDFF8902A60
S1131C200621002001F05FFD01F020FE01F05EFEC0
S1131C30654908706E2001F0E1FF634800780128CF
S1131C4040F093806048FF210170624801210170D7
S1131C5001F0B3FB82E0DFF85C2A0021002001F0F0
S1131C6042FDDFF8540A0068DFF8F01501F0EAFFDE
S1131C7002F054F880B2020000213C2001F087FDFC
S1131C80DAA20221002001F02EFD4C4A02213C2060
S1131C9001F029FDD6A20421002001F024FD484AC8
S1131CA004213C2001F01FFDD2A20621002001F0F6
S1131CB01AFD444A06213C2001F015FD6E2001F076
S1131CC09DFF01F0D3FD01F011FEDFF894150870BB
S1131CD0DFF88C050078FF2804D03B48DFF8801536
S1131CE00978017038480078072812D1DFF8C8094C
S1131CF0006802F035F8DFF8F425DFF8F43502F077
S1131D0067F802F0D9F8DFF8B01908602E48FF210F
S1131D1001702D480078082812D1DFF89C0900686A
S1131D2002F01EF8DFF8C425DFF8103602F050F890
S1131D3002F0C2F8DFF8801908602348FF2101701F
S1131D4021480078092809D12248FF2101701E4842
S1131D50FF210170DFF80805FF2101701D4800789C
S1131D6001283FF478AF01F028FB174800780228D7
S1131D7040F0CC801448FF21017016480221017004
S1131D8001F01BFBBAE000BF388600004486000067
S1131D907A04FF1F4C8700007804FF1F548700005B
S1131DA05C870000648700006C8700007487000073
S1131DB07C870000848700004804FF1FCC86000055
S1131DC0D4860000DC8600008404FF1F8C8700009A
S1131DD04C04FF1F8604FF1F948700005004FF1F5C
S1131DE09C8700005C04FF1F6E2001F007FF01F0D8
S1131DF03DFD01F07BFDDFF868140870DFF8600436
S1131E000078FF2805D0DFF8B408DFF85414097807
S1131E100170DFF8AC280021002001F064FCDFF839
S1131E20A4080068DFF8341401F00CFF01F076FF19
S1131E3080B2020000213C2001F0A9FC6BA2022127
S1131E40002001F050FCDFF8B82502213C2001F00D
S1131E504AFC67A20421002001F045FCDFF8F425C8
S1131E6004213C2001F03FFC62A20621002001F085
S1131E703AFCDFF8E42506213C2001F034FCDFF8CD
S1131E803C080078072813D1DFF83808006801F00F
S1131E9067FFDFF85824DFF8583401F099FF02F0A7
S1131EA00BF8DFF820180860DFF81008FF21017034
S1131EB0DFF808080078082813D1DFF8080800685C
S1131EC001F04EFFDFF82424DFF8703401F080FFC6
S1131ED001F0F2FFDFF8EC170860DFF8E007FF21FC
S1131EE00170DFF8D8070078092807D1DFF8D80790
S1131EF0FF210170DFF8C407FF210170DFF8C80774
S1131F00007802283FF470AF01F057FADFF8AC070D
S1131F100078032840F08980DFF8A007FF210170D2
S1131F20DFF8A4070321017001F047FA76E06E2080
S1131F3001F064FE01F09AFC01F0D8FCC849087075
S1131F40C7480078FF2804D0DFF87007C44909782F
S1131F500170DFF878270021002001F0C4FBDFF8CE
S1131F607007B0F9002092B200213C2001F00FFC70
S1131F701EA20221002001F0B6FBDFF88424022116
S1131F803C2001F0B0FB1AA20421002001F0ABFBBD
S1131F90DFF8C02404213C2001F0A5FB15A2062192
S1131FA0002001F0A0FBDFF8B02406213C2001F062
S1131FB09AFBDFF80807007807280AD1DFF8100732
S1131FC00088401CDFF808170880DFF8F006FF21BE
S1131FD00170DFF8E8060078082812D1DFF8F0066F
S1131FE00088401EDFF8E81606E000BF2B3A000028
S1131FF02D3A000052653A000880DFF8C006FF2140
S11320000170DFF8B8060078092807D1DFF8B806B0
S1132010FF210170DFF8A406FF210170DFF8A80694
S11320200078032883D001F0C8F9DFF8900600781F
S1132030042840F09480DFF88406FF210170DFF863
S113204088060421017001F0B8F980E06E2001F0E7
S1132050D5FD01F00BFC01F049FC81490870804872
S11320600078FF2804D0DFF854067D490978017010
S1132070DFF8242E0021002001F035FBDFF81C0ED0
S11320800068764901F0DEFD01F048FE80B20200EE
S113209000213C2001F07BFBD8A20221002001F0AA
S11320A022FBD74A02213C2001F01DFBD5A20421CA
S11320B0002001F018FBDFF89C2304213C2001F0F0
S11320C012FBD1A20621002001F00DFBDFF88823CA
S11320D006213C2001F007FBDFF8E0050078072823
S11320E011D1DFF8B80D006801F03AFE7F4A804B49
S11320F001F06EFE01F0E0FEDFF8A01D0860DFF8DD
S1132100BC05FF210170DFF8B4050078082811D15F
S1132110DFF8880D006801F023FE744A874B01F054
S113212057FE01F0C9FEDFF8741D0860DFF88C0566
S1132130FF210170DFF884050078092807D1DFF852
S11321408805FF210170DFF87405FF210170DFF8B5
S11321507805007804283FF479AF01F02EF9DFF810
S11321605C050078052840F09780DFF85005FF21D2
S11321700170DFF854050521017001F01EF983E0B8
S11321806E2001F03BFD01F071FB01F0AFFB34491F
S1132190087033480078FF2804D0DFF82005304960
S11321A009780170DFF8F82C0021002001F09BFA77
S11321B0DFF8F00C0068294901F044FD01F0AEFDA0
S11321C080B2020000213C2001F0E1FA8BA202213E
S11321D0002001F088FA8A4A02213C2001F083FAA7
S11321E088A20421002001F07EFA9A4A04213C20AE
S11321F001F079FA84A20621002001F074FA964ACB
S113220006213C2001F06FFADFF8B00400780728BB
S113221011D1DFF8900C006801F0A2FD334A344B71
S113222001F0D6FD01F048FEDFF8781C0860DFF805
S11322308C04FF210170DFF884040078082816D18B
S1132240DFF8600C006801F08BFD284A3B4B01F07D
S1132250BFFD01F031FEDFF84C1C03E0000020411B
S11322608304FF1F0860DFF85404FF210170DFF8C6
S11322704C040078092807D1DFF84C04FF210170D1
S1132280DFF83804FF210170DFF83C0400780528EA
S11322903FF476AF01F091F8DFF8200400780628C7
S11322A040F08380DFF81404FF210170DFF8180484
S11322B00621017001F081F871E06E2001F09EFCAE
S11322C001F0D4FA01F012FBDFF81C1D0870DFF8EE
S11322D0180D0078FF2805D0DFF8E003DFF8081DAB
S11322E009780170DFF8042D04E000BF9A999999E8
S11322F09999B93F0021002001F0F5F9DFF8F00CBD
S1132300B0F9002092B200213C2001F040FA3BA237
S11323100221002001F0E7F9394A02213C2001F0B2
S1132320E2F938A20421002001F0DDF9494A042130
S11323303C2001F0D8F934A202E000BF9999B9BF5A
S11323400621002001F0CFF9434A06213C2001F088
S1132350CAF9DA480078072809D1DFF8940C008814
S1132360401CDFF88C1C0880D448FF210170D3483E
S11323700078082809D1DFF8780C0088401EDFF8BF
S1132380701C0880CD48FF210170CC4800780928D2
S113239005D1CD48FF210170C848FF210170CA480A
S11323A00078062889D001F008F8C44800780A2883
S11323B07FF40CACC148FF21017000F0FEFFFA204D
S11323C001F01CFCDFF82C2C0021002001F08BF91B
S11323D0DFF8242C0021462001F085F9DFF81C2CBD
S11323E00221002001F07FF9DFF8142C022146209D
S11323F001F079F9DFF8842C08E000BF2B3A0000E3
S1132400E48600002D3A000052653A0004210020C1
S113241001F069F9DFF8682C0421462001F063F922
S113242001F024FA01F062FAA44908706E2001F068
S1132430E5FBA2480078012840F080809F48FF21F6
S11324400170A1480121017000F0B7FF70E0DFF8CE
S1132450342C03E0EC860000F48600000021002008
S113246001F041F9DFF8200C027800213C2001F052
S11324708EF9D5A20221002001F035F9DFF80C2CE9
S113248002213C2001F02FF9D0A20421002001F008
S11324902AF9DFF8FC2B04213C2001F024F97EA268
S11324A00621002001F01FF9DFF8E82B06213C206B
S11324B001F019F96E2001F0A1FB01F0D7F901F048
S11324C015FADFF8241B0870DFF81C0B0078FF28CE
S11324D004D07A48DFF8101B097801707748007837
S11324E0072809D1DFF8A00B0078401CDFF8981BFF
S11324F008707248FF21017070480078082809D1DB
S1132500DFF8840B0078401EDFF87C1B08706B48F2
S1132510FF21017069480078092809D16A48FF2120
S113252001706648FF210170DFF8BC0AFF210170C9
S11325306548007801288AD000F03FFF5F480078A2
S1132540022840F092805D48FF2101705E4802211C
S1132550017000F032FF81E06E2001F04FFB01F0CA
S113256085F901F0C3F9DFF8801A0870DFF8780AFA
S11325700078FF2804D05148DFF86C1A09780170FC
S1132580DFF8142B0021002001F0ADF8DFF80C0B6C
S11325900068DFF80C1B01F055FB01F0BFFB80B2B3
S11325A0020000213C2001F0F2F887A20221002061
S11325B001F099F8DFF8EC2A02213C2001F093F8AD
S11325C082A20421002001F08EF8DFF8DC2A042125
S11325D03C2001F088F830A20621002001F083F8A5
S11325E0DFF8C82A06213C2001F07DF83348007842
S11325F0072812D1DFF8A40A006801F0B1FBDFF864
S1132600B02ADFF8B03A01F0E3FB01F055FCDFF843
S11326108C1A08602948FF2101702848007808288E
S113262012D1DFF8780A006801F09AFBDFF8802AFB
S1132630DFF8843A01F0CCFB01F03EFCDFF85C1AD1
S113264008601E48FF2101701C480078092805D144
S11326501D48FF2101701948FF2101701A480078B4
S113266002283FF479AF00F0A8FE1448007803284C
S113267040F0C8801148FF21017013480321017004
S113268000F09BFEB6E000BFA48700006004FF1FBB
S1132690AC8700006404FF1F52653A00B487000051
S11326A0BC87000050860000C4870000CC8700006F
S11326B05C860000D48700005404FF1F8404FF1FBD
S11326C0DC8700005804FF1F8604FF1F6886000093
S11326D03404FF1F6E2001F091FA01F0C7F801F0F5
S11326E005F9DFF804190870DFF8FC080078FF2802
S11326F005D0DFF8CC09DFF8F01809780170DFF8AD
S1132700C4290021002000F0EEFFDFF8BC090068B6
S1132710DFF88C1901F096FA01F000FB80B2020098
S113272000213C2001F033F827A20221002000F010
S1132730DAFFDFF8702902213C2000F0D4FF23A245
S11327400421002000F0CFFFDFF85C2904213C20A5
S113275000F0C9FFEAA20621002000F0C4FFDFF860
S11327604C2906213C2000F0BEFFDFF85409007814
S1132770072813D1DFF85009006801F0F1FADFF8F7
S11327803029DFF8303901F023FB01F095FBDFF845
S113279038190860DFF82809FF210170DFF82009E3
S11327A00078082819D1DFF82009006801F0D8FA68
S11327B0DFF8FC28DFF8003901F00AFB01F07CFBAC
S11327C0DFF8041904E000BF2B3A00002D3A0000A2
S11327D00860DFF8EC08FF210170DFF8E4080078F6
S11327E0092807D1DFF8E408FF210170DFF8D008D9
S11327F0FF210170DFF8D408007803283FF46AAFA2
S113280000F0DBFDDFF8B8080078042840F09D8074
S1132810DFF8AC08FF210170DFF8B0080421017073
S113282000F0CBFD89E06E2001F0E8F901F01EF81C
S113283001F05CF8DFF8B0170870DFF8AC07007837
S1132840FF2805D0DFF87808DFF89C1709780170B5
S1132850DFF87C280021002000F045FFDFF8740831
S11328600068DFF83C1801F0EDF901F057FA80B286
S1132870020000213C2000F08AFFDDA2022100209A
S113288000F031FFDFF81C2802213C2000F02BFF70
S1132890E8A20421002000F026FFDFF80C28042120
S11328A03C2000F020FF96A20621002000F01BFF30
S11328B0DFF8F82706213C2000F015FFDFF80008B8
S11328C00078072813D1DFF80C08006801F048FAF3
S11328D0DFF8DC27DFF8DC3701F07AFA01F0ECFAF4
S11328E0DFF8F0170860DFF8D807FF210170DFF880
S11328F0D0070078082813D1DFF8D807006801F062
S11329002FFADFF8AC27DFF8B03701F061FA01F0F5
S1132910D3FADFF8C0170860DFF8A407FF210170BD
S1132920DFF89C070078092807D1DFF8A007FF210A
S11329300170DFF88C07FF210170DFF89007007841
S113294004283FF470AF00F038FDDFF87407007816
S1132950052840F08380DFF86807FF210170DFF865
S11329606C070521017000F028FD70E06E2001F075
S113297045F900F07BFF00F0B9FFDFF86C16087032
S1132980DFF864060078FF2805D0DFF83407DFF8A5
S1132990581609780170DFF840270021002000F064
S11329A0A2FEDFF83807B0F9002000213C2000F037
S11329B0EEFE8FA20221002000F095FEDFF8E4264F
S11329C002213C2000F08FFE9AA20421002000F096
S11329D08AFEDFF8D42604213C2000F084FE48A2BD
S11329E00621002000F07FFEDFF8C02606213C20EF
S11329F000F079FEDFF8C806007807280AD1DFF86E
S1132A00DC060088401CDFF8D4160880DFF8B00626
S1132A10FF210170DFF8A806007808280AD1DFF842
S1132A20BC060088401EDFF8B4160880DFF8900664
S1132A30FF210170DFF888060078092807D1DFF844
S1132A408C06FF210170DFF87806FF210170DFF8A2
S1132A507C060078052889D000F0AFFCDFF860061A
S1132A600078062840F08680DFF85406FF210170C4
S1132A70DFF858060621017000F09FFC73E06E2019
S1132A8001F0BCF800F0F2FE00F030FFDFF858155A
S1132A900870DFF854050078FF2805D0DFF8200619
S1132AA0DFF8441509780170DFF83426002100208E
S1132AB000F019FEDFF82C06B0F9002000213C20BC
S1132AC000F065FE4AA20221002000F00CFEDFF8AF
S1132AD0D42502213C2000F006FE56A20421002049
S1132AE000F001FEDFF8C02504213C2000F0FBFDCE
S1132AF003A20621002000F0F6FDDFF8B02501E076
S1132B0052653A0006213C2000F0EDFDDFF8B005E7
S1132B10007807280AD1DFF8CC050088401CDFF8CC
S1132B20C4150880DFF89805FF210170DFF89005CF
S1132B30007808280AD1DFF8AC050088401EDFF8C9
S1132B40A4150880DFF87805FF210170DFF870050F
S1132B500078092807D1DFF87405FF210170DFF838
S1132B606005FF210170DFF864050078062886D02F
S1132B7000F023FCDFF8480500780A287FF41FAC36
S1132B80DFF83C05FF21017000F017FCDFF8580561
S1132B900078012809D1C4A20021002000F0A3FD7F
S1132BA0FA2001F02BF800F008FCDFF83C050221C4
S1132BB00170DFF8380501210180DFF834050121B7
S1132BC00180DFF830050078012840F0A080DFF8AC
S1132BD0240500210170DFF8200501F01BFC01F041
S1132BE0EBFEDFF818050088DFF8141502E000BFDB
S1132BF02B3A000009880818DFF800150880DFF870
S1132C0004050088DFF8001509880818DFF8F414B3
S1132C100880DFF8F8040088DFF8F414098808183D
S1132C20DFF8E8140880DFF8EC040088DFF8E81423
S1132C3002E000BF2D3A000009784018DFF8D414F0
S1132C400880641C200000B20A2860DB0024DFF83E
S1132C50AC04B0F900000A2190FBF1F0DFF8BC14D9
S1132C600880DFF8A004B0F900000A2190FBF1F01D
S1132C70DFF8AC140880DFF89404B0F900000A21EE
S1132C8090FBF1F0DFF89C140880DFF88804B0F9B9
S1132C9000000A2190FBF1F0DFF88C140870DFF8D3
S1132CA0740400210180DFF8540400210180DFF85E
S1132CB0540400210180DFF8540400210180DFF86E
S1132CC064040088DFF858140988401ADFF85C149B
S1132CD00880DFF85C04DFF8541409880180DFF809
S1132CE03C04B0F9002000210A2000F02CFCDFF89D
S1132CF03004B0F9002002210A2000F024FCDFF89F
S1132D002404B0F900200221462000F01CFCDFF866
S1132D102404007801287DD1DFF818040021017013
S1132D20DFF8140401F01CFD02F07CFEDFF80C0453
S1132D300088DFF80C1409880818DFF800140880EC
S1132D40DFF800040088DFF8001409880818DFF8A9
S1132D50F4130880DFF8F4030088DFF8F41309881B
S1132D600818DFF8E81308806D1C280000B20A2850
S1132D7050DB0025DFF8C403B0F900000A2190FB02
S1132D80F1F0DFF8D0130880DFF8B803B0F90000E1
S1132D900A2190FBF1F0DFF8C0130880DFF8AC03E0
S1132DA0B0F900000A2190FBF1F0DFF8B0130880BD
S1132DB0DFF8880300210180DFF888030021018007
S1132DC0DFF8880300210180DFF890030088DFF832
S1132DD088130988401ADFF888130880DFF8840311
S1132DE0DFF87C1309880180DFF86803B0F900205C
S1132DF004210A2000F0A7FBD748B0F900200621DF
S1132E000A2000F0A0FBD548B0F900200621462096
S1132E1000F099FB00F02AFD00F068FD724908708B
S1132E2071480078FF2803D0A5486F4909780170DC
S1132E30A34800780C287FF4A9AEA148FF210170B3
S1132E40A2480C21017000F0B8FA1CE06E2000F0DA
S1132E50D5FE00F00BFD00F049FD6349087062489F
S1132E600078FF2803D096485F4909780170944898
S1132E7000780C2805D19548FF2101709048FF2166
S1132E80017000F09AFA914800780C28DED0964838
S1132E90012101706AE000BFE48700006804FF1F9D
S1132EA0EC8700006C04FF1F636A0000AE480068F2
S1132EB0332802DBAD48AE4901808E4800780128F2
S1132EC044D18C48002101708B4801F0A3FA01F031
S1132ED073FD02F0BFFB03F01BF8A6480278002143
S1132EE00A2000F030FBA44802780021462000F0BC
S1132EF02AFB8548B0F9002002210A2000F023FBB8
S1132F008348B0F900200221462000F01CFB9B48B6
S1132F10B0F9002004210A2000F015FB9848B0F90C
S1132F2000200421462000F00EFB9648B0F9002052
S1132F300621002000F069FB934800688A4909686B
S1132F40884203DA90488849096801607948007822
S1132F5001280BD1774800210170774801F000FC6B
S1132F608A480078012801D102F06AFC5E480078A2
S1132F70012813D151A206213C2000F0B4FB4FF4E8
S1132F80FA6000F03BFE00F018FA58480021018076
S1132F905748002101807E480121017052480221D6
S1132FA001707C48B0F90000012886D179480021DD
S1132FB0018003F015F97848B0F9000001287FF486
S1132FC07CAF6948006810F1630FBFF66FAF002350
S1132FD001220921714803F05BFB71480021016063
S1132FE042480121018068E78304FF1F74860000C2
S1132FF03604FF1FF4870000FC87000004880000EB
S11330000C88000080B572B65FF4E132654801684F
S1133010654803F08FFB002300220821634803F076
S113302037FB4FF49671002003F08AFC41F29412AE
S11330300221002003F0F9FD42F21071012003F097
S11330407FFC03F0FCFE03F05EFF00F07DFF00F068
S1133050DDF9002200215FF07F5000F0ADF84FF45D
S11330607A7000F0A5F84EF66021002003F0D2FF3C
S1133070002003F0FEFF62B601BD000014880000CA
S11330801C880000248800008204FF1FCC860000F6
S1133090D4860000DC860000808600003C04FF1F0C
S11330A000002041E4860000EC860000F486000065
S11330B09A9999999999B93F9999B9BF676F0000FD
S11330C08404FF1F8C8600004404FF1F8604FF1F36
S11330D02C8800007004FF1F348800008004FF1F48
S11330E03C8800007E04FF1F8504FF1FD808FF1FD3
S11330F0DA08FF1FF408FF1FB406FF1FCA08FF1FEA
S11331000208FF1FCC08FF1FE007FF1FCE08FF1FA8
S11331101404FF1FD008FF1F2204FF1F0E08FF1F07
S11331200A08FF1F1604FF1F3204FF1FDE08FF1FDB
S11331300008FF1FF508FF1F3407FF1FD208FF1FF9
S11331404C08FF1FD408FF1F3A08FF1FD608FF1FB3
S11331501804FF1F5008FF1F4E08FF1F1A04FF1F0B
S1133160E008FF1F4A08FF1FB006FF1F7404FF1F7B
S11331700CFEFFFFE808FF1FE708FF1F8E08FF1F74
S11331808C08FF1F9608FF1FB807FF1FF808FF1FD2
S1133190F908FF1FC608FF1FBA08FF1F40F00F40C1
S11331A010900340D807FF1F00D0064080F00F4066
S11331B02649096808607047244B1B6898602348B7
S11331C00068C160214800680261704710B51F495A
S11331D009680968081A1E4908601D48006803F058
S11331E075FF1A490968896800F02CFD0400174826
S11331F00068406903F06AFF14490968C96800F06F
S113320021FD0100200003F079FF04000F4800684D
S1133210806903F05BFF0D490968096900F012FD3C
S1133220210003F0DFFF00F079FD0A490860074838
S113323000680649096849698161044800680449CD
S1133240096841610348006810BD00001004FF1FB5
S1133250FC04FF1F0005FF1F0821DFF8F425126896
S113326052F40032DFF8E8351A6000BFDFF8E025D9
S1133270126832F48042DFF8D8351A6000BF19E0D2
S1133280DFF8CC25126832F40042DFF8C4351A6046
S1133290DFF8BC25126852F48042DFF8B4351A60B6
S11332A000BFDFF8AC25126832F48042DFF8A035A5
S11332B01A6040000A00511ED2B2002A0AD0020647
S11332C0DED5DFF88C25126852F40042DFF8803531
S11332D01A60DDE7704700000821DFF874251268E2
S11332E032F40032DFF868351A60DFF864251268BA
S11332F032F48042DFF858351A6019E0DFF85025BF
S1133300126832F40042DFF848351A60DFF84025CD
S1133310126852F48042DFF838351A6000BFDFF8D3
S11333203025126832F48042DFF824351A604000F8
S11333300A00511ED2B2002A0AD00206DED5DFF8F6
S11333401025126852F40042DFF804351A60DDE7F4
S1133350704710B50400B1F15000C0B2FFF7BCFFD4
S1133360E4B2200950F01000C0B2FFF7B5FF14F02A
S11333700F0050F00100C0B2FFF7AEFF10BD70B5F2
S11333800400002508E02000C0B2FFF765FF761CAA
S1133390F6B2802EF7D36D1CEDB2082D0CD2B5F128
S11333A05000C0B2FFF798FF0120FFF795FF1020EF
S11333B0FFF792FF0026EBE770BD38B5002407E065
S11333C00020FFF749FF6D1CEDB2802DF8D3641C7B
S11333D0E4B2082C0CD2B4F15000C0B2FFF77CFF69
S11333E00120FFF779FF1020FFF776FF0025EBE7B8
S11333F031BD07E043F226410A00511E92B2002A71
S1133400FAD1401E80B20028F4D1704780B5DFF8AD
S113341044044FF480710160DFF83C044FF4807180
S11334200160DFF838044FF480710160DFF8300484
S11334304FF480710160DFF82C045FF47031016097
S1133440DFF80C04006850F48040DFF804140860CE
S1133450DFF8FC03006830F48030DFF8F413086010
S11334603220FFF7C6FFDFF8E803006850F480302D
S1133470DFF8DC130860AE20FFF72EFF0020FFF713
S11334802BFF1020FFF728FF4020FFF725FF8120A6
S1133490FFF722FFCF20FFF71FFFA120FFF71CFF3C
S11334A0C820FFF719FFA620FFF716FFA820FFF793
S11334B013FF3F20FFF710FFD320FFF70DFF00207D
S11334C0FFF70AFFD520FFF707FF8020FFF704FF6F
S11334D0D920FFF701FFF120FFF7FEFEDA20FFF706
S11334E0FBFE1220FFF7F8FEDB20FFF7F5FE40207D
S11334F0FFF7F2FE2020FFF7EFFE0220FFF7ECFEBD
S11335008D20FFF7E9FE1420FFF7E6FEA420FFF765
S1133510E3FEA620FFF7E0FEAF20FFF7DDFE00206C
S1133520FFF72DFF00210020FFF713FFFF20FFF717
S113353026FF642000F062FB0020FFF720FF6420D8
S113354000F05CFB01BD2DE9FC4104000D000026E8
S113355000275FF00008642092FBF0F08DF8000073
S1133560642092FBF0F100FB11200A2190FBF1F0A2
S11335708DF801000A2092FBF0F100FB11208DF878
S113358002000020804610E0F6B2300150FA87F0C5
S1133590DFF8D4124018007AFFF75EFE7F1CFFB2FA
S11335A0082FF1D3083418F101085FFA88F8B8F14C
S11335B0030F28D25FFA88F800A818F8000010F169
S11335C01006E4B2792C01D300246D1C2900C9B281
S11335D02000C0B2FFF7BDFE002709E0F6B23001BB
S11335E050FA87F0DFF88012405CFFF735FE7F1C4D
S11335F0FFB2082FF2D3691CC9B22000C0B2FFF792
S1133600A8FE0027CBE7BDE8F3812DE9FC410400C7
S11336100D00002600275FF000084FF47A7092FB3B
S1133620F0F08DF800004FF47A7092FBF0F100FB9B
S11336301120642190FBF1F08DF80100642092FBCD
S1133640F0F100FB11200A2190FBF1F08DF802004B
S11336500A2092FBF0F100FB11208DF803000020FA
S1133660804610E0F6B2300150FA87F0DFF8F81126
S11336704018007AFFF7F0FD7F1CFFB2082FF1D34A
S1133680083418F101085FFA88F8B8F1040F28D259
S11336905FFA88F800A818F8000010F11006E4B2E8
S11336A0792C01D300246D1C2900C9B22000C0B2BA
S11336B0FFF74FFE002709E0F6B2300150FA87F019
S11336C0DFF8A411405CFFF7C7FD7F1CFFB2082F91
S11336D0F2D3691CC9B22000C0B2FFF73AFE00273A
S11336E0CBE7BDE8F3812DE9F84304000D00160093
S11336F000275FF000085FF0000913E0FFB2380113
S113370050FA88F0DFF860114018007AFFF7A4FD42
S113371018F101085FFA88F8B8F1080FEED30834FD
S113372019F101095FFA89F919F8060000282CD06B
S11337305FFA89F919F80600B0F12007E4B2792C90
S113374001D300246D1C2900C9B22000C0B2FFF7C8
S113375000FE5FF000080AE0FFB2380150FA88F07A
S1133760DFF80411405CFFF777FD18F101085FFAF8
S113377088F8B8F1080FEFD3691CC9B22000C0B2B1
S1133780FFF7E7FD5FF00008C4E7BDE8F1832DE92A
S1133790F04182B004000D00002600275FF000080D
S11337A06420B2FBF0F08DF800000A20B2FBF0F0C8
S11337B00A21B0FBF1F301FB13008DF801000A208C
S11337C0B2FBF0F100FB11208DF8020000208046CE
S11337D00FE0F6B2300150FA87F023494018007A1E
S11337E0FFF73AFD7F1CFFB2082FF2D3083418F11B
S11337F001085FFA88F8B8F1030F27D25FFA88F856
S113380000A818F8000010F11006E4B2792C01D3D6
S113381000246D1C2900C9B22000C0B2FFF799FD35
S1133820002708E0F6B2300150FA87F00E49405CF8
S1133830FFF712FD7F1CFFB2082FF3D3691CC9B236
S11338402000C0B2FFF785FD0027CCE7BDE8F38177
S113385000F00F40389004403C90044040900440F5
S11338604490044014F00F40447A000080B5DFF81F
S11338708403006850F48050DFF878130860002354
S113388000220021DFF8700302F002FF002300226F
S11338900121DFF8640302F0FBFE00230022022171
S11338A0DFF8540302F0F4FE002300220321DFF8C2
S11338B0480302F0EDFE012300220421DFF838035F
S11338C002F0E6FE012300220521DFF82C0302F0BA
S11338D0DFFE012300220621C74802F0D9FE00239F
S11338E000220721C44802F0D3FE01BDF8B500252B
S11338F0FF24002301220021BF4802F0C9FE012356
S113390001220121BC4802F0C3FE0123012202214D
S1133910B94802F0BDFE012301220321B64802F09A
S1133920B7FE0421B44802F0FDFE06000521B248AA
S113393002F0F8FE07000621AF4802F0F3FE790119
S113394011EB061111EB80160721AB4802F0EAFED9
S113395016EBC0100500EDB2702D2AD00A2000F03D
S11339604DF90421A44802F0DDFE05000521A2481A
S113397002F0D8FE060006219F4802F0D3FE710132
S113398011EB051111EB801507219B4802F0CAFECB
S113399015EBC015EDB2702D0BD0EDB2302D07D064
S11339A0502D03D0602D04D10A2402E00B2400E042
S11339B00C240123012200218F4802F069FE002318
S11339C0012201218C4802F063FE0123012202211D
S11339D0894802F05DFE012301220321864802F09A
S11339E057FE0421844802F09DFE0500052182480B
S11339F002F098FE060006217F4802F093FE710152
S1133A0011EB051111EB801507217B4802F08AFEAA
S1133A1015EBC015EDB2702D2AD00A2000F0EEF897
S1133A200421754802F07EFE05000521724802F06B
S1133A3079FE06000621704802F074FE710111EB54
S1133A40051111EB801507216B4802F06BFE15EB95
S1133A50C015EDB2702D0BD0EDB2302D07D0502D26
S1133A6003D0602D04D1072402E0082400E00924D7
S1133A70012301220021604802F00AFE01230122F1
S1133A8001215D4802F004FE0023012202215A486C
S1133A9002F0FEFD012301220321574802F0F8FD44
S1133AA00421554802F03EFE05000521524802F06B
S1133AB039FE06000621504802F034FE710111EB74
S1133AC0051111EB801507214B4802F02BFE15EB75
S1133AD0C015EDB2702D2AD00A2000F08FF8042111
S1133AE0454802F01FFE05000521434802F01AFE76
S1133AF006000621404802F015FE710111EB051184
S1133B0011EB801507213C4802F00CFE15EBC015A3
S1133B10EDB2702D0BD0EDB2302D07D0502D03D067
S1133B20602D04D1042402E0052400E006240123CE
S1133B3001220021304802F0ABFD012301220121C2
S1133B402D4802F0A5FD0123012202212A4802F09A
S1133B509FFD002301220321274802F099FD04213F
S1133B60254802F0DFFD05000521234802F0DAFDB7
S1133B7006000621204802F0D5FD710111EB051164
S1133B8011EB801507211C4802F0CCFD15EBC01584
S1133B90EDB2702D2AD00A2000F030F80421164826
S1133BA002F0C0FD05000521134802F0BBFD06002C
S1133BB00621114802F0B6FD710111EB051111EB5C
S1133BC0801507210C4802F0ADFD15EBC015EDB2D0
S1133BD0702D0BD0EDB2302D07D0502D03D0602DB9
S1133BE004D1012402E0022400E003242000C0B236
S1133BF0F2BD000038800440C0F00F400D49096850
S1133C0051F001010B4A11600B4908600B48052172
S1133C1001600B48006850F0010009490860084839
S1133C2000680006FBD506480068400840000449C7
S1133C3008607047388004400800044004000440D1
S1133C4000000440FF2212EAD05C1DBF12EAD153E7
S1133C50944593422BE09C44D30780EA01021A4026
S1133C6043EA002043EA0121A1FB0030410038BFB0
S1133C7040007CF17F010BDBFE294ADA5B0842EA53
S1133C80C15153EA006373F1004C51EB10207047AB
S1133C90D1F1080CDCF120012FDB5B0810FA01F1F3
S1133CA00B4373F1004120FA0CF0504170479445E6
S1133CB01CBF02EAD153934280EA010202F000429F
S1133CC01DD0400019D0490017D05BB9634514D00A
S1133CD00902B1FA81F39940BCEB030CC00140F036
S1133CE00040C1E70002B0FA80FC10FA0CF0B3EB1C
S1133CF00C0CC90141F00041B6E7100070474000C8
S1133D000AD0490008D010F1807F94BF11F1807F60
S1133D1002E042F0FF407047D04370474100090E73
S1133D207F3915D4D1F11F0114D4400007D2C0014A
S1133D3040F00040C84048BF6FF000407047C001E9
S1133D4040F00040C8404CBF4FF000404042704734
S1133D500020704700424FF0004058BFC0437047F6
S1133D605FF0FF0C1CEAD05114BF614506E0C1109E
S1133D70400721F0E04101F16051704779B900F04A
S1133D80004100020AD0B0FA80FC00FA0CF001F104
S1133D906051A1EB0C5101EBD02140057047410269
S1133DA00CBF40F4E0016FF000010020704750F8B0
S1133DB0041B61B150F8042BD30744BFA9F10103DC
S1133DC09A18002342F8043B091FFAD1EFE7704721
S1133DD070B44FF0004591EA030C44BF6B4003F00C
S1133DE043BA00BF841A71EB030603D2001BB1412E
S1133DF0121973414FF4001C1CEB410F34BF7CEBD0
S1133E00430443E00C0DA4EB1356352E50DC45EA75
S1133E10C323DB0A45EAC121C912B6F120050DDD31
S1133E2063FA05F6EB4086EA0305124218BF45F033
S1133E300105C01851F100010CD213E062FA06F535
S1133E40F2405540F3415A40B340F3405A40801881
S1133E50594107D349085FEA30005FEA350528BFB6
S1133E6045F0010501F58011420875F1004250F159
S1133E70000041EB045170BC4FF4001C1CEB410FDB
S1133E8038BF70470020090D090570471CEB410F2E
S1133E9010D252EA43060BD0BCEB410F05D80C0DEF
S1133EA0AB43661E342EB5DD02E0AB4380185941A6
S1133EB070BC704770BC70474FEAF17CBCF1E04CB9
S1133EC02CBFBCF5001F11E05FEA4C0C34BFBCF101
S1133ED07F5F2EE05FEA9C0C4FEA0C1C4FEA3C0C1F
S1133EE0C10071F100414CEB50707047C90241EAC6
S1133EF05051C00218BF41F0010141F000414FEAA6
S1133F006C50C0F10900212810D240EACC7CCCF1DD
S1133F10200C11FA0CF070F10040CCF1200C21FAC5
S1133F200CF00CF0004C40EB0C0070474FEACC70E6
S1133F307047490011F5001F04D84FEACC10FF3038
S1133F40C0057047C817704780B5012301220021BE
S1133F50DFF8000A02F09CFB012301220121DFF8B3
S1133F60F40902F095FB012301220C21DFF8E80992
S1133F7002F08EFB012301220D21DFF8DC0902F09F
S1133F8087FB012003F026FA01BD10B501230122AD
S1133F900021DFF8C00902F07BFB01F0A7FF012339
S1133FA001220121DFF8AC0902F072FB01F09EFF4F
S1133FB0002301220021DFF89C0902F069FB01F0D3
S1133FC095FF002301220121DFF8880902F060FB3C
S1133FD0002416E001F08AFF01F088FF012301228A
S1133FE00121DFF8700902F053FB01F07FFF01F0BB
S1133FF07DFF002301220121DFF8580902F048FB6C
S1134000641CE4B27F2CE5D301F070FF01F06EFF75
S1134010012301220121DFF83C0902F039FB01F000
S113402065FF01F063FF002301220121DFF8240969
S113403002F02EFB10BD10B5012301220C21DFF884
S1134040180902F025FB01F051FF012301220D2183
S1134050DFF8040902F01CFB01F048FF00230122F1
S11340600C21DFF8F40802F013FB01F03FFF0023FA
S113407001220D21DFF8E00802F00AFB002416E01B
S113408001F034FF01F032FF012301220D21DFF89A
S1134090C80802F0FDFA01F029FF01F027FF002310
S11340A001220D21DFF8B00802F0F2FA641CE4B238
S11340B07F2CE5D301F01AFF01F018FF0123012240
S11340C00D21DFF8940802F0E3FA01F00FFF01F08C
S11340D00DFF002301220D21DFF87C0802F0D8FA3D
S11340E010BD38B50400012301220021DFF8640863
S11340F002F0CEFA01F0FAFE012301220121DFF8D9
S1134100540802F0C5FA01F0F1FE00230122002157
S1134110DFF8400802F0BCFA01F0E8FE002502E0F6
S113412001F0E4FE6D1CEDB2962DF9D308220621B0
S1134130012003F076F92070641C00230122012180
S1134140DFF8100802F0A4FA00251DE001F0CEFE0D
S113415001F0CCFE012301220121DFF8F80702F06F
S113416097FA01F0C3FE01F0C1FE082206210120E6
S113417003F057F92070641C002301220121DFF8A9
S1134180D40702F085FA6D1CEDB27F2DDED301F069
S1134190ADFE01F0ABFE012301220121DFF8B407DB
S11341A002F076FA01F0A2FE01F0A0FE0023012243
S11341B00121DFF8A00702F06BFA31BD38B5040025
S11341C0012301220C21DFF8900702F061FA01F0CB
S11341D08DFE012301220D21DFF87C0702F058FA3D
S11341E001F084FE002301220C21DFF86C0702F0A9
S11341F04FFA01F07BFE002502E001F077FE6D1C12
S1134200EDB2502DF9D308220E21012003F009F953
S11342102070641C002301220D21DFF83C0702F00A
S113422037FA00251DE001F061FE01F05FFE012375
S113423001220D21DFF8200702F02AFA01F056FED0
S113424001F054FE08220E21012003F0EAF8207048
S1134250641C002301220D21DFF8FC0602F018FA89
S11342606D1CEDB27F2DDED301F040FE01F03EFE69
S1134270012301220D21DFF8E00602F009FA01F022
S113428035FE01F033FE002301220D21DFF8C806BC
S113429002F0FEF931BD80B5DFF8C016802000F0D1
S11342A0A0F8DFF8BC160870DFF8B406007819210E
S11342B04843802190FBF1F0DFF8A8160870DFF87E
S11342C0A8060088DFF89C160978401ADFF89C16C7
S11342D00880DFF89806B0F90000DFF89416B1F909
S11342E00010C84206DADFF88C060078401EDFF8BA
S11342F084160870DFF87806B0F90000DFF86C1651
S1134300B1F90010884206DADFF868060078401C2C
S1134310DFF860160870DFF85C060078022803D224
S1134320DFF8500601210170DFF8480600781428F0
S113433003D3DFF840061421017001BD80B5DFF816
S11343403816802000F04DF8DFF830160870DFF8DA
S11343502C06007819214843802190FBF1F0DFF806
S113436020160870DFF800060088DFF814160978B4
S1134370401ADFF8F8150880DFF8F005B0F90000FE
S1134380DFF8EC15B1F90010C84206DADFF8F405DD
S11343900078401EDFF8EC150870DFF8D405B0F99A
S11343A00000DFF8C815B1F90010884206DADFF81A
S11343B0D4050078401CDFF8CC150870DFF8C4057C
S11343C00078022803D2DFF8BC0501210170DFF870
S11343D0B4050078032803D3DFF8A805032101708E
S11343E001BD10B40023002204E00C7853FA84F3D6
S11343F0491C521CD2B2C0B28242F6D39BB2C0B2A4
S113440093FBF0F0C0B210BC7047002801D54042C5
S1134410FFE77047F8B5002400250026002000219E
S1134420DFF83825D279DFF860351A80DFF82C25DB
S1134430D279DFF858351A80072713E0FFB2DFF886
S11344401C05385CDFF84415B1F9001000B288424D
S113445007DA3800FFB2DFF80415795CDFF82C25A1
S113446011807F1CFFB2792F13D2DFF81C05B0F93D
S11344700000FFB2DFF8E414795C09B28842DDDAA7
S11344803E00FFB2DFF8D404385CDFF8FC14088087
S1134490E7E7DFF8F404B0F90000F6B2DFF8BC1483
S11344A0711811F8021C401A0B2836DBDFF8D80407
S11344B0B0F90000F6B2DFF8A41471188978401A34
S11344C00B282ADBF6B2DFF89404301810F8020C3B
S11344D0F6B2DFF8881471188978401AFFF795FF4F
S11344E00A281ADAF6B2DFF87404301810F8020C4D
S11344F0F6B2DFF868147118897851FA80F0022155
S113450090FBF1F0F6B2DFF854147054F6B2DFF811
S11345104C04305CDFF870140880DFF86C04B0F9E8
S11345200000DFF86814B1F900100818022190FBAC
S1134530F1F0DFF85C14088007270CE0DFF854047E
S11345400088FFB2DFF81414795C4018DFF84414D3
S113455008806D1C7F1CFFB2792F17D2FFB2DFF8E1
S1134560FC03385CDFF82814B1F9001000B288426B
S1134570E4DBDFF824040088FFB2DFF8E013795CA1
S11345804018DFF814140880641CE3E7DFF808041B
S1134590B0F90000E4B290FBF4F0DFF8FC130880FB
S11345A0DFF8F003B0F90000EDB290FBF5F0DFF8AE
S11345B0E4130880DFF8E003B0F90000DFF8D41357
S11345C0B1F900100818022190FBF1F0DFF8C013D4
S11345D00880072712E0DFF8C4030488FFB2DFF87D
S11345E07C03385CDFF8A813B1F90010401AFFF718
S11345F00CFF0019DFF8A41308807F1CFFB2782F8A
S1134600E9D3DFF89803B0F90000722190FBF1F0D0
S1134610DFF888130880DFF88403B0F9000010285D
S11346204CDB072705E0FFB2DFF8300300213954E3
S11346307F1CFFB2792F10D2FFB2DFF82003385C61
S1134640DFF84C13B1F9001000B28842EBDBFFB283
S1134650DFF8080301213954EAE7C048C07901288A
S113466009D10027FFB2082F0FD2FFB2BB480121A6
S113467039547F1CF6E7002704E0FFB2B748002155
S113468039547F1CFFB2082FF7D3B44890F8780050
S1134690012809D17827FFB2802F2ED2FFB2AF486C
S11346A0012139547F1CF6E77827FFB2802F24D2EA
S11346B0FFB2AA48002139547F1CF6E7B748B0F985
S11346C00000102819DAB6480078AA490978884207
S11346D009D20027FFB2802F0FD2FFB29F480021DA
S11346E039547F1CF6E7002704E0FFB29B48012100
S11346F039547F1CFFB2802FF7D303202CE0C0B2C3
S11347009649415C002910D1C0B29449411811F86E
S1134710011C012909D1C0B29049411849780129E5
S113472003D1C0B28D4901224254C0B28B49415CCD
S1134730012910D1C0B28949411811F8011C00297E
S113474009D1C0B2854941184978002903D1C0B2C2
S1134750824900224254401CC0B27D28CFD3F1BD0F
S1134760F8B5040000250026002700208249497876
S11347708C4A1180804949788B4A118001210FE0CD
S1134780C9B27D48085C884AB2F9002000B2904260
S113479005DA0800C9B2784A8A5C834B1A80491C3E
S11347A0C9B27F290FD27F48B0F90000C9B2724A5A
S11347B08A5C12B29042E3DA0F00C9B26E48085C18
S11347C0784A1080EBE77748B0F90000FFB26A49F5
S11347D0791811F8021C401A0B2829DB7148B0F92A
S11347E00000FFB2644979188978401A0B281FDB4E
S11347F0FFB26148381810F8020CFFB25E4979180C
S11348008978401AFFF701FE0A2811DAFFB25A48E4
S1134810381810F8020CFFB257497918897808182B
S1134820FFB255497854FFB25348385C5D4908805B
S11348305C48B0F900005C49B1F900100818022185
S113484090FBF1F059490880002109E0584800889C
S1134850C9B2494A8A5C8018554A1080761C491CA2
S1134860C9B27F2912D2C9B24348085C4F4AB2F98F
S1134870002000B29042E9DB4E480088C9B23E4AAB
S11348808A5C80184B4A10806D1CE8E74948B0F9EF
S11348900000EDB290FBF5F0464908804448B0F9B9
S11348A00000F6B290FBF6F0414908804148B0F9A7
S11348B000003F49B1F900100818022190FBF1F003
S11348C03A490880002103E000202070641C491C40
S11348D0C9B2802909D22078344AB2F9002000B242
S11348E09042F1DB01202070F0E703202CE0C0B2FD
S11348F02149415C002910D1C0B21F49411811F867
S1134900011C012909D1C0B21B4941184978012968
S113491003D1C0B2184901224254C0B21649415CC5
S1134920012910D1C0B21449411811F8011C002901
S113493009D1C0B2104941184978002903D1C0B245
S11349400D4900224254401CC0B27D28CFD3F1BD92
S11349500000000000F10F4000F00F40B406FF1FFC
S1134960E208FF1FE308FF1F1E04FF1F7E08FF1F4E
S11349702004FF1F2204FF1F3407FF1FE408FF1F4A
S1134980E508FF1F2304FF1FE207FF1FE407FF1FC3
S1134990E607FF1F8408FF1F8208FF1F8008FF1F10
S11349A03204FF1F3C08FF1F3E08FF1F4008FF1F83
S11349B08808FF1F8608FF1F70B50020DFF8641CFD
S11349C0B1F900104A1CDFF85C3C1A8009B2C9290D
S11349D003DBDFF8500CC92101800020DFF8481CFC
S11349E00978002903D1DFF8440C00210170DFF8B5
S11349F0400C0078002803D1DFF8380C0021017046
S1134A00792001E00024401E00B2062822DB00B217
S1134A10DFF8241C415C0129F4D100B2DFF8181C32
S1134A20411811F8011C0029ECD100B2DFF8081C70
S1134A30411811F8021C0029E4D100B2DFF8F81B78
S1134A40411811F8031C0029DCD1801EDFF8EC1B8F
S1134A5008800124062001E00025401C00B27A28C9
S1134A601FDA00B2DFF8D01B415C0129F4D100B297
S1134A70DFF8C41B411849780029EDD100B2DFF8F2
S1134A80B81B411889780029E6D100B2DFF8A81BC9
S1134A904118C9780029DFD1801CDFF8A41B0880E5
S1134AA0012524B2012C40F0AB802DB2012D40F041
S1134AB0A780DFF8900B00210170DFF8840BB0F9B8
S1134AC00000DFF8781BB1F9001088425BDADFF8E8
S1134AD0540BB0F90000C92848DBDFF8640BB0F9C7
S1134AE00000DFF85C1BB1F900100818DFF8581B50
S1134AF0B1F90010401A022190FBF1F0DFF84C1BD1
S1134B00B1F90010401AFFF780FC0600DFF82C0B07
S1134B10B0F90000DFF8241BB1F900100818DFF821
S1134B20281BB1F900104018022190FBF1F0DFF8C6
S1134B301C1BB1F90010401AFFF767FC86420ADA21
S1134B40DFF8FC0A0088DFF8001B0988401ADFF848
S1134B50EC1A088031E2DFF8E40A0088DFF8E81A8A
S1134B6009880818DFF8D81A088026E2DFF8CC0A8A
S1134B70DFF8A01C09880180DFF8C40ADFF8D01A26
S1134B800988018019E2DFF8B80AB0F90000DFF8FB
S1134B90AC1AB1F90010401ADFF8AC1AB1F90010E0
S1134BA00A3988422BDADFF8940AB0F90000DFF8FA
S1134BB0901AB1F900100818022190FBF1F03F2877
S1134BC00EDADFF87C0A0088DFF8841A0988401AB4
S1134BD0DFF8401C09880818DFF8601A0880ECE147
S1134BE0DFF8580A0088DFF8681A09880818DFF81F
S1134BF0241C0988401ADFF8481A0880DDE1DCE14A
S1134C0024B2012C6CD12DB2002D69D1DFF8400AF9
S1134C10B0F90000DFF8241AB1F9001088420EDA66
S1134C20DFF8F00B0088401CDFF8101A0880DFF86A
S1134C30200A0088401CDFF8081A0880BDE1DFF86C
S1134C40100AB0F90000DFF8F419B1F90010884235
S1134C50C0F2B381DFF8E409B0F90000DFF8E81925
S1134C60B1F90010D1F1750188422ADADFF8C409DC
S1134C7001210170DFF8A00BDFF8A01B0988018077
S1134C80DFF8980BDFF8981B09880180DFF8900B98
S1134C90DFF8901B09880180DFF8880BDFF89C1986
S1134CA009880180DFF894090088DFF8A4190988CD
S1134CB00818DFF8601B0988401ADFF88419088097
S1134CC07BE1DFF878090088DFF88419098808187F
S1134CD0DFF8401B0988401ADFF8641908806CE18A
S1134CE024B2002C6BD12DB2012D68D1DFF850090C
S1134CF0B0F90000DFF81C1BB1F9001088420EDA8D
S1134D00DFF8100B0088401EDFF830190880DFF848
S1134D1040090088401EDFF8281908804DE1DFF8BB
S1134D202009B0F90000DFF8EC1AB1F9001088424C
S1134D30C0F24381DFF81009B0F900000A30DFF84F
S1134D400019B1F9001088422ADADFF8E0080121DD
S1134D500170DFF8D40ADFF8D41A09880180DFF87B
S1134D60CC0ADFF8CC1A09880180DFF8C40ADFF81E
S1134D70C41A09880180DFF8BC0ADFF8C41809885E
S1134D800180DFF8BC080088DFF8C4180988401ADD
S1134D90DFF8801A09880818DFF8A01808800CE1E9
S1134DA0DFF89C080088DFF8A8180988401ADFF8A3
S1134DB0641A09880818DFF884180880FDE055EAA9
S1134DC0040000B2002840F0F880DFF86C0A007894
S1134DD0DFF8681A0978884280F0A680DFF8F40BBF
S1134DE0B0F90040DFF8F00BB0F90050DFF8E40B45
S1134DF00088DFF8E41B0988084300B200280CD1BE
S1134E00DFF83808DFF80C1A09880180DFF8300869
S1134E10DFF83C1809880180CFE0DFF8B80BB0F95F
S1134E200000002830D1DFF8B00BB0F900000128F1
S1134E302AD1DFF8E0090088DFF8D819B1F90010A9
S1134E40DFF8982BB2F90020891A03225143022279
S1134E5091FBF2F1401ADFF8E4170880DFF8F0075D
S1134E600088DFF8EC17B1F90010DFF8742BB2F901
S1134E700020891A03225143022291FBF2F1401AC5
S1134E80DFF8BC17088098E0DFF8480BB0F90000A1
S1134E90012830D1DFF8400BB0F9000000282AD1F6
S1134EA0DFF870090088DFF86C19B1F90010DFF839
S1134EB02C2BB2F90020891A03225143022291FBC0
S1134EC0F2F1401ADFF874170880DFF884070088CD
S1134ED0DFF87C17B1F90010DFF8042BB2F90020D9
S1134EE0891A03225143022291FBF2F1401ADFF89E
S1134EF05017088061E0DFF8DC0AB0F900000128EF
S1134F005BD1DFF8D40AB0F90000012855D1DFF8ED
S1134F102C07DFF8001909880180DFF82407DFF87F
S1134F2030170988018048E0DFF810090078DFF8BD
S1134F3008190978884240D2DFF8D808B0F900008F
S1134F40DFF80C17B1F900100818022190FBF1F0FA
S1134F50DFF8901AB1F9001081420EDADFF8B408D4
S1134F600088801CDFF8D4160880DFF8E406008887
S1134F70801CDFF8CC1608801FE0DFF89808B0F931
S1134F800000DFF8CC16B1F900100818022190FBDC
S1134F90F1F0DFF8501AB1F9001081420DDBDFF8AF
S1134FA074080088801EDFF894160880DFF8A006D5
S1134FB00088801EDFF888160880DFF86808B0F9DA
S1134FC00000DFF85C18B1F900100818DFF84C187D
S1134FD0B1F900104018032190FBF1F0DFF8081A32
S1134FE00880DFF84008B0F90000DFF8FC19B1F9D7
S1134FF00010401ADFF82C18B1F90010DFF8E82986
S1135000B2F90020891ADFF81828B2F90020DFF875
S1135010D839B3F90030D21ADFF80438B3F90030C4
S1135020DFF8C469B6F900609B1B5A4301FB0020FA
S1135030DFF8E817B1F90010DFF8AC29B2F9002065
S1135040891ADFF8D827B2F90020DFF89C39B3F9C0
S11350500030D21A02FB0100032190FBF1F0DFF8CB
S11350608C190880DFF8CC07B0F90000DFF8C0170E
S1135070B1F900100818DFF8B417B1F9001040189E
S1135080032190FBF1F0DFF868190880DFF8A4072A
S1135090B0F90000DFF85819B1F90010401ADFF830
S11350A09417B1F90010DFF84829B2F90020891AE1
S11350B0DFF87C27B2F90020DFF83439B3F9003087
S11350C0D21ADFF86C37B3F90030DFF82469B6F987
S11350D000609B1B5A4301FB0020DFF85017B1F915
S11350E00010DFF80C29B2F90020891ADFF83C27F8
S11350F0B2F90020DFF8F838B3F90030D21A02FB15
S11351000100032190FBF1F0DFF8E8180880DFF8D4
S11351102C050088DFF8FC160988401ADFF8F4161D
S113512009880818DFF8D0180988401ADFF8C81869
S113513009880818DFF8C4180988401ADFF8C0186D
S11351400880DFF8FC040088DFF804150988401A99
S1135150DFF8FC1409880818DFF8A8180988401A31
S1135160DFF8A01809880818DFF89C180988401A85
S1135170DFF898180880DFF8C404B0F90000DFF8FD
S11351805C18B1F90010401ADFF8B014B1F900103E
S1135190DFF84828B2F90020891ADFF87826B2F936
S11351A00020DFF83838B3F90030D21ADFF864365B
S11351B0B3F90030DFF82468B6F900609B1B5A434A
S11351C001FB0020DFF83018B1F90010DFF80C28DB
S11351D0B2F90020891ADFF82028B2F90020DFF89C
S11351E0FC37B3F90030D21A02FB0100032190FB13
S11351F0F1F0DFF81C180880DFF84404B0F900006F
S1135200DFF8DC17B1F90010401ADFF83414B1F9F3
S11352100010DFF8CC27B2F90020891ADFF8302417
S1135220B2F90020DFF8B837B3F90030D21ADFF84A
S11352302034B3F90030DFF8A867B6F900609B1B8F
S11352405A4301FB0020DFF8BC17B1F90010DFF866
S11352509027B2F90020891ADFF8A827B2F90020B4
S1135260DFF87C37B3F90030D21A02FB01000321C6
S113527090FBF1F0DFF89C170880DFF89C070078BA
S1135280012840F0E080DFF8AC03007801285ED10B
S1135290DFF888070088401CDFF880170880DFF8F3
S11352A07C07B0F90000032851DBDFF87007B0F980
S11352B00000C01E80B2392833D2E348B0F90000A0
S11352C0401DE349B1F90010DFF84825B2F9002088
S11352D0891A884203DBDFF8480701210170DFF8EF
S11352E040070078012832D1D14801210170DFF84C
S11352F02C07B0F90000142829DAD348B0F90000CB
S1135300022190FBF1F0D0F18200CC490880CE4814
S1135310B0F90000022190FBF1F08230C849088006
S113532015E0DFF8F80600210180C2480021017071
S1135330DFF8EC0600210170BD4800210170DFF8A0
S1135340280B00210180DFF8240B01210170B948EA
S11353500078B74909780843C0B2002803D1DFF8C0
S1135360BC0600210180B148007801285FD1DFF834
S1135370000B0088401CDFF8F81A0880DFF8F00AF8
S1135380B0F90000032852DBDFF8E40AB0F90000AA
S1135390C01E80B2392834D2AB48B0F90000401D99
S11353A0AB49B1F90010DFF86C24B2F90020891A76
S11353B0884203DBDFF8BC0A01210170DFF8B40A7C
S11353C00078012833D1984801210170DFF8A00A40
S11353D0B0F9000014282ADA7FF002009A49B1F9E2
S11353E00010022291FBF2F1401A94490880964879
S11353F0B0F90000022190FBF1F0C01E9049088032
S113540015E0DFF86C0A0021018088480021017052
S1135410DFF8600A00210170834800210170DFF881
S1135420480A00210180DFF8440A012101707F4805
S113543000787D4909780843C0B2002803D1DFF819
S1135440300A002101807D48B0F900007C49B1F99F
S113545000100818022190FBF1F0DFF81C1A0880F4
S1135460DFF8140A0088DFF87C150988401ADFF891
S11354700C1A08807548DFF8001A09880180DFF8E3
S113548054050480DFF850050580DFF8F409DFF8DF
S1135490F41909880180DFF8F009DFF8F0190988A8
S11354A00180DFF8E009DFF8541509880180DFF88E
S11354B0DC09DFF8541509880180DFF84005DFF8BE
S11354C0381509880180DFF84005DFF838150988A8
S11354D00180DFF82405CF4909880180DFF824051D
S11354E05B4909880180CB485449098801805848A0
S11354F0534909880180DFF89809DFF89819098869
S11355000180DFF89009DFF8901909880180DFF83D
S11355108809DFF8881909880180DFF88009DFF835
S1135520801909880180DFF87809DFF8781909887B
S11355300180DFF87009DFF8701909880180DFF84D
S11355406809DFF8681909880180DFF86009DFF865
S1135550601909880180DFF85809DFF858190988AB
S11355600180DFF85009DFF8141909880180DFF899
S113557044090088DFF838190988401ADFF8381917
S11355800880DFF82C090088DFF820190988401A00
S1135590DFF828190880DFF814090088DFF80819F3
S11355A00988401ADFF818190880DFF8FC08008819
S11355B0DFF8F0180988401ADFF808190880DFF8C6
S11355C0E4080088DFF8D8180988401ADFF8F818CA
S11355D00880DFF8CC080088DFF8C0180988401A72
S11355E0DFF8E8180880DFF8B4080088DFF8A818A6
S11355F00988401ADFF8D8180880DFF89C0800886A
S1135600DFF890180988401ADFF8C8180880DFF816
S113561084080088DFF878180988401ADFF8AC1B82
S1135620088070BDB208FF1FE908FF1FE808FF1FCC
S1135630EA08FF1FE708FF1FB406FF1FE007FF1F6C
S11356401404FF1FE608FF1F0008FF1F0408FF1FC4
S1135650EE07FF1F30B4032006210022DFF878385C
S113566000241C80DFF8743800241C80DFF8603BC1
S113567000241C800B1A5B1C1A00DFF86438DFF866
S1135680FC4724881C8064230CE0DBB2DFF850481C
S113569014EB430434F8024CDBB2DFF8445825F829
S11356A013405B1EDBB2012BEFD200230CE0DFF8CA
S11356B034482488DBB2DFF8285835F813502C1905
S11356C0DFF820582C805B1CDBB2032BEFD3DFF810
S11356D01438B3F90030032493FBF4F3DFF80448DF
S11356E02380002310E0DBB2DFF8F44734F81340E2
S11356F0DBB2DFF8EC5735F813506C43DBB2DFF85C
S1135700E85725F813405B1CDBB2032BEBD30023D3
S11357100CE0DFF8C4472488DBB2DFF8CC5735F857
S113572013502C19DFF8B0572C805B1CDBB2032B11
S1135730EFD3DFF8A437B3F90030032493FBF4F379
S1135740DFF898472380DFF89C3700241C8000236F
S113575006E0DBB2DFF89047002524F813505B1C09
S1135760DBB2052BF5D3DFF8703700241C8003006F
S11357700CE0DFF870472488DBB2DFF8645735F8B3
S113578013502C19DFF85C572C805B1CDBB2C9B2B8
S11357908B42EED3DFF84C37B3F90030C9B293FB38
S11357A0F1F3DFF840472380030010E0DBB2DFF8B9
S11357B0304734F81340DBB2DFF8245735F8135080
S11357C06C43DBB2DFF8205725F813405B1CDBB2D7
S11357D0C9B28B42EAD303000CE0DFF8FC06008870
S11357E0DBB2DFF8044734F813402018DFF8E8464A
S11357F020805B1CDBB2C9B28B42EED3DFF8D80643
S1135800B0F90000D2B290FBF2F0DFF8C4190880BE
S113581030BC7047EC07FF1FA808FF1FA608FF1F36
S1135820A408FF1FA208FF1FA008FF1F9E08FF1F58
S11358309C08FF1F9A08FF1F2204FF1F3204FF1F4A
S113584030B58BB00024002505A8142101F0B0FE6A
S113585000A8142101F0ACFE7E2022E000B2DFF8A3
S11358603C194118497801291AD100B2DFF82C19E2
S1135870415C012914D100B2DFF82019411811F854
S1135880011C00290CD100B2DFF81019411811F8DD
S1135890021C002904D124B205A921F81400641CB7
S11358A0401E00B20228D9DA012021E000B2DFF85C
S11358B0EC18411811F8011C012918D100B2DFF8C5
S11358C0DC18415C012912D100B2DFF8D01841186C
S11358D0497800290BD100B2DFF8C0184118897843
S11358E0002904D12DB200A921F815006D1C401C1B
S11358F000B27E28DADB24B2032C48D12DB2032D6A
S113590045D1BDF81600BDF80010401ADFF8C418E0
S11359100880BDF81400BDF80210401ADFF8B8186A
S11359200880BDF91600BDF9021001FA80F00221C9
S113593090FBF1F0DFF8A4180880DFF89808B0F9BC
S11359400000DFF89418B1F90010401AFEF75DFD6D
S113595005281CDADFF83809B0F90000DFF87C18F4
S1135960B1F90010401AFEF750FD05280FDADFF8F0
S11359706408B0F900000F2809DBDFF85C08B0F90F
S113598000000F2803DBDFF80C0901210180DFF898
S11359900409B0F90000012819D1DFF8FC08B0F9B6
S11359A00000411CDFF8F028118000B23D280EDB16
S11359B0DFF8E40800210180DFF8D8080021018025
S11359C0DFF8D8080088401CDFF8D01808800BB036
S11359D030BD0000B408FF1FB608FF1F0A08FF1FF0
S11359E01604FF1F0E08FF1FAC08FF1FAE08FF1FA1
S11359F0AA08FF1FB008FF1FF007FF1FF407FF1FCF
S1135A00E807FF1FF207FF1FF607FF1FEA07FF1F44
S1135A100608FF1F0808FF1FEE08FF1F8C08FF1F62
S1135A20EC08FF1F10B4002300210B007E2101E0CD
S1135A300022491E09B2042922DB09B2DFF85C27DF
S1135A408A5C012AF4D109B2DFF850278A1812F8C7
S1135A50012C002AECD109B2DFF840278A1812F889
S1135A60022C002AE4D109B2DFF830278A1812F890
S1135A70032C002ADCD18A1EDFF824381A80012284
S1135A80012301E000205B1C1BB27B2B1FDA1BB23D
S1135A90DFF80807185C0128F4D11BB2DFF8FC0614
S1135AA0181840780028EDD11BB2DFF8F00618185A
S1135AB080780028E6D11BB2DFF8E0061818C07819
S1135AC00028DFD1981CDFF8DC472080012012B2C7
S1135AD0012A5AD100B2012857D1DFF8CC07B0F916
S1135AE00000DFF8C827B2F90020801A2E283FDB17
S1135AF0DFF8B007B0F90000DFF8A427B2F90020FE
S1135B00904280F2E780DFF8A807B0F90000DFF8E0
S1135B109427B2F90020801A1F280EDB881EDFF8B4
S1135B2080170880DFF878070088DFF8881709886D
S1135B300818DFF870170880CCE0DFF86407B0F9C4
S1135B400000DFF87417B1F90010401A1F28C0F2E2
S1135B50C180981CDFF84C170880DFF848070088DC
S1135B60DFF850170988401ADFF834170880B1E0CD
S1135B70DFF82C07DFF8401709880180DFF82407D5
S1135B80DFF82C1709880180A4E012B2012A3CD165
S1135B9000B2002839D1DFF81007B0F90000DFF8AF
S1135BA00C17B1F90010401A2E2821DBDFF800078A
S1135BB0B0F90000DFF8E816B1F9001088420CDAF9
S1135BC0DFF8DC06DFF8F01609880180DFF8D40678
S1135BD0DFF8DC16098801807CE0DFF8C406008861
S1135BE0DFF8D01609880818DFF8B816088071E0C5
S1135BF0DFF8AC06DFF8C01609880180DFF8A406D8
S1135C00DFF8AC160988018064E012B2002A3CD1A6
S1135C1000B2012839D1DFF89006B0F90000DFF8AE
S1135C208C16B1F90010401A2E2821DBDFF8740617
S1135C30B0F90000DFF88016B1F9001088420CDAE0
S1135C40DFF85C06DFF8701609880180DFF8540677
S1135C50DFF85C16098801803CE0DFF86006008804
S1135C60DFF850160988401ADFF83416088031E04E
S1135C70DFF82C06DFF8401609880180DFF82406D7
S1135C80DFF82C160988018024E0104300B20028B4
S1135C9020D1DFF82406B0F90000402805DADFF847
S1135CA01006B0F9000040280CDADFF8F405DFF83C
S1135CB0081609880180DFF8EC05DFF8F415098877
S1135CC0018007E0DFF8D80500210180DFF8D40562
S1135CD07F210180DFF8C805B0F90000DFF8C415A2
S1135CE0B1F900100818022190FBF1F0DFF88418D4
S1135CF00880DFF880080088DFF894150988401AC6
S1135D00DFF874180880DFF8B005DFF89415098807
S1135D100180DFF89C05DFF88C1509880180DFF825
S1135D205C08DFF8941509880180DFF85408DFF86F
S1135D30801509880180DFF84C08DFF84C180988C1
S1135D400180DFF84408DFF8441809880180DFF88F
S1135D503C08DFF83C1809880180DFF83408DFF8D4
S1135D60341809880180DFF82C08DFF82C1809881A
S1135D700180DFF82408DFF8241809880180DFF89F
S1135D801C08DFF81C1809880180DFF81408DFF804
S1135D90141809880180DFF80C08DFF80C1809884A
S1135DA00180DFF80408DFF8D01709880180DFF8E4
S1135DB0F8070088DFF8EC170988401ADFF8EC17B9
S1135DC00880DFF8E0070088DFF8D4170988401A54
S1135DD0DFF8DC170880DFF8C8070088DFF8BC1795
S1135DE00988401ADFF8CC170880DFF8B00700886C
S1135DF0DFF8A4170988401ADFF8BC170880DFF819
S1135E0098070088DFF88C170988401ADFF8AC1768
S1135E100880DFF880070088DFF874170988401AC3
S1135E20DFF89C170880DFF868070088DFF85C1744
S1135E300988401ADFF88C170880DFF850070088BB
S1135E40DFF844170988401ADFF87C170880DFF868
S1135E5038070088DFF82C170988401ADFF86C1718
S1135E60088010BC704700008A08FF1FED08FF1F60
S1135E708E08FF1FEB08FF1F0208FF1F1208FF1FF9
S1135E80FC07FF1FF807FF1FFE07FF1FFA07FF1F8E
S1135E902608FF1F2408FF1F2208FF1F2008FF1FDA
S1135EA01E08FF1F1C08FF1F1A08FF1F1808FF1FEA
S1135EB01608FF1F1408FF1F2808FF1F2A08FF1FCA
S1135EC02C08FF1F2E08FF1F3008FF1F3208FF1F7A
S1135ED03408FF1F3608FF1F9408FF1F9608FF1F92
S1135EE01C05FF1F9208FF1FE405FF1F81B000205F
S1135EF08DF8000006E000BF00BF9DF80000401CC4
S1135F008DF800009DF800000128F4D301B070471B
S1135F1010B5DFF8BC06DFF8BC1609680160DFF8CD
S1135F20B806DFF8B81609880180DFF8AC06B0F9C6
S1135F300000642803DBDFF8A00663210180DFF89A
