S027000050452056312E3420323031342E30372E30372072656E7A695F7A756F796F752E73726563EC
S1130000F8FF002011040000CB630000CB63000064
S1130010CB630000CB630000CB630000CB63000024
S1130020CB630000CB630000CB630000CB63000014
S1130030CB630000CB630000CB630000CB63000004
S1130040CB630000CB630000CB630000CB630000F4
S1130050CB630000CB630000CB630000CB630000E4
S1130060CB630000CB630000CB630000CB630000D4
S1130070CB630000CB630000CB630000CB630000C4
S1130080CB630000CB630000CB630000CB630000B4
S1130090CB630000CB630000CB630000CB630000A4
S11300A0CB630000CB630000CB630000CB63000094
S11300B0CB630000CB630000CB630000CB63000084
S11300C0CB630000CB630000CB630000CB63000074
S11300D0CB630000CB630000CB630000CB63000064
S11300E0CB630000CB630000CB630000CB63000054
S11300F0CB630000CB630000CB630000CB63000044
S1130100CB630000CB630000CB630000CB63000033
S1130110CB630000CB630000CB630000CB63000023
S1130120CB630000CB630000CB630000CB63000013
S1130130CB630000CB630000CB630000CB63000003
S1130140CB630000CB630000CB630000CB630000F3
S1130150317A0000CB630000CB630000CB63000066
S1130160CB630000CB630000CB630000CB630000D3
S1130170CB630000CB630000CB630000CB630000C3
S1130180CB630000CB630000CB630000CB630000B3
S1130190CB630000CB630000CB630000CB630000A3
S1130400FFFFFFFFFFFFFFFFFFFFFFFFFEFFFFFFF9
S11304104FF000004FF000014FF000024FF00003D6
S11304204FF000044FF000054FF000064FF00007B6
S11304304FF000084FF000094FF0000A4FF0000B96
S11304404FF0000C62B607F0A1FBFEE738B50022BE
S113045000240025DFF86C17002003E000220A7056
S1130460491C401CC0B28A28F8D302F093FCDFF880
S1130470240EB0F9000002F049FDDFF84C270021FA
S1130480002002F0DEFFDFF8442700213C2002F0C8
S1130490D8FFDFF83C270221002002F0D2FFDFF86A
S11304A0342702213C2002F0CCFF03F08DF803F046
S11304B0CBF8DFF8E41D08706E2003F04DFADFF886
S11304C0D80D0078012840F0A080DFF8CC0DFF2182
S11304D00170DFF804070121017002F01CFE8CE0BA
S11304E0AFA20021002002F0ACFFDFF8F0060068A4
S11304F0DFF8701E03F054FA03F0BEFA80B2020073
S113050000213C2002F0F1FFA6A20221002002F00B
S113051098FFDFF86C2E02213C2002F092FFA2A289
S11305200421002002F08DFFDFF8582E04213C2026
S113053002F087FF9DA20621002002F082FFDFF86F
S1130540482E06213C2002F07CFF6E2003F004FAC2
S113055003F03AF803F078F8DFF8301E0870DFF89B
S11305602C0E0078FF2805D0DFF82C0DDFF81C1EB8
S113057009780170DFF8200D0078072813D1DFF81F
S11305805C06006803F09AFADFF86C2EDFF86C3E24
S113059003F0CCFA03F03EFBDFF840160860DFF806
S11305A0F80CFF210170DFF8F00C0078082813D153
S11305B0DFF82806006803F081FADFF83C2EDFF844
S11305C0403E03F0B3FA03F025FBDFF81016086091
S11305D0DFF8C40CFF210170DFF8BC0C0078092897
S11305E00BD1DFF8F405FF210170DFF8AC0CFF211B
S11305F00170DFF8980DFF210170DFF8DC05007849
S113060001283FF46DAF02F086FDDFF88C0C007812
S1130610022840F09C80DFF8800CFF210170DFF895
S1130620B8050221017002F076FD88E06E2003F027
S113063093F902F0C9FF03F007F8DFF8501D0870C2
S1130640DFF8480D0078FF2805D0DFF84C0CDFF800
S11306503C1D09780170E7A20021002002F0F1FEA0
S1130660DFF8F00D0068DFF8FC1C03F099F903F0E3
S113067003FA80B2020000213C2002F036FF49A2B6
S11306800221002002F0DDFEDFF8CC2D02213C2007
S113069002F0D7FE44A20421002002F0D2FEDFF8CB
S11306A0BC2D04213C2002F0CCFE40A206210020F7
S11306B002F0C7FEDFF8A82D06213C2002F0C1FE9F
S11306C0DFF8D40B0078072813D1DFF8880D006811
S11306D003F0F4F9DFF8202DDFF8203D03F026FACB
S11306E003F098FADFF86C1D0860DFF8AC0BFF210B
S11306F00170DFF8A40B0078082813D1DFF8540D3B
S1130700006803F0DBF9DFF8F02CDFF8F43C03F0C9
S11307100DFA03F07FFADFF83C1D0860DFF8780B70
S1130720FF210170DFF8700B0078092807D1DFF88A
S1130730A804FF210170DFF8600BFF210170DFF8CE
S11307409804007802283FF471AF02F0E4FCDFF86B
S1130750480B0078032840F0A480DFF83C0BFF210D
S11307600170DFF874040321017002F0D4FC91E0FD
S11307706E2003F0F1F802F027FF02F065FFDFF8C6
S11307800C1C0870DFF8040C0078FF2805D0DFF893
S1130790080BDFF8F81B09780170CBA208E000BF52
S11307A053703A002B3A00002D3A000052653A008B
S11307B00021002002F045FEDFF8A80C0068DFF8F5
S11307C0A41B03F0EDF803F057F980B202000021F6
S11307D03C2002F08AFEE1A20221002002F031FE58
S11307E0DFF8742C02213C2002F02BFEDCA2042151
S11307F0002002F026FEDFF8642C04213C2002F0E5
S113080020FED8A20621002002F01BFEDFF8502CA7
S113081006213C2002F015FEDFF87C0A0078072848
S113082013D1DFF8400C006803F048F9DFF8C82B57
S1130830DFF8C83B03F07AF903F0ECF9DFF8241C85
S11308400860DFF8540AFF210170DFF84C0A0078D1
S1130850082813D1DFF80C0C006803F02FF9DFF837
S1130860982BDFF89C3B03F061F903F0D3F9DFF830
S1130870F41B0860DFF8200AFF210170DFF8180A72
S11308800078092806D1D448FF210170DFF8080A4E
S1130890FF210170D048007803283FF469AF02F0CB
S11308A03AFCDFF8F4090078042840F08080DFF88F
S11308B0E809FF210170C8480421017002F02BFCF3
S11308C06FE06E2003F048F802F07EFE02F0BCFEFA
S11308D0DFF8B81A0870DFF8B40A0078FF2805D0EA
S11308E0DFF8B409DFF8A41A09780170DFF8782B6F
S11308F00021002002F0A5FDDFF8700BB0F9002004
S113090000213C2002F0F1FD94A20221002002F01B
S113091098FDDFF8442B02213C2002F092FD90A2C6
S11309200421002002F08DFDDFF8302B04213C204F
S113093002F087FD8BA20621002002F082FDDFF881
S1130940202B06213C2002F07CFDDFF84C090078C6
S113095007280AD1DFF8140B00880A30DFF80C1BD3
S11309600880DFF83409FF210170DFF82C090078D2
S113097008280AD1DFF8F40A00880A38DFF8EC1AEC
S11309800880DFF81409FF210170DFF80C090078F2
S1130990092806D19048FF210170DFF8FC08FF21E7
S11309A001708D48007804288BD002F0B4FBDFF886
S11309B0E80800780A287FF460ADDFF8DC08FF213E
S11309C0017002F0A8FBDFF89C0A0268DFF8840AD1
S11309D001688248006802F09DFAFA2002F0BCFF28
S11309E0DFF88C2A0021002002F02BFDDFF8842A96
S11309F002E000BF53693A0000213C2002F021FDCF
S1130A00DFF8742A0221002002F01BFDDFF86C2AB3
S1130A100421002002F015FDDFF8642A04213C20A3
S1130A2002F00FFDDFF85C2A0621002002F009FD28
S1130A3002F0CAFD02F008FEDFF85C1808706E20B0
S1130A4002F08AFFDFF850080078012840F0A880FF
S1130A50DFF84408FF2101705F480121017002F0B2
S1130A605AFB96E056A20021002002F0EAFCDFF8CF
S1130A70180A0068DFF8EC1802F092FF02F0FCFF9D
S1130A8080B2020000213C2002F02FFD33A202219B
S1130A90002002F0D6FCDFF8E82802213C2002F016
S1130AA0D0FC2FA20421002002F0CBFCDFF8D428D4
S1130AB004213C2002F0C5FC2AA20621002002F0F9
S1130AC0C0FCDFF8C42801E053643A0006213C204E
S1130AD002F0B7FC6E2002F03FFF02F075FD02F059
S1130AE0B3FDDFF8A8180870DFF8A0080078FF2825
S1130AF005D0DFF8A407DFF8941809780170DFF84F
S1130B0098070078072813D1DFF87C09006802F001
S1130B10D5FFDFF8E428DFF8E43803F007F803F042
S1130B2079F8DFF864190860DFF86C07FF210170B9
S1130B30DFF86407007808281BD1DFF84C09006847
S1130B4002F0BCFFDFF8B028DFF8B43802F0EEFFA3
S1130B5003F060F8DFF8301906E000BF2B3A00001C
S1130B602D3A000052653A000860DFF82C07FF2197
S1130B700170DFF82407007809280AD11648FF21FC
S1130B800170DFF81407FF210170DFF80008FF216E
S1130B9001701148007801283FF464AF02F0BBFAF9
S1130BA0DFF8F4060078022840F0AB80DFF8E806AE
S1130BB0FF21017008480221017002F0ACFA98E0AC
S1130BC04B703A00A006FF1F1C7E0000247E00002C
S1130BD02C7E0000347E00007E04FF1F8004FF1F73
S1130BE06E2002F0B9FE02F0EFFC02F02DFDDFF8FA
S1130BF09C170870DFF894070078FF2805D0DFF809
S1130C009806DFF8881709780170DAA2002100201D
S1130C1002F017FCDFF874080068DFF8481702F0E8
S1130C20BFFE02F029FF80B2020000213C2002F046
S1130C305CFCD1A20221002002F003FCDFF818289A
S1130C4002213C2002F0FDFBCCA20421002002F092
S1130C50F8FBDFF8082804213C2002F0F2FBC8A2CC
S1130C600621002002F0EDFBDFF8F42706213C20EA
S1130C7002F0E7FBDFF820060078072813D1DFF83D
S1130C800C08006802F01AFFDFF86C27DFF86C37F5
S1130C9002F04CFF02F0BEFFDFF8F0170860DFF847
S1130CA0F805FF210170DFF8F0050078082813D15A
S1130CB0DFF8D807006802F001FFDFF83C27DFF80F
S1130CC0403702F033FF02F0A5FFDFF8C0170860D9
S1130CD0DFF8C405FF210170DFF8BC05007809289E
S1130CE007D1DFF8AC07FF210170DFF8AC05FF2165
S1130CF00170DFF89C07007802283FF471AF02F01E
S1130D000AFADFF894050078032840F08380DFF8BE
S1130D108805FF210170DFF878070321017002F0D4
S1130D20FAF970E06E2002F017FE02F04DFC02F0BA
S1130D308BFCDFF858160870DFF850060078FF289F
S1130D4005D0DFF85405DFF8441609780170DFF8A0
S1130D5044270021002002F074FBDFF83C07B0F9BF
S1130D60002000213C2002F0C0FB83A202210020CD
S1130D7002F067FBDFF8E02602213C2002F061FB71
S1130D807EA20421002002F05CFBDFF8D0260421BF
S1130D903C2002F056FB7AA20621002002F051FB0F
S1130DA0DFF8BC2606213C2002F04BFBDFF8E80408
S1130DB0007807280AD1DFF8E0060088401CDFF835
S1130DC0D8160880DFF8D004FF210170DFF8C804CA
S1130DD0007808280AD1DFF8C0060088401EDFF832
S1130DE0B8160880DFF8B004FF210170DFF8A8040A
S1130DF00078092807D1DFF89806FF210170DFF891
S1130E009804FF210170DFF888060078032889D050
S1130E1002F081F9DFF880040078042840F0838030
S1130E20DFF87404FF210170DFF864060421017007
S1130E3002F071F970E06E2002F08EFD02F0C4FB46
S1130E4002F002FCDFF844150870DFF84005007872
S1130E50FF2805D0DFF84004DFF830150978017069
S1130E60DFF838260021002002F0EBFADFF8240432
S1130E70B0F9002000213C2002F037FB3EA2022101
S1130E80002002F0DEFADFF8D02502213C2002F037
S1130E90D8FA3AA20421002002F0D3FADFF8BC25E4
S1130EA004213C2002F0CDFA35A20621002002F0F4
S1130EB0C8FADFF8AC2506213C2002F0C2FADFF8BC
S1130EC0D803007807280AD1DFF8C8030088401C3B
S1130ED0DFF8C0130880DFF8C003FF210170DFF8DA
S1130EE0B803007808280AD1DFF8A8030088401E58
S1130EF0DFF8A0130880DFF8A003FF210170DFF8FA
S1130F0098030078092807D1DFF88405FF210170D0
S1130F10DFF88403FF210170DFF8740500780428EA
S1130F2089D002F0F8F8DFF870030078052840F063
S1130F308480D948FF210170DFF854050521017030
S1130F4002F0E9F872E06E2002F006FD02F03CFBCC
S1130F5002F07AFBDFF834140870DFF8300400780C
S1130F60FF2804D0CC48DFF8241409780170DFF896
S1130F70602D07E04B643A002B3A00002D3A000044
S1130F8052653A000021002002F05BFADFF8440DBC
S1130F90B0F9002000213C2002F0A7FABFA20221F0
S1130FA0002002F04EFADFF8B02402213C2002F0C7
S1130FB048FABBA20421002002F043FADFF89C2483
S1130FC004213C2002F03DFAB6A20621002002F0E2
S1130FD038FADFF88C2406213C2002F032FAAE48BD
S1130FE00078072809D1DFF8EC0C0088401CDFF8F2
S1130FF0E41C0880A848FF210170A748007808284D
S113100009D1DFF8D00C0088401EDFF8C81C088026
S1131010A148FF210170A0480078092806D1DFF813
S11310207004FF2101709C48FF210170DFF8600407
S11310300078052887D002F06EF8974800780628D3
S113104076D19548FF210170DFF844040621017030
S113105002F061F866E06E2002F07EFC02F0B4FA61
S113106002F0F2FAC9490870C8480078FF2803D092
S11310708948C64909780170DFF85C2C00210020FA
S113108002F0DFF9DFF8540CB0F9002000213C2015
S113109002F02BFA81A20221002002F0D2F9DFF83B
S11310A0B82302213C2002F0CCF97DA204210020C7
S11310B002F0C7F9DFF8A42304213C2002F0C1F9AF
S11310C078A20621002002F0BCF9DFF8942306215F
S11310D03C2002F0B6F970480078072809D1DFF8FF
S11310E0FC0B0088401CDFF8F41B08806A48FF21D1
S11310F0017069480078082809D1DFF8E00B0088FE
S1131100401EDFF8D81B08806348FF210170624845
S11311100078092806D1DFF87803FF2101705E48C2
S1131120FF210170DA480078062894D001F0F3FF1B
S1131130594800780A287FF450AC5748FF210170C1
S113114001F0E9FFFA2002F007FCDFF8942B0021FC
S1131150002002F076F9DFF88C2B0221002002F047
S113116070F9DFF8842B0421002002F06AF9DFF81B
S11311707C2B0021462002F064F9DFF8742B022155
S1131180462002F05EF9DFF86C2B0421462002F0C1
S113119058F902F019FA02F057FA3F4908706E2024
S11311A002F0DAFB3C480078012840F098803A4885
S11311B0FF210170B6480121017001F0ACFF87E006
S11311C0DFF8342B0021002002F03BF9DFF82C0B70
S11311D00068644902F0E4FB02F04EFC80B20200B5
S11311E000213C2002F081F92CA20221002002F00F
S11311F028F9634A02213C2002F023F928A20421A1
S1131200002002F01EF95F4A04213C2002F019F983
S113121024A20621002002F014F95B4A06213C2096
S113122002F00FF96E2002F097FB02F0CDF902F004
S11312300BFA5649087055480078FF2803D0164821
S113124052490978017014480078072810D1DFF852
S1131250AC0A006802F032FC674A684B02F066FC94
S113126002F0D8FCDFF8941A08600B48FF210170E3
S11312700948007808281CD1DFF8800A006802F0C9
S11312801DFC5D4A5E4B02F051FC02F0C3FCDFF82A
S11312906C1A09E06E04FF1F7C04FF1F2B3A000048
S11312A02D3A000052653A000860DFF8540EFF2121
S11312B00170DFF84C0E0078092809D17448FF2129
S11312C00170DFF83C0EFF2101703048FF210170EE
S11312D06F48007801283FF473AF01F01CFFDFF87A
S11312E0200E0078022840F0A580DFF8140EFF21BC
S11312F0017067480221017001F00DFF93E06E2038
S113130002F02AFB02F060F902F09EF91F4908700E
S11313101E480078FF2804D0DFF8E40D1B49097843
S11313200170DFF8DC290021002002F08AF8DFF8E0
S1131330D40900680B4902F033FB02F09DFB80B234
S1131340020000213C2002F0D0F8E3A20221002098
S113135002F077F8404A02213C2002F072F8DFA242
S113136002E000BF000020410421002002F069F8DF
S11313703A4A04213C2002F064F8D9A208E000BFF4
S11313803C7E0000447E00004C7E00007B04FF1F76
S11313900621002002F055F8314A06213C2002F0D3
S11313A050F8DFF85C0D0078072811D1DFF85409F4
S11313B0006802F083FB104A104B02F0B7FB02F006
S11313C029FCDFF840190860DFF8340DFF210170B3
S11313D0DFF82C0D0078082819D1DFF828090068F7
S11313E002F06CFB044A064B02F0A0FB02F012FC74
S11313F0DFF8101906E000BF9A9999999999B93FB5
S11314009999B9BF0860DFF8F80CFF210170DFF883
S1131410F00C0078092806D11D48FF210170DFF87F
S1131420E00CFF2101701A48007802283FF467AFEE
S113143001F071FEDFF8C80C0078032840F0C28088
S1131440DFF8BC0CFF21017011480321017001F089
S113145062FEAFE0A407FF1F547E00005C7E000024
S1131460647E0000A807FF1F6C7E00002404FF1F99
S1131470747E00007C7E0000847E00008C7E000070
S1131480947E00009C7E00003004FF1F3804FF1F80
S11314907E04FF1FA47E00006C04FF1FB07D0000CB
S11314A06E2002F059FA02F08FF802F0CDF8DFF85E
S11314B01C1E0870DFF8140E0078FF2805D0DFF832
S11314C0400CDFF8081E09780170DFF83C28002181
S11314D0002001F0B6FFDFF834080068DFF88C1E46
S11314E002F05EFA02F0C8FA80B2020000213C2049
S11314F001F0FBFF78A20221002001F0A2FFDFF837
S1131500702E02213C2001F09CFF74A204210020D3
S113151001F097FFDFF8882E04213C2001F091FFB1
S11315206FA20621002001F08CFFDFF8782E06213F
S11315303C2001F086FFDFF8C80B0078072813D1A0
S1131540DFF8C807006802F0B9FADFF88C2EDFF87C
S11315508C3E02F0EBFA02F05DFBDFF8B017086096
S1131560DFF89C0BFF210170DFF8940B007808284A
S113157013D1DFF89807006802F0A0FADFF8582EBC
S1131580DFF85C3E02F0D2FA02F044FBDFF87C178D
S11315900860DFF86C0BFF210170DFF8640B007842
S11315A0092807D1DFF86807FF210170DFF8500B25
S11315B0FF210170DFF85807007803283FF470AF6B
S11315C001F0A9FDDFF8380B0078042840F0A4806E
S11315D0DFF82C0BFF210170DFF8340704210170C0
S11315E001F099FD90E06E2002F0B6F901F0ECFFF5
S11315F002F02AF8DFF8D41C0870DFF8D00C007869
S1131600FF2805D0DFF8F80ADFF8C01C097801705C
S1131610DFF800270021002001F013FFDFF8F806AF
S11316200068DFF8481D02F0BBF902F025FA80B229
S1131630020000213C2001F058FF27A202210020D3
S113164001F0FFFEDFF8282D02213C2001F0F9FE15
S113165022A20421002001F0F4FEDFF8442D04212D
S11316603C2001F0EEFE1EA20621002001F0E9FE5E
S1131670DFF8302D06213C2001F0E3FEDFF8800A7C
S11316800078072813D1DFF89006006802F016FAF4
S1131690DFF8442DDFF8443D02F048FA02F0BAFACC
S11316A0DFF874160860DFF8580AFF210170DFF8CC
S11316B0500A007808281AD1DFF85C06006802F0A6
S11316C0FDF9DFF8142DDFF8183D02F02FFA02F0CF
S11316D0A1FADFF8441605E02B3A00002D3A000089
S11316E052653A000860DFF8180AFF210170DFF83C
S11316F0100A0078092807D1DFF81406FF210170C9
S1131700DFF8FC09FF210170DFF8040600780428E3
S11317103FF469AF01F0FFFCDFF8E4090078052825
S113172040F09D80DFF8D809FF210170DFF8E00563
S11317300521017001F0EFFC89E06E2002F00CF944
S113174001F042FF01F080FFDFF8801B0870DFF832
S11317507C0B0078FF2805D0DFF8A409DFF86C1BA8
S113176009780170DFF8402D0021002001F069FEA6
S1131770DFF8380D0068DFF8F41B02F011F902F00D
S11317807BF980B2020000213C2001F0AEFEE7A20A
S11317900221002001F055FEDFF8D42B02213C2069
S11317A001F04FFEE2A20421002001F04AFEDFF81E
S11317B0F02B04213C2001F044FEDEA2062100208F
S11317C001F03FFEDFF8DC2B06213C2001F039FE5E
S11317D0DFF82C090078072813D1DFF8D00C006853
S11317E002F06CF9DFF8F02BDFF8F03B02F09EF921
S11317F002F010FADFF8B41C0860DFF80409FF21D6
S11318000170DFF8FC080078082813D1DFF89C0C7D
S1131810006802F053F9DFF8C02BDFF8C43B02F094
S113182085F902F0F7F9DFF8841C0860DFF8D008C6
S1131830FF210170DFF8C8080078092807D1DFF814
S1131840D004FF210170DFF8B808FF210170DFF830
S1131850C004007805283FF470AF01F05CFCDFF8A9
S1131860A0080078062840F09B80DFF89408FF2148
S11318700170DFF89C040621017001F04CFC88E043
S11318806E2002F069F801F09FFE01F0DDFEDFF842
S11318903C1A0870DFF8340A0078FF2805D0DFF816
S11318A06008DFF8281A09780170DFF8042C002199
S11318B0002001F0C6FDDFF8FC0B0068DFF8AC1A6D
S11318C002F06EF802F0D8F880B2020000213C2049
S11318D001F00BFE95A20221002001F0B2FDDFF819
S11318E0902A02213C2001F0ACFD91A204210020A9
S11318F001F0A7FDDFF8A82A04213C2001F0A1FD96
S11319008CA20621002001F09CFDDFF8982A062114
S11319103C2001F096FDDFF8E8070078072813D192
S1131920DFF8900B006802F0C9F8DFF8AC2ADFF8A2
S1131930AC3A02F0FBF802F06DF9DFF8781B0860AE
S1131940DFF8BC07FF210170DFF8B407007808282E
S113195013D1DFF8600B006802F0B0F8DFF8782AE2
S1131960DFF87C3A02F0E2F802F054F9DFF8441BA5
S11319700860DFF88C07FF210170DFF88407007826
S1131980092806D1E248FF210170DFF87407FF211E
S11319900170DF48007806283FF472AF01F0BBFB0A
S11319A0DFF85C0700780A287FF4CCABDFF8500737
S11319B0FF21017001F0AFFBFA2001F0CDFFDFF849
S11319C0F82A0021002001F03CFDDFF8F02A002174
S11319D0462001F036FDDFF8E82A0221002001F05C
S11319E030FDDFF8E02A0421002001F02AFDDFF8B1
S11319F0D82A0421462001F024FDDFF8D02A06214C
S1131A00002001F01EFD01F0DFFD01F01DFEDFF8F6
S1131A10F01608706E2001F09FFFDFF8E4060078EE
S1131A20012840F0A580DFF8D806FF210170B848EE
S1131A300121017001F06FFB93E0DFF8942A00218B
S1131A40002001F0FEFCDFF88C0A0068DFF81C19A6
S1131A5001F0A6FF02F010F880B2020000213C2041
S1131A6001F043FD31A20221002001F0EAFCDFF87D
S1131A70682A02213C2001F0E4FC2DA2042100206C
S1131A8001F0DFFCDFF8542A04213C2001F0D9FCEA
S1131A9028A20621002001F0D4FCDFF8442A062104
S1131AA03C2001F0CEFC6E2001F056FF01F08CFDCD
S1131AB001F0CAFDDFF814180870DFF81008007888
S1131AC0FF2805D0DFF83806DFF800180978017020
S1131AD0DFF82C060078072813D1DFF8F80900682E
S1131AE001F0ECFFDFF8F028DFF8F03802F01EF820
S1131AF002F090F8DFF8DC190860DFF80406FF2133
S1131B000170DFF8FC05007808281AD1DFF8C40951
S1131B10006801F0D3FFDFF8C028DFF8C43802F012
S1131B2005F802F077F8DFF8AC1905E02B3A00006D
S1131B302D3A000052653A000860DFF8C405FF2121
S1131B400170DFF8BC05007809280AD17048FF212C
S1131B500170DFF8AC05FF210170DFF87007FF2189
S1131B6001706B48007801283FF467AF01F0D3FAA5
S1131B70DFF88C050078022840F09A80DFF88005B1
S1131B80FF21017062480221017001F0C4FA88E06B
S1131B906E2001F0E1FE01F017FD01F055FDDFF8C4
S1131BA02C170870DFF824070078FF2805D0DFF829
S1131BB05005DFF8181709780170DFF8282900218B
S1131BC0002001F03EFCDFF820090068DFF89C17D4
S1131BD001F0E6FE01F050FF80B2020000213C203B
S1131BE001F083FCC9A20221002001F02AFCDFF8E5
S1131BF0802702213C2001F024FCC5A204210020FE
S1131C0001F01FFCDFF8982704213C2001F019FCA7
S1131C10DDA20621002001F014FCDFF8882706214C
S1131C203C2001F00EFCDFF8D8040078072813D11B
S1131C30DFF8B408006801F041FFDFF89C27DFF803
S1131C409C3701F073FF01F0E5FFDFF89C18086092
S1131C50DFF8AC04FF210170DFF8A4040078082841
S1131C6013D1DFF88408006801F028FFDFF8682743
S1131C70DFF86C3701F05AFF01F0CCFFDFF8681889
S1131C800860DFF87C04FF210170DFF87404007839
S1131C90092806D11E48FF210170DFF86404FF21E2
S1131CA001701B48007802283FF472AF01F033FA48
S1131CB0DFF84C040078032840F0A380DFF84004E8
S1131CC0FF21017012480321017001F024FA91E010
S1131CD0BC7D00007204FF1FAC7E00007004FF1F77
S1131CE0B47E0000BC7E0000C47E0000CC7E0000F8
S1131CF0D47E0000DC7E0000E47E00004004FF1F70
S1131D00EC7E00004404FF1FF47E00004804FF1F23
S1131D107E04FF1FFC7E00005404FF1F6E2001F0B0
S1131D201BFE01F051FC01F08FFCDFF8A0150870D8
S1131D30DFF898050078FF2805D0DFF8C403DFF842
S1131D408C1509780170DFF8A4270021002001F028
S1131D5078FBDFF89C07B0F9002092B200213C2008
S1131D6001F0C3FB69A20221002001F06AFBDFF845
S1131D70002602213C2001F064FB65A2042100201E
S1131D8001F05FFBDFF8182604213C2001F059FB29
S1131D907DA20621002001F054FBDFF8082606216D
S1131DA03C2001F04EFBD6480078072809D1DFF823
S1131DB040070088401CDFF838170880D048FF210E
S1131DC00170CF480078082809D1DFF8240700887B
S1131DD0401EDFF81C170880C948FF210170C8485D
S1131DE00078092806D1DFF8340EFF210170C448B9
S1131DF0FF210170DFF8240E007803288ED001F053
S1131E008AF9BF480078042840F09B80BC48FF2131
S1131E100170DFF8080E0421017001F07CF988E0FC
S1131E206E2001F099FD01F0CFFB01F00DFCDFF80D
S1131E309C140870DFF894040078FF2804D0B0489C
S1131E40DFF8881409780170DFF8D42D0021002010
S1131E5001F0F7FADFF8CC0D0068DFF8101501F097
S1131E609FFD01F009FE80B2020000213C2001F038
S1131E703CFB26A20221002001F0E3FADFF8F02463
S1131E8002213C2001F0DDFA21A20421002001F00E
S1131E90D8FADFF80C2504213C2001F0D2FA3AA24A
S1131EA00621002001F0CDFADFF8F82406213C20B9
S1131EB001F0C7FA92480078072812D1DFF8640DC0
S1131EC0006801F0FBFDDFF81025DFF8103501F0A4
S1131ED02DFE01F09FFEDFF84C1D08608848FF21AD
S1131EE0017087480078082818D1DFF8380D006899
S1131EF001F0E4FDDFF8E024DFF8E43401F016FE3D
S1131F0001F088FEDFF81C1D04E000BF2B3A00003E
S1131F102D3A000008607A48FF2101707848007863
S1131F20092806D1DFF8F40CFF2101707448FF2161
S1131F300170DFF8E80C007804283FF471AF01F079
S1131F40EAF86F480078052840F095806C48FF2136
S1131F500170DFF8C80C0521017001F0DCF882E0A3
S1131F606E2001F0F9FC01F02FFB01F06DFBD74965
S1131F700870D6480078FF2803D06148D34909780F
S1131F800170DFF8EC2D01E052653A0000210020D9
S1131F9001F057FADFF8DC0D0068DFF8D01301F028
S1131FA0FFFC01F069FD80B2020000213C2001F039
S1131FB09CFAC7A20221002001F043FADFF8B02303
S1131FC002213C2001F03DFAC2A20421002001F0CC
S1131FD038FADFF8CC2304213C2001F032FABEA207
S1131FE00621002001F02DFADFF8B82306213C2059
S1131FF001F027FA42480078072812D1DFF8740D5F
S1132000006801F05BFDDFF8D023DFF8D03301F086
S11320108DFD01F0FFFDDFF85C1D08603848FF21ED
S1132020017037480078082812D1DFF8480D00689D
S113203001F044FDDFF8A023DFF8A43301F076FDBE
S113204001F0E8FDDFF82C1D08602D48FF21017028
S11320502B480078092806D1DFF8C00BFF21017056
S11320602748FF210170DFF8B40B007805283FF4FE
S113207077AF01F050F822480078062840F07F80BE
S11320801F48FF210170DFF8940B0621017001F055
S113209042F86DE06E2001F05FFC01F095FA01F06A
S11320A0D3FA8A49087089480078FF2803D0144875
S11320B0864909780170DFF8C02C0021002001F066
S11320C0C0F9DFF8B80CB0F9002092B200213C202E
S11320D001F00BFA7EA20221002001F0B2F9A44A19
S11320E002213C2001F0ADF97AA20421002001F084
S11320F0A8F9AB4A04213C2001F0A3F976A201E03F
S11321007C04FF1F0621002001F09BF9A54A06214B
S11321103C2001F096F9DFF8F40C007807280AD186
S1132120DFF8580C0088401CDFF8501C0880DFF8EA
S1132130DC0CFF210170DFF8D40C007808280AD1E8
S1132140DFF8380C0088401EDFF8301C0880DFF808
S1132150BC0CFF210170DFF8B40C0078092807D10A
S1132160DFF8B80AFF210170DFF8A00CFF2101702D
S1132170DFF8A80A007806288CD000F0CCFFDFF83E
S11321808C0C00780A287FF417ACDFF8800CFF2150
S1132190017000F0C0FFFA2001F0DEFBDFF8702CC4
S11321A00021002001F04DF9DFF8682C00214620C1
S11321B001F047F9DFF8C82B0221002001F041F9B2
S11321C0DFF8C02B0221462001F03BF9DFF8B82BE1
S11321D00421002001F035F9DFF8B02B042146205A
S11321E001F02FF901F0F0F901F02EFADFF81C1CD0
S11321F008706E2001F0B0FBDFF8100C00780128A5
S113220040F08A80DFF8040CFF210170DFF80C0A2B
S11322100121017000F07FFF76E0DFF8742B0021CC
S1132220002001F00EF9DFF8F00B027800213C20C9
S113223001F05BF926A20221002001F002F9A64A6E
S113224002213C2001F0FDF822A20421002001F02B
S1132250F8F8A24A04213C2001F0F3F81EA206215A
S1132260002001F0EEF89E4A06213C2001F0E9F836
S11322706E2001F071FB01F0A7F901F0E5F91349B3
S1132280087012480078FF2804D0DFF8800B0F494B
S113229009780170DFF8740B007807280AD1DFF899
S11322A0780B0078401CDFF8701B0870DFF85C0BBB
S11322B0FF210170DFF8540B0078082813D1DFF8F0
S11322C0580B0078401EDFF8501B07E07B04FF1F0B
S11322D02B3A00002D3A000052653A000870DFF8EE
S11322E02C0BFF210170DFF8240B007809280BD197
S11322F0DFF82809FF210170DFF8100BFF210170BE
S1132300DFF81C0BFF210170DFF8100900780128A9
S11323103FF483AF00F0FFFEDFF8F00A00780228F4
S113232040F0B180DFF8E40AFF210170DFF8EC0827
S11323300221017000F0EFFE9DE06E2001F00CFB25
S113234001F042F901F080F9DFF8D41A0870DFF8DF
S1132350D00A0078FF2805D0DFF8B00ADFF8C01AE9
S113236009780170DFF8BC2A04E000BF00002041B6
S1132370547E00000021002001F063F8DFF8A80A71
S11323800068DFF8A81A01F00BFB01F075FB80B2BE
S1132390020000213C2001F0A8F8E4A204E000BF00
S11323A05C7E0000647E00000221002001F049F8F8
S11323B0DFF87C2A02213C2001F043F8DCA204214E
S11323C0002001F03EF8DFF86C2A04213C2001F0E3
S11323D038F8D8A206E000BF9A9999999999B93F1B
S11323E09999B9BF0621002001F02BF8DFF8482A9B
S11323F006213C2001F025F8DFF8100A00780728B0
S113240013D1DFF8240A006801F058FBDFF82C2A06
S1132410DFF82C3A01F08AFB01F0FCFBDFF8081A24
S11324200860DFF8E809FF210170DFF8E0090078AF
S1132430082813D1DFF8F009006801F03FFBDFF84A
S1132440FC29DFF8003A01F071FB01F0E3FBDFF84F
S1132450D8190860DFF8B409FF210170DFF8AC096E
S11324600078092807D1DFF8B407FF210170DFF8ED
S11324709C09FF210170DFF8A407007802283FF4CB
S11324805CAF00F048FEDFF884090078032840F0D0
S1132490C380DFF87809FF210170DFF8800703218A
S11324A0017000F038FEAFE0047F00005804FF1F05
S11324B00C7F00005C04FF1F147F00001C7F0000E1
S11324C0C87D0000247F00002C7F0000D47D000024
S11324D0347F00004C04FF1F3C7E0000447E00005B
S11324E04C7E00003C7F00005004FF1FE07D000094
S11324F02C04FF1F6E2001F02FFA01F065F801F0A3
S1132500A3F8DFF81C190870DFF814090078FF2815
S113251005D0DFF8F808DFF8081909780170DFF84A
S113252028290021002000F08CFFDFF82009006832
S1132530DFF8F81801F034FA01F09EFA80B20200D4
S113254000213C2000F0D1FF78A20221002000F0FD
S113255078FFDFF8DC2802213C2000F072FF74A22F
S11325600421002000F06DFFDFF8C82804213C207E
S113257000F067FF6FA20621002000F062FFDFF881
S1132580B82806213C2000F05CFFDFF880080078C2
S1132590072813D1DFF8B408006801F08FFADFF8D8
S11325A09C28DFF89C3801F0C1FA01F033FBDFF816
S11325B09C180860DFF85408FF210170DFF84C080C
S11325C00078082813D1DFF88408006801F076FA4F
S11325D0DFF86828DFF86C3801F0A8FA01F01AFB7C
S11325E0DFF868180860DFF82408FF210170DFF8BD
S11325F01C080078092807D1DFF82006FF210170A4
S1132600DFF80808FF210170DFF8100600780328BE
S11326103FF470AF00F07FFDDFF8F0070078042886
S113262040F0A480DFF8E407FF210170DFF8EC0537
S11326300421017000F06FFD90E06E2001F08CF930
S113264000F0C2FF01F000F8DFF8D4170870DFF8DB
S1132650D0070078FF2805D0DFF8B007DFF8C017EF
S113266009780170DFF8E8270021002000F0E9FE76
S1132670DFF8E0070068DFF8B41701F091F901F022
S1132680FBF980B2020000213C2000F02EFF27A2BB
S11326900221002000F0D5FEDFF8942702213C201F
S11326A000F0CFFE22A20421002000F0CAFEDFF8D1
S11326B0842704213C2000F0C4FE1EA20621002031
S11326C000F0BFFEDFF8702706213C2000F0B9FEC1
S11326D0DFF838070078072813D1DFF87807006897
S11326E001F0ECF9DFF85427DFF8543701F01EFA53
S11326F001F090FADFF85C170860DFF81007FF219B
S11327000170DFF80807007808281AD1DFF84407B9
S1132710006801F0D3F9DFF82427DFF8283701F047
S113272005FA01F077FADFF82C1705E02B3A0000E0
S11327302D3A000052653A000860DFF8D006FF2108
S11327400170DFF8C8060078092807D1DFF8CC0447
S1132750FF210170DFF8B406FF210170DFF8BC042B
S1132760007804283FF469AF00F0D5FCDFF89C063C
S11327700078052840F08380DFF89006FF2101707F
S1132780DFF898040521017000F0C5FC70E06E20AC
S113279001F0E2F800F018FF00F056FFDFF88016B1
S11327A00870DFF87C060078FF2805D0DFF85C06A7
S11327B0DFF86C1609780170DFF89C2600210020F0
S11327C000F03FFEDFF89406B0F9002000213C2021
S11327D000F08BFED8A20221002000F032FEDFF8C8
S11327E0502602213C2000F02CFEE8A20421002007
S11327F000F027FEDFF83C2604213C2000F021FEF7
S1132800E3A20621002000F01CFEDFF82C2606219E
S11328103C2000F016FEDFF8F405007807280AD102
S1132820DFF838060088401CDFF830160880DFF82F
S1132830DC05FF210170DFF8D405007808280AD1EF
S1132840DFF818060088401EDFF810160880DFF84D
S1132850BC05FF210170DFF8B4050078092807D111
S1132860DFF8B803FF210170DFF8A005FF21017034
S1132870DFF8A8030078052889D000F04CFCDFF8C5
S11328808C050078062840F08080DFF88005FF2161
S11328900170E2480621017000F03DFC6FE06E20FB
S11328A001F05AF800F090FE00F0CEFEDFF870154B
S11328B00870DFF86C050078FF2805D0DFF84C05B8
S11328C0DFF85C1509780170DFF8942500210020F9
S11328D000F0B7FDDFF88C05B0F9002000213C20A2
S11328E000F003FE94A20221002000F0AAFDDFF80C
S11328F0402502213C2000F0A4FDA4A204210020D4
S113290000F09FFDDFF82C2504213C2000F099FD08
S11329109FA20621002000F094FDDFF81C2506216B
S11329203C2000F08EFDDFF8E404007807280AD18B
S1132930DFF830050088401CDFF828150880DFF830
S1132940CC04FF210170DFF8C404007808280AD100
S1132950DFF810050088401EDFF808150880DFF84E
S1132960AC04FF210170DFF8A4040078092806D123
S1132970AA48FF210170DFF89404FF210170A748E1
S1132980007806288BD000F0C6FBDFF880040078BE
S11329900A287FF400ACDFF87404FF21017000F012
S11329A0BAFBDFF8C4040078012809D19EA20021F3
S11329B0002000F046FDFA2000F0CEFF00F0ABFB53
S11329C0DFF8A40402210170DFF8A00401210180D2
S11329D0DFF89C0401210180DFF8980400780128C5
S11329E040F08080DFF88C0400210170DFF8880457
S11329F001F0BEFB01F0F8FDDFF880040088DFF889
S1132A00801409880818DFF874140880DFF8740447
S1132A100088DFF8741409880818DFF8681408803F
S1132A20DFF868040088DFF8681409880818DFF8FC
S1132A305C140880641C200000B20A2852DB0024C5
S1132A40DFF83804B0F900000A2190FBF1F0DFF858
S1132A5044140880DFF82C04B0F900000A2190FB2C
S1132A60F1F0DFF834140880DFF82004B0F9000036
S1132A700A2190FBF1F0DFF824140880DFF8FC034E
S1132A8000210180DFF8FC0300210180DFF8FC0352
S1132A9000210180DFF804040088DFF8FC130988B2
S1132AA0401ADFF8FC130880DFF8F803DFF8F013AE
S1132AB009880180DFF8DC03B0F9002000210A2036
S1132AC000F0EFFBDFF8D003B0F9002002210A2068
S1132AD000F0E7FBDFF8C403B0F900200221462030
S1132AE000F0DFFBDFF8C003007801287AD1DFF8BB
S1132AF0B80300210170DFF8B40301F04DFC02F0CB
S1132B00FDFCDFF8AC030088DFF8A8130988081877
S1132B10DFF89C130880DFF8A0030088DFF89C131B
S1132B2009880818DFF890130880DFF894030088F8
S1132B30DFF8901302E000BF2B3A00000988081860
S1132B40DFF87C1308806D1C280000B20A2849DBDA
S1132B500025DFF85C03B0F900000A2190FBF1F0D6
S1132B60DFF864130880D448B0F900000A2190FB10
S1132B70F1F0D6490880D248B0F900000A2190FB50
S1132B80F1F0D3490880CA4804E000BF2D3A0000A0
S1132B9052653A0000210180C74800210180C848DD
S1132BA000210180CA480088C8490988401AC949D7
S1132BB00880C948C74909880180C348B0F9002082
S1132BC004210A2000F06DFBC048B0F90020062162
S1132BD00A2000F066FBBE48B0F90020062146201A
S1132BE000F05FFB00F0F0FC00F02EFD8C49087053
S1132BF08B480078FF2803D08448894909780170FC
S1132C00824800780C287FF4CCAE8048FF21017004
S1132C1002480C21017000F07EFA24E07E04FF1FBC
S1132C20447F00006004FF1F636A00006E2000F010
S1132C3093FE00F0C9FC00F007FD7949087078485C
S1132C400078FF2803D071487549097801706F48EE
S1132C5000780C2805D1A148FF2101706B48FF21A1
S1132C60017000F058FA9D4800780C28DED07E48A8
S1132C70012101707C480078012810D167A2062147
S1132C803C2000F0DEFB4FF4FA6000F065FE00F03B
S1132C9042FA76480021018075480021018072487B
S1132CA0022101708E48B0F90000012804D18C483B
S1132CB00021018002F03CFF7B480078012807D105
S1132CC0794800210170794801F066FB02F020FB8D
S1132CD0684800780128CDD1664800210170664813
S1132CE001F046FA01F080FC02F01EFA02F074FED4
S1132CF07C48027800210A2000F0D3FA7A4802784E
S1132D000021462000F0CDFA5F48B0F900200221EE
S1132D100A2000F0C6FA5E48B0F9002002214620DD
S1132D2000F0BFFA7148B0F9002004210A2000F035
S1132D30B8FA6F48B0F900200421462000F0B1FA37
S1132D406C48B0F900200621002000F00CFB6A4812
S1132D5000686A490968884203DA6748674909686C
S1132D6001606548026806213C2000F0FCFA81E716
S1132D704C7F00006404FF1FEC7D00002E04FF1F45
S1132D80647F00006C7F0000747F00007C7F000083
S1132D90847F000080B572B65FF4E1325848016860
S1132DA0584803F0BBF9002300220821564803F0D9
S1132DB0BBFA4FF49671002003F008FB41F22A227B
S1132DC00221002003F077FC42F21071012003F08D
S1132DD0FDFA03F07AFD03F0DCFD00F063FF00F080
S1132DE0C3F9002200215FF07F5000F093F84FF404
S1132DF07A7000F08BF84EF66021002003F050FE4C
S1132E00002003F07CFE62B601BD00007C04FF1FBD
S1132E10547F00005C7F00007A04FF1F676F00008E
S1132E207B04FF1FF87D00003404FF1F00002041D5
S1132E30547E00005C7E0000647E00009A9999999B
S1132E409999B93F9999B9BF047E00003C04FF1FCA
S1132E508C7F00006804FF1F947F00007804FF1F2C
S1132E609C7F00007604FF1F7D04FF1FB208FF1F34
S1132E70B408FF1FCD08FF1FA006FF1FA608FF1FF1
S1132E80EA07FF1FA808FF1FC807FF1FAA08FF1FA4
S1132E901404FF1FF207FF1FEE07FF1F1604FF1F96
S1132EA0B808FF1FE807FF1FCE08FF1F2007FF1FFA
S1132EB0AC08FF1F3008FF1FAE08FF1F1E08FF1FCE
S1132EC0B008FF1F1804FF1F3408FF1F3208FF1F3C
S1132ED01A04FF1FBA08FF1F2E08FF1F7E04FF1FDE
S1132EE0A408FF1FC208FF1FC108FF1F7008FF1FAF
S1132EF06E08FF1F7808FF1FA007FF1F9C06FF1F17
S1132F00C007FF1F00D0064080F00F402649096823
S1132F1008607047244B1B68986023480068C160B0
S1132F20214800680261704710B51F4909680968A3
S1132F30081A1E4908601D48006803F00DFE1A496E
S1132F400968896800F02CFD04001748006840698E
S1132F5003F002FE14490968C96800F021FD01006C
S1132F60200003F011FE04000F480068806903F09C
S1132F70F3FD0D490968096900F012FD210003F011
S1132F8077FE00F079FD0A490860074800680649A1
S1132F900968496981610448006804490968416114
S1132FA00348006810BD00001004FF1FEC04FF1F5D
S1132FB0F004FF1F0821DFF8F425126852F40032F0
S1132FC0DFF8E8351A6000BFDFF8E025126832F454
S1132FD08042DFF8D8351A6000BF19E0DFF8CC254D
S1132FE0126832F40042DFF8C4351A60DFF8BC25F9
S1132FF0126852F48042DFF8B4351A6000BFDFF87B
S1133000AC25126832F48042DFF8A0351A60400023
S11330100A00511ED2B2002A0AD00206DED5DFF819
S11330208C25126852F40042DFF880351A60DDE71F
S1133030704700000821DFF87425126832F400326A
S1133040DFF868351A60DFF86425126832F48042CC
S1133050DFF858351A6019E0DFF85025126832F4A9
S11330600042DFF848351A60DFF84025126852F450
S11330708042DFF838351A6000BFDFF83025126867
S113308032F48042DFF824351A6040000A00511EF1
S1133090D2B2002A0AD00206DED5DFF81025126863
S11330A052F40042DFF804351A60DDE7704710B5CA
S11330B00400B1F15000C0B2FFF7BCFFE4B2200934
S11330C050F01000C0B2FFF7B5FF14F00F0050F03D
S11330D00100C0B2FFF7AEFF10BD70B504000025BB
S11330E008E02000C0B2FFF765FF761CF6B2802E20
S11330F0F7D36D1CEDB2082D0CD2B5F15000C0B25F
S1133100FFF798FF0120FFF795FF1020FFF792FFCC
S11331100026EBE770BD38B5002407E00020FFF778
S113312049FF6D1CEDB2802DF8D3641CE4B2082C69
S11331300CD2B4F15000C0B2FFF77CFF0120FFF7BE
S113314079FF1020FFF776FF0025EBE731BD07E09C
S113315043F226410A00511E92B2002AFAD1401EBF
S113316080B20028F4D1704780B5DFF844044FF4EE
S113317080710160DFF83C044FF480710160DFF876
S113318038044FF480710160DFF830044FF480712B
S11331900160DFF82C045FF470310160DFF80C0487
S11331A0006850F48040DFF804140860DFF8FC0382
S11331B0006830F48030DFF8F41308603220FFF741
S11331C0C6FFDFF8E803006850F48030DFF8DC1352
S11331D00860AE20FFF72EFF0020FFF72BFF102022
S11331E0FFF728FF4020FFF725FF8120FFF722FF8C
S11331F0CF20FFF71FFFA120FFF71CFFC820FFF718
S113320019FFA620FFF716FFA820FFF713FF3F20A2
S1133210FFF710FFD320FFF70DFF0020FFF70AFF91
S1133220D520FFF707FF8020FFF704FFD920FFF721
S113323001FFF120FFF7FEFEDA20FFF7FBFE12206C
S1133240FFF7F8FEDB20FFF7F5FE4020FFF7F2FE64
S11332502020FFF7EFFE0220FFF7ECFE8D20FFF7A2
S1133260E9FE1420FFF7E6FEA420FFF7E3FEA62004
S1133270FFF7E0FEAF20FFF7DDFE0020FFF72DFF94
S113328000210020FFF713FFFF20FFF726FF642033
S113329000F062FB0020FFF720FF642000F05CFBDD
S11332A001BD2DE9FC4104000D00002600275FF05C
S11332B00008642092FBF0F08DF80000642092FB7B
S11332C0F0F100FB11200A2190FBF1F08DF80100D0
S11332D00A2092FBF0F100FB11208DF8020000207F
S11332E0804610E0F6B2300150FA87F0DFF8D412CD
S11332F04018007AFFF75EFE7F1CFFB2082FF1D35F
S1133300083418F101085FFA88F8B8F1030F28D2DD
S11333105FFA88F800A818F8000010F11006E4B26B
S1133320792C01D300246D1C2900C9B22000C0B23D
S1133330FFF7BDFE002709E0F6B2300150FA87F02E
S1133340DFF88012405CFFF735FE7F1CFFB2082FC8
S1133350F2D3691CC9B22000C0B2FFF7A8FE00274F
S1133360CBE7BDE8F3812DE9FC4104000D00002604
S113337000275FF000084FF47A7092FBF0F08DF8AC
S113338000004FF47A7092FBF0F100FB11206421ED
S113339090FBF1F08DF80100642092FBF0F100FB4A
S11333A011200A2190FBF1F08DF802000A2092FB13
S11333B0F0F100FB11208DF803000020804610E09E
S11333C0F6B2300150FA87F0DFF8F8114018007AAD
S11333D0FFF7F0FD7F1CFFB2082FF1D3083418F17A
S11333E001085FFA88F8B8F1040F28D25FFA88F868
S11333F000A818F8000010F11006E4B2792C01D3EB
S113340000246D1C2900C9B22000C0B2FFF74FFE92
S1133410002709E0F6B2300150FA87F0DFF8A41172
S1133420405CFFF7C7FD7F1CFFB2082FF2D3691C75
S1133430C9B22000C0B2FFF73AFE0027CBE7BDE8CF
S1133440F3812DE9F84304000D00160000275FF016
S113345000085FF0000913E0FFB2380150FA88F069
S1133460DFF860114018007AFFF7A4FD18F1010895
S11334705FFA88F8B8F1080FEED3083419F101099E
S11334805FFA89F919F8060000282CD05FFA89F947
S113349019F80600B0F12007E4B2792C01D3002416
S11334A06D1C2900C9B22000C0B2FFF700FE5FF016
S11334B000080AE0FFB2380150FA88F0DFF804117E
S11334C0405CFFF777FD18F101085FFA88F8B8F15E
S11334D0080FEFD3691CC9B22000C0B2FFF7E7FDA3
S11334E05FF00008C4E7BDE8F1832DE9F04182B044
S11334F004000D00002600275FF000086420B2FBE2
S1133500F0F08DF800000A20B2FBF0F00A21B0FBC5
S1133510F1F301FB13008DF801000A20B2FBF0F176
S113352000FB11208DF80200002080460FE0F6B267
S1133530300150FA87F023494018007AFFF73AFD2A
S11335407F1CFFB2082FF2D3083418F101085FFA88
S113355088F8B8F1030F27D25FFA88F800A818F8A2
S1133560000010F11006E4B2792C01D300246D1C84
S11335702900C9B22000C0B2FFF799FD002708E076
S1133580F6B2300150FA87F00E49405CFFF712FDA5
S11335907F1CFFB2082FF3D3691CC9B22000C0B24C
S11335A0FFF785FD0027CCE7BDE8F38100F00F406D
S11335B0389004403C9004404090044044900440BF
S11335C014F00F402872000080B5DFF8840300680F
S11335D050F48050DFF878130860002300220021A3
S11335E0DFF8700302F0A0FE002300220121DFF8BF
S11335F0640302F099FE002300220221DFF8540341
S113360002F092FE002300220321DFF8480302F0B7
S11336108BFE012300220421DFF8380302F084FE2C
S1133620012300220521DFF82C0302F07DFE012393
S113363000220621C74802F077FE0023002207215A
S1133640C44802F071FE01BDF8B50025FF24002333
S113365001220021BF4802F067FE0123012201215B
S1133660BC4802F061FE012301220221B94802F0A4
S11336705BFE012301220321B64802F055FE04211A
S1133680B44802F09BFE06000521B24802F096FE03
S113369007000621AF4802F091FE790111EB0611F3
S11336A011EB80160721AB4802F088FE16EBC01020
S11336B00500EDB2702D2AD00A2000F04DF9042146
S11336C0A44802F07BFE05000521A24802F076FE24
S11336D0060006219F4802F071FE710111EB0511ED
S11336E011EB801507219B4802F068FE15EBC0150D
S11336F0EDB2702D0BD0EDB2302D07D0502D03D08C
S1133700602D04D10A2402E00B2400E00C240123E0
S1133710012200218F4802F007FE0023012201212B
S11337208C4802F001FE012301220221894802F0A3
S1133730FBFD012301220321864802F0F5FD04214B
S1133740844802F03BFE05000521824802F036FE63
S1133750060006217F4802F031FE710111EB0511CC
S113376011EB801507217B4802F028FE15EBC015EC
S1133770EDB2702D2AD00A2000F0EEF8042175482D
S113378002F01CFE05000521724802F017FE060037
S11337900621704802F012FE710111EB051111EBC4
S11337A0801507216B4802F009FE15EBC015EDB238
S11337B0702D0BD0EDB2302D07D0502D03D0602DDD
S11337C004D1072402E0082400E009240123012293
S11337D00021604802F0A8FD0123012201215D4877
S11337E002F0A2FD0023012202215A4802F09CFDAE
S11337F0012301220321574802F096FD0421554874
S113380002F0DCFD05000521524802F0D7FD060058
S11338100621504802F0D2FD710111EB051111EBA4
S1133820801507214B4802F0C9FD15EBC015EDB218
S1133830702D2AD00A2000F08FF80421454802F0A8
S1133840BDFD05000521434802F0B8FD0600062130
S1133850404802F0B3FD710111EB051111EB801525
S113386007213C4802F0AAFD15EBC015EDB2702DFE
S11338700BD0EDB2302D07D0502D03D0602D04D1E4
S1133880042402E0052400E006240123012200218F
S1133890304802F049FD0123012201212D4802F0A4
S11338A043FD0123012202212A4802F03DFD0023A9
S11338B001220321274802F037FD0421254802F0A4
S11338C07DFD05000521234802F078FD0600062150
S11338D0204802F073FD710111EB051111EB801505
S11338E007211C4802F06AFD15EBC015EDB2702DDE
S11338F02AD00A2000F030F80421164802F05EFDB8
S113390005000521134802F059FD0600062111485F
S113391002F054FD710111EB051111EB8015072123
S11339200C4802F04BFD15EBC015EDB2702D0BD019
S1133930EDB2302D07D0502D03D0602D04D10124D9
S113394002E0022400E003242000C0B2F2BD000023
S113395038800440C0F00F400D49096851F001015E
S11339600B4A11600B4908600B48052101600B48A4
S1133970006850F001000949086008480068000622
S1133980FBD50648006840084000044908607047B9
S1133990388004400800044004000440000004404F
S11339A0FF2212EAD05C1DBF12EAD1539445934220
S11339B02BE09C44D30780EA01021A4043EA00202A
S11339C043EA0121A1FB0030410038BF40007CF1F3
S11339D07F010BDBFE294ADA5B0842EAC15153EA54
S11339E0006373F1004C51EB10207047D1F1080CC7
S11339F0DCF120012FDB5B0810FA01F10B4373F1BA
S1133A00004120FA0CF05041704794451CBF02EA73
S1133A10D153934280EA010202F000421DD04000DB
S1133A2019D0490017D05BB9634514D00902B1FA23
S1133A3081F39940BCEB030CC00140F00040C1E7A6
S1133A400002B0FA80FC10FA0CF0B3EB0C0CC901C4
S1133A5041F00041B6E71000704740000AD0490029
S1133A6008D010F1807F94BF11F1807F02E042F012
S1133A70FF407047D04370474100090E7F3915D489
S1133A80D1F11F0114D4400007D2C00140F000401E
S1133A90C84048BF6FF000407047C00140F000408C
S1133AA0C8404CBF4FF00040404270470020704770
S1133AB000424FF0004058BFC04370475FF0FF0C16
S1133AC01CEAD05114BF614506E0C110400721F043
S1133AD0E04101F16051704779B900F00041000202
S1133AE00AD0B0FA80FC00FA0CF001F16051A1EBAD
S1133AF00C5101EBD0214005704741020CBF40F44A
S1133B00E0016FF000010020704750F8041B61B120
S1133B1050F8042BD30744BFA9F101039A180023DA
S1133B2042F8043B091FFAD1EFE7704770B44FF035
S1133B30004591EA030C44BF6B4003F0DBB800BFBF
S1133B40841A71EB030603D2001BB14112197341AD
S1133B504FF4001C1CEB410F34BF7CEB430443E0E7
S1133B600C0DA4EB1356352E50DC45EAC323DB0AB7
S1133B7045EAC121C912B6F120050DDD63FA05F647
S1133B80EB4086EA0305124218BF45F00105C01850
S1133B9051F100010CD213E062FA06F5F2405540EF
S1133BA0F3415A40B340F3405A408018594107D377
S1133BB049085FEA30005FEA350528BF45F0010592
S1133BC001F58011420875F1004250F1000041EB0B
S1133BD0045170BC4FF4001C1CEB410F38BF7047FC
S1133BE00020090D090570471CEB410F10D252EA61
S1133BF043060BD0BCEB410F05D80C0DAB43661E3E
S1133C00342EB5DD02E0AB438018594170BC7047D7
S1133C1070BC70474FEAF17CBCF1E04C2CBFBCF5A2
S1133C20001F11E05FEA4C0C34BFBCF17F5F2EE053
S1133C305FEA9C0C4FEA0C1C4FEA3C0CC10071F18A
S1133C4000414CEB50707047C90241EA5051C00228
S1133C5018BF41F0010141F000414FEA6C50C0F13E
S1133C600900212810D240EACC7CCCF1200C11FAB6
S1133C700CF070F10040CCF1200C21FA0CF00CF0A7
S1133C80004C40EB0C0070474FEACC707047490081
S1133C9011F5001F04D84FEACC10FF30C00570475F
S1133CA0C817704780B5012301220021DFF8DC0822
S1133CB002F03AFB012301220121DFF8D00802F0CF
S1133CC033FB012301220C21DFF8C40802F02CFB92
S1133CD0012301220D21DFF8B80802F025FB0120A1
S1133CE003F0BEF801BD10B5012301220021DFF865
S1133CF09C0802F019FB01F05DFE01230122012161
S1133D00DFF8880802F010FB01F054FE00230122C2
S1133D100021DFF8780802F007FB01F04BFE0023D6
S1133D2001220121DFF8640802F0FEFA002416E003
S1133D3001F040FE01F03EFE012301220121DFF8E3
S1133D404C0802F0F1FA01F035FE01F033FE0023D5
S1133D5001220121DFF8340802F0E6FA641CE4B21F
S1133D607F2CE5D301F026FE01F024FE012301227D
S1133D700121DFF8180802F0D7FA01F01BFE01F068
S1133D8019FE002301220121DFF8000802F0CCFA19
S1133D9010BD10B5012301220C21DFF8F40702F055
S1133DA0C3FA01F007FE012301220D21DFF8E00729
S1133DB002F0BAFA01F0FEFD002301220C21DFF823
S1133DC0D00702F0B1FA01F0F5FD002301220D2124
S1133DD0DFF8BC0702F0A8FA002416E001F0EAFDBF
S1133DE001F0E8FD012301220D21DFF8A40702F010
S1133DF09BFA01F0DFFD01F0DDFD002301220D211E
S1133E00DFF88C0702F090FA641CE4B27F2CE5D34F
S1133E1001F0D0FD01F0CEFD012301220D21DFF8D8
S1133E20700702F081FA01F0C5FD01F0C3FD002323
S1133E3001220D21DFF8580702F076FA10BD38B5DB
S1133E400400012301220021DFF8400702F06CFA8C
S1133E5001F0B0FD012301220121DFF8300702F057
S1133E6063FA01F0A7FD002301220021DFF81C07FB
S1133E7002F05AFA01F09EFD002502E001F09AFDDD
S1133E806D1CEDB2962DF9D308220621012003F012
S1133E900EF82070641C002301220121DFF8EC06D7
S1133EA002F042FA00251DE001F084FD01F082FDDC
S1133EB0012301220121DFF8D40602F035FA01F0D2
S1133EC079FD01F077FD08220621012002F0EFFFC1
S1133ED02070641C002301220121DFF8B00602F0E7
S1133EE023FA6D1CEDB27F2DDED301F063FD01F0EA
S1133EF061FD012301220121DFF8900602F014FA8A
S1133F0001F058FD01F056FD002301220121DFF8E4
S1133F107C0602F009FA31BD38B504000123012200
S1133F200C21DFF86C0602F0FFF901F043FD0123D8
S1133F3001220D21DFF8580602F0F6F901F03AFDEE
S1133F40002301220C21DFF8480602F0EDF901F00C
S1133F5031FD002502E001F02DFD6D1CEDB2502D68
S1133F60F9D308220E21012002F0A1FF2070641C65
S1133F70002301220D21DFF8180602F0D5F90025EF
S1133F801DE001F017FD01F015FD012301220D21B3
S1133F90DFF8FC0502F0C8F901F00CFD01F00AFDA0
S1133FA008220E21012002F082FF2070641C0023ED
S1133FB001220D21DFF8D80502F0B6F96D1CEDB22F
S1133FC07F2DDED301F0F6FC01F0F4FC0123012285
S1133FD00D21DFF8BC0502F0A7F901F0EBFC01F0BC
S1133FE0E9FC002301220D21DFF8A40502F09CF96D
S1133FF031BD80B5DFF89C15802000F0A0F8DFF813
S113400098150870DFF8900500781921484380213D
S113401090FBF1F0DFF884150870DFF88405008860
S1134020DFF878150978401ADFF878150880DFF88A
S11340307405B0F90000DFF87015B1F90010C8423A
S113404006DADFF868050078401EDFF860150870AE
S1134050DFF85405B0F90000DFF84815B1F9001095
S1134060884206DADFF844050078401CDFF83C1586
S11340700870DFF838050078022803D2DFF82C0531
S113408001210170DFF824050078142803D3DFF838
S11340901C051421017001BD80B5DFF814158020C2
S11340A000F04DF8DFF80C150870DFF8080500780B
S11340B019214843802190FBF1F0DFF8FC140870CB
S11340C0DFF8DC040088DFF8F0140978401ADFF820
S11340D0D4140880DFF8CC04B0F90000DFF8C81469
S11340E0B1F90010C84206DADFF8D0040078401EA7
S11340F0DFF8C8140870DFF8B004B0F90000DFF886
S1134100A414B1F90010884206DADFF8B00400788C
S1134110401CDFF8A8140870DFF8A0040078022817
S113412003D2DFF8980401210170DFF890040078CD
S1134130032803D3DFF884040321017001BD10B404
S11341400023002204E00C7853FA84F3491C521C27
S1134150D2B2C0B28242F6D39BB2C0B293FBF0F0AB
S1134160C0B210BC7047002801D54042FFE7704739
S1134170F8B504000025002600270020DFF81414F9
S11341804978DFF83C241180DFF808144978DFF817
S113419034241180012113E0C9B2DFF8F803085C6C
S11341A0DFF82024B2F9002000B2904207DA0800B8
S11341B0C9B2DFF8E0238A5CDFF808341A80491CAE
S11341C0C9B27F2913D2DFF8F803B0F90000C9B2ED
S11341D0DFF8C0238A5C12B29042DDDA0F00C9B264
S11341E0DFF8B003085CDFF8D8231080E7E7DFF8D6
S11341F0D003B0F90000FFB2DFF89813791811F872
S1134200021C401A0B2832DBDFF8B403B0F90000BB
S1134210FFB2DFF8801379188978401A0B2826DB5F
S1134220FFB2DFF87003381810F8020CFFB2DFF8A1
S1134230641379188978401AFFF795FF0A2816DA6B
S1134240FFB2DFF85003381810F8020CFFB2DFF8A1
S11342504413791889780818FFB2DFF838137854B2
S1134260FFB2DFF83003385CDFF854130880DFF85E
S11342705003B0F90000DFF84C13B1F9001008182E
S1134280022190FBF1F0DFF84013088000210BE0DD
S1134290DFF838030088C9B2BE4A8A5C8018DFF8A8
S11342A02C231080761C491CC9B27F2912D2C9B2B2
S11342B0B848085CC44AB2F9002000B29042E7DB77
S11342C0C3480088C9B2B34A8A5C8018C04A1080C7
S11342D06D1CE8E7BE48B0F90000EDB290FBF5F0C4
S11342E0BB490880B948B0F90000F6B290FBF6F07B
S11342F0B6490880B648B0F90000B449B1F90010D5
S11343000818022190FBF1F0AF490880002103E076
S113431000202070641C491CC9B2802909D220786D
S1134320A94AB2F9002000B29042F1DB01202070CA
S1134330F0E703202CE0C0B29649415C002910D17B
S1134340C0B29449411811F8011C012909D1C0B225
S1134350904941184978012903D1C0B28D490122FD
S11343604254C0B28B49415C012910D1C0B2894981
S1134370411811F8011C002909D1C0B2854941181E
S11343804978002903D1C0B2824900224254401C1A
S1134390C0B27D28CFD3F1BDF8B5040000250026B6
S11343A000270020824949788A4A11808049497847
S11343B0894A118001210FE0C9B27D48085C864A10
S11343C0B2F9002000B2904205DA0800C9B2784A76
S11343D08A5C814B1A80491CC9B27F290FD27D485F
S11343E0B0F90000C9B2724A8A5C12B29042E3DAB0
S11343F00F00C9B26E48085C764A1080EBE7754836
S1134400B0F90000FFB26A49791811F8021C401A89
S11344100B2829DB6F48B0F90000FFB26449791812
S11344208978401A0B281FDBFFB26148381810F84E
S1134430020CFFB25E4979188978401AFFF793FE9F
S11344400A2811DAFFB25A48381810F8020CFFB2E1
S11344505749791889780818FFB255497854FFB23A
S11344605348385C5B4908805A48B0F900005A49FF
S1134470B1F900100818022190FBF1F057490880A7
S1134480002109E056480088C9B2494A8A5C80186C
S1134490534A1080761C491CC9B27F2912D2C9B272
S11344A04348085C4D4AB2F9002000B29042E9DB6F
S11344B04C480088C9B23E4A8A5C8018494A108038
S11344C06D1CE8E74748B0F90000EDB290FBF5F049
S11344D0444908804248B0F90000F6B290FBF6F077
S11344E03F4908803F48B0F900003D49B1F9001048
S11344F00818022190FBF1F038490880002103E0FC
S113450000202070641C491CC9B2802909D220787B
S1134510324AB2F9002000B29042F1DB012020704F
S1134520F0E703202CE0C0B22149415C002910D1FE
S1134530C0B21F49411811F8011C012909D1C0B2A8
S11345401B4941184978012903D1C0B218490122F5
S11345504254C0B21649415C012910D1C0B2144979
S1134560411811F8011C002909D1C0B210494118A1
S11345704978002903D1C0B20D4900224254401C9D
S1134580C0B27D28CFD3F1BD0000000000F10F4080
S113459000F00F40A006FF1FBC08FF1FBD08FF1F4F
S11345A01E04FF1F6208FF1F2004FF1F2204FF1FB9
S11345B02007FF1FBE08FF1FBF08FF1F2304FF1FA4
S11345C0CA07FF1FCC07FF1FCE07FF1F6608FF1F88
S11345D06408FF1F2008FF1F2208FF1F2408FF1F75
S11345E06A08FF1F6808FF1F38B50022DFF8203B68
S11345F0B3F900305C1CDFF8185B2C801BB2C92BAC
S113460003DBDFF80C2BC92313800022DFF8D83C2E
S11346101B78002B03D1DFF8D42C00231370DFF8B0
S1134620F42A1278002A03D1DFF8EC2A002313704D
S1134630792201E00020521E12B2062A22DB12B2B5
S1134640DFF8D80A105C0128F4D112B2DFF8CC0AE2
S1134650101810F8010C0028ECD112B2DFF8BC0AD3
S1134660101810F8020C0028E4D112B2DFF8AC0ADA
S1134670101810F8030C0028DCD1901EDFF8A02AD3
S113468010800120062201E00021521C12B27A2A75
S11346901FDA12B2DFF8841A515C0129F4D112B284
S11346A0DFF8781A511849780029EDD112B2DFF8F1
S11346B06C1A511889780029E6D112B2DFF85C1A15
S11346C05118C9780029DFD1911CDFF8242C1180FE
S11346D0012100B2012840F0D68009B2012940F03E
S11346E0D280DFF8400A00210170DFF8080CB0F92D
S11346F00000DFF8041CB1F90010401A2E28C0F2A3
S11347009B80DFF8EC0BB0F90000DFF8141AB1F964
S1134710001088425BDADFF8F809B0F90000C92814
S113472048DBDFF8CC0BB0F90000DFF8C41BB1F9AB
S113473000100818DFF8C41BB1F90010401A022158
S113474090FBF1F0DFF8B81BB1F90010401AFFF745
S11347500AFD0400DFF8C809B0F90000DFF8C01949
S1134760B1F900100818DFF8941BB1F900104018D3
S1134770022190FBF1F0DFF8881BB1F90010401A18
S1134780FFF7F1FC84420ADADFF8640B0088DFF8F3
S11347906C1B0988401ADFF8881908800CE2DFF8DE
S11347A080090088DFF8541B09880818DFF8401BCB
S11347B0088001E2DFF86809DFF8481B09880180F6
S11347C0DFF82C0BDFF8401B09880180F4E1DFF8E7
S11347D0200BB0F90000DFF84819B1F90010401AB5
S11347E0DFF8181BB1F900100A39884280F2E4811D
S11347F0DFF82C09B0F90000DFF8F41AB1F9001061
S11348000818022190FBF1F03F280ADADFF8E00AE9
S11348100088DFF8E81A0988401ADFF804190880CC
S1134820CAE1DFF8FC080088DFF8D01A0988081804
S1134830DFF8BC1A0880BFE1DFF8B80AB0F900005D
S1134840DFF8B41AB1F90010401A2E2880F2B481AE
S1134850DFF8B80A0078092808D2DFF8C4081D2157
S11348600180DFF88C0A62210180A5E1DFF8B0083D
S1134870DFF8901A09880180DFF8740ADFF8881AD3
S11348800988018098E100B2012840F0B78009B29C
S1134890002940F0B380DFF85C0AB0F90000DFF8CB
S11348A0581AB1F90010401A2E28C0F28C80DFF893
S11348B0580AB0F90000DFF86818B1F9001088420E
S11348C00EDADFF8400A0088401CDFF8541808802C
S11348D0DFF8340A0088401CDFF8141A08806BE102
S11348E0DFF8240AB0F90000DFF83418B1F9001039
S11348F08842C0F26181DFF82808B0F90000DFF8CF
S1134900FC19B1F90010D1F17A0188423BDADFF8E1
S1134910080801210170DFF88C0BDFF88C1B098873
S11349200180DFF8840BDFF8841B09880180DFF83D
S11349307C0BDFF87C1B09880180DFF8740BDFF83F
S1134940E01709880180DFF86C0BB0F90000052836
S11349500EDBDFF8CC070088DFF8AC1909880818EB
S1134960DFF8A0190988401ADFF88419088023E1C8
S1134970DFF8AC070088DFF8841909880818DFF825
S11349807019088018E1DFF82C0BB0F90000052835
S11349900EDBDFF88C070088DFF86C19098808182B
S11349A0DFF860190988401ADFF84419088003E128
S11349B0DFF86C070088DFF8441909880818DFF865
S11349C030190880F8E0DFF82C09B0F90000DFF8AE
S11349D02819B1F90010401A2E2880F2ED80DFF872
S11349E024090088401CDFF838170880DFF818090C
S11349F00088401CDFF8F8180880DDE000B20028C9
S1134A0040F0B58009B2012940F0B180DFF8E40834
S1134A10B0F90000DFF8E018B1F90010401A2E28B0
S1134A20C0F28B80DFF8C808B0F90000DFF8D418B2
S1134A30B1F9001088420EDADFF8C8080088401E79
S1134A40DFF8DC160880DFF8C0080088401EDFF8B5
S1134A50A0180880B0E0DFF89808B0F90000DFF88B
S1134A60A418B1F900108842C0F2A680DFF88C08BF
S1134A70B0F90000401DDFF87818B1F90010884241
S1134A803BDADFF8680801210170DFF82C0ADFF84F
S1134A902C1A09880180DFF8240ADFF8241A09880F
S1134AA00180DFF81C0ADFF81C1A09880180DFF88E
S1134AB0140ADFF83C1809880180DFF8F809B0F916
S1134AC0000005280EDBDFF828080088DFF8381816
S1134AD00988401ADFF82C1809880818DFF84016EE
S1134AE0088069E0DFF808080088DFF810180988F2
S1134AF0401ADFF82C1608805EE0DFF8B809B0F938
S1134B00000005280EDBDFF8E8070088DFF8F81757
S1134B100988401ADFF8EC1709880818DFF800162E
S1134B20088049E0DFF8C8070088DFF8D017098853
S1134B30401ADFF8EC1508803EE0DFF8B807B0F95A
S1134B400000DFF8B417B1F90010401A2E2833DA48
S1134B50DFF8B0070088401EDFF8C4150880DFF8CE
S1134B60A8070088401EDFF88817088024E008435F
S1134B7000B2002820D1DFF88C07B0F900004028EB
S1134B8005DADFF88407B0F9000040280CDADFF812
S1134B909005DFF8701709880180DFF85407DFF803
S1134BA068170988018007E0DFF874051D2101807A
S1134BB0DFF83C0762210180DFF8F408B0F9000057
S1134BC0DFF8E818B1F900100818DFF8DC18B1F9BB
S1134BD000104018032190FBF1F0DFF8EC18088076
S1134BE0DFF8CC08B0F90000DFF8DC18B1F90010E8
S1134BF0401ADFF8BC18B1F90010DFF8CC28B2F97C
S1134C000020891ADFF8A428B2F90020DFF8B838A8
S1134C10B3F90030D21ADFF89438B3F90030DFF872
S1134C20A848B4F900401B1B5A4301FB0020DFF8DD
S1134C307818B1F90010DFF89028B2F90020891A29
S1134C40DFF86428B2F90020DFF87C38B3F90030CB
S1134C50D21A02FB0100032190FBF1F0DFF86C187B
S1134C600880DFF86008B0F90000DFF85418B1F9E3
S1134C7000100818DFF84418B1F900104018032197
S1134C8090FBF1F0DFF848180880DFF83808B0F935
S1134C900000DFF83C18B1F90010401ADFF82418BE
S1134CA0B1F90010DFF82828B2F90020891ADFF8DA
S1134CB01028B2F90020DFF81838B3F90030D21AFE
S1134CC0DFF8FC37B3F90030DFF80448B4F90040EA
S1134CD01B1B5A4301FB0020DFF8E017B1F9001059
S1134CE0DFF8EC27B2F90020891ADFF8D027B2F9EF
S1134CF00020DFF8DC37B3F90030D21A02FB0100E0
S1134D00032190FBF1F0DFF8CC170880DFF81004E2
S1134D100088DFF8F0150988401ADFF8E8150988DB
S1134D200818DFF8B4170988401ADFF8AC170988A7
S1134D300818DFF8A8170988401ADFF8A4170880B4
S1134D40DFF8AC050088DFF8C0150988401ADFF8E1
S1134D50B81509880818DFF88C170988401ADFF895
S1134D60841709880818DFF880170988401ADFF8C3
S1134D707C170880E848007801285FD1DFF87007C5
S1134D800088401CDFF868170880DFF86407B0F972
S1134D900000032852DBDFF85807B0F90000C01EFA
S1134DA080B2392834D2DFF84C07B0F90000522819
S1134DB009DADFF83C07B0F90000032803D1DFF873
S1134DC0380701210170DFF830070078012835D158
S1134DD0D04801210170DFF81807B0F90000142849
S1134DE02CDADFF81805B0F90000022190FBF1F08D
S1134DF0D0F17F00CA490880DFF80005B0F900004F
S1134E00022190FBF1F07F30DFF8E414088015E014
S1134E10DFF8DC0600210180BF4800210170DFF8C3
S1134E20D80600210170BB4800210170DFF8100B87
S1134E3000210180DFF80C0B01210170B6480078D5
S1134E40B44909780843C0B2002803D1DFF8A006AA
S1134E5000210180DFF894040078012860D1DFF894
S1134E60E80A0088401CDFF8E01A0880DFF8D80A56
S1134E70B0F90000032853DBDFF8CC0AB0F90000D6
S1134E80C01E80B2392833D2DFF86806B0F90000BA
S1134E90522809DADFF8B00AB0F90000032803D178
S1134EA0DFF8A80A01210170DFF8A00A00780128C0
S1134EB036D1DFF8340401210170DFF88C0AB0F92F
S1134EC0000014282CDADFF83404B0F900007FF075
S1134ED0010190FBF1F092490880DFF82004B0F959
S1134EE00000022190FBF1F0DFF80414088017E0C1
S1134EF0DFF8540A00210180DFF8F003002101707B
S1134F00DFF8480A00210170DFF8DC03002101709A
S1134F10DFF82C0A00210180DFF8280A0121017042
S1134F20DFF8C8030078DFF8C01309780843C0B27B
S1134F30002803D1DFF8100A002101807848B0F975
S1134F400000EB49B1F900100818022190FBF1F0C0
S1134F50DFF8FC190880DFF8F8090088DFF8F41995
S1134F600988401ADFF8001A0880E548DFF8E019DC
S1134F7009880180DFF8E009DFF8E0190988018079
S1134F80DFF8DC09DFF8DC1909880180DFF8CC09D7
S1134F90DFF8481509880180DFF8C809DFF84815EB
S1134FA009880180DFF83405DFF82C1509880180B1
S1134FB0DFF83405DFF82C1509880180DFF81805BF
S1134FC0D04909880180DFF81C05CF490988018090
S1134FD0CC48534909880180CB48C54909880180D8
S1134FE0DFF88809DFF8881909880180DFF880096B
S1134FF0DFF8801909880180DFF87809DFF878196B
S113500009880180DFF87009DFF8701909880180C8
S1135010DFF86809DFF8681909880180DFF860099A
S1135020DFF8601909880180DFF85809DFF858199A
S113503009880180DFF85009DFF8501909880180D8
S1135040DFF84809DFF8481909880180DFF84009CA
S1135050DFF8141909880180DFF834090088DFF8C3
S11350602C190988401ADFF82C190880DFF81C096C
S11350700088DFF814190988401ADFF81C19088021
S1135080DFF804090088DFF8FC180988401ADFF803
S11350900C190880DFF8EC080088DFF8E4180988A8
S11350A0401ADFF8FC180880DFF8D4080088DFF81D
S11350B0CC180988401ADFF8EC180880DFF8BC081F
S11350C00088DFF8B4180988401ADFF8DC18088073
S11350D0DFF8A4080088DFF89C180988401ADFF874
S11350E0CC180880DFF88C080088DFF88418098859
S11350F0401ADFF8BC180880DFF874080088DFF86D
S11351006C180988401ADFF8E41A088031BD0000E1
S11351109408FF1FC408FF1FC108FF1FA006FF1F3C
S1135120C807FF1FC008FF1F30B403200621002258
S1135130DFF87C3900241C80DFF8B83300241C809D
S1135140DFF8AC3A00241C800B1A5B1C1A00DFF851
S11351506439DFF8144824881C8064230CE0DBB233
S1135160DFF8504914EB430434F8024CDBB2DFF8A7
S1135170445925F813405B1EDBB2012BEFD2002308
S11351800CE0DFF834492488DBB2DFF8285935F81D
S113519013502C19DFF820592C805B1CDBB2032B35
S11351A0EFD3DFF81439B3F90030032493FBF4F39D
S11351B0DFF804492380002310E0DBB2DFF8F44871
S11351C034F81340DBB2DFF8EC5835F813506C4375
S11351D0DBB2DFF8585925F813405B1CDBB2032B14
S11351E0EBD300230CE0DFF8C8482488DBB2DFF8F7
S11351F03C5935F813502C19DFF8B4582C805B1C3B
S1135200DBB2032BEFD3DFF8A838B3F90030032463
S113521093FBF4F3B74C2380DFF89C3800241C8004
S1135220002306E0DBB2DFF80449002524F813501C
S11352305B1CDBB2052BF5D3DFF8743800241C802B
S113524003000CE0DFF870482488DBB2DFF8645810
S113525035F813502C19DFF860582C805B1CDBB236
S1135260C9B28B42EED3DFF85038B3F90030C9B27B
S113527093FBF1F3DFF840482380030010E0DBB236
S1135280DFF8304834F81340DBB2DFF8285835F83B
S113529013506C43DBB2DFF8945825F813405B1CC1
S11352A0DBB2C9B28B42EAD303000CE0DFF800089A
S11352B00088DBB2DFF8744834F813402018DFF8B4
S11352C0F04720805B1CDBB2C9B28B42EED3DFF81F
S11352D0E007B0F90000D2B290FBF2F0DFF8101949
S11352E0088030BC70470000C308FF1FC208FF1FBE
S11352F01404FF1F6408FF1F6608FF1FE807FF1F51
S1135300EC07FF1FD407FF1FD607FF1F2204FF1F50
S113531030B58BB00024002505A8142101F08EFEC1
S113532000A8142101F08AFE7E2022E000B2DFF8FA
S1135330C4184118497801291AD100B2DFF8B41809
S1135340415C012914D100B2DFF8A818411811F802
S1135350011C00290CD100B2DFF89818411811F88B
S1135360021C002904D124B205A921F81400641CEC
S1135370401E00B20228D9DA012021E000B2DFF891
S11353807418411811F8011C012918D100B2DFF872
S11353906418415C012912D100B2DFF85818411891
S11353A0497800290BD100B2DFF8481841188978F0
S11353B0002904D12DB200A921F815006D1C401C50
S11353C000B27E28DADB24B2032C48D12DB2032D9F
S11353D045D1BDF81600BDF80010401ADFF81818C2
S11353E00880BDF81400BDF80210401ADFF80C184C
S11353F00880BDF91600BDF9021001FA80F00221FF
S113540090FBF1F0DFF8F8170880DFF8EC07B0F94B
S11354100000DFF8E817B1F90010401AFEF7A3FE08
S113542005281CDADFF8DC07B0F90000DFF8D01734
S1135430B1F90010401AFEF796FE05280FDADFF8DE
S1135440B807B0F900000F2809DBDFF8B007B0F99E
S113545000000F2803DBDFF8B00701210180DFF82B
S1135460A807B0F90000012819D1DFF8A007B0F9A6
S11354700000411CDFF89427118000B215280EDBD0
S1135480DFF8880700210180DFF87C070021018014
S1135490DFF8700B0088401CDFF8681B08800BB035
S11354A030BD00008A08FF1F8808FF1F8608FF1F01
S11354B08408FF1F7208FF1F8208FF1F8008FF1F58
S11354C07E08FF1F7C08FF1F8E08FF1F9008FF1F28
S11354D08C08FF1F9208FF1FD807FF1FDC07FF1F60
S11354E0D007FF1FDA07FF1FDE07FF1FD207FF1FCA
S11354F06E08FF1F7808FF1FC608FF1F10B40023A3
S113550000210B007E2101E00022491E09B204297A
S113551022DB09B2DFF8DC268A5C012AF4D109B265
S1135520DFF8D0268A1812F8012C002AECD109B22F
S1135530DFF8C0268A1812F8022C002AE4D109B236
S1135540DFF8B0268A1812F8032C002ADCD18A1E50
S1135550DFF8BC361A800122012301E000205B1C25
S11355601BB27B2B1FDA1BB2DFF88806185C0128FC
S1135570F4D11BB2DFF87C06181840780028EDD16E
S11355801BB2DFF87006181880780028E6D11BB229
S1135590DFF860061818C0780028DFD1981CDFF8FF
S11355A074462080012012B2012A5AD100B2012887
S11355B057D1DFF86406B0F90000DFF86026B2F9CD
S11355C00020801A2E283FDBDFF84806B0F90000DF
S11355D0DFF83C26B2F90020904280F2E780DFF841
S11355E04006B0F90000DFF82C26B2F90020801A3A
S11355F01F280EDB881EDFF818160880DFF8100657
S11356000088DFF8201609880818DFF808160880D3
S1135610CCE0DFF8FC05B0F90000DFF80C16B1F9B6
S11356200010401A1F28C0F2C180981CDFF8E4154E
S11356300880DFF8E0050088DFF8E8150988401ADB
S1135640DFF8CC150880B1E0DFF8C405DFF8D81521
S113565009880180DFF8BC05DFF8C41509880180DA
S1135660A4E012B2012A3CD100B2002839D1DFF8FB
S1135670A805B0F90000DFF8A415B1F90010401A2C
S11356802E2821DBDFF89805B0F90000DFF880153B
S1135690B1F9001088420CDADFF87405DFF88815D8
S11356A009880180DFF86C05DFF87415098801802A
S11356B07CE0DFF85C050088DFF8681509880818C5
S11356C0DFF85015088071E0DFF84405DFF858155D
S11356D009880180DFF83C05DFF84415098801805A
S11356E064E012B2002A3CD100B2012839D1DFF8BB
S11356F02805B0F90000DFF82415B1F90010401AAC
S11357002E2821DBDFF80C05B0F90000DFF81815AE
S1135710B1F9001088420CDADFF8F404DFF8081558
S113572009880180DFF8EC04DFF8F41409880180AB
S11357303CE0DFF8D4080088DFF8E8140988401A50
S1135740DFF8CC14088031E0DFF8C404DFF8D814A3
S113575009880180DFF8BC04DFF8C41409880180DB
S113576024E0104300B2002820D1DFF8BC04B0F9D3
S11357700000402805DADFF8A804B0F9000040284A
S11357800CDADFF88C04DFF8A01409880180DFF854
S11357908404DFF88C140988018007E0DFF87004C2
S11357A000210180DFF86C047F210180DFF86004B0
S11357B0B0F90000DFF85C14B1F9001008180221F8
S11357C090FBF1F0DFF844180880DFF84008008807
S11357D0DFF830140988401ADFF834180880DFF83D
S11357E04804DFF82C1409880180DFF83404DFF85A
S11357F0241409880180DFF81C08DFF82C140988B8
S11358000180DFF81408DFF8181409880180DFF834
S11358100C08DFF80C1809880180DFF80408DFF8A9
S1135820041809880180DFF8FC07DFF8FC170988F1
S11358300180DFF8F407DFF8F41709880180DFF846
S1135840EC07DFF8EC1709880180DFF8E407DFF8DC
S1135850E41709880180DFF8DC07DFF8DC17098822
S11358600180DFF8D407DFF8D41709880180DFF856
S1135870CC07DFF8CC1709880180DFF8C407DFF80C
S1135880901709880180DFF8B8070088DFF8AC17A3
S11358900988401ADFF8AC170880DFF8A0070088F1
S11358A0DFF894170988401ADFF89C170880DFF89E
S11358B088070088DFF87C170988401ADFF88C17FE
S11358C00880DFF870070088DFF864170988401A39
S11358D0DFF87C170880DFF858070088DFF84C17DA
S11358E00988401ADFF86C170880DFF84007008841
S11358F0DFF834170988401ADFF85C170880DFF8EE
S113590028070088DFF81C170988401ADFF84C17AD
S11359100880DFF810070088DFF804170988401AA8
S1135920DFF83C170880DFF8F8060088DFF8EC168B
S11359300988401ADFF82C17088010BC7047000053
S11359406C08FF1FC708FF1F7008FF1FC508FF1F53
S1135950EA07FF1FF207FF1FE407FF1FE007FF1F0F
S1135960E607FF1FE207FF1FF607FF1F0A08FF1FD6
S11359700808FF1F0608FF1F0408FF1F0208FF1F77
S11359800008FF1FFE07FF1FFC07FF1FFA07FF1F8A
S1135990F807FF1F0C08FF1F0E08FF1F1008FF1F4A
S11359A01208FF1F1408FF1F1608FF1F1808FF1F07
S11359B01A08FF1F81B000208DF8000006E000BF28
S11359C000BF9DF80000401C8DF800009DF8000009
S11359D00128F4D301B0704710B5DFF88C06DFF866
S11359E08C1609680160DFF88806DFF888160988D4
S11359F00180DFF87C060088DFF87C160988401AED
S1135A00DFF878160880DFF86806B0F9000001F0C6
S1135A10A3F8DFF86C160968FDF7C2FFDFF8641617
S1135A2001F026F90400DFF85406B0F9000001F093
S1135A3093F8DFF854160968FDF7B2FF210001F06E
S1135A4017F9FEF719F8DFF844160880DFF828067E
S1135A50DFF81C1609880180DFF83006B0F9000071
S1135A6041F2A371884204DBDFF8200641F2A271FF
S1135A700180DFF81806B0F9000040F6B241884210
S1135A8004DADFF8080640F6B2410180DFF8FC05CD
S1135A90B0F900200221002000F0BCFEDFF8EC0584
S1135AA0B0F9000001F058F8DFF8C015086010BD27
S1135AB07608FF1F0C05FF1F7408FF1F10B5DFF8E1
S1135AC0AC050068DFF8A015096801F05DF8040072
S1135AD0DFF8BC05B0F90000401C01F03DF82100DE
S1135AE0FDF75EFFDFF8AC1501F0ACFADFF87815CE
S1135AF0096801F0BDF8FDF7BFFFDFF890150880D5
S1135B0010BDDFF894050068DFF890150880DFF811
S1135B1090050088DFF8841509880818DFF88015D7
S1135B200880DFF87405002101607047D405FF1F69
S1135B3080B5DFF87005DFF86815B1F90010016071
S1135B40DFF85C050021018000F070F8DFF85805EB
S1135B50B0F90000FDF7DAF9DFF85005B0F90000FC
S1135B60DFF84415B1F90010884212DBDFF8340580
S1135B700068052148430D2190FBF1F03030FDF71A
S1135B80D3F9DFF8241509884018DFF824150880B4
S1135B9004E0DFF81C054FF448710180DFF81005BC
S1135BA0B0F9000001280EDB002301220921DFF8EF
S1135BB0040500F0B9FBDFF80005DFF8F414B1F9CF
S1135BC00010016010E0012301220921DFF8E40440
S1135BD000F0AAFBDFF8D804B0F9000040F2E2417B
S1135BE00818DFF8D414086001BD00001C08FF1F6A
S1135BF07A08FF1F2007FF1F9A08FF1F9C08FF1F3A
S1135C009E08FF1F3408FF1F9608FF1FA008FF1FF0
S1135C101E08FF1F1804FF1F6408FF1F6608FF1FEC
S1135C202808FF1F2E08FF1F2608FF1FDFF8500457
S1135C30DFF8881409680160DFF84C04DFF8801489
S1135C4009680160DFF87C04B0F90000DFF878141B
S1135C50B1F90010884280F24581DFF87004012117
S1135C600170DFF81C04DFF8681409680160DFF8CC
S1135C701804DFF8601409680160DFF85C04B0F907
S1135C800000801F80B2022833D2DFF85004B0F93C
S1135C900000DFF84C14097809B288421FDADFF8F3
S1135CA03C040088401CDFF834140880DFF8340416
S1135CB0B0F900004042DFF8EC1309684FF4C872F1
S1135CC091FBF2F14843DFF81014B1F900100A22F5
S1135CD091FBF2F14843DFF8D013088009E0DFF8C4
S1135CE0F80300210180DFF8C003DFF8FC13098802
S1135CF00180DFF8E403B0F90000083880B20A2814
S1135D0034D2DFF8D803B0F90000DFF8E0130978E3
S1135D1009B288421FDADFF8C4030088401CDFF8A8
S1135D20BC130880DFF8BC03B0F900004042DFF880
S1135D30741309684FF4C87291FBF2F14843DFF819
S1135D409813B1F900100A2291FBF2F14843DFF8ED
S1135D50581308800FE1DFF8800300210180DFF889
S1135D604803DFF884130988018004E1DFF868033D
S1135D70B0F90000123880B20A2834D2DFF85C038C
S1135D80B0F90000DFF86813097809B288421FDA15
S1135D90DFF848030088401CDFF840130880DFF870
S1135DA04403B0F900004042DFF8F81209684FF4E8
S1135DB0C87291FBF2F14843DFF81C13B1F90010EB
S1135DC00A2291FBF2F14843DFF8DC120880D2E0AA
S1135DD0DFF8040300210180DFF8CC02DFF80813A8
S1135DE009880180C7E0DFF8F002B0F900001C3830
S1135DF080B2142834D2DFF8E402B0F90000DFF8EE
S1135E00F412097809B288421FDADFF8D002008858
S1135E10401CDFF8C8120880DFF8C802B0F900009F
S1135E204042DFF8801209684FF4C87291FBF2F126
S1135E304843DFF8A412B1F900100A2291FBF2F1F1
S1135E404843DFF86412088095E0DFF88C020021F3
S1135E500180DFF85402DFF89012098801808AE09B
S1135E60DFF87402B0F90000302834DBDFF86C028C
S1135E70B0F90000DFF88012097809B288421FDA0D
S1135E80DFF858020088401CDFF850120880DFF861
S1135E905402B0F900004042DFF8081209684FF4D8
S1135EA0C87291FBF2F14843DFF82C12B1F90010EB
S1135EB00A2291FBF2F14843DFF8EC1108805AE022
S1135EC0DFF8140200210180DFF8DC01DFF818128A
S1135ED0098801804FE0DFF8D001DFF80C1209884F
S1135EE0018048E0DFF8E001B0F90000DFF80C12AF
S1135EF0B1F90010884234DADFF8D00100780128C3
S1135F0007D1DFF8C80100210170DFF8CC010021BE
S1135F100180DFF8C80100210180DFF8BC0100889E
S1135F20401CDFF8B4110880DFF8AC01B0F90000C0
S1135F30032820DBDFF86C0100684FF4FA71884213
