S020000050452056312E3420323031342E30362E3231207368697A692E7372656313
S1130000F8FF002011040000C3500000C35000009A
S1130010C3500000C3500000C3500000C350000090
S1130020C3500000C3500000C3500000C350000080
S1130030C3500000C3500000C3500000C350000070
S1130040C3500000C3500000C3500000C350000060
S1130050C3500000C3500000C3500000C350000050
S1130060C3500000C3500000C3500000C350000040
S1130070C3500000C3500000C3500000C350000030
S1130080C3500000C3500000C3500000C350000020
S1130090C3500000C3500000C3500000C350000010
S11300A0C3500000C3500000C3500000C350000000
S11300B0C3500000C3500000C3500000C3500000F0
S11300C0C3500000C3500000C3500000C3500000E0
S11300D0C3500000C3500000C3500000C3500000D0
S11300E0C3500000C3500000C3500000C3500000C0
S11300F0C3500000C3500000C3500000C3500000B0
S1130100C3500000C3500000C3500000C35000009F
S1130110C3500000C3500000C3500000C35000008F
S1130120C3500000C3500000C3500000C35000007F
S1130130C3500000C3500000C3500000C35000006F
S1130140C3500000C3500000C3500000C35000005F
S1130150E1690000C3500000C3500000C350000018
S1130160C3500000C3500000C3500000C35000003F
S1130170C3500000C3500000C3500000C35000002F
S1130180C3500000C3500000C3500000C35000001F
S1130190C3500000C3500000C3500000C35000000F
S1130400FFFFFFFFFFFFFFFFFFFFFFFFFEFFFFFFF9
S11304104FF000004FF000014FF000024FF00003D6
S11304204FF000044FF000054FF000064FF00007B6
S11304304FF000084FF000094FF0000A4FF0000B96
S11304404FF0000C62B606F057FAFEE710B5002232
S11304500024DFF87817002003E000220A70491C0A
S1130460401CC0B28A28F8D302F0F2FBDFF85C0E1D
S1130470B0F9000002F0A4FCDFF8542700210020AA
S113048002F039FFDFF84C2700213C2002F033FF53
S1130490DFF844270221002002F02DFF02F0EEFFD6
S11304A003F02CF8DFF8281E08706E2003F0AEF974
S11304B0DFF81C0E0078012840F0A080DFF8100E51
S11304C0FF210170DFF814070121017002F07DFDA6
S11304D08CE0AFA20021002002F00DFFDFF800073E
S11304E00068DFF8001703F0B5F903F01FFA80B2D3
S11304F0020000213C2002F052FFEAA20221002067
S113050002F0F9FEDFF8482E02213C2002F0F3FE4F
S1130510E8A20421002002F0EEFEDFF8642E04219C
S11305203C2002F0E8FEE4A20621002002F0E3FEF3
S1130530DFF8682E06213C2002F0DDFE6E2003F079
S113054065F902F09BFF02F0D9FFDFF8541E087032
S1130550DFF84C0E0078FF2805D0DFF8740DDFF8C3
S1130560401E09780170DFF8680D0078072813D160
S1130570DFF86C06006803F0FBF9DFF86C26DFF89F
S11305806C3603F02DFA03F09FFADFF85416086076
S1130590DFF83C0DFF210170DFF8340D00780828E6
S11305A013D1DFF83C06006803F0E2F9DFF83826DF
S11305B0DFF83C3603F014FA03F086FADFF820166D
S11305C00860DFF80C0DFF210170DFF8040D0078DE
S11305D009280BD1DFF80406FF210170DFF8F00CC5
S11305E0FF210170DFF8B80DFF210170DFF8EC0581
S11305F0007801283FF46DAF02F0E7FCDFF8D00C7F
S11306000078022840F09C80DFF8C40CFF210170C0
S1130610DFF8C8050221017002F0D7FC88E06E20E3
S113062003F0F4F802F02AFF02F068FFDFF8701D0F
S11306300870DFF86C0D0078FF2805D0DFF8900C07
S1130640DFF85C1D09780170D7A20021002002F0B8
S113065052FEDFF8A0050068DFF8881503F0FAF809
S113066003F064F980B2020000213C2002F097FEFE
S11306708CA20221002002F03EFEDFF8F82D0221B8
S11306803C2002F038FE8BA20421002002F033FE4D
S1130690DFF8E42D04213C2002F02DFE86A2062181
S11306A0002002F028FEDFF8D42D06213C2002F0C1
S11306B022FEDFF81C0C0078072813D1DFF834057C
S11306C0006803F055F9DFF82025DFF8203503F042
S11306D087F903F0F9F9DFF81C150860DFF8F00B6F
S11306E0FF210170DFF8E80B0078082813D1DFF848
S11306F00405006803F03CF9DFF8EC24DFF8F0347B
S113070003F06EF903F0E0F9DFF8E8140860DFF8AD
S1130710C00BFF210170DFF8B80B0078092807D15E
S1130720DFF8B804FF210170DFF8A40BFF2101708A
S1130730DFF8A804007802283FF471AF02F045FC0A
S1130740DFF88C0B0078032840F09D80DFF8800BE5
S1130750FF210170DFF884040321017002F035FCED
S11307608AE06E2003F052F802F088FE02F0C6FE22
S1130770DFF82C1C0870DFF8280C0078FF2805D05F
S1130780DFF84C0BDFF8181C09780170CEA201E0E9
S113079053703A000021002002F0ADFDDFF8E00CB8
S11307A00068DFF8401403F055F803F0BFF880B296
S11307B0020000213C2002F0F2FD3AA202210020B6
S11307C002F099FDDFF8AC2C02213C2002F093FDED
S11307D038A20421002002F08EFDDFF89C2C0421B5
S11307E03C2002F088FD34A20621002002F083FDA3
S11307F0DFF8882C06213C2002F07DFDDFF8D00ACA
S11308000078072813D1DFF8780C006803F0B0F8FB
S1130810DFF8D423DFF8D43303F0E2F803F054F91B
S1130820DFF85C1C0860DFF8A80AFF210170DFF81C
S1130830A00A0078082813D1DFF8440C006803F0FC
S113084097F8DFF8A423DFF8A83303F0C9F803F01E
S11308503BF9DFF82C1C0860DFF8740AFF210170F3
S1130860DFF86C0A0078092806D1DC48FF21017002
S1130870DFF85C0AFF210170D848007803283FF4B0
S113088070AF02F0A2FBDFF8480A00780A287FF470
S1130890F3ADDFF83C0AFF21017002F096FBDFF8AC
S11308A0E00B01E02B3A00000268D2480168CC4812
S11308B004E000BF2D3A000052653A00006802F0DF
S11308C083FAFA2002F0A2FFDFF8B82B00210020FF
S11308D002F011FDDFF8B02B00213C2002F00BFDEB
S11308E0DFF8A82B0221002002F005FDDFF8A42B7D
S11308F00421002002F0FFFCDFF8A02B04213C209F
S113090002F0F9FCDFF89C2B0621002002F0F3FC36
S113091002F0B4FD02F0F2FDDFF8B41908706E20A5
S113092002F074FFDFF8A8090078012840F09C80E9
S1130930DFF89C09FF210170A8480121017002F031
S113094044FB8AE09FA20021002002F0D4FCDFF8DF
S1130950580B0068A34902F07DFF02F0E7FF80B264
S1130960020000213C2002F01AFDD3A20221002043
S113097002F0C1FCDFF8D82902213C2002F0BBFCC4
S1130980CEA20421002002F0B6FCDFF8F4290421F1
S11309903C2002F0B0FCCAA20621002002F0ABFC0D
S11309A0DFF8F82902E000BF53693A0006213C2031
S11309B002F0A1FC6E2002F029FF02F05FFD02F0BC
S11309C09DFDDFF8DC190870DFF8D4090078FF28F2
S11309D005D0DFF8FC08DFF8C81909780170DFF8E2
S11309E0F0080078072811D1DFF8BC0A006802F08B
S11309F0BFFF7D4A7D4B02F0F3FF03F065F8DFF89B
S1130A00A81A0860DFF8C808FF210170DFF8C008E1
S1130A100078082811D1DFF8900A006802F0A8FFD6
S1130A20714A734B02F0DCFF03F04EF8DFF8781ADA
S1130A300860DFF89C08FF210170DFF89408007853
S1130A4009280AD16548FF210170DFF88408FF21D5
S1130A500170DFF84C09FF2101706048007801281B
S1130A603FF470AF02F0B1FADFF8640800780228AE
S1130A7040F09880DFF85808FF21017057480221A0
S1130A80017002F0A2FA86E06E2002F0BFFE02F0CE
S1130A90F5FC02F033FDDFF808190870DFF80009EF
S1130AA00078FF2805D0DFF82808DFF8F418097863
S1130AB0017045A20021002002F01DFCDFF8EC09C2
S1130AC00068484902E000BF53643A0002F0C2FEE5
S1130AD002F02CFF80B2020000213C2002F05FFCF7
S1130AE075A20221002002F006FCDFF88829022109
S1130AF03C2002F000FC71A20421002002F0FBFB68
S1130B00DFF8742904213C2002F0F5FB6CA20621D5
S1130B10002002F0F0FBDFF8642906213C2002F0FB
S1130B20EAFBDFF8AC070078072811D1DFF87C096D
S1130B30006802F01DFF2C4A2C4B02F051FF02F01A
S1130B40C3FFDFF868190860DFF88407FF2101702C
S1130B50DFF87C070078082811D1DFF85009006815
S1130B6002F006FF204A224B02F03AFF02F0ACFFEB
S1130B70DFF838190860DFF85807FF210170DFF843
S1130B8050070078092806D11448FF210170DFF8C6
S1130B904007FF2101701148007802283FF474AF28
S1130BA002F013FADFF828070078032840F0A48045
S1130BB0DFF81C07FF21017008480321017002F0CF
S1130BC004FA91E04B703A004B643A009406FF1F1C
S1130BD0246C00002C6C0000346C00007204FF1FB5
S1130BE07404FF1F000020419A9999999999B93F7B
S1130BF09999B9BF1807FF1F6E2002F007FE02F093
S1130C003DFC02F07BFCDFF898170870DFF89007D2
S1130C100078FF2805D0DFF8B806DFF884170978D4
S1130C200170DFF88C280021002002F064FBDFF85B
S1130C308408B0F9002000213C2002F0B0FB1EA281
S1130C400221002002F057FBDFF8282802213C2073
S1130C5002F051FB19A20421002002F04CFBDFF842
S1130C60182804213C2002F046FB15A2062100208E
S1130C7002F041FBDFF8042806213C2002F03BFB94
S1130C80DFF84C06007807280AD1DFF82808008826
S1130C90401CDFF820180880DFF83406FF210170BB
S1130CA0DFF82C060078082811D1DFF8080800883E
S1130CB0401EDFF8001805E02B3A00002D3A000032
S1130CC052653A000880DFF80806FF210170DFF85A
S1130CD000060078092807D1DFF8DC07FF2101703E
S1130CE0DFF8EC05FF210170DFF8CC07007803285A
S1130CF03FF482AF02F069F9DFF8D40500780428E4
S1130D0040F08380DFF8C805FF210170DFF8A807F1
S1130D100421017002F059F970E06E2002F076FDB2
S1130D2002F0ACFB02F0EAFBDFF874160870DFF89F
S1130D3070060078FF2805D0DFF89405DFF8601608
S1130D4009780170DFF874270021002002F0D3FA3B
S1130D50DFF87805B0F9002000213C2002F01FFBE9
S1130D60E4A20221002002F0C6FADFF808270221DB
S1130D703C2002F0C0FAE0A20421002002F0BBFAF9
S1130D80DFF8F42604213C2002F0B5FAE1A20621A2
S1130D90002002F0B0FADFF8E42606213C2002F03D
S1130DA0AAFADFF82C05007807280AD1DFF81C0519
S1130DB00088401CDFF814150880DFF81405FF21B3
S1130DC00170DFF80C05007808280AD1DFF8FC046C
S1130DD00088401EDFF8F4140880DFF8F404FF21D3
S1130DE00170DFF8EC040078092807D1DFF8C806A1
S1130DF0FF210170DFF8D804FF210170DFF8B80685
S1130E000078042889D002F0E0F8DFF8C404007800
S1130E10052840F08380DFF8B804FF210170DFF873
S1130E2098060521017002F0D0F870E06E2002F0FF
S1130E30EDFC02F023FB02F061FBDFF8641508709F
S1130E40DFF85C050078FF2805D0DFF88404DFF8BC
S1130E50501509780170DFF868260021002002F09F
S1130E604AFADFF86006B0F9002000213C2002F0C5
S1130E7096FAA0A20221002002F03DFADFF8F42540
S1130E8002213C2002F037FA9BA20421002002F048
S1130E9032FADFF8E42504213C2002F02CFA9DA26A
S1130EA00621002002F027FADFF8D02506213C2095
S1130EB002F021FADFF81804007807280AD1DFF8D5
S1130EC004060088401CDFF8FC150880DFF80004E5
S1130ED0FF210170DFF8F803007808280AD1DFF851
S1130EE0E4050088401EDFF8DC150880DFF8E00325
S1130EF0FF210170DFF8D8030078092807D1DFF853
S1130F00B805FF210170DFF8C803FF210170DFF885
S1130F10A8050078052889D002F057F8DFF8B00357
S1130F20007806287CD1DFF8A803FF210170DFF8E0
S1130F3088050621017002F048F86AE06E2002F08C
S1130F4065FC02F09BFA02F0D9FADFF85414087039
S1130F50DFF84C040078FF2805D0DFF87403DFF8CD
S1130F60401409780170DFF8142D0021002002F0EC
S1130F70C2F9DFF80C0DB0F9002000213C2002F08A
S1130F800EFA5CA20221002002F0B5F9DFF8E42495
S1130F9002213C2002F0AFF957A20421002002F004
S1130FA0AAF9DFF8D42404213C2002F0A4F959A2C0
S1130FB00621002002F09FF9DFF8C02406213C201E
S1130FC002F099F9C2480078072809D1DFF8B00C7B
S1130FD00088401CDFF8A81C0880BD48FF21017070
S1130FE0BB480078082809D1DFF8940C0088401E1B
S1130FF0DFF88C1C0880B648FF210170B4480078E3
S1131000092806D1DFF8B004FF210170B048FF21A0
S11310100170DFF8A404007806288FD001F0D5FF12
S1131020AB4800780A287FF44CACA948FF21017032
S113103001F0CBFFFA2002F0E9FBDFF8482C002195
S1131040002002F058F9DFF8402C0221002002F0C1
S113105052F9DFF8382C0421002002F04CF9DFF8B3
S1131060302C0021462002F046F9DFF8282C02211A
S1131070462002F040F9DFF8202C0421462002F03B
S11310803AF902F0FBF902F039FA914908706E203E
S113109002F0BCFB8E480078012840F099808C480F
S11310A0FF210170DFF810040121017001F08DFFB0
S11310B087E0DFF8E82B0021002002F01CF9DFF8BC
S11310C0E00B0068DFF8DC1B02F0C4FB02F02EFC2E
S11310D080B2020000213C2002F061F905A2022145
S11310E0002002F008F99A4A02213C2002F003F998
S11310F001A203E02B3A00002D3A00000421002055
S113110002F0F9F89E4A04213C2002F0F4F801A20E
S113111002E000BF52653A000621002002F0EBF81D
S11311209E4A06213C2002F0E6F86E2002F06EFB97
S113113002F0A4F902F0E2F999490870984800789D
S1131140FF2803D062489649097801706048007806
S1131150072812D1DFF8480B006802F009FCDFF819
S1131160482BDFF8483B02F03BFC02F0ADFCDFF813
S1131170301B08605648FF21017055480078082844
S113118012D1DFF81C0B006802F0F2FBDFF8182B19
S1131190DFF81C3B02F024FC02F096FCDFF8001B95
S11311A008604B48FF21017049480078092808D19C
S11311B0C148FF2101704648FF2101707848FF2192
S11311C00170BD48007801283FF473AF01F0FDFEC3
S11311D03F480078022840F095803D48FF21017087
S11311E0B5480221017001F0F0FE84E06E2002F0A7
S11311F00DFB02F043F902F081F96949087068486F
S11312000078FF2803D03248654909780170DFF877
S1131210A42A0021002002F06EF8DFF89C0A00687E
S1131220DFF8801A02F016FB02F080FB80B20200A5
S113123000213C2002F0B3F895A20221002002F024
S11312405AF88C4A02213C2002F055F892A204215B
S1131250002002F050F8884A04213C2002F04BF8A8
S11312608FA20621002002F046F8844A06213C2081
S113127002F041F816480078072812D1DFF8380A3E
S1131280006802F075FBDFF8202ADFF8203A02F04C
S1131290A7FB02F019FCDFF8201A08600C48FF21B4
S11312A001700B480078082819D1DFF80C0A00688F
S11312B002F05EFBDFF8F029DFF8F43902F090FB6E
S11312C002F002FCDFF8F01904E000BF6204FF1F23
S11312D07004FF1F0860DFF8E409FF210170DFF8E4
S11312E0DC090078092806D17348FF210170DFF872
S11312F0CC09FF2101707048007802283FF476AFD2
S113130001F063FEDFF8B4090078032840F0A280FE
S1131310DFF8A809FF21017067480321017001F07B
S113132054FE90E06E2002F071FA02F0A7F802F089
S1131330E5F81B4908701A480078FF2804D0DFF844
S11313407C09174909780170DFF8742902E000BFAD
S11313503C6C00000021002001F0CDFFDFF864099F
S11313600068DFF8401902F075FA02F0DFFA80B283
S1131370020000213C2002F012F845A202E000BF66
S1131380446C00000221002001F0B5FF394A02211B
S11313903C2001F0B0FF40A204E000BF4C6C000010
S11313A06F04FF1F0421002001F0A5FF324A04212D
S11313B03C2001F0A0FF3AA20621002001F09BFF8F
S11313C02E4A06213C2001F096FFDFF8F008007851
S11313D0072813D1DFF8EC08006802F0C9FADFF837
S11313E0C828DFF8C83802F0FBFA02F06DFBDFF81A
S11313F0D4180860DFF8C408FF210170DFF8BC08C6
S11314000078082813D1DFF8BC08006802F0B0FAAD
S1131410DFF89428DFF8983802F0E2FA02F054FB7F
S1131420DFF8A0180860DFF89408FF210170DFF8E6
S11314308C080078092806D11F48FF210170DFF8C5
S11314407C08FF2101701C48007803283FF46AAF30
S113145001F0BBFDDFF864080078042840F0C68082
S1131460DFF85808FF21017013480421017001F0CE
S1131470ACFDB3E0546C00005C6C0000646C0000D4
S11314801C07FF1F6C6C0000746C00007C6C000077
S11314902B3A0000846C00002D3A00008C6C000094
S11314A052653A00946C00002404FF1F2C04FF1FB3
S11314B09C6C00006004FF1F7204FF1FB86B0000E7
S11314C0C46B00006604FF1F6E2002F09FF901F058
S11314D0D5FF02F013F8DFF81C1E0870DFF8140EB5
S11314E00078FF2805D0DFF8D407DFF8081E097854
S11314F00170DFF8D4270021002001F0FCFEDFF8A2
S1131500CC070068DFF89C1702F0A4F902F00EFA89
S113151080B2020000213C2001F041FFEBA2022135
S1131520002001F0E8FEDFF8582E02213C2001F0F3
S1131530E2FEE7A20421002001F0DDFEDFF8702EB8
S113154004213C2001F0D7FEE2A20621002001F094
S1131550D2FEDFF8602E06213C2001F0CCFEDFF83D
S11315605C070078072813D1DFF86007006802F0F1
S1131570FFF9DFF83427DFF8343702F031FA02F0EC
S1131580A3FADFF848170860DFF83007FF2101707D
S1131590DFF828070078082813D1DFF8300700683F
S11315A002F0E6F9DFF80027DFF8043702F018FA52
S11315B002F08AFADFF814170860DFF80007FF2149
S11315C00170DFF8F8060078092807D1DFF8000772
S11315D0FF210170DFF8E406FF210170DFF8F00657
S11315E0007804283FF470AF01F0EFFCDFF8CC067C
S11315F00078052840F09D80DFF8C006FF210170C7
S1131600DFF8CC060521017001F0DFFC89E06E20D3
S113161002F0FCF801F032FF01F070FFDFF8D41C97
S11316200870DFF8D00C0078FF2805D0DFF88C06AE
S1131630DFF8C01C09780170DFF89826002100202B
S113164001F059FEDFF890060068DFF8581602F042
S113165001F902F06BF980B2020000213C2001F094
S11316609EFE9AA20221002001F045FEDFF8102D13
S113167002213C2001F03FFE95A20421002001F04C
S11316803AFEDFF82C2D04213C2001F034FE91A217
S11316900621002001F02FFEDFF8182D06213C2042
S11316A001F029FEDFF814060078072813D1DFF8CB
S11316B02806006802F05CF9DFF8EC25DFF8EC3569
S11316C002F08EF902F000FADFF80C160860DFF879
S11316D0EC05FF210170DFF8E4050078082813D138
S11316E0DFF8F405006802F043F9DFF8BC25DFF801
S11316F0C03502F075F902F0E7F9DFF8DC1508608F
S1131700DFF8B805FF210170DFF8B005007809287B
S113171007D1DFF8BC05FF210170DFF8A005FF2128
S11317200170DFF8AC05007805283FF470AF01F0D4
S11317304CFCDFF888050078062840F09D80DFF82F
S11317407C05FF210170DFF888050621017001F096
S11317503CFC89E06E2002F059F801F08FFE01F0A4
S1131760CDFEDFF8901B0870DFF8880B0078FF28A7
S113177005D0DFF84805DFF87C1B09780170DFF835
S1131780382D0021002001F0B6FDDFF8300D00688F
S1131790DFF8101502F05EF802F0C8F880B202001B
S11317A000213C2001F0FBFD48A20221002001F0B1
S11317B0A2FDDFF8CC2B02213C2001F09CFD44A2C9
S11317C00421002001F097FDDFF8E42B04213C20E4
S11317D001F091FD3FA20621002001F08CFDDFF80D
S11317E0D42B06213C2001F086FDDFF8D0040078DC
S11317F0072813D1DFF8C40C006802F0B9F8DFF849
S1131800A824DFF8A83402F0EBF802F05DF9DFF861
S1131810AC1C0860DFF8A404FF210170DFF89C040D
S11318200078082813D1DFF8940C006802F0A0F8BF
S1131830DFF87424DFF8783402F0D2F802F044F9C7
S1131840DFF8781C0860DFF87404FF210170DFF80A
S11318506C040078092807D1DFF87404FF210170B3
S1131860DFF85804FF210170DFF8640400780628CB
S11318703FF470AF01F0A9FBDFF8400400780A28B8
S11318807FF4D8ABDFF83404FF21017001F09DFB35
S1131890FA2001F0BBFFDFF8282C0021002001F022
S11318A02AFDDFF8202C0021462001F024FDDFF87A
S11318B0182C0221002001F01EFDDFF8102C042159
S11318C0002001F018FDDFF8082C05E02B3A000099
S11318D02D3A000052653A000421462001F00BFD28
S11318E0DFF8F02B0621002001F005FD01F0C6FD14
S11318F001F004FEDFF8C41308706E2001F086FFC7
S1131900DFF8B8030078012840F09480DFF8AC03D6
S1131910FF210170DFF8B8030121017001F055FBCC
S113192081E0DFF8B42B0021002001F0E4FCDFF8B3
S1131930AC0B0068DFF86C1301F08CFF01F0F6FFCC
S113194080B2020000213C2001F029FDC4A2022142
S1131950002001F0D0FCDFF8882B02213C2001F0AC
S1131960CAFCC0A20421002001F0C5FCDFF8742BDE
S113197004213C2001F0BFFCBBA20621002001F0A1
S1131980BAFCDFF8642B06213C2001F0B4FC6E2085
S113199001F03CFF01F072FD01F0B0FDDFF85419D5
S11319A00870DFF850090078FF2804D0C348DFF836
S11319B0441909780170C1480078072810D1DFF86C
S11319C01C0B006801F0D4FFB74AB84B02F008F8CA
S11319D002F07AF8DFF8041B0860B848FF210170B0
S11319E0B6480078082810D1DFF8F00A006801F042
S11319F0BFFFAD4AAE4B01F0F3FF02F065F8DFF82C
S1131A00DC1A0860AD48FF210170AC480078092851
S1131A1009D1AF48FF210170A848FF210170DFF808
S1131A20D408FF210170AA48007801283FF479AF57
S1131A3001F0CBFAA1480078022840F08D809F483D
S1131A40FF210170A2480221017001F0BEFA7CE07E
S1131A506E2001F0DBFE01F011FD01F04FFDDFF817
S1131A6094180870DFF88C080078FF2804D0934895
S1131A70DFF8801809780170DFF8702A002100204F
S1131A8001F039FCDFF8680A0068864901F0E2FEDB
S1131A9001F04CFF80B2020000213C2001F07FFCE9
S1131AA06FA20221002001F026FCDFF8D4280221D5
S1131AB03C2001F020FC6BA20421002001F01BFC5F
S1131AC0DFF8EC2804213C2001F015FC66A2062175
S1131AD0002001F010FCDFF8DC2806213C2001F096
S1131AE00AFC76480078072810D1DFF8040A006859
S1131AF001F03EFF6C4A6D4B01F072FF01F0E4FF10
S1131B00DFF8EC1908606D48FF2101706B4800781C
S1131B10082810D1DFF8D809006801F029FF624ACB
S1131B20634B01F05DFF01F0CFFFDFF8C4190860DB
S1131B306248FF21017061480078092805D1644892
S1131B40FF2101705D48FF2101706148007802287F
S1131B503FF47EAF01F039FA58480078032878D171
S1131B605648FF2101705A480321017001F02DFAF3
S1131B7069E06E2001F04AFE01F080FC01F0BEFC39
S1131B80DFF870170870DFF86C070078FF2804D0BE
S1131B904A48DFF8601709780170DFF858290021F6
S1131BA0002001F0A8FBDFF85009B0F9002092B240
S1131BB000213C2001F0F3FB29A20221002001F0C6
S1131BC09AFBDFF8BC2702213C2001F094FB25A2FC
S1131BD00421002001F08FFBDFF8D42704213C20EE
S1131BE001F089FB20A20621002001F084FBDFF82C
S1131BF0C42706213C2001F07EFB304800780728EA
S1131C0009D1DFF8F4080088401CDFF8EC180880DC
S1131C102A48FF21017029480078082809D1DFF8F3
S1131C20D8080088401EDFF8D01808802348FF2118
S1131C30017022480078092805D12548FF21017048
S1131C401E48FF21017022480078032891D001F03A
S1131C50BCF91A480078042840F0D280174805E0FF
S1131C602B3A00002D3A000052653A00FF21017022
S1131C7017480421017001F0A8F9B9E0A46C000030
S1131C806404FF1FAC6C0000B46C0000BC6C00006A
S1131C90C46C0000CC6C0000D46C0000DC6C000050
S1131CA03404FF1F000020419A9999999999B93FEA
S1131CB09999B9BFE46C00003804FF1F7004FF1F3A
S1131CC0EC6C00003C04FF1FF46C00004804FF1F90
S1131CD07204FF1FFC6C00004C04FF1F6E2001F017
S1131CE095FD01F0CBFB01F009FCDFF80816087044
S1131CF0DFF800060078FF2805D0DFF8300DDFF8A4
S1131D00F41509780170DFF8282D0021002001F076
S1131D10F2FADFF8200D0068DFF81C1D01F09AFDCF
S1131D2001F004FE80B2020000213C2001F037FBE8
S1131D30E0A20221002001F0DEFADFF844260221AD
S1131D403C2001F0D8FADCA20421002001F0D3FAEF
S1131D50DFF85C2604213C2001F0CDFAE8A206213C
S1131D60002001F0C8FADFF84C2606213C2001F0DF
S1131D70C2FADFF8B80C0078072813D1DFF8B40CE6
S1131D80006801F0F5FDDFF8B42CDFF8B43C01F095
S1131D9027FE01F099FEDFF89C1C0860DFF88C0C2C
S1131DA0FF210170DFF8840C0078082813D1DFF8D4
S1131DB0840C006801F0DCFDDFF8802CDFF8843C43
S1131DC001F00EFE01F080FEDFF8681C0860DFF809
S1131DD05C0CFF210170DFF8540C0078092807D14E
S1131DE0DFF8640CFF210170DFF8400CFF21017063
S1131DF0DFF8540C007804283FF470AF01F0E5F8E4
S1131E00DFF8280C0078052840F09D80DFF81C0CD2
S1131E10FF210170DFF8300C0521017001F0D5F8C5
S1131E2089E06E2001F0F2FC01F028FB01F066FB72
S1131E30DFF8C0140870DFF8BC040078FF2805D070
S1131E40DFF8E80BDFF8AC1409780170DFF8E42D53
S1131E500021002001F04FFADFF8DC0D0068DFF804
S1131E60D81B01F0F7FC01F061FD80B202000021F3
S1131E703C2001F094FA8FA20221002001F03BFAE9
S1131E80DFF8FC2402213C2001F035FA8AA2042167
S1131E90002001F030FADFF8182504213C2001F07D
S1131EA02AFA97A20621002001F025FADFF804257A
S1131EB006213C2001F01FFADFF8700B0078072898
S1131EC013D1DFF8740D006801F052FDDFF86C2BBC
S1131ED0DFF86C3B01F084FD01F0F6FDDFF8581DDE
S1131EE00860DFF8480BFF210170DFF8400B007831
S1131EF0082813D1DFF8400D006801F039FDDFF840
S1131F003C2BDFF8403B01F06BFD01F0DDFDDFF819
S1131F10281D0860DFF8140BFF210170DFF80C0B9B
S1131F200078092807D1DFF8200BFF210170DFF8C2
S1131F30FC0AFF210170DFF8100B007805283FF43C
S1131F4070AF01F042F8DFF8E40A0078062840F0A8
S1131F508180DFF8D80AFF210170DFF8EC0A06213E
S1131F60017001F032F86EE06E2001F04FFC01F0D8
S1131F7085FA01F0C3FADF490870DE480078FF28CB
S1131F8004D0DFF8A80ADB4909780170DFF8AC2C2B
S1131F900021002001F0AFF9DFF8A40CB0F9002013
S1131FA092B200213C2001F0FAF942A20221002061
S1131FB001F0A1F9DFF8C82302213C2001F09BF9CC
S1131FC03DA20421002001F096F9DFF8E423042166
S1131FD03C2001F090F94AA20621002001F08BF97F
S1131FE0DFF8D02306213C2001F085F9DFF83C0A14
S1131FF0007807280AD1DFF8480C0088401CDFF875
S1132000401C0880DFF8240AFF210170DFF81C0A55
S1132010007808280AD1DFF8280C0088401EDFF871
S1132020201C0880DFF8040AFF210170DFF8FC0996
S11320300078092807D1DFF8100AFF210170DFF8C2
S1132040EC09FF210170DFF8000A007806288BD024
S113205000F0BBFFDFF8D40900780A287FF418AC3D
S1132060DFF8C809FF21017000F0AFFFFA2001F08A
S1132070CDFBDFF8542C0021002001F03CF9DFF8FF
S11320804C2C0021462001F036F9DFF8442C0221C3
S1132090002001F030F9DFF83C2C0221462001F049
S11320A02AF9DFF8342C0421002001F024F9DFF8A8
S11320B02C2C03E02B3A00002D3A0000042146208A
S11320C001F019F901F0DAF901F018FADFF85C19F6
S11320D008706E2001F09AFBDFF85009007801289F
S11320E040F08480DFF84409FF210170DFF85809CB
S11320F00121017000F069FF71E0DFF84C2B01E071
S113210052653A000021002001F0F5F8DFF83C0B9D
S1132110027800213C2001F042F9CEA202210020E5
S113212001F0E9F8DFF8B82302213C2001F0E3F8DC
S1132130C9A20421002001F0DEF8DFF8A82304215D
S11321403C2001F0D8F8C5A20621002001F0D3F804
S1132150E54A06213C2001F0CEF86E2001F056FB42
S113216001F08CF901F0CAF96249087061480078FD
S1132170FF2804D0DFF8B4085E4909780170DFF85D
S1132180AC08007807280AD1DFF8C00A0078401CA0
S1132190DFF8B81A0870DFF89408FF210170DFF83F
S11321A08C08007808280AD1DFF8A00A0078401EBD
S11321B0DFF8981A0870DFF87408FF210170DFF85F
S11321C06C08007809280AD1DFF87C08FF21017027
S11321D0DFF85808FF2101704648FF210170DFF83D
S11321E068080078012888D000F0EFFEDFF83C088A
S11321F00078022840F09A80DFF83008FF2101704F
S1132200DFF844080221017000F0DFFE86E06E2052
S113221001F0FCFA01F032F901F070F93549087067
S113222034480078FF2804D0DFF8000831490978E1
S11322300170DFF8AC2A0021002001F05CF8DFF81F
S1132240A40A0068DFF8F01701F004FB01F06EFB4C
S113225080B2020000213C2001F0A1F87DA20221FD
S1132260002001F048F8464A02213C2001F043F8DE
S113227079A20421002001F03EF84D4A04213C20BB
S113228001F039F875A20621002001F034F8494A1A
S113229006213C2001F02FF8DFF89007007807288A
S11322A013D1DFF8400A006801F062FBDFF88C27E5
S11322B0DFF88C3701F094FB01F006FCDFF8241AF8
S11322C00860DFF86807FF210170DFF86007007815
S11322D0082816D1DFF80C0A006801F049FBDFF882
S11322E05C27DFF8603701F07BFB01F0EDFBDFF8E2
S11322F0F41901E06F04FF1F0860DFF83007FF21C5
S11323000170DFF828070078092807D1DFF83807BB
S1132310FF210170DFF81407FF210170DFF828079F
S1132320007802283FF473AF00F04FFEDFF8FC069C
S11323300078032840F0AE80DFF8F006FF2101703A
S1132340DFF804070321017000F03FFE9AE06E20DD
S113235001F05CFA01F092F801F0D0F8DFF8881986
S11323600870DFF884090078FF2805D0DFF8BC0680
S1132370DFF8741909780170DFF8702902E000BFF2
S1132380546C00000021002000F0B5FFDFF8600964
S11323900068DFF8A41601F05DFA01F0C7FA80B214
S11323A0020000213C2000F0FAFF2AA204E000BF52
S11323B05C6C0000646C00000221002000F09BFFB4
S11323C0DFF8302902213C2000F095FF22A20421ED
S11323D0002000F090FFDFF8202904213C2000F0C9
S11323E08AFF1EA20621002000F085FFDFF80C29D9
S11323F006213C2000F07FFFDFF830060078072834
S113240013D1DFF8EC08006801F0B2FADFF82C26EB
S1132410DFF82C3601F0E4FA01F056FBDFF8D018AF
S11324200860DFF80806FF210170DFF80006007875
S113243008281AD1DFF8B808006801F099FADFF823
S1132440FC25DFF8003601F0CBFA01F03DFBDFF8A4
S1132450A01805E02B3A00002D3A000052653A001E
S11324600860DFF8C805FF210170DFF8C0050078B7
S1132470092807D1DFF8D005FF210170DFF8AC058A
S1132480FF210170DFF8C005007803283FF45FAF37
S113249000F09BFDDFF894050078042840F0C0802C
S11324A0DFF88805FF210170DFF89C050421017025
S11324B000F08BFDACE000BF046D00005004FF1F72
S11324C00C6D0000146D0000D06B00001C6D00004A
S11324D0246D0000DC6B00002C6D00004004FF1F25
S11324E03C6C0000446C00004C6C0000346D000037
S11324F04404FF1FE86B00002004FF1F6E2001F05E
S113250085F900F0BBFF00F0F9FFDFF8DC17087075
S1132510DFF8D4070078FF2805D0DFF81005DFF8CE
S1132520C81709780170DFF8D8270021002000F0CF
S1132530E2FEDFF8D0070068DFF8FC1401F08AF946
S113254001F0F4F980B2020000213C2000F027FFE2
S1132550BAA20221002000F0CEFEDFF89827022163
S11325603C2000F0C8FEB6A20421002000F0C3FE07
S1132570DFF8842704213C2000F0BDFEB1A206212F
S1132580002000F0B8FEDFF8742706213C2000F09C
S1132590B2FEDFF898040078072813D1DFF8640747
S11325A0006801F0E5F9DFF89424DFF8943401F0D1
S11325B017FA01F089FADFF84C170860DFF86C04A9
S11325C0FF210170DFF864040078082813D1DFF8D4
S11325D03407006801F0CCF9DFF86024DFF86434D4
S11325E001F0FEF901F070FADFF818170860DFF85F
S11325F03C04FF210170DFF834040078092807D176
S1132600DFF84404FF210170DFF82004FF2101708A
S1132610DFF83404007804283FF470AF00F0D5FCF0
S1132620DFF80804007805287AD1DFF80004FF21D8
S11326300170DFF814040521017000F0C6FC69E0A4
S11326406E2001F0E3F800F019FF00F057FFDFF807
S113265098160870DFF890060078FF2805D0DFF898
S1132660CC03DFF8841609780170DFF89C2600217A
S1132670002000F040FEDFF89406B0F900200021AD
S11326803C2000F08CFE6DA20221002000F033FEFD
S1132690DFF8602602213C2000F02DFE68A2042110
S11326A0002000F028FEDFF8502604213C2000F032
S11326B022FE64A20621002000F01DFEDFF83C2665
S11326C006213C2000F017FED8480078072809D1DD
S11326D0DFF838060088401CDFF830160880D3483D
S11326E0FF210170D1480078082809D1DFF81C06C1
S11326F00088401EDFF814160880CC48FF210170C2
S1132700CA480078092805D1CF48FF210170C7487D
S1132710FF210170CC480078052891D000F055FCC9
S1132720C2480078062877D1C048FF210170C64806
S11327300621017000F049FC68E06E2001F066F8A3
S113274000F09CFE00F0DAFEDFF89C150870DFF85C
S113275098050078FF2804D0B448DFF88C15097870
S11327600170DFF8AC250021002000F0C4FDDFF883
S1132770A405B0F9002000213C2000F010FE2FA297
S11327800221002000F0B7FDDFF8682502213C207B
S113279000F0B1FD2AA20421002000F0ACFDDFF816
S11327A0582504213C2000F0A6FD26A20621002085
S11327B000F0A1FDDFF8442506213C2000F09BFD3C
S11327C09A480078072809D1DFF848050088401C9A
S11327D0DFF8401508809548FF2101709348007880
S11327E0082809D1DFF82C050088401EDFF82415DD
S11327F008808E48FF2101708C480078092805D193
S11328009148FF2101708948FF2101708E480078AA
S1132810062892D000F0D9FB844800780A287FF477
S113282025AC8248FF21017000F0CFFBDFF8E804FB
S11328300078012811D185A206E000BF2B3A0000E0
S11328402D3A000052653A000021002000F053FDAB
S1132850FA2000F0DBFF00F0B8FBDFF8BC04022133
S11328600170DFF8B80401210180DFF8B40401210C
S11328700180DFF8B0040078012834D1DFF8A40423
S113288000210170DFF8A0040078D0F11400DFF813
S11328909C140870DFF894040078022809D3DFF848
S11328A08C040078DFF888140978884201D101F09B
S11328B074F9DFF87C040078401CDFF874140870A5
S11328C0DFF86C04007814280DD3DFF864040021C9
S11328D00170DFF8600401F0B6F901F021FADFF8C5
S11328E0580401210170DFF850040078012840F0F9
S11328F08080DFF8440400210170DFF8380401F01F
S11329007BFA01F0A9FBDFF834040088DFF8301407
S113291009880818DFF824140880DFF828040088E0
S1132920DFF8241409880818DFF818140880DFF881
S11329301C040088DFF8181409880818DFF80C1440
S11329400880641C200000B20A2852DB0024DFF84F
S1132950EC03B0F900000A2190FBF1F0DFF8F41366
S11329600880DFF8E003B0F900000A2190FBF1F0E1
S1132970DFF8E4130880DFF8D403B0F900000A217B
S113298090FBF1F0DFF8D4130880DFF8B0030021E6
S11329900180DFF8B00300210180DFF8B0030021DB
S11329A00180DFF8B8030088DFF8AC130988401A07
S11329B0DFF8AC130880DFF8AC03DFF8A413098850
S11329C00180DFF89003B0F9002000210A2000F014
S11329D0C2FBDFF88403B0F9002002210A2000F0D2
S11329E0BAFBDFF87803B0F900200221462000F09A
S11329F0B2FB00F043FD00F081FDBB490870BA480A
S1132A000078FF2803D00948B749097801700748BE
S1132A1000780C287FF40AAF0448FF2101700A48AB
S1132A200C21017000F0D1FA2FE000BF7004FF1FE9
S1132A303C6D00005404FF1F000020419A999999AD
S1132A409999B93F9999B9BF7204FF1F636A00004D
S1132A506E2000F0DBFE00F011FD00F04FFDA249F6
S1132A600870A1480078FF2803D0BF489E49097820
S1132A700170BD4800780C2805D1BC48FF210170C5
S1132A80B948FF21017000F0A0FAB84800780C287A
S1132A90DED0A148012101709F480078012810D19F
S1132AA068A206213C2000F026FC40F2DC5000F035
S1132AB0ADFE00F08AFA994800210180984800216F
S1132AC0018095480221017096480078012828D198
S1132AD094480021017094480078D0F1140093497F
S1132AE0087092480078022807D3904800789049EB
S1132AF00978884201D101F050F88D480078401CD3
S1132B008B4908708A48007814280AD38848002121
S1132B100170884801F097F801F002F98648012114
S1132B20017085480078012868D18348002101702C
S1132B30804801F061F901F08FFA01F0EFFE8C4852
S1132B40027800210A2000F006FB8A48027800215E
S1132B50462000F000FB7C48B0F9002002210A2046
S1132B6000F0F9FA7A48B0F900200221462000F07A
S1132B70F2FA8148B0F9002004210A2000F0EBFAAF
S1132B807E48B0F900200421462000F0E4FA7C4895
S1132B90B0F900200621002000F03FFB79480068CE
S1132BA079490968884203DA7648774909680160F7
S1132BB07648B0F900007649B1F90010884203DA8A
S1132BC072487349098801807248B0F9000072495B
S1132BD0B1F90010884203DA6E486F490988018010
S1132BE06E48B0F900006E49B1F90010884203DA6A
S1132BF06A486B490988018001F0CAFF6948B0F945
S1132C000000012804D167480021018002F088F8FF
S1132C106548007801287FF43FAF00230122092191
S1132C20624802F0FDF96248002101603B4801213D
S1132C30018031E7446D00005804FF1FF46B00006D
S1132C402204FF1F676F00007C6D00006E04FF1FED
S1132C5080B572B65FF4E13256480168564802F016
S1132C6031FA002300220821544802F0D9F94FF424
S1132C709671002002F02CFB4FF4965202210020A2
S1132C8002F09BFC42F21071012002F021FB02F0E1
S1132C909EFD02F000FE00F05FFF00F0BFF900228D
S1132CA000215FF07F5000F08FF84FF47A7000F04D
S1132CB087F84EF66021002002F074FE002002F036
S1132CC0A0FE62B601BD00004C6D0000546D000012
S1132CD05C6D0000646D00006C6D0000746D00009C
S1132CE0006C00002804FF1F6F04FF1F0C6C000021
S1132CF03004FF1F546C00005C6C0000646C000026
S1132D00846D00005C04FF1F8C6D00006C04FF1FC9
S1132D10946D00006A04FF1F7104FF1FC007FF1FAA
S1132D20C207FF1FD807FF1F1E04FF1FD707FF1F7F
S1132D30DB07FF1F9406FF1FDC07FF1FB807FF1FF9
S1132D404E07FF1FBA07FF1F3C07FF1FBC07FF1FEB
S1132D501404FF1F5407FF1F5007FF1F1604FF1F13
S1132D60CA07FF1F4C07FF1F7004FF1F7204FF1FD9
S1132D70D007FF1FCF07FF1F9007FF1F8E07FF1FFE
S1132D809807FF1F1407FF1F9006FF1FC607FF1FAA
S1132D909207FF1FC807FF1F6E07FF1FBE07FF1F15
S1132DA08C07FF1FB607FF1FD507FF1F40F00F401A
S1132DB0109003403407FF1F00D0064080F00F40FE
S1132DC02649096808607047244B1B6898602348AB
S1132DD00068C160214800680261704710B51F494E
S1132DE009680968081A1E4908601D48006802F04D
S1132DF035FE1A490968896800F02CFD040017485B
S1132E000068406902F02AFE14490968C96800F0A4
S1132E1021FD0100200002F039FE04000F48006883
S1132E20806902F01BFE0D490968096900F012FD72
S1132E30210002F09FFE00F079FD0A49086007486E
S1132E4000680649096849698161044800680449C1
S1132E50096841610348006810BD00001004FF1FA9
S1132E60E004FF1FE404FF1F0821DFF8F4251268C3
S1132E7052F40032DFF8E8351A6000BFDFF8E025CD
S1132E80126832F48042DFF8D8351A6000BF19E0C6
S1132E90DFF8CC25126832F40042DFF8C4351A603A
S1132EA0DFF8BC25126852F48042DFF8B4351A60AA
S1132EB000BFDFF8AC25126832F48042DFF8A03599
S1132EC01A6040000A00511ED2B2002A0AD002063B
S1132ED0DED5DFF88C25126852F40042DFF8803525
S1132EE01A60DDE7704700000821DFF874251268D6
S1132EF032F40032DFF868351A60DFF864251268AE
S1132F0032F48042DFF858351A6019E0DFF85025B2
S1132F10126832F40042DFF848351A60DFF84025C1
S1132F20126852F48042DFF838351A6000BFDFF8C7
S1132F303025126832F48042DFF824351A604000EC
S1132F400A00511ED2B2002A0AD00206DED5DFF8EA
S1132F501025126852F40042DFF804351A60DDE7E8
S1132F60704710B50400B1F15000C0B2FFF7BCFFC8
S1132F70E4B2200950F01000C0B2FFF7B5FF14F01E
S1132F800F0050F00100C0B2FFF7AEFF10BD70B5E6
S1132F900400002508E02000C0B2FFF765FF761C9E
S1132FA0F6B2802EF7D36D1CEDB2082D0CD2B5F11C
S1132FB05000C0B2FFF798FF0120FFF795FF1020E3
S1132FC0FFF792FF0026EBE770BD38B5002407E059
S1132FD00020FFF749FF6D1CEDB2802DF8D3641C6F
S1132FE0E4B2082C0CD2B4F15000C0B2FFF77CFF5D
S1132FF00120FFF779FF1020FFF776FF0025EBE7AC
S113300031BD07E043F226410A00511E92B2002A64
S1133010FAD1401E80B20028F4D1704780B5DFF8A1
S113302044044FF480710160DFF83C044FF4807174
S11330300160DFF838044FF480710160DFF8300478
S11330404FF480710160DFF82C045FF4703101608B
S1133050DFF80C04006850F48040DFF804140860C2
S1133060DFF8FC03006830F48030DFF8F413086004
S11330703220FFF7C6FFDFF8E803006850F4803021
S1133080DFF8DC130860AE20FFF72EFF0020FFF707
S11330902BFF1020FFF728FF4020FFF725FF81209A
S11330A0FFF722FFCF20FFF71FFFA120FFF71CFF30
S11330B0C820FFF719FFA620FFF716FFA820FFF787
S11330C013FF3F20FFF710FFD320FFF70DFF002071
S11330D0FFF70AFFD520FFF707FF8020FFF704FF63
S11330E0D920FFF701FFF120FFF7FEFEDA20FFF7FA
S11330F0FBFE1220FFF7F8FEDB20FFF7F5FE402071
S1133100FFF7F2FE2020FFF7EFFE0220FFF7ECFEB0
S11331108D20FFF7E9FE1420FFF7E6FEA420FFF759
S1133120E3FEA620FFF7E0FEAF20FFF7DDFE002060
S1133130FFF72DFF00210020FFF713FFFF20FFF70B
S113314026FF642000F062FB0020FFF720FF6420CC
S113315000F05CFB01BD2DE9FC4104000D000026DC
S113316000275FF00008642092FBF0F08DF8000067
S1133170642092FBF0F100FB11200A2190FBF1F096
S11331808DF801000A2092FBF0F100FB11208DF86C
S113319002000020804610E0F6B2300150FA87F0B9
S11331A0DFF8D4124018007AFFF75EFE7F1CFFB2EE
S11331B0082FF1D3083418F101085FFA88F8B8F140
S11331C0030F28D25FFA88F800A818F8000010F15D
S11331D01006E4B2792C01D300246D1C2900C9B275
S11331E02000C0B2FFF7BDFE002709E0F6B23001AF
S11331F050FA87F0DFF88012405CFFF735FE7F1C41
S1133200FFB2082FF2D3691CC9B22000C0B2FFF785
S1133210A8FE0027CBE7BDE8F3812DE9FC410400BB
S11332200D00002600275FF000084FF47A7092FB2F
S1133230F0F08DF800004FF47A7092FBF0F100FB8F
S11332401120642190FBF1F08DF80100642092FBC1
S1133250F0F100FB11200A2190FBF1F08DF802003F
S11332600A2092FBF0F100FB11208DF803000020EE
S1133270804610E0F6B2300150FA87F0DFF8F8111A
S11332804018007AFFF7F0FD7F1CFFB2082FF1D33E
S1133290083418F101085FFA88F8B8F1040F28D24D
S11332A05FFA88F800A818F8000010F11006E4B2DC
S11332B0792C01D300246D1C2900C9B22000C0B2AE
S11332C0FFF74FFE002709E0F6B2300150FA87F00D
S11332D0DFF8A411405CFFF7C7FD7F1CFFB2082F85
S11332E0F2D3691CC9B22000C0B2FFF73AFE00272E
S11332F0CBE7BDE8F3812DE9F84304000D00160087
S113330000275FF000085FF0000913E0FFB2380106
S113331050FA88F0DFF860114018007AFFF7A4FD36
S113332018F101085FFA88F8B8F1080FEED30834F1
S113333019F101095FFA89F919F8060000282CD05F
S11333405FFA89F919F80600B0F12007E4B2792C84
S113335001D300246D1C2900C9B22000C0B2FFF7BC
S113336000FE5FF000080AE0FFB2380150FA88F06E
S1133370DFF80411405CFFF777FD18F101085FFAEC
S113338088F8B8F1080FEFD3691CC9B22000C0B2A5
S1133390FFF7E7FD5FF00008C4E7BDE8F1832DE91E
S11333A0F04182B004000D00002600275FF0000801
S11333B06420B2FBF0F08DF800000A20B2FBF0F0BC
S11333C00A21B0FBF1F301FB13008DF801000A2080
S11333D0B2FBF0F100FB11208DF8020000208046C2
S11333E00FE0F6B2300150FA87F023494018007A12
S11333F0FFF73AFD7F1CFFB2082FF2D3083418F10F
S113340001085FFA88F8B8F1030F27D25FFA88F849
S113341000A818F8000010F11006E4B2792C01D3CA
S113342000246D1C2900C9B22000C0B2FFF799FD29
S1133430002708E0F6B2300150FA87F00E49405CEC
S1133440FFF712FD7F1CFFB2082FF3D3691CC9B22A
S11334502000C0B2FFF785FD0027CCE7BDE8F3816B
S113346000F00F40389004403C90044040900440E9
S11334704490044014F00F40F060000080B5DFF881
S11334808403006850F48050DFF878130860002348
S113349000220021DFF8700301F0C2FD00230022A6
S11334A00121DFF8640301F0BBFD002300220221A7
S11334B0DFF8540301F0B4FD002300220321DFF8F8
S11334C0480301F0ADFD012300220421DFF8380395
S11334D001F0A6FD012300220521DFF82C0301F0F1
S11334E09FFD012300220621C74801F099FD002316
S11334F000220721C44801F093FD01BDF8B5002561
S1133500FF24002301220021BF4801F089FD01238B
S113351001220121BC4801F083FD01230122022183
S1133520B94801F07DFD012301220321B64801F0D1
S113353077FD0421B44801F0BDFD06000521B24821
S113354001F0B8FD07000621AF4801F0B3FD790191
S113355011EB061111EB80160721AB4801F0AAFD0F
S113356016EBC0100500EDB2702D2AD00A2000F031
S11335704DF90421A44801F09DFD05000521A24850
S113358001F098FD060006219F4801F093FD7101AA
S113359011EB051111EB801507219B4801F08AFD01
S11335A015EBC015EDB2702D0BD0EDB2302D07D058
S11335B0502D03D0602D04D10A2402E00B2400E036
S11335C00C240123012200218F4801F029FD00234E
S11335D0012201218C4801F023FD01230122022153
S11335E0894801F01DFD012301220321864801F0D1
S11335F017FD0421844801F05DFD05000521824882
S113360001F058FD060006217F4801F053FD7101C9
S113361011EB051111EB801507217B4801F04AFDE0
S113362015EBC015EDB2702D2AD00A2000F0EEF88B
S11336300421754801F03EFD05000521724801F0A2
S113364039FD06000621704801F034FD710111EBCB
S1133650051111EB801507216B4801F02BFD15EBCB
S1133660C015EDB2702D0BD0EDB2302D07D0502D1A
S113367003D0602D04D1072402E0082400E00924CB
S1133680012301220021604801F0CAFC0123012228
S113369001215D4801F0C4FC0023012202215A48A3
S11336A001F0BEFC012301220321574801F0B8FCBC
S11336B00421554801F0FEFC05000521524801F0A3
S11336C0F9FC06000621504801F0F4FC710111EBED
S11336D0051111EB801507214B4801F0EBFC15EBAC
S11336E0C015EDB2702D2AD00A2000F08FF8042105
S11336F0454801F0DFFC05000521434801F0DAFCF0
S113370006000621404801F0D5FC710111EB0511BA
S113371011EB801507213C4801F0CCFC15EBC015DA
S1133720EDB2702D0BD0EDB2302D07D0502D03D05B
S1133730602D04D1042402E0052400E006240123C2
S113374001220021304801F06BFC012301220121F8
S11337502D4801F065FC0123012202212A4801F0D1
S11337605FFC002301220321274801F059FC0421B6
S1133770254801F09FFC05000521234801F09AFC2F
S113378006000621204801F095FC710111EB05119A
S113379011EB801507211C4801F08CFC15EBC015BA
S11337A0EDB2702D2AD00A2000F030F8042116481A
S11337B001F080FC05000521134801F07BFC0600A4
S11337C00621114801F076FC710111EB051111EB92
S11337D0801507210C4801F06DFC15EBC015EDB206
S11337E0702D0BD0EDB2302D07D0502D03D0602DAD
S11337F004D1012402E0022400E003242000C0B22A
S1133800F2BD000038800440C0F00F400D49096843
S113381051F001010B4A11600B4908600B48052166
S113382001600B48006850F001000949086008482D
S113383000680006FBD506480068400840000449BB
S113384008607047388004400800044004000440C5
S113385000000440FF2212EAD05C1DBF12EAD153DB
S1133860944593422BE09C44D30780EA01021A401A
S113387043EA002043EA0121A1FB0030410038BFA4
S113388040007CF17F010BDBFE294ADA5B0842EA47
S1133890C15153EA006373F1004C51EB102070479F
S11338A0D1F1080CDCF120012FDB5B0810FA01F1E7
S11338B00B4373F1004120FA0CF0504170479445DA
S11338C01CBF02EAD153934280EA010202F0004293
S11338D01DD0400019D0490017D05BB9634514D0FE
S11338E00902B1FA81F39940BCEB030CC00140F02A
S11338F00040C1E70002B0FA80FC10FA0CF0B3EB10
S11339000C0CC90141F00041B6E7100070474000BB
S11339100AD0490008D010F1807F94BF11F1807F54
S113392002E042F0FF407047D04370474100090E67
S11339307F3915D4D1F11F0114D4400007D2C0013E
S113394040F00040C84048BF6FF000407047C001DD
S113395040F00040C8404CBF4FF000404042704728
S11339600020704700424FF0004058BFC0437047EA
S11339705FF0FF0C1CEAD05114BF614506E0C11092
S1133980400721F0E04101F16051704779B900F03E
S1133990004100020AD0B0FA80FC00FA0CF001F1F8
S11339A06051A1EB0C5101EBD0214005704741025D
S11339B00CBF40F4E0016FF000010020704750F8A4
S11339C0041B61B150F8042BD30744BFA9F10103D0
S11339D09A18002342F8043B091FFAD1EFE7704715
S11339E070B44FF0004591EA030C44BF6B4002F001
S11339F003B900BF841A71EB030603D2001BB14163
S1133A00121973414FF4001C1CEB410F34BF7CEBC3
S1133A10430443E00C0DA4EB1356352E50DC45EA69
S1133A20C323DB0A45EAC121C912B6F120050DDD25
S1133A3063FA05F6EB4086EA0305124218BF45F027
S1133A400105C01851F100010CD213E062FA06F529
S1133A50F2405540F3415A40B340F3405A40801875
S1133A60594107D349085FEA30005FEA350528BFAA
S1133A7045F0010501F58011420875F1004250F14D
S1133A80000041EB045170BC4FF4001C1CEB410FCF
S1133A9038BF70470020090D090570471CEB410F22
S1133AA010D252EA43060BD0BCEB410F05D80C0DE3
S1133AB0AB43661E342EB5DD02E0AB43801859419A
S1133AC070BC704770BC70474FEAF17CBCF1E04CAD
S1133AD02CBFBCF5001F11E05FEA4C0C34BFBCF1F5
S1133AE07F5F2EE05FEA9C0C4FEA0C1C4FEA3C0C13
S1133AF0C10071F100414CEB50707047C90241EABA
S1133B005051C00218BF41F0010141F000414FEA99
S1133B106C50C0F10900212810D240EACC7CCCF1D1
S1133B20200C11FA0CF070F10040CCF1200C21FAB9
S1133B300CF00CF0004C40EB0C0070474FEACC70DA
S1133B407047490011F5001F04D84FEACC10FF302C
S1133B50C0057047C817704780B5012301220021B2
S1133B60DFF8BC0401F05CFA012301220121DFF833
S1133B70B00401F055FA012301220C21DFF8A4045A
S1133B8001F04EFA012301220D21DFF8980401F01F
S1133B9047FA012002F0E6F801BD10B50123012225
S1133BA00021DFF87C0401F03BFA00F0DFFF012381
S1133BB001220121DFF8680401F032FA00F0D6FF97
S1133BC0002301220021DFF8580401F029FA00F053
S1133BD0CDFF002301220121DFF8440401F020FA83
S1133BE0002416E000F0C2FF00F0C0FF0123012210
S1133BF00121DFF82C0401F013FA00F0B7FF00F004
S1133C00B5FF002301220121DFF8140401F008FAB2
S1133C10641CE4B27F2CE5D300F0A8FF00F0A6FFFB
S1133C20012301220121DFF8F80301F0F9F900F082
S1133C309DFF00F09BFF002301220121DFF8E00338
S1133C4001F0EEF910BD38B5040001230122002172
S1133C50DFF8CC0301F0E4F900F088FF012301222E
S1133C600121DFF8BC0301F0DBF900F07FFF002342
S1133C7001220021DFF8A80301F0D2F900F076FF59
S1133C80002502E000F072FF6D1CEDB2502DF9D357
S1133C9008220621012002F08CF82070641C002305
S1133CA001220121DFF8780301F0BAF900251DE0B3
S1133CB000F05CFF00F05AFF012301220121DFF82C
S1133CC0600301F0ADF900F051FF00F04FFF08224E
S1133CD00621012002F06DF82070641C00230122EB
S1133CE00121DFF83C0301F09BF96D1CEDB27F2D3F
S1133CF0DED300F03BFF00F039FF01230122012154
S1133D00DFF81C0301F08CF900F030FF00F02EFF07
S1133D10002301220121DFF8080301F081F931BDFC
S1133D2080B5DFF80413802000F04DF8DFF8FC12B2
S1133D300870DFF8F802007819214843802190FBCD
S1133D40F1F0DFF8EC120870DFF8E8020088DFF821
S1133D50E0120978401ADFF8E0120880DFF8D80290
S1133D60B0F90000DFF8D412B1F90010C84206DA45
S1133D70DFF8CC020078401EDFF8C4120870DFF8C8
S1133D80BC02B0F90000DFF8B012B1F900108842AB
S1133D9006DADFF8AC020078401CDFF8A4120870E1
S1133DA0DFF89C020078022803D2DFF89402012194
S1133DB00170DFF88C020078142803D3DFF8800246
S1133DC01421017001BD10B40023002204E00C781A
S1133DD053FA84F3491C521CD2B2C0B28242F6D3C5
S1133DE09BB2C0B293FBF0F0C0B210BC7047002885
S1133DF001D54042FFE77047F8B5040000250026CE
S1133E0000270020DFF820124978DFF838221180DB
S1133E10DFF814124978DFF830221180012113E011
S1133E20C9B2DFF80402085CDFF81C22B2F90020F2
S1133E3000B2904207DA0800C9B2DFF8EC218A5CCC
S1133E40DFF804321A80491CC9B27F2913D2DFF883
S1133E50F401B0F90000C9B2DFF8CC218A5C12B2D7
S1133E609042DDDA0F00C9B2DFF8BC01085CDFF86C
S1133E70D4211080E7E7DFF8CC01B0F90000FFB2ED
S1133E80DFF8A411791811F8021C401A0B2832DB50
S1133E90DFF8B001B0F90000FFB2DFF88C11791837
S1133EA08978401A0B2826DBFFB2DFF87C0138182A
S1133EB010F8020CFFB2DFF8701179188978401AF3
S1133EC0FFF795FF0A2816DAFFB2DFF85C0138180D
S1133ED010F8020CFFB2DFF850117918897808182D
S1133EE0FFB2DFF844117854FFB2DFF83C01385CCC
S1133EF0DFF850110880DFF84C01B0F90000DFF85A
S1133F004811B1F900100818022190FBF1F0DFF814
S1133F103C11088000210BE0DFF834010088C9B2AD
S1133F20414A8A5C8018DFF828211080761C491CDD
S1133F30C9B27F2912D2C9B23B48085C434AB2F9DC
S1133F40002000B29042E7DB42480088C9B2364AFA
S1133F508A5C80183F4A10806D1CE8E73D48B0F940
S1133F600000EDB290FBF5F03A4908803848B0F90A
S1133F700000F6B290FBF6F0354908803548B0F9F8
S1133F8000003349B1F900100818022190FBF1F048
S1133F902E490880002103E000202070641C491C85
S1133FA0C9B2802909D22078284AB2F9002000B287
S1133FB09042F1DB01202070F0E703202CE0C0B236
S1133FC01949415C002910D1C0B21749411811F8B0
S1133FD0011C012909D1C0B21349411849780129AA
S1133FE003D1C0B2104901224254C0B20E49415C0F
S1133FF0012910D1C0B20C49411811F8011C002943
S113400009D1C0B2084941184978002903D1C0B286
S1134010054900224254401CC0B27D28CFD3F1BDD3
S113402000F10F4000F00F409406FF1FCC07FF1F64
S1134030CD07FF1F1A04FF1F8407FF1F1C04FF1F67
S11340401E04FF1F3E07FF1F4007FF1F4207FF1FFD
S11340508807FF1F8607FF1F10B4002100231900E3
S1134060DFF8783A1B78002B03D1DFF8741A0023A9
S11340700B70DFF8701A0978002903D1DFF8681A89
S113408000230B707E2101E00022491E09B204299D
S113409022DB09B2DFF8542A8A5C012AF4D109B27E
S11340A0DFF8482A8A1812F8012C002AECD109B248
S11340B0DFF8382A8A1812F8022C002AE4D109B24F
S11340C0DFF8282A8A1812F8032C002ADCD18A1E69
S11340D0DFF81C3A1A800122012301E000205B1C56
S11340E01BB27B2B1FDA1BB2DFF8000A185C012815
S11340F0F4D11BB2DFF8F409181840780028EDD188
S11341001BB2DFF8E809181880780028E6D11BB242
S1134110DFF8D8091818C0780028DFD1981CDFF818
S1134120D4492080012012B2012A78D100B201289A
S113413075D1DFF8C40900220270DFF8C009B0F9B4
S11341400000DFF8BC29B2F90020801A2E283FDBDA
S1134150DFF8A009B0F90000DFF89429B2F90020D3
S1134160904280F2A081DFF89C09B0F90000DFF8EA
S11341708429B2F90020801A1F280EDB881EDFF87C
S113418070190880DFF868090088DFF87C1909884D
S11341900818DFF86019088085E1DFF85409B0F9E0
S11341A00000DFF86819B1F90010401A1F28C0F2A6
S11341B07A81981CDFF83C190880DFF838090088F8
S11341C0DFF844190988401ADFF8241908806AE1E5
S11341D0DFF82809B0F90000DFF82419B1F900105C
S11341E0401A2E2880F25F81DFF82409007808281D
S11341F008D2DFF8FC0814210180DFF8F8087F21D9
S1134200018050E1DFF8E808DFF80019098801802F
S1134210DFF8E008DFF8EC180988018043E112B206
S1134220012A40F0898000B2002840F08580DFF840
S1134230CC08B0F90000DFF8C818B1F90010401A32
S11342402E2860DBDFF8BC08B0F90000DFF8A01806
S1134250B1F9001088420CDADFF89408DFF8AC18E2
S113426009880180DFF88C08DFF898180988018034
S113427019E1DFF89008B0F90000DFF87418B1F91B
S113428000108842C0F20F81DFF86408B0F9000022
S1134290DFF87418B1F90010D1F17501884226DAFB
S11342A0DFF8440801210170DFF86808DFF86818B6
S11342B009880180DFF86008DFF860180988018048
S11342C0DFF85808DFF8581809880180DFF850082B
S11342D0DFF81C1809880180DFF814080088DFF86B
S11342E0281809880818DFF80C180880DBE0DFF8C4
S11342F000080088DFF8101809880818001DDFF886
S1134300F4170880CFE0DFF8F407B0F90000DFF815
S1134310F017B1F90010401A2E2880F2C480DFF89B
S1134320D007DFF8E81709880180DFF8C807DFF84D
S1134330D41709880180B6E012B2002A7AD100B2FB
S1134340012877D1DFF8B407B0F90000DFF8B0171F
S1134350B1F90010401A2E2854DBDFF89807B0F9A1
S11343600000DFF8A817B1F9001088420CDADFF872
S11343708007DFF8981709880180DFF87807DFF8ED
S11343808417098801808EE0DFF87C07B0F900000B
S11343900A30DFF86017B1F90010884226DADFF836
S11343A0400701210170DFF87C07DFF87C170988DA
S11343B00180DFF87407DFF8741709880180DFF8DB
S11343C06C07DFF86C1709880180DFF86407DFF8F1
S11343D0241709880180DFF81C070088DFF82817F4
S11343E00988401ADFF8081708805CE0DFF8040742
S11343F00088DFF814170988401A001FDFF8F01648
S1134400088050E0DFF8F406B0F90000DFF8F01699
S1134410B1F90010401A2E2845DADFF8D406DFF887
S1134420EC1609880180DFF8CC06DFF8D816098875
S1134430018038E0104300B2002834D1DFF8B80618
S11344400078002807D1DFF8EC0600210180DFF8AE
S1134450A80601210170DFF8DC060088401CDFF8A3
S1134460D4160880DFF8A406B0F90000402805DA65
S1134470DFF89006B0F9000040280CDADFF8700687
S1134480DFF8881609880180DFF86806DFF87416FB
S11344900988018007E0DFF8580600210180DFF871
S11344A054067F210180DFF87806B0F90000DFF8B8
S11344B06C16B1F900100818DFF85C16B1F9001099
S11344C04018032190FBF1F0DFF86C160880DFF848
S11344D05006B0F90000DFF86016B1F90010401A78
S11344E0DFF83C16B1F90010DFF84C26B2F90020D1
S11344F0891ADFF82826B2F90020DFF83C36B3F930
S11345000030D21ADFF81436B3F90030DFF8284649
S1134510B4F900401B1B5A4301FB0020DFF8F815D7
S1134520B1F90010DFF81026B2F90020891ADFF87B
S1134530E825B2F90020DFF80036B3F90030D21ACA
S113454002FB0100032190FBF1F0DFF8F015088075
S1134550DFF8DC05B0F90000DFF8D015B1F9001080
S11345600818DFF8C415B1F900104018032190FBB6
S1134570F1F0DFF8CC150880DFF8B405B0F90000DD
S1134580DFF8BC15B1F90010401ADFF8A415B1F931
S11345900010DFF8AC25B2F90020891ADFF88C2569
S11345A0B2F90020DFF89835B3F90030D21ADFF8F9
S11345B07C35B3F90030DFF88845B4F900401B1BA3
S11345C05A4301FB0020DFF86015B1F90010DFF851
S11345D07025B2F90020891ADFF84C25B2F90020C1
S11345E0DFF85C35B3F90030D21A02FB0100032175
S11345F090FBF1F0DFF84C150880DFF8EC0400784C
S1134600012856D1DFF840050088401CDFF8381532
S11346100880DFF83405B0F90000032849DBDFF82F
S11346202805B0F90000C01E80B239282DD2DFF869
S11346301C05B0F9000050280FDADFF80C05B0F9BA
S11346400000032809D1DFF80805B0F900000B28A1
S113465003DBDFF8000501210170DFF8F8040078BE
S1134660012826D1DFF87C0401210170DFF8D80489
S1134670B0F9000014281CDADFF874047F210180EB
S1134680DFF870047F21018013E0DFF8BC0400210F
S11346900180DFF8540400210170DFF8B804002120
S11346A00170DFF8400400210170DFF8AC04002140
S11346B00180DFF834040078DFF82814097808430F
S11346C0C0B2002803D1DFF8800400210180DFF8A4
S11346D010040078012854D1DFF880040088401CBD
S11346E0DFF878140880DFF87404B0F900000328B8
S11346F047DBDFF86804B0F90000C01E80B2392837
S11347002DD2DFF84804B0F9000050280FDADFF8A2
S11347104C04B0F90000032809D1DFF83404B0F9DF
S113472000000B2803DBDFF8380401210170DFF8F7
S113473030040078012824D1DFF8A003012101709E
S1134740DFF81804B0F9000014281ADADFF8A0031F
S113475000210180DFF89C030021018011E0DFF8D3
S1134760FC0300210180DE4800210170DFF8F00322
S113477000210170D94800210170DFF8DC03002119
S11347800180D7480078D54909780843C0B2002889
S113479003D1DFF8C80300210180D548B0F9000037
S11347A0D449B1F900100818022190FBF1F0DFF8A8
S11347B0B4130880DFF8AC030088DFF8AC13098871
S11347C0401ADFF8A4140880D048C9490988018038
S11347D0CC48C84909880180DFF89004CB4909888E
S11347E00180DFF88C04C74909880180DFF8F404EC
S11347F0DFF8F41409880180DFF8EC04DFF8EC1426
S113480009880180DFF8E404DFF8E41409880180F2
S1134810DFF8DC04DFF8DC1409880180DFF8D40455
S1134820DFF8D41409880180DFF8CC04DFF8CC1455
S113483009880180DFF8C404DFF8C4140988018002
S1134840DFF8BC04DFF8BC1409880180DFF8B40485
S1134850DFF8B41409880180DFF8AC04DFF8081429
S113486009880180DFF8A0040088DFF8981409881B
S1134870401ADFF898140880DFF888040088DFF80D
S113488080140988401ADFF888140880DFF870045F
S11348900088DFF868140988401ADFF87814088063
S11348A0DFF858040088DFF850140988401ADFF84C
S11348B068140880DFF840040088DFF83814098899
S11348C0401ADFF858140880DFF828040088DFF85D
S11348D020140988401ADFF8E4140880DFF8100473
S11348E00088DFF808140988401ADFF8D414088017
S11348F0DFF8F8030088DFF8F0130988401ADFF8BE
S1134900C4140880DFF8E0030088DFF8D8130988AE
S1134910401ADFF8C414088010BC704730B4032078
S113492006210022DFF8A03400241C80DFF81C32AA
S113493000241C80DFF8A43400241C800B1A5B1CA8
S11349401A00DFF88834DFF8204324881C806423AD
S11349500CE0DBB2DFF8744414EB430434F8024C8B
S1134960DBB2DFF8685425F813405B1EDBB2012B81
S1134970EFD200230CE0DFF858442488DBB2DFF8E0
S11349804C5435F813502C19DFF844542C805B1C1C
S1134990DBB2032BEFD3DFF83834B3F90030032450
S11349A093FBF4F3DFF828442380002310E0DBB208
S11349B0DFF8184434F81340DBB2DFF8105435F84C
S11349C013506C43DBB2DFF80C5425F813405B1C26
S11349D0DBB2032BEBD300230CE0DFF8EC43248899
S11349E0DBB2DFF8F05335F813502C19DFF8D85345
S11349F02C805B1CDBB2032BEFD3DFF8CC33B3F991
S1134A000030032493FBF4F3DFF840412380DFF804
S1134A10C03300241C80002306E0DBB2DFF8B4437B
S1134A20002524F813505B1CDBB2052BF5D3DFF80B
S1134A30983300241C8003000CE0DFF8944324889E
S1134A40DBB2DFF8885335F813502C19DFF88053A4
S1134A502C805B1CDBB2C9B28B42EED3DFF870331F
S1134A60B3F90030C9B293FBF1F3DFF86443238058
S1134A70030010E0DBB2DFF8544334F81340DBB238
S1134A80DFF8485335F813506C43DBB2DFF8445376
S1134A9025F813405B1CDBB2C9B28B42EAD3030096
S1134AA00CE0DFF824030088DBB2DFF8284334F895
S1134AB013402018DFF8104320805B1CDBB2C9B21E
S1134AC08B42EED3DFF80003B0F90000D2B290FBC2
S1134AD0F2F0DFF80813088030BC7047D107FF1FDD
S1134AE0D007FF1FD207FF1FCF07FF1F9406FF1F2A
S1134AF03C07FF1F1404FF1FCE07FF1F8607FF1F7D
S1134B008807FF1F4607FF1F4C07FF1F4407FF1FAF
S1134B101E04FF1FAA07FF1FA807FF1FA607FF1FEA
S1134B20A407FF1FA207FF1FA007FF1F9E07FF1F69
S1134B309C07FF1F8C07FF1FAE07FF1FB007FF1F57
S1134B40AC07FF1FB207FF1F8E07FF1F9807FF1F49
S1134B509207FF1FD407FF1F8A07FF1F9007FF1F3D
S1134B60D307FF1F4E07FF1F5407FF1F81B000200C
S1134B708DF8000006E000BF00BF9DF80000401C57
S1134B808DF800009DF800000128F4D301B07047AF
S1134B9010B5DFF8F803DFF8141409680160DFF8D2
S1134BA0F003314909880180DFF8E4030088DFF865
S1134BB0E4130988401ADFF8E0130880DFF8D00313
S1134BC0B0F9000000F04AFFDFF8D0130968FEF7DF
S1134BD041FEDFF8CC1300F0CDFF0400DFF8B8038A
S1134BE0B0F9000000F03AFFDFF8B8130968FEF7E7
S1134BF031FE210000F0BEFFFEF798FEDFF8A81397
S1134C000880DFF89003DFF8881309880180DFF853
S1134C109803B0F9000041F66B01884204DBDFF829
S1134C20880341F66A010180DFF87C03B0F90000D3
S1134C3040F61651884204DADFF86C0340F6165148
S1134C400180DFF86403B0F900200221002000F0A5
S1134C5063FDDFF85403B0F9000000F0FFFEDFF855
S1134C604C13086010BD00005807FF1F4807FF1FC2
S1134C704A07FF1F10B5DFF834030068DFF80C1390
S1134C80096800F003FF0400DFF82403B0F9000012
S1134C90401C00F0E3FE2100FEF7DCFDDFF81413F6
S1134CA001F04EF9DFF8E412096800F063FFFEF743
S1134CB03DFEDFF8F412088010BDDFF81003006831
S1134CC0DFF8F4120880DFF8F4020088DFF8E81255
S1134CD009880818DFF8E4120880DFF8F0020021E0
S1134CE0016070476C07FF1F6A07FF1F6807FF1FFB
S1134CF06607FF1F6407FF1F6207FF1F6007FF1F90
S1134D005E07FF1F5C07FF1F5A07FF1F6E07FF1F89
S1134D107007FF1F7207FF1F7407FF1F7607FF1F2F
S1134D2080B5DFF8AC02DFF89412B1F9001001602D
S1134D30DFF888020021018000F052F8DFF89402C5
S1134D40B0F90000FEF73CF8DFF8840200680521A2
S1134D5048430D2190FBF1F03030FEF73FF8DFF8C7
S1134D60741209884018DFF858120880DFF85002DE
S1134D70B0F9000001280EDB002301220921DFF82D
S1134D80440200F04DF9DFF85002DFF83412B1F9B3
S1134D900010016010E0012301220921DFF8240240
S1134DA000F03EF9DFF81802B0F9000040F2E241E9
S1134DB00818DFF82412086001BD00007807FF1FFF
S1134DC07A07FF1F7C07FF1F9607FF1F0005FF1FC1
S1134DD09407FF1FC805FF1F7E07FF1F9A07FF1FC9
S1134DE0DFF8FC01B0F90000DFF8DC11B1F90010C4
S1134DF0884241DADFF8040201210170DFF8F00192
S1134E00B0F900000B2830DBDFF8D801B0F900005E
S1134E10DFF8E011097809B288421FDADFF8C4012B
S1134E200088401CDFF8BC110880DFF8BC01B0F931
S1134E3000004042DFF8981109684FF4C87291FBF2
S1134E40F2F14843DFF8A811B1F900100A2291FBEE
S1134E50F2F14843DFF87C11088046E0DFF8740182
S1134E60DFF89C11098801803FE0DFF86801DFF872
S1134E7090110988018038E0DFF84C01B0F9000096
S1134E80DFF85811B1F90010884224DADFF86C0118
S1134E900078012807D1DFF8640100210170DFF8F0
S1134EA0500100210180DFF83C0100210180DFF87E
S1134EB040010088401CDFF838110880DFF8300119
S1134EC0B0F90000032810DBDFF80801DFF828112F
S1134ED00988018009E0DFF8240101210170DFF86D
S1134EE0F400DFF8081109880180DFF81801007860
S1134EF0012804D0DFF810010078012827D1DFF859
S1134F000C010088401CDFF804110880DFF8FC0065
S1134F10B0F90000062805DADFF8B800DFF8F01071
S1134F20018014E0DFF8E400B0F90000801F80B2D3
S1134F300E2807D2DFF89C0000883230DFF8941086
S1134F40088004E0DFF88C004FF4C8710180DFF8BA
S1134F50C400B0F90000DFF878100968884209DA63
S1134F60DFF870000088DFF8B0100988401ADFF815
S1134F7064100880DFF85800006810F14F0F03DA5E
S1134F80DFF898000121017070470000F804FF1F4A
S1134F905207FF1F5607FF1F8007FF1F2404FF1F30
S1134FA0000096452C04FF1F1804FF1FFC04FF1F7C
S1134FB03A07FF1F0000A0413807FF1F8207FF1FA9
S1134FC0B407FF1F40F00F409807FF1F04800B40F9
S1134FD09006FF1F6004FF1F109003402204FF1F70
S1134FE02004FF1FC407FF1F6804FF1F6604FF1F80
S1134FF09207FF1F1F04FF1F6204FF1FD607FF1F36
S11350006404FF1FD107FF1FD207FF1F8A07FF1F7A
S113501070FEFFFF6C04FF1F6A04FF1FD507FF1F0C
S113502070B405001D4EAD1B08D0403D08D0403D76
S113503008D0403D08D0403D08D009E0184C07E0B6
S1135040184C05E0184C03E0184C01E0184CFFE73D
S11350504FF4807544F82150012A15D14269012486
S11350608C4022434261012B06D10268012313FACA
S113507001F1114301600EE00268012313FA01F10A
S113508032EA0101016006E04269012313FA01F1E9
S113509032EA0101416170BC7047000000F00F402A
S11350A00090044000A0044000B0044000C004404C
S11350B000D00440006901228A401040C840C0B2B8
S11350C07047704730B4DFF8B83198420AD1DFF83E
S11350D0B4314FF440741C60DFF8AC314FF44074C9
S11350E01C6049E0DFF8A43198420AD1DFF8A0310E
S11350F04FF440741C60DFF89C314FF440741C6022
S11351003AE0DFF8943198420AD1DFF890314FF455
S113511040741C60DFF888314FF440741C602BE04D
S1135120DFF8803198420AD1DFF87C314FF44074C3
S11351301C60DFF878314FF440741C601CE0DFF829
S1135140703198420AD1DFF86C314FF440741C601E
S1135150DFF864314FF440741C600DE0DFF85C311B
S1135160984209D1DFF858314FF440741C60DFF8DD
S113517054314FF440741C60DFF80431984208D174
S1135180DFF844311B6853F48063DFF83C4123604B
S11351903BE0DFF8F830984208D1DFF82C311B6887
S11351A053F40063DFF8204123602EE0DFF8E83099
S11351B0984208D1DFF810311B6853F48053DFF8AC
S11351C00841236021E0DFF8DC30984208D1DFF8A1
S11351D0F8301B6853F40053DFF8EC40236014E00C
S11351E0DFF8CC30984208D1DFF8E0301B6853F484
S11351F08063DFF8D840236007E0DFF8D0301B6815
S113520053F40063DFF8C4402360C37813F0F3035E
S1135210C370002383701A4B984208D000231B4CA0
S1135220A04204D053F00003DBB2002B00D0491895
S11352304FF47A7303FB01F31401B3FBF4F3047822
S113524014F0E0049BB21D0A15F01F052C430470F2
S113525043704FF4FA4461431201B1FBF2F19BB283
S1135260B1EB4311827A12F0E00411F01F012143E3
S11352708172C17851F00C01C17030BC70470000DC
S113528000A0064018C004401CC0044000B0064002
S113529010B004400CB0044000C006400CC00440F0
S11352A008C0044000D0064044B0044040B004406C
S11352B000A00E4060D0044064D0044000B00E4012
S11352C020D0044024D0044034800440288004408A
S11352D030B40023DFF8202612684FF47A74624356
S11352E08A4201D200209EE0802303FB01F3B2FB3B
S11352F0F3F44FF6FF739C4280F017810723C0B28A
S1135300002840F09280DFF8F4552C60402404FB20
S113531001F4B2FBF4F44FF6FF75AC4260D20623FD
S1135320C0B2002840F09180DFF8D0552C604C01C9
S1135330B2FBF4F44FF6FF75AC4251D20523C0B270
S1135340002840F09280DFF8B4552C600C01B2FBC9
S1135350F4F44FF6FF75AC4242D20423C0B20028E5
S113536040F09380DFF894552C60CC00B2FBF4F449
S11353704FF6FF75AC4233D20323C0B2002840F08D
S11353809480DFF878552C608C00B2FBF4F44FF66F
S1135390FF75AC4224D20223C0B2002840F09580AD
S11353A0DFF858552C604C00B2FBF4F44FF6FF754F
S11353B0AC4215D20123C0B2002840F09680DFF839
S11353C03C552C60B2FBF1F44FF6FF718C4207D2CE
S11353D00023C0B2002840F09880DFF820150C604C
S11353E0C0B2002840F0A380DFF81405006850F034
S11353F08070DFF80C150860DBB213F0070050F082
S11354000800DFF800150860DFF8FC0400210160E3
S1135410DFF8F80400210160DFF8F404DFF8DC149D
S113542009680160012030BC7047C0B2012803D173
S1135430DFF8E0542C6069E7C0B2022803D1DFF83A
S1135440D8542C6062E70020EDE7C0B2012803D1F4
S1135450DFF8C0542C606AE7C0B2022803D1DFF839
S1135460B8542C6063E70020DDE7C0B2012803D103
S1135470DFF8A0542C6069E7C0B2022803D1DFF83A
S113548098542C6062E70020CDE7C0B2012803D114
S1135490DFF880542C6068E7C0B2022803D1DFF83B
S11354A078542C6061E70020BDE7C0B2012803D125
S11354B0DFF860542C6067E7C0B2022803D1DFF83C
S11354C058542C6060E70020ADE7C0B2012803D136
S11354D0DFF840542C6066E7C0B2022803D1DFF83D
S11354E038542C605FE700209DE7C0B2012803D147
S11354F0DFF820542C6065E7C0B2022803D1DFF83E
S113550018542C605EE700208DE7C0B2012803D157
S1135510DFF800140C6063E7C0B2022803D1DFF89F
S1135520F8130C605CE700207DE700207BE7C0B245
S113553001281ED1DFF8C803006850F00070DFF8BE
S1135540C0130860DBB213F0070050F00800DFF866
S1135550CC130860DFF8C80300210160DFF8C4033E
S113556000210160DFF8C003DFF8A81309680160B7
S113557058E7C0B202281ED1DFF8B003006850F02B
S11355808070DFF8A8130860DBB213F0070050F056
S11355900800DFF89C130860DFF89803002101601D
S11355A0DFF8940300210160DFF89003DFF868134B
S11355B00968016036E7002035E718B442F2117338
S11355C09A4201D3002066E0C0B2002865D1DFF81A
S11355D02C331B680093009B5B1C5A4342F21073EC
S11355E0B2FBF3F2C0B2002828D1C9B20B00002BE1
S11355F0022B05D9DB1E6CD05B1E032B79D985E009
S1135600DFF83C331B684FF400742343DFF8304366
S11356102360C9B28B0003F1804313F592234FF446
S11356204074DC60C9B2DFF81C33282443F83140ED
S1135630C9B2DFF8103313EBC1035A60C0B20128BA
S113564018D1C9B2002963D1BD4B1B6853F48063E0
S1135650BB4C2360C9B2BC4B4FF4407443F82140A7
S1135660C9B2BA4B282443F83140C9B2B74B13EB43
S1135670C1035A60C0B202280CD1C9B2002949D171
S1135680C9B2B348282340F83130C9B2B04810EB4E
S1135690C1004260012012BC7047C0B2012809D188
S11356A0009B9C4C2468A34201D1012300E0002309
S11356B0DBB290E7C0B2022809D1009B964C246863
S11356C0A34201D1012300E00023DBB283E70020E1
S11356D0E1E79B4B1B6853F40063994C2360C9B208
S11356E08B0003F1804313F596234FF480645C60D0
S11356F098E7934B1B6853F48053914C2360C9B2D1
S1135700944B4FF4806443F821408BE70020C2E7B8
S11357100020C0E70020BEE718B442F211739A4299
S113572001D3002019E0C0B2002818D1734B1B68C4
S11357300093009B5B1C5A4342F21073B2FBF3F2DA
S1135740C0B200282FD1C9B2002903D0022925D024
S113575021D326E080480260012012BC7047C0B209
S1135760012809D1009B6B4C2468A34201D1012379
S113577000E00023DBB2DCE7C0B2022809D1009BC1
S1135780654C2468A34201D1012300E00023DBB26D
S1135790CFE70020E1E771480260DDE7704802606E
S11357A0DAE70020D9E7C0B2012805D1C9B26748B9
S11357B010EBC1004260CFE7C0B2022805D1C9B2E4
S11357C0634810EBC1004260C6E70020C5E780B51E
S11357D00023012209216348FFF722FC584800688E
S11357E050F400605649086057484FF45071016006
S11357F04348006850F0007041490860534800680D
S113580050F00800514908605048006830F0040026
S11358104E4908604D48006850F020004B4908602C
S11358203E48292101605048006850F004004E4968
S113583008604D480068400840004B4908604B48E8
S1135840FE2101604A48002101604A4800210160AC
S11358504948002101604948002101604848006826
S11358604008400046490860464800210160464817
S1135870002101604548002101602A48002101609F
S1135880294840F2E2410160414800210160244876
S11358900021016001BD2548006850F08070234953
S11358A008603C484FF4C06101603B484FF4C0615C
S11358B001603A48006850F00400384908603848EC
S11358C0006850F00800364908601B480021016058
S11358D01A484FF6FF7101603148006850F001002A
S11358E02F4908602D48006850F001002B490860DA
S11358F010480021016070473407FF1F2007FF1F75
S11359003C80044000800340048003404C800340FA
S1135910088003402407FF1F2807FF1F009003404F
S1135920049003404C9003400890034030800440AE
S113593000800B4004800B404C800B4008800B40DF
S1135940388004400C80034000A004400C900340C5
S11359500C800B4000C004401080034018800340BA
S11359602080034040F00F40549003406090034077
S1135970649003405C9003406C900340709003403B
S1135980809003409090034094900340989003408B
S11359901090034048A004404CA0044054800B40A5
S11359A080800B402A4A126852F40002284B1A6085
S11359B0284A126832F00202264B1A60254A1268FD
S11359C052F00102234B1A60C0B20201224BD150A3
S11359D0C0B2214911EB0011896851F00101C0B234
S11359E01D4A12EB00129160C0B21B4911EB001169
S11359F0896831F00201C0B2174A12EB00108160CD
S1135A00704780B5C0B2144911EB0011896851F098
S1135A100201C0B2104A12EB00129160C0B2002819
S1135A2005D002280BD006D303280CD00EE0442066
S1135A3000F007FB0AE0452000F003FB06E04620E7
S1135A4000F0FFFA02E0472000F0FBFA01BD00007D
S1135A503C8004400070034000710340002840F182
S1135A600780F446404200F003F850F000406047DD
S1135A700AD0B0FA80F18840D1F19D01C90502062F
S1135A8072F1004241EB10207047000090EA010FD0
S1135A9044BF81F0004100F075B800BF431A4FF0D5
S1135AA000423EBF5340C01AC91800BFD3095FEA81
S1135AB0D05C13EB400F34BFB3EB410F40E07CEB01
S1135AC0D1530CD342EA012122D8D1EB402009D38F
S1135AD0400A28BF5FEA500140EBCC507047401A9F
S1135AE015D04002B0FA80F2521C9040400A4FEAAE
S1135AF03C23B3EB026384BF00EB730007E040F484
S1135B0000001A16DB07C2F10102D04018437047A7
S1135B10182BFCDC31FA03F202FA03F3591A38BFEA
S1135B2042F00102D2EB40203CBF4000ACF1010C3A
S1135B305FEACC5CC20572F100414CEB5020704727
S1135B4013EB400F0FD24B0009D0ACEBD153022B17
S1135B5003DB4902172BDDDD70479143401A4300F4
S1135B60D5D10020704713EB410FD0D36FF0000064
S1135B707047000090EA010F44BF81F00041FFF735
S1135B808DBF00BF421A3CBF801A89184FF0004CE9
S1135B90C0F3C752FF2A24D0C1F3C75313B3D21A98
S1135BA0D2F1190327DD4CEA01214CFA03F321EA6F
S1135BB00303D140C20D4CEA0020401834BF20EA50
S1135BC00C004CEA5000D20553EA006373EB0C0C52
S1135BD052EB1020420012F1807F38BF7047C00D95
S1135BE0C0057047490212BF9A4200EB5120F8E702
S1135BF0D2F11703D9D57047841A71EB030604D286
S1135C006E40001BB141121973414FF4001C1CEB90
S1135C10410F34BF7CEB430684E00C0DA4EB135618
S1135C20362E7DDC012E43DC45EAC32343EA52537E
S1135C3012BFD20292025B08240545EAC12141EA5F
S1135C405051D2EBC020994125D407D1B0FA80F647
S1135C5010FA06F164D00020203608E0B1FA81F68B
S1135C60B140C6F1200220FA02F21143B0404FEADB
S1135C70F474B4EB465434F001064FEA74040AD8C1
S1135C80D6F50016760D04F00044F04061FA06F2F1
S1135C905040F1404840C00A40EA415021F00041E0
S1135CA028BF5FEA500550F1000044EBD12137E0F2
S1135CB045EAC323DB0A45EAC121C90AB6F1200536
S1135CC00EDD42EA0242120CC5F1200603FA06F682
S1135CD0EB4042EA06056D42984161F100010DE096
S1135CE062FA06F5F240554063FA06FC82EA0C02B9
S1135CF0F3405A406D42904161EB030111F4801F5F
S1135D0005D1641E620502D06D004041494121F471
S1135D108011430875F1004350F1000041EB045138
S1135D2070BC70471CEB410F15D223F0004352EABC
S1135D3043060BD04FEA4C0CBCEB410F04D80C0DBE
S1135D40661E342EB7DDEBE7801A994150EA41060E
S1135D5008BF0021E4E708BF1CEB430F28BF6FF026
S1135D600001DDE7002810D16D48006850F00060A4
S1135D706B4908606B48006830F09000694908601E
S1135D806848002101600120704701280FD166484E
S1135D90006850F00060644908606248006830F4AC
S1135DA01040604908605F4800210160EBE7002073
S1135DB0EAE738B505000024D2B2280000F01EF846
S1135DC0002D0CD1594800680006FBD558480468DA
S1135DD05648006830F08000544908600BE055488C
S1135DE000680006FBD5544804685248006830F047
S1135DF0800050490860200080B232BD10B50C000C
S1135E000021D2B2082A06D00A2A08D00C2A04D0CB
S1135E10102A06D007E0002106E0012104E0022157
S1135E2002E0032100E00021890011F00C0151F08F
S1135E305001424A1170414904224A703F4941F2DB
S1135E4034224A803D4945F278628A8000282AD16A
S1135E50042C0BDA14F01F0050F04000374908728C
S1135E603649324800F048F8012010BD201F14289C
S1135E700AD214F01F0050F04000304908722F4934
S1135E802A4800F039F8EFE71A2C0AD114F01F0061
S1135E9050F04000294908722849244800F02CF8A1
S1135EA0E2E70020E1E7042C09DA14F01F0050F0C7
S1135EB040002249087221491C4800F01DF8201FA7
S1135EC014280AD214F01F0050F040001B49087235
S1135ED01A49184800F010F8C6E71A2C0AD114F031
S1135EE01F0050F04000154908721449114800F091
S1135EF003F8B9E70020B8E70A7882604A78C260FC
S1135F004A8882618A88C2618A790262CA79426255
S1135F10CA6802650A7A0260497A416070470000E3
S1135F203C800440188004403080044000B00340AA
S1135F3010B0034000B00B4010B00B40E804FF1F4A
