S01D000050452056312E3420323031342E30372E313620706D2E737265635B
S1130000F8FF0020110400006B6700006B6700001C
S11300106B6700006B6700006B6700006B67000094
S11300206B6700006B6700006B6700006B67000084
S11300306B6700006B6700006B6700006B67000074
S11300406B6700006B6700006B6700006B67000064
S11300506B6700006B6700006B6700006B67000054
S11300606B6700006B6700006B6700006B67000044
S11300706B6700006B6700006B6700006B67000034
S11300806B6700006B6700006B6700006B67000024
S11300906B6700006B6700006B6700006B67000014
S11300A06B6700006B6700006B6700006B67000004
S11300B06B6700006B6700006B6700006B670000F4
S11300C06B6700006B6700006B6700006B670000E4
S11300D06B6700006B6700006B6700006B670000D4
S11300E06B6700006B6700006B6700006B670000C4
S11300F06B6700006B6700006B6700006B670000B4
S11301006B6700006B6700006B6700006B670000A3
S11301106B6700006B6700006B6700006B67000093
S11301206B6700006B6700006B6700006B67000083
S11301306B6700006B6700006B6700006B67000073
S11301406B6700006B6700006B6700006B67000063
S1130150858200006B6700006B6700006B6700001E
S11301606B6700006B6700006B6700006B67000043
S11301706B6700006B6700006B6700006B67000033
S11301806B6700006B6700006B6700006B67000023
S11301906B6700006B6700006B6700006B67000013
S1130400FFFFFFFFFFFFFFFFFFFFFFFFFEFFFFFFF9
S11304104FF000004FF000014FF000024FF00003D6
S11304204FF000044FF000054FF000064FF00007B6
S11304304FF000084FF000094FF0000A4FF0000B96
S11304404FF0000C62B607F0F7FFFEE738B5002264
S113045000240025DFF81418002003E000220A70AD
S1130460491C401CC0B28A28F8D302F0CDFCDFF846
S1130470400EB0F9000002F091FDDFF8F4270021EE
S1130480002003F026F8DFF8EC2700213C2003F0DD
S113049020F8DFF8E4270221002003F01AF8DFF83F
S11304A0DC2702213C2003F014F8DFF8D4270421D0
S11304B0002003F00EF8DFF8CC2704213C2003F0E1
S11304C008F803F0C9F803F007F9DFF8BC1708705F
S11304D06E2003F089FADFF8B0070078012840F0B5
S11304E0A080DFF8A407FF210170DFF8A007012135
S11304F0017002F058FE8CE0AFA20021002002F04F
S1130500E8FFDFF88C070068DFF8401E03F090FA7C
S113051003F0FAFA80B2020000213C2003F02DF827
S1130520A6A20221002002F0D4FFDFF8242E02212B
S11305303C2002F0CEFFA2A20421002002F0C9FF59
S1130540DFF82C2E04213C2002F0C3FF9DA20621DB
S1130550002002F0BEFFDFF81C2E06213C2002F032
S1130560B8FF6E2003F040FA03F076F803F0B4F815
S1130570DFF8041E0870DFF8000E0078FF2805D0AD
S1130580DFF80407DFF8F01D09780170DFF8F806DA
S11305900078072813D1DFF8F806006803F0D6FACC
S11305A0DFF8242EDFF8243E03F008FB03F07AFB87
S11305B0DFF8DC160860DFF8D006FF210170DFF8F1
S11305C0C8060078082813D1DFF8C406006803F0D1
S11305D0BDFADFF8F42DDFF81C3E03F0EFFA03F068
S11305E061FBDFF8AC160860DFF89C06FF210170A0
S11305F0DFF89406007809280BD1DFF89006FF2174
S11306000170DFF88406FF210170DFF86C0DFF2113
S11306100170DFF87806007801283FF46DAF02F02E
S1130620C2FDDFF864060078022840F09C80DFF801
S11306305806FF210170DFF854060221017002F010
S1130640B2FD88E06E2003F0CFF903F005F803F063
S113065043F8DFF8241D0870DFF81C0D0078FF282C
S113066005D0DFF82406DFF8101D09780170D7A241
S11306700021002002F02DFFDFF818060068DFF8E3
S1130680CC1C03F0D5F903F03FFA80B2020000213C
S11306903C2002F072FF49A20221002002F019FF5F
S11306A0DFF8F42D02213C2002F013FF44A20421C0
S11306B0002002F00EFFDFF8E42D04213C2002F0BC
S11306C008FF40A20621002002F003FFDFF8082EF5
S11306D006213C2002F0FDFEDFF8AC050078072877
S11306E013D1DFF8B005006803F030FADFF8D82C36
S11306F0DFF8D83C03F062FA03F0D4FADFF894157B
S11307000860DFF88405FF210170DFF87C050078BC
S1130710082813D1DFF87C05006803F017FADFF826
S1130720A82CDFF8D03C03F049FA03F0BBFADFF859
S113073064150860DFF85005FF210170DFF84805F3
S11307400078092807D1DFF84405FF210170DFF89C
S11307503805FF210170DFF83405007802283FF4E2
S113076071AF02F020FDDFF820050078032840F087
S1130770A680DFF81405FF210170DFF810050321BE
S1130780017002F010FD92E06E2003F02DF902F0EA
S113079063FF02F0A1FFDFF8E01B0870DFF8D80B5D
S11307A00078FF2805D0DFF8E004DFF8CC1B0978D7
S11307B00170D4A208E000BF53703A002B3A000045
S11307C02D3A000052653A000021002002F081FE1B
S11307D0DFF8240D0068DFF8741B03F029F903F037
S11307E093F980B2020000213C2002F0C6FED8A298
S11307F00221002002F06DFEDFF89C2C02213C2037
S113080002F067FED3A20421002002F062FEDFF8AA
S11308108C2C04213C2002F05CFECFA20621002097
S113082002F057FEDFF8B02C06213C2002F051FE06
S1130830DFF854040078072813D1DFF8BC0C0068F3
S113084003F084F9DFF8802BDFF8803B03F0B6F97E
S113085003F028FADFF8A01C0860DFF82C04FF215D
S11308600170DFF824040078082813D1DFF8880C1D
S1130870006803F06BF9DFF8502BDFF8783B03F0E6
S11308809DF903F00FFADFF8701C0860DFF8F80335
S1130890FF210170DFF8F0030078092807D1DFF8A1
S11308A0EC03FF210170DFF8E003FF210170DFF8A2
S11308B0DC03007803283FF467AF02F074FCDFF830
S11308C0C8030078042840F09880DFF8BC03FF21B7
S11308D00170DFF8B8030421017002F064FC85E0C4
S11308E06E2003F081F802F0B7FE02F0F5FEDFF8A7
S11308F0881A0870DFF8800A0078FF2805D0DFF82E
S11309008803DFF8741A09780170DFF8F02B0021EE
S1130910002002F0DEFDDFF8E80B0068DFF82C1A97
S113092003F086F803F0F0F880B2020000213C20C6
S113093002F023FE86A20221002002F0CAFDDFF8A5
S1130940582B02213C2002F0C4FD82A20421002085
S113095002F0BFFDDFF8442B04213C2002F0B9FD76
S11309607DA20621002002F0B4FDDFF86C2B0621E5
S11309703C2002F0AEFDC4480078072812D1DFF80D
S1130980800B006803F0E2F8DFF83C2ADFF83C3A19
S113099003F014F903F086F9DFF8641B0860BA4821
S11309A0FF210170B8480078082815D1DFF8500BF2
S11309B0006803F0CBF8DFF8102ADFF8383A03F0C8
S11309C0FDF803F06FF9DFF8381B01E053693A00D2
S11309D00860AD48FF210170AB480078092805D1B3
S11309E0AA48FF210170A848FF210170A748007898
S11309F004283FF475AF02F0D6FBA348007805281D
S1130A005AD1A148FF210170A0480521017002F0CC
S1130A10CAFB4BE06E2002F0E7FF02F01DFE02F07D
S1130A205BFEDFF854190870DFF84C090078FF28E2
S1130A3004D09548DFF8401909780170DFF8C42A1A
S1130A400021002002F045FDDFF8BC0A02780021F5
S1130A503C2002F092FD40A20621002002F039FD64
S1130A60DFF8102906213C2002F033FD8648007887
S1130A70072806D1DFF8900A012101708248FF217E
S1130A80017081480078082806D1DFF87C0A00212B
S1130A9001707D48FF2101707B480078092805D149
S1130AA07A48FF2101707848FF2101707748007867
S1130AB00528AFD002F077FB73480078062840F091
S1130AC083807148FF21017070480621017002F093
S1130AD06AFB73E06E2002F087FF02F0BDFD02F0B6
S1130AE0FBFDDFF894180870DFF88C080078FF2805
S1130AF004D06548DFF8801809780170DFF80C2A03
S1130B0002E000BF53643A000021002002F0E1FC3F
S1130B10DFF8FC09B0F9002000213C2002F02DFD93
S1130B200BA20221002002F0D4FCDFF86C29022180
S1130B303C2002F0CEFC07A20421002002F0C9FCF4
S1130B40DFF8582904213C2002F0C3FC02A205E08E
S1130B502B3A00002D3A000052653A00062100208D
S1130B6002F0B7FCDFF8702906213C2002F0B1FC4A
S1130B7045480078072809D1DFF894090088401C0B
S1130B80DFF88C1908804048FF2101703E48007846
S1130B90082809D1DFF878090088401EDFF87019A9
S1130BA008803948FF21017037480078092805D1A9
S1130BB03648FF2101703448FF2101703348007822
S1130BC0062887D002F0EFFA2F4800780A287FF42D
S1130BD054AC2D48FF21017002F0E5FADFF8180942
S1130BE002682C4801682A48006802F0DBF9FA2000
S1130BF002F0FAFEDFF81C290021002002F069FC53
S1130C00DFF8142900213C2002F063FCDFF80C29F2
S1130C100221002002F05DFCDFF8042904210020F9
S1130C2002F057FCDFF8FC2804213C2002F051FCC0
S1130C30DFF8F4280621002002F04BFC02F00CFD42
S1130C4002F04AFD104908706E2002F0CDFE0E48F5
S1130C500078012840F0B5800B48FF2101700B4853
S1130C600121017002F09FFAA3E000BFAC06FF1F50
S1130C700C870000148700001C87000024870000F4
S1130C802C870000588600007804FF1F7A04FF1F99
S1130C907C04FF1FB407FF1FD3A20021002002F031
S1130CA018FCDFF888080068DFF8A01602F0C0FE20
S1130CB002F02AFF80B2020000213C2002F05DFC19
S1130CC0CAA20221002002F004FCDFF884260221DB
S1130CD03C2002F0FEFBE6A20421002002F0F9FB16
S1130CE0DFF88C2604213C2002F0F3FBE1A206216C
S1130CF0002002F0EEFBDFF87C2606213C2002F007
S1130D00E8FB6E2002F070FE02F0A6FC02F0E4FCA8
S1130D10DFF864160870DFF860060078FF2805D055
S1130D20DFF80C08DFF8501609780170DFF80008C6
S1130D300078072813D1DFF8F407006802F006FFF3
S1130D40DFF88426DFF8843602F038FF02F0AAFFC9
S1130D50DFF8D8170860DFF8D807FF210170DFF843
S1130D60D0070078082813D1DFF8C007006802F024
S1130D70EDFEDFF85426DFF87C3602F01FFF02F0A8
S1130D8091FFDFF8A8170860DFF8A407FF210170BE
S1130D90DFF89C07007809280BD1DFF89807FF21BA
S1130DA00170DFF88C07FF210170DFF8CC05FF210B
S1130DB00170DFF88007007801283FF46DAF02F07E
S1130DC0F2F9DFF86C070078022840F09C80DFF825
S1130DD06007FF210170DFF85C070221017002F057
S1130DE0E2F988E06E2002F0FFFD02F035FC02F02B
S1130DF073FCDFF884150870DFF87C050078FF28A1
S1130E0005D0DFF82C07DFF8701509780170E1A22E
S1130E100021002002F05DFBDFF81C070068DFF80A
S1130E202C1502F005FE02F06FFE80B202000021D4
S1130E303C2002F0A2FB6DA20221002002F049FB3B
S1130E40DFF8542602213C2002F043FB88A204214F
S1130E50002002F03EFBDFF8442604213C2002F08F
S1130E6038FB84A20621002002F033FBDFF8682659
S1130E7006213C2002F02DFBDFF8B4060078072899
S1130E8013D1DFF8B406006802F060FEDFF83825FD
S1130E90DFF8383502F092FE02F004FFDFF898160E
S1130EA00860DFF88C06FF210170DFF88406007803
S1130EB0082813D1DFF88006006802F047FEDFF847
S1130EC00825DFF8303502F079FE02F0EBFEDFF89A
S1130ED068160860DFF85806FF210170DFF8500635
S1130EE00078092807D1DFF84C06FF210170DFF8EC
S1130EF04006FF210170DFF83C06007802283FF429
S1130F0071AF02F050F9DFF828060078032840F0AA
S1130F108880DFF81C06FF210170DFF81806032122
S1130F20017002F040F975E06E2002F05DFD02F000
S1130F3093FB02F0D1FBDFF840140870DFF83804AB
S1130F400078FF2805D0DFF8E805DFF82C140978CD
S1130F500170DFF8E8250021002002F0BAFADFF87A
S1130F60E005B0F9002000213C2002F006FB1FA29E
S1130F700221002002F0ADFADFF81C2502213C20FA
S1130F8002F0A7FA3AA20421002002F0A2FADFF844
S1130F900C2504213C2002F09CFA36A206210020F4
S1130FA002F097FADFF8302506213C2002F091FA8E
S1130FB0DFF87C05007807280AD1DFF8840500886B
S1130FC0401CDFF87C150880DFF86405FF21017000
S1130FD0DFF85C05007808280FD1DFF86405008885
S1130FE0401EDFF85C1503E04B703A002B3A00001A
S1130FF00880DFF83C05FF210170DFF83405007834
S1131000092807D1DFF82C05FF210170DFF820053E
S1131010FF210170DFF81C050078032884D002F05A
S1131020C2F8DFF80C050078042840F08180DFF86E
S11310300005FF210170DFF8FC040421017002F0B7
S1131040B2F86EE06E2002F0CFFC02F005FB02F075
S113105043FBC9490870C8480078FF2804D0DFF86A
S1131060D004C54909780170DFF81C2D04E000BFE5
S11310702D3A000052653A000021002002F029FABE
S11310808B48B0F9002000213C2002F076FABBA284
S11310900221002002F01DFADFF8FC2302213C208B
S11310A002F017FACAA20421002002F012FADFF8B3
S11310B0EC2304213C2002F00CFACFA206210020EC
S11310C002F007FADFF8102406213C2002F001FAAE
S11310D0DFF85C040078072808D175480088401CB4
S11310E073490880DFF84804FF210170DFF84004E9
S11310F00078082808D16E480088401E6C49088092
S1131100DFF82C04FF210170DFF82404007809289B
S113111007D1DFF82004FF210170DFF81404FF2158
S11311200170DFF81004007804288BD002F03BF83B
S1131130DFF8FC030078052878D1DFF8F403FF21F9
S11311400170DFF8F0030521017002F02CF867E06C
S11311506E2002F049FC02F07FFA02F0BDFA8649E3
S1131160087085480078FF2804D0DFF8C40382495A
S113117009780170DFF8142C0021002002F0A9F98D
S1131180DFF80C0CB0F9002000213C2002F0F5F946
S11311907AA201E04B643A000221002002F099F99E
S11311A0BD4A02213C2002F094F989A204210020C6
S11311B002F08FF9B94A04213C2002F08AF98EA288
S11311C00621002002F085F9C34A06213C2002F0E2
S11311D080F9DFF85C030078072809D1DFF8B00B49
S11311E00088401CDFF8A81B0880D148FF2101704B
S11311F0CF480078082809D1DFF8940B0088401EF6
S1131200DFF88C1B0880CA48FF210170C8480078A9
S1131210092805D1C748FF210170C548FF21017085
S1131220C4480078052893D001F0BDFFC048007879
S1131230062874D1BE48FF210170BE480621017002
S113124001F0B1FF65E06E2002F0CEFB02F004FA7B
S113125002F042FA4849087047480078FF2803D052
S1131260B348454909780170DFF82C2B0021002090
S113127002F02FF9DFF8240BB0F9002000213C2004
S113128002F07BF93DA20221002002F022F9824AF9
S113129002213C2002F01DF94DA20421002002F09D
S11312A018F97E4A04213C2002F013F952A201E00D
S11312B06A04FF1F0621002002F00BF9864A06216A
S11312C03C2002F006F99A480078072809D1DFF893
S11312D0CC0A0088401CDFF8C41A08809448FF2117
S11312E0017093480078082809D1DFF8B00A008813
S11312F0401EDFF8A81A08808D48FF2101708C4831
S11313000078092805D18B48FF2101708848FF2106
S1131310017088480078062895D001F044FF84487D
S113132000780A287FF463AC8148FF21017001F042
S11313303AFFFA2002F058FBDFF8642A002100206B
S113134002F0C7F8DFF85C2A04E000BF0000204187
S1131350348700000221002002F0BBF8DFF8482A9D
S11313600421002002F0B5F8DFF8402A08E000BFAD
S11313703C870000448700007704FF1F2B3A0000DD
S11313800021462002F0A5F8DFF8242A0221462095
S113139002F09FF802F060F902F09EF964490870C7
S11313A06E2002F021FB62480078012840F0918011
S11313B05F48FF2101705F480121017001F0F3FED5
S11313C080E0DFF8F02905E09A9999999999B93F55
S11313D02D3A00000021002002F07BF8DFF8D80944
S11313E0B0F9002092B200213C2002F004F8CAA215
S11313F004E000BF9999B9BF52653A000221002068
S113140002F067F8DFF8B42902213C2002F061F809
S1131410E3A20421002002F05CF8DFF8A4290421EF
S11314203C2002F056F8DFA20621002002F051F819
S1131430DFF8902906213C2002F04BF86E2002F0E0
S1131440D3FA02F009F902F047F9DFF8681E0870D0
S1131450DFF8600E0078FF2804D03548DFF8541E0A
S11314600978017032480078072809D1DFF8480963
S11314700088401CDFF8401908802D48FF210170C6
S11314802B48007808280FD1DFF82C090088401E6B
S1131490DFF8241904E000BF4C87000054870000E3
S11314A008802348FF21017021480078092809D1C8
S11314B02048FF2101701E48FF210170DFF8F40D60
S11314C0FF2101701B48007801283FF47AAF01F036
S11314D06AFE174802E000BF5C870000007802281B
S11314E040F0A9801248FF210170124802210170C6
S11314F001F059FE98E000BFB807FF1F64870000A1
S11315002C04FF1F6C870000F208FF1F7487000083
S11315103A04FF1F7C870000848700008C8700004A
S1131520948700009C870000A48700004404FF1FE8
S11315307804FF1F7A04FF1F4804FF1FAC870000D4
S11315406804FF1F6E2002F04FFA02F085F802F0E3
S1131550C3F8DFF8601D0870DFF8580D0078FF2825
S113156005D0DFF86408DFF84C1D09780170DFF856
S11315705C280021002001F0ACFFDFF85408B0F92A
S1131580002092B200213C2001F0F7FF62A2022168
S1131590002001F09EFFDFF8742E02213C2001F0B0
S11315A098FF7FA20421002001F093FFDFF8602E52
S11315B004213C2001F08DFF7AA20621002001F0D5
S11315C088FFDFF8502E06213C2001F082FFDFF86F
S11315D0F807007807280AD1DFF8F40700880A30F2
S11315E0DFF8EC170880DFF8E007FF210170DFF86F
S11315F0D807007808280AD1DFF8D40700880A3809
S1131600DFF8CC170880DFF8C007FF210170DFF88E
S1131610B8070078092807D1DFF8B807FF2101705F
S1131620DFF8A407FF210170DFF8A807007802287B
S113163088D001F0B8FDDFF890070078032840F067
S11316408680DFF88407FF210170DFF88807032113
S1131650017001F0A8FD73E06E2002F0C5F901F0FD
S1131660FBFF02F039F8DFF84C1C0870DFF8440C7B
S11316700078FF2805D0DFF85007DFF8381C097818
S11316800170DFF854270021002001F022FFDFF869
S11316904C07B0F9002000213C2001F0ACFE1EA252
S11316A00221002001F015FFDFF8602D02213C200B
S11316B001F00FFF3AA20421002001F00AFFDFF835
S11316C0502D04213C2001F004FF36A20621002005
S11316D001F0FFFEDFF83C2D06213C2001F0F9FE6D
S11316E0DFF8E406007807280AD1DFF8F00600885E
S11316F0401CDFF8E8160880DFF8CC06FF210170F3
S1131700DFF8C406007808280DD1DFF8D006008879
S1131710401EDFF8C81601E02B3A00000880DFF80D
S1131720A806FF210170DFF8A0060078092807D178
S1131730DFF8A006FF210170DFF88C06FF2101709D
S1131740DFF890060078032886D001F02CFDDFF83E
S113175078060078042840F08A80DFF86C06FF21C0
S11317600170DFF870060421017001F01CFD76E0C1
S11317706E2002F039F901F06FFF01F0ADFFDFF8E0
S1131780341B0870DFF82C0B0078FF2805D0DFF835
S11317903806DFF8201B09780170DFF8202E03E0FB
S11317A02D3A000052653A000021002001F091FE1C
S11317B0DFF80C0EB0F9002092B200213C2001F0B9
S11317C0DCFED0A20221002001F083FEDFF83C2CD5
S11317D002213C2001F07DFECBA20421002001F077
S11317E078FEDFF82C2C04213C2001F072FEC7A205
S11317F00621002001F06DFEDFF8182C06213C20A4
S113180001F067FEDFF8C005007807280AD1DFF889
S1131810B00D0088401CDFF8A81D0880DFF8A8057B
S1131820FF210170DFF8A005007808280AD1DFF84D
S1131830900D0088401EDFF8881D0880DFF88805B9
S1131840FF210170DFF880050078092807D1DFF84F
S11318508405FF210170DFF87005FF210170DFF8B6
S11318607405007804283FF483AF01F09CFCDFF892
S113187058050078052840F08480DFF84C05FF21E6
S11318800170DFF850050521017001F08CFC71E056
S11318906E2002F0A9F801F0DFFE01F01DFFDFF871
S11318A0141A0870DFF80C0A0078FF2805D0DFF856
S11318B01805DFF8001A09780170DFF8082D0021F7
S11318C0002001F006FEDFF8000DB0F9002092B20E
S11318D000213C2001F051FE8AA20221002001F0E7
S11318E0F8FDDFF8282B02213C2001F0F2FD86A24E
S11318F00421002001F0EDFDDFF8142B04213C202D
S113190001F0E7FD81A20621002001F0E2FDDFF8ED
S1131910042B06213C2001F0DCFDDFF8AC04007848
S113192007280AD1DFF8A00C0088401CDFF8981CB7
S11319300880DFF89404FF210170DFF88C0400783C
S113194008280AD1DFF8800C0088401EDFF8781CD4
S11319500880DFF87404FF210170DFF86C0400785C
S1131960092807D1DFF86C04FF210170DFF858045F
S1131970FF210170DFF85C040078052888D001F0AD
S113198012FCDFF8440400780A287FF4D2ACDFF8B4
S11319903804FF21017001F006FCFA2002F024F85B
S11319A0DFF8282C0021002001F093FDDFF8202C23
S11319B00021462001F08DFDDFF8182C02210020C3
S11319C001F087FDDFF8102C0421002001F081FDD7
S11319D0DFF8082C0421462001F07BFDDFF8002C01
S11319E00621002001F075FD01F036FE01F074FEC1
S11319F0DFF8D41308706E2001F0F6FFDFF8C80397
S1131A000078012840F09D80DFF8BC03FF210170BD
S1131A10DFF8C0030121017001F0C5FB8AE0DFF8A3
S1131A20C42B0021002001F054FDDFF8BC0B00683A
S1131A30DFF86C1E01F0FCFF02F066F880B20200D1
S1131A4000213C2001F099FD2EA20221002001F08A
S1131A5040FDDA4A02213C2001F03BFD2AA2042188
S1131A60002001F036FDD64A04213C2001F031FD6E
S1131A7026A20621002001F02CFDD24A06213C209A
S1131A8001F027FD6E2001F0AFFF01F0E5FD01F04C
S1131A9023FEDFF820180870DFF818080078FF2804
S1131AA004D0C948DFF80C1809780170C6480078DA
S1131AB0072812D1DFF8300B006802F047F8DFF88E
S1131AC0582EDFF8583E02F079F802F0EBF8DFF810
S1131AD0181B0860BC48FF210170BB480078082827
S1131AE01AD1DFF8040B006802F030F8DFF8282E72
S1131AF0DFF82C3E02F062F802F0D4F8DFF8E81ABE
S1131B0006E000BF2B3A00002D3A000052653A006F
S1131B100860AD48FF210170AB480078092809D15D
S1131B20AC48FF210170A848FF210170DFF8840749
S1131B30FF210170A748007801283FF470AF01F03D
S1131B4032FBA1480078022840F092809E48FF2191
S1131B500170A0480221017001F025FB81E06E2094
S1131B6001F042FF01F078FD01F0B6FDDFF8441703
S1131B700870DFF840070078FF2804D09248DFF8A7
S1131B80341709780170DFF8642A0021002001F07D
S1131B90A0FCDFF85C0A0068DFF8041D01F048FFD0
S1131BA001F0B2FF80B2020000213C2001F0E5FC0C
S1131BB0C8A20221002001F08CFCDFF85028022189
S1131BC03C2001F086FCC4A20421002001F081FC29
S1131BD0DFF83C2804213C2001F07BFC6DA20621A7
S1131BE0002001F076FCDFF82C2806213C2001F0CF
S1131BF070FC75480078072812D1DFF8F4090068F2
S1131C0001F0A4FFDFF8102DDFF8103D01F0D6FF3E
S1131C1002F048F8DFF8D81908606B48FF2101701A
S1131C2069480078082812D1DFF8C409006801F077
S1131C308DFFDFF8E42CDFF8E83C01F0BFFF02F091
S1131C4031F8DFF8AC1908605F48FF2101705E4885
S1131C500078092805D15F48FF2101705A48FF2107
S1131C6001705C48007802283FF479AF01F09BFAD8
S1131C7055480078032878D15348FF21017055480E
S1131C800321017001F08FFA69E06E2001F0ACFECF
S1131C9001F0E2FC01F020FDDFF818160870DFF80F
S1131CA014060078FF2804D04748DFF8081609789E
S1131CB00170DFF840290021002001F00AFCDFF860
S1131CC03809B0F9002092B200213C2001F055FC03
S1131CD080A20221002001F0FCFBDFF83027022162
S1131CE03C2001F0F6FB7CA20421002001F0F1FB72
S1131CF0DFF81C2704213C2001F0EBFB25A2062180
S1131D00002001F0E6FBDFF80C2706213C2001F05F
S1131D10E0FB2D480078072809D1DFF8DC080088AB
S1131D20401CDFF8D41808802748FF21017026489A
S1131D300078082809D1DFF8C0080088401EDFF8C1
S1131D40B81808802048FF2101701F48007809282E
S1131D5005D12048FF2101701B48FF2101701D4857
S1131D600078032891D001F01EFA1748007804285F
S1131D7040F0CE801448FF21017016480421017000
S1131D8001F011FABCE000BF648600007086000018
S1131D906E04FF1F52653A00B48700006C04FF1FF5
S1131DA0BC8700007C8600008886000094860000C2
S1131DB0A0860000C48700003004FF1F34870000A1
S1131DC03C870000448700007804FF1FAC860000B5
S1131DD03404FF1F7A04FF1FCC8700003204FF1F66
S1131DE06E2001F001FE01F037FC01F075FCDFF814
S1131DF0C4140870DFF8BC040078FF2805D0DFF8AD
S1131E00780EDFF8B01409780170DFF8702E002125
S1131E10002001F05EFBDFF8680E0068DFF8801A2E
S1131E2001F006FE01F070FE80B2020000213C20A9
S1131E3001F0A3FB27A20221002001F04AFBDFF8F6
S1131E40CC2502213C2001F044FB23A204210020E4
S1131E5001F03FFBDFF8B82504213C2001F039FBF9
S1131E60D5A20621002001F034FBDFF8A8250621C5
S1131E703C2001F02EFBDFF8000E0078072813D178
S1131E80DFF8FC0D006801F061FEDFF88C2ADFF852
S1131E908C3A01F093FE01F005FFDFF8E41D0860C1
S1131EA0DFF8D40DFF210170DFF8CC0D007808288D
S1131EB019D1DFF8CC0D006801F048FEDFF8582A8C
S1131EC0DFF85C3A01F07AFE01F0ECFEDFF8B01DB9
S1131ED004E000BF2B3A00002D3A00000860DFF850
S1131EE0980DFF210170DFF8900D0078092807D1C3
S1131EF0DFF8900DFF210170DFF87C0DFF210170E8
S1131F00DFF8800D007804283FF46AAF01F04BF944
S1131F10DFF8640D0078052840F09A80DFF8580D4A
S1131F20FF210170DFF85C0D0521017001F03BF920
S1131F3086E06E2001F058FD01F08EFB01F0CCFB31
S1131F40DC490870DB480078FF2804D0DFF8280D4E
S1131F50D84909780170DFF8302D0021002001F004
S1131F60B8FADFF8280D0068DFF8341901F060FDD5
S1131F7001F0CAFD80B2020000213C2001F0FDFA0C
S1131F80CDA20221002001F0A4FADFF8802402216E
S1131F903C2001F09EFAC9A20421002001F099FA24
S1131FA0DFF86C2404213C2001F093FA82A206217C
S1131FB0002001F08EFADFF85C2406213C2001F0B9
S1131FC088FADFF8B40C0078072813D1DFF8BC0CCA
S1131FD0006801F0BBFDDFF84029DFF8403901F06B
S1131FE0EDFD01F05FFEDFF8A41C0860DFF8880C4B
S1131FF0FF210170DFF8800C0078082813D1DFF886
S11320008C0C006801F0A2FDDFF80C29DFF8103910
S113201001F0D4FD01F046FEDFF8701C0860DFF823
S1132020580CFF210170DFF8500C0078092807D103
S1132030DFF8500CFF210170DFF83C0CFF21017028
S1132040DFF8400C007805283FF473AF01F0ABF8DB
S1132050DFF8240C007806287DD1DFF81C0CFF2162
S11320600170DFF8200C0621017001F09CF86BE090
S11320706E2001F0B9FC01F0EFFA01F02DFB8D495F
S113208008708C480078FF2804D0DFF8EC0B8949ED
S113209009780170DFF84C2D0021002001F019FAB5
S11320A0DFF8440DB0F9002092B200213C2001F089
S11320B064FA81A20221002001F00BFAD34A022122
S11320C03C2001F006FA7DA20421002001F001FA6F
S11320D0CF4A04213C2001F0FCF937A2062100205C
S11320E001F0F7F9CB4A06213C2001F0F2F9DFF8C0
S11320F0880B007807280AD1DFF8EC0C0088401C14
S1132100DFF8E41C0880DFF8700BFF210170DFF8B2
S1132110680B007808280AD1DFF8CC0C0088401E30
S1132120DFF8C41C0880DFF8500BFF210170DFF8D2
S1132130480B0078092807D1DFF8480BFF2101700C
S1132140DFF8340BFF210170DFF8380B0078062824
S11321508ED001F028F8DFF8200B00780A287FF4ED
S11321601CACDFF8140BFF21017001F01CF8FA20FD
S113217001F03AFCDFF8742C0021002001F0A9F9E9
S1132180DFF86C2C0021462001F0A3F9DFF8642C61
S11321900221002001F09DF9DFF85C2C0221462089
S11321A001F097F9DFF8542C0421002001F091F993
S11321B0DFF84C2C02E000BF52653A0004214620AF
S11321C001F087F901F048FA01F086FADFF8A81A5D
S11321D008706E2001F008FCDFF89C0A00780128E2
S11321E040F08C80DFF8900AFF210170DFF8940A38
S11321F00121017000F0D7FF78E0DFF8842C002182
S1132200002001F066F9DFF87C0C027800213C2004
S113221001F0B3F928A20221002001F05AF9DFF8F5
S1132220682C02213C2001F054F924A2042100204E
S113223001F04FF9DFF8542C04213C2001F049F956
S1132240C7A20621002001F044F9DFF8B82B0621CB
S11322503C2001F03EF96E2001F0C6FB01F0FCF9D0
S113226001F03AFA1349087012480078FF2804D0A4
S1132270DFF8040A0F4909780170DFF8FC090078D7
S113228007280AD1DFF8FC0B0078401CDFF8F41BA8
S11322900870DFF8E409FF210170DFF8DC09007839
S11322A0082812D1DFF8DC0B0078401EDFF8D41BBD
S11322B006E000BF7704FF1F2B3A00002D3A000010
S11322C00870DFF8B409FF210170DFF8AC09007869
S11322D009280BD1DFF8AC09FF210170DFF8980958
S11322E0FF210170DFF8A80BFF210170DFF89409CA
S11322F0007801283FF481AF00F055FFDFF878093A
S11323000078022840F0A280DFF86C09FF210170F8
S1132310DFF870090221017000F045FF8EE06E20A5
S113232001F062FB01F098F901F0D6F9DFF8601BC7
S11323300870DFF85C0B0078FF2805D0DFF8380957
S1132340DFF84C1B09780170DFF8482B00210020CE
S113235001F0BFF8DFF8400B0068DFF8441501F026
S113236067FB01F0D1FB80B2020000213C2001F0A8
S113237004F9DCA20221002001F0ABF8234A022177
S11323803C2001F0A6F8D8A20421002001F0A1F815
S11323901F4A04213C2001F09CF871A20621002070
S11323A001F097F81B4A06213C2001F092F8DFF86F
S11323B0C8080078072813D1DFF8DC0A006801F0A8
S11323C0C5FBDFF85425DFF8543501F0F7FB01F0C5
S11323D069FCDFF8C41A0860DFF89C08FF2101706B
S11323E0DFF89408007808281BD1DFF8AC0A0068ED
S11323F001F0ACFBDFF82025DFF8243501F0DEFB2B
S113240001F050FCDFF8901A06E000BF4C87000092
S1132410548700005C8700000860DFF85C08FF2137
S11324200170DFF854080078092807D1DFF8540850
S1132430FF210170DFF84008FF210170DFF8440834
S1132440007802283FF46BAF00F0ADFEDFF82808F7
S11324500078032840F0A080DFF81C08FF210170F9
S1132460DFF820080321017000F09DFE8CE06E204F
S113247001F0BAFA01F0F0F801F02EF9DFF8101AC1
S11324800870DFF80C0A0078FF2805D0DFF8E807A9
S1132490DFF8FC1909780170DFF8042A0021002014
S11324A001F017F8DFF8FC090068DFF8F41301F015
S11324B0BFFA01F029FB80B2020000213C2001F0A8
S11324C05CF888A20221002001F003F8DFF8D82983
S11324D002213C2000F0FDFF83A20421002000F033
S11324E0F8FFDFF8C82904213C2000F0F2FF1CA209
S11324F00621002000F0EDFFDFF8B42906213C207E
S113250000F0E7FFDFF870070078072813D1DFF841
S11325109409006801F01AFBDFF8FC23DFF8FC33B0
S113252001F04CFB01F0BEFBDFF878190860DFF81E
S11325304807FF210170DFF840070078082816D10A
S1132540DFF86009006801F001FBDFF8CC23DFF855
S1132550D03301F033FB01F0A5FBDFF8481901E0AB
S113256052653A000860DFF81007FF210170DFF8B8
S113257008070078092807D1DFF80807FF21017050
S1132580DFF8F406FF210170DFF8F806007803286D
S11325903FF46DAF00F007FEDFF8DC060078042896
S11325A040F0BE80DFF8D006FF210170DFF8D406CA
S11325B00421017000F0F7FDAAE000BFD4870000F9
S11325C02404FF1FDC8700002604FF1FE4870000AB
S11325D0EC870000B8860000F4870000FC87000048
S11325E0C4860000048800005404FF1F0C88000007
S11325F05804FF1FD08600003E04FF1F6E2001F028
S1132600F3F901F029F801F067F8DFF8841808708D
S1132610DFF87C080078FF2805D0DFF85C06DFF8D7
S1132620701809780170DFF88C280021002000F070
S113263050FFDFF884080068994901F0F9F901F0C6
S113264063FA80B2020000213C2000F096FF25A22C
S11326500221002000F03DFFDFF84C2802213C203D
S113266000F037FF20A20421002000F032FFDFF841
S11326703C2804213C2000F02CFFD2A2062100209B
S113268000F027FFDFF8282806213C2000F021FF76
S1132690DFF8E4050078072811D1DFF81C0800688A
S11326A001F054FA9C4A9D4B01F088FA01F0FAFAC1
S11326B0DFF804180860DFF8C005FF210170DFF8B7
S11326C0B8050078082816D1DFF8EC07006801F097
S11326D03DFA914A924B01F071FA01F0E3FADFF806
S11326E0D81703E02B3A00002D3A00000860DFF809
S11326F08805FF210170DFF880050078092807D1DB
S1132700DFF88005FF210170DFF86C05FF210170FF
S1132710DFF87005007804283FF470AF00F043FD43
S1132720DFF854050078052840F08380DFF8480579
S1132730FF210170DFF84C050521017000F033FD25
S113274070E06E2001F050F900F086FF00F0C4FF45
S1132750DFF83C170870DFF838070078FF2805D049
S1132760DFF81405DFF8281709780170DFF84C2723
S11327700021002000F0ADFEDFF84407B0F900208E
S113278000213C2000F0F9FEE4A20221002000F028
S1132790A0FEDFF8142702213C2000F09AFEE6A2F6
S11327A00421002000F095FEDFF8002704213C20DE
S11327B000F08FFE83A20621002000F08AFEDFF8DD
S11327C0F02606213C2000F084FEDFF8AC040078FB
S11327D007280AD1DFF8E8060088401CDFF8E01675
S11327E00880DFF89404FF210170DFF88C0400787E
S11327F008280AD1DFF8C8060088401EDFF8C01692
S11328000880DFF87404FF210170DFF86C0400789D
S1132810092807D1DFF86C04FF210170DFF85804A0
S1132820FF210170DFF85C040078052889D000F0EE
S1132830BAFCDFF844040078062840F08780DFF80B
S11328403804FF210170DFF83C040621017000F018
S1132850AAFC75E06E2001F0C7F800F0FDFE00F060
S11328603BFFDFF82C160870DFF824060078FF28F9
S113287005D0DFF80404DFF8181609780170DFF8D2
S113288044260021002000F024FEDFF83C06B0F9C5
S1132890002000213C2000F070FEA0A202E000BF56
S11328A0000020410221002000F013FEDFF8F8258B
S11328B002213C2000F00DFE9FA20421002000F024
S11328C008FEDFF8E82504213C2000F002FE3DA2CA
S11328D00621002000F0FDFDDFF8D42506213C2070
S11328E000F0F7FDDFF890030078072809D1DFF83E
S11328F0D8050088401CDFF8D0150880DE48FF2189
S11329000170DD480078082810D1DFF8BC05008884
S1132910401EDFF8B41505E09A9999999999B93F41
S11329209999B9BF0880D448FF210170D248007832
S1132930092805D1D348FF210170CF48FF21017038
S1132940D0480078062885D000F02DFCCA480078CD
S11329500A287FF40CACC848FF21017000F023FC66
S1132960DFF868050078012809D1C9A200210020F8
S113297000F0AFFDFA2001F037F800F014FCDFF8A6
S11329804C0502210170DFF8480501210180DFF8C0
S1132990440501210180DFF840050078012840F05A
S11329A09C80DFF8340500210170DFF8300501F068
S11329B027FC01F0F7FEDFF828050088DFF824156E
S11329C002E000BF52653A0009880818DFF81015C4
S11329D00880DFF814050088DFF810150988081846
S11329E0DFF804150880DFF808050088DFF804150F
S11329F009880818DFF8F8140880DFF8FC04008858
S1132A00DFF8F81409784018DFF8EC140880641C27
S1132A10200000B20A2860DB0024DFF8C404B0F907
S1132A2000000A2190FBF1F0DFF8D4140880DFF8ED
S1132A30B804B0F900000A2190FBF1F0DFF8C414E7
S1132A400880DFF8AC04B0F900000A2190FBF1F033
S1132A50DFF8B4140880DFF8A004B0F900000A21FC
S1132A6090FBF1F0DFF8A4140870DFF88C04002167
S1132A700180DFF86C0400210180DFF86C04002180
S1132A800180DFF86C0400210180DFF87C040088F9
S1132A90DFF870140988401ADFF874140880DFF82E
S1132AA07404DFF86C1409880180DFF85404B0F969
S1132AB0002000210A2000F03CFCDFF84804B0F9B3
S1132AC0002002210A2000F034FCDFF83C04B0F9B5
S1132AD000200221462000F02CFCDFF83C040078A2
S1132AE0012840F08780DFF8300400210170DFF80E
S1132AF02C0401F02BFD02F049FFDFF824040088C8
S1132B00DFF8201409880818DFF814140880DFF8A7
S1132B1018040088DFF8141402E000BF2B3A000008
S1132B2009880818DFF800140880DFF80404008816
S1132B30DFF8001402E000BF2D3A000009880818ED
S1132B40DFF8EC1308806D1C280000B20A2851DB62
S1132B500025DFF8CC03B0F900000A2190FBF1F066
S1132B60DFF8D4130880DFF8C003B0F900000A21AD
S1132B7090FBF1F0DFF8C4130880DFF8B403B0F978
S1132B8000000A2190FBF1F0DFF8B4130880DFF8AD
S1132B90900300210180DFF8900300210180DFF819
S1132BA0900300210180DFF898030088DFF88C137C
S1132BB00988401ADFF88C130880DFF88C03DFF8EB
S1132BC0841309880180DFF87003B0F90020042120
S1132BD00A2000F0AEFBDFF86403B0F90020062100
S1132BE00A2000F0A6FBD648B0F9002006214620B2
S1132BF000F09FFB00F030FD00F06EFDA44908706A
S1132C00A3480078FF2803D01B48A1490978017024
S1132C10194800780C287FF4A3AE1748FF210170EF
S1132C2018480C21017000F0BEFA1CE06E2000F080
S1132C30DBFE00F011FD00F04FFD9549087094484B
S1132C400078FF2803D00C489149097801700A489C
S1132C5000780C2805D10B48FF2101700648FF219C
S1132C60017000F0A0FA074800780C28DED09748DD
S1132C700121017025E000BF7804FF1F14880000C3
S1132C805C04FF1F7A04FF1F1C8800006004FF1F00
S1132C90636A0000AD480068292802DBAC48AD49EE
S1132CA001809D48007801280BD19B4800210170C8
S1132CB09A4801F04BFCA8480078012801D102F0A1
S1132CC071FD82480078012813D174A206213C20AA
S1132CD000F0FFFB4FF4FA6000F086FE00F063FAA8
S1132CE07B48002101807B48002101809B48012111
S1132CF001707648022101707748007801284CD190
S1132D00754800210170754801F07AFA01F04AFD16
S1132D1002F052FC03F0ACF89148B0F90020002115
S1132D200A2000F006FB8F48B0F90020002146205D
S1132D3000F0FFFA6D48B0F9002002210A2000F0EB
S1132D40F8FA6C48B0F900200221462000F0F1FAAC
S1132D508548B0F9002004210A2000F0EAFA8348EB
S1132D60B0F900200421462000F0E3FA8048B0F9CD
S1132D7000200621002000F03EFB60480278062176
S1132D80462000F038FB7B48006870490968884297
S1132D9003DA78486D49096801607748B0F90000A2
S1132DA001287FF47EAF74480021018003F0EAF922
S1132DB07248B0F9000001287FF473AF63480068DB
S1132DC010F1630FBFF666AF0023012209216C489E
S1132DD003F07AFC6B48002101603D480121018029
S1132DE05FE70000DC8600004004FF1F2488000029
S1132DF02C880000348800003C88000044880000CF
S1132E004C8800004487000080B572B65FF4E1325C
S1132E105D4801685D4803F0A9FC002300220821F5
S1132E205B4803F051FC4FF49671002003F0A4FDBD
S1132E305848B0F900200221002003F012FF42F2AA
S1132E401071012003F098FD04F015F804F077F8F0
S1132E5000F070FF00F0D0F9002200214E4800F08D
S1132E60A1F84FF47A7000F099F84EF66021002032
S1132E7004F0ECF8002004F018F962B601BD00007B
S1132E80548800007604FF1F348700003C8700004C
S1132E907704FF1FE88600004C04FF1F676F0000E3
S1132EA0F48600005004FF1F4C8700005487000084
S1132EB05C8700005C8800006404FF1F64880000D5
S1132EC07404FF1F6C8800007204FF1F7904FF1F45
S1132ED0DC08FF1FDE08FF1FFA08FF1FAC06FF1FF8
S1132EE0CE08FF1FFA07FF1FD008FF1FD807FF1FD8
S1132EF0D208FF1F1404FF1FD408FF1F2204FF1F62
S1132F000608FF1F0208FF1F1604FF1F3C04FF1FD3
S1132F10E208FF1FF807FF1FFB08FF1F2C07FF1F16
S1132F20D608FF1F4408FF1FD808FF1F3208FF1FE1
S1132F30DA08FF1F1804FF1F4808FF1F4608FF1F79
S1132F401A04FF1FE408FF1F4208FF1FA806FF1F03
S1132F506804FF1F0CFEFFFFFE08FF1FFF08FF1F92
S1132F60B008FF1FB208FF1F8608FF1F8408FF1F59
S1132F707808FF1FB007FF1FCA08FF1FBE08FF1F06
S1132F8040F00F4010900340D007FF1F00D00640D0
S1132F9080F00F403004FF1F00009040264909686C
S1132FA008607047244B1B68986023480068C16020
S1132FB0214800680261704710B51F490968096813
S1132FC0081A1E4908601D48006804F09BF81A4955
S1132FD00968896800F02CFD0400174800684069FE
S1132FE004F090F814490968C96800F021FD010053
S1132FF0200004F09FF804000F480068806904F082
S113300081F80D490968096900F012FD210004F0F6
S113301005F900F079FD0A49086007480068064987
S11330200968496981610448006804490968416183
S11330300348006810BD00001004FF1FF404FF1FC4
S1133040F804FF1F0821DFF8F425126852F4003257
S1133050DFF8E8351A6000BFDFF8E025126832F4C3
S11330608042DFF8D8351A6000BF19E0DFF8CC25BC
S1133070126832F40042DFF8C4351A60DFF8BC2568
S1133080126852F48042DFF8B4351A6000BFDFF8EA
S1133090AC25126832F48042DFF8A0351A60400093
S11330A00A00511ED2B2002A0AD00206DED5DFF889
S11330B08C25126852F40042DFF880351A60DDE78F
S11330C0704700000821DFF87425126832F40032DA
S11330D0DFF868351A60DFF86425126832F480423C
S11330E0DFF858351A6019E0DFF85025126832F419
S11330F00042DFF848351A60DFF84025126852F4C0
S11331008042DFF838351A6000BFDFF830251268D6
S113311032F48042DFF824351A6040000A00511E60
S1133120D2B2002A0AD00206DED5DFF810251268D2
S113313052F40042DFF804351A60DDE7704710B539
S11331400400B1F15000C0B2FFF7BCFFE4B22009A3
S113315050F01000C0B2FFF7B5FF14F00F0050F0AC
S11331600100C0B2FFF7AEFF10BD70B5040000252A
S113317008E02000C0B2FFF765FF761CF6B2802E8F
S1133180F7D36D1CEDB2082D0CD2B5F15000C0B2CE
S1133190FFF798FF0120FFF795FF1020FFF792FF3C
S11331A00026EBE770BD38B5002407E00020FFF7E8
S11331B049FF6D1CEDB2802DF8D3641CE4B2082CD9
S11331C00CD2B4F15000C0B2FFF77CFF0120FFF72E
S11331D079FF1020FFF776FF0025EBE731BD07E00C
S11331E043F226410A00511E92B2002AFAD1401E2F
S11331F080B20028F4D1704780B5DFF844044FF45E
S113320080710160DFF83C044FF480710160DFF8E5
S113321038044FF480710160DFF830044FF480719A
S11332200160DFF82C045FF470310160DFF80C04F6
S1133230006850F48040DFF804140860DFF8FC03F1
S1133240006830F48030DFF8F41308603220FFF7B0
S1133250C6FFDFF8E803006850F48030DFF8DC13C1
S11332600860AE20FFF72EFF0020FFF72BFF102091
S1133270FFF728FF4020FFF725FF8120FFF722FFFB
S1133280CF20FFF71FFFA120FFF71CFFC820FFF787
S113329019FFA620FFF716FFA820FFF713FF3F2012
S11332A0FFF710FFD320FFF70DFF0020FFF70AFF01
S11332B0D520FFF707FF8020FFF704FFD920FFF791
S11332C001FFF120FFF7FEFEDA20FFF7FBFE1220DC
S11332D0FFF7F8FEDB20FFF7F5FE4020FFF7F2FED4
S11332E02020FFF7EFFE0220FFF7ECFE8D20FFF712
S11332F0E9FE1420FFF7E6FEA420FFF7E3FEA62074
S1133300FFF7E0FEAF20FFF7DDFE0020FFF72DFF03
S113331000210020FFF713FFFF20FFF726FF6420A2
S113332000F062FB0020FFF720FF642000F05CFB4C
S113333001BD2DE9FC4104000D00002600275FF0CB
S11333400008642092FBF0F08DF80000642092FBEA
S1133350F0F100FB11200A2190FBF1F08DF801003F
S11333600A2092FBF0F100FB11208DF802000020EE
S1133370804610E0F6B2300150FA87F0DFF8D4123C
S11333804018007AFFF75EFE7F1CFFB2082FF1D3CE
S1133390083418F101085FFA88F8B8F1030F28D24D
S11333A05FFA88F800A818F8000010F11006E4B2DB
S11333B0792C01D300246D1C2900C9B22000C0B2AD
S11333C0FFF7BDFE002709E0F6B2300150FA87F09E
S11333D0DFF88012405CFFF735FE7F1CFFB2082F38
S11333E0F2D3691CC9B22000C0B2FFF7A8FE0027BF
S11333F0CBE7BDE8F3812DE9FC4104000D00002674
S113340000275FF000084FF47A7092FBF0F08DF81B
S113341000004FF47A7092FBF0F100FB112064215C
S113342090FBF1F08DF80100642092FBF0F100FBB9
S113343011200A2190FBF1F08DF802000A2092FB82
S1133440F0F100FB11208DF803000020804610E00D
S1133450F6B2300150FA87F0DFF8F8114018007A1C
S1133460FFF7F0FD7F1CFFB2082FF1D3083418F1E9
S113347001085FFA88F8B8F1040F28D25FFA88F8D7
S113348000A818F8000010F11006E4B2792C01D35A
S113349000246D1C2900C9B22000C0B2FFF74FFE02
S11334A0002709E0F6B2300150FA87F0DFF8A411E2
S11334B0405CFFF7C7FD7F1CFFB2082FF2D3691CE5
S11334C0C9B22000C0B2FFF73AFE0027CBE7BDE83F
S11334D0F3812DE9F84304000D00160000275FF086
S11334E000085FF0000913E0FFB2380150FA88F0D9
S11334F0DFF860114018007AFFF7A4FD18F1010805
S11335005FFA88F8B8F1080FEED3083419F101090D
S11335105FFA89F919F8060000282CD05FFA89F9B6
S113352019F80600B0F12007E4B2792C01D3002485
S11335306D1C2900C9B22000C0B2FFF700FE5FF085
S113354000080AE0FFB2380150FA88F0DFF80411ED
S1133550405CFFF777FD18F101085FFA88F8B8F1CD
S1133560080FEFD3691CC9B22000C0B2FFF7E7FD12
S11335705FF00008C4E7BDE8F1832DE9F04182B0B3
S113358004000D00002600275FF000086420B2FB51
S1133590F0F08DF800000A20B2FBF0F00A21B0FB35
S11335A0F1F301FB13008DF801000A20B2FBF0F1E6
S11335B000FB11208DF80200002080460FE0F6B2D7
S11335C0300150FA87F023494018007AFFF73AFD9A
S11335D07F1CFFB2082FF2D3083418F101085FFAF8
S11335E088F8B8F1030F27D25FFA88F800A818F812
S11335F0000010F11006E4B2792C01D300246D1CF4
S11336002900C9B22000C0B2FFF799FD002708E0E5
S1133610F6B2300150FA87F00E49405CFFF712FD14
S11336207F1CFFB2082FF3D3691CC9B22000C0B2BB
S1133630FFF785FD0027CCE7BDE8F38100F00F40DC
S1133640389004403C90044040900440449004402E
S113365014F00F407C7A000080B5DFF88403006822
S113366050F48050DFF87813086000230022002112
S1133670DFF8700303F028F8002300220121DFF8AB
S1133680640303F021F8002300220221DFF854032D
S113369003F01AF8002300220321DFF8480303F0A3
S11336A013F8012300220421DFF8380303F00CF897
S11336B0012300220521DFF82C0303F005F8012380
S11336C000220621C74802F0FFFF00230022072141
S11336D0C44802F0F9FF01BDF8B50025FF2400231A
S11336E001220021BF4802F0EFFF01230122012142
S11336F0BC4802F0E9FF012301220221B94802F08B
S1133700E3FF012301220321B64802F0DDFF042177
S1133710B44803F023F806000521B24803F01EF86C
S113372007000621AF4803F019F8790111EB0611DF
S113373011EB80160721AB4803F010F816EBC0100C
S11337400500EDB2702D2AD00A2000F04DF90421B5
S1133750A44803F003F805000521A24802F0FEFF87
S1133760060006219F4802F0F9FF710111EB0511D3
S113377011EB801507219B4802F0F0FF15EBC015F3
S1133780EDB2702D0BD0EDB2302D07D0502D03D0FB
S1133790602D04D10A2402E00B2400E00C24012350
S11337A0012200218F4802F08FFF00230122012112
S11337B08C4802F089FF012301220221894802F08A
S11337C083FF012301220321864802F07DFF0421A7
S11337D0844802F0C3FF05000521824802F0BEFFC1
S11337E0060006217F4802F0B9FF710111EB0511B3
S11337F011EB801507217B4802F0B0FF15EBC015D3
S1133800EDB2702D2AD00A2000F0EEF8042175489C
S113381002F0A4FF05000521724802F09FFF060094
S11338200621704802F09AFF710111EB051111EBAA
S1133830801507216B4802F091FF15EBC015EDB21E
S1133840702D0BD0EDB2302D07D0502D03D0602D4C
S113385004D1072402E0082400E009240123012202
S11338600021604802F030FF0123012201215D485C
S113387002F02AFF0023012202215A4802F024FF09
S1133880012301220321574802F01EFF0421554859
S113389002F064FF05000521524802F05FFF0600B4
S11338A00621504802F05AFF710111EB051111EB8A
S11338B0801507214B4802F051FF15EBC015EDB2FE
S11338C0702D2AD00A2000F08FF80421454802F018
S11338D045FF05000521434802F040FF060006218C
S11338E0404802F03BFF710111EB051111EB80150B
S11338F007213C4802F032FF15EBC015EDB2702DE4
S11339000BD0EDB2302D07D0502D03D0602D04D153
S1133910042402E0052400E00624012301220021FE
S1133920304802F0D1FE0123012201212D4802F08A
S1133930CBFE0123012202212A4802F0C5FE002306
S113394001220321274802F0BFFE0421254802F08A
S113395005FF05000521234802F000FF06000621AB
S1133960204802F0FBFE710111EB051111EB8015EB
S113397007211C4802F0F2FE15EBC015EDB2702DC4
S11339802AD00A2000F030F80421164802F0E6FE9E
S113399005000521134802F0E1FE06000621114846
S11339A002F0DCFE710111EB051111EB801507210A
S11339B00C4802F0D3FE15EBC015EDB2702D0BD000
S11339C0EDB2302D07D0502D03D0602D04D1012449
S11339D002E0022400E003242000C0B2F2BD000093
S11339E038800440C0F00F400D49096851F00101CE
S11339F00B4A11600B4908600B48052101600B4814
S1133A00006850F001000949086008480068000691
S1133A10FBD5064800684008400004490860704728
S1133A2038800440080004400400044000000440BE
S1133A30FF2212EAD05C1DBF12EAD153944593428F
S1133A402BE09C44D30780EA01021A4043EA002099
S1133A5043EA0121A1FB0030410038BF40007CF162
S1133A607F010BDBFE294ADA5B0842EAC15153EAC3
S1133A70006373F1004C51EB10207047D1F1080C36
S1133A80DCF120012FDB5B0810FA01F10B4373F129
S1133A90004120FA0CF05041704794451CBF02EAE3
S1133AA0D153934280EA010202F000421DD040004B
S1133AB019D0490017D05BB9634514D00902B1FA93
S1133AC081F39940BCEB030CC00140F00040C1E716
S1133AD00002B0FA80FC10FA0CF0B3EB0C0CC90134
S1133AE041F00041B6E71000704740000AD0490099
S1133AF008D010F1807F94BF11F1807F02E042F082
S1133B00FF407047D04370474100090E7F3915D4F8
S1133B10D1F11F0114D4400007D2C00140F000408D
S1133B20C84048BF6FF000407047C00140F00040FB
S1133B30C8404CBF4FF000404042704700207047DF
S1133B4000424FF0004058BFC04370475FF0FF0C85
S1133B501CEAD05114BF614506E0C110400721F0B2
S1133B60E04101F16051704779B900F00041000271
S1133B700AD0B0FA80FC00FA0CF001F16051A1EB1C
S1133B800C5101EBD0214005704741020CBF40F4B9
S1133B90E0016FF000010020704750F8041B61B190
S1133BA050F8042BD30744BFA9F101039A1800234A
S1133BB042F8043B091FFAD1EFE7704770B44FF0A5
S1133BC0004591EA030C44BF6B4003F069BB00BF9E
S1133BD0841A71EB030603D2001BB141121973411D
S1133BE04FF4001C1CEB410F34BF7CEB430443E057
S1133BF00C0DA4EB1356352E50DC45EAC323DB0A27
S1133C0045EAC121C912B6F120050DDD63FA05F6B6
S1133C10EB4086EA0305124218BF45F00105C018BF
S1133C2051F100010CD213E062FA06F5F24055405E
S1133C30F3415A40B340F3405A408018594107D3E6
S1133C4049085FEA30005FEA350528BF45F0010501
S1133C5001F58011420875F1004250F1000041EB7A
S1133C60045170BC4FF4001C1CEB410F38BF70476B
S1133C700020090D090570471CEB410F10D252EAD0
S1133C8043060BD0BCEB410F05D80C0DAB43661EAD
S1133C90342EB5DD02E0AB438018594170BC704747
S1133CA070BC70474FEAF17CBCF1E04C2CBFBCF512
S1133CB0001F11E05FEA4C0C34BFBCF17F5F2EE0C3
S1133CC05FEA9C0C4FEA0C1C4FEA3C0CC10071F1FA
S1133CD000414CEB50707047C90241EA5051C00298
S1133CE018BF41F0010141F000414FEA6C50C0F1AE
S1133CF00900212810D240EACC7CCCF1200C11FA26
S1133D000CF070F10040CCF1200C21FA0CF00CF016
S1133D10004C40EB0C0070474FEACC7070474900F0
S1133D2011F5001F04D84FEACC10FF30C0057047CE
S1133D30C817704780B5012301220021DFF8000A6B
S1133D4002F0C2FC012301220121DFF8F40902F090
S1133D50BBFC012301220C21DFF8E80902F0B4FCCA
S1133D60012301220D21DFF8DC0902F0ADFC012062
S1133D7003F04CFB01BD10B5012301220021DFF843
S1133D80C00902F0A1FC02F061F801230122012123
S1133D90DFF8AC0902F098FC02F058F80023012285
S1133DA00021DFF89C0902F08FFC02F04FF8002399
S1133DB001220121DFF8880902F086FC002416E0C4
S1133DC002F044F802F042F8012301220121DFF855
S1133DD0700902F079FC02F039F802F037F8002398
S1133DE001220121DFF8580902F06EFC641CE4B2E0
S1133DF07F2CE5D302F02AF802F028F801230122EF
S1133E000121DFF83C0902F05FFC02F01FF802F028
S1133E101DF8002301220121DFF8240902F054FCDB
S1133E2010BD10B5012301220C21DFF8180902F09E
S1133E304BFC02F00BF8012301220D21DFF80409E9
S1133E4002F042FC02F002F8002301220C21DFF808
S1133E50F40802F039FC01F0F9FF002301220D21DE
S1133E60DFF8E00802F030FC002416E001F0EEFF79
S1133E7001F0ECFF012301220D21DFF8C80802F054
S1133E8023FC01F0E3FF01F0E1FF002301220D21F7
S1133E90DFF8B00802F018FC641CE4B27F2CE5D310
S1133EA001F0D4FF01F0D2FF012301220D21DFF83C
S1133EB0940802F009FC01F0C9FF01F0C7FF0023D8
S1133EC001220D21DFF87C0802F0FEFB10BD38B59D
S1133ED00400012301220021DFF8640802F0F4FB4E
S1133EE001F0B4FF012301220121DFF8540802F09C
S1133EF0EBFB01F0ABFF002301220021DFF84008B7
S1133F0002F0E2FB01F0A2FF002502E001F09EFFB7
S1133F106D1CEDB2962DF9D308220621012003F081
S1133F209CFA2070641C002301220121DFF8100890
S1133F3002F0CAFB00251DE001F088FF01F086FFB6
S1133F40012301220121DFF8F80702F0BDFB01F093
S1133F507DFF01F07BFF08220621012003F07DFA9A
S1133F602070641C002301220121DFF8D40702F031
S1133F70ABFB6D1CEDB27F2DDED301F067FF01F0CA
S1133F8065FF012301220121DFF8B40702F09CFB45
S1133F9001F05CFF01F05AFF002301220121DFF848
S1133FA0A00702F091FB31BD38B5040001230122C2
S1133FB00C21DFF8900702F087FB01F047FF012393
S1133FC001220D21DFF87C0702F07EFB01F03EFFA9
S1133FD0002301220C21DFF86C0702F075FB01F0CD
S1133FE035FF002502E001F031FF6D1CEDB2502DCC
S1133FF0F9D308220E21012003F02FFA2070641C4B
S1134000002301220D21DFF83C0702F05DFB0025AF
S11340101DE001F01BFF01F019FF012301220D2116
S1134020DFF8200702F050FB01F010FF01F00EFF53
S113403008220E21012003F010FA2070641C0023D2
S113404001220D21DFF8FC0602F03EFB6D1CEDB2EF
S11340507F2DDED301F0FAFE01F0F8FE01230122E8
S11340600D21DFF8E00602F02FFB01F0EFFE01F076
S1134070EDFE002301220D21DFF8C80602F024FB27
S113408031BD80B5DFF8C016802000F0A0F8DFF85D
S1134090BC160870DFF8B406007819214843802163
S11340A090FBF1F0DFF8A8160870DFF8A806008886
S11340B0DFF89C160978401ADFF89C160880DFF8B0
S11340C09806B0F90000DFF89416B1F90010C84260
S11340D006DADFF88C060078401EDFF884160870D4
S11340E0DFF87806B0F90000DFF86C16B1F90010BB
S11340F0884206DADFF868060078401CDFF86016AC
S11341000870DFF85C060078022803D2DFF8500656
S113411001210170DFF848060078142803D3DFF882
S113412040061421017001BD80B5DFF838168020E7
S113413000F04DF8DFF830160870DFF82C06007830
S113414019214843802190FBF1F0DFF82016087014
S1134150DFF800060088DFF814160978401ADFF843
S1134160F8150880DFF8F005B0F90000DFF8EC1569
S1134170B1F90010C84206DADFF8F4050078401EF1
S1134180DFF8EC150870DFF8D405B0F90000DFF8AB
S1134190C815B1F90010884206DADFF8D4050078B2
S11341A0401CDFF8CC150870DFF8C405007802283D
S11341B003D2DFF8BC0501210170DFF8B4050078F3
S11341C0032803D3DFF8A8050321017001BD10B44F
S11341D00023002204E00C7853FA84F3491C521C97
S11341E0D2B2C0B28242F6D39BB2C0B293FBF0F01B
S11341F0C0B210BC7047002801D54042FFE77047A9
S1134200F8B500240025002600200021DFF8382519
S1134210D279DFF860351A80DFF82C25D279DFF8FF
S113422058351A80072713E0FFB2DFF81C05385C05
S1134230DFF84415B1F9001000B2884207DA3800FB
S1134240FFB2DFF80415795CDFF82C2511807F1CA0
S1134250FFB2792F13D2DFF81C05B0F90000FFB2CA
S1134260DFF8E414795C09B28842DDDA3E00FFB27B
S1134270DFF8D404385CDFF8FC140880E7E7DFF8E3
S1134280F404B0F90000F6B2DFF8BC14711811F8A8
S1134290021C401A0B2836DBDFF8D804B0F9000002
S11342A0F6B2DFF8A41471188978401A0B282ADBB7
S11342B0F6B2DFF89404301810F8020CF6B2DFF806
S11342C0881471188978401AFFF795FF0A281ADABA
S11342D0F6B2DFF87404301810F8020CF6B2DFF806
S11342E068147118897851FA80F0022190FBF1F07A
S11342F0F6B2DFF854147054F6B2DFF84C04305CB4
S1134300DFF870140880DFF86C04B0F90000DFF8FF
S11343106814B1F900100818022190FBF1F0DFF8DD
S11343205C14088007270CE0DFF854040088FFB20F
S1134330DFF81414795C4018DFF8441408806D1C0D
S11343407F1CFFB2792F17D2FFB2DFF8FC03385C71
S1134350DFF82814B1F9001000B28842E4DBDFF87A
S113436024040088FFB2DFF8E013795C4018DFF81A
S113437014140880641CE3E7DFF80804B0F90000B3
S1134380E4B290FBF4F0DFF8FC130880DFF8F003EC
S1134390B0F90000EDB290FBF5F0DFF8E41308800B
S11343A0DFF8E003B0F90000DFF8D413B1F900102E
S11343B00818022190FBF1F0DFF8C01308800727EA
S11343C012E0DFF8C4030488FFB2DFF87C03385C32
S11343D0DFF8A813B1F90010401AFFF70CFF001919
S11343E0DFF8A41308807F1CFFB2782FE9D3DFF82D
S11343F09803B0F90000722190FBF1F0DFF8881304
S11344000880DFF88403B0F9000010284CDB07278C
S113441005E0FFB2DFF83003002139547F1CFFB2FE
S1134420792F10D2FFB2DFF82003385CDFF84C1389
S1134430B1F9001000B28842EBDBFFB2DFF80803E9
S113444001213954EAE7C048C079012809D100277D
S1134450FFB2082F0FD2FFB2BB48012139547F1C91
S1134460F6E7002704E0FFB2B748002139547F1C67
S1134470FFB2082FF7D3B44890F87800012809D187
S11344807827FFB2802F2ED2FFB2AF4801213954D2
S11344907F1CF6E77827FFB2802F24D2FFB2AA4808
S11344A0002139547F1CF6E7B748B0F90000102802
S11344B019DAB6480078AA490978884209D200274F
S11344C0FFB2802F0FD2FFB29F48002139547F1CC6
S11344D0F6E7002704E0FFB29B48012139547F1C12
S11344E0FFB2802FF7D303202CE0C0B29649415C81
S11344F0002910D1C0B29449411811F8011C0129B6
S113450009D1C0B2904941184978012903D1C0B2F8
S11345108D4901224254C0B28B49415C012910D11A
S1134520C0B28949411811F8011C002909D1C0B24F
S1134530854941184978002903D1C0B28249002233
S11345404254401CC0B27D28CFD3F1BDF8B504005D
S11345500025002600270020824949788C4A1180D2
S1134560804949788B4A118001210FE0C9B27D4806
S1134570085C884AB2F9002000B2904205DA0800CB
S1134580C9B2784A8A5C834B1A80491CC9B27F2914
S11345900FD27F48B0F90000C9B2724A8A5C12B2E5
S11345A09042E3DA0F00C9B26E48085C784A108082
S11345B0EBE77748B0F90000FFB26A49791811F8BF
S11345C0021C401A0B2829DB7148B0F90000FFB225
S11345D0644979188978401A0B281FDBFFB26148B7
S11345E0381810F8020CFFB25E4979188978401A1D
S11345F0FFF701FE0A2811DAFFB25A48381810F8FA
S1134600020CFFB25749791889780818FFB2554946
S11346107854FFB25348385C5D4908805C48B0F96F
S113462000005C49B1F900100818022190FBF1F078
S113463059490880002109E058480088C9B2494A0C
S11346408A5C8018554A1080761C491CC9B27F299F
S113465012D2C9B24348085C4F4AB2F9002000B2F2
S11346609042E9DB4E480088C9B23E4A8A5C801811
S11346704B4A10806D1CE8E74948B0F90000EDB2E0
S113468090FBF5F0464908804448B0F90000F6B2C2
S113469090FBF6F0414908804148B0F900003F49D9
S11346A0B1F900100818022190FBF1F03A49088092
S11346B0002103E000202070641C491CC9B2802939
S11346C009D22078344AB2F9002000B29042F1DBDA
S11346D001202070F0E703202CE0C0B22149415CA6
S11346E0002910D1C0B21F49411811F8011C012939
S11346F009D1C0B21B4941184978012903D1C0B27C
S1134700184901224254C0B21649415C012910D112
S1134710C0B21449411811F8011C002909D1C0B2D2
S1134720104941184978002903D1C0B20D4900222B
S11347304254401CC0B27D28CFD3F1BD000000001C
S113474000F10F4000F00F40AC06FF1FE608FF1F0A
S1134750E708FF1F1E04FF1F7608FF1F2004FF1F2A
S11347602204FF1F2C07FF1FE808FF1FE908FF1F93
S11347702304FF1FDA07FF1FDC07FF1FDE07FF1FED
S11347807C08FF1F7A08FF1F7808FF1F3C04FF1FE7
S11347903408FF1F3608FF1F3808FF1F8008FF1F5B
S11347A07E08FF1F10B50020DFF8B01DB1F900101E
S11347B04A1CDFF8A83D1A8009B2C92903DBDFF8D7
S11347C09C0DC92101800020DFF8941D00220A708D
S11347D0DFF8901D0978002903D1DFF88C0D002142
S11347E00170DFF8880D0078002803D1DFF8800D10
S11347F000210170792004E0DFF8781D00220A808E
S1134800401E00B2062825DB00B2DFF86C1D415CB7
S11348100129F1D100B2DFF8601D411811F8011C23
S11348200029E9D100B2DFF8501D411811F8021C2B
S11348300029E1D100B2DFF8401D411811F8031C32
S11348400029D9D1801EDFF8341D0880DFF8240D3B
S113485001210180062004E0DFF8241D00220A80E3
S1134860401C00B27A2822DA00B2DFF80C1D415C49
S11348700129F1D100B2DFF8001D4118497800295F
S1134880EAD100B2DFF8F01C411889780029E3D19D
S113489000B2DFF8E41C4118C9780029DCD1801C7F
S11348A0DFF8E01C0880DFF8D80C01210180DFF874
S11348B0C40CB0F90000012840F00781DFF8C00CF7
S11348C0B0F90000012840F00081DFF8BC0C00883A
S11348D0401CDFF8B41C0880DFF8B00C0021018014
S11348E0DFF8AC0C00210180DFF8A80C0021018066
S11348F0DFF8A40C00210170DFF8880CB0F9000087
S1134900DFF8781CB1F90010884280F2A180DFF84A
S11349104C0CB0F90000C928C0F28D80DFF87C0C83
S1134920007801283ED1DFF8380CDFF8701C0978D4
S11349300170DFF86C0CB0F9000001280FD1DFF82A
S1134940640CB0F90000002809D1DFF8300C0088AD
S1134950DFF8541C09880818DFF8281C0880DFF8E1
S1134960400CB0F9000000280FD1DFF8380CB0F982
S11349700000012809D1DFF80C0C0088DFF8281C9E
S11349800988401ADFF8F41B0880DFF8E80BDFF829
S1134990101C09880180DFF8E80BDFF8081C09887F
S11349A001809CE2DFF8DC0BB0F90000DFF8D41BD7
S11349B0B1F900100818DFF8F01BB1F90010401A23
S11349C0022190FBF1F0DFF8E41BB1F90010401A6A
S11349D0FFF711FC0400DFF8A40BB0F90000DFF8C6
S11349E09C1BB1F900100818DFF8BC1BB1F90010CA
S11349F04018022190FBF1F0DFF8B01BB1F9001070
S1134A00401AFFF7F8FB84420ADADFF8780B0088D3
S1134A10DFF8941B0988401ADFF8601B08805EE207
S1134A20DFF8580B0088DFF8801B09880818DFF8C6
S1134A30541B088053E2DFF8440BDFF83C1D09885F
S1134A400180DFF8400BDFF8681B0988018046E22B
S1134A50DFF8300BB0F90000DFF8201BB1F90010CB
S1134A60401ADFF8441BB1F900100A3988422BDAE6
S1134A70DFF8080BB0F90000DFF8081BB1F90010EB
S1134A800818022190FBF1F03F280EDADFF8F40A4F
S1134A900088DFF81C1B0988401ADFF8DC1C098831
S1134AA00818DFF8D81A088019E2DFF8D00A00885D
S1134AB0DFF8FC1A09880818DFF8BC1C0988401ABA
S1134AC0DFF8C01A08800AE209E2DFF8A80AB0F9A0
S1134AD00000012840F08180DFF8A40AB0F900004A
S1134AE000287AD1DFF8A00A00210180DFF89C0AAF
S1134AF00088401CDFF8941A0880DFF8940A00212B
S1134B000180DFF8900A00210180DFF8A40AB0F9DF
S1134B100000DFF8681AB1F9001088420CDADFF8F7
S1134B205C0ADFF8541C09880180DFF8580ADFF8B2
S1134B30801A09880180D2E1DFF8740AB0F9000014
S1134B40DFF8381AB1F900108842C0F2C881DFF8E2
S1134B502C0AB0F90000DFF8501AB1F90010D1F1B5
S1134B60750188422ADADFF8080A01210170DFF8AA
S1134B70440ADFF8081C09880180DFF8000CDFF81C
S1134B80001C09880180DFF8F80BDFF8F81B09889E
S1134B900180DFF8F00BDFF8E41909880180DFF801
S1134BA0DC090088DFF8081A09880818DFF8C81B30
S1134BB00988401ADFF8CC19088090E1DFF8BC09B5
S1134BC00088DFF8EC1909880818DFF8AC1B09889D
S1134BD0401ADFF8B019088081E1DFF89809B0F9CC
S1134BE00000002840F08080DFF89409B0F900004C
S1134BF0012879D1DFF8900900210180DFF88C09C0
S1134C0000210180DFF888090088401CDFF8801942
S1134C100880DFF8800900210180DFF86809B0F915
S1134C200000DFF8541BB1F9001088420CDADFF8F9
S1134C304C09DFF8441B09880180DFF84809DFF8D4
S1134C407019098801804AE1DFF83809B0F90000D9
S1134C50DFF8241BB1F900108842C0F24081DFF86C
S1134C604809B0F900000A30DFF81819B1F900104A
S1134C7088422ADADFF8F00801210170DFF8080B16
S1134C80DFF8081B09880180DFF8000BDFF8001B40
S1134C9009880180DFF8F80ADFF8F81A098801802A
S1134CA0DFF8F00ADFF8DC1809880180DFF8D4089F
S1134CB00088DFF8FC180988401ADFF8BC1A098854
S1134CC00818DFF8B818088009E1DFF8B808008888
S1134CD0DFF8DC180988401ADFF89C1A09880818DC
S1134CE0DFF898180880FAE0DFF888080088DFF811
S1134CF090180988084300B2002840F0F080DFF8DB
S1134D00980A0078DFF8941A0978884280F08F8036
S1134D10DFF84C0801210170DFF85808DFF880182B
S1134D2009880180DFF85808DFF8781809880180BD
S1134D30DFF86C080088DFF86C180988084300B2B3
S1134D4000280CD1DFF83408DFF82C1A0988018018
S1134D50DFF83008DFF8581809880180ACE0DFF884
S1134D604008B0F90000002821D1DFF83808B0F974
S1134D70000001281BD1DFF81808B0F9000015283D
S1134D80C0F29A80DFF8F0090088DFF8141A098865
S1134D90401ADFF8E8170880DFF814080088DFF805
S1134DA0001A0988401ADFF8DC17088084E0DFF86D
S1134DB0F007B0F90000012820D1DFF8E807B0F9C6
S1134DC0000000281AD1DFF8C407B0F90000152844
S1134DD072DBDFF8A4090088DFF85C1B0988081877
S1134DE0DFF898170880DFF8C8070088DFF8481B49
S1134DF009880818DFF88C1708805DE0DFF8A00741
S1134E00B0F90000012857D1DFF89807B0F9000085
S1134E10012851D1DFF86407DFF85C1909880180A3
S1134E20DFF86007DFF888170988018044E0DFF8BD
S1134E306C090078DFF86019097888423CD2DFF801
S1134E403809B0F90000DFF86817B1F90010081844
S1134E50022190FBF1F0DFF8E41AB1F9001081426D
S1134E600CDADFF81807DFF8101909880180DFF879
S1134E701407DFF83C17098801801DE0DFF8F80803
S1134E80B0F90000DFF82817B1F900100818022162
S1134E9090FBF1F0DFF8A41AB1F9001081420BDBAA
S1134EA0DFF8D806DFF8D01809880180DFF8D406C7
S1134EB0DFF8FC1609880180DFF8CC0600210180A8
S1134EC0DFF8C80600210180DFF8C4060021018054
S1134ED0DFF8C0060088401CDFF8B8160880DFF849
S1134EE0BC06DFF87C1609780170DFF89808B0F981
S1134EF00000DFF88C18B1F900100818DFF87C18EE
S1134F00B1F900104018032190FBF1F0DFF8301ADA
S1134F100880DFF87008B0F90000DFF8241AB1F94E
S1134F200010401ADFF85C18B1F90010DFF8102AFD
S1134F30B2F90020891ADFF84828B2F90020DFF816
S1134F40003AB3F90030D21ADFF83438B3F900303C
S1134F50DFF8EC49B4F900401B1B5A4301FB002065
S1134F60DFF81818B1F90010DFF8D429B2F90020DD
S1134F70891ADFF80828B2F90020DFF8C439B3F938
S1134F800030D21A02FB0100032190FBF1F0DFF89C
S1134F90B4190880DFF8FC07B0F90000DFF8F01757
S1134FA0B1F900100818DFF8E417B1F9001040183F
S1134FB0032190FBF1F0DFF890190880DFF8D407A3
S1134FC0B0F90000DFF88019B1F90010401ADFF8D9
S1134FD0C417B1F90010DFF87029B2F90020891A5A
S1134FE0DFF8AC27B2F90020DFF85C39B3F9003000
S1134FF0D21ADFF89C37B3F90030DFF84C49B4F922
S113500000401B1B5A4301FB0020DFF88017B1F955
S11350100010DFF83429B2F90020891ADFF86C2770
S1135020B2F90020DFF82039B3F90030D21A02FBBC
S11350300100032190FBF1F0DFF810190880DFF87C
S11350403C050088DFF830170988401ADFF8281774
S113505009880818DFF8F8180988401ADFF8F018EA
S113506009880818DFF8EC180988401ADFF8E818EE
S11350700880DFF810050088DFF834150988401A25
S1135080DFF82C1509880818DFF8D0180988401AA9
S1135090DFF8C81809880818DFF8C4180988401A06
S11350A0DFF8C0180880DFF8D404B0F90000DFF896
S11350B0B818B1F90010401ADFF8C014B1F90010A3
S11350C0DFF8A428B2F90020891ADFF8AC26B2F977
S11350D00020DFF89438B3F90030D21ADFF898369C
S11350E0B3F90030DFF88048B4F900401B1B5A4381
S11350F001FB0020DFF85818B1F90010DFF8682828
S1135100B2F90020891ADFF84828B2F90020DFF844
S11351105838B3F90030D21A02FB0100032190FB86
S1135120F1F0DFF848180880DFF85804B0F90000FF
S1135130DFF83C18B1F90010401ADFF84814B1F94F
S11351400010DFF82C28B2F90020891ADFF8602457
S1135150B2F90020DFF81838B3F90030D21ADFF8BA
S11351605034B3F90030DFF80848B4F900401B1B91
S11351705A4301FB0020DFF8E417B1F90010DFF80F
S1135180F027B2F90020891ADFF8D027B2F90020FD
S1135190DFF8DC37B3F90030D21A02FB0100032137
S11351A090FBF1F0DFF8CC170880DFF8CC0700782B
S11351B0012840F0E280DFF8B8030078012860D1CC
S11351C0DFF8B8070088401CDFF8B0170880DFF864
S11351D0AC07B0F90000042853DBDFF8A007B0F9EE
S11351E00000001F80B2382835D2DFF8BC03B0F9C4
S11351F00000401DDFF8B813B1F90010DFF878257E
S1135200B2F90020891A884203DBDFF87407012110
S11352100170DFF86C070078012832D1D3480121EE
S11352200170DFF85807B0F90000142829DADE48C5
S1135230B0F90000022190FBF1F0D0F18200CF49D7
S11352400880D948B0F90000022190FBF1F08230C7
S1135250CC49088015E0DFF8240700210180C44808
S113526000210170DFF8180700210170BF480021F8
S11352700170DFF8100700210180DFF80C0701211D
S11352800170BB480078B94909780843C0B20028C6
S113529003D1DFF8E80600210180B3480078012833
S11352A05FD1DFF82C0B0088401CDFF8241B08803A
S11352B0DFF81C0BB0F90000042852DBDFF8100BF8
S11352C0B0F90000001F80B2382834D2B648B0F9D3
S11352D00000401DB649B1F90010DFF89C24B2F972
S11352E00020891A884203DBDFF8E80A01210170F3
S11352F0DFF8E00A0078012833D19A4801210170CF
S1135300DFF8CC0AB0F9000014282ADA7FF0020092
S1135310A549B1F90010022291FBF2F1401A974914
S11353200880A148B0F90000022190FBF1F0C01EF2
S11353309449088015E0DFF8980A002101808A4822
S113534000210170DFF88C0A0021017085480021DA
S11353500170DFF8300600210180DFF82C060121FE
S11353600170814800787F4909780843C0B2002859
S113537003D1DFF85C0A002101808048B0F9000005
S11353808049B1F900100818022190FBF1F0DFF810
S1135390481A0880DFF8400A0088DFF8A015098859
S11353A0401ADFF8381A08808048DFF82C1A098878
S11353B001807B486F49098801807A4870490988CF
S11353C00180DFF81C0ADFF81C1A09880180DFF865
S11353D0180ADFF8181A09880180DFF8080ADFF8CC
S11353E0741509880180DFF8040ADFF87415098848
S11353F00180DFF86005DFF8581509880180DFF8BF
S11354006005DFF8581509880180DFF84405DA499A
S113541009880180DFF84405654909880180D64878
S11354205649098801806248564909880180DFF895
S1135430C009DFF8C01909880180DFF8B809DFF86E
S1135440B81909880180DFF8B009DFF8B0190988B4
S11354500180DFF8A809DFF8A81909880180DFF8BE
S1135460A009DFF8A01909880180DFF89809DFF89E
S1135470981909880180DFF89009DFF890190988E4
S11354800180DFF88809DFF8881909880180DFF8CE
S11354908009DFF8801909880180DFF87809DFF8CE
S11354A03C1909880180DFF86C090088DFF860196D
S11354B00988401ADFF860190880DFF85409008869
S11354C0DFF848190988401ADFF850190880DFF816
S11354D03C090088DFF830190988401ADFF84019C0
S11354E00880DFF824090088DFF818190988401AB1
S11354F0DFF830190880DFF80C090088DFF800199C
S11355000988401ADFF820190880DFF8F4080088B9
S1135510DFF8E8180988401ADFF810190880DFF866
S1135520DC080088DFF8D0180988401ADFF8001971
S11355300880DFF8C4080088DFF8B8180988401A22
S1135540DFF8F0180880DFF8AC080088DFF8A0184E
S11355500988401ADFF8981B088010BDAA08FF1FAD
S1135560F308FF1FED08FF1FEC08FF1FEE08FF1FE5
S1135570EB08FF1FB008FF1FAC06FF1FD807FF1F73
S1135580B208FF1F1404FF1FB408FF1FB608FF1F53
S1135590B808FF1FBA08FF1FEA08FF1FF408FF1F1F
S11355A0AC08FF1FAE08FF1FF807FF1FFC07FF1F13
S11355B0E607FF1FA008FF1F30B4032006210022C6
S11355C0DFF8743800241C80DFF8703800241C8055
S11355D0DFF8943B00241C800B1A5B1C1A00DFF8D4
S11355E06038DFF8F84724881C8064230CE0DBB2C1
S11355F0DFF84C4814EB430434F8024CDBB2DFF818
S1135600405825F813405B1EDBB2012BEFD2002378
S11356100CE0DFF830482488DBB2DFF8245835F892
S113562013502C19DFF81C582C805B1CDBB2032BA5
S1135630EFD3DFF81038B3F90030032493FBF4F30D
S1135640DFF800482380002310E0DBB2DFF8F047E6
S113565034F81340DBB2DFF8E85735F813506C43E5
S1135660DBB2DFF8E45725F813405B1CDBB2032BF5
S1135670EBD300230CE0DFF8C0472488DBB2DFF86B
S1135680C85735F813502C19DFF8AC572C805B1C25
S1135690DBB2032BEFD3DFF8A037B3F900300324D8
S11356A093FBF4F3DFF894472380DFF89837002462
S11356B01C80002306E0DBB2DFF88C47002524F8C9
S11356C013505B1CDBB2052BF5D3DFF86C370024D9
S11356D01C8003000CE0DFF86C472488DBB2DFF8A1
S11356E0605735F813502C19DFF858572C805B1C81
S11356F0DBB2C9B28B42EED3DFF84837B3F90030DE
S1135700C9B293FBF1F3DFF83C472380030010E0B8
S1135710DBB2DFF82C4734F81340DBB2DFF8205754
S113572035F813506C43DBB2DFF81C5725F81340EF
S11357305B1CDBB2C9B28B42EAD303000CE0DFF896
S1135740F8060088DBB2DFF8004734F8134020186D
S1135750DFF8E44620805B1CDBB2C9B28B42EED397
S1135760DFF8D406B0F90000D2B290FBF2F0DFF813
S1135770F819088030BC7047E407FF1F9E08FF1F1C
S11357809C08FF1F9A08FF1F9808FF1F9608FF1F19
S11357909408FF1F9208FF1F2204FF1F3C04FF1FF1
S11357A02404FF1F30B58BB00024002505A8142164
S11357B001F01AFF00A8142101F016FF7E2022E058
S11357C000B2DFF830194118497801291AD100B222
S11357D0DFF82019415C012914D100B2DFF8141953
S11357E0411811F8011C00290CD100B2DFF804198A
S11357F0411811F8021C002904D124B205A921F88A
S11358001400641C401E00B20228D9DA012021E0F1
S113581000B2DFF8E018411811F8011C012918D171
S113582000B2DFF8D018415C012912D100B2DFF8D0
S1135830C4184118497800290BD100B2DFF8B41814
S113584041188978002904D12DB200A921F8150046
S11358506D1C401C00B27E28DADB24B2032C48D134
S11358602DB2032D45D1BDF81600BDF80010401A25
S1135870DFF8F8180880BDF81400BDF80210401ACB
S1135880DFF8EC180880BDF91600BDF9021001FA22
S113589080F0022190FBF1F0DFF8D8180880DFF8DF
S11358A0CC08B0F90000DFF8C818B1F90010401AAC
S11358B0FEF7A1FC05281CDADFF8BC08B0F90000EB
S11358C0DFF8B018B1F90010401AFEF794FC05286F
S11358D00FDADFF89808B0F900000F2809DBDFF8C9
S11358E09008B0F900000F2803DBDFF890080121CD
S11358F00180DFF88808B0F90000012819D1DFF829
S11359008008B0F90000411CDFF87428118000B24F
S11359101A280EDBDFF8680800210180DFF85C0834
S113592000210180DFF880090088401CDFF8781925
S113593008800BB030BD00002604FF1F0608FF1FBF
S1135940A408FF1FA608FF1FA208FF1FA808FF1F27
S1135950E807FF1FEC07FF1FE007FF1FEA07FF1F11
S1135960EE07FF1FE207FF1F0208FF1FFE07FF1FCE
S11359701604FF1F0008FF1FF208FF1F8408FF1F03
S1135980F008FF1F8208FF1FF108FF1F10B4002357
S113599000210B007E2101E00022491E09B20429E6
S11359A022DB09B2DFF84C278A5C012AF4D109B260
S11359B0DFF840278A1812F8012C002AECD109B22A
S11359C0DFF830278A1812F8022C002AE4D109B231
S11359D0DFF820278A1812F8032C002ADCD18A1E4B
S11359E0DFF8C8381A800122012301E000205B1C83
S11359F01BB27B2B1FDA1BB2DFF8F806185C0128F8
S1135A00F4D11BB2DFF8EC06181840780028EDD169
S1135A101BB2DFF8E006181880780028E6D11BB224
S1135A20DFF8D0061818C0780028DFD1981CDFF8FA
S1135A3080482080012012B2012A5AD100B20128E4
S1135A4057D1DFF87008B0F90000DFF86C28B2F91C
S1135A500020801A2E283FDBDFF85408B0F900003C
S1135A60DFF84828B2F90020904280F2E780DFF89E
S1135A704C08B0F90000DFF83828B2F90020801A89
S1135A801F280EDB881EDFF824180880DFF81C08A6
S1135A900088DFF82C1809880818DFF81418088023
S1135AA0CCE0DFF80808B0F90000DFF81818B1F905
S1135AB00010401A1F28C0F2C180981CDFF8F017AC
S1135AC00880DFF8EC070088DFF8F4170988401A2B
S1135AD0DFF8D8170880B1E0DFF8D007DFF8E41763
S1135AE009880180DFF8C807DFF8D017098801802A
S1135AF0A4E012B2012A3CD100B2002839D1DFF867
S1135B00B407B0F90000DFF8B017B1F90010401A7B
S1135B102E2821DBDFF8A407B0F90000DFF88C178A
S1135B20B1F9001088420CDADFF88007DFF8941727
S1135B3009880180DFF87807DFF880170988018079
S1135B407CE0DFF868070088DFF874170988081814
S1135B50DFF85C17088071E0DFF85007DFF864179E
S1135B6009880180DFF84807DFF8501709880180A9
S1135B7064E012B2002A3CD100B2012839D1DFF826
S1135B803407B0F90000DFF83017B1F90010401AFB
S1135B902E2821DBDFF81807B0F90000DFF82417FE
S1135BA0B1F9001088420CDADFF80007DFF81417A7
S1135BB009880180DFF8F806DFF8001709880180FA
S1135BC03CE0DFF804070088DFF8F4160988401A7F
S1135BD0DFF8D816088031E0DFF8D006DFF8E416E5
S1135BE009880180DFF8C806DFF8D016098801802B
S1135BF024E0104300B2002820D1DFF8C806B0F931
S1135C000000402805DADFF8B406B0F900004028A7
S1135C100CDADFF89806DFF8AC1609880180DFF8A3
S1135C209006DFF898160988018007E0DFF87C0603
S1135C3000210180DFF878067F210180DFF86C06FF
S1135C40B0F90000DFF86816B1F900100818022155
S1135C5090FBF1F0DFF874160880DFF87006008816
S1135C60DFF814150988401ADFF864160880DFF895
S1135C705406DFF8381609880180DFF84006DFF89B
S1135C80301609880180DFF84C06DFF838160988D9
S1135C900180DFF82009DFF8241609880180DFF885
S1135CA01809DFF8181909880180DFF81009DFF8EE
S1135CB0101909880180DFF80809DFF80819098834
S1135CC00180DFF80009DFF8001909880180DFF896
S1135CD0F808DFF8F81809880180DFF8F008DFF821
S1135CE0F01809880180DFF8E808DFF8E818098867
S1135CF00180DFF8E008DFF8E01809880180DFF8A8
S1135D00D808DFF8D81809880180DFF8D008DFF850
S1135D10C01509880180DFF8C4080088DFF8B818C6
S1135D200988401ADFF8B8180880DFF8AC08008842
S1135D30DFF8A0180988401ADFF8A8180880DFF8EF
S1135D4094080088DFF888180988401ADFF8981842
S1135D500880DFF87C080088DFF870180988401A8A
S1135D60DFF888180880DFF864080088DFF858181E
S1135D700988401ADFF878180880DFF84C08008892
S1135D80DFF840180988401ADFF868180880DFF83F
S1135D9034080088DFF828180988401ADFF85818F2
S1135DA00880DFF81C080088DFF810180988401AFA
S1135DB0DFF848180880DFF804080088DFF8F817CF
S1135DC00988401ADFF83818088010BC70470000B2
S1135DD08608FF1FEF08FF1FFA07FF1F0A08FF1FAF
S1135DE0F407FF1FF007FF1FF607FF1FF207FF1F4F
S1135DF01E08FF1F1C08FF1F1A08FF1F1808FF1F9B
S1135E001608FF1F1408FF1F1208FF1F1008FF1FAA
S1135E100E08FF1F0C08FF1F2008FF1F2208FF1F8A
S1135E202408FF1F2608FF1F2808FF1F2A08FF1F3A
S1135E302C08FF1F2E08FF1F8C08FF1F8E08FF1F52
S1135E401405FF1F8A08FF1FDC05FF1F81B0002017
S1135E508DF8000006E000BF00BF9DF80000401C64
S1135E608DF800009DF800000128F4D301B07047BC
S1135E7010B5DFF89007DFF8941709680160DFF8C0
S1135E809007DFF8841709880180DFF88407B0F9E8
S1135E900000652803DBDFF8780764210180DFF860
S1135EA07007B0F900007FF06301884204DADFF87C
S1135EB060077FF063010180DFF85407B0F9000048
S1135EC001F020F9DFF84C170968FDF7B1FDDFF8A0
S1135ED048170860DFF8400701680020FDF7A8FDB7
S1135EE0DFF834170968FDF7A3FDDFF82C170968FC
S1135EF0FDF79EFD0100DFF82007006801F01AF9A4
S1135F000400DFF814070168DFF81007FDF790FDBF
S1135F10DFF804170968FDF78BFDDFF8FC16096844
S1135F20FDF786FDDFF8F0160968FDF781FDDFF85F
S1135F30E8160968FDF77CFD210001F06FF9FDF713
