S021000050452056312E3420323031342E30352E31372077616E64616F2E73726563BB
S1130000F8FF002011040000874500008745000028
S113001087450000874500008745000087450000AC
S1130020874500008745000087450000874500009C
S1130030874500008745000087450000874500008C
S1130040874500008745000087450000874500007C
S1130050874500008745000087450000874500006C
S1130060874500008745000087450000874500005C
S1130070874500008745000087450000874500004C
S1130080874500008745000087450000874500003C
S1130090874500008745000087450000874500002C
S11300A0874500008745000087450000874500001C
S11300B0874500008745000087450000874500000C
S11300C087450000874500008745000087450000FC
S11300D087450000874500008745000087450000EC
S11300E087450000874500008745000087450000DC
S11300F087450000874500008745000087450000CC
S113010087450000874500008745000087450000BB
S113011087450000874500008745000087450000AB
S1130120874500008745000087450000874500009B
S1130130874500008745000087450000874500008B
S1130140874500008745000087450000874500007B
S1130150655E000087450000874500008745000074
S1130160874500008745000087450000874500005B
S1130170874500008745000087450000874500004B
S1130180874500008745000087450000874500003B
S1130190874500008745000087450000874500002B
S1130400FFFFFFFFFFFFFFFFFFFFFFFFFEFFFFFFF9
S11304104FF000004FF000014FF000024FF00003D6
S11304204FF000044FF000054FF000064FF00007B6
S11304304FF000084FF000094FF0000A4FF0000B96
S11304404FF0000C62B605F095FDFEE738B50024C8
S11304500025DFF8C417002003E000220A70491CBD
S1130460401CC0B28A28F8D302F076F9DFF8AC2732
S11304700021002002F0EBFBDFF8A42700213C2040
S113048002F0E5FBDFF89C270221002002F0DFFBED
S1130490DFF894270421002002F0D9FBDFF88C2731
S11304A004213C2002F0D3FBDFF88427062100203E
S11304B002F0CDFB02F08EFC02F0CCFCDFF87417E6
S11304C008706E2002F04EFEDFF8680700780128FD
S11304D040F0A080DFF85C07FF210170DFF85807C7
S11304E00121017002F08BFA8CE0D4A200210020DB
S11304F002F0ADFBDFF844070068DFF8F01D02F0FE
S113050055FE02F0BFFE80B2020000213C2002F042
S1130510F2FBECA20221002002F099FBDFF8302E5E
S113052002213C2002F093FBE7A20421002002F008
S11305308EFBDFF8202E04213C2002F088FBEAA287
S11305400621002002F083FBDFF80C2E06213C205C
S113055002F07DFB6E2002F005FE02F03BFC02F08F
S113056079FCDFF8F81D0870DFF8F00D0078FF283B
S113057005D0DFF8C006DFF8E41D09780170DFF864
S1130580B4060078072813D1DFF8B006006802F03B
S11305909BFEDFF81C2EDFF81C3E02F0CDFE02F0BD
S11305A03FFFDFF898160860DFF88806FF21017026
S11305B0DFF880060078082813D1DFF88006006889
S11305C002F082FEDFF8E82DDFF80C3E02F0B4FE04
S11305D002F026FFDFF864160860DFF85806FF21F2
S11305E00170DFF85006007809280BD1DFF84806BF
S11305F0FF210170DFF83C06FF210170DFF85C0D7C
S1130600FF210170DFF83006007801283FF46DAF58
S113061002F0F5F9DFF81C060078022840F09C800F
S1130620DFF81006FF210170DFF80C0602210170CB
S113063002F0E5F988E06E2002F094FD02F0CAFBB6
S113064002F008FCDFF8141D0870DFF8100D0078C4
S1130650FF2805D0DFF8DC05DFF8001D09780170FC
S1130660DAA20021002002F0F2FADFF8D4050068D3
S1130670DFF8781C02F09AFD02F004FE80B202005A
S113068000213C2002F037FB8EA20221002002F060
S1130690DEFADFF8A82D02213C2002F0D8FA8AA263
S11306A00421002002F0D3FADFF8942D04213C2029
S11306B002F0CDFA8CA20621002002F0C8FADFF87D
S11306C0842D06213C2002F0C2FADFF86805007888
S11306D0072813D1DFF86805006802F0F5FDDFF89C
S11306E0D02CDFF8D03C02F027FE02F099FEDFF8B0
S11306F050150860DFF83C05FF210170DFF8340570
S11307000078082813D1DFF83805006802F0DCFD12
S1130710DFF89C2CDFF8C03C02F00EFE02F080FEF5
S1130720DFF81C150860DFF80C05FF210170DFF805
S113073004050078092807D1DFF8FC04FF210170C3
S1130740DFF8F004FF210170DFF8EC0400780228E0
S11307503FF471AF02F053F9DFF8D80400780328AE
S113076040F08780DFF8CC04FF210170DFF8C80473
S11307700321017002F043F974E06E2002F0F2FCF0
S113078002F028FB02F066FBDFF8D01B0870DFF8EC
S1130790CC0B0078FF2805D0DFF89804DFF8BC1BE9
S11307A009780170DFF8A02C0021002002F04FFA34
S11307B0DFF8980CB0F9002000213C2002F09BFAED
S11307C040A20221002002F042FADFF8702C02213C
S11307D03C2002F03CFA3CA20421002002F037FA4B
S11307E0DFF85C2C04213C2002F031FA3EA2062101
S11307F0002002F02CFADFF84C2C06213C2002F0F9
S113080026FADFF83004007807280AD1DFF83C0C18
S11308100088401CDFF8341C0880DFF81804FF212E
S11308200170DFF81004007808280ED1DFF81C0CE2
S11308300088401EDFF8141C02E000BF4B703A0031
S11308400880DFF8F003FF210170DFF8E803007887
S1130850092807D1DFF8E003FF210170DFF8D40392
S1130860FF210170DFF8D0030078032885D002F05F
S1130870C6F8DFF8C0030078042840F08380DFF86E
S1130880B403FF210170DFF8B0030421017002F00A
S1130890B6F871E06E2002F065FC02F09BFA02F0FB
S11308A0D9FADFF8B81A0870DFF8B00A0078FF2820
S11308B005D0DFF88003DFF8A41A09780170DFF8A7
S11308C0902B03E02B3A00002D3A00000021002079
S11308D002F0BDF9DFF87C0BB0F9002000213C20C8
S11308E002F009FAC9A201E052653A00022100208F
S11308F002F0ADF9DFF8442B02213C2002F0A7F905
S1130900C3A20421002002F0A2F9DFF8342B042151
S11309103C2002F09CF9BFA20621002002F097F9C6
S1130920DFF8202B06213C2002F091F9C148007821
S1130930072809D1DFF81C0B0088401CDFF8141BC2
S11309400880BC48FF210170BA480078082809D102
S1130950DFF8000B0088401EDFF8F81A0880B5485D
S1130960FF210170B3480078092805D1B248FF215E
S11309700170B048FF210170AF480078042889D085
S113098002F03DF8AB48007805287AD1A948FF2148
S11309900170A9480521017002F031F86BE06E2066
S11309A002F0E0FB02F016FA02F054FADFF8AC1998
S11309B00870DFF8A8090078FF2804D09D48DFF804
S11309C09C1909780170DFF8902A01E04B643A0021
S11309D00021002002F03BF9DFF8800AB0F9002082
S11309E000213C2002F087F988A20221002002F0B5
S11309F02EF9DFF8482A02213C2002F028F984A2CB
S1130A000421002002F023F9DFF8342A04213C20D9
S1130A1002F01DF97FA20621002002F018F9DFF888
S1130A20242A06213C2002F012F982480078072883
S1130A3009D1DFF8280A0088401CDFF8201A088052
S1130A407C48FF2101707B480078082809D1DFF831
S1130A500C0A0088401EDFF8041A08807548FF213C
S1130A60017074480078092805D17348FF2101708A
S1130A707048FF2101707048007805288FD001F07C
S1130A80BEFF6C480078062877D16A48FF210170C0
S1130A9069480621017001F0B2FF68E06E2002F09F
S1130AA061FB02F097F902F0D5F9DFF8B01808708D
S1130AB0DFF8A8080078FF2804D05E48DFF89C1807
S1130AC009780170DFF898290021002002F0BFF8AE
S1130AD0DFF89009B0F9002000213C2002F00BF966
S1130AE04AA20221002002F0B2F8DFF850290221C4
S1130AF03C2002F0ACF846A20421002002F0A7F842
S1130B00DFF83C2904213C2002F0A1F841A206218F
S1130B10002002F09CF8DFF82C2906213C2002F08A
S1130B2096F844480078072809D1DFF83809008886
S1130B30401CDFF8301908803E48FF2101703D4811
S1130B400078082809D1DFF81C090088401EDFF866
S1130B50141908803748FF210170364800780928A5
S1130B6005D13548FF2101703248FF210170324818
S1130B700078062892D001F042FF2E4800780A2817
S1130B807FF474AC2B48FF21017001F038FF4FF45F
S1130B90FA7002F0E7FADFF8D0280021002002F012
S1130BA056F8DFF8C8280221002002F050F8DFF8D8
S1130BB0C0280421002002F04AF8DFF8B8280021F8
S1130BC0462002F044F8DFF8B0280221462002F063
S1130BD03EF8DFF8A8280421462002F038F802F095
S1130BE0F9F802F037F9134908706E2002F0BAFAE6
S1130BF010480078012840F0BB800E48FF210170A6
S1130C000D480121017001F0FAFEA9E02B3A000021
S1130C102D3A000052653A009006FF1FF46100006F
S1130C20FC610000046200000C6200001462000019
S1130C301C6200007004FF1F7204FF1F2404FF1FC6
S1130C402C04FF1FDFF838280021002001F0FFFFEB
S1130C50DFF830080068DFF8941602F0A7FA02F013
S1130C6011FB80B2020000213C2002F044F8D7A21C
S1130C700221002001F0EBFFDFF8D42602213C2002
S1130C8001F0E5FFD2A20421002001F0E0FFDFF82B
S1130C90C42604213C2001F0DAFFCEA20621002064
S1130CA001F0D5FFDFF8B02606213C2001F0CFFF8C
S1130CB06E2002F057FA02F08DF802F0CBF8DFF85C
S1130CC09C160870DFF894060078FF2805D0DFF83A
S1130CD0B807DFF8881609780170DFF8AC070078E8
S1130CE0072813D1DFF89C07006802F0EDFADFF85B
S1130CF0C026DFF8C03602F01FFB02F091FBDFF8DC
S1130D0084170860DFF88007FF210170DFF8780797
S1130D100078082813D1DFF86C07006802F0D4FAD1
S1130D20DFF88C26DFF8B03602F006FB02F078FB21
S1130D30DFF850170860DFF85007FF210170DFF873
S1130D404807007809280BD1DFF84007FF2101701C
S1130D50DFF83407FF210170DFF80006FF2101707E
S1130D60DFF82807007801283FF46CAF01F047FE54
S1130D70DFF814070078022840F09D80DFF80807A8
S1130D80FF210170DFF804070221017001F037FE32
S1130D9089E06E2002F0E6F902F01CF802F05AF83D
S1130DA0DFF8B8150870DFF8B4050078FF2805D01F
S1130DB0DFF8D406DFF8A41509780170DFF8D0262F
S1130DC00021002001F043FFDFF8C8060068DFF8C7
S1130DD01C1502F0EBF902F055FA80B20200002172
S1130DE03C2001F088FF79A20221002001F02FFFAE
S1130DF0DFF8482602213C2001F029FF74A20421D7
S1130E00002001F024FFDFF8382604213C2001F003
S1130E101EFF70A20621002001F019FFDFF824262E
S1130E2006213C2001F013FFDFF85C060078072858
S1130E3013D1DFF86006006802F046FADFF8702587
S1130E40DFF8703502F078FA02F0EAFADFF84416B7
S1130E500860DFF83406FF210170DFF82C06007803
S1130E60082813D1DFF82C06006802F02DFADFF809
S1130E704025DFF8643502F05FFA02F0D1FADFF8BA
S1130E8014160860DFF80006FF210170DFF8F8058A
S1130E900078092807D1DFF8F405FF210170DFF895
S1130EA0E805FF210170DFF8E405007802283FF42B
S1130EB070AF01F0A4FDDFF8D0050078032840F0FE
S1130EC0A580DFF8C405FF210170DFF8C005032108
S1130ED0017001F094FD91E06E2002F043F901F0FD
S1130EE079FF01F0B7FFDFF874140870DFF86C04C1
S1130EF00078FF2805D0DFF89005DFF86014097842
S1130F000170DFF894250021002001F0A0FEDFF835
S1130F108C050068DFF8D41302F048F902F0B2F946
S1130F2080B2020000213C2001F0E5FE27A202214C
S1130F30002001F08CFEDFF8042502213C2001F0A2
S1130F4086FE23A20421002001F081FEDFF8F024B4
S1130F5004213C2001F07BFE1EA20621002001F0AA
S1130F6076FEDFF8E02406213C2001F070FEDFF875
S1130F7018050078072813D1DFF82005006802F06F
S1130F80A3F9DFF82C24DFF82C3402F0D5F902F0B1
S1130F9047FADFF808150860DFF8EC04FF21017058
S1130FA0DFF8E404007808281BD1DFF8F0040068B7
S1130FB002F08AF9DFF8F823DFF81C3402F0BCF9F8
S1130FC002F02EFADFF8D41406E000BF2B3A00003A
S1130FD02D3A000052653A000860DFF8AC04FF21A6
S1130FE00170DFF8A4040078092807D1DFF89C0415
S1130FF0FF210170DFF89004FF210170DFF88C04F9
S1131000007803283FF468AF01F0F9FCDFF87804B6
S11310100078042840F09580DFF86C04FF2101700B
S1131020DFF868040421017001F0E9FC81E06E201E
S113103002F098F801F0CEFE01F00CFFC7490870E9
S1131040C6480078FF2804D0DFF83C04C349097877
S11310500170DFF8F82C0021002001F0F8FDDFF822
S1131060F00C0068A14902F0A1F802F00BF980B27B
S1131070020000213C2001F03EFECCA2022100200F
S113108001F0E5FDDFF8B42302213C2001F0DFFD8F
S1131090D0A20421002001F0DAFDDFF8A42304210A
S11310A03C2001F0D4FDCDA20621002001F0CFFDAB
S11310B0DFF8902306213C2001F0C9FDDFF8C803C6
S11310C00078072811D1DFF8880C006802F0FCF8DA
S11310D0B74AB84B02F030F902F0A2F9DFF8701CFD
S11310E00860DFF8A403FF210170DFF89C03007897
S11310F0082811D1DFF8580C006802F0E5F8AC4A72
S1131100B54B02F019F902F08BF9DFF8441C0860C2
S1131110DFF87403FF210170DFF86C0300780928FD
S113112007D1DFF86803FF210170DFF85C03FF21BA
S11311300170DFF85803007804283FF478AF01F019
S11311405EFCD1480078052840F08680CE48FF2117
S11311500170CE480521017001F051FC76E06E204B
S113116002F000F801F036FE01F074FE7B490870CD
S11311707A480078FF2803D0C34878490978017079
S1131180DFF8D02B0021002001F061FDDFF8C80B4F
S11311900068564902F00AF802F074F880B20200BE
S11311A000213C2001F0A7FD80A20221002001F0D3
S11311B04EFDA24A02213C2001F049FD85A20421F2
S11311C0002001F044FD9E4A04213C2001F03FFD33
S11311D082A20621002001F03AFD9A4A06213C2011
S11311E001F035FDA8480078072810D1DFF8680B16
S11311F0006802F069F86E4A6E4B02F09DF802F046
S11312000FF9DFF8541B08609F48FF2101709E48C6
S11312100078082810D1DFF8400B006802F054F879
S1131220634A6D4B02F088F802F0FAF8DFF8281BE5
S113123008609548FF21017093480078092805D17A
S11312409248FF2101709048FF2101708F48007877
S1131250052884D001F0D3FB8B480078062840F0A1
S113126094808948FF21017088480621017001F0AB
S1131270C6FB83E06E2001F075FF01F0ABFD01F0C9
S1131280E9FD3649087035480078FF2803D07E48C8
S1131290324909780170DFF8C42A0021002001F0E6
S11312A0D6FCDFF8BC0A0068104901F07FFF01F0AA
S11312B0E9FF80B2020000213C2001F01CFD3BA2AA
S11312C00221002001F0C3FC5C4A02213C2001F011
S11312D0BEFC40A20421002001F0B9FC584A0421BC
S11312E03C2001F0B4FC3DA202E000BF000020411C
S11312F00621002001F0ABFC524A06213C2001F0FB
S1131300A6FC61480078072810D1DFF8540A006869
S113131001F0DAFF264A274B02F00EF802F080F8BB
S1131320DFF83C1A08605848FF21017056480078DD
S1131330082819D1DFF8280A006801F0C5FF1C4A03
S1131340254B01F0F9FF02F06BF8DFF8141A07E0FF
S1131350246200002C620000346200006F04FF1F4E
S113136008604948FF21017047480078092805D1E1
S11313704648FF2101704448FF210170434800782A
S113138006283FF477AF01F03AFB3F4800780A287B
S11313907FF4FDAB3C48FF21017001F030FB4FF4BA
S11313A0FA7001F0DFFEDFF8BC2905E02B3A0000FB
S11313B09A9999999999B93F0021002001F047FC25
S11313C0DFF8A4290021462001F041FCDFF89C2924
S11313D006E000BF2D3A00009999B9BF52653A0062
S11313E00221002001F033FCDFF8842904210020CD
S11313F001F02DFCDFF87C290421462001F027FCB4
S1131400DFF874290621002001F021FC01F0E2FC40
S113141001F020FD1C4908706E2001F0A3FE1A485B
S11314200078012840F0D2801748FF210170174846
S11314300121017001F0E3FAC0E000BF3C6200004A
S1131440446200004C620000546200006004FF1F0C
S1131450886100006204FF1F946100006604FF1F9E
S11314605C6200006404FF1F646200006C620000A0
S1131470746200007C620000846200008C620000E0
S1131480946200003404FF1F7004FF1F7204FF1FE6
S11314909C6200003804FF1FA46200003C04FF1F8C
S11314A0DFF8D8280021002001F0D1FBDFF8D008B4
S11314B00068DFF8381E01F079FE01F0E3FE80B227
S11314C0020000213C2001F016FCCBA202210020E6
S11314D001F0BDFBDFF8AC2802213C2001F0B7FB92
S11314E0E7A20421002001F0B2FBDFF89C280421CC
S11314F03C2001F0ACFBE3A20621002001F0A7FB95
S1131500DFF8882806213C2001F0A1FB6E2001F0C1
S113151029FE01F05FFC01F09DFCDFF86C1E0870F1
S1131520DFF8640E0078FF2805D0DFF86408DFF8E0
S1131530581E09780170DFF858080078072813D17D
S1131540DFF83C08006801F0BFFEDFF8402EDFF84A
S1131550403E01F0F1FE01F063FFDFF8241808605B
S1131560DFF82C08FF210170DFF824080078082830
S113157013D1DFF80C08006801F0A6FEDFF80C2E8A
S1131580DFF8103E01F0D8FE01F04AFFDFF8F01753
S11315900860DFF8FC07FF210170DFF8F40700782A
S11315A009280BD1DFF8EC07FF210170DFF8E00711
S11315B0FF210170DFF8D00DFF210170DFF8D4079F
S11315C0007801283FF46CAF01F019FADFF8C00786
S11315D00078022840F09D80DFF8B407FF210170F5
S11315E0DFF8B0070221017001F009FA89E06E20EA
S11315F001F0B8FD01F0EEFB01F02CFCDFF8881DD2
S11316000870DFF8840D0078FF2805D0DFF8800724
S1131610DFF8741D09780170DFF87C2700210020B1
S113162001F015FBDFF874070068DFF8C01C01F057
S1131630BDFD01F027FE80B2020000213C2001F034
S11316405AFB6DA20221002001F001FBDFF8702E8D
S113165002213C2001F0FBFA89A20421002001F0C0
S1131660F6FADFF8602E04213C2001F0F0FA85A29E
S11316700621002001F0EBFADFF84C2E06213C2075
S113168001F0E5FADFF808070078072813D1DFF83E
S11316900C07006801F018FEDFF8F02CDFF8F03CCE
S11316A001F04AFE01F0BCFEDFF8F0160860DFF836
S11316B0E006FF210170DFF8D8060078082813D16E
S11316C0DFF8D806006801F0FFFDDFF8C02CDFF872
S11316D0C43C01F031FE01F0A3FEDFF8C01608603F
S11316E0DFF8AC06FF210170DFF8A40600780928B2
S11316F007D1DFF8A006FF210170DFF89406FF216F
S11317000170DFF89006007802283FF470AF01F012
S113171076F9DFF87C060078032840F08880DFF84B
S11317207006FF210170DFF86C060321017001F0DF
S113173066F975E06E2001F015FD01F04BFB01F038
S113174089FBDFF8441C0870DFF83C0C0078FF28A4
S113175005D0DFF83C06DFF8301C09780170DFF8AB
S1131760D02D0021002001F072FADFF8C80DB0F985
S1131770002092B200213C2001F0BDFA1EA20221F9
S1131780002001F064FADFF8382D02213C2001F03A
S11317905EFA3BA20421002001F059FADFF8242D5F
S11317A004213C2001F053FA36A20621002001F066
S11317B04EFADFF8142D06213C2001F048FADFF838
S11317C0D005007807280AD1DFF8680D0088401C8E
S11317D0DFF8601D0880DFF8B805FF210170DFF82D
S11317E0B005007808280ED1DFF8480D0088401EA7
S11317F0DFF8401D02E000BF2B3A00000880DFF84C
S11318009005FF210170DFF888050078092807D1C9
S1131810DFF88005FF210170DFF87405FF210170F6
S1131820DFF870050078032884D001F0E8F8DFF8C9
S113183060050078042840F0A280DFF85405FF21F9
S11318400170DFF850050421017001F0D8F88EE032
S11318506E2001F087FC01F0BDFA01F0FBFADFF81D
S1131860281B0870DFF8200B0078FF2805D0DFF86C
S11318702005DFF8141B09780170DFF8BC2C03E0A5
S11318802D3A000052653A000021002001F0DFF9F2
S1131890DFF8A80C0068DFF8541A01F087FC01F0A7
S11318A0F1FC80B2020000213C2001F024FAD7A20E
S11318B00221002001F0CBF9DFF8042C02213C20A6
S11318C001F0C5F9D2A20421002001F0C0F9DFF82B
S11318D0F42B04213C2001F0BAF9DDA206210020FA
S11318E001F0B5F9DFF8E02B06213C2001F0AFF957
S11318F0DFF89C040078072813D1DFF8400C006857
S113190001F0E2FCDFF8842ADFF8843A01F014FDE8
S113191001F086FDDFF8241C0860DFF87404FF2161
S11319200170DFF86C040078082813D1DFF80C0C80
S1131930006801F0C9FCDFF8542ADFF8583A01F0D6
S1131940FBFC01F06DFDDFF8F41B0860DFF84004D8
S1131950FF210170DFF838040078092807D1DFF887
S11319603404FF210170DFF82804FF210170DFF83F
S11319702404007804283FF46BAF01F040F8DFF84A
S113198010040078052840F09580DFF80404FF2156
S11319900170DFF800040521017001F030F882E0E5
S11319A06E2001F0DFFB01F015FA01F053FADFF8C5
S11319B0D8190870DFF8D0090078FF2805D0DFF8BF
S11319C0D003DFF8C41909780170DFF8602D002115
S11319D0002001F03CF9DFF8580D0068DFF80C191D
S11319E001F0E4FB01F04EFC80B2020000213C2037
S11319F001F081F985A20221002001F028F9DFF825
S1131A00C02A02213C2001F022F981A204210020F5
S1131A1001F01DF9DFF8AC2A04213C2001F017F98C
S1131A208BA20621002001F012F9DFF89C2A06217E
S1131A303C2001F00CF9D6480078072812D1DFF8D1
S1131A40F00C006801F040FCDFF84029DFF8403971
S1131A5001F072FC01F0E4FCDFF8D41C0860CC480F
S1131A60FF210170CA480078082812D1DFF8C00CA1
S1131A70006801F029FCDFF81429DFF8183901F0B7
S1131A805BFC01F0CDFCDFF8A81C0860C048FF2116
S1131A900170BF480078092805D1BE48FF210170B4
S1131AA0BB48FF210170BB48007805283FF478AF9C
S1131AB000F0A5FFB6480078062878D1B448FF2185
S1131AC00170B4480621017000F099FF69E06E20AE
S1131AD001F048FB01F07EF901F0BCF9DFF8A81829
S1131AE00870DFF8A4080078FF2804D0A848DFF8BD
S1131AF0981809780170DFF83C2C0021002001F0CF
S1131B00A6F8DFF8340CB0F9002092B200213C2092
S1131B1001F0F1F83DA20221002001F098F8DFF86D
S1131B20A02902213C2001F092F839A204210020CE
S1131B3001F08DF8DFF88C2904213C2001F087F8AE
S1131B4043A20621002001F082F8DFF87C29062157
S1131B503C2001F07CF88E480078072809D1DFF892
S1131B60D80B0088401CDFF8D01B08808848FF2170
S1131B70017087480078082809D1DFF8BC0B008879
S1131B80401EDFF8B41B08808148FF2101708048A3
S1131B900078092805D17F48FF2101707C48FF2186
S1131BA001707C480078062891D000F028FF78481E
S1131BB000780A287FF4F3AB7548FF21017000F028
S1131BC01EFF4FF4FA7001F0CDFADFF8702B0021FC
S1131BD0002001F03CF8DFF8682B0021462001F0DA
S1131BE036F8DFF8602B0221002001F030F8DFF82E
S1131BF0582B0221462001F02AF8DFF8502B04214B
S1131C00002001F024F8DFF8482B03E02B3A000011
S1131C102D3A00000421462001F019F801F0DAF809
S1131C2001F018F95A4908706E2001F09BFA5848DF
S1131C30007801287BD15648FF21017055480121C5
S1131C40017000F0DCFE6CE0DFF8842B02E000BFE2
S1131C5052653A000021002000F0F9FFDFF8740B10
S1131C60027800213C2001F046F8DBA2022100208A
S1131C7000F0EDFF434A02213C2000F0E8FFD7A228
S1131C800421002000F0E3FF3F4A04213C2000F03F
S1131C90DEFFD3A20621002000F0D9FF3B4A062133
S1131CA03C2000F0D4FF6E2001F05CFA01F092F8C1
S1131CB001F0D0F8DFF8D0160870DFF8CC06007811
S1131CC0FF2804D03248DFF8C01609780170304884
S1131CD00078072809D1DFF8FC0A0078401CDFF8F7
S1131CE0F41A08702A48FF2101702948007808284E
S1131CF009D1DFF8E00A0078401EDFF8D81A08702E
S1131D002348FF21017022480078092809D121487D
S1131D10FF2101701E48FF210170DFF86C06FF21CE
S1131D2001701C48007801288ED000F068FE184825
S1131D300078022840F0C6801548FF21017015483C
S1131D400221017000F05BFEB4E000BFAC62000051
S1131D504804FF1FB46200004C04FF1FBC62000073
S1131D605004FF1FC4620000CC620000A0610000A8
S1131D70D4620000DC620000AC610000E462000098
S1131D804004FF1F246200002C6200003462000043
S1131D907004FF1F7204FF1FEC6200004404FF1F65
S1131DA06E2001F0DFF901F015F801F053F8DFF8C7
S1131DB0D8150870DFF8D0050078FF2805D0DFF8C3
S1131DC0180ADFF8C41509780170DFF8102A002119
S1131DD0002000F03CFFDFF8080A0068DFF80C156B
S1131DE001F0E4F901F04EFA80B2020000213C2037
S1131DF000F081FF78A20221002000F028FFDFF824
S1131E00C02602213C2000F022FF74A204210020FD
S1131E1000F01DFFDFF8AC2604213C2000F017FF82
S1131E206FA20621002000F012FFDFF89C26062195
S1131E303C2000F00CFFDFF8A0090078072813D13C
S1131E40DFF89C09006801F03FFADFF84025DFF86D
S1131E50403501F071FA01F0E3FADFF88419086003
S1131E60DFF87409FF210170DFF86C090078082895
S1131E7013D1DFF86C09006801F026FADFF80C25AD
S1131E80DFF8103501F058FA01F0CAFADFF85019FA
S1131E900860DFF84409FF210170DFF83C0900788D
S1131EA0092807D1DFF83C09FF210170DFF8280970
S1131EB0FF210170DFF82C09007802283FF470AF8D
S1131EC000F09DFDDFF810090078032840F0A4809D
S1131ED0DFF80409FF210170DFF80809032101700C
S1131EE000F08DFD90E06E2001F03CF900F072FFEF
S1131EF000F0B0FFDFF890140870DFF88C0400786D
S1131F00FF2805D0DFF8D008DFF87C1409780170C9
S1131F10DFF8D4280021002000F099FEDFF8CC0877
S1131F200068DFF8C81301F041F901F0ABF980B2A1
S1131F30020000213C2000F0DEFE27A20221002046
S1131F4000F085FEDFF8782502213C2000F07FFEBA
S1131F5022A20421002000F07AFEDFF86825042183
S1131F603C2000F074FE1EA20621002000F06FFE4B
S1131F70DFF8542506213C2000F069FEDFF85808FC
S1131F800078072813D1DFF86408006801F09CF991
S1131F90DFF8F823DFF8F83301F0CEF901F040FA66
S1131FA0DFF848180860DFF83008FF210170DFF817
S1131FB02808007808281AD1DFF83008006801F0F2
S1131FC083F9DFF8C823DFF8CC3301F0B5F901F069
S1131FD027FADFF8181805E02B3A00002D3A000024
S1131FE052653A000860DFF8F007FF210170DFF85E
S1131FF0E8070078092807D1DFF8E807FF21017016
S1132000DFF8D407FF210170DFF8D8070078032830
S11320103FF469AF00F0F3FCDFF8BC070078042854
S113202040F09580DFF8B007FF210170DFF8B407B6
S11320300421017000F0E3FC81E06E2001F092F8CD
S113204000F0C8FE00F006FFCF490870CE480078C3
S1132050FF2804D0DFF88007CB4909780170DFF846
S113206090270021002000F0F2FDDFF888070068C7
S11320709E4901F09BF801F005F980B202000021AD
S11320803C2000F038FEDDA20221002000F0DFFD3C
S1132090DFF82C2402213C2000F0D9FDD8A2042131
S11320A0002000F0D4FDDFF81C2404213C2000F0C3
S11320B0CEFDD4A20621002000F0C9FDDFF80824DB
S11320C006213C2000F0C3FDDFF80C070078072848
S11320D011D1DFF82007006801F0F6F8AB4AAC4BE9
S11320E001F02AF901F09CF9DFF808170860DFF81D
S11320F0E806FF210170DFF8E0060078082811D116
S1132100DFF8F006006801F0DFF8A04AA14B01F007
S113211013F901F085F9DFF8DC160860DFF8B8067A
S1132120FF210170DFF8B0060078092807D1DFF835
S1132130B406FF210170DFF8A006FF210170DFF86B
S1132140A406007804283FF478AF00F058FCDFF8C8
S11321508806007805287CD1DFF87C06FF21017011
S1132160DFF880060521017000F049FC6AE06E206A
S113217000F0F8FF00F02EFE00F06CFE82490870BB
S113218081480078FF2804D0DFF84C067E4909789E
S11321900170DFF864260021002000F058FDDFF80C
S11321A05C06B0F9002000213C2000F0A4FD93A2BD
S11321B00221002000F04BFDC14A02213C2000F026
S11321C046FD8FA20421002000F041FDBD4A0421F8
S11321D03C2000F03CFD8BA20621002000F037FDDE
S11321E0B94A06213C2000F032FDDFF8EC05007806
S11321F007280AD1DFF804060088401CDFF8FC1524
S11322000880DFF8D405FF210170DFF8CC050078E1
S113221008280AD1DFF8E4050088401EDFF8DC1541
S11322200880DFF8B405FF210170DFF8AC05007801
S1132230092807D1DFF8AC05FF210170DFF8980504
S1132240FF210170DFF89C05007805288FD000F08D
S1132250D6FBDFF884050078062840F08180DFF89B
S11322607805FF210170DFF87C050621017000F07C
S1132270C6FB6EE06E2000F075FF00F0ABFD00F0D1
S1132280E9FD4149087040480078FF2804D0DFF890
S113229048053D4909780170DFF8642500210020D4
S11322A000F0D5FCDFF85C05B0F9002000213C20EB
S11322B000F021FD51A20221002000F0C8FC804A58
S11322C002213C2000F0C3FC4DA20421002000F0B8
S11322D0BEFC7C4A04213C2000F0B9FC49A2062142
S11322E0002000F0B4FC784A02E000BF0000204166
S11322F006213C2000F0ABFCDFF8DC040078072862
S11323000AD1DFF800050088401CDFF8F8140880C3
S1132310DFF8C404FF210170DFF8BC04007808284A
S11323200AD1DFF8E0040088401EDFF8D8140880E2
S1132330DFF8A404FF210170DFF89C040078092869
S113234007D1DFF8A004FF210170DFF88C04FF211E
S11323500170DFF89004007806288BD000F04FFB62
S1132360DFF8740400780A287FF42BACDFF86804E3
S1132370FF21017000F043FBDFF88C040078012892
S113238014D16FA208E000BF6F04FF1F9A999999B6
S11323909999B93F9999B9BF0021002000F057FCE1
S11323A040F24C4000F0DEFE00F029FBDFF8580458
S11323B002210170DFF8540401210180DFF8500488
S11323C001210180DFF84C0400780128D4D1DFF822
S11323D0440400210170641C2000C0B2052800D30D
S11323E00024DFF8340401F0B3F901F0DFFADFF878
S11323F02C040088DFF8281406E000BF2B3A000004
S11324002D3A000052653A0009880818DFF80C14C8
S11324100880DFF810040088DFF80C140988081815
S1132420DFF800140880DFF804040088DFF80014E3
S113243009880818DFF8F41308806D1C280000B21E
S11324400F2899DB0025DFF8D403B0F900000F2131
S113245090FBF1F0DFF8DC130880DFF8C803B0F973
S113246000000F2190FBF1F0DFF8CC130880DFF8B7
S1132470BC03B0F900000F2190FBF1F0DFF8BC13AE
S11324800880DFF8980300210180DFF89803002119
S11324900180DFF8980300210180DFF8A0030088A1
S11324A0DFF894130988401ADFF894130880DFF8E2
S11324B09403DFF88C1309880180DFF8780305E0C2
S11324C03C620000446200004C620000B0F900204D
S11324D000210A2000F059FBDFF85C03B0F900206A
S11324E002210A2000F051FBDFF85003B0F900206C
S11324F00221462000F049FB00F0ACFCDFF8481351
S11325000870D1480078FF2803D0B348CE49097831
S11325100170B14800780C287FF42EAFAE48FF213B
S11325200170B0480C21017000F069FA25E000BF89
S1132530B86100002004FF1FF46200005404FF1F70
S1132540636A00006E2000F00DFE00F083FCBE49BB
S11325500870BD480078FF2803D09F48BA4909781D
S113256001709D4800780C2805D19E48FF21017018
S11325709948FF21017000F042FA9A4800780C282B
S1132580E0D0A148012101709F48007801280AD1B8
S113259070A206213C2000F05AFB40F24C4000F0AF
S11325A0E1FD00F02CFA98480221017097480021BF
S11325B001809748002101809648007801281BD1AA
S11325C0944800210170641C2000C0B2052800D387
S11325D00024914801F0BCF801F0E8F901F064FC32
S11325E09A480078401C9949087098480078052852
S11325F002D19648002101709548B0F900000128E5
S1132600C2D18948B0F9002002210A2000F0BDFAA5
S11326108748B0F900200221462000F0B6FA8D4820
S1132620B0F9002092B20421002000F0AEFA8A4AE8
S11326300421462000F00BFB884802780421642022
S113264000F0A3FA8648B0F9002092B206210A20CD
S113265000F09BFA8348B0F9002092B2062146208C
S113266000F093FA8048006880490968884203DAD8
S11326707D487E49096801607D48B0F900007549CC
S1132680B1F90010884203DA794872490988018057
S11326907848B0F900007849B1F90010884203DAAB
S11326A074487549098801807448B0F90000744978
S11326B0B1F90010884203DA704871490988018031
S11326C063480021018001F0C5FD08216D4801F037
S11326D053FF01287FF458AF6B4A0021002000F01B
S11326E0B6FA6448B0F900200021462000F04DFA03
S11326F05F48B0F9002002210A2000F046FA5A4847
S113270002680221462000F040FA5C48B0F900203B
S113271004210A2000F039FA5C48002101603B489A
S1132720012101803A4801210180D5E7FC620000C3
S11327305804FF1FC46100002204FF1F046300004B
S11327400C630000146300001C6300002463000099
S11327502C630000676F000080B572B65FF4E1324D
S11327604B4801684B4801F00FFF00230022082169
S1132770444801F0B7FE4FF49671002002F00AF8C5
S11327804FF496520221002002F079F94FF47A7145
S1132790012001F0FFFF02F07CFA02F0DEFA00F003
S11327A087FE00F055F9002200215FF07F5002F00F
S11327B05FFB3948B0F9000002F056FB4EF6602189
S11327C0002002F0A5FB002002F0D1FB62B601BD9F
S11327D0346300006E04FF1F7004FF1FD06100000B
S11327E02804FF1F7204FF1FDC6100003004FF1F78
S11327F03C6300005C04FF1F446300006C04FF1F83
S11328004C6300006A04FF1F7104FF1F9A07FF1F37
S11328109C07FF1FAC07FF1F9006FF1F9207FF1FB7
S11328204207FF1F9407FF1F3007FF1F9607FF1F74
S11328301404FF1F4807FF1F4407FF1F1604FF1F50
S1132840A407FF1F4007FF1F6F04FF1FAF07FF1FF1
S11328509007FF1F8E07FF1F54630000A807FF1F88
S11328608807FF1F8A07FF1F1007FF1F8C06FF1F23
S1132870A007FF1FA207FF1F6207FF1F9807FF1F84
S11328807E07FF1F80F00F405C6300001090034040
S11328902807FF1F00D006406204FF1F0821DFF84D
S11328A01825126852F40032DFF80C351A6000BFA4
S11328B0DFF80425126832F48042DFF8FC341A6031
S11328C000BF19E0DFF8F024126832F40042DFF8A8
S11328D0E8341A60DFF8E024126852F48042DFF82A
S11328E0D8341A6000BFDFF8D024126832F4804272
S11328F0DFF8C4341A6040000A00511ED2B2002A24
S11329000AD00206DED5DFF8B024126852F4004281
S1132910DFF8A4341A60DDE7704700000821DFF80F
S11329209824126832F40032DFF88C341A60DFF82D
S11329308824126832F48042DFF87C341A6019E08B
S1132940DFF87424126832F40042DFF86C341A6041
S1132950DFF86424126852F48042DFF85C341A60B1
S113296000BFDFF85424126832F48042DFF84834A0
S11329701A6040000A00511ED2B2002A0AD0020690
S1132980DED5DFF83424126852F40042DFF828342C
S11329901A60DDE7704710B50400B1F15000C0B211
S11329A0FFF7BCFFE4B2200950F01000C0B2FFF7FB
S11329B0B5FF14F00F0050F00100C0B2FFF7AEFFF6
S11329C010BD70B50400002508E02000C0B2FFF778
S11329D065FF761CF6B2802EF7D36D1CEDB2082D80
S11329E00CD2B5F15000C0B2FFF798FF0120FFF7F9
S11329F095FF1020FFF792FF0026EBE770BD38B576
S1132A00002407E00020FFF749FF6D1CEDB2802D84
S1132A10F8D3641CE4B2082C0CD2B4F15000C0B258
S1132A20FFF77CFF0120FFF779FF1020FFF776FF07
S1132A300025EBE731BD07E043F226410A00511EB1
S1132A4092B2002AFAD1401E80B20028F4D1704715
S1132A5080B5DFF868034FF480710160DFF860032C
S1132A604FF480710160DFF85C034FF48071016002
S1132A70DFF854034FF480710160DFF850035FF412
S1132A8070310160DFF83003006850F48040DFF8F3
S1132A9028130860DFF82003006830F48030DFF882
S1132AA0181308603220FFF7C6FFDFF80C03006834
S1132AB050F48030DFF800130860AE20FFF72EFFDB
S1132AC00020FFF72BFF1020FFF728FF4020FFF71F
S1132AD025FF8120FFF722FFCF20FFF71FFFA12052
S1132AE0FFF71CFFC820FFF719FFA620FFF716FF0A
S1132AF0A820FFF713FF3F20FFF710FFD320FFF7B5
S1132B000DFF0020FFF70AFFD520FFF707FF802005
S1132B10FFF704FFD920FFF701FFF120FFF7FEFEC6
S1132B20DA20FFF7FBFE1220FFF7F8FEDB20FFF7A9
S1132B30F5FE4020FFF7F2FE2020FFF7EFFE022013
S1132B40FFF7ECFE8D20FFF7E9FE1420FFF7E6FE09
S1132B50A420FFF7E3FEA620FFF7E0FEAF20FFF777
S1132B60DDFE0020FFF72DFF00210020FFF713FFFB
S1132B70FF20FFF726FF642000F0F4FA0020FFF79F
S1132B8020FF642000F0EEFA01BD2DE9FC410400B1
S1132B900D00002600275FF00008642092FBF0F08F
S1132BA08DF80000642092FBF0F100FB11200A2153
S1132BB090FBF1F08DF801000A2092FBF0F100FB8C
S1132BC011208DF802000020804610E0F6B230019A
S1132BD050FA87F0DFF8F8114018007AFFF75EFE2C
S1132BE07F1CFFB2082FF1D3083418F101085FFAF3
S1132BF088F8B8F1030F28D25FFA88F800A818F80B
S1132C00000010F11006E4B2792C01D300246D1CED
S1132C102900C9B22000C0B2FFF7BDFE002709E0B9
S1132C20F6B2300150FA87F0DFF8A411405CFFF7E8
S1132C3035FE7F1CFFB2082FF2D3691CC9B22000F5
S1132C40C0B2FFF7A8FE0027CBE7BDE8F3812DE96A
S1132C50F84304000D00160000275FF000085FF041
S1132C60000913E0FFB2380150FA88F0DFF8601170
S1132C704018007AFFF712FE18F101085FFA88F88D
S1132C80B8F1080FEED3083419F101095FFA89F994
S1132C9019F8060000282CD05FFA89F919F8060003
S1132CA0B0F12007E4B2792C01D300246D1C290073
S1132CB0C9B22000C0B2FFF76EFE5FF000080AE060
S1132CC0FFB2380150FA88F0DFF80411405CFFF7D6
S1132CD0E5FD18F101085FFA88F8B8F1080FEFD3A1
S1132CE0691CC9B22000C0B2FFF755FE5FF00008AE
S1132CF0C4E7BDE8F1832DE9F04182B004000D0082
S1132D00002600275FF000086420B2FBF0F08DF885
S1132D1000000A20B2FBF0F00A21B0FBF1F301FB42
S1132D2013008DF801000A20B2FBF0F100FB112022
S1132D308DF80200002080460FE0F6B2300150FA10
S1132D4087F023494018007AFFF7A8FD7F1CFFB2E3
S1132D50082FF2D3083418F101085FFA88F8B8F1A3
S1132D60030F27D25FFA88F800A818F8000010F1C2
S1132D701006E4B2792C01D300246D1C2900C9B2D9
S1132D802000C0B2FFF707FE002708E0F6B23001CA
S1132D9050FA87F00E49405CFFF780FD7F1CFFB2BC
S1132DA0082FF3D3691CC9B22000C0B2FFF7F3FDAA
S1132DB00027CCE7BDE8F38100F00F4038900440D1
S1132DC03C900440409004404490044014F00F4070
S1132DD05C56000080B5DFF88403006850F480502E
S1132DE0DFF878130860002300220021DFF8700365
S1132DF001F078FB002300220121DFF8640301F0D5
S1132E0071FB002300220221DFF8540301F06AFB66
S1132E10002300220321DFF8480301F063FB0123B0
S1132E2000220421DFF8380301F05CFB01230022B7
S1132E300521DFF82C0301F055FB012300220621B4
S1132E40C74801F04FFB002300220721C44801F0CA
S1132E5049FB01BDF8B50025FF2400230122002110
S1132E60BF4801F03FFB012301220121BC4801F0CE
S1132E7039FB012301220221B94801F033FB01236C
S1132E8001220321B64801F02DFB0421B44801F0CE
S1132E9073FB06000521B24801F06EFB0700062112
S1132EA0AF4801F069FB790111EB061111EB8016B3
S1132EB00721AB4801F060FB16EBC0100500EDB232
S1132EC0702D2AD00A2000F04DF90421A44801F005
S1132ED053FB05000521A24801F04EFB0600062124
S1132EE09F4801F049FB710111EB051111EB8015AD
S1132EF007219B4801F040FB15EBC015EDB2702D86
S1132F000BD0EDB2302D07D0502D03D0602D04D15D
S1132F100A2402E00B2400E00C24012301220021F6
S1132F208F4801F0DFFA0023012201218C4801F0CF
S1132F30D9FA012301220221894801F0D3FA01239D
S1132F4001220321864801F0CDFA0421844801F0CE
S1132F5013FB05000521824801F00EFB0600062143
S1132F607F4801F009FB710111EB051111EB80158C
S1132F7007217B4801F000FB15EBC015EDB2702D65
S1132F802AD00A2000F0EEF80421754801F0F4FA82
S1132F9005000521724801F0EFFA06000621704889
S1132FA001F0EAFA710111EB051111EB801507210B
S1132FB06B4801F0E1FA15EBC015EDB2702D0BD0A2
S1132FC0EDB2302D07D0502D03D0602D04D107244D
S1132FD002E0082400E009240123012200216048C2
S1132FE001F080FA0123012201215D4801F07AFAFF
S1132FF00023012202215A4801F074FA012301221C
S11330000321574801F06EFA0421554801F0B4FA3F
S113301005000521524801F0AFFA06000621504888
S113302001F0AAFA710111EB051111EB80150721CA
S11330304B4801F0A1FA15EBC015EDB2702D2AD062
S11330400A2000F08FF80421454801F095FA0500A4
S11330500521434801F090FA06000621404801F09A
S11330608BFA710111EB051111EB801507213C4816
S113307001F082FA15EBC015EDB2702D0BD0EDB254
S1133080302D07D0502D03D0602D04D1042402E04C
S1133090052400E00624012301220021304801F028
S11330A021FA0123012201212D4801F01BFA0123F9
S11330B0012202212A4801F015FA002301220321EA
S11330C0274801F00FFA0421254801F055FA0500BC
S11330D00521234801F050FA06000621204801F09A
S11330E04BFA710111EB051111EB801507211C48F6
S11330F001F042FA15EBC015EDB2702D2AD00A206A
S113310000F030F80421164801F036FA05000521D4
S1133110134801F031FA06000621114801F02CFA97
S1133120710111EB051111EB801507210C4801F019
S113313023FA15EBC015EDB2702D0BD0EDB2302D86
S113314007D0502D03D0602D04D1012402E00224C5
S113315000E003242000C0B2F2BD00003880044027
S1133160C0F00F400D49096851F001010B4A11608C
S11331700B4908600B48052101600B48006850F0BA
S1133180010009490860084800680006FBD50648A4
S113319000684008400004490860704738800440D3
S11331A0080004400400044000000440FF2212EA26
S11331B0D05C1DBF12EAD153944593422BE09C444A
S11331C0D30780EA01021A4043EA002043EA0121BE
S11331D0A1FB0030410038BF40007CF17F010BDBD4
S11331E0FE294ADA5B0842EAC15153EA006373F1EB
S11331F0004C51EB10207047D1F1080CDCF1200198
S11332002FDB5B0810FA01F10B4373F1004120FA44
S11332100CF05041704794451CBF02EAD1539342CD
S113322080EA010202F000421DD0400019D049009A
S113323017D05BB9634514D00902B1FA81F3994000
S1133240BCEB030CC00140F00040C1E70002B0FA3F
S113325080FC10FA0CF0B3EB0C0CC90141F00041F6
S1133260B6E71000704740000AD0490008D010F1BA
S1133270807F94BF11F1807F02E042F0FF407047ED
S1133280D04370474100090E7F3915D4D1F11F0195
S113329014D4400007D2C00140F00040C84048BFE9
S11332A06FF000407047C00140F00040C8404CBF80
S11332B04FF00040404270470020704700424FF0FA
S11332C0004058BFC04370475FF0FF0C1CEAD05168
S11332D014BF614506E0C110400721F0E04101F14F
S11332E06051704779B900F0004100020AD0B0FA89
S11332F080FC00FA0CF001F16051A1EB0C5101EBE0
S1133300D0214005704741020CBF40F4E0016FF04A
S113331000010020704750F8041B61B150F8042BE1
S1133320D30744BFA9F101039A18002342F8043BD0
S1133330091FFAD1EFE7704770B44FF0004591EAE6
S1133340030C44BF6B4001F03FBE00BF841A71EB15
S1133350030603D2001BB141121973414FF4001C40
S11333601CEB410F34BF7CEB430443E00C0DA4EB96
S11333701356352E50DC45EAC323DB0A45EAC12146
S1133380C912B6F120050DDD63FA05F6EB4086EAB5
S11333900305124218BF45F00105C01851F10001A0
S11333A00CD213E062FA06F5F2405540F3415A405C
S11333B0B340F3405A408018594107D349085FEAA3
S11333C030005FEA350528BF45F0010501F580119D
S11333D0420875F1004250F1000041EB045170BC09
S11333E04FF4001C1CEB410F38BF70470020090D3F
S11333F0090570471CEB410F10D252EA43060BD06B
S1133400BCEB410F05D80C0DAB43661E342EB5DD65
S113341002E0AB438018594170BC704770BC7047E0
S11334204FEAF17CBCF1E04C2CBFBCF5001F11E06D
S11334305FEA4C0C34BFBCF17F5F2EE05FEA9C0C6A
S11334404FEA0C1C4FEA3C0CC10071F100414CEBFB
S113345050707047C90241EA5051C00218BF41F090
S1133460010141F000414FEA6C50C0F109002128EC
S113347010D240EACC7CCCF1200C11FA0CF070F1A3
S11334800040CCF1200C21FA0CF00CF0004C40EB85
S11334900C0070474FEACC707047490011F5001FCB
S11334A004D84FEACC10FF30C0057047C8177047E6
S11334B080B5012301220021DFF8E80401F012F8AD
S11334C0012301220121DFF8DC0401F00BF80123C0
S11334D001220C21DFF8D00401F004F801230122B9
S11334E00D21DFF8C40400F0FDFF012001F022FEED
S11334F001BD10B5012301220021DFF8A80400F06A
S1133500F1FF00F0CBFD012301220121DFF8940437
S113351000F0E8FF00F0C2FD002301220021DFF8E3
S1133520840400F0DFFF00F0B9FD00230122012133
S1133530DFF8700400F0D6FF002416E000F0AEFDC2
S113354000F0ACFD012301220121DFF8580400F052
S1133550C9FF00F0A3FD00F0A1FD00230122012119
S1133560DFF8400400F0BEFF641CE4B27F2CE5D316
S113357000F094FD00F092FD012301220121DFF807
S1133580240400F0AFFF00F089FD00F087FD002364
S113359001220121DFF80C0400F0A4FF10BD38B5AE
S11335A00400012301220021DFF8F80300F09AFF50
S11335B000F074FD012301220121DFF8E80300F08B
S11335C091FF00F06BFD002301220021DFF8D403FA
S11335D000F088FF00F062FD002502E000F05EFDCF
S11335E06D1CEDB2502DF9D308220621012001F003
S11335F0C8FD2070641C002301220121DFF8A4030C
S113360000F070FF00251DE000F048FD00F046FDCD
S1133610012301220121DFF88C0300F063FF00F095
S11336203DFD00F03BFD08220621012001F0A9FD2B
S11336302070641C002301220121DFF8680300F0DC
S113364051FF6D1CEDB27F2DDED300F027FD00F09D
S113365025FD012301220121DFF8480300F042FF88
S113366000F01CFD00F01AFD002301220121DFF807
S1133670340300F037FF31BD80B5DFF81418802023
S113368000F04DF8DFF80C180870DFF8080800782F
S113369019214843802190FBF1F0DFF8FC170870F2
S11336A0DFF8F8070088DFF8F0170978401ADFF828
S11336B0F0170880DFF8E807B0F90000DFF8E41736
S11336C0B1F90010C84206DADFF89C090078401E00
S11336D0DFF894190870DFF8CC07B0F90000DFF8C0
S11336E0C017B1F90010884206DADFF87C090078C7
S11336F0401CDFF874190870DFF86C0900780228A0
S113370003D2DFF8640901210170DFF85C09007855
S1133710142803D3DFF850091421017001BD10B43B
S11337200023002204E00C7853FA84F3491C521C51
S1133730D2B2C0B28242F6D39BB2C0B293FBF0F0D5
S1133740C0B210BC7047002801D54042FFE7704763
S1133750F8B504000025002600270020DFF8301704
S11337604978DFF808291180DFF824174978DFF851
S113377000291180012113E0C9B2DFF81407085CA5
S1133780DFF8EC28B2F9002000B2904207DA080012
S1133790C9B2DFF8FC268A5CDFF8D4381A80491CE9
S11337A0C9B27F2913D2DFF8C408B0F90000C9B246
S11337B0DFF8DC268A5C12B29042DDDA0F00C9B26F
S11337C0DFF8CC06085CDFF8A4281080E7E7DFF810
S11337D09C08B0F90000FFB2DFF8B416791811F8AC
S11337E0021C401A0B2832DBDFF88008B0F9000015
S11337F0FFB2DFF89C1679188978401A0B2826DB6B
S1133800FFB2DFF88C06381810F8020CFFB2DFF8AC
S1133810801679188978401AFFF795FF0A2816DA76
S1133820FFB2DFF86C06381810F8020CFFB2DFF8AC
S11338306016791889780818FFB2DFF8541678549E
S1133840FFB2DFF84C06385CDFF820180880DFF898
S11338501C08B0F90000DFF81818B1F900100818B6
S1133860022190FBF1F0DFF80C18088000210CE035
S1133870DFF804080088C9B2DFF814268A5C8018CF
S1133880DFF8F4271080761C491CC9B27F2917D2AF
S1133890C9B2DFF8FC05085CDFF8D827B2F90020CC
S11338A000B29042E4DBDFF8D4070088C9B2DFF845
S11338B0E0258A5C8018DFF8C42710806D1CE3E7DC
S11338C0DFF8B807B0F90000EDB290FBF5F0DFF8CF
S11338D0AC170880DFF8A007B0F90000F6B290FB3F
S11338E0F6F0DFF894170880DFF89007B0F90000CD
S11338F0DFF88417B1F900100818022190FBF1F0E9
S1133900DFF870170880002103E000202070641C99
S1133910491CC9B280290AD22078DFF85827B2F9A5
S1133920002000B29042F0DB01202070EFE703207A
S113393034E0C0B2DFF85815415C002913D1C0B29D
S1133940DFF84C15411811F8011C01290BD1C0B244
S1133950DFF83C1541184978012904D1C0B2DFF8D9
S1133960301501224254C0B2DFF82415415C01290C
S113397013D1C0B2DFF81815411811F8011C002941
S11339800BD1C0B2DFF8081541184978002904D1D9
S1133990C0B2DFF8FC1400224254401CC0B27D289F
S11339A0C7D3F1BD00F10F4000F00F4010B4002365
S11339B000210B007E2101E00022491E09B20429E6
S11339C022DB09B2DFF8C8248A5C012AF4D109B2E7
S11339D0DFF8BC248A1812F8012C002AECD109B2B1
S11339E0DFF8AC248A1812F8022C002AE4D109B2B8
S11339F0DFF89C248A1812F8032C002ADCD18A1ED2
S1133A00DFF87C361A800122012301E000205B1CD0
S1133A101BB27B2B1FDA1BB2DFF87404185C01287D
S1133A20F4D11BB2DFF86804181840780028EDD1EF
S1133A301BB2DFF85C04181880780028E6D11BB2AA
S1133A40DFF84C041818C0780028DFD1981CDFF880
S1133A5034462080012012B2012A5ED100B201282E
S1133A605BD1DFF8240600220270DFF81006B0F9FB
S1133A700000DFF80426B2F90020801A2E283FDB6C
S1133A80DFF80006B0F90000DFF8F425B2F90020F1
S1133A90904280F23481DFF8F405B0F90000DFF8D9
S1133AA0E425B2F90020801A1F280EDB881EDFF8F7
S1133AB0D0150880DFF8C8050088DFF8D415098818
S1133AC00818DFF8C015088019E1DFF8B405B0F96B
S1133AD00000DFF8C015B1F90010401A1F28C0F229
S1133AE00E81981CDFF89C150880DFF89805008883
S1133AF0DFF89C150988401ADFF884150880FEE079
S1133B00DFF87C05DFF88C1509880180DFF874057F
S1133B10DFF8781509880180F1E012B2012A59D141
S1133B2000B2002856D1DFF8600500210170DFF8EB
S1133B304C05B0F90000DFF84015B1F90010401A47
S1133B402E283ADBDFF84405B0F90000DFF8301521
S1133B50B1F9001088420CDADFF82405DFF83415D7
S1133B6009880180DFF81C05DFF820150988018029
S1133B70C5E0DFF80C05B0F90000DFF81415B1F961
S1133B800010D1F1700188420CDADFF8F404DFF898
S1133B90041509880180DFF8EC04DFF8F0140988C3
S1133BA00180ACE0DFF8D8040088DFF8E414098869
S1133BB00818DFF8D0140880A1E0DFF8C404DFF8A7
S1133BC0D41409880180DFF8BC04DFF8C014098824
S1133BD0018094E012B2002A58D100B2012855D1D4
S1133BE0DFF8A40400210170DFF89004B0F90000AC
S1133BF0DFF88414B1F90010401A2E2839DBDFF8FD
S1133C008404B0F90000DFF88C14B1F90010884284
S1133C100CDADFF86C04DFF87C1409880180DFF823
S1133C206404DFF868140988018068E0DFF8600440
S1133C30B0F900000F30DFF84C14B1F900108842DD
S1133C400CDADFF83C04DFF84C1409880180DFF853
S1133C503404DFF838140988018050E0DFF82404C4
S1133C600088DFF82C140988401ADFF8141408803F
S1133C7045E0DFF80C04DFF81C1409880180DFF844
S1133C800404DFF808140988018038E0104300B206
S1133C90002834D1DFF8F0030078002807D1DFF8DA
S1133CA0F80300210180DFF8E00301210170DFF84F
S1133CB0E8030088401CDFF8E0130880DFF8D40331
S1133CC0B0F90000402805DADFF8C003B0F90000BD
S1133CD040280CDADFF8A803DFF8B813098801805C
S1133CE0DFF8A003DFF8A4130988018007E0DFF8F8
S1133CF0900300210180DFF88C037F210180DFF82D
S1133D008003B0F90000DFF87C13B1F90010081843
S1133D10022190FBF1F0DFF880140880DFF87804CA
S1133D200088DFF878140988401ADFF874140880D2
S1133D30DFF86003DFF8481309880180DFF84C03DB
S1133D40DFF8401309880180DFF85804DFF84413D2
S1133D5009880180DFF85004DFF8301309880180F6
S1133D60DFF8B804DFF8B81409880180DFF8B0047C
S1133D70DFF8B01409880180DFF8A804DFF8A8147C
S1133D8009880180DFF8A004DFF8A0140988018005
S1133D90DFF89804DFF8981409880180DFF89004AC
S1133DA0DFF8901409880180DFF88804DFF88814AC
S1133DB009880180DFF88004DFF880140988018015
S1133DC0DFF87804DFF8781409880180DFF87004DC
S1133DD0DFF8CC1309880180DFF864040088DFF879
S1133DE05C140988401ADFF85C140880DFF84C047E
S1133DF00088DFF844140988401ADFF84C1408805E
S1133E00DFF834040088DFF82C140988401ADFF83E
S1133E103C140880DFF81C040088DFF814140988B7
S1133E20401ADFF82C140880DFF804040088DFF857
S1133E30FC130988401ADFF8B8140880DFF8EC0393
S1133E400088DFF8E4130988401ADFF8A814088012
S1133E50DFF8D4030088DFF8CC130988401ADFF8B0
S1133E6098140880DFF8BC030088DFF8B4130988CD
S1133E70401ADFF888140880DFF8A4030088DFF80C
S1133E809C130988401ADFF88C14088010BC704712
S1133E909006FF1FA607FF1FA707FF1F1A04FF1F97
S1133EA07807FF1F1C04FF1F30B4032006210022E3
S1133EB0DFF84C3400241C80DFF8483400241C80D4
S1133EC0DFF8543400241C800B1A5B1C1A00DFF842
S1133ED03834DFF8CC4224881C8064230CE0DBB245
S1133EE0DFF8244414EB430434F8024CDBB2DFF86B
S1133EF0185425F813405B1EDBB2012BEFD20023CC
S1133F000CE0DFF808442488DBB2DFF8FC5335F812
S1133F1013502C19DFF8F4532C805B1CDBB2032BF9
S1133F20EFD3DFF8E833B3F90030032493FBF4F361
S1133F30DFF8D8432380002310E0DBB2DFF8C84366
S1133F4034F81340DBB2DFF8C05335F813506C4338
S1133F50DBB2DFF8BC5325F813405B1CDBB2032B48
S1133F60EBD300230CE0DFF898432488DBB2DFF8BE
S1133F70A05335F813502C19DFF884532C805B1CA4
S1133F80DBB2032BEFD3DFF87833B3F9003003242B
S1133F9093FBF4F3DFF86C432380DFF870330024E1
S1133FA01C80002306E0DBB2DFF86443002524F81C
S1133FB013505B1CDBB2052BF5D3DFF8443300242C
S1133FC01C8003000CE0DFF844432488DBB2DFF8F4
S1133FD0385335F813502C19DFF830532C805B1C00
S1133FE0DBB2C9B28B42EED3DFF82033B3F9003031
S1133FF0C9B293FBF1F3DFF814432380030010E00C
S1134000DBB2DFF8044334F81340DBB2DFF8F852D4
S113401035F813506C43DBB2DFF8F45225F8134043
S11340205B1CDBB2C9B28B42EAD303000CE0DFF8BD
S1134030D0020088DBB2DFF8D84234F813402018ED
S1134040DFF8BC4220805B1CDBB2C9B28B42EED3EA
S1134050DFF8AC02B0F90000D2B290FBF2F0DFF866
S1134060B812088030BC70471E04FF1F3207FF1FC0
S11340703407FF1F3607FF1F7C07FF1F7A07FF1F48
S11340803007FF1F1404FF1FA807FF1F3A07FF1F75
S11340904007FF1F3807FF1F7E07FF1F81B0002066
S11340A08DF8000006E000BF00BF9DF80000401C32
S11340B08DF800009DF800000128F4D301B070478A
S11340C010B5DFF8A003DFF8B81309680160DFF862
S11340D09803334909880180DFF88C030088DFF8EE
S11340E08C130988401ADFF888130880DFF87803F6
S11340F0B0F9000001F00CF9DFF878130968FFF754
S113410055F8DFF8741301F01BF90400DFF86003BD
S1134110B0F9000001F0FCF8DFF860130968FFF75C
S113412045F8210001F00CF9FFF7ACF8DFF854135F
S11341300880DFF83803DFF8301309880180DFF8DE
S11341404403B0F9000041F63901884204DBDFF88A
S1134150340341F638010180DFF82803B0F9000088
S113416040F6E441884204DADFF8180340F6E441FB
S11341700180DFF81003B0F900200221002000F0D4
S11341802DFDDFF80003B0F9000001F0C1F8DFF8FD
S1134190F012086010BD00004207FF1F4807FF1F10
S11341A04C07FF1F3C07FF1F3E07FF1F10B5DFF83A
S11341B0D0020068DFF8AC12096801F003F90400CA
S11341C0DFF8C402B0F90000401C01F0A1F821009E
S11341D0FEF7ECFFDFF8B41201F068F9DFF884129F
S11341E0096801F0ADF8FFF74DF8DFF89812088080
S11341F010BDDFF8A8020068DFF894120880DFF829
S113420094020088DFF8881209880818DFF88412FD
S11342100880DFF888020021016070476007FF1FF3
S11342205E07FF1F5C07FF1F5A07FF1F5807FF1F8A
S11342305607FF1F5407FF1F5207FF1F5007FF1F9A
S11342404E07FF1F6207FF1F6407FF1F6607FF1F5C
S11342506807FF1F80B5DFF84802DFF83812B1F9AC
S113426000100160DFF82C020021018000F056F8F4
S1134270DFF83002B0F9000000F0F6FDDFF82002AC
S11342800068052148430D2190FBF1F0303000F027
S1134290F9FDDFF8101209884018DFF8FC110880D6
S11342A0DFF8F401B0F9000001280EDB002301223D
S11342B00921DFF8F40100F015F9DFF8F001DFF867
S11342C0D811B1F90010016010E001230122092185
S11342D0DFF8D40100F006F9DFF8BC01B0F9000002
S11342E040F2E2410818DFF8C411086001BD000083
S11342F06A07FF1F6C07FF1F6E07FF1F7007FF1F72
S11343008207FF1F8407FF1FFC04FF1F8007FF1F96
S1134310C405FF1F7207FF1F8607FF1FDFF8980100
S1134320B0F90000DFF88C11B1F90010884239DAD5
S1134330DFF8A00101210170DFF88C01B0F9000061
S11343400D2828DBDFF87401B0F90000DFF87C11D8
S1134350097809B2884217DADFF860010088401C46
S1134360DFF858110880DFF85801B0F90000404226
S1134370DFF82C11096848434FF4AF7190FBF1F05A
S1134380DFF82011088046E0DFF81801DFF8481153
S1134390098801803FE0DFF80C01DFF83C1109884F
S11343A0018038E0DFF80C01B0F90000DFF80011FB
S11343B0B1F90010884224DADFF8180100780128E6
S11343C007D1DFF8100100210170DFF8FC000021A3
S11343D00180DFF8E80000210180DFF8EC000088AC
S11343E0401CDFF8E4100880DFF8DC00B0F90000BE
S11343F0032810DBDFF8AC00DFF8D4100988018053
S113440009E0DFF8D00001210170DFF89800DFF83F
S1134410B41009880180DFF8C400B0F90000DFF8A7
S113442080100968884209DADFF878000088DFF82C
S1134430B0100988401ADFF86C100880DFF86000BB
S11344400068052148430D2190FBF1F0303010F154
S1134450640F05DADFF84C00DFF868100988018082
S113446070470000F404FF1F4607FF1F4A07FF1FA1
S11344707407FF1F2404FF1F007094452C04FF1FC2
S1134480F804FF1F1804FF1F2E07FF1F0000A041A0
S11344902C07FF1F7607FF1F8C07FF1F04800B40AC
S11344A08C06FF1F6004FF1F40F00F401090034074
S11344B02204FF1F8407FF1F2004FF1F9E07FF1F06
S11344C06804FF1F6604FF1F8E07FF1F1F04FF1FE2
S11344D06204FF1FA907FF1F6404FF1F6C04FF1F72
S11344E06A04FF1F70B405001D4EAD1B08D0403D8B
S11344F008D0403D08D0403D08D0403D08D009E0F8
S1134500184C07E0184C05E0184C03E0184C01E087
S1134510184CFFE74FF4807544F82150012A15D157
S1134520426901248C4022434261012B06D1026876
S1134530012313FA01F1114301600EE00268012323
S113454013FA01F132EA0101016006E04269012334
S113455013FA01F132EA0101416170BC70470000B5
S113456000F00F400090044000A0044000B004405C
S113457000C0044000D00440006901228A40104079
S1134580C840C0B27047704730B4DFF8B8319842C1
S11345900AD1DFF8B4314FF440741C60DFF8AC3159
S11345A04FF440741C6049E0DFF8A43198420AD10A
S11345B0DFF8A0314FF440741C60DFF89C314FF4F5
S11345C040741C603AE0DFF8943198420AD1DFF875
S11345D090314FF440741C60DFF888314FF440741C
S11345E01C602BE0DFF8803198420AD1DFF87C317F
S11345F04FF440741C60DFF878314FF440741C6051
S11346001CE0DFF8703198420AD1DFF86C314FF4C6
S113461040741C60DFF864314FF440741C600DE09A
S1134620DFF85C31984209D1DFF858314FF4407417
S11346301C60DFF854314FF440741C60DFF804311F
S1134640984208D1DFF844311B6853F48063DFF8E3
S11346503C4123603BE0DFF8F830984208D1DFF8B2
S11346602C311B6853F40063DFF8204123602EE0F3
S1134670DFF8E830984208D1DFF810311B6853F4B2
S11346808053DFF80841236021E0DFF8DC309842F2
S113469008D1DFF8F8301B6853F40053DFF8EC401E
S11346A0236014E0DFF8CC30984208D1DFF8E03022
S11346B01B6853F48063DFF8D840236007E0DFF819
S11346C0D0301B6853F40063DFF8C4402360C37820
S11346D013F0F303C370002383701A4B984208D07D
S11346E000231B4CA04204D053F00003DBB2002B88
S11346F000D049184FF47A7303FB01F31401B3FBA0
S1134700F4F3047814F0E0049BB21D0A15F01F05BD
S11347102C43047043704FF4FA4461431201B1FB1B
S1134720F2F19BB2B1EB4311827A12F0E00411F082
S11347301F0121438172C17851F00C01C17030BC5A
S11347407047000000A0064018C004401CC004408C
S113475000B0064010B004400CB0044000C0064055
S11347600CC0044008C0044000D0064044B00440DB
S113477040B0044000A00E4060D0044064D0044027
S113478000B00E4020D0044024D0044034800440C3
S11347902880044030B40023DFF8202612684FF448
S11347A07A7462438A4201D200209EE0802303FB94
S11347B001F3B2FBF3F44FF6FF739C4280F01781D0
S11347C00723C0B2002840F09280DFF8F4552C6033
S11347D0402404FB01F4B2FBF4F44FF6FF75AC4241
S11347E060D20623C0B2002840F09180DFF8D05593
S11347F02C604C01B2FBF4F44FF6FF75AC4251D27D
S11348000523C0B2002840F09280DFF8B4552C6034
S11348100C01B2FBF4F44FF6FF75AC4242D2042310
S1134820C0B2002840F09380DFF894552C60CC008F
S1134830B2FBF4F44FF6FF75AC4233D20323C0B29B
S1134840002840F09480DFF878552C608C00B2FB8F
S1134850F4F44FF6FF75AC4224D20223C0B2002810
S113486040F09580DFF858552C604C00B2FBF4F40E
S11348704FF6FF75AC4215D20123C0B2002840F0B8
S11348809680DFF83C552C60B2FBF1F44FF6FF71D3
S11348908C4207D20023C0B2002840F09880DFF891
S11348A020150C60C0B2002840F0A380DFF8140586
S11348B0006850F08070DFF80C150860DBB213F06C
S11348C0070050F00800DFF800150860DFF8FC046A
S11348D000210160DFF8F80400210160DFF8F4042E
S11348E0DFF8DC1409680160012030BC7047C0B2F5
S11348F0012803D1DFF8E0542C6069E7C0B2022834
S113490003D1DFF8D8542C6062E70020EDE7C0B291
S1134910012803D1DFF8C0542C606AE7C0B2022832
S113492003D1DFF8B8542C6063E70020DDE7C0B2A0
S1134930012803D1DFF8A0542C6069E7C0B2022833
S113494003D1DFF898542C6062E70020CDE7C0B2B1
S1134950012803D1DFF880542C6068E7C0B2022834
S113496003D1DFF878542C6061E70020BDE7C0B2C2
S1134970012803D1DFF860542C6067E7C0B2022835
S113498003D1DFF858542C6060E70020ADE7C0B2D3
S1134990012803D1DFF840542C6066E7C0B2022836
S11349A003D1DFF838542C605FE700209DE7C0B2E4
S11349B0012803D1DFF820542C6065E7C0B2022837
S11349C003D1DFF818542C605EE700208DE7C0B2F5
S11349D0012803D1DFF800140C6063E7C0B2022899
S11349E003D1DFF8F8130C605CE700207DE70020BA
S11349F07BE7C0B201281ED1DFF8C803006850F07D
S1134A000070DFF8C0130860DBB213F0070050F049
S1134A100800DFF8CC130860DFF8C8030021016048
S1134A20DFF8C40300210160DFF8C003DFF8A81336
S1134A300968016058E7C0B202281ED1DFF8B0034C
S1134A40006850F08070DFF8A8130860DBB213F040
S1134A50070050F00800DFF89C130860DFF89803A3
S1134A6000210160DFF8940300210160DFF8900366
S1134A70DFF868130968016036E7002035E718B4E9
S1134A8042F211739A4201D3002066E0C0B20028BA
S1134A9065D1DFF82C331B680093009B5B1C5A43E1
S1134AA042F21073B2FBF3F2C0B2002828D1C9B2AB
S1134AB00B00002B022B05D9DB1E6CD05B1E032BD5
S1134AC079D985E0DFF83C331B684FF40074234345
S1134AD0DFF830432360C9B28B0003F1804313F540
S1134AE092234FF44074DC60C9B2DFF81C332824ED
S1134AF043F83140C9B2DFF8103313EBC1035A60F5
S1134B00C0B2012818D1C9B2002963D1BD4B1B68BA
S1134B1053F48063BB4C2360C9B2BC4B4FF4407464
S1134B2043F82140C9B2BA4B282443F83140C9B2F2
S1134B30B74B13EBC1035A60C0B202280CD1C9B2FF
S1134B40002949D1C9B2B348282340F83130C9B249
S1134B50B04810EBC1004260012012BC7047C0B2E3
S1134B60012809D1009B9C4C2468A34201D1012354
S1134B7000E00023DBB290E7C0B2022809D1009B19
S1134B80964C2468A34201D1012300E00023DBB248
S1134B9083E70020E1E79B4B1B6853F40063994CC7
S1134BA02360C9B28B0003F1804313F596234FF4BD
S1134BB080645C6098E7934B1B6853F48053914C7A
S1134BC02360C9B2944B4FF4806443F821408BE7CF
S1134BD00020C2E70020C0E70020BEE718B442F27C
S1134BE011739A4201D3002019E0C0B2002818D1F1
S1134BF0734B1B680093009B5B1C5A4342F2107377
S1134C00B2FBF3F2C0B200282FD1C9B2002903D0FD
S1134C10022925D021D326E080480260012012BC5D
S1134C207047C0B2012809D1009B6B4C2468A34291
S1134C3001D1012300E00023DBB2DCE7C0B202288B
S1134C4009D1009B654C2468A34201D1012300E0F3
S1134C500023DBB2CFE70020E1E771480260DDE723
S1134C6070480260DAE70020D9E7C0B2012805D114
S1134C70C9B2674810EBC1004260CFE7C0B2022856
S1134C8005D1C9B2634810EBC1004260C6E70020F9
S1134C90C5E780B50023012209216348FFF722FC00
S1134CA05848006850F400605649086057484FF46B
S1134CB0507101604348006850F000704149086039
S1134CC05348006850F00800514908605048006893
S1134CD030F004004E4908604D48006850F0200050
S1134CE04B4908603E48292101605048006850F053
S1134CF004004E4908604D480068400840004B4994
S1134D0008604B48FE2101604A48002101604A487E
S1134D1000210160494800210160494800210160E7
S1134D204848006840084000464908604648002159
S1134D3001604648002101604548002101602A487D
S1134D4000210160294840F2E2410160414800210C
S1134D50016024480021016001BD2548006850F02D
S1134D608070234908603C484FF4C06101603B48AF
S1134D704FF4C06101603A48006850F004003849BB
S1134D8008603848006850F00800364908601B483D
S1134D90002101601A484FF6FF7101603148006834
S1134DA050F001002F4908602D48006850F00100C0
S1134DB02B49086010480021016070472807FF1F35
S1134DC01407FF1F3C80044000800340048003401C
S1134DD04C800340088003401807FF1F1C07FF1F77
S1134DE000900340049003404C900340089003401B
S1134DF03080044000800B4004800B404C800B400A
S1134E0008800B40388004400C80034000A004401C
S1134E100C9003400C800B4000C004401080034001
S1134E20188003402080034040F00F40549003401A
S1134E3060900340649003405C9003406C90034096
S1134E4070900340809003409090034094900340FE
S1134E50989003401090034048A004404CA00440A4
S1134E6054800B4080800B402649096808607047D5
S1134E70244B1B68986023480068C160214800687F
S1134E800261704710B51F4909680968081A1E496C
S1134E9008601D48006800F03BFA1A4909688968EF
S1134EA0FEF784F9040017480068406900F030FAFE
S1134EB014490968C968FEF779F90100200000F077
S1134EC081FA04000F480068806900F021FA0D4956
S1134ED009680969FEF76AF9210000F031FAFEF762
S1134EE0D1F90A4908600748006806490968496910
S1134EF08161044800680449096841610348006805
S1134F0010BD00001004FF1FDC04FF1FE004FF1F9E
S1134F102A4A126852F40002284B1A60284A12687E
S1134F2032F00202264B1A60254A126852F001023E
S1134F30234B1A60C0B20201224BD150C0B22149A6
S1134F4011EB0011896851F00101C0B21D4A12EB46
S1134F5000129160C0B21B4911EB0011896831F055
S1134F600201C0B2174A12EB00108160704780B58D
S1134F70C0B2144911EB0011896851F00201C0B2AA
S1134F80104A12EB00129160C0B2002805D002282A
S1134F900BD006D303280CD00EE0442000F007FB0E
S1134FA00AE0452000F003FB06E0462000F0FFFA8B
S1134FB002E0472000F0FBFA01BD00003C80044001
S1134FC00070034000710340841A71EB030604D29D
S1134FD06E40001BB141121973414FF4001C1CEBCD
S1134FE0410F34BF7CEB430684E00C0DA4EB135655
S1134FF0362E7DDC012E43DC45EAC32343EA5253BB
S113500012BFD20292025B08240545EAC12141EA9B
S11350105051D2EBC020994125D407D1B0FA80F683
S113502010FA06F164D00020203608E0B1FA81F6C7
S1135030B140C6F1200220FA02F21143B0404FEA17
S1135040F474B4EB465434F001064FEA74040AD8FD
S1135050D6F50016760D04F00044F04061FA06F22D
S11350605040F1404840C00A40EA415021F000411C
S113507028BF5FEA500550F1000044EBD12137E02E
S113508045EAC323DB0A45EAC121C90AB6F1200572
S11350900EDD42EA0242120CC5F1200603FA06F6BE
S11350A0EB4042EA06056D42984161F100010DE0D2
S11350B062FA06F5F240554063FA06FC82EA0C02F5
S11350C0F3405A406D42904161EB030111F4801F9B
S11350D005D1641E620502D06D004041494121F4AE
S11350E08011430875F1004350F1000041EB045175
S11350F070BC70471CEB410F15D223F0004352EAF9
S113510043060BD04FEA4C0CBCEB410F04D80C0DFA
S1135110661E342EB7DDEBE7801A994150EA41064A
S113512008BF0021E4E708BF1CEB430F28BF6FF062
S11351300001DDE7002810D16D48006850F00060E0
S11351406B4908606B48006830F09000694908605A
S11351506848002101600120704701280FD166488A
S1135160006850F00060644908606248006830F4E8
S11351701040604908605F4800210160EBE70020AF
S1135180EAE738B505000024D2B2280000F01EF882
S1135190002D0CD1594800680006FBD55848046816
S11351A05648006830F08000544908600BE05548C8
S11351B000680006FBD5544804685248006830F083
S11351C0800050490860200080B232BD10B50C0048
S11351D00021D2B2082A06D00A2A08D00C2A04D008
S11351E0102A06D007E0002106E0012104E0022194
S11351F002E0032100E00021890011F00C0151F0CC
S11352005001424A1170414904224A703F4941F217
S113521034224A803D4945F278628A8000282AD1A6
S1135220042C0BDA14F01F0050F0400037490872C8
S11352303649324800F048F8012010BD201F1428D8
S11352400AD214F01F0050F04000304908722F4970
S11352502A4800F039F8EFE71A2C0AD114F01F009D
S113526050F04000294908722849244800F02CF8DD
S1135270E2E70020E1E7042C09DA14F01F0050F003
S113528040002249087221491C4800F01DF8201FE3
S113529014280AD214F01F0050F040001B49087271
S11352A01A49184800F010F8C6E71A2C0AD114F06D
S11352B01F0050F04000154908721449114800F0CD
S11352C003F8B9E70020B8E70A7882604A78C26038
S11352D04A8882618A88C2618A790262CA79426292
S11352E0CA6802650A7A0260497A41607047000020
S11352F03C800440188004403080044000B00340E7
S113530010B0034000B00B4010B00B40E404FF1F8A
S1135310002840F10780F446404200F003F850F0C2
S1135320004060470AD0B0FA80F18840D1F19D0175
S1135330C905020672F1004241EB102070470000DB
S113534090EA010F44BF81F0004100F043B800BF70
S1135350421A3CBF801A89184FF0004CC0F3C75260
S1135360FF2A24D0C1F3C75313B3D21AD2F11903BD
S113537027DD4CEA01214CFA03F321EA0303D1406F
S1135380C20D4CEA0020401834BF20EA0C004CEA5D
S11353905000D20553EA006373EB0C0C52EB10205F
S11353A0420012F1807F38BF7047C00DC0057047BE
S11353B0490212BF9A4200EB5120F8E7D2F11703D9
S11353C0D9D5704790EA010F44BF81F00041FFF73F
S11353D0BFBF00BF431A4FF000423EBF5340C01A44
S11353E0C91800BFD3095FEAD05C13EB400F34BF88
S11353F0B3EB410F40E07CEBD1530CD342EA0121E3
S113540022D8D1EB402009D3400A28BF5FEA5001DB
S113541040EBCC507047401A15D04002B0FA80F2ED
S1135420521C9040400A4FEA3C23B3EB026384BF12
S113543000EB730007E040F400001A16DB07C2F12A
S11354400102D04018437047182BFCDC31FA03F2F8
S113545002FA03F3591A38BF42F00102D2EB40209A
S11354603CBF4000ACF1010C5FEACC5CC20572F1B8
S113547000414CEB5020704713EB400F0FD24B0010
S113548009D0ACEBD153022B03DB4902172BDDDD32
S113549070479143401A4300D5D10020704713EB65
S11354A0410FD0D36FF000007047000010B5FF2308
S11354B013EAD0541DBF13EAD1529C429A4239E0F8
S11354C0A41ADA0780EA0103134042EA012142EAFE
S11354D00020421A3CBF641E01EB4202090AB2FBDF
S11354E0F1FE01FB1E221202B2FBF1F001FB1022BD
S11354F06EF30F201202B2FBF1FE4EEA00207F345D
S113550006DDFE2C24DA53EA500050EBC45010BDE3
S1135510D4F1020401FB1E2240F08071192C1DDC21
S113552021FA04F0C4F12004A140114371F10042B6
S1135530584110BD9C421ABF03EAD1529A420FE06F
S113554080EA010E0EF00043400004D0490016D159
S113555043F0FF4010BD490008BFD343180010BDFD
S11355609C4205D1D21AF7D001F00041484010BD49
S11355704A0212BF0846484000F0004010BD4AB934
S11355800902B1FA81F2914044B1A418C00140F07B
S113559000409EE7C90141F0004152420002B0FAC6
S11355A080F4A040141B94E72549086070475C28E8
S11355B000DB5B20202190FBF1F1002903D00229BC
S11355C029D014D33AE00121202290FBF2F303FB0B
S11355D0120399401B4A11600121202290FBF2F32F
S11355E003FB120311FA03F01749086026E00121B6
S11355F0202290FBF2F303FB12039940134A11603B
S11356000121202290FBF2F303FB120311FA03F0B1
S11356100F49086012E00121202290FBF2F303FB02
S1135620120399400B4A11600121202290FBF2F3EE
S113563003FB120311FA03F00749086070470000E6
S113564008ED00E080E200E000E100E084E200E038
S113565004E100E088E200E008E100E0000000006E
S1135660000000000000000000000000000000F83E
S113567000000000000000333000000000100C06A1
S1135680100C0600000000000000000040C078403C
S1135690C0784000043F04043F040400007088FC08
S11356A008300000001820FF211E0000F008F00060
S11356B0E018000000211C031E211E0000F00888D1
S11356C0700000001E2123241927211010160E003B
S11356D0000000000000000000000000000000E0E6
S11356E018040200000000071820400000020418FB
S11356F0E00000000040201807000000404080F057
S1135700804040000202010F01020200000000F08C
S1135710000000000101011F010101000000000060
S11357200000000080B070000000000000000000D5
S1135730000000000001010101010101000000005E
S113574000000000003030000000000000000000F5
S113575080601804006018060100000000E01008D2
S11357600810E000000F102020100F00001010F8A7
S1135770000000000020203F2020000000700808E6
S11357800888700000302824222130000030088866
S1135790884830000018202020110E000000C0208E
S11357A010F8000000070424243F240000F80888AF
S11357B0880808000019212020110E0000E010883C
S11357C088180000000F112020110E00003808086E
S11357D0C83808000000003F00000000007088087E
S11357E008887000001C222121221C0000E01008FF
S11357F00810E0000000312222110F00000000C058
S1135800C0000000000000303000000000000080F4
S113581000000000000080600000000000008040E4
S113582020100800000102040810200040404040FD
S11358304040400004040404040404000008102050
S11358404080000000201008040201000070480895
S11358500808F0000000003036010000C030C828FD
S1135860E810E0000718272423140B000000C038B8
S1135870E0000000203C23020227382008F8888832
S113588088700000203F202020110E00C03008083E
S113589008083800071820202010080008F8080815
S11358A00810E000203F202020100F0008F888880E
S11358B0E8081000203F20202320180008F88888DA
S11358C0E8081000203F200003000000C030080852
S11358D00838000007182020221E020008F80800DB
S11358E00008F808203F210101213F20000808F8A2
S11358F0080800000020203F2020000000000808C5
S1135900F8080800C08080807F00000008F888C084
S113591028180800203F20012638200008F8080035
S113592000000000203F20202020300008F8F8006C
S1135930F8F80800203F003F003F200008F830C07E
S11359400008F808203F200007183F00E01008086E
S11359500810E0000F10202020100F0008F808089D
S11359600808F000203F210101010000E0100808B0
S11359700810E0000F18242438504F0008F88888D5
S113598088887000203F2000030C302000708808B5
S1135990080838000038202121221C00180808F8C3
S11359A0080818000000203F2000000008F8080044
S11359B00008F808001F202020201F000878880015
S11359C000C83808000007380E010000F80800F885
S11359D00008F800033C0700073C0300081868802F
S11359E08068180820302C03032C30200838C800A5
S11359F0C83808000000203F2000000010080808F4
S1135A00C83808002038262120201800000000FE95
S1135A10020202000000007F40404000000C30C041
S1135A2000000000000000010638C000000202026D
S1135A30FE000000004040407F000000000004021F
S1135A40020204000000000000000000000000004A
S1135A50000000008080808080808080000202043A
S1135A600000000000000000000000000000808032
S1135A70808000000019242222223F2008F80080A0
S1135A8080000000003F112020110E000000008063
S1135A9080800000000E11202020110000000080F2
S1135AA08088F800000E112020103F200000808024
S1135AB080800000001F222222221300008080F038
S1135AC0888888180020203F202000000000808063
S1135AD080808000006B94949493600008F80080A8
S1135AE080800000203F210000203F200080989803
S1135AF0000000000020203F202000000000008063
S1135B009898000000C08080807F000008F80000A2
S1135B1080808000203F24022D302000000808F8F7
S1135B20000000000020203F2020000080808080B2
S1135B3080808000203F20003F20003F8080008044
S1135B4080800000203F210000203F200000808052
S1135B5080800000001F202020201F008080008003
S1135B608000000080FFA12020110E0000000080B2
S1135B7080808000000E112020A0FF8080808000A3
S1135B808080800020203F212000010000008080D0
S1135B90808080000033242424241900008080E0C5
S1135BA0808000000000001F202000008080000092
S1135BB000808000001F202020103F208080800073
S1135BC00080808000010E30080601008080008083
S1135BD0008080800F300C030C300F0000808000A8
S1135BE0808080000020312E0E31200080808000D3
S1135BF00080808080818E70180601000080808083
S1135C00808080000021302C222130000000000020
S1135C10807C020200000000003F404000000000C1
S1135C20FF00000000000000FF0000000002027CF2
S1135C30800000000040403F000000000006010119
S1135C40020204040000000000000000DFF800F07D
S1135C507504FF1F80B57348006850F4785071498B
S1135C6008601021052000F02FF86F4908606E4885
S1135C7000684FF47A7148436C4908606B480068C7
S1135C806B490968C1F30361491CB0FBF1F0694930
S1135C90086000F003F800F00CF801BD66480068E5
S1135CA050F480506449086064484FF4E061016036
S1135CB070476348006850F001006149086061481A
S1135CC04FF4A0610160704780B50A00C0B2092892
S1135CD001D30020A4E0D2B2112A01D301209FE015
S1135CE0594A00231370594A126852F08052574B94
S1135CF01A60574A127852F08002554B1A70554A6E
S1135D0098231370544A1278D206FBD4524A12785C
S1135D10C2F38102D2B2022AF8D1504A0E23137080
S1135D204F4A00231370C0B200280BD002281FD0A2
S1135D3013D3042832D026D3062845D039D30728D4
S1135D404DD056E00123002200210020FFF77EFF02
S1135D5043484121017032214BE0032301220121F8
S1135D600020FFF773FF3E485A210170642140E090
S1135D700323012201210020FFF768FF384858213E
S1135D800170782135E00123002200210020FFF773
S1135D905DFF33484021017030212AE005230222AF
S1135DA002210020FFF752FF2D484F210170962158
S1135DB01FE00723022202210020FFF747FF2848A3
S1135DC05E210170B42114E0072302220221002085
S1135DD0FFF73CFF22485E210170CF2109E0082330
S1135DE0022202210020FFF731FF1D485E210170CD
S1135DF0E121194800788006FBD517480078400651
S1135E00FBD51448007810F03F00124A1070124875
S1135E100078C0F38100C0B20328F8D10800C0B2F2
S1135E2002BD0000388004402407FF1F2007FF1F25
S1135E30448004402807FF1F048004401890044055
S1135E40408004400CB004400140064034800440CB
S1135E5008C0074000400640064006400440064093
S1135E600540064080B572B636480078D0F114007B
S1135E703549087034480078022807D3324800783E
S1135E8032490978884201D1FDF733FB2F48007865
S1135E90401C2E4908702D48007814280AD32B483A
S1135EA0002101702A48FDF77AFBFDF7E5FB29483C
S1135EB00121017028480078401C27490870FEF72A
S1135EC075F926480078401C244908702348007856
S1135ED0012807D02AD303280DD00BD3052822D0BC
S1135EE020D323E01E48B0F90000002801D1FEF7BA
S1135EF0E7F81BE01AE01B48B0F90000002810D1B5
S1135F00FEF777F918480078401C174908701648BE
S1135F100078042805D31548012101801248002186
S1135F20017003E002E00D48002101701048006890
S1135F3050F001000E4908600020FFF718F862B61F
