S025000050452056322E3020323031342E30382E31322070756C736520746573742E737265632D
S1130000F8FF002011040000675E0000675E000036
S1130010675E0000675E0000675E0000675E0000C8
S1130020675E0000675E0000675E0000675E0000B8
S1130030675E0000675E0000675E0000675E0000A8
S1130040675E0000675E0000675E0000675E000098
S1130050675E0000675E0000675E0000675E000088
S1130060675E0000675E0000675E0000675E000078
S1130070675E0000675E0000675E0000675E000068
S1130080675E0000675E0000675E0000675E000058
S1130090675E0000675E0000675E0000675E000048
S11300A0675E0000675E0000675E0000675E000038
S11300B0675E0000675E0000675E0000675E000028
S11300C0675E0000675E0000675E0000675E000018
S11300D0675E0000675E0000675E0000675E000008
S11300E0675E0000675E0000675E0000675E0000F8
S11300F0675E0000675E0000675E0000675E0000E8
S1130100675E0000675E0000675E0000675E0000D7
S1130110675E0000675E0000675E0000675E0000C7
S1130120675E0000675E0000675E0000675E0000B7
S1130130675E0000675E0000675E0000675E0000A7
S1130140675E0000675E0000675E0000675E000097
S113015009790000675E0000675E0000675E0000CA
S1130160675E0000675E0000675E0000675E000077
S1130170675E0000675E0000675E0000675E000067
S1130180675E0000675E0000675E0000675E000057
S1130190675E0000675E0000675E0000675E000047
S1130400FFFFFFFFFFFFFFFFFFFFFFFFFEFFFFFFF9
S11304104FF000004FF000014FF000024FF00003D6
S11304204FF000044FF000054FF000064FF00007B6
S11304304FF000084FF000094FF0000A4FF0000B96
S11304404FF0000C62B607F089FCFEE710B50022FD
S113045000240023DFF81C18002003E000220A70A7
S1130460491C401CC0B28A28F8D3DFF80C180020BD
S113047003E000220A70491C401CC0B28A28F8D349
S113048002F00CFDDFF8F4270021002003F017F838
S1130490DFF8EC2700213C2003F011F8DFF8E42713
S11304A00221002003F00BF8DFF8DC2702213C20B6
S11304B003F005F8DFF8D4270421002002F0FFFF41
S11304C0DFF8CC2704213C2002F0F9FF03F0BAF84E
S11304D003F0F8F8DFF8BC1708706E2003F07AFA1E
S11304E0DFF8B0070078012840F0A080DFF8A40707
S11304F0FF210170DFF8A0070121017002F049FE1D
S11305008CE0DDA20021002002F0D9FFDFF88C0787
S11305100068DFF88C1703F081FA03F0EBFA80B27D
S1130520020000213C2002F05CFFD4A20221002042
S113053002F0C5FFDFF8182E02213C2002F0BFFFB5
S1130540CFA20421002002F0BAFFDFF8502E0421CC
S11305503C2002F0B4FFCBA20621002002F0AFFF42
S1130560DFF83C2E06213C2002F0A9FF6E2003F0A8
S113057031FA03F067F803F0A5F8DFF8441E0870B9
S1130580DFF83C0E0078FF2805D0DFF80807DFF815
S1130590301E09780170DFF8FC060078072813D1B3
S11305A0DFF8F806006803F0C7FADFF8F826DFF88A
S11305B0F83603F0F9FA03F06BFBDFF8E016086095
S11305C0DFF8D006FF210170DFF8C806007808289C
S11305D013D1DFF8C806006803F0AEFADFF8C426CA
S11305E0DFF8C83603F0E0FA03F052FBDFF8AC168C
S11305F00860DFF8A006FF210170DFF89806007894
S113060009280BD1DFF89006FF210170DFF884067A
S1130610FF210170DFF8A80DFF210170DFF87806D3
S1130620007801283FF46DAF02F0B3FDDFF86406F3
S11306300078022840F09C80DFF85806FF21017002
S1130640DFF854060221017002F0A3FD88E06E2059
S113065003F0C0F902F0F6FF03F034F8DFF8601D90
S11306600870DFF85C0D0078FF2805D0DFF8240659
S1130670DFF84C1D09780170D7A20021002002F098
S11306801EFFDFF82C060068DFF8141603F0C6F925
S113069003F030FA80B2020000213C2002F0A1FEF7
S11306A076A20221002002F00AFFDFF8B82D022111
S11306B03C2002F004FF72A20421002002F0FFFE9D
S11306C0DFF82C2E04213C2002F0F9FE6DA2062155
S11306D0002002F0F4FEDFF81C2E06213C2002F07C
S11306E0EEFEDFF8B0050078072813D1DFF8C00567
S11306F0006803F021FADFF8AC25DFF8AC3503F02D
S113070053FA03F0C5FADFF8A8150860DFF884058A
S1130710FF210170DFF87C050078082813D1DFF889
S11307209005006803F008FADFF87825DFF87C35D7
S113073003F03AFA03F0ACFADFF874150860DFF856
S11307405405FF210170DFF84C050078092807D112
S1130750DFF84405FF210170DFF83805FF2101703F
S1130760DFF83405007802283FF471AF02F011FD80
S1130770DFF820050078032840F0A680DFF8140590
S1130780FF210170DFF810050321017002F001FD63
S113079092E06E2003F01EF902F054FF02F092FF83
S11307A0DFF81C1C0870DFF8180C0078FF2805D04F
S11307B0DFF8E004DFF8081C09780170D3A20021F7
S11307C0002002F07CFEDFF87C0D0068DFF8D01416
S11307D003F024F903F08EF980B2020000213C20DA
S11307E002F0FFFD25A20221002002F068FEDFF8DE
S11307F0742C02213C2002F062FE21A2042100207C
S113080002F05DFEDFF8E82C04213C2002F057FEE4
S11308101CA20621002002F052FEDFF8D82C06218B
S11308203C2002F04CFEDFF86C040078072813D15A
S1130830DFF8100D006803F07FF9DFF86824DFF8B3
S1130840683403F0B1F903F023FADFF8F81C086008
S1130850DFF84004FF210170DFF83804007808282D
S11308601DD1DFF8E00C006803F066F9DFF83424EA
S1130870DFF8383408E000BF53703A002B3A000028
S11308802D3A000052653A0003F08EF903F000FAA5
S1130890DFF8B01C0860DFF8FC03FF210170DFF80B
S11308A0F4030078092807D1DFF8EC03FF21017075
S11308B0DFF8E003FF210170DFF8DC030078032890
S11308C03FF467AF02F065FCDFF8C8030078042842
S11308D040F09980DFF8BC03FF210170DFF8B80312
S11308E00421017002F055FC86E06E2003F072F8DA
S11308F002F0A8FE02F0E6FEDFF8C41A0870DFF882
S1130900C00A0078FF2805D0DFF88803DFF8B01AA2
S113091009780170DFF8302C0021002002F0CFFDAF
S1130920DFF8280C0068DFF8281C03F077F803F0E0
S1130930E1F880B2020000213C2002F014FEC6A2BD
S11309400221002002F0BBFDDFF8182B02213C201D
S113095002F0B5FDC5A20421002002F0B0FDDFF8CD
S1130960902B04213C2002F0AAFDC1A20621002004
S113097002F0A5FDDFF87C2B06213C2002F09FFD50
S1130980C4480078072812D1DFF8C00B006803F0D0
S1130990D3F8DFF8C02BDFF8C03B03F005F903F010
S11309A077F9DFF8A81B0860BA48FF210170B9483D
S11309B00078082816D1DFF8940B006803F0BCF81F
S11309C0DFF8902BDFF8943B03F0EEF803F060F9C6
S11309D0DFF8781B02E000BF53693A000860AD48B5
S11309E0FF210170AB480078092805D1AA48FF21EE
S11309F00170A848FF210170A748007804283FF43B
S1130A0074AF02F0C6FBA348007805285AD1A14868
S1130A10FF210170A0480521017002F0BAFB4BE0F0
S1130A206E2002F0D7FF02F00DFE02F04BFEDFF85D
S1130A3090190870DFF888090078FF2804D09548D9
S1130A40DFF87C1909780170DFF8142B00210020ED
S1130A5002F035FDDFF80C0B027800213C2002F097
S1130A6082FD83A20621002002F029FDDFF830294F
S1130A7006213C2002F023FD86480078072806D191
S1130A80DFF8E00A012101708248FF2101708148EA
S1130A900078082806D1DFF8CC0A002101707D48CF
S1130AA0FF2101707B480078092805D17A48FF218D
S1130AB001707848FF210170774800780528AFD08D
S1130AC002F067FB7348007806287AD17148FF2149
S1130AD0017071480621017002F05BFB6BE06E202F
S1130AE002F078FF02F0AEFD02F0ECFDDFF8D01862
S1130AF00870DFF8CC080078FF2804D06548DFF8D8
S1130B00C01809780170DFF8602A01E053643A00E4
S1130B100021002002F0D3FCDFF8500AB0F90020D5
S1130B2000213C2002F01FFD4BA20221002002F014
S1130B30C6FCDFF8302902213C2002F0C0FC4BA2A5
S1130B400421002002F0BBFCDFF8A42904213C208E
S1130B5002F0B5FC46A20621002002F0B0FCDFF84A
S1130B60942906213C2002F0AAFC4A480078072870
S1130B7009D1DFF8F8090088401CDFF8F019088073
S1130B804448FF21017043480078082809D1DFF860
S1130B90DC090088401EDFF8D41908803D48FF2195
S1130BA001703C480078092805D13B48FF210170B9
S1130BB03848FF2101703848007806288FD002F0A9
S1130BC0E8FA344800780A287FF45CAC3148FF2105
S1130BD0017002F0DEFADFF86C090268344801683B
S1130BE02E48006803F0A0F8FA2002F0F3FEDFF8C4
S1130BF080290021002002F062FCDFF8782900211E
S1130C003C2002F05CFCDFF870290221002002F095
S1130C1056FCDFF868290421002002F050FCDFF8BC
S1130C20602904213C2002F04AFCDFF858290621FF
S1130C30002002F044FC02F005FD02F043FD1549DA
S1130C4008706E2002F0C6FE12480078012840F0B9
S1130C50C680104802E000BF2B3A0000FF2101705B
S1130C600D480121017002F094FAB0E02D3A000021
S1130C7052653A00E406FF1F6407FF1F0880000066
S1130C8010800000188000002080000028800000F0
S1130C90907F00007E04FF1F8004FF1F8404FF1F59
S1130CA00000C8427B14AE47E17A843FE17A84BFF6
S1130CB08804FF1FDFA20021002002F000FCDFF8FF
S1130CC0C8080068DFF8881802F0A8FE02F012FFD6
S1130CD080B2020000213C2002F045FCD6A2022191
S1130CE0002002F0ECFBDFF8682602213C2002F031
S1130CF0E6FBD2A20421002002F0E1FBDFF89C26EF
S1130D0004213C2002F0DBFBCDA20621002002F0EE
S1130D10D6FBDFF88C2606213C2002F0D0FB6E20A7
S1130D2002F058FE02F08EFC02F0CCFCDFF89016C4
S1130D300870DFF88C060078FF2805D0DFF84C082F
S1130D40DFF87C1609780170DFF84008007807287E
S1130D5013D1DFF83408006802F0EEFEDFF8F42760
S1130D60DFF8F43702F020FF02F092FFDFF81818E2
S1130D700860DFF81808FF210170DFF81008007818
S1130D80082813D1DFF80008006802F0D5FEDFF868
S1130D90C427DFF8C83702F007FF02F079FFDFF855
S1130DA0E8170860DFF8E407FF210170DFF8DC07CB
S1130DB0007809280BD1DFF8D807FF210170DFF88C
S1130DC0CC07FF210170DFF8F805FF210170DFF87F
S1130DD0C007007801283FF46DAF02F0DAF9DFF8BC
S1130DE0AC070078022840F09C80DFF8A007FF21C0
S1130DF00170DFF89C070221017002F0CAF988E053
S1130E006E2002F0E7FD02F01DFC02F05BFCDFF84F
S1130E10B0150870DFF8A8050078FF2805D0DFF8C2
S1130E206C07DFF89C1509780170CAA20021002024
S1130E3002F045FBDFF85C070068DFF8141702F0E6
S1130E40EDFD02F057FE80B2020000213C2002F0CA
S1130E508AFB79A20221002002F031FBDFF804268C
S1130E6002213C2002F02BFB74A20421002002F09A
S1130E7026FBDFF87C2604213C2002F020FB70A234
S1130E800621002002F01BFBDFF8682606213C2027
S1130E9002F015FBDFF8F4060078072813D1DFF819
S1130EA0F406006802F048FEDFF8A826DFF8A8364A
S1130EB002F07AFE02F0ECFEDFF8D8160860DFF8E4
S1130EC0CC06FF210170DFF8C4060078082813D18E
S1130ED0DFF8C006006802F02FFEDFF87826DFF89E
S1130EE07C3602F061FE02F0D3FEDFF8A81608603B
S1130EF0DFF89806FF210170DFF8900600780928D2
S1130F0007D1DFF88C06FF210170DFF88006FF218E
S1130F100170DFF87C06007802283FF471AF02F01C
S1130F2038F9DFF868060078032840F0A580DFF878
S1130F305C06FF210170DFF858060321017002F0FE
S1130F4028F991E06E2002F045FD02F07BFB02F0EF
S1130F50B9FBDFF86C140870DFF864040078FF282C
S1130F6005D0DFF82806DFF8581409780170D5A2F7
S1130F700021002002F0A3FADFF81C060068DFF865
S1130F80D01502F04BFD02F0B5FD80B20200002145
S1130F903C2002F0E8FA28A20221002002F08FFA95
S1130FA0DFF8C02402213C2002F089FA23A20421A4
S1130FB0002002F084FADFF8382504213C2002F0F6
S1130FC07EFA1FA20621002002F079FADFF8242518
S1130FD006213C2002F073FADFF8B00500780728F8
S1130FE013D1DFF8B405006802F0A6FDDFF864252C
S1130FF0DFF8643502F0D8FD02F04AFEDFF89815F8
S11310000860DFF88805FF210170DFF880050078AB
S113101008281CD1DFF88005006802F08DFDDFF898
S11310203425DFF8383502F0BFFD02F031FEDFF879
S1131030681507E04B703A002B3A00002D3A000087
S113104052653A000860DFF84405FF210170DFF8BB
S11310503C050078092807D1DFF83405FF21017029
S1131060DFF82805FF210170DFF824050078032844
S11310703FF468AF02F08DF8DFF81005007804281B
S113108040F08380DFF80405FF210170DFF80005DC
S11310900421017002F07DF870E06E2002F09AFCE9
S11310A002F0D0FA02F00EFBC5490870C44800787B
S11310B0FF2804D0DFF8D404C14909780170DFF8AF
S11310C01C2D0021002002F0FAF9DFF8140DB0F90C
S11310D0002000213C2002F046FAD2A20221002086
S11310E002F0EDF9DFF87C2302213C2002F0E7F95D
S11310F0CDA20421002002F0E2F9DFF8F423042158
S11311003C2002F0DCF9C9A20621002002F0D7F944
S1131110DFF8E02306213C2002F0D1F9DFF86C046B
S1131120007807280AD1DFF8B80C0088401DDFF8E2
S1131130B01C0880DFF85404FF210170DFF84C0470
S1131140007808280DD1DFF8980C0088401FDFF8DC
S1131150901C01E04B693A000880DFF83004FF215D
S11311600170DFF828040078092807D1DFF820048B
S1131170FF210170DFF81404FF210170DFF810046F
S11311800078042889D002F004F8DFF8000400781D
S1131190052875D1DFF8F403FF210170DFF8F003AF
S11311A00521017001F0F5FF64E06E2002F012FCED
S11311B002F048FA02F086FA814908708048007803
S11311C0FF2804D0DFF8C4037D4909780170DFF8F3
S11311D0182C0021002002F072F9DFF8100CB0F98D
S11311E0002000213C2002F0BEF98EA20221002042
S11311F002F065F99B4A02213C2002F060F98AA2C0
S11312000421002002F05BF9B94A04213C2002F0D9
S113121056F986A20621002002F051F9B54A0621AA
S11312203C2002F04CF9DFF864030078072809D168
S1131230DFF8B80B0088401DDFF8B01B0880D348E6
S1131240FF210170D1480078082809D1DFF89C0BF0
S11312500088401FDFF8941B0880CC48FF210170F0
S1131260CA480078092805D1C948FF210170C74838
S1131270FF210170C6480078052896D001F089FF47
S1131280C2480078062879D1C048FF210170C048BF
S11312900621017001F07DFF6AE06E2002F09AFBE6
S11312A002F0D0F902F00EFA45490870444800787B
S11312B0FF2803D0B548424909780170DFF8342B80
S11312C002E000BF4B643A000021002002F0F7F86E
S11312D0DFF8240BB0F9002000213C2002F043F990
S11312E050A20221002002F0EAF85E4A02213C20CA
S11312F002F0E5F84CA20421002002F0E0F87C4A58
S113130004213C2002F0DBF848A20621002002F070
S1131310D6F8784A06213C2002F0D1F89B480078A0
S1131320072809D1DFF8D00A0088401DDFF8C81A61
S113133008809648FF2101709448007808280DD150
S1131340DFF8B40A0088401FDFF8AC1A02E000BFDF
S11313503080000008808D48FF2101708B480078A0
S1131360092805D18A48FF2101708848FF210170AE
S113137087480078062890D001F00BFF8348007856
S11313800A287FF431AC8148FF21017001F001FF8C
S1131390FA2002F01FFBDFF8682A03E0388000001F
S11313A0408000000021002002F089F8DFF8542A70
S11313B00021282002F083F8DFF84C2A02E000BF65
S11313C07D04FF1F00215A2002F079F8DFF83C2A3F
S11313D00221002002F073F8DFF8342A02214620AB
S11313E002F06DF8DFF82C2A0421462002F067F899
S11313F002F028F902F066F9644908706E2002F0E0
S1131400E9FA62480078012840F08D805F48FF21A6
S113141001705F480121017001F0BBFE7CE0DFF840
S1131420F82905E02B3A00002D3A000052653A00F5
S11314300021002002F043F8DFF8E009B0F90020B1
S113144092B200213C2001F0CCFFC9A2022100206D
S113145002F035F8DFF8C82902213C2002F02FF809
S1131460C4A201E0488000000421002002F027F813
S1131470DFF8B02904213C2002F021F8DFA2062184
S1131480002002F01CF8DFF8A02906213C2002F01D
S113149016F86E2002F09EFA02F0D4F802F012F967
S11314A0DFF8501E0870DFF84C0E0078FF2804D0D7
S11314B03648DFF8401E0978017034480078072860
S11314C009D1DFF858090088401CDFF8501908805A
S11314D02E48FF2101702D48007808280ED1DFF82E
S11314E03C090088401EDFF834190880274803E0CF
S11314F05080000058800000FF21017023480078CC
S1131500092809D12248FF2101702048FF210170D8
S1131510DFF8E00DFF2101701D48007801283FF439
S11315207EAF01F036FE19480078022840F0AF8003
S11315301648FF21017016480221017001F029FEAE
S11315409EE000BF8C04FF1F608000002804FF1F82
S1131550000020419A9999999999B93F9999B9BFED
S1131560688000001F04FF1F708000004804FF1FF4
S11315707880000080800000888000009080000057
S113158098800000A08000005804FF1F7E04FF1F05
S11315908004FF1FE807FF1F5C04FF1F6E2002F09A
S11315A019FA02F04FF802F08DF8DFF8481D0870C0
S11315B0DFF8400D0078FF2805D0DFF87008DFF869
S11315C0341D09780170DFF868280021002001F03B
S11315D076FFDFF86008B0F9002092B200213C20C9
S11315E001F0C1FF62A20221002001F068FFDFF8D0
S11315F0142E02213C2001F062FF5EA2042100208F
S113160001F05DFFDFF8002E04213C2001F057FFBC
S11316107AA20621002001F052FFDFF8F02D062106
S11316203C2001F04CFFDFF80408007807280AD1B9
S1131630DFF800080088401DDFF8F8170880DFF89D
S1131640EC07FF210170DFF8E407007808280AD1CD
S1131650DFF8E0070088401FDFF8D8170880DFF8BC
S1131660CC07FF210170DFF8C4070078092807D1EF
S1131670DFF8C407FF210170DFF8B007FF21017014
S1131680DFF8B4070078022888D001F082FDDFF883
S11316909C070078032840F08880DFF89007FF213A
S11316A00170DFF894070321017001F072FD75E009
S11316B06E2002F08FF901F0C5FF02F003F8DFF8A5
S11316C0341C0870DFF82C0C0078FF2805D0DFF8F4
S11316D05C07DFF8201C09780170DFF8602700211F
S11316E0002001F0ECFEDFF85807B0F900200021DB
S11316F03C2001F076FE1EA20221002001F0DFFE54
S1131700DFF8002D02213C2001F0D9FE19A20421AA
S1131710002001F0D4FEDFF8F02C04213C2001F07D
S1131720CEFE36A20621002001F0C9FEDFF8DC2C33
S113173006213C2001F0C3FEDFF8F00600780728FC
S11317400AD1DFF8FC060088401DDFF8F416088093
S1131750DFF8D806FF210170DFF8D00600780828EA
S11317600FD1DFF8DC060088401FDFF8D41603E051
S11317702B3A00002D3A00000880DFF8B006FF2164
S11317800170DFF8A8060078092807D1DFF8A80659
S1131790FF210170DFF89406FF210170DFF898063D
S11317A00078032884D001F0F4FCDFF88006007888
S11317B0042840F08780DFF87406FF210170DFF809
S11317C078060421017001F0E4FC74E06E2002F05C
S11317D001F901F037FF01F075FFDFF8181B0870FD
S11317E0DFF8100B0078FF2805D0DFF84006DFF89B
S11317F0041B09780170DFF84C2601E052653A00B9
S11318000021002001F05BFEDFF83C06B0F9002067
S113181092B200213C2001F0A6FEE3A202210020A6
S113182001F04DFEDFF8DC2B02213C2001F047FEE5
S1131830E1A20421002001F042FEDFF8CC2B0421B8
S11318403C2001F03CFEDDA20621002001F037FE21
S1131850DFF8B82B06213C2001F031FEDFF8CC057F
S1131860007807280AD1DFF8E0050088401DDFF87A
S1131870D8150880DFF8B405FF210170DFF8AC0546
S1131880007808280AD1DFF8C0050088401FDFF877
S1131890B8150880DFF89405FF210170DFF88C0586
S11318A00078092807D1DFF89005FF210170DFF8DF
S11318B07C05FF210170DFF880050078042885D0BD
S11318C001F067FCDFF864050078052840F08480A7
S11318D0DFF85805FF210170DFF85C050521017070
S11318E001F057FC71E06E2002F074F801F0AAFEDA
S11318F001F0E8FEDFF8FC190870DFF8F809007859
S1131900FF2805D0DFF82405DFF8E819097801700D
S1131910DFF8F82D0021002001F0D1FDDFF8F00DF3
S1131920B0F9002092B200213C2001F01CFE9EA2DE
S11319300221002001F0C3FDDFF8C82A02213C2067
S113194001F0BDFD9CA20421002001F0B8FDDFF8E8
S1131950B82A04213C2001F0B2FD98A206210020FF
S113196001F0ADFDDFF8A42A06213C2001F0A7FD1B
S1131970DFF8B804007807280AD1DFF8940D00884E
S1131980401CDFF88C1D0880DFF8A004FF210170E3
S1131990DFF89804007808280AD1DFF8740D00886D
S11319A0401EDFF86C1D0880DFF88004FF21017001
S11319B0DFF878040078092807D1DFF87C04FF21D8
S11319C00170DFF86804FF210170DFF86C0400780F
S11319D0052888D001F0DDFBDFF8500400780628E4
S11319E040F07F80DFF84404FF210170DFF84804F1
S11319F00621017001F0CDFB6DE06E2001F0EAFFDD
S1131A0001F020FE01F05EFEDFF8E8180870DFF850
S1131A10E4080078FF2805D0DFF81004DFF8D418B4
S1131A2009780170DFF8EC2C0021002001F047FD5B
S1131A30DFF8E40CB0F9002092B200213C2001F060
S1131A4092FD59A20221002001F039FDDFF8B429EA
S1131A5002213C2001F033FD57A20421002001F0B3
S1131A602EFDDFF8A42904213C2001F028FD53A217
S1131A700621002001F023FDDFF8902906213C20F7
S1131A8001F01DFDDFF8A403007807280AD1DFF870
S1131A90880C0088401CDFF8801C0880DFF88C0369
S1131AA0FF210170DFF884030078082809D1DFF8EA
S1131AB0680C0088401EDFF8601C0880DB48FF21AA
S1131AC00170DA480078092805D1DB48FF2101704C
S1131AD0D648FF210170D848007806288DD001F03F
S1131AE058FBD24800780A287FF452ACCF48FF2133
S1131AF0017001F04EFBFA2001F06CFFDFF81C2CA2
S1131B000021002001F0DBFCDFF8142C002146202A
S1131B1001F0D5FCDFF8102C0221002001F0CFFCED
S1131B20DFF80C2C0421002001F0C9FCDFF8042CA0
S1131B300421462001F0C3FCDFF8FC2B0621002021
S1131B4001F0BDFC01F07EFD01F0BCFDB749087059
S1131B506E2001F03FFFB5480078012840F09A80DC
S1131B60B248FF210170B4480121017001F011FB5A
S1131B7089E09CA20021002001F0A1FCDFF8BC0B4D
S1131B800068DFF8641E01F049FF01F0B3FF80B282
S1131B90020000213C2001F0E6FC03A20221002007
S1131BA001F08DFC9E4A01E02B3A000002213C200A
S1131BB001F085FC00A203E02D3A000052653A00D2
S1131BC00421002001F07BFC964A04213C2001F012
S1131BD076FC87A20621002001F071FC924A0621BE
S1131BE03C2001F06CFC6E2001F0F4FE01F02AFDB3
S1131BF001F068FDDFF8FC160870DFF8F8060078DD
S1131C00FF2804D08948DFF8EC160978017087486A
S1131C100078072812D1DFF8240B006801F08CFF4C
S1131C20DFF8602EDFF8603E01F0BEFF02F030F80E
S1131C30DFF8081B08607D48FF2101707B480078AD
S1131C40082812D1DFF8F40A006801F075FFDFF804
S1131C50342EDFF8383E01F0A7FF02F019F8DFF860
S1131C60DC1A08607148FF21017070480078092867
S1131C7009D17148FF2101706C48FF210170DFF820
S1131C807406FF2101706C48007801283FF471AF9D
S1131C9001F07FFA65480078022840F0918063489B
S1131CA0FF21017064480221017001F072FA80E0A2
S1131CB06E2001F08FFE01F0C5FC01F003FDDFF89A
S1131CC034160870DFF82C060078FF2804D0574833
S1131CD0DFF820160978017048A20021002001F0E5
S1131CE0EEFBDFF85C0A0068DFF8FC1C01F096FEEE
S1131CF001F000FF80B2020000213C2001F033FC1F
S1131D00C5A20221002001F0DAFBDFF8F826022147
S1131D103C2001F0D4FBE1A20421002001F0CFFB20
S1131D20DFF8E42604213C2001F0C9FB30A206219F
S1131D30002001F0C4FBDFF8D42606213C2001F08A
S1131D40BEFB3A480078072812D1DFF8F40900688E
S1131D5001F0F2FEDFF82C2DDFF82C3D01F024FF1A
S1131D6001F096FFDFF8D81908603048FF210170B0
S1131D702E480078082812D1DFF8C409006801F061
S1131D80DBFEDFF8002DDFF8043D01F00DFF01F06C
S1131D907FFFDFF8AC1908602448FF210170234855
S1131DA00078092805D12448FF2101701F48FF212C
S1131DB001702148007802283FF47AAF01F0E9F974
S1131DC01A480078032840F0BA801848FF210170AF
S1131DD019480321017001F0DCF9A9E09C7F00009F
S1131DE07204FF1F73703A00A87F00007404FF1F81
S1131DF052653A00A88000004404FF1F73643A004F
S1131E00B0800000B8800000C0800000C8800000DE
S1131E10D0800000D8800000E08000002C04FF1F68
S1131E203080000038800000408000007E04FF1FE6
S1131E30E88000003004FF1F8004FF1FF0800000D2
S1131E402E04FF1FF88000002204FF1F6E2001F003
S1131E50C1FD01F0F7FB01F035FCDFF898140870C0
S1131E60DFF890040078FF2805D0DFF8240EDFF8AF
S1131E70841409780170DFF81C2E0021002001F081
S1131E801EFBDFF8140EB0F9002092B200213C20B2
S1131E9001F069FB60A20221002001F010FBDFF8D1
S1131EA0642502213C2001F00AFB7CA204210020CD
S1131EB001F005FBDFF8502504213C2001F0FFFA76
S1131EC0D7A20621002001F0FAFADFF84025062106
S1131ED03C2001F0F4FADFF8B80D007807280AD1A5
S1131EE0DFF8B40D0088401CDFF8AC1D0880DFF873
S1131EF0A00DFF210170DFF8980D007808280AD1A1
S1131F00DFF8940D0088401EDFF88C1D0880DFF890
S1131F10800DFF210170DFF8780D0078092807D1C2
S1131F20DFF8780DFF210170DFF8640DFF210170E7
S1131F30DFF8680D0078032888D001F02AF9DFF86B
S1131F40500D0078042840F08280DFF8440DFF2112
S1131F500170DFF8480D0421017001F01AF96FE0F7
S1131F606E2001F037FD01F06DFB01F0ABFBE149A0
S1131F700870E0480078FF2804D0DFF8140DDD492C
S1131F8009780170DCA20021002001F098FADFF842
S1131F90100DB0F9002000213C2001F0E4FA1EA24B
S1131FA00221002001F08BFADFF8582402213C20A2
S1131FB001F085FA39A20421002001F080FADFF84B
S1131FC0482404213C2001F07AFA95A2062100203D
S1131FD001F075FADFF8342406213C2001F06FFA91
S1131FE0DFF8AC0C007807280AD1DFF8B40C0088BD
S1131FF0401DDFF8AC1C0880DFF8940CFF21017051
S1132000DFF88C0C007808280DD1DFF8940C0088D8
S1132010401FDFF88C1C01E02B3A00000880DFF839
S1132020700CFF210170DFF8680C0078092807D1D3
S1132030DFF8680CFF210170DFF8540CFF210170F8
S1132040DFF8580C007804288AD001F0A2F8DFF8F1
S1132050400C0078052840F09B80DFF8340CFF2109
S11320600170DFF8380C0521017001F092F887E067
S11320706E2001F0AFFC01F0E5FA01F023FB9D496D
S113208008709C480078FF2804D0DFF8040C9949B4
S113209009780170DFF8D82D02E000BF2D3A000066
S11320A00021002001F00BFADFF8C80D0068DFF80A
S11320B0381901F0B3FC01F01DFD80B202000021CB
S11320C03C2001F050FAD2A20221002001F0F7F9DD
S11320D0CC4A02213C2001F0F2F9CEA204210020D6
S11320E001F0EDF9C84A04213C2001F0E8F94CA2C2
S11320F00621002001F0E3F9C44A06213C2001F046
S1132100DEF9DFF88C0B0078072813D1DFF8640DB3
S1132110006801F011FDDFF86C29DFF86C3901F07B
S113212043FD01F0B5FDDFF84C1D0860DFF8600BDE
S1132130FF210170DFF8580B0078082813D1DFF86D
S1132140340D006801F0F8FCDFF83829DFF83C3979
S113215001F02AFD01F09CFDDFF8181D0860DFF88E
S1132160300BFF210170DFF8280B0078092807D114
S1132170DFF8280BFF210170DFF8140BFF21017039
S1132180DFF8180B007805283FF472AF01F001F86E
S1132190DFF8FC0A0078062840F08180DFF8F00AB6
S11321A0FF210170DFF8F40A0621017000F0F1FF4D
S11321B06EE06E2001F00EFC01F044FA01F082FAA8
S11321C04C4908704B480078FF2804D0DFF8C00A57
S11321D0484909780170DFF8A02C0021002001F0A3
S11321E06EF9DFF8980CB0F9002092B200213C207F
S11321F001F0B9F986A20221002001F060F9814AB8
S113220002213C2001F05BF982A20421002001F0AC
S113221056F97D4A04213C2001F051F900A201E065
S113222052653A000621002001F049F9774A062157
S11322303C2001F044F9DFF8580A007807280AD155
S1132240DFF8380C0088401CDFF8301C0880DFF809
S1132250400AFF210170DFF8380A007808280AD103
S1132260DFF8180C0088401EDFF8101C0880DFF827
S1132270200AFF210170DFF8180A0078092807D125
S1132280DFF8180AFF210170DFF8040AFF2101704A
S1132290DFF8080A007806288BD000F07AFFDFF810
S11322A0F00900780A287FF426ACDFF8E409FF215E
S11322B0017000F06EFFFA2001F08CFBDFF8782C3F
S11322C00021002001F0FBF8DFF8702C00214620EB
S11322D001F0F5F8DFF8682C0221002001F0EFF896
S11322E0DFF8602C0221462001F0E9F8DFF8902B9A
S11322F004E000BF7D04FF1F504F3A00042100207A
S113230001F0DDF8DFF87C2B0421462001F0D7F83A
S113231001F098F901F0D6F9DFF8741908706E200D
S113232001F058FBDFF868090078012840F092803A
S1132330DFF85C09FF210170DFF8600901210170F9
S113234000F027FF7EE0DFF8402B0021002001F0A1
S1132350B6F8DFF8380B027800213C2001F003F9CD
S11323602BA20221002001F0AAF8DFF8242B02217D
S11323703C2001F0A4F827A20421002001F09FF8DA
S1132380DFF8102B04213C2001F099F8C8A20621A3
S1132390002001F094F8DFF8002B06213C2001F026
S11323A08EF86E2001F016FB01F04CF901F08AF969
S11323B0DFF8941B0870DFF8900B0078FF2805D035
S11323C0DFF8CC08DFF8801B09780170DFF8C0085B
S11323D0007807280AD1DFF8B40A0078401CDFF837
S11323E0AC1A0870DFF8A808FF210170DFF8A00814
S11323F00078082815D1DFF8940A0078401EDFF829
S11324008C1A09E0488000005080000058800000C9
S11324102B3A00002D3A00000870DFF87408FF2101
S11324200170DFF86C08007809280BD1DFF86C081C
S1132430FF210170DFF85808FF210170DFF8080B55
S1132440FF210170DFF85408007801283FF47BAFC6
S113245000F09FFEDFF838080078022840F09D80E5
S1132460DFF82C08FF210170DFF830080221017029
S113247000F08FFE89E06E2001F0ACFA01F0E2F882
S113248001F020F9DFF8C01A0870DFF8BC0A007800
S1132490FF2805D0DFF8F807DFF8AC1A09780170D7
S11324A0DFF8AC2A0021002001F009F8DFF8A40AC3
S11324B00068DFF8341501F0B1FA01F01BFB80B2BB
S11324C0020000213C2001F04EF896A202210020D7
S11324D000F0F5FFDFF8802A02213C2000F0EFFF36
S11324E092A20421002000F0EAFFDFF8702A042100
S11324F03C2000F0E4FF6EA20621002000F0DFFF84
S1132500DFF85C2A06213C2000F0D9FFDFF88007C1
S11325100078072813D1DFF83C0A006801F00CFBAF
S1132520DFF86025DFF8603501F03EFB01F0B0FB19
S1132530DFF8201A0860DFF85807FF210170DFF880
S113254050070078082813D1DFF8080A006801F062
S1132550F3FADFF83025DFF8343501F025FB01F01C
S113256097FBDFF8F0190860DFF82407FF210170FA
S1132570DFF81C070078092807D1DFF82007FF21BE
S11325800170DFF80C07FF210170DFF810070078F5
S113259002283FF470AF00F0FCFDDFF8F406007889
S11325A0032840F0A180DFF8E806FF210170DFF87E
S11325B0EC060321017000F0ECFD8DE06E2001F0CB
S11325C009FA01F03FF801F07DF8DFF87C19087092
S11325D0DFF874090078FF2805D0DFF8B406DFF8C7
S11325E0681909780170DFF87C290021002000F0C7
S11325F066FFDFF874090068DFF8EC1301F00EFAE7
S113260001F078FA80B2020000213C2000F0ABFF18
S113261044A20221002000F052FFDFF83C290221ED
S11326203C2000F04CFF41A20421002000F047FFB1
S1132630DFF8282904213C2000F041FF1CA20621D8
S1132640002000F03CFFDFF8182906213C2000F0B0
S113265036FFDFF83C060078072813D1DFF80809B5
S1132660006801F069FADFF81C24DFF81C3401F07B
S11326709BFA01F00DFBDFF8F0180860DFF8100694
S1132680FF210170DFF808060078082817D1DFF869
S1132690D808006801F050FADFF8E823DFF8EC33DB
S11326A001F082FA01F0F4FADFF8BC1802E000BF8E
S11326B052653A000860DFF8D805FF210170DFF8A1
S11326C0D0050078092807D1DFF8D005FF21017073
S11326D0DFF8BC05FF210170DFF8C005007803288E
S11326E03FF46CAF00F055FDDFF8A4050078042832
S11326F040F0B580DFF89805FF210170DFF89C05F4
S11327000421017000F045FDA1E000BF008100003C
S11327102004FF1F088100003C04FF1F10810000FB
S1132720188100002B3A0000B47F00002D3A00000D
S11327302081000028810000C07F00003404FF1FB6
S11327403804FF1F6E2001F045F900F07BFF00F014
S1132750B9FFDFF8F4170870DFF8EC070078FF28FA
S113276005D0DFF82C05DFF8E01709780170DFF8F1
S1132770FC270021002000F0A2FEDFF8F407006827
S1132780994901F04BF901F0B5F980B2020000213A
S11327903C2000F0E8FED4A20221002000F08FFECD
S11327A0DFF8B42702213C2000F089FECFA20421E7
S11327B0002000F084FEDFF8A42704213C2000F070
S11327C07EFEDBA20621002000F079FEDFF89027D0
S11327D006213C2000F073FEDFF8B40400780728DB
S11327E011D1DFF88C07006801F0A6F9A54AA64BC1
S11327F001F0DAF901F04CFADFF874170860DFF839
S11328009004FF210170DFF888040078082811D1B2
S1132810DFF85C07006801F08FF99A4A9B4B01F0DE
S1132820C3F901F035FADFF848170860DFF86004EF
S1132830FF210170DFF858040078092807D1DFF878
S11328405C04FF210170DFF84804FF210170DFF808
S11328504C04007804283FF475AF00F09AFCDFF8CC
S11328603004007805287CD1DFF82404FF210170AE
S1132870DFF828040521017000F08BFC6BE06E206A
S113288001F0A8F800F0DEFE00F01CFFDFF8B81637
S11328900870DFF8B4060078FF2805D0DFF8F003ED
S11328A0DFF8A41609780170DFF8C826002100209B
S11328B000F005FEDFF8C006B0F9002000213C203E
S11328C000F051FE88A20221002000F0F8FDDFF89C
S11328D0882602213C2000F0F2FD84A2042100207D
S11328E000F0EDFDDFF8742604213C2000F0E7FD44
S11328F08FA20621002000F0E2FDDFF86426062105
S11329003C2000F0DCFDDFF88803007807280AD1BA
S1132910DFF864060088401CDFF85C160880DFF8E6
S11329207003FF210170DA480078082809D1DFF824
S113293048060088401EDFF840160880D448FF216E
S11329400170D3480078092805D1D448FF210170CB
S1132950CF48FF210170D148007805288FD000F0BE
S113296018FCCB48007806287BD1C948FF210170A8
S1132970CA480621017000F00CFC6CE06E2001F0E6
S113298029F800F05FFE00F09DFEDFF8BC1508702A
S1132990DFF8B4050078FF2804D0BD48DFF8A81597
S11329A009780170DFF8D4250021002000F087FDAC
S11329B0DFF8CC05B0F9002000213C2000F0D3FD65
S11329C049A20221002000F07AFDDFF88C250221C3
S11329D03C2000F074FD45A20421002000F06FFDAE
S11329E0DFF8782502E000BF0000204104213C20EC
S11329F000F065FD4EA20621002000F060FDDFF826
S1132A00602506213C2000F05AFDA14800780728E3
S1132A1009D1DFF86C050088401CDFF864150880D4
S1132A209B48FF2101709A480078082809D1DFF8F3
S1132A3050050088401EDFF8481508809448FF219F
S1132A40017093480078092805D19448FF2101704A
S1132A508F48FF2101709148007806288ED000F03D
S1132A6098FB8B4800780A287FF425AC8848FF211E
S1132A70017000F08EFBDFF80C050078012810D1FE
S1132A8088A205E09A9999999999B93F9999B9BFFA
S1132A900021002000F013FDFA2000F09BFF00F05D
S1132AA078FBDFF8E00402210170DFF8DC04012187
S1132AB00180DFF8D80401210180DFF8D404007814
S1132AC0012840F0A280DFF8C80400210170DFF87B
S1132AD0C40401F00EFB01F0DDFCDFF8BC04008847
S1132AE0DFF8B81404E000BF2B3A00002D3A0000D0
S1132AF009880818DFF8A0140880DFF8A404008807
S1132B00DFF8A01409880818DFF894140880DFF8A7
S1132B1098040088DFF8941409880818DFF88814EA
S1132B200880DFF88C040088DFF8881402E000BF16
S1132B3052653A0009784018DFF874140880641C60
S1132B40200000B20A2860DB0024DFF84C04B0F94E
S1132B5000000A2190FBF1F0DFF85C140880DFF834
S1132B604004B0F900000A2190FBF1F0DFF84C14A6
S1132B700880DFF83404B0F900000A2190FBF1F07A
S1132B80DFF83C140880DFF82804B0F900000A21BB
S1132B9090FBF1F0DFF82C140870DFF81404002126
S1132BA00180DFF8F40300210180DFF8F403002141
S1132BB00180DFF8F40300210180DFF804040088B9
S1132BC0DFF8F8130988401ADFF8FC130880DFF8EF
S1132BD0FC03DFF8F41309880180DFF8DC03B0F9A3
S1132BE0002000210A2000F09AFBDFF8D003B0F99E
S1132BF0002002210A2000F092FBDFF8C403B0F9A0
S1132C0000200221462000F08AFB00F01BFD00F0AA
S1132C1059FDDFF834130870CB480078FF2803D03F
S1132C201B48C94909780170194800780C287FF4B9
S1132C3022AF1748FF21017018480C21017000F0E1
S1132C40A8FA1CE06E2000F0C5FE00F0FBFC00F0CA
S1132C5039FDBD490870BC480078FF2803D00C48F2
S1132C60B949097801700A4800780C2805D10B4845
S1132C70FF2101700648FF21017000F08AFA07481D
S1132C8000780C28DED0BF48012101707AE000BF33
S1132C907E04FF1FCC7F00005004FF1F8004FF1F31
S1132CA09004FF1F636A0000C94800210170C948ED
S1132CB00078012815D1C8480088401CC6490880FE
S1132CC0C548B0F9000097280BDBC2480021017009
S1132CD0C14800210180C14800210180C048002171
S1132CE0017002F073FABF48B0F9002000210A20F5
S1132CF000F015FBBC48B0F900200021462000F08C
S1132D000EFBA848B0F9002002210A2000F007FBBE
S1132D10A648B0F900200221462000F000FBB34889
S1132D20B0F900200421462000F05BFBA748B0F96D
S1132D3000200621002000F0F2FA9C48B0F90000BF
S1132D409849B1F90010421A0621462000F0E7FA2A
S1132D50A748B0F90000012806D1A5480021018048
S1132D6002F0DAFB02F0C4FC0821A24803F074F874
S1132D70012807D1A04801210180A04A0421002094
S1132D8000F09DFB7F480078012813D16FA2062133
S1132D903C2000F094FB4FF47A7000F01BFE00F02E
S1132DA0F8F979480021018078480021018094488D
S1132DB001210170734802210170754800780128CF
S1132DC0C6D1734800210170724801F092F901F0F4
S1132DD061FB02F081F88B48012101708148B0F950
S1132DE00000012821D18048B0F9000001281CD13D
S1132DF07648B0F9000016306C49B1F90010694A00
S1132E00B2F90020891A88420FDA75480078002840
S1132E100BD16F48012101707148012101706D4887
S1132E200121017078480121017069480078012866
S1132E307FF43DAF6948B0F90000411C674A118036
S1132E407249B1F9001000B28842BFF62DAF704844
S1132E50B0F900006F49B1F90010401A01F044F9CB
S1132E601428FFF624AF6A486A49098801801EE7DE
S1132E70308100006804FF1FD87F00005204FF1F48
S1132E805881000060810000688100007C04FF1FFD
S1132E9030800000388000004080000010B572B619
S1132EA05FF4E1325C48B0F900105C4802F0DCFFEA
S1132EB00023002208214F4802F084FF4FF496714A
S1132EC0002003F0D7F85648B0F900200221002072
S1132ED003F045FA42F21071012003F0CBF803F03D
S1132EE048FB03F0AAFB00F0B4FF00F07BF94D4A65
S1132EF04D494E4800F018FF4FF47A7000F010FF6F
S1132F00002003F021FC012003F01EFC002402E059
S1132F1000F05AFF641CC82CFADB00F073FF322067
S1132F2000F058FD4EF66021002003F04FFD002014
S1132F3003F07BFD62B610BD3881000040810000C3
S1132F4048810000508100007D04FF1F676F00006E
S1132F50E47F00006004FF1F4880000050800000F0
S1132F6058800000F07F00006404FF1F708100009F
S1132F706C04FF1F788100007A04FF1F8081000029
S1132F807804FF1F7F04FF1F4C04FF1F4E04FF1F24
S1132F90DF08FF1FE406FF1FAA08FF1F2408FF1F06
S1132FA0AC08FF1F0608FF1FAE08FF1F1404FF1F15
S1132FB0B008FF1F1E04FF1F2C08FF1F2808FF1F57
S1132FC01604FF1F4A04FF1FB208FF1F2208FF1F39
S1132FD0E408FF1FE908FF1FC208FF1FB408FF1F12
S1132FE0E508FF1F8C08FF1F8E08FF1F7208FF1FD4
S1132FF0A408FF1F80F00F409808FF1F888100007D
S1133000E208FF1FE808FF1FD608FF1F9004FF1FF8
S11330103008FF1F3208FF1F0008FF1F00D00640C2
S11330202C04FF1FCDCC4C3ECDCC4C3D9A99D93FBE
S11330300821DFF8F425126852F40032DFF8E8358D
S11330401A6000BFDFF8E025126832F48042DFF82E
S1133050D8351A6000BF19E0DFF8CC25126832F4C5
S11330600042DFF8C4351A60DFF8BC25126852F458
S11330708042DFF8B4351A6000BFDFF8AC2512686F
S113308032F48042DFF8A0351A6040000A00511E75
S1133090D2B2002A0AD00206DED5DFF88C251268E7
S11330A052F40042DFF880351A60DDE77047000013
S11330B00821DFF87425126832F40032DFF868352D
S11330C01A60DFF86425126832F48042DFF858355C
S11330D01A6019E0DFF85025126832F40042DFF874
S11330E048351A60DFF84025126852F48042DFF850
S11330F038351A6000BFDFF83025126832F4804298
S1133100DFF824351A6040000A00511ED2B2002AAA
S11331100AD00206DED5DFF81025126852F4004208
S1133120DFF804351A60DDE7704710B50400B1F12B
S11331305000C0B2FFF7BCFFE4B2200950F0100009
S1133140C0B2FFF7B5FF14F00F0050F00100C0B299
S1133150FFF7AEFF10BD70B50400002508E02000A5
S1133160C0B2FFF765FF761CF6B2802EF7D36D1C54
S1133170EDB2082D0CD2B5F15000C0B2FFF798FFA4
S11331800120FFF795FF1020FFF792FF0026EBE7E1
S113319070BD38B5002407E00020FFF749FF6D1C1F
S11331A0EDB2802DF8D3641CE4B2082C0CD2B4F137
S11331B05000C0B2FFF77CFF0120FFF779FF102019
S11331C0FFF776FF0025EBE731BD07E043F2264128
S11331D00A00511E92B2002AFAD1401E80B2002881
S11331E0F4D1704780B5DFF844044FF48071016076
S11331F0DFF83C044FF480710160DFF838044FF4C9
S113320080710160DFF830044FF480710160DFF8F1
S11332102C045FF470310160DFF80C04006850F492
S11332208040DFF804140860DFF8FC03006830F421
S11332308030DFF8F41308603220FFF7C6FFDFF8B0
S1133240E803006850F48030DFF8DC130860AE2037
S1133250FFF72EFF0020FFF72BFF1020FFF728FFBA
S11332604020FFF725FF8120FFF722FFCF20FFF743
S11332701FFFA120FFF71CFFC820FFF719FFA6209E
S1133280FFF716FFA820FFF713FF3F20FFF710FFFB
S1133290D320FFF70DFF0020FFF70AFFD520FFF72B
S11332A007FF8020FFF704FFD920FFF701FFF1207B
S11332B0FFF7FEFEDA20FFF7FBFE1220FFF7F8FE11
S11332C0DB20FFF7F5FE4020FFF7F2FE2020FFF79A
S11332D0EFFE0220FFF7ECFE8D20FFF7E9FE14203D
S11332E0FFF7E6FEA420FFF7E3FEA620FFF7E0FECB
S11332F0AF20FFF7DDFE0020FFF72DFF00210020A7
S1133300FFF713FFFF20FFF726FF642000F062FBA6
S11333100020FFF720FF642000F05CFB01BD2DE9D5
S1133320FC4104000D00002600275FF00008642023
S113333092FBF0F08DF80000642092FBF0F100FBAA
S113334011200A2190FBF1F08DF801000A2092FB74
S1133350F0F100FB11208DF802000020804610E0FF
S1133360F6B2300150FA87F0DFF8D4124018007A30
S1133370FFF75EFE7F1CFFB2082FF1D3083418F16B
S113338001085FFA88F8B8F1030F28D25FFA88F8C9
S113339000A818F8000010F11006E4B2792C01D34B
S11333A000246D1C2900C9B22000C0B2FFF7BDFE85
S11333B0002709E0F6B2300150FA87F0DFF88012F6
S11333C0405CFFF735FE7F1CFFB2082FF2D3691C67
S11333D0C9B22000C0B2FFF7A8FE0027CBE7BDE8C2
S11333E0F3812DE9FC4104000D00002600275FF065
S11333F000084FF47A7092FBF0F08DF800004FF45F
S11334007A7092FBF0F100FB1120642190FBF1F043
S11334108DF80100642092FBF0F100FB11200A21D9
S113342090FBF1F08DF802000A2092FBF0F100FB12
S113343011208DF803000020804610E0F6B2300120
S113344050FA87F0DFF8F8114018007AFFF7F0FD22
S11334507F1CFFB2082FF1D3083418F101085FFA7A
S113346088F8B8F1040F28D25FFA88F800A818F891
S1133470000010F11006E4B2792C01D300246D1C75
S11334802900C9B22000C0B2FFF74FFE002709E0AF
S1133490F6B2300150FA87F0DFF8A411405CFFF770
S11334A0C7FD7F1CFFB2082FF2D3691CC9B22000EC
S11334B0C0B2FFF73AFE0027CBE7BDE8F3812DE960
S11334C0F84304000D00160000275FF000085FF0C9
S11334D0000913E0FFB2380150FA88F0DFF86011F8
S11334E04018007AFFF7A4FD18F101085FFA88F884
S11334F0B8F1080FEED3083419F101095FFA89F91C
S113350019F8060000282CD05FFA89F919F806008A
S1133510B0F12007E4B2792C01D300246D1C2900FA
S1133520C9B22000C0B2FFF700FE5FF000080AE055
S1133530FFB2380150FA88F0DFF80411405CFFF75D
S113354077FD18F101085FFA88F8B8F1080FEFD396
S1133550691CC9B22000C0B2FFF7E7FD5FF00008A4
S1133560C4E7BDE8F1832DE9F04182B004000D0009
S1133570002600275FF000086420B2FBF0F08DF80D
S113358000000A20B2FBF0F00A21B0FBF1F301FBCA
S113359013008DF801000A20B2FBF0F100FB1120AA
S11335A08DF80200002080460FE0F6B2300150FA98
S11335B087F023494018007AFFF73AFD7F1CFFB2D9
S11335C0082FF2D3083418F101085FFA88F8B8F12B
S11335D0030F27D25FFA88F800A818F8000010F14A
S11335E01006E4B2792C01D300246D1C2900C9B261
S11335F02000C0B2FFF799FD002708E0F6B23001C1
S113360050FA87F00E49405CFFF712FD7F1CFFB2B1
S1133610082FF3D3691CC9B22000C0B2FFF785FD9F
S11336200027CCE7BDE8F38100F00F403890044058
S11336303C900440409004404490044014F00F40F7
S11336401873000080B5DFF88403006850F48050DC
S1133650DFF878130860002300220021DFF87003EC
S113366002F0B0FB002300220121DFF8640302F022
S1133670A9FB002300220221DFF8540302F0A2FB7D
S1133680002300220321DFF8480302F09BFB0123FF
S113369000220421DFF8380302F094FB0123002206
S11336A00521DFF82C0302F08DFB01230022062103
S11336B0C74802F087FB002300220721C44802F018
S11336C081FB01BDF8B50025FF2400230122002160
S11336D0BF4802F077FB012301220121BC4802F01C
S11336E071FB012301220221B94802F06BFB012383
S11336F001220321B64802F065FB0421B44802F01C
S1133700ABFB06000521B24802F0A6FB0700062128
S1133710AF4802F0A1FB790111EB061111EB801601
S11337200721AB4802F098FB16EBC0100500EDB280
S1133730702D2AD00A2000F04DF90421A44802F08B
S11337408BFB05000521A24802F086FB060006213A
S11337509F4802F081FB710111EB051111EB8015FB
S113376007219B4802F078FB15EBC015EDB2702DD4
S11337700BD0EDB2302D07D0502D03D0602D04D1E5
S11337800A2402E00B2400E00C240123012200217E
S11337908F4802F017FB0023012201218C4802F01C
S11337A011FB012301220221894802F00BFB0123B2
S11337B001220321864802F005FB0421844802F01B
S11337C04BFB05000521824802F046FB060006215A
S11337D07F4802F041FB710111EB051111EB8015DB
S11337E007217B4802F038FB15EBC015EDB2702DB4
S11337F02AD00A2000F0EEF80421754802F02CFBD0
S113380005000521724802F027FB060006217048D6
S113381002F022FB710111EB051111EB8015072158
S11338206B4802F019FB15EBC015EDB2702D0BD0EF
S1133830EDB2302D07D0502D03D0602D04D10724D4
S113384002E0082400E00924012301220021604849
S113385002F0B8FA0123012201215D4802F0B2FA14
S11338600023012202215A4802F0ACFA012301226A
S11338700321574802F0A6FA0421554802F0ECFA55
S113388005000521524802F0E7FA060006215048D7
S113389002F0E2FA710111EB051111EB8015072119
S11338A04B4802F0D9FA15EBC015EDB2702D2AD0B1
S11338B00A2000F08FF80421454802F0CDFA0500F3
S11338C00521434802F0C8FA06000621404802F0E8
S11338D0C3FA710111EB051111EB801507213C4866
S11338E002F0BAFA15EBC015EDB2702D0BD0EDB2A3
S11338F0302D07D0502D03D0602D04D1042402E0D4
S1133900052400E00624012301220021304802F0AE
S113391059FA0123012201212D4802F053FA01230F
S1133920012202212A4802F04DFA00230122032138
S1133930274802F047FA0421254802F08DFA0500D1
S11339400521234802F088FA06000621204802F0E7
S113395083FA710111EB051111EB801507211C4845
S113396002F07AFA15EBC015EDB2702D2AD00A20B8
S113397000F030F80421164802F06EFA0500052123
S1133980134802F069FA06000621114802F064FAAD
S1133990710111EB051111EB801507210C4802F0A0
S11339A05BFA15EBC015EDB2702D0BD0EDB2302DD6
S11339B007D0502D03D0602D04D1012402E002244D
S11339C000E003242000C0B2F2BD000038800440AF
S11339D0C0F00F400D49096851F001010B4A116014
S11339E00B4908600B48052101600B48006850F042
S11339F0010009490860084800680006FBD506482C
S1133A00006840084000044908607047388004405A
S1133A10080004400400044000000440FF2212EAAD
S1133A20D05C1DBF12EAD153944593422BE09C44D1
S1133A30D30780EA01021A4043EA002043EA012145
S1133A40A1FB0030410038BF40007CF17F010BDB5B
S1133A50FE294ADA5B0842EAC15153EA006373F172
S1133A60004C51EB10207047D1F1080CDCF120011F
S1133A702FDB5B0810FA01F10B4373F1004120FACC
S1133A800CF05041704794451CBF02EAD153934255
S1133A9080EA010202F000421DD0400019D0490022
S1133AA017D05BB9634514D00902B1FA81F3994088
S1133AB0BCEB030CC00140F00040C1E70002B0FAC7
S1133AC080FC10FA0CF0B3EB0C0CC90141F000417E
S1133AD0B6E71000704740000AD0490008D010F142
S1133AE0807F94BF11F1807F02E042F0FF40704775
S1133AF0D04370474100090E7F3915D4D1F11F011D
S1133B0014D4400007D2C00140F00040C84048BF70
S1133B106FF000407047C00140F00040C8404CBF07
S1133B204FF00040404270470020704700424FF081
S1133B30004058BFC04370475FF0FF0C1CEAD051EF
S1133B4014BF614506E0C110400721F0E04101F1D6
S1133B506051704779B900F0004100020AD0B0FA10
S1133B6080FC00FA0CF001F16051A1EB0C5101EB67
S1133B70D0214005704741020CBF40F4E0016FF0D2
S1133B8000010020704750F8041B61B150F8042B69
S1133B90D30744BFA9F101039A18002342F8043B58
S1133BA0091FFAD1EFE7704770B44FF0004591EA6E
S1133BB0030C44BF6B4002F06FBF00BF841A71EB6B
S1133BC0030603D2001BB141121973414FF4001CC8
S1133BD01CEB410F34BF7CEB430443E00C0DA4EB1E
S1133BE01356352E50DC45EAC323DB0A45EAC121CE
S1133BF0C912B6F120050DDD63FA05F6EB4086EA3D
S1133C000305124218BF45F00105C01851F1000127
S1133C100CD213E062FA06F5F2405540F3415A40E3
S1133C20B340F3405A408018594107D349085FEA2A
S1133C3030005FEA350528BF45F0010501F5801124
S1133C40420875F1004250F1000041EB045170BC90
S1133C504FF4001C1CEB410F38BF70470020090DC6
S1133C60090570471CEB410F10D252EA43060BD0F2
S1133C70BCEB410F05D80C0DAB43661E342EB5DDED
S1133C8002E0AB438018594170BC704770BC704768
S1133C904FEAF17CBCF1E04C2CBFBCF5001F11E0F5
S1133CA05FEA4C0C34BFBCF17F5F2EE05FEA9C0CF2
S1133CB04FEA0C1C4FEA3C0CC10071F100414CEB83
S1133CC050707047C90241EA5051C00218BF41F018
S1133CD0010141F000414FEA6C50C0F10900212874
S1133CE010D240EACC7CCCF1200C11FA0CF070F12B
S1133CF00040CCF1200C21FA0CF00CF0004C40EB0D
S1133D000C0070474FEACC707047490011F5001F52
S1133D1004D84FEACC10FF30C0057047C81770476D
S1133D202649096808607047244B1B68986023483B
S1133D300068C160214800680261704710B51F49DE
S1133D4009680968081A1E4908601D48006802F0DD
S1133D5059FF1A4909688968FFF760FE040017488B
S1133D600068406902F04EFF14490968C968FFF70A
S1133D7055FE0100200002F05DFF04000F480068BA
S1133D80806902F03FFF0D4909680969FFF746FEA3
S1133D90210002F0C3FFFFF7ADFE0A49086007489F
S1133DA00068064909684969816104480068044952
S1133DB0096841610348006810BD00001004FF1F3A
S1133DC01C05FF1F2005FF1F80B514230C221121A1
S1133DD0002002F038FDDFF86816096811FA80F057
S1133DE0DFF85C16086014230C220721012002F07E
S1133DF02AFDDFF84C16496811FA80F0DFF8401606
S1133E00486001BDDFF838060068C82190FBF1F076
S1133E10DFF830160880DFF828064068C82190FBD8
S1133E20F1F0DFF824160880704780B514230C22C3
S1133E301121002002F007FDDFF81016088014237A
S1133E400C220721012002F0FEFCDFF80416088092
S1133E5001BD80B5012301220021DFF8F80501F03E
S1133E60B1FF012301220121DFF8E80501F0AAFFD7
S1133E70012301220C21DFF8E00501F0A3FF012357
S1133E8001220D21DFF8D00501F09CFF012002F092
S1133E905BFC01BD10B5012301220021DFF8B4054C
S1133EA001F090FF01F020FF012301220121DFF83E
S1133EB0A40501F087FF01F017FF00230122002170
S1133EC0DFF8900501F07EFF01F00EFF00230122D0
S1133ED00121DFF8800501F075FF002416E001F0F0
S1133EE003FF01F001FF012301220121DFF8640532
S1133EF001F068FF01F0F8FE01F0F6FE0023012254
S1133F000121DFF8500501F05DFF641CE4B27F2C51
S1133F10E5D301F0E9FE01F0E7FE012301220121CE
S1133F20DFF8300501F04EFF01F0DEFE01F0DCFEAB
S1133F30002301220121DFF81C0501F043FF10BD1D
S1133F4038B50400012301220021DFF8080501F03F
S1133F5039FF01F0C9FE012301220121DFF8F40435
S1133F6001F030FF01F0C0FE002301220021DFF840
S1133F70E40401F027FF01F0B7FE002502E001F0A0
S1133F80B3FE6D1CEDB2962DF9D308220621012053
S1133F9002F001FC2070641C002301220121DFF8DF
S1133FA0B40401F00FFF00251DE001F09DFE01F0B7
S1133FB09BFE012301220121DFF8980401F002FF96
S1133FC001F092FE01F090FE08220621012002F089
S1133FD0E2FB2070641C002301220121DFF8740439
S1133FE001F0F0FE6D1CEDB27F2DDED301F07CFEFE
S1133FF001F07AFE012301220121DFF8580401F0C7
S1134000E1FE01F071FE01F06FFE002301220121A7
S1134010DFF8400401F0D6FE31BD80B5DFF83C1472
S1134020802000F04DF8DFF838140870DFF8300411
S1134030007819214843802190FBF1F0DFF8241423
S11340400870DFF824040088DFF818140978401A8F
S1134050DFF818140880DFF81404B0F90000DFF862
S11340601014B1F90010C84206DADFF80804007829
S1134070401EDFF800140870DFF8F403B0F9000004
S1134080DFF8E813B1F90010884206DADFF8E40338
S11340900078401CDFF8DC130870DFF8D8030078E0
S11340A0022803D2DFF8CC0301210170DFF8C40336
S11340B00078142803D3DFF8BC031421017001BD78
S11340C010B40023002204E00C7853FA84F3491C52
S11340D0521CD2B2C0B28242F6D39BB2C0B293FB9E
S11340E0F0F0C0B210BC7047002801D54042FFE791
S11340F07047F8B500240025002600200021DFF8D1
S11341005C23D279DFF870331A80DFF85023D27938
S1134110DFF868331A80072713E0FFB2DFF83C03A7
S1134120385CDFF85813B1F9001000B2884207DA9E
S11341303800FFB2DFF82413795CDFF840231180E4
S11341407F1CFFB2792F13D2DFF82C03B0F90000E3
S1134150FFB2DFF80813795C09B28842DDDA3E0069
S1134160FFB2DFF8F802385CDFF80C130880E7E7E9
S1134170DFF80403B0F90000F6B2DFF8E0127118BA
S113418011F8021C401A0B2836DBDFF8EC02B0F9F8
S11341900000F6B2DFF8C41271188978401A0B28AF
S11341A02ADBF6B2DFF8B402301810F8020CF6B2CB
S11341B0DFF8A81271188978401AFFF795FF0A28CA
S11341C01ADAF6B2DFF89402301810F8020CF6B2DC
S11341D0DFF888127118897851FA80F0022190FB77
S11341E0F1F0F6B2DFF874127054F6B2DFF86C0234
S11341F0305CDFF884120880DFF87C02B0F900003C
S1134200DFF87812B1F900100818022190FBF1F0E0
S1134210DFF86C12088007270CE0DFF868020088DA
S1134220FFB2DFF83812795C4018DFF858120880C2
S11342306D1C7F1CFFB2792F17D2FFB2DFF81C026E
S1134240385CDFF83C12B1F9001000B28842E4DBBC
S1134250DFF834020088FFB2DFF80012795C4018FE
S1134260DFF824120880641CE3E7DFF81C02B0F9CD
S11342700000E4B290FBF4F0DFF80C120880DFF8E1
S11342800402B0F90000EDB290FBF5F0DFF8F41190
S11342900880DFF8F401B0F90000DFF8E811B1F9A3
S11342A000100818022190FBF1F0DFF8D411088007
S11342B0072712E0DFF8D4010488FFB2DFF89C017D
S11342C0385CDFF8BC11B1F90010401AFFF70CFF9D
S11342D00019DFF8B81108807F1CFFB2782FE9D3EA
S11342E0DFF8A801B0F90000722190FBF1F0DFF8CB
S11342F09C110880DFF89401B0F9000010284DDB10
S1134300072705E0FFB2DFF85401002139547F1C70
S1134310FFB2792F10D2FFB2DFF84001385CDFF82A
S11343206011B1F9001000B28842EBDBFFB2DFF894
S11343302C0101213954EAE7DFF82001C079012872
S113434009D10027FFB2082F0FD2FFB24348012141
S113435039547F1CF6E7002704E0FFB23F480021F0
S113436039547F1CFFB2082FF7D33C4890F87800EB
S1134370012809D17827FFB2802F2ED2FFB2374807
S1134380012139547F1CF6E77827FFB2802F24D20D
S1134390FFB23248002139547F1CF6E73B48B0F99C
S11343A00000102819DA3A4800783249097888421E
S11343B009D20027FFB2802F0FD2FFB22748002175
S11343C039547F1CF6E7002704E0FFB2234801219B
S11343D039547F1CFFB2802FF7D303202CE0C0B2E6
S11343E01E49415C002910D1C0B21C49411811F882
S11343F0011C012909D1C0B2184941184978012981
S113440003D1C0B2154901224254C0B21349415CE0
S1134410012910D1C0B21149411811F8011C002919
S113442009D1C0B20D4941184978002903D1C0B25D
S11344300A4900224254401CC0B27D28CFD3F1BDAA
S11344403405FF1FBA08FF1FBC08FF1FB608FF1F73
S1134450B808FF1F00F10F4000F00F40E406FF1FF3
S1134460C408FF1FC508FF1F1A04FF1F5E08FF1FB3
S11344701C04FF1F1E04FF1F0808FF1F0A08FF1F5C
S11344800C08FF1F6408FF1F6208FF1F6008FF1F5E
S11344904A04FF1F10B5DFF82C0A0078012810D158
S11344A0DFF8240A0088401CDFF81C1A0880DFF8B3
S11344B0180AB0F90000242803DBDFF80C0A2421D1
S11344C00180DFF8D40B00210170DFF8D00B00214C
S11344D00170DFF8CC0B00210170DFF8C80B00215C
S11344E00170DFF8C40B0078002803D1DFF8BC0B9F
S11344F000210170DFF8B80B0078002803D1DFF841
S1134500CC0900210170792004E0DFF8C4190022ED
S11345100A80401E00B2062825DB00B2DFF8B41979
S1134520415C0129F1D100B2DFF8A819411811F852
S1134530011C0029E9D100B2DFF89819411811F8DB
S1134540021C0029E1D100B2DFF88819411811F8E2
S1134550031C0029D9D1801EDFF8581B0880DFF81E
S1134560700901210180062004E0DFF84C1B0022C1
S11345700A80401C00B27A2822DA00B2DFF854190B
S1134580415C0129F1D100B2DFF84819411849789A
S11345900029EAD100B2DFF83C19411889780029D2
S11345A0E3D100B2DFF82C194118C9780029DCD115
S11345B0801CDFF8081B0880DFF8FC0A0121018059
S11345C0DFF80C09B0F90000012840F0B480DFF8EE
S11345D0E80AB0F90000012840F0AD80DFF8E00AF5
S11345E00088401CDFF8D81A0880DFF8D80A0021B8
S11345F00180DFF8D40A00210180DFF8D00A00210D
S11346000180DFF8B80AB0F90000DFF8A81AB1F9A0
S1134610001088427DDADFF8B008B0F900002428E1
S11346206ADBDFF8AC0A0078012836D1DFF8AC0A7F
S1134630B0F90000012813D1DFF8A40AB0F9000092
S113464000280DD1DFF86C0A0088DFF8881A098881
S11346500818DFF8901A0988401ADFF8601A0880F1
S1134660DFF8780AB0F90000002840F0C981DFF8CB
S1134670700AB0F90000012840F0C281DFF83C0A5A
S11346800088DFF8501A0988401ADFF8581A098898
S11346900818DFF8201A0880B2E1DFF8180AB0F928
S11346A00000DFF8401AB1F90010401AFFF71CFDB2
S11346B00400DFF8080AB0F90000DFF8181AB1F9AD
S11346C00010401AFFF710FD84420ADADFF8E4090B
S11346D00088DFF8041A09880818DFF8E019088050
S11346E08EE1DFF8D8090088DFF8EC190988401A50
S11346F0DFF8C019088083E1DFF8B809DFF8E419AE
S113470009880180DFF8B409DFF8C8190988018035
S113471076E1DFF8A809B0F90000DFF89819B1F9DB
S11347200010401ADFF8B019B1F90010491F88428F
S1134730C0F2668164E1DFF89807B0F9000001284F
S113474040F08180DFF87009B0F9000000287AD1C8
S1134750DFF86C0900210180DFF868090088401C3B
S1134760DFF860190880DFF8600900210180DFF8B4
S11347705C0900210180DFF87009B0F90000DFF85E
S11347803419B1F9001088420CDADFF82809DFF88F
S1134790541909880180DFF82409DFF838190988D9
S11347A001802DE1DFF84009B0F90000DFF80419B9
S11347B0B1F900108842C0F22381DFF8F808B0F99B
S11347C00000DFF81419B1F90010D1F1700188422A
S11347D02ADADFF8F80601210170DFF81009DFF8A2
S11347E0101909880180DFF80809DFF80819098819
S11347F00180DFF80009DFF8001909880180DFF87B
S1134800F808DFF8B01809880180DFF8A8080088E4
S1134810DFF8C01809880818DFF8C8180988401A92
S1134820DFF898180880EBE0DFF888080088DFF8E4
S1134830A41809880818DFF8AC180988401ADFF8AA
S11348407C180880DCE0DFF88806B0F90000002856
S113485040F08080DFF86008B0F90000012879D1C9
S1134860DFF85C0800210180DFF85808002101808E
S1134870DFF854080088401CDFF84C180880DFF883
S11348804C0800210180DFF83408B0F90000DFF89B
S11348905818B1F9001088420CDADFF81808DFF86C
S11348A0441809880180DFF81408DFF828180988FB
S11348B00180A5E0DFF80408B0F90000DFF828184B
S11348C0B1F900108842C0F29B80DFF80C08B0F9FF
S11348D000000F30DFF8E417B1F9001088422ADA3B
S11348E0DFF8C80701210170DFF81008DFF810189D
S11348F009880180DFF80808DFF8081809880180B2
S1134900DFF80008DFF8001809880180DFF8F807ED
S1134910DFF8A81709880180DFF8A0070088DFF80E
S1134920B4170988401ADFF8BC1709880818DFF89B
S11349308417088064E0DFF884070088DFF89417A0
S11349400988401ADFF89C1709880818DFF86417EB
S1134950088055E0DFF878050088DFF85C170988DF
S1134960084300B200284BD1DFF8A0070078DFF835
S1134970A017097888421CD2DFF8280701210170AA
S1134980DFF84C05DFF8541709880180DFF82807A1
S1134990DFF84C1709880180DFF81807DFF874176F
S11349A009880180DFF81407DFF86C170988018093
S11349B013E0DFF85C070078DFF8501709788842C5
S11349C00BD2DFF8F006DFF81C1709880180DFF846
S11349D0EC06DFF8001709880180DFF8E4060021FF
S11349E00180DFF8E00600210180DFF8DC06002109
S11349F00180DFF8D8060088401CDFF8D016088054
S1134A00DFF8CC06DFF89C1609780170DFF80C0794
S1134A100078012840F0F780DFF8B004007801281E
S1134A2067D1DFF8FC060088401CDFF8F416088024
S1134A30DFF8EC06B0F9000004285ADBDFF8E006E2
S1134A40B0F90000001F80B210283AD2DFF88806BF
S1134A50B0F90000401DDFF87C16B1F90010DFF852
S1134A608426B2F90020891A884203DBDFF8B406F1
S1134A7001210170DFF8AC060078012839D1DFF894
S1134A80300601210170DFF89806B0F900001628FD
S1134A902FDADFF84406B0F90000022190FBF1F0B0
S1134AA0D0F19600DFF80C160880DFF82C06B0F978
S1134AB00000022190FBF1F09630DFF80016088028
S1134AC017E0DFF85C0600210180DFF80004002114
S1134AD00170DFF8500600210170DFF8D4050021D1
S1134AE00170DFF8440600210180DFF8400601214F
S1134AF00170DFF8D8030078DFF8B41509780843AB
S1134B00C0B2002803D1DFF8180600210180DFF8C5
S1134B109C050078012868D1DFF814060088401C41
S1134B20DFF80C160880DFF80806B0F90000042846
S1134B305BDBDFF8FC05B0F90000001F80B21A2827
S1134B403BD2DFF89405B0F90000401DDFF884156E
S1134B50B1F90010DFF88C25B2F90020891A8842D7
S1134B6003DBDFF8D00501210170DFF8C805007808
S1134B7001283AD1DFF8300501210170DFF8B005D2
S1134B80B0F90000162830DA7FF01600DFF8481577
S1134B90B1F90010022291FBF2F1401ADFF814156A
S1134BA00880DFF83405B0F90000022190FBF1F031
S1134BB01738DFF80815088017E0DFF874050021BE
S1134BC00180DFF8E80400210170DFF868050021A6
S1134BD00170DFF8D40400210170DFF84C050021D6
S1134BE00180DFF8480501210170DFF8C004007876
S1134BF0DFF8B41409780843C0B2002803D1DFF801
S1134C00300500210180DFF8AC04B0F90000DFF8C2
S1134C10AC14B1F900100818022190FBF1F0DFF890
S1134C201815B1F90010401A012817DBA848B0F98B
S1134C300000002829D1DFF88004B0F90000012821
S1134C4023D1DFF87004DFF89C1409880180DFF8B1
S1134C506C04DFF880140988018016E09C48B0F9E0
S1134C600000012811D1DFF85004B0F90000002839
S1134C700BD1DFF84004DFF86C1409880180DFF8F9
S1134C803C04DFF8501409880180DFF83004B0F9DF
S1134C900000DFF82014B1F9001088420BDADFF8C5
S1134CA01404DFF8401409880180DFF81004DFF8E9
S1134CB0241409880180DFF8FC03B0F90000DFF850
S1134CC0FC13B1F900100818022190FBF1F0DFF891
S1134CD06C140880DFF864040088DFF85C14098829
S1134CE0401ADFF85C140880DFF85804EA490978B0
S1134CF00170DFF85404E94909780170DFF84C04C5
S1134D00E74909780170DFF8E003DFF83014098817
S1134D100180DFF8C8036E4909880180DFF8C00309
S1134D20E54909880180DFF82804DFF82814098898
S1134D300180DFF82404DFF8241409880180DFF8F7
S1134D401404DFF81C1409880180DFF81004DFF86C
S1134D50141409880180DFF80804DFF80C140988AA
S1134D600180DFF80004DFF8041409880180DFF80B
S1134D70F803DFF8701309880180DFF8F003D549E0
S1134D8009880180DFF85C03CA4909880180D14899
S1134D90CA4909880180DFF8D803DFF8D8130988E5
S1134DA00180DFF8D003DFF8D01309880180DFF831
S1134DB0C803DFF8C81309880180DFF8C003DFF8EF
S1134DC0C01309880180DFF8B803DFF8B813098835
S1134DD00180DFF8B003DFF8B01309880180DFF841
S1134DE0A803DFF8A81309880180DFF8A003DFF81F
S1134DF0A01309880180DFF89803DFF89813098865
S1134E000180DFF89003DFF8381309880180DFF8A8
S1134E1084030088DFF878130988401ADFF87813D0
S1134E200880DFF86C030088DFF860130988401AF3
S1134E30DFF868130880DFF854030088DFF84813AC
S1134E400988401ADFF858130880DFF83C0300880B
S1134E50DFF830130988401ADFF848130880DFF8B8
S1134E6024030088DFF818130988401ADFF8381380
S1134E700880DFF80C030088DFF800130988401A63
S1134E80DFF828130880DFF8F4020088DFF8E8125E
S1134E900988401ADFF818130880DFF8DC0200885C
S1134EA0DFF8D0120988401ADFF808130880DFF809
S1134EB0C4020088DFF8B8120988401ADFF88416A3
S1134EC0088010BDE208FF1F8608FF1FC608FF1FE9
S1134ED08C08FF1FE406FF1F30B4032006210022C4
S1134EE0DFF8D43200241C80DFF8D03200241C8088
S1134EF0DFF8543600241C800B1A5B1C1A00DFF800
S1134F00C032DFF83C4224881C8064230CE0DBB20E
S1134F10DFF8AC4214EB430434F8024CDBB2DFF8A4
S1134F20A05225F813405B1EDBB2012BEFD2002305
S1134F300CE0DFF890422488DBB2DFF8845235F8C5
S1134F4013502C19DFF87C522C805B1CDBB2032B32
S1134F50EFD3DFF87032B3F90030032493FBF4F39A
S1134F60DFF860422380002310E0DBB2DFF8504218
S1134F7034F81340DBB2DFF8485235F813506C4371
S1134F80DBB2DFF8445225F813405B1CDBB2032B81
S1134F90EBD300230CE0DFF820422488DBB2DFF8F7
S1134FA0285235F813502C19DFF80C522C805B1C56
S1134FB0DBB2032BEFD3DFF80032B3F90030032464
S1134FC093FBF4F3DFF8F4412380DFF8F831002495
S1134FD01C80002306E0DBB2DFF8EC41002524F856
S1134FE013505B1CDBB2052BF5D3DFF8CC31002466
S1134FF01C8003000CE0DFF8CC412488DBB2DFF82E
S1135000C05135F813502C19DFF8B8512C805B1CB3
S1135010DBB2C9B28B42EED3DFF8A831B3F900306A
S1135020C9B293FBF1F3DFF89C412380030010E045
S1135030DBB2DFF88C4134F81340DBB2DFF8805187
S113504035F813506C43DBB2DFF87C5125F813407C
S11350505B1CDBB2C9B28B42EAD303000CE0DFF87D
S113506058010088DBB2DFF8604134F8134020189F
S1135070DFF8444120805B1CDBB2C9B28B42EED323
S1135080DFF83401B0F90000D2B290FBF2F0DFF89F
S1135090B814088030BC7047CF08FF1FD008FF1F2A
S11350A0D108FF1FCD08FF1FC808FF1FC708FF1F37
S11350B0C908FF1F0608FF1F8E08FF1F1404FF1FE7
S11350C09008FF1F9208FF1F9408FF1F9608FF1FF8
S11350D0CE08FF1F1008FF1F2208FF1F8808FF1FAC
S11350E08A08FF1F0E08FF1F2608FF1F8408FF1FE2
S11350F08208FF1F8008FF1F7E08FF1F7C08FF1F18
S11351007A08FF1F7808FF1F7608FF1F1E04FF1F81
S11351104A04FF1F2808FF1F1604FF1F1F04FF1F58
S11351206808FF1FCB08FF1F6608FF1FCC08FF1F7E
S11351306A08FF1FCA08FF1F2C08FF1F2408FF1F4F
S11351403008FF1FD208FF1FD308FF1FD408FF1F1A
S11351501E08FF1F1A08FF1F2008FF1F1C08FF1F3F
S11351601608FF1F1808FF1F1208FF1F1408FF1F4F
S11351704608FF1F4408FF1F4208FF1F4008FF1F87
S11351803E08FF1F3C08FF1F3A08FF1F3808FF1F97
S11351903608FF1F3408FF1F4808FF1F4A08FF1F77
S11351A04C08FF1F4E08FF1F5008FF1F5208FF1F27
S11351B05408FF1F5608FF1F7008FF1F7208FF1FC7
S11351C04805FF1F6E08FF1F1006FF1F70B5DFF8AC
S11351D09404DFF8941409880180DFF88804B0F996
S11351E00000652803DBDFF87C0464210180DFF81C
S11351F07404B0F900007FF06301884204DADFF838
S113520064047FF063010180DFF85804B0F9000002
S113521001F0F8FCDFF854140968FEF7FFFBDFF82F
S113522050140860DFF8480401680020FEF7F6FB1C
S1135230DFF83C140968FEF7F1FBDFF83414096861
S1135240FEF7ECFB0100DFF82804006801F0F2FC33
S11352500400DFF81C040168DFF81804FEF7DEFB25
S1135260DFF80C140968FEF7D9FBDFF804140968A9
S1135270FEF7D4FBDFF8F8130968FEF7CFFBDFF87D
S1135280F0130968FEF7CAFB210001F047FDFEF7A1
S113529053FCDFF8E423C2E90001DFF8E00300680F
S11352A0FEF74AFC02000B00DFF8CC43D4E900010E
S11352B001F076FDDFF8C023C2E90001DFF8B8236E
S11352C0D2E900010122DFF8B83301F08DFE06D8DF
S11352D0DFF8A4030022DFF8A833C0E90023DFF8D5
S11352E09823D2E900010022DFF8983301F094FEFC
S11352F006D2DFF884030022DFF88833C0E90023F4
S1135300DFF87423D2E900010022002301F084FEB7
S113531009D2DFF86403DFF86013D1E9002393F0C6
S11353200043C0E90023DFF83C030088DFF858138A
S11353300988401ADFF854130880DFF85403007812
S1135340012814D1DFF84C030068642190FBF1F0CC
S113535001F058FCDFF840130968FEF75FFBDFF843
S11353603C13096801F0DAFCDFF830130860774871
S1135370B0F90000012808D1DFF82003DFF820137A
S11353800160DFF8200300210160DFF81C03B0F99D
S1135390000001F037FC0400DFF8C802B0F9000097
S11353A001F030FCDFF8F4120968FEF737FB210046
S11353B001F0B4FCFEF7C0FB04000D00DFF8D802D6
S11353C00068FEF7B9FBDFF8E462D6E9002301F0D8
S11353D03BFE22002B00FEF7E7FB04000D00DFF884
S11353E0AC02B0F9000001F00DFCDFF8B812096856
S11353F0FEF714FBFEF7A0FB22002B00FEF7D4FB04
S113540001F0F4FEDFF8D4180880DFF87C02DFF83E
S1135410541209880180DFF898020078012804D02A
S1135420DFF890020078012836D1DFF87C02B0F969
S11354300000DFF88412B1F9001008183230DFF8E8
S11354409C18B1F9001088420ADADFF85C0200887F
S1135450DFF86412098808183230DFF880180880F1
S1135460DFF87808B0F90000DFF83C12B1F9001059
S1135470DFF84422B2F90020891A3239884241DA2D
S1135480DFF824020088DFF830120988401A323825
S1135490DFF84818088035E0DFF80C02B0F90000A6
S11354A0DFF81412B1F9001008188238DFF82C184C
S11354B0B1F9001088420ADADFF8EC010088DFF85D
S11354C0F811098808188238DFF810180880DFF806
S11354D00C08B0F90000DFF8D011B1F90010DFF8C2
S11354E0D821B2F90020891A823188420ADADFF819
S11354F0B8010088DFF8C0110988401A8230DFF84B
S1135500DC170880DFF8D407B0F90020022100205E
S113551000F0D4FF70BD0000DFF8F0070068DFF88A
S11355209C110880DFF898010088DFF89011098841
S11355300818DFF88C110880DFF8D007002101601B
S1135540704700005808FF1F7408FF1F9808FF1FCA
S1135550DFF87001B0F90000DFF86C11B1F9001048
S113556088422DDBDFF8640101210170DFF860015E
S1135570B0F900000B2818DBDFF85801B0F900007F
S1135580DFF810110968884204DADFF80401012108
S1135590017052E0DFF8380100210180DFF83801A2
S11355A0DFF838110988018047E0DFF82401002181
S11355B00180DFF82401DFF82411098801803CE030
S11355C0DFF80001B0F90000DFF8FC10B1F90010B9
S11355D0884232DADFF8F4000078012807D1DFF8D6
S11355E0EC0000210170DFF8E80000210180DFF801
S11355F0E0000088401CDFF8D8100880DFF8D000F5
S1135600B0F90000032812DBDFF8CC00DFF8D0107B
S113561009880180DFF87C000068DFF8C810096899
S113562088420ADADFF8C0000121017005E0DFF8E2
S1135630A800DFF8A81009880180DFF8740000785A
S1135640012804D0DFF86C000078012808D1DFF8C5
S11356509C000078002803D1DFF8B4060121017012
S1135660704700002A08FF1F3008FF1F2404FF1F93
S1135670E006FF1F00004040E004FF1F2804FF1F56
S113568000003440000034C02E08FF1F5A08FF1FDA
S1135690D508FF1FD806FF1FE807FF1F5804FF1F88
S11356A0000020415C04FF1F2C04FF1FE804FF1FBF
S11356B0C808FF1FC908FF1F2E04FF1F0408FF1F8F
S11356C05C08FF1F7208FF1F5204FF1FD708FF1F4B
S11356D06C08FF1F3004FF1F7004FF1F7404FF1FBA
S11356E07204FF1F4004FF1FDA08FF1FD908FF1FC1
S11356F070B5DFF82806DFF82816B1F9001001604C
S1135700DFF81C0600210180DFF818060078012864
S113571015D1DFF8100600210170DFF8C405B0F9D7
S113572000000A38DFF80016B1F90010DFF8B425DC
S1135730B2F90020891A884201DAFFF709FFDFF87D
S1135740A405B0F90000062839DBDFF8DC05B0F960
S113575000007A2833DADFF8D405B0F90000DFF866
S1135760D015B1F90010884214DBDFF8C805012117
S11357700170DFF8C4050078012840D1DFF8B805CE
S113578000210170DFF8B4050088401CDFF8AC1577
S1135790088034E0DFF8A00501210170DFF89405EA
S11357A0007801282BD1DFF88C0500210170DFF887
S11357B090050088401CDFF8881508801FE0DFF89A
S11357C07C05B0F90000022809DBDFF87405B0F9A4
S11357D00000022803DBDFF86C0501210170DFF80B
S11357E05C0500210180DFF84C0500210170DFF821
S11357F0500500210180DFF8400500210170DFF829
S11358004805B0F90000DFF814150968884209DA80
S1135810DFF804050088DFF834150988401ADFF83A
S1135820F8140880DFF82805B0F90000DFF8241523
S1135830B1F90010401A032190FBF1F0DFF81815BC
S1135840B1F90010DFF8D4241268891A91FBF0F042
S113585001F0F2FCDFF80425C2E90001DFF8F004EE
S1135860B0F90000DFF8EC14B1F90010401A03217C
S113587090FBF1F0DFF8E8140968DFF8A02412685F
S1135880891A91FBF0F001F0D7FCDFF8D824C2E9C3
S11358900001DFF8C804D0E900230020002101F052
S11358A0D3FBDFF8B844D4E9002301F0CDFBDFF8E3
S11358B0AC44D4E9002301F0C7FB02000B00DFF87D
S11358C09C44D4E9000101F0DDF804000D00DFF888
S11358D08C04D0E900230020DFF88C1401F0B4FB21
S11358E0DFF87864D6E9002301F0AEFBDFF86C64DE
S11358F0D6E9002301F0A8FBDFF86064D6E90023B1
S113590001F0A2FBDFF85464D6E9002301F09CFB0C
S113591022002B00FEF748F90022DFF85034FEF78E
S113592043F901F063FCDFF8EC130880DFF834047A
S1135930D0E900230020002101F086FBDFF8244495
S1135940D4E9002301F080FBDFF81844D4E90023F4
S113595001F07AFB02000B00DFF80844D4E90001EF
S113596001F090F804000D00DFF8F803D0E90023FB
S11359700020DFF8F41301F067FBDFF8E863D6E9F1
S1135980002301F061FBDFF8DC63D6E9002301F0BA
S11359905BFBDFF8D063D6E9002301F055FBDFF8A9
S11359A0C463D6E9002301F04FFB22002B00FEF76D
S11359B0FBF80022DFF8B833FEF7F6F801F016FC26
S11359C0DFF8B0130880DFF87C030078012820D1C9
S11359D0DFF88403B0F90000DFF840130968884257
S11359E006DADFF89403DFF82C130988018086E0D7
S11359F0DFF8500300210170DFF8800300210180EB
S1135A00DFF87C0300210180DFF86C0300210180B2
S1135A1075E0DFF80403B0F90000DFF86813B1F9AA
S1135A200010884235D1DFF83803006801F004FC27
S1135A30DFF85423DFF8543301F006FB02000B00B7
S1135A4014001D00DFF8D402006801F0F5FB220009
S1135A502B0001F0E1FA04D2DFF81C0340F2E2412A
S1135A600180DFF82003B0F90000FEF759F9DFF8F0
S1135A70AC020068132148430A2190FBF1F0FEF7C1
S1135A805DF9DFF8001309884018DFF8EC1208808C
S1135A9035E0DFF8CC02006801F0CEFB5FF0333272
S1135AA0DFF8EC3201F0D0FA02000B0014001D0004
S1135AB0DFF86802006801F0BFFB22002B0001F050
S1135AC0ABFA05D2DFF8B0024FF44871018016E05A
S1135AD0DFF8C002B0F90000FEF722F9DFF83C025B
S1135AE00068132148430A2190FBF1F0FEF726F9E0
S1135AF0DFF8A01209884018DFF87C120880DFF86C
S1135B004402007800284CD1DFF81C02B0F90000F0
S1135B107449B1F90010401A7149B1F900100A3101
S1135B2088423EDADFF87002B0F90000DFF80012B4
S1135B30B1F90010884234DBDFF82402006801F078
S1135B407BFBDFF84422DFF8443201F07DFA0200E7
S1135B500B0014001D00DFF8C401006801F06CFBA9
S1135B6022002B0001F058FA04D2DFF80C024FF4A3
S1135B707A710180DFF80C02B0F90000FEF7D0F86A
S1135B80DFF898010068132148430A2190FBF1F0E3
S1135B90FEF7D4F8DFF8EC1109884018DFF8D811C3
S1135BA008805B480078012815D1DFF8700100688F
S1135BB0012805DBDFF8C001DFF8E01101800AE00D
S1135BC0534800210170DFF8D80101210170DFF88A
S1135BD0A80100210180DFF8CC01B0F90000012800
S1135BE03AD1DFF8C4010078012804D1DFF8880134
S1135BF0DFF8B8110180DFF8240100680A2804DB0B
S1135C00DFF8A4010078022826D1DFF89C010221E4
S1135C100170DFF80801006800F0F4FFDFF890116C
S1135C20096891F00041FDF7F9FE0400DFF8EC008B
S1135C300068DFF880110968401A00F0E3FFDFF81C
S1135C4078110968FDF7EAFE210001F067F8FDF715
S1135C5051FFDFF824110880DFF858012F49096843
S1135C600160DFF81401B0F9000040F2E34188421A
S1135C7004DBDFF8040140F2E2410180DFF8F800C0
S1135C80B0F90000DFF81411884204DADFF8E80004
S1135C90DFF8081101803848B0F9000001280DDB55
S1135CA0002301220921DFF8140100F08BF8DFF84A
S1135CB010013149B1F9001001600EE00123012205
S1135CC00921DFF8F80000F07DF82B48B0F9000056
S1135CD040F2E24108183A49086070BD1804FF1FF9
S1135CE02208FF1F0608FF1F81B000208DF8000066
S1135CF006E000BF00BF9DF80000401C8DF80000C6
S1135D009DF800000128F4D301B0704704800B40D3
S1135D10D808FF1F7604FF1F7004FF1FD806FF1F5B
S1135D205C08FF1FE808FF1F1404FF1F5204FF1F35
S1135D307208FF1FDB08FF1FDC08FF1FA008FF1FFE
S1135D40A208FF1FD508FF1F7A04FF1F7804FF1F56
S1135D504404FF1F4604FF1F3004FF1FF004FF1F0D
S1135D604004FF1FF804FF1F0000084000C072C079
S1135D70000079409C08FF1F9A08FF1F6C08FF1F52
S1135D809E08FF1F7204FF1F9A9999999999E93FF8
S1135D903333E33F7404FF1F5404FF1F1EFBFFFF54
S1135DA0D908FF1F9808FF1F3204FF1F0CFEFFFFD6
S1135DB03404FF1FDC06FF1F3804FF1F40F00F40B0
S1135DC01090034070B405001D4EAD1B08D0403D3B
S1135DD008D0403D08D0403D08D0403D08D009E0FF
S1135DE0184C07E0184C05E0184C03E0184C01E08F
S1135DF0184CFFE74FF4807544F82150012A15D15F
S1135E00426901248C4022434261012B06D102687D
S1135E10012313FA01F1114301600EE0026801232A
S1135E2013FA01F132EA0101016006E0426901233B
S1135E3013FA01F132EA0101416170BC70470000BC
S1135E4000F00F400090044000A0044000B0044063
S1135E5000C0044000D00440006901228A40104080
S1135E60C840C0B27047704730B4DFF8B8319842C8
S1135E700AD1DFF8B4314FF440741C60DFF8AC3160
S1135E804FF440741C6049E0DFF8A43198420AD111
S1135E90DFF8A0314FF440741C60DFF89C314FF4FC
S1135EA040741C603AE0DFF8943198420AD1DFF87C
S1135EB090314FF440741C60DFF888314FF4407423
S1135EC01C602BE0DFF8803198420AD1DFF87C3186
S1135ED04FF440741C60DFF878314FF440741C6058
S1135EE01CE0DFF8703198420AD1DFF86C314FF4CE
S1135EF040741C60DFF864314FF440741C600DE0A2
S1135F00DFF85C31984209D1DFF858314FF440741E
S1135F101C60DFF854314FF440741C60DFF8043126
S1135F20984208D1DFF844311B6853F48063DFF8EA
S1135F303C4123603BE0DFF8F830984208D1DFF8B9
