S021000050452056312E3420323031342E30352E323220322E356D70732E7372656354
S1130000F8FF002011040000FF460000FF46000036
S1130010FF460000FF460000FF460000FF460000C8
S1130020FF460000FF460000FF460000FF460000B8
S1130030FF460000FF460000FF460000FF460000A8
S1130040FF460000FF460000FF460000FF46000098
S1130050FF460000FF460000FF460000FF46000088
S1130060FF460000FF460000FF460000FF46000078
S1130070FF460000FF460000FF460000FF46000068
S1130080FF460000FF460000FF460000FF46000058
S1130090FF460000FF460000FF460000FF46000048
S11300A0FF460000FF460000FF460000FF46000038
S11300B0FF460000FF460000FF460000FF46000028
S11300C0FF460000FF460000FF460000FF46000018
S11300D0FF460000FF460000FF460000FF46000008
S11300E0FF460000FF460000FF460000FF460000F8
S11300F0FF460000FF460000FF460000FF460000E8
S1130100FF460000FF460000FF460000FF460000D7
S1130110FF460000FF460000FF460000FF460000C7
S1130120FF460000FF460000FF460000FF460000B7
S1130130FF460000FF460000FF460000FF460000A7
S1130140FF460000FF460000FF460000FF46000097
S1130150E55F0000FF460000FF460000FF46000088
S1130160FF460000FF460000FF460000FF46000077
S1130170FF460000FF460000FF460000FF46000067
S1130180FF460000FF460000FF460000FF46000057
S1130190FF460000FF460000FF460000FF46000047
S1130400FFFFFFFFFFFFFFFFFFFFFFFFFEFFFFFFF9
S11304104FF000004FF000014FF000024FF00003D6
S11304204FF000044FF000054FF000064FF00007B6
S11304304FF000084FF000094FF0000A4FF0000B96
S11304404FF0000C62B605F055FEFEE738B5002407
S11304500025DFF8C417002003E000220A70491CBD
S1130460401CC0B28A28F8D302F09EF9DFF8AC270A
S11304700021002002F015FCDFF8A42700213C2015
S113048002F00FFCDFF89C270221002002F009FC97
S1130490DFF894270421002002F003FCDFF88C2706
S11304A004213C2002F0FDFBDFF884270621002014
S11304B002F0F7FB02F0B8FC02F0F6FCDFF8741768
S11304C008706E2002F078FEDFF8680700780128D3
S11304D040F0A080DFF85C07FF210170DFF85807C7
S11304E00121017002F0B5FA8CE0D4A200210020B1
S11304F002F0D7FBDFF844070068DFF8F01D02F0D4
S11305007FFE02F0E9FE80B2020000213C2002F0EE
S11305101CFCECA20221002002F0C3FBDFF8302E09
S113052002213C2002F0BDFBE7A20421002002F0DE
S1130530B8FBDFF8202E04213C2002F0B2FBEAA233
S11305400621002002F0ADFBDFF80C2E06213C2032
S113055002F0A7FB6E2002F02FFE02F065FC02F011
S1130560A3FCDFF8F81D0870DFF8F00D0078FF2811
S113057005D0DFF8C006DFF8E41D09780170DFF864
S1130580B4060078072813D1DFF8B006006802F03B
S1130590C5FEDFF81C2EDFF81C3E02F0F7FE02F069
S11305A069FFDFF898160860DFF88806FF210170FC
S11305B0DFF880060078082813D1DFF88006006889
S11305C002F0ACFEDFF8E82DDFF80C3E02F0DEFEB0
S11305D002F050FFDFF864160860DFF85806FF21C8
S11305E00170DFF85006007809280BD1DFF84806BF
S11305F0FF210170DFF83C06FF210170DFF85C0D7C
S1130600FF210170DFF83006007801283FF46DAF58
S113061002F01FFADFF81C060078022840F09C80E4
S1130620DFF81006FF210170DFF80C0602210170CB
S113063002F00FFA88E06E2002F0BEFD02F0F4FB37
S113064002F032FCDFF8141D0870DFF8100D00789A
S1130650FF2805D0DFF8DC05DFF8001D09780170FC
S1130660DAA20021002002F01CFBDFF8D4050068A8
S1130670DFF8781C02F0C4FD02F02EFE80B2020006
S113068000213C2002F061FB8EA20221002002F036
S113069008FBDFF8A82D02213C2002F002FB8AA20D
S11306A00421002002F0FDFADFF8942D04213C20FF
S11306B002F0F7FA8CA20621002002F0F2FADFF829
S11306C0842D06213C2002F0ECFADFF8680500785E
S11306D0072813D1DFF86805006802F01FFEDFF871
S11306E0D02CDFF8D03C02F051FE02F0C3FEDFF85C
S11306F050150860DFF83C05FF210170DFF8340570
S11307000078082813D1DFF83805006802F006FEE7
S1130710DFF89C2CDFF8C03C02F038FE02F0AAFEA1
S1130720DFF81C150860DFF80C05FF210170DFF805
S113073004050078092807D1DFF8FC04FF210170C3
S1130740DFF8F004FF210170DFF8EC0400780228E0
S11307503FF471AF02F07DF9DFF8D8040078032884
S113076040F08780DFF8CC04FF210170DFF8C80473
S11307700321017002F06DF974E06E2002F01CFD9B
S113078002F052FB02F090FBDFF8D01B0870DFF898
S1130790CC0B0078FF2805D0DFF89804DFF8BC1BE9
S11307A009780170DFF8A02C0021002002F079FA0A
S11307B0DFF8980CB0F9002000213C2002F0C5FAC3
S11307C040A20221002002F06CFADFF8702C022112
S11307D03C2002F066FA3CA20421002002F061FAF7
S11307E0DFF85C2C04213C2002F05BFA3EA20621D7
S11307F0002002F056FADFF84C2C06213C2002F0CF
S113080050FADFF83004007807280AD1DFF83C0CEE
S11308100088401CDFF8341C0880DFF81804FF212E
S11308200170DFF81004007808280ED1DFF81C0CE2
S11308300088401EDFF8141C02E000BF4B703A0031
S11308400880DFF8F003FF210170DFF8E803007887
S1130850092807D1DFF8E003FF210170DFF8D40392
S1130860FF210170DFF8D0030078032885D002F05F
S1130870F0F8DFF8C0030078042840F08380DFF844
S1130880B403FF210170DFF8B0030421017002F00A
S1130890E0F871E06E2002F08FFC02F0C5FA02F07D
S11308A003FBDFF8B81A0870DFF8B00A0078FF28F5
S11308B005D0DFF88003DFF8A41A09780170DFF8A7
S11308C0902B03E02B3A00002D3A00000021002079
S11308D002F0E7F9DFF87C0BB0F9002000213C209E
S11308E002F033FAC9A201E052653A000221002065
S11308F002F0D7F9DFF8442B02213C2002F0D1F9B1
S1130900C3A20421002002F0CCF9DFF8342B042127
S11309103C2002F0C6F9BFA20621002002F0C1F972
S1130920DFF8202B06213C2002F0BBF9C1480078F7
S1130930072809D1DFF81C0B0088401CDFF8141BC2
S11309400880BC48FF210170BA480078082809D102
S1130950DFF8000B0088401EDFF8F81A0880B5485D
S1130960FF210170B3480078092805D1B248FF215E
S11309700170B048FF210170AF480078042889D085
S113098002F067F8AB48007805287AD1A948FF211E
S11309900170A9480521017002F05BF86BE06E203C
S11309A002F00AFC02F040FA02F07EFADFF8AC1919
S11309B00870DFF8A8090078FF2804D09D48DFF804
S11309C09C1909780170DFF8902A01E04B643A0021
S11309D00021002002F065F9DFF8800AB0F9002058
S11309E000213C2002F0B1F988A20221002002F08B
S11309F058F9DFF8482A02213C2002F052F984A277
S1130A000421002002F04DF9DFF8342A04213C20AF
S1130A1002F047F97FA20621002002F042F9DFF834
S1130A20242A06213C2002F03CF982480078072859
S1130A3009D1DFF8280A0088401CDFF8201A088052
S1130A407C48FF2101707B480078082809D1DFF831
S1130A500C0A0088401EDFF8041A08807548FF213C
S1130A60017074480078092805D17348FF2101708A
S1130A707048FF2101707048007805288FD001F07C
S1130A80E8FF6C480078062877D16A48FF21017096
S1130A9069480621017001F0DCFF68E06E2002F075
S1130AA08BFB02F0C1F902F0FFF9DFF8B01808700F
S1130AB0DFF8A8080078FF2804D05E48DFF89C1807
S1130AC009780170DFF898290021002002F0E9F884
S1130AD0DFF89009B0F9002000213C2002F035F93C
S1130AE04AA20221002002F0DCF8DFF8502902219A
S1130AF03C2002F0D6F846A20421002002F0D1F8EE
S1130B00DFF83C2904213C2002F0CBF841A2062165
S1130B10002002F0C6F8DFF82C2906213C2002F060
S1130B20C0F844480078072809D1DFF8380900885C
S1130B30401CDFF8301908803E48FF2101703D4811
S1130B400078082809D1DFF81C090088401EDFF866
S1130B50141908803748FF210170364800780928A5
S1130B6005D13548FF2101703248FF210170324818
S1130B700078062892D001F06CFF2E4800780A28ED
S1130B807FF474AC2B48FF21017001F062FF4FF435
S1130B90FA7002F011FBDFF8D0280021002002F0E7
S1130BA080F8DFF8C8280221002002F07AF8DFF884
S1130BB0C0280421002002F074F8DFF8B8280021CE
S1130BC0462002F06EF8DFF8B0280221462002F039
S1130BD068F8DFF8A8280421462002F062F802F041
S1130BE023F902F061F9134908706E2002F0E4FA67
S1130BF010480078012840F0BB800E48FF210170A6
S1130C000D480121017001F024FFA9E02B3A0000F6
S1130C102D3A000052653A009006FF1F74630000ED
S1130C207C630000846300008C6300009463000014
S1130C309C6300007004FF1F7204FF1F2404FF1F45
S1130C402C04FF1FDFF838280021002002F029F8C7
S1130C50DFF830080068DFF8941602F0D1FA02F0E9
S1130C603BFB80B2020000213C2002F06EF8D7A2C8
S1130C700221002002F015F8DFF8D42602213C20DE
S1130C8002F00FF8D2A20421002002F00AF8DFF8E3
S1130C90C42604213C2002F004F8CEA20621002040
S1130CA001F0FFFFDFF8B02606213C2001F0F9FF38
S1130CB06E2002F081FA02F0B7F802F0F5F8DFF8DE
S1130CC09C160870DFF894060078FF2805D0DFF83A
S1130CD0B807DFF8881609780170DFF8AC070078E8
S1130CE0072813D1DFF89C07006802F017FBDFF830
S1130CF0C026DFF8C03602F049FB02F0BBFBDFF888
S1130D0084170860DFF88007FF210170DFF8780797
S1130D100078082813D1DFF86C07006802F0FEFAA7
S1130D20DFF88C26DFF8B03602F030FB02F0A2FBCD
S1130D30DFF850170860DFF85007FF210170DFF873
S1130D404807007809280BD1DFF84007FF2101701C
S1130D50DFF83407FF210170DFF80006FF2101707E
S1130D60DFF82807007801283FF46CAF01F071FE2A
S1130D70DFF814070078022840F09D80DFF80807A8
S1130D80FF210170DFF804070221017001F061FE08
S1130D9089E06E2002F010FA02F046F802F084F8BE
S1130DA0DFF8B8150870DFF8B4050078FF2805D01F
S1130DB0DFF8D406DFF8A41509780170DFF8D0262F
S1130DC00021002001F06DFFDFF8C8060068DFF89D
S1130DD01C1502F015FA02F07FFA80B2020000211D
S1130DE03C2001F0B2FF79A20221002001F059FF5A
S1130DF0DFF8482602213C2001F053FF74A20421AD
S1130E00002001F04EFFDFF8382604213C2001F0D9
S1130E1048FF70A20621002001F043FFDFF82426DA
S1130E2006213C2001F03DFFDFF85C06007807282E
S1130E3013D1DFF86006006802F070FADFF870255D
S1130E40DFF8703502F0A2FA02F014FBDFF8441662
S1130E500860DFF83406FF210170DFF82C06007803
S1130E60082813D1DFF82C06006802F057FADFF8DF
S1130E704025DFF8643502F089FA02F0FBFADFF866
S1130E8014160860DFF80006FF210170DFF8F8058A
S1130E900078092807D1DFF8F405FF210170DFF895
S1130EA0E805FF210170DFF8E405007802283FF42B
S1130EB070AF01F0CEFDDFF8D0050078032840F0D4
S1130EC0A580DFF8C405FF210170DFF8C005032108
S1130ED0017001F0BEFD91E06E2002F06DF901F0A9
S1130EE0A3FF01F0E1FFDFF874140870DFF86C046D
S1130EF00078FF2805D0DFF89005DFF86014097842
S1130F000170DFF894250021002001F0CAFEDFF80B
S1130F108C050068DFF8D41302F072F902F0DCF9F2
S1130F2080B2020000213C2001F00FFF27A2022121
S1130F30002001F0B6FEDFF8042502213C2001F078
S1130F40B0FE23A20421002001F0ABFEDFF8F02460
S1130F5004213C2001F0A5FE1EA20621002001F080
S1130F60A0FEDFF8E02406213C2001F09AFEDFF821
S1130F7018050078072813D1DFF82005006802F06F
S1130F80CDF9DFF82C24DFF82C3402F0FFF902F05D
S1130F9071FADFF808150860DFF8EC04FF2101702E
S1130FA0DFF8E404007808281BD1DFF8F0040068B7
S1130FB002F0B4F9DFF8F823DFF81C3402F0E6F9A4
S1130FC002F058FADFF8D41406E000BF2B3A000010
S1130FD02D3A000052653A000860DFF8AC04FF21A6
S1130FE00170DFF8A4040078092807D1DFF89C0415
S1130FF0FF210170DFF89004FF210170DFF88C04F9
S1131000007803283FF468AF01F023FDDFF878048B
S11310100078042840F09580DFF86C04FF2101700B
S1131020DFF868040421017001F013FD81E06E20F3
S113103002F0C2F801F0F8FE01F036FFC74908706B
S1131040C6480078FF2804D0DFF83C04C349097877
S11310500170DFF8F82C0021002001F022FEDFF8F7
S1131060F00C0068A14902F0CBF802F035F980B227
S1131070020000213C2001F068FECCA202210020E5
S113108001F00FFEDFF8B42302213C2001F009FE39
S1131090D0A20421002001F004FEDFF8A4230421DF
S11310A03C2001F0FEFDCDA20621002001F0F9FD57
S11310B0DFF8902306213C2001F0F3FDDFF8C8039C
S11310C00078072811D1DFF8880C006802F026F9AF
S11310D0B74AB84B02F05AF902F0CCF9DFF8701CA9
S11310E00860DFF8A403FF210170DFF89C03007897
S11310F0082811D1DFF8580C006802F00FF9AC4A47
S1131100B54B02F043F902F0B5F9DFF8441C08606E
S1131110DFF87403FF210170DFF86C0300780928FD
S113112007D1DFF86803FF210170DFF85C03FF21BA
S11311300170DFF85803007804283FF478AF01F019
S113114088FCD1480078052840F08680CE48FF21ED
S11311500170CE480521017001F07BFC76E06E2021
S113116002F02AF801F060FE01F09EFE7B4908704F
S11311707A480078FF2803D0C34878490978017079
S1131180DFF8D02B0021002001F08BFDDFF8C80B25
S11311900068564902F034F802F09EF880B202006A
S11311A000213C2001F0D1FD80A20221002001F0A9
S11311B078FDA24A02213C2001F073FD85A204219E
S11311C0002001F06EFD9E4A04213C2001F069FDDF
S11311D082A20621002001F064FD9A4A06213C20E7
S11311E001F05FFDA8480078072810D1DFF8680BEC
S11311F0006802F093F86E4A6E4B02F0C7F802F0F2
S113120039F9DFF8541B08609F48FF2101709E489C
S11312100078082810D1DFF8400B006802F07EF84F
S1131220634A6D4B02F0B2F802F024F9DFF8281B90
S113123008609548FF21017093480078092805D17A
S11312409248FF2101709048FF2101708F48007877
S1131250052884D001F0FDFB8B480078062840F077
S113126094808948FF21017088480621017001F0AB
S1131270F0FB83E06E2001F09FFF01F0D5FD01F04B
S113128013FE3649087035480078FF2803D07E489D
S1131290324909780170DFF8C42A0021002001F0E6
S11312A000FDDFF8BC0A0068104901F0A9FF02F054
S11312B013F880B2020000213C2001F046FD3BA25D
S11312C00221002001F0EDFC5C4A02213C2001F0E7
S11312D0E8FC40A20421002001F0E3FC584A042168
S11312E03C2001F0DEFC3DA202E000BF00002041F2
S11312F00621002001F0D5FC524A06213C2001F0D1
S1131300D0FC61480078072810D1DFF8540A00683F
S113131002F004F8264A274B02F038F802F0AAF843
S1131320DFF83C1A08605848FF21017056480078DD
S1131330082819D1DFF8280A006801F0EFFF1C4AD9
S1131340254B02F023F802F095F8DFF8141A07E0B1
S1131350A4630000AC630000B46300006F04FF1FCB
S113136008604948FF21017047480078092805D1E1
S11313704648FF2101704448FF210170434800782A
S113138006283FF477AF01F064FB3F4800780A2851
S11313907FF4FDAB3C48FF21017001F05AFB4FF490
S11313A0FA7001F009FFDFF8BC2905E02B3A0000D0
S11313B09A9999999999B93F0021002001F071FCFB
S11313C0DFF8A4290021462001F06BFCDFF89C29FA
S11313D006E000BF2D3A00009999B9BF52653A0062
S11313E00221002001F05DFCDFF8842904210020A3
S11313F001F057FCDFF87C290421462001F051FC60
S1131400DFF874290621002001F04BFC01F00CFDEB
S113141001F04AFD1C4908706E2001F0CDFE1A4807
S11314200078012840F0D2801748FF210170174846
S11314300121017001F00DFBC0E000BFBC6300009E
S1131440C4630000CC630000D46300006004FF1F89
S1131450086300006204FF1F146300006604FF1F9A
S1131460DC6300006404FF1FE4630000EC6300001D
S1131470F4630000FC630000046400000C640000DA
S1131480146400003404FF1F7004FF1F7204FF1F64
S11314901C6400003804FF1F246400003C04FF1F88
S11314A0DFF8D8280021002001F0FBFBDFF8D0088A
S11314B00068DFF8381E01F0A3FE01F00DFF80B2D2
S11314C0020000213C2001F040FCCBA202210020BC
S11314D001F0E7FBDFF8AC2802213C2001F0E1FB3E
S11314E0E7A20421002001F0DCFBDFF89C280421A2
S11314F03C2001F0D6FBE3A20621002001F0D1FB41
S1131500DFF8882806213C2001F0CBFB6E2001F097
S113151053FE01F089FC01F0C7FCDFF8581E087087
S1131520DFF8500E0078FF2805D0DFF86408DFF8F4
S1131530441E09780170DFF858080078072813D191
S1131540DFF83C08006801F0E9FEDFF8442EDFF81C
S1131550443E01F01BFF01F08DFFDFF82418086002
S1131560DFF82C08FF210170DFF824080078082830
S113157013D1DFF80C08006801F0D0FEDFF8102E5C
S1131580DFF8143E01F002FF01F074FFDFF8F017FA
S11315900860DFF8FC07FF210170DFF8F40700782A
S11315A009280BD1DFF8EC07FF210170DFF8E00711
S11315B0FF210170DFF8BC0DFF210170DFF8D407B3
S11315C0007801283FF46CAF01F043FADFF8C0075C
S11315D00078022840F09D80DFF8B407FF210170F5
S11315E0DFF8B0070221017001F033FA89E06E20C0
S11315F001F0E2FD01F018FC01F056FCDFF8741D67
S11316000870DFF8700D0078FF2805D0DFF8800738
S1131610DFF8601D09780170DFF87C2700210020C5
S113162001F03FFBDFF874070068DFF8C01C01F02D
S1131630E7FD01F051FE80B2020000213C2001F0E0
S113164084FB6DA20221002001F02BFBDFF8702E39
S113165002213C2001F025FB89A20421002001F095
S113166020FBDFF8702E04213C2001F01AFB85A238
S11316700621002001F015FBDFF85C2E06213C203A
S113168001F00FFBDFF808070078072813D1DFF813
S11316900C07006801F042FEDFF8F42CDFF8F43C9C
S11316A001F074FE01F0E6FEDFF8F0160860DFF8E2
S11316B0E006FF210170DFF8D8060078082813D16E
S11316C0DFF8D806006801F029FEDFF8C42CDFF843
S11316D0C83C01F05BFE01F0CDFEDFF8C0160860E7
S11316E0DFF8AC06FF210170DFF8A40600780928B2
S11316F007D1DFF8A006FF210170DFF89406FF216F
S11317000170DFF89006007802283FF470AF01F012
S1131710A0F9DFF87C060078032840F08880DFF821
S11317207006FF210170DFF86C060321017001F0DF
S113173090F975E06E2001F03FFD01F075FB01F0BA
S1131740B3FBDFF8301C0870DFF8280C0078FF28A2
S113175005D0DFF83C06DFF81C1C09780170DFF8BF
S11317602C2E0021002001F09CFADFF8240EB0F9A1
S1131770002092B200213C2001F0E7FA1EA20221CF
S1131780002001F08EFADFF8382D02213C2001F010
S113179088FA3BA20421002001F083FADFF8342DFB
S11317A004213C2001F07DFA36A20621002001F03C
S11317B078FADFF8242D06213C2001F072FADFF8D4
S11317C0D005007807280AD1DFF8C40D0088401C32
S11317D0DFF8BC1D0880DFF8B805FF210170DFF8D1
S11317E0B005007808280ED1DFF8A40D0088401E4B
S11317F0DFF89C1D02E000BF2B3A00000880DFF8F0
S11318009005FF210170DFF888050078092807D1C9
S1131810DFF88005FF210170DFF87405FF210170F6
S1131820DFF870050078032884D001F012F9DFF89E
S113183060050078042840F0A280DFF85405FF21F9
S11318400170DFF850050421017001F002F98EE007
S11318506E2001F0B1FC01F0E7FA01F025FBDFF89E
S1131860141B0870DFF80C0B0078FF2805D0DFF894
S11318702005DFF8001B09780170DFF8182D03E05C
S11318802D3A000052653A000021002001F009FAC7
S1131890DFF8040D0068DFF8541A01F0B1FC01F020
S11318A01BFD80B2020000213C2001F04EFAD7A2B9
S11318B00221002001F0F5F9DFF8042C02213C207C
S11318C001F0EFF9D2A20421002001F0EAF9DFF8D7
S11318D0042C04213C2001F0E4F9DDA206210020BF
S11318E001F0DFF9DFF8F02B06213C2001F0D9F9F3
S11318F0DFF89C040078072813D1DFF89C0C0068FB
S113190001F00CFDDFF8882ADFF8883A01F03EFD8B
S113191001F0B0FDDFF8801C0860DFF87404FF21DB
S11319200170DFF86C040078082813D1DFF8680C24
S1131930006801F0F3FCDFF8582ADFF85C3A01F0A4
S113194025FD01F097FDDFF8501C0860DFF8400426
S1131950FF210170DFF838040078092807D1DFF887
S11319603404FF210170DFF82804FF210170DFF83F
S11319702404007804283FF46BAF01F06AF8DFF820
S113198010040078052840F09580DFF80404FF2156
S11319900170DFF800040521017001F05AF882E0BB
S11319A06E2001F009FC01F03FFA01F07DFADFF846
S11319B0C4190870DFF8BC090078FF2805D0DFF8E7
S11319C0D003DFF8B01909780170DFF8B82D0021D1
S11319D0002001F066F9DFF8B00D0068DFF80C199B
S11319E001F00EFC01F078FC80B2020000213C20E2
S11319F001F0ABF985A20221002001F052F9DFF8D1
S1131A00C02A02213C2001F04CF981A204210020CB
S1131A1001F047F9DFF8BC2A04213C2001F041F928
S1131A208BA20621002001F03CF9DFF8AC2A062144
S1131A303C2001F036F9D6480078072812D1DFF8A7
S1131A40480D006801F06AFCDFF84429DFF84439E6
S1131A5001F09CFC01F00EFDDFF82C1D0860CC4861
S1131A60FF210170CA480078082812D1DFF8180D48
S1131A70006801F053FCDFF81829DFF81C3901F085
S1131A8085FC01F0F7FCDFF8001D0860C048FF2169
S1131A900170BF480078092805D1BE48FF210170B4
S1131AA0BB48FF210170BB48007805283FF478AF9C
S1131AB000F0CFFFB6480078062878D1B448FF215B
S1131AC00170B4480621017000F0C3FF69E06E2084
S1131AD001F072FB01F0A8F901F0E6F9DFF89418BF
S1131AE00870DFF890080078FF2804D0A848DFF8D1
S1131AF0841809780170DFF8942C0021002001F08B
S1131B00D0F8DFF88C0CB0F9002092B200213C2010
S1131B1001F01BF93DA20221002001F0C2F8DFF818
S1131B20A02902213C2001F0BCF839A204210020A4
S1131B3001F0B7F8DFF89C2904213C2001F0B1F84A
S1131B4043A20621002001F0ACF8DFF88C2906211D
S1131B503C2001F0A6F88E480078072809D1DFF868
S1131B60300C0088401CDFF8281C08808848FF21BE
S1131B70017087480078082809D1DFF8140C008820
S1131B80401EDFF80C1C08808148FF21017080484A
S1131B900078092805D17F48FF2101707C48FF2186
S1131BA001707C480078062891D000F052FF7848F4
S1131BB000780A287FF4F3AB7548FF21017000F028
S1131BC048FF4FF4FA7001F0F7FADFF8542C0021C3
S1131BD0002001F066F8DFF84C2C0021462001F0CB
S1131BE060F8DFF8442C0221002001F05AF8DFF8F5
S1131BF0A42B0221462001F054F8DFF89C2B042189
S1131C00002001F04EF8DFF8942B03E02B3A00009B
S1131C102D3A00000421462001F043F801F004F9B4
S1131C2001F042F95A4908706E2001F0C5FA58488B
S1131C30007801287BD15648FF21017055480121C5
S1131C40017000F006FF6CE0DFF8542B02E000BFE7
S1131C5052653A000021002001F023F8DFF8CC0B94
S1131C60027800213C2001F070F8DBA20221002060
S1131C7001F017F8434A02213C2001F012F8D7A2E0
S1131C800421002001F00DF83F4A04213C2001F01A
S1131C9008F8D3A20621002001F003F83B4A0621EC
S1131CA03C2000F0FEFF6E2001F086FA01F0BCF843
S1131CB001F0FAF8DFF8BC160870DFF8B80600780F
S1131CC0FF2804D03248DFF8AC1609780170304898
S1131CD00078072809D1DFF8540B0078401CDFF89E
S1131CE04C1B08702A48FF210170294800780828F5
S1131CF009D1DFF8380B0078401EDFF8301B08707C
S1131D002348FF21017022480078092809D121487D
S1131D10FF2101701E48FF210170DFF85806FF21E2
S1131D2001701C48007801288ED000F092FE1848FB
S1131D300078022840F0C6801548FF21017015483C
S1131D400221017000F085FEB4E000BF2C640000A5
S1131D504804FF1F346400004C04FF1F3C6400006F
S1131D605004FF1F446400004C6400002063000022
S1131D70546400005C6400002C6300006464000090
S1131D804004FF1FA4630000AC630000B4630000C0
S1131D907004FF1F7204FF1F6C6400004404FF1FE3
S1131DA06E2001F009FA01F03FF801F07DF8DFF848
S1131DB0C4150870DFF8BC050078FF2805D0DFF8EB
S1131DC0700ADFF8B01509780170DFF8682A00217D
S1131DD0002000F066FFDFF8600A0068DFF80C15E9
S1131DE001F00EFA01F078FA80B2020000213C20E2
S1131DF000F0ABFF78A20221002000F052FFDFF8D0
S1131E00C02602213C2000F04CFF74A204210020D3
S1131E1000F047FFDFF8BC2604213C2000F041FF1E
S1131E206FA20621002000F03CFFDFF8AC2606215B
S1131E303C2000F036FFDFF8F8090078072813D1BA
S1131E40DFF8F409006801F069FADFF84425DFF8E7
S1131E50443501F09BFA01F00DFBDFF8DC19086052
S1131E60DFF8CC09FF210170DFF8C40900780828E5
S1131E7013D1DFF8C409006801F050FADFF8102527
S1131E80DFF8143501F082FA01F0F4FADFF8A8194A
S1131E900860DFF89C09FF210170DFF894090078DD
S1131EA0092807D1DFF89409FF210170DFF88009C0
S1131EB0FF210170DFF88409007802283FF470AF35
S1131EC000F0C7FDDFF868090078032840F0A4801B
S1131ED0DFF85C09FF210170DFF86009032101705C
S1131EE000F0B7FD90E06E2001F066F900F09CFF71
S1131EF000F0DAFFDFF87C140870DFF8780400786B
S1131F00FF2805D0DFF82809DFF868140978017084
S1131F10DFF82C290021002000F0C3FEDFF824099B
S1131F200068DFF8C81301F06BF901F0D5F980B24D
S1131F30020000213C2000F008FF27A2022100201B
S1131F4000F0AFFEDFF8782502213C2000F0A9FE66
S1131F5022A20421002000F0A4FEDFF87825042149
S1131F603C2000F09EFE1EA20621002000F099FEF7
S1131F70DFF8642506213C2000F093FEDFF8B0086A
S1131F800078072813D1DFF8BC08006801F0C6F90F
S1131F90DFF8FC23DFF8FC3301F0F8F901F06AFA0A
S1131FA0DFF8A0180860DFF88808FF210170DFF867
S1131FB08008007808281AD1DFF88808006801F042
S1131FC0ADF9DFF8CC23DFF8D03301F0DFF901F00D
S1131FD051FADFF8701805E02B3A00002D3A0000A2
S1131FE052653A000860DFF84808FF210170DFF805
S1131FF040080078092807D1DFF84008FF21017064
S1132000DFF82C08FF210170DFF83008007803287E
S11320103FF469AF00F01DFDDFF8140800780428D0
S113202040F09580DFF80808FF210170DFF80C0804
S11320300421017000F00DFD81E06E2001F0BCF878
S113204000F0F2FE00F030FFCA490870C948007879
S1132050FF2804D0DFF8D807C64909780170DFF8F3
S1132060E8270021002000F01CFEDFF8E0070068EC
S11320709E4901F0C5F801F02FF980B20200002159
S11320803C2000F062FEE0A20221002000F009FEE4
S1132090DFF82C2402213C2000F003FEDBA2042103
S11320A0002000F0FEFDDFF82C2404213C2000F089
S11320B0F8FDD7A20621002000F0F3FDDFF8182474
S11320C006213C2000F0EDFDDFF8640700780728C6
S11320D011D1DFF87807006801F020F9AC4AAD4B64
S11320E001F054F901F0C6F9DFF860170860DFF871
S11320F04007FF210170DFF838070078082811D164
S1132100DFF84807006801F009F9A14AA24B01F081
S11321103DF901F0AFF9DFF834170860DFF8100774
S1132120FF210170DFF808070078092807D1DFF8DC
S11321300C07FF210170DFF8F806FF210170DFF8BA
S1132140FC06007804283FF478AF00F082FCDFF846
S1132150E006007805287CD1DFF8D406FF21017061
S1132160DFF8D8060521017000F073FC6AE06E20E8
S113217001F022F800F058FE00F096FE7D49087048
S11321807C480078FF2804D0DFF8A4067949097850
S11321900170DFF8BC260021002000F082FDDFF88A
S11321A0B406B0F9002000213C2000F0CEFD96A238
S11321B00221002000F075FDC14A02213C2000F0FC
S11321C070FD92A20421002000F06BFDC14A04219D
S11321D03C2000F066FD8EA20621002000F061FD87
S11321E0BD4A06213C2000F05CFDDFF8440600787F
S11321F007280AD1DFF85C060088401CDFF8541673
S11322000880DFF82C06FF210170DFF8240600782F
S113221008280AD1DFF83C060088401EDFF834168F
S11322200880DFF80C06FF210170DFF8040600784F
S1132230092807D1DFF80406FF210170DFF8F00553
S1132240FF210170DFF8F405007805288FD000F035
S113225000FCDFF8DC050078062840F08180DFF818
S1132260D005FF210170DFF8D4050621017000F0CC
S1132270F0FB6EE06E2000F09FFF00F0D5FD00F053
S113228013FE3C4908703B480078FF2804D0DFF86F
S1132290A005384909780170DFF8BC250021002029
S11322A000F0FFFCDFF8B405B0F9002000213C2069
S11322B000F04BFD54A20221002000F0F2FC804A01
S11322C002213C2000F0EDFC50A20421002000F08B
S11322D0E8FC804A04213C2000F0E3FC4CA20621E7
S11322E0002000F0DEFC7C4A02E000BF0000204138
S11322F006213C2000F0D5FCDFF8340500780728DF
S11323000AD1DFF858050088401CDFF85015088012
S1132310DFF81C05FF210170DFF814050078082898
S11323200AD1DFF838050088401EDFF83015088030
S1132330DFF8FC04FF210170DFF8F40400780928B9
S113234007D1DFF8F804FF210170DFF8E404FF216E
S11323500170DFF8E804007806288BD000F079FBE0
S1132360DFF8CC0400780A287FF42BACDFF8C00433
S113237002E000BF6F04FF1FFF21017000F069FB42
S1132380DFF8DC040078012812D184A206E000BF43
S11323909A9999999999B93F9999B9BF00210020BF
S11323A000F07FFC40F24C4000F006FF00F051FBCF
S11323B0DFF8AC0402210170DFF8A80401210180D8
S11323C0DFF8A40401210180DFF8A00400780128CB
S11323D0D6D1DFF8980400210170641C2000C0B23B
S11323E0052804D30024DFF8880401F0B1FEDFF8E7
S11323F0800401F0D7F901F003FBDFF878040088CA
S1132400DFF8741406E000BF2B3A00002D3A0000F8
S113241052653A0009880818DFF858140880DFF874
S11324205C040088DFF8581409880818DFF84C1495
S11324300880DFF850040088DFF84C140988081875
S1132440DFF8401408806D1C280000B20F2897DBC9
S11324500025DFF82004B0F900000F2190FBF1F013
S1132460DFF828140880DFF81404B0F900000F2105
S113247090FBF1F0DFF818140880DFF80804B0F9D5
S113248000000F2190FBF1F0DFF808140880DFF85A
S1132490E40300210180DFF8E40300210180DFF878
S11324A0E40300210180DFF8EC030088DFF8E01387
S11324B00988401ADFF8E0130880DFF8E00301E040
S11324C0BC630000DFF8D01309880180DFF8BC0387
S11324D004E000BFC4630000CC630000B0F9002036
S11324E000210A2000F07BFBDFF8A403B0F90020F0
S11324F002210A2000F073FBDFF89803B0F90020F2
S11325000221462000F06BFBDFF89403B0F90020B1
S113251004210A2000F063FBDFF88803B0F90020EF
S11325200421462000F05BFBDFF87C03B0F90020B7
S113253006210A2000F053FBDFF86403B0F9000021
S1132540DFF86013B1F90010421A0621462000F0AA
S113255046FB00F0A9FCDFF854130870DFF84C03C5
S11325600078FF2803D0B248D04909780170B048F8
S113257000780C287FF404AFAD48FF210170AF4808
S11325800C21017000F065FA25E000BF38630000FB
S11325902004FF1F746400005404FF1F636A0000DA
S11325A06E2000F009FE00F07FFCC0490870BF48AF
S11325B00078FF2803D09E48BC49097801709C48E4
S11325C000780C2805D19D48FF2101709848FF210F
S11325D0017000F03EFA994800780C28E0D0A04839
S11325E0012101709E48007801280AD16DA20621BC
S11325F03C2000F056FB40F24C4000F0DDFD00F0C2
S113260028FA9748022101709648002101809648D3
S1132610002101809548007801281BD193480021AE
S11326200170641C2000C0B2052800D30024904827
S113263001F0B8F801F0E4F901F092FC9C4800784C
S1132640401C9B4908709A480078052802D1984894
S1132650002101709748B0F900000128C2D18848D0
S1132660B0F9002002210A2000F0B9FA8648B0F936
S113267000200221462000F0B2FA8948B0F9002077
S113268004210A2000F0ABFA8648B0F900200421A6
S1132690462000F0A4FA8448B0F9002006210A205C
S11326A000F09DFA7E48B0F900007E49B1F90010AF
S11326B0421A0621462000F092FA7F4800687F49BA
S11326C00968884203DA7C487C49096801607C48CF
S11326D0B0F900007B49B1F90010884203DA784868
S11326E07849098801807848B0F900007749B1F940
S11326F00010884203DA74487449098801807448D8
S1132700B0F900007349B1F90010884203DA704847
S113271070490988018067480021018001F054FE56
S113272008216D4801F0E4FF01287FF45BAF6B4A98
S11327300021002000F0B5FA6348B0F90020002120
S1132740462000F04CFA5E48B0F9002002210A202D
S113275000F045FA584802680221462000F03FFA8A
S11327605B48B0F9002004210A2000F038FA5C48E4
S1132770002101603B48012101803B480121018087
S1132780D5E700007C6400005804FF1F4463000088
S11327902204FF1F9C640000A4640000AC640000D9
S11327A0B4640000676F000080B572B65FF4E13274
S11327B04C4801684C4801F0A3FF00230022082183
S11327C0454801F04BFF4FF49671002002F0A2F847
S11327D04FF496520221002002F011FA4FF47A715C
S11327E0012002F097F802F014FB02F076FB00F0EF
S11327F089FE00F057F9002200215FF07F5002F0BB
S1132800F7FB3A48B0F9000002F0EEFB4EF6602107
S1132810002002F03DFC002002F069FC62B601BD1C
S1132820846400008C640000946400006E04FF1F44
S11328307004FF1F506300002804FF1F7204FF1F71
S11328405C6300003004FF1FBC6400005C04FF1FD5
S1132850C46400006C04FF1FCC6400006A04FF1F02
S11328607104FF1F9607FF1F9807FF1FA807FF1F8C
S11328709006FF1F8E07FF1F4207FF1F9007FF1FD1
S11328803007FF1F9207FF1F1404FF1F4807FF1F95
S11328904407FF1F1604FF1FA007FF1F4007FF1F69
S11328A07A07FF1F7C07FF1F3607FF1F6F04FF1FF8
S11328B0AB07FF1F8C07FF1F1007FF1F8C06FF1FAE
S11328C09C07FF1F8A07FF1F9E07FF1F6207FF1F4A
S11328D09407FF1F7E07FF1F80F00F40D4640000A1
S11328E0109003402807FF1F00D006406204FF1F1A
S11328F00821DFF81825126852F40032DFF80C358D
S11329001A6000BFDFF80425126832F48042DFF851
S1132910FC341A6000BF19E0DFF8F024126832F4C6
S11329200042DFF8E8341A60DFF8E024126852F459
S11329308042DFF8D8341A6000BFDFF8D024126870
S113294032F48042DFF8C4341A6040000A00511E99
S1132950D2B2002A0AD00206DED5DFF8B02412680B
S113296052F40042DFF8A4341A60DDE77047000037
S11329700821DFF89824126832F40032DFF88C342E
S11329801A60DFF88824126832F48042DFF87C345D
S11329901A6019E0DFF87424126832F40042DFF898
S11329A06C341A60DFF86424126852F48042DFF851
S11329B05C341A6000BFDFF85424126832F4804299
S11329C0DFF848341A6040000A00511ED2B2002ACF
S11329D00AD00206DED5DFF83424126852F400422D
S11329E0DFF828341A60DDE7704710B50400B1F150
S11329F05000C0B2FFF7BCFFE4B2200950F0100051
S1132A00C0B2FFF7B5FF14F00F0050F00100C0B2E0
S1132A10FFF7AEFF10BD70B50400002508E02000EC
S1132A20C0B2FFF765FF761CF6B2802EF7D36D1C9B
S1132A30EDB2082D0CD2B5F15000C0B2FFF798FFEB
S1132A400120FFF795FF1020FFF792FF0026EBE728
S1132A5070BD38B5002407E00020FFF749FF6D1C66
S1132A60EDB2802DF8D3641CE4B2082C0CD2B4F17E
S1132A705000C0B2FFF77CFF0120FFF779FF102060
S1132A80FFF776FF0025EBE731BD07E043F226416F
S1132A900A00511E92B2002AFAD1401E80B20028C8
S1132AA0F4D1704780B5DFF868034FF4807101609A
S1132AB0DFF860034FF480710160DFF85C034FF4CA
S1132AC080710160DFF854034FF480710160DFF816
S1132AD050035FF470310160DFF83003006850F494
S1132AE08040DFF828130860DFF82003006830F422
S1132AF08030DFF8181308603220FFF7C6FFDFF8D4
S1132B000C03006850F48030DFF800130860AE2036
S1132B10FFF72EFF0020FFF72BFF1020FFF728FF01
S1132B204020FFF725FF8120FFF722FFCF20FFF78A
S1132B301FFFA120FFF71CFFC820FFF719FFA620E5
S1132B40FFF716FFA820FFF713FF3F20FFF710FF42
S1132B50D320FFF70DFF0020FFF70AFFD520FFF772
S1132B6007FF8020FFF704FFD920FFF701FFF120C2
S1132B70FFF7FEFEDA20FFF7FBFE1220FFF7F8FE58
S1132B80DB20FFF7F5FE4020FFF7F2FE2020FFF7E1
S1132B90EFFE0220FFF7ECFE8D20FFF7E9FE142084
S1132BA0FFF7E6FEA420FFF7E3FEA620FFF7E0FE12
S1132BB0AF20FFF7DDFE0020FFF72DFF00210020EE
S1132BC0FFF713FFFF20FFF726FF642000F0F4FA5D
S1132BD00020FFF720FF642000F0EEFA01BD2DE98C
S1132BE0FC4104000D00002600275FF0000864206B
S1132BF092FBF0F08DF80000642092FBF0F100FBF2
S1132C0011200A2190FBF1F08DF801000A2092FBBB
S1132C10F0F100FB11208DF802000020804610E046
S1132C20F6B2300150FA87F0DFF8F8114018007A54
S1132C30FFF75EFE7F1CFFB2082FF1D3083418F1B2
S1132C4001085FFA88F8B8F1030F28D25FFA88F810
S1132C5000A818F8000010F11006E4B2792C01D392
S1132C6000246D1C2900C9B22000C0B2FFF7BDFECC
S1132C70002709E0F6B2300150FA87F0DFF8A4111A
S1132C80405CFFF735FE7F1CFFB2082FF2D3691CAE
S1132C90C9B22000C0B2FFF7A8FE0027CBE7BDE809
S1132CA0F3812DE9F84304000D00160000275FF0BE
S1132CB000085FF0000913E0FFB2380150FA88F011
S1132CC0DFF860114018007AFFF712FE18F10108CE
S1132CD05FFA88F8B8F1080FEED3083419F1010946
S1132CE05FFA89F919F8060000282CD05FFA89F9EF
S1132CF019F80600B0F12007E4B2792C01D30024BE
S1132D006D1C2900C9B22000C0B2FFF76EFE5FF04F
S1132D1000080AE0FFB2380150FA88F0DFF8041125
S1132D20405CFFF7E5FD18F101085FFA88F8B8F197
S1132D30080FEFD3691CC9B22000C0B2FFF755FEDB
S1132D405FF00008C4E7BDE8F1832DE9F04182B0EB
S1132D5004000D00002600275FF000086420B2FB89
S1132D60F0F08DF800000A20B2FBF0F00A21B0FB6D
S1132D70F1F301FB13008DF801000A20B2FBF0F11E
S1132D8000FB11208DF80200002080460FE0F6B20F
S1132D90300150FA87F023494018007AFFF7A8FD64
S1132DA07F1CFFB2082FF2D3083418F101085FFA30
S1132DB088F8B8F1030F27D25FFA88F800A818F84A
S1132DC0000010F11006E4B2792C01D300246D1C2C
S1132DD02900C9B22000C0B2FFF707FE002708E0AF
S1132DE0F6B2300150FA87F00E49405CFFF780FDDF
S1132DF07F1CFFB2082FF3D3691CC9B22000C0B2F4
S1132E00FFF7F3FD0027CCE7BDE8F38100F00F40A6
S1132E10389004403C900440409004404490044066
S1132E2014F00F40DC57000080B5DFF8840300681D
S1132E3050F48050DFF8781308600023002200214A
S1132E40DFF8700301F00AFC002300220121DFF8FF
S1132E50640301F003FC002300220221DFF8540381
S1132E6001F0FCFB002300220321DFF8480301F0FA
S1132E70F5FB012300220421DFF8380301F0EEFB07
S1132E80012300220521DFF82C0301F0E7FB0123D5
S1132E9000220621C74801F0E1FB0023002207219C
S1132EA0C44801F0DBFB01BDF8B50025FF24002375
S1132EB001220021BF4801F0D1FB0123012201219D
S1132EC0BC4801F0CBFB012301220221B94801F0E7
S1132ED0C5FB012301220321B64801F0BFFB0421F5
S1132EE0B44801F005FC06000521B24801F000FCDD
S1132EF007000621AF4801F0FBFB790111EB061135
S1132F0011EB80160721AB4801F0F2FB16EBC01061
S1132F100500EDB2702D2AD00A2000F04DF90421ED
S1132F20A44801F0E5FB05000521A24801F0E0FBFF
S1132F30060006219F4801F0DBFB710111EB05112E
S1132F4011EB801507219B4801F0D2FB15EBC0154E
S1132F50EDB2702D0BD0EDB2302D07D0502D03D033
S1132F60602D04D10A2402E00B2400E00C24012388
S1132F70012200218F4801F071FB0023012201216D
S1132F808C4801F06BFB012301220221894801F0E6
S1132F9065FB012301220321864801F05FFB042124
S1132FA0844801F0A5FB05000521824801F0A0FB3F
S1132FB0060006217F4801F09BFB710111EB05110E
S1132FC011EB801507217B4801F092FB15EBC0152E
S1132FD0EDB2702D2AD00A2000F0EEF804217548D5
S1132FE001F086FB05000521724801F081FB060013
S1132FF00621704801F07CFB710111EB051111EB06
S1133000801507216B4801F073FB15EBC015EDB279
S1133010702D0BD0EDB2302D07D0502D03D0602D84
S113302004D1072402E0082400E00924012301223A
S11330300021604801F012FB0123012201215D48B7
S113304001F00CFB0023012202215A4801F006FB87
S1133050012301220321574801F000FB04215548B4
S113306001F046FB05000521524801F041FB060032
S11330700621504801F03CFB710111EB051111EBE5
S1133080801507214B4801F033FB15EBC015EDB259
S1133090702D2AD00A2000F08FF80421454801F051
S11330A027FB05000521434801F022FB0600062109
S11330B0404801F01DFB710111EB051111EB801566
S11330C007213C4801F014FB15EBC015EDB2702D3F
S11330D00BD0EDB2302D07D0502D03D0602D04D18C
S11330E0042402E0052400E0062401230122002137
S11330F0304801F0B3FA0123012201212D4801F0E7
S1133100ADFA0123012202212A4801F0A7FA002383
S113311001220321274801F0A1FA0421254801F0E6
S1133120E7FA05000521234801F0E2FA060006212A
S1133130204801F0DDFA710111EB051111EB801546
S113314007211C4801F0D4FA15EBC015EDB2702D1F
S11331502AD00A2000F030F80421164801F0C8FAF9
S113316005000521134801F0C3FA060006211148A1
S113317001F0BEFA710111EB051111EB8015072165
S11331800C4801F0B5FA15EBC015EDB2702D0BD05B
S1133190EDB2302D07D0502D03D0602D04D1012481
S11331A002E0022400E003242000C0B2F2BD0000CB
S11331B038800440C0F00F400D49096851F0010106
S11331C00B4A11600B4908600B48052101600B484C
S11331D0006850F0010009490860084800680006CA
S11331E0FBD5064800684008400004490860704761
S11331F038800440080004400400044000000440F7
S1133200FF2212EAD05C1DBF12EAD15394459342C7
S11332102BE09C44D30780EA01021A4043EA0020D1
S113322043EA0121A1FB0030410038BF40007CF19A
S11332307F010BDBFE294ADA5B0842EAC15153EAFB
S1133240006373F1004C51EB10207047D1F1080C6E
S1133250DCF120012FDB5B0810FA01F10B4373F161
S1133260004120FA0CF05041704794451CBF02EA1B
S1133270D153934280EA010202F000421DD0400083
S113328019D0490017D05BB9634514D00902B1FACB
S113329081F39940BCEB030CC00140F00040C1E74E
S11332A00002B0FA80FC10FA0CF0B3EB0C0CC9016C
S11332B041F00041B6E71000704740000AD04900D1
S11332C008D010F1807F94BF11F1807F02E042F0BA
S11332D0FF407047D04370474100090E7F3915D431
S11332E0D1F11F0114D4400007D2C00140F00040C6
S11332F0C84048BF6FF000407047C00140F0004034
S1133300C8404CBF4FF00040404270470020704717
S113331000424FF0004058BFC04370475FF0FF0CBD
S11333201CEAD05114BF614506E0C110400721F0EA
S1133330E04101F16051704779B900F000410002A9
S11333400AD0B0FA80FC00FA0CF001F16051A1EB54
S11333500C5101EBD0214005704741020CBF40F4F1
S1133360E0016FF000010020704750F8041B61B1C8
S113337050F8042BD30744BFA9F101039A18002382
S113338042F8043B091FFAD1EFE7704770B44FF0DD
S1133390004591EA030C44BF6B4001F0D5BE00BF69
S11333A0841A71EB030603D2001BB1411219734155
S11333B04FF4001C1CEB410F34BF7CEB430443E08F
S11333C00C0DA4EB1356352E50DC45EAC323DB0A5F
S11333D045EAC121C912B6F120050DDD63FA05F6EF
S11333E0EB4086EA0305124218BF45F00105C018F8
S11333F051F100010CD213E062FA06F5F240554097
S1133400F3415A40B340F3405A408018594107D31E
S113341049085FEA30005FEA350528BF45F0010539
S113342001F58011420875F1004250F1000041EBB2
S1133430045170BC4FF4001C1CEB410F38BF7047A3
S11334400020090D090570471CEB410F10D252EA08
S113345043060BD0BCEB410F05D80C0DAB43661EE5
S1133460342EB5DD02E0AB438018594170BC70477F
S113347070BC70474FEAF17CBCF1E04C2CBFBCF54A
S1133480001F11E05FEA4C0C34BFBCF17F5F2EE0FB
S11334905FEA9C0C4FEA0C1C4FEA3C0CC10071F132
S11334A000414CEB50707047C90241EA5051C002D0
S11334B018BF41F0010141F000414FEA6C50C0F1E6
S11334C00900212810D240EACC7CCCF1200C11FA5E
S11334D00CF070F10040CCF1200C21FA0CF00CF04F
S11334E0004C40EB0C0070474FEACC707047490029
S11334F011F5001F04D84FEACC10FF30C005704707
S1133500C817704780B5012301220021DFF8E804C1
S113351001F0A4F8012301220121DFF8DC0401F009
S11335209DF8012301220C21DFF8D00401F096F864
S1133530012301220D21DFF8C40401F08FF80120DA
S113354001F0B8FE01BD10B5012301220021DFF80E
S1133550A80401F083F800F05BFE0123012201219D
S1133560DFF8940401F07AF800F052FE00230122FF
S11335700021DFF8840401F071F800F049FE002313
S113358001220121DFF8700401F068F8002416E03C
S113359000F03EFE00F03CFE012301220121DFF891
S11335A0580401F05BF800F033FE00F031FE002314
S11335B001220121DFF8400401F050F8641CE4B258
S11335C07F2CE5D300F024FE00F022FE012301222B
S11335D00121DFF8240401F041F800F019FE00F0A5
S11335E017FE002301220121DFF80C0401F036F854
S11335F010BD38B50400012301220021DFF8F803CF
S113360001F02CF800F004FE012301220121DFF86F
S1133610E80301F023F800F0FBFD00230122002160
S1133620DFF8D40301F01AF800F0F2FD002502E0FF
S113363000F0EEFD6D1CEDB2502DF9D308220621E9
S1133640012001F05EFE2070641C00230122012190
S1133650DFF8A40301F002F800251DE000F0D8FD16
S113366000F0D6FD012301220121DFF88C0300F0D4
S1133670F5FF00F0CDFD00F0CBFD0822062101206E
S113368001F03FFE2070641C002301220121DFF8B9
S1133690680300F0E3FF6D1CEDB27F2DDED300F074
S11336A0B7FD00F0B5FD012301220121DFF8480335
S11336B000F0D4FF00F0ACFD00F0AAFD00230122CD
S11336C00121DFF8340300F0C9FF31BD80B5DFF814
S11336D07818802000F04DF8DFF870180870DFF8D3
S11336E06C08007819214843802190FBF1F0DFF841
S11336F060180870DFF85C080088DFF8541809784F
S1133700401ADFF854180880DFF84C08B0F90000BC
S1133710DFF84818B1F90010C84206DADFF8000AE9
S11337200078401EDFF8F8190870DFF83008B0F9A7
S11337300000DFF82418B1F90010884206DADFF837
S1133740E0090078401CDFF8D8190870DFF8D009C8
S11337500078022803D2DFF8C80901210170DFF8DC
S1133760C0090078142803D3DFF8B40914210170C8
S113377001BD10B40023002204E00C7853FA84F352
S1133780491C521CD2B2C0B28242F6D39BB2C0B220
S113379093FBF0F0C0B210BC7047002801D5404242
S11337A0FFE77047F8B50400002500260027002035
S11337B0DFF894174978DFF86C291180DFF888174F
S11337C04978DFF864291180012113E0C9B2DFF8D8
S11337D07807085CDFF85029B2F9002000B2904263
S11337E007DA0800C9B2DFF860278A5CDFF83839E5
S11337F01A80491CC9B27F2913D2DFF82809B0F90D
S11338000000C9B2DFF840278A5C12B29042DDDAC8
S11338100F00C9B2DFF83007085CDFF80829108010
S1133820E7E7DFF80009B0F90000FFB2DFF8181786
S1133830791811F8021C401A0B2832DBDFF8E4086F
S1133840B0F90000FFB2DFF8001779188978401A40
S11338500B2826DBFFB2DFF8F006381810F8020C4C
S1133860FFB2DFF8E41679188978401AFFF795FF5C
S11338700A2816DAFFB2DFF8D006381810F8020C5E
S1133880FFB2DFF8C416791889780818FFB2DFF898
S1133890B8167854FFB2DFF8B006385CDFF8841845
S11338A00880DFF88008B0F90000DFF87C18B1F96F
S11338B000100818022190FBF1F0DFF8701808805E
S11338C000210CE0DFF868080088C9B2DFF8782628
S11338D08A5C8018DFF858281080761C491CC9B20D
S11338E07F2917D2C9B2DFF86006085CDFF83C28EC
S11338F0B2F9002000B29042E4DBDFF83808008817
S1133900C9B2DFF844268A5C8018DFF828281080C2
S11339106D1CE3E7DFF81C08B0F90000EDB290FB82
S1133920F5F0DFF810180880DFF80408B0F900009B
S1133930F6B290FBF6F0DFF8F8170880DFF8F4072A
S1133940B0F90000DFF8E817B1F9001008180221F7
S113395090FBF1F0DFF8D4170880002103E0002089
S11339602070641C491CC9B280290AD22078DFF86F
S1133970BC27B2F9002000B29042F0DB0120207095
S1133980EFE7032034E0C0B2DFF8BC15415C002946
S113399013D1C0B2DFF8B015411811F8011C012988
S11339A00BD1C0B2DFF8A01541184978012904D120
S11339B0C0B2DFF8941501224254C0B2DFF8881572
S11339C0415C012913D1C0B2DFF87C15411811F80C
S11339D0011C00290BD1C0B2DFF86C1541184978DD
S11339E0002904D1C0B2DFF8601500224254401C03
S11339F0C0B27D28C7D3F1BD00F10F4000F00F40E5
S1133A0010B4002300210B007E2101E00022491E96
S1133A1009B2042922DB09B2DFF82C258A5C012AC9
S1133A20F4D109B2DFF820258A1812F8012C002AF3
S1133A30ECD109B2DFF810258A1812F8022C002AFA
S1133A40E4D109B2DFF800258A1812F8032C002A01
S1133A50DCD18A1EDFF8E0361A800122012301E05E
S1133A6000205B1C1BB27B2B1FDA1BB2DFF8D804CF
S1133A70185C0128F4D11BB2DFF8CC041818407884
S1133A800028EDD11BB2DFF8C00418188078002894
S1133A90E6D11BB2DFF8B0041818C0780028DFD1D3
S1133AA0981CDFF898462080012012B2012A78D1B0
S1133AB000B2012875D1DFF8880600220270DFF811
S1133AC07406B0F90000DFF86826B2F90020801A05
S1133AD02E283FDBDFF86406B0F90000DFF8582633
S1133AE0B2F90020904280F26581DFF85806B0F9FF
S1133AF00000DFF84826B2F90020801A1F280EDBE8
S1133B00881EDFF834160880DFF82C060088DFF8FA
S1133B10381609880818DFF8241608804AE1DFF807
S1133B201806B0F90000DFF82416B1F90010401AA5
S1133B301F28C0F23F81981CDFF800160880DFF8C8
S1133B40FC050088DFF800160988401ADFF8E8153C
S1133B5008802FE1DFF8DC05B0F90000DFF8D015AC
S1133B60B1F90010401A2E2880F22481DFF8B00544
S1133B700078082808D2DFF8C0050F210180DFF89B
S1133B80BC057F21018015E1DFF8AC05DFF8BC1529
S1133B9009880180DFF8A405DFF8A81509880180E9
S1133BA008E112B2012A65D100B2002862D1DFF81F
S1133BB0900500210170DFF87C05B0F90000DFF802
S1133BC07015B1F90010401A2E283ADBDFF874059D
S1133BD0B0F90000DFF86015B1F9001088420CDA82
S1133BE0DFF85405DFF8641509880180DFF84C0517
S1133BF0DFF8501509880180DCE0DFF83C05B0F9F6
S1133C000000DFF84415B1F90010D1F166018842D3
S1133C100CDADFF82405DFF8341509880180DFF8B1
S1133C201C05DFF8201509880180C3E0DFF80805CA
S1133C300088DFF8141509880818DFF800150880D3
S1133C40B8E0DFF8F004B0F90000DFF8E414B1F9EB
S1133C500010401A2E2880F2AD80DFF8DC04DFF873
S1133C60EC1409880180DFF8D404DFF8D81409883B
S1133C7001809FE012B2002A63D100B2012860D112
S1133C80DFF8BC0400210170DFF8A804B0F90000DB
S1133C90DFF89C14B1F90010401A2E2839DBDFF844
S1133CA09C04B0F90000DFF8A414B1F900108842B4
S1133CB00CDADFF88404DFF8941409880180DFF853
S1133CC07C04DFF880140988018073E0DFF878044D
S1133CD0B0F900001930DFF86414B1F9001088421B
S1133CE00CDADFF85404DFF8641409880180DFF883
S1133CF04C04DFF85014098801805BE0DFF83C04D1
S1133D000088DFF844140988401ADFF82C1408806E
S1133D1050E0DFF82004B0F90000DFF81414B1F922
S1133D200010401A2E2845DADFF80C04DFF81C14C2
S1133D3009880180DFF80404DFF808140988018089
S1133D4038E0104300B2002834D1DFF8F4030078DF
S1133D50002807D1DFF8B40400210180DFF8E00374
S1133D6001210170DFF8A4040088401CDFF89C14D2
S1133D700880DFF8D803B0F90000402805DADFF83E
S1133D80C403B0F9000040280CDADFF8AC03DFF814
S1133D90BC1309880180DFF8A403DFF8A81309889D
S1133DA0018007E0DFF8900300210180DFF88C0335
S1133DB07F210180DFF88003B0F90000DFF87C1375
S1133DC0B1F900100818022190FBF1F0DFF83C155E
S1133DD00880DFF838050088DFF834150988401AB0
S1133DE0DFF830150880DFF86403DFF84C13098826
S1133DF00180DFF85003DFF8441309880180DFF8FD
S1133E001805DFF8481309880180DFF81005DFF88A
S1133E10341309880180DFF87805DFF878150988FC
S1133E200180DFF87005DFF8701509880180DFF87C
S1133E306805DFF8681509880180DFF86005DFF898
S1133E40601509880180DFF85805DFF858150988DE
S1133E500180DFF85005DFF8501509880180DFF88C
S1133E604805DFF8481509880180DFF84005DFF8C8
S1133E70401509880180DFF83805DFF8381509880E
S1133E800180DFF83005DFF88C1409880180DFF841
S1133E9024050088DFF818150988401ADFF818157A
S1133EA00880DFF80C050088DFF800150988401A3F
S1133EB0DFF808150880DFF8F4040088DFF8E81458
S1133EC00988401ADFF8F8140880DFF8DC04008859
S1133ED0DFF8D0140988401ADFF8E8140880DFF806
S1133EE0C4040088DFF8B8140988401ADFF8741590
S1133EF00880DFF8AC040088DFF8A0140988401AB1
S1133F00DFF864150880DFF894040088DFF888146B
S1133F100988401ADFF854150880DFF87C0400880B
S1133F20DFF870140988401ADFF844150880DFF8B8
S1133F3064040088DFF858140988401ADFF848152B
S1133F40088010BC704700009006FF1FA207FF1FE7
S1133F50A307FF1F1A04FF1F7807FF1F1C04FF1F7E
S1133F6030B4032006210022DFF8083500241C8029
S1133F70DFF8043500241C80DFF8103500241C8091
S1133F800B1A5B1C1A00DFF8F434DFF8884324882A
S1133F901C8064230CE0DBB2DFF8E04414EB430440
S1133FA034F8024CDBB2DFF8D45425F813405B1E1E
S1133FB0DBB2012BEFD200230CE0DFF8C4442488E9
S1133FC0DBB2DFF8B85435F813502C19DFF8B054CD
S1133FD02C805B1CDBB2032BEFD3DFF8A434B3F9E2
S1133FE00030032493FBF4F3DFF89444238000238C
S1133FF010E0DBB2DFF8844434F81340DBB2DFF8BE
S11340007C5435F813506C43DBB2DFF8785425F850
S113401013405B1CDBB2032BEBD300230CE0DFF873
S113402054442488DBB2DFF85C5435F813502C195F
S1134030DFF840542C805B1CDBB2032BEFD3DFF89A
S11340403434B3F90030032493FBF4F3DFF8284449
S11340502380DFF82C3400241C80002306E0DBB22C
S1134060DFF82044002524F813505B1CDBB2052B39
S1134070F5D3DFF8003400241C8003000CE0DFF8E3
S113408000442488DBB2DFF8F45335F813502C19BC
S1134090DFF8EC532C805B1CDBB2C9B28B42EED34D
S11340A0DFF8DC33B3F90030C9B293FBF1F3DFF886
S11340B0D0432380030010E0DBB2DFF8C04334F8C0
S11340C01340DBB2DFF8B45335F813506C43DBB262
S11340D0DFF8B05325F813405B1CDBB2C9B28B4246
S11340E0EAD303000CE0DFF88C030088DBB2DFF8CE
S11340F0944334F813402018DFF8784320805B1C85
S1134100DBB2C9B28B42EED3DFF86803B0F900002A
S1134110D2B290FBF2F0DFF87413088030BC704721
S11341201E04FF1F3207FF1F3407FF1F3607FF1F40
S11341307C07FF1F7A07FF1F3007FF1F1404FF1FB0
S1134140A407FF1F3A07FF1F4007FF1F3807FF1F81
S113415070B5040000262A21DFF8A00400F0ADFBAE
S11341604C21DFF8980400F0A8FB4421DFF88C040C
S113417000F0A3FB002000F01DF8002000F01AF866
S1134180002000F017F8002000F014F8002504E0E7
S1134190207800F00FF8641C6D1CEDB2802DF7D36D
S11341A03000C0B200F006F82321DFF8500400F01C
S11341B084FB70BD10B50400E4B22009C0B20A2823
S11341C007D210F13001C9B2DFF8300400F075FBFA
S11341D006E010F13701C9B2DFF8200400F06DFBEE
S11341E014F00F00C0B20A2807D210F13001C9B28E
S11341F0DFF8080400F061FB06E010F13701C9B2F2
S1134200DFF8F80300F059FB10BD00007E07FF1F24
S113421081B000208DF8000006E000BF00BF9DF8CB
S11342200000401C8DF800009DF800000128F4D324
S113423001B0704710B5DFF8A003DFF8B8130968C0
S11342400160DFF89803334909880180DFF88C03A3
S11342500088DFF88C130988401ADFF88813088077
S1134260DFF87803B0F9000001F012F9DFF87813F1
S11342700968FEF7C5FFDFF8741301F021F90400A3
S1134280DFF86003B0F9000001F002F9DFF8601311
S11342900968FEF7B5FF210001F012F9FFF71CF8D9
S11342A0DFF854130880DFF83803DFF83013098887
S11342B00180DFF84403B0F9000041F63901884277
S11342C004DBDFF8340341F638010180DFF828030A
S11342D0B0F9000040F6E441884204DADFF818033C
S11342E040F6E4410180DFF81003B0F90020022118
S11342F0002000F033FDDFF80003B0F9000001F006
S1134300C7F8DFF8F012086010BD00004207FF1F75
S11343104807FF1F4C07FF1F3C07FF1F3E07FF1FF7
S113432010B5DFF8D0020068DFF8AC12096801F0BC
S113433009F90400DFF8C802B0F90000401C01F0DC
S1134340A7F82100FEF75CFFDFF8B81201F06EF960
S1134350DFF88412096801F0B3F8FEF7BDFFDFF857
S11343609812088010BDDFF8AC020068DFF89812DC
S11343700880DFF898020088DFF88C120988081892
S1134380DFF888120880DFF88C0200210160704792
S11343906007FF1F5E07FF1F5C07FF1F5A07FF1F11
S11343A05807FF1F5607FF1F5407FF1F5207FF1F21
S11343B05007FF1F4E07FF1F6207FF1F6407FF1F01
S11343C06607FF1F6807FF1F80B5DFF84C02DFF8A0
S11343D03C12B1F900100160DFF8300200210180C5
S11343E000F056F8DFF83402B0F9000000F0FCFDEC
S11343F0DFF824020068052148430D2190FBF1F009
S1134400303000F0FFFDDFF8141209884018DFF89F
S113441000120880DFF8F801B0F9000001280EDB73
S1134420002301220921DFF8F80100F017F9DFF871
S1134430F401DFF8DC11B1F90010016010E0012390
S113444001220921DFF8D80100F008F9DFF8C001E2
S1134450B0F9000040F2E2410818DFF8C811086022
S113446001BD00006A07FF1F6C07FF1F6E07FF1FD7
S11344707007FF1F8207FF1F8407FF1FFC04FF1F35
S11344808007FF1FC405FF1F7207FF1F8607FF1F5A
S1134490DFF89C01B0F90000DFF89011B1F90010C9
S11344A0884239DADFF8A40101210170DFF89001B4
S11344B0B0F900000D2828DBDFF87801B0F900001E
S11344C0DFF88011097809B2884217DADFF864014D
S11344D00088401CDFF85C110880DFF85C01B0F94B
S11344E000004042DFF83011096848434FF4AF71CF
S11344F090FBF1F0DFF82411088046E0DFF81C019E
S1134500DFF84C11098801803FE0DFF81001DFF883
S113451040110988018038E0DFF81001B0F900008B
S1134520DFF80411B1F90010884224DADFF81C0125
S11345300078012807D1DFF8140100210170DFF8A9
S1134540000100210180DFF8EC0000210180DFF888
S1134550F0000088401CDFF8E8100880DFF8E00075
S1134560B0F90000032810DBDFF8B000DFF8D81042
S11345700988018009E0DFF8D40001210170DFF827
S11345809C00DFF8B81009880180DFF8C800B0F992
S11345900000DFF884100968884209DADFF87C003B
S11345A00088DFF8B4100988401ADFF8701008801A
S11345B0DFF864000068052148430D2190FBF1F009
S11345C0303010F1640F05DADFF85000DFF86C10BA
S11345D00988018070470000F404FF1F4607FF1F8D
S11345E04A07FF1F7407FF1F2404FF1F0070944530
S11345F02C04FF1FF804FF1F1804FF1F00D00640FF
S11346002E07FF1F0000A0412C07FF1F7607FF1F86
S11346108807FF1F04800B408C06FF1F6004FF1FE8
S113462040F00F40109003402204FF1F8407FF1F37
S11346302004FF1F9A07FF1F6804FF1F6604FF1F63
S11346408A07FF1F1F04FF1F6204FF1FA507FF1F28
S11346506404FF1F6C04FF1F6A04FF1F70B405008D
S11346601D4EAD1B08D0403D08D0403D08D0403D14
S113467008D0403D08D009E0184C07E0184C05E08C
S1134680184C03E0184C01E0184CFFE74FF4807518
S113469044F82150012A15D1426901248C40224357
S11346A04261012B06D10268012313FA01F111437F
S11346B001600EE00268012313FA01F132EA0101FC
S11346C0016006E04269012313FA01F132EA0101B3
S11346D0416170BC7047000000F00F40009004403E
S11346E000A0044000B0044000C0044000D00440D6
S11346F0006901228A401040C840C0B27047704728
S113470030B4DFF8C03198420AD1DFF8BC314FF43D
S113471040741C60DFF8B4314FF440741C6049E00D
S1134720DFF8AC3198420AD1DFF8A8314FF4407475
S11347301C60DFF8A4314FF440741C603AE0DFF8E9
S11347409C3198420AD1DFF898314FF440741C60D0
S1134750DFF890314FF440741C602BE0DFF88831AF
S113476098420AD1DFF884314FF440741C60DFF8BA
S113477080314FF440741C601CE0DFF878319842BB
S11347800AD1DFF874314FF440741C60DFF86C31E7
S11347904FF440741C600DE0DFF86431984209D195
S11347A0DFF860314FF440741C60DFF85C314FF483
S11347B040741C60DFF80C31984208D1DFF84C31AA
S11347C01B6853F48063DFF8444123603BE0DFF867
S11347D00031984208D1DFF834311B6853F4006388
S11347E0DFF8284123602EE0DFF8F030984208D14A
S11347F0DFF818311B6853F48053DFF8104123604D
S113480021E0DFF8E430984208D1DFF800311B687A
S113481053F40053DFF8F440236014E0DFF8D4309D
S1134820984208D1DFF8E8301B6853F48063DFF85E
S1134830E040236007E0DFF8D8301B6853F40063DE
S1134840DFF8CC402360C37813F0F303C370002374
S113485083701C4B984208D000231D4CA04204D006
S113486053F00003DBB2002B00D049184FF47A73E5
S113487003FB01F31401B3FBF4F3047814F0E00434
S11348809BB21D0A15F01F052C43047043704FF4AE
S1134890FA4461431201B1FBF2F19BB2B1EB431153
S11348A0827A12F0E00411F01F0121438172C17871
S11348B051F00C01C17030BC704702791206FCD56E
S11348C0C171704700A0064018C004401CC00440D9
S11348D000B0064010B004400CB0044000C00640D4
S11348E00CC0044008C0044000D0064044B004405A
S11348F040B0044000A00E4060D0044064D00440A6
S113490000B00E4020D0044024D004403480044041
S11349102880044030B40023DFF8202612684FF4C6
S11349207A7462438A4201D200209EE0802303FB12
S113493001F3B2FBF3F44FF6FF739C4280F017814E
S11349400723C0B2002840F09280DFF8F4552C60B1
S1134950402404FB01F4B2FBF4F44FF6FF75AC42BF
S113496060D20623C0B2002840F09180DFF8D05511
S11349702C604C01B2FBF4F44FF6FF75AC4251D2FB
S11349800523C0B2002840F09280DFF8B4552C60B3
S11349900C01B2FBF4F44FF6FF75AC4242D204238F
S11349A0C0B2002840F09380DFF894552C60CC000E
S11349B0B2FBF4F44FF6FF75AC4233D20323C0B21A
S11349C0002840F09480DFF878552C608C00B2FB0E
S11349D0F4F44FF6FF75AC4224D20223C0B200288F
S11349E040F09580DFF858552C604C00B2FBF4F48D
S11349F04FF6FF75AC4215D20123C0B2002840F037
S1134A009680DFF83C552C60B2FBF1F44FF6FF7151
S1134A108C4207D20023C0B2002840F09880DFF80F
S1134A2020150C60C0B2002840F0A380DFF8140504
S1134A30006850F08070DFF80C150860DBB213F0EA
S1134A40070050F00800DFF800150860DFF8FC04E8
S1134A5000210160DFF8F80400210160DFF8F404AC
S1134A60DFF8DC1409680160012030BC7047C0B273
S1134A70012803D1DFF8E0542C6069E7C0B20228B2
S1134A8003D1DFF8D8542C6062E70020EDE7C0B210
S1134A90012803D1DFF8C0542C606AE7C0B20228B1
S1134AA003D1DFF8B8542C6063E70020DDE7C0B21F
S1134AB0012803D1DFF8A0542C6069E7C0B20228B2
S1134AC003D1DFF898542C6062E70020CDE7C0B230
S1134AD0012803D1DFF880542C6068E7C0B20228B3
S1134AE003D1DFF878542C6061E70020BDE7C0B241
S1134AF0012803D1DFF860542C6067E7C0B20228B4
S1134B0003D1DFF858542C6060E70020ADE7C0B251
S1134B10012803D1DFF840542C6066E7C0B20228B4
S1134B2003D1DFF838542C605FE700209DE7C0B262
S1134B30012803D1DFF820542C6065E7C0B20228B5
S1134B4003D1DFF818542C605EE700208DE7C0B273
S1134B50012803D1DFF800140C6063E7C0B2022817
S1134B6003D1DFF8F8130C605CE700207DE7002038
S1134B707BE7C0B201281ED1DFF8C803006850F0FB
S1134B800070DFF8C0130860DBB213F0070050F0C8
S1134B900800DFF8CC130860DFF8C80300210160C7
S1134BA0DFF8C40300210160DFF8C003DFF8A813B5
S1134BB00968016058E7C0B202281ED1DFF8B003CB
S1134BC0006850F08070DFF8A8130860DBB213F0BF
S1134BD0070050F00800DFF89C130860DFF8980322
S1134BE000210160DFF8940300210160DFF89003E5
S1134BF0DFF868130968016036E7002035E718B468
S1134C0042F211739A4201D3002066E0C0B2002838
S1134C1065D1DFF82C331B680093009B5B1C5A435F
S1134C2042F21073B2FBF3F2C0B2002828D1C9B229
S1134C300B00002B022B05D9DB1E6CD05B1E032B53
S1134C4079D985E0DFF83C331B684FF400742343C3
S1134C50DFF830432360C9B28B0003F1804313F5BE
S1134C6092234FF44074DC60C9B2DFF81C3328246B
S1134C7043F83140C9B2DFF8103313EBC1035A6073
S1134C80C0B2012818D1C9B2002963D1BD4B1B6839
S1134C9053F48063BB4C2360C9B2BC4B4FF44074E3
S1134CA043F82140C9B2BA4B282443F83140C9B271
S1134CB0B74B13EBC1035A60C0B202280CD1C9B27E
S1134CC0002949D1C9B2B348282340F83130C9B2C8
S1134CD0B04810EBC1004260012012BC7047C0B262
S1134CE0012809D1009B9C4C2468A34201D10123D3
S1134CF000E00023DBB290E7C0B2022809D1009B98
S1134D00964C2468A34201D1012300E00023DBB2C6
S1134D1083E70020E1E79B4B1B6853F40063994C45
S1134D202360C9B28B0003F1804313F596234FF43B
S1134D3080645C6098E7934B1B6853F48053914CF8
S1134D402360C9B2944B4FF4806443F821408BE74D
S1134D500020C2E70020C0E70020BEE718B442F2FA
S1134D6011739A4201D3002019E0C0B2002818D16F
S1134D70734B1B680093009B5B1C5A4342F21073F5
S1134D80B2FBF3F2C0B200282FD1C9B2002903D07C
S1134D90022925D021D326E080480260012012BCDC
S1134DA07047C0B2012809D1009B6B4C2468A34210
S1134DB001D1012300E00023DBB2DCE7C0B202280A
S1134DC009D1009B654C2468A34201D1012300E072
S1134DD00023DBB2CFE70020E1E771480260DDE7A2
S1134DE070480260DAE70020D9E7C0B2012805D193
S1134DF0C9B2674810EBC1004260CFE7C0B20228D5
S1134E0005D1C9B2634810EBC1004260C6E7002077
S1134E10C5E780B50023012209216348FFF71EFC82
S1134E205848006850F400605649086057484FF4E9
S1134E30507101604348006850F0007041490860B7
S1134E405348006850F00800514908605048006811
S1134E5030F004004E4908604D48006850F02000CE
S1134E604B4908603E48292101605048006850F0D1
S1134E7004004E4908604D480068400840004B4912
S1134E8008604B48FE2101604A48002101604A48FD
S1134E900021016049480021016049480021016066
S1134EA048480068400840004649086046480021D8
S1134EB001604648002101604548002101602A48FC
S1134EC000210160294840F2E2410160414800218B
S1134ED0016024480021016001BD2548006850F0AC
S1134EE08070234908603C484FF4C06101603B482E
S1134EF04FF4C06101603A48006850F0040038493A
S1134F0008603848006850F00800364908601B48BB
S1134F10002101601A484FF6FF71016031480068B2
S1134F2050F001002F4908602D48006850F001003E
S1134F302B49086010480021016070472807FF1FB3
S1134F401407FF1F3C80044000800340048003409A
S1134F504C800340088003401807FF1F1C07FF1FF5
S1134F6000900340049003404C9003400890034099
S1134F703080044000800B4004800B404C800B4088
S1134F8008800B40388004400C80034000A004409B
S1134F900C9003400C800B4000C004401080034080
S1134FA0188003402080034040F00F405490034099
S1134FB060900340649003405C9003406C90034015
S1134FC0709003408090034090900340949003407D
S1134FD0989003401090034048A004404CA0044023
S1134FE054800B4080800B40264909680860704754
S1134FF0244B1B68986023480068C16021480068FE
S11350000261704710B51F4909680968081A1E49EA
S113501008601D48006800F03BFA1A49096889686D
S1135020FEF7EEF8040017480068406900F030FA13
S113503014490968C968FEF7E3F80100200000F08C
S113504081FA04000F480068806900F021FA0D49D4
S113505009680969FEF7D4F8210000F031FAFEF777
S11350603BF90A4908600748006806490968496924
S11350708161044800680449096841610348006883
S113508010BD00001004FF1FDC04FF1FE004FF1F1D
S11350902A4A126852F40002284B1A60284A1268FD
S11350A032F00202264B1A60254A126852F00102BD
S11350B0234B1A60C0B20201224BD150C0B2214925
S11350C011EB0011896851F00101C0B21D4A12EBC5
S11350D000129160C0B21B4911EB0011896831F0D4
S11350E00201C0B2174A12EB00108160704780B50C
S11350F0C0B2144911EB0011896851F00201C0B229
S1135100104A12EB00129160C0B2002805D00228A8
S11351100BD006D303280CD00EE0442000F007FB8C
S11351200AE0452000F003FB06E0462000F0FFFA09
S113513002E0472000F0FBFA01BD00003C8004407F
S11351400070034000710340841A71EB030604D21B
S11351506E40001BB141121973414FF4001C1CEB4B
S1135160410F34BF7CEB430684E00C0DA4EB1356D3
S1135170362E7DDC012E43DC45EAC32343EA525339
S113518012BFD20292025B08240545EAC12141EA1A
S11351905051D2EBC020994125D407D1B0FA80F602
S11351A010FA06F164D00020203608E0B1FA81F646
S11351B0B140C6F1200220FA02F21143B0404FEA96
S11351C0F474B4EB465434F001064FEA74040AD87C
S11351D0D6F50016760D04F00044F04061FA06F2AC
S11351E05040F1404840C00A40EA415021F000419B
S11351F028BF5FEA500550F1000044EBD12137E0AD
S113520045EAC323DB0A45EAC121C90AB6F12005F0
S11352100EDD42EA0242120CC5F1200603FA06F63C
S1135220EB4042EA06056D42984161F100010DE050
S113523062FA06F5F240554063FA06FC82EA0C0273
S1135240F3405A406D42904161EB030111F4801F19
S113525005D1641E620502D06D004041494121F42C
S11352608011430875F1004350F1000041EB0451F3
S113527070BC70471CEB410F15D223F0004352EA77
S113528043060BD04FEA4C0CBCEB410F04D80C0D79
S1135290661E342EB7DDEBE7801A994150EA4106C9
S11352A008BF0021E4E708BF1CEB430F28BF6FF0E1
S11352B00001DDE7002810D16D48006850F000605F
S11352C06B4908606B48006830F0900069490860D9
S11352D06848002101600120704701280FD1664809
S11352E0006850F00060644908606248006830F467
S11352F01040604908605F4800210160EBE700202E
S1135300EAE738B505000024D2B2280000F01EF800
S1135310002D0CD1594800680006FBD55848046894
S11353205648006830F08000544908600BE0554846
S113533000680006FBD5544804685248006830F001
S1135340800050490860200080B232BD10B50C00C6
S11353500021D2B2082A06D00A2A08D00C2A04D086
S1135360102A06D007E0002106E0012104E0022112
S113537002E0032100E00021890011F00C0151F04A
S11353805001424A1170414904224A703F4941F296
S113539034224A803D4945F278628A8000282AD125
S11353A0042C0BDA14F01F0050F040003749087247
S11353B03649324800F048F8012010BD201F142857
S11353C00AD214F01F0050F04000304908722F49EF
S11353D02A4800F039F8EFE71A2C0AD114F01F001C
S11353E050F04000294908722849244800F02CF85C
S11353F0E2E70020E1E7042C09DA14F01F0050F082
S113540040002249087221491C4800F01DF8201F61
S113541014280AD214F01F0050F040001B490872EF
S11354201A49184800F010F8C6E71A2C0AD114F0EB
S11354301F0050F04000154908721449114800F04B
S113544003F8B9E70020B8E70A7882604A78C260B6
S11354504A8882618A88C2618A790262CA79426210
S1135460CA6802650A7A0260497A4160704700009E
S11354703C800440188004403080044000B0034065
S113548010B0034000B00B4010B00B40E404FF1F09
S1135490002840F10780F446404200F003F850F041
S11354A0004060470AD0B0FA80F18840D1F19D01F4
S11354B0C905020672F1004241EB1020704700005A
S11354C090EA010F44BF81F0004100F043B800BFEF
S11354D0421A3CBF801A89184FF0004CC0F3C752DF
S11354E0FF2A24D0C1F3C75313B3D21AD2F119033C
S11354F027DD4CEA01214CFA03F321EA0303D140EE
S1135500C20D4CEA0020401834BF20EA0C004CEADB
S11355105000D20553EA006373EB0C0C52EB1020DD
S1135520420012F1807F38BF7047C00DC00570473C
S1135530490212BF9A4200EB5120F8E7D2F1170357
S1135540D9D5704790EA010F44BF81F00041FFF7BD
S1135550BFBF00BF431A4FF000423EBF5340C01AC2
S1135560C91800BFD3095FEAD05C13EB400F34BF06
S1135570B3EB410F40E07CEBD1530CD342EA012161
S113558022D8D1EB402009D3400A28BF5FEA50015A
S113559040EBCC507047401A15D04002B0FA80F26C
S11355A0521C9040400A4FEA3C23B3EB026384BF91
S11355B000EB730007E040F400001A16DB07C2F1A9
S11355C00102D04018437047182BFCDC31FA03F277
S11355D002FA03F3591A38BF42F00102D2EB402019
S11355E03CBF4000ACF1010C5FEACC5CC20572F137
S11355F000414CEB5020704713EB400F0FD24B008F
S113560009D0ACEBD153022B03DB4902172BDDDDB0
S113561070479143401A4300D5D10020704713EBE3
S1135620410FD0D36FF000007047000010B5FF2386
S113563013EAD0541DBF13EAD1529C429A4239E076
S1135640A41ADA0780EA0103134042EA012142EA7C
S11356500020421A3CBF641E01EB4202090AB2FB5D
S1135660F1FE01FB1E221202B2FBF1F001FB10223B
S11356706EF30F201202B2FBF1FE4EEA00207F34DB
S113568006DDFE2C24DA53EA500050EBC45010BD62
S1135690D4F1020401FB1E2240F08071192C1DDCA0
S11356A021FA04F0C4F12004A140114371F1004235
S11356B0584110BD9C421ABF03EAD1529A420FE0EE
S11356C080EA010E0EF00043400004D0490016D1D8
S11356D043F0FF4010BD490008BFD343180010BD7C
S11356E09C4205D1D21AF7D001F00041484010BDC8
S11356F04A0212BF0846484000F0004010BD4AB9B3
S11357000902B1FA81F2914044B1A418C00140F0F9
S113571000409EE7C90141F0004152420002B0FA44
S113572080F4A040141B94E72549086070475C2866
S113573000DB5B20202190FBF1F1002903D002293A
S113574029D014D33AE00121202290FBF2F303FB89
S1135750120399401B4A11600121202290FBF2F3AD
S113576003FB120311FA03F01749086026E0012134
S1135770202290FBF2F303FB12039940134A1160B9
S11357800121202290FBF2F303FB120311FA03F030
S11357900F49086012E00121202290FBF2F303FB81
S11357A0120399400B4A11600121202290FBF2F36D
S11357B003FB120311FA03F0074908607047000065
S11357C008ED00E080E200E000E100E084E200E0B7
S11357D004E100E088E200E008E100E000000000ED
S11357E0000000000000000000000000000000F8BD
S11357F000000000000000333000000000100C0620
S1135800100C0600000000000000000040C07840BA
S1135810C0784000043F04043F040400007088FC86
S113582008300000001820FF211E0000F008F000DE
S1135830E018000000211C031E211E0000F008884F
S1135840700000001E2123241927211010160E00B9
S1135850000000000000000000000000000000E064
S11358601804020000000007182040000002041879
S1135870E00000000040201807000000404080F0D5
S1135880804040000202010F01020200000000F00B
S1135890000000000101011F0101010000000000DF
S11358A00000000080B07000000000000000000054
S11358B000000000000101010101010100000000DD
S11358C00000000000303000000000000000000074
S11358D080601804006018060100000000E0100851
S11358E00810E000000F102020100F00001010F826
S11358F0000000000020203F202000000070080865
S113590008887000003028242221300000300888E4
S1135910884830000018202020110E000000C0200C
S113592010F8000000070424243F240000F808882D
S1135930880808000019212020110E0000E01088BA
S113594088180000000F112020110E0000380808EC
S1135950C83808000000003F0000000000708808FC
S113596008887000001C222121221C0000E010087D
S11359700810E0000000312222110F00000000C0D6
S1135980C000000000000030300000000000008073
S11359900000000000008060000000000000804063
S11359A0201008000001020408102000404040407C
S11359B040404000040404040404040000081020CF
S11359C04080000000201008040201000070480814
S11359D00808F0000000003036010000C030C8287C
S11359E0E810E0000718272423140B000000C03837
S11359F0E0000000203C23020227382008F88888B1
S1135A0088700000203F202020110E00C0300808BC
S1135A1008083800071820202010080008F8080893
S1135A200810E000203F202020100F0008F888888C
S1135A30E8081000203F20202320180008F8888858
S1135A40E8081000203F200003000000C0300808D0
S1135A500838000007182020221E020008F8080059
S1135A600008F808203F210101213F20000808F820
S1135A70080800000020203F202000000000080843
S1135A80F8080800C08080807F00000008F888C003
S1135A9028180800203F20012638200008F80800B4
S1135AA000000000203F20202020300008F8F800EB
S1135AB0F8F80800203F003F003F200008F830C0FD
S1135AC00008F808203F200007183F00E0100808ED
S1135AD00810E0000F10202020100F0008F808081C
S1135AE00808F000203F210101010000E01008082F
S1135AF00810E0000F18242438504F0008F8888854
S1135B0088887000203F2000030C30200070880833
S1135B10080838000038202121221C00180808F841
S1135B20080818000000203F2000000008F80800C2
S1135B300008F808001F202020201F000878880093
S1135B4000C83808000007380E010000F80800F803
S1135B500008F800033C0700073C030008186880AD
S1135B608068180820302C03032C30200838C80023
S1135B70C83808000000203F200000001008080872
S1135B80C83808002038262120201800000000FE14
S1135B90020202000000007F40404000000C30C0C0
S1135BA000000000000000010638C00000020202EC
S1135BB0FE000000004040407F000000000004029E
S1135BC002020400000000000000000000000000C9
S1135BD000000000808080808080808000020204B9
S1135BE000000000000000000000000000008080B1
S1135BF0808000000019242222223F2008F800801F
S1135C0080000000003F112020110E0000000080E1
S1135C1080800000000E1120202011000000008070
S1135C208088F800000E112020103F2000008080A2
S1135C3080800000001F222222221300008080F0B6
S1135C40888888180020203F2020000000008080E1
S1135C5080808000006B94949493600008F8008026
S1135C6080800000203F210000203F200080989881
S1135C70000000000020203F2020000000000080E1
S1135C809898000000C08080807F000008F8000021
S1135C9080808000203F24022D302000000808F876
S1135CA0000000000020203F202000008080808031
S1135CB080808000203F20003F20003F80800080C3
S1135CC080800000203F210000203F2000008080D1
S1135CD080800000001F202020201F008080008082
S1135CE08000000080FFA12020110E000000008031
S1135CF080808000000E112020A0FF808080800022
S1135D008080800020203F2120000100000080804E
S1135D10808080000033242424241900008080E043
S1135D20808000000000001F202000008080000010
S1135D3000808000001F202020103F2080808000F1
S1135D400080808000010E30080601008080008001
S1135D50008080800F300C030C300F000080800026
S1135D60808080000020312E0E3120008080800051
S1135D700080808080818E70180601000080808001
S1135D80808080000021302C22213000000000009F
S1135D90807C020200000000003F40400000000040
S1135DA0FF00000000000000FF0000000002027C71
S1135DB0800000000040403F000000000006010198
S1135DC0020204040000000000000000DFF800F0FC
S1135DD07504FF1F80B57348006850F4785071490A
S1135DE008601021052000F02FF86F4908606E4804
S1135DF000684FF47A7148436C4908606B48006846
S1135E006B490968C1F30361491CB0FBF1F06949AE
S1135E10086000F003F800F00CF801BD6648006863
S1135E2050F480506449086064484FF4E0610160B4
S1135E3070476348006850F0010061490860614898
S1135E404FF4A0610160704780B50A00C0B2092810
S1135E5001D30020A4E0D2B2112A01D301209FE093
S1135E60594A00231370594A126852F08052574B12
S1135E701A60574A127852F08002554B1A70554AEC
S1135E8098231370544A1278D206FBD4524A1278DB
S1135E90C2F38102D2B2022AF8D1504A0E231370FF
S1135EA04F4A00231370C0B200280BD002281FD021
S1135EB013D3042832D026D3062845D039D3072853
S1135EC04DD056E00123002200210020FFF77EFF81
S1135ED043484121017032214BE003230122012177
S1135EE00020FFF773FF3E485A210170642140E00F
S1135EF00323012201210020FFF768FF38485821BD
S1135F000170782135E00123002200210020FFF7F1
S1135F105DFF33484021017030212AE0052302222D
S1135F2002210020FFF752FF2D484F2101709621D6
S1135F301FE00723022202210020FFF747FF284821
