S018000050686F746F656C6563747269634361722E73726563A1
S1130000F8FF002011040000071A0000071A00007E
S1130010071A0000071A0000071A0000071A000058
S1130020071A0000071A0000071A0000071A000048
S1130030071A0000071A0000071A0000071A000038
S1130040071A0000071A0000071A0000071A000028
S1130050071A0000071A0000071A0000071A000018
S1130060071A0000071A0000071A0000071A000008
S1130070071A0000071A0000071A0000071A0000F8
S1130080071A0000071A0000071A0000071A0000E8
S1130090071A0000071A0000071A0000071A0000D8
S11300A0071A0000071A0000071A0000071A0000C8
S11300B0071A0000071A0000071A0000071A0000B8
S11300C0071A0000071A0000071A0000071A0000A8
S11300D0071A0000071A0000071A0000071A000098
S11300E0071A0000071A0000071A0000071A000088
S11300F0071A0000071A0000071A0000071A000078
S1130100071A0000071A0000071A0000071A000067
S1130110071A0000071A0000071A0000071A000057
S1130120071A0000071A0000071A0000071A000047
S1130130071A0000071A0000071A0000071A000037
S1130140071A0000071A0000071A0000071A000027
S11301506D2C0000071A0000071A0000071A00009F
S1130160071A0000071A0000071A0000071A000007
S1130170071A0000071A0000071A0000071A0000F7
S1130180071A0000071A0000071A0000071A0000E7
S1130190071A0000071A0000071A0000071A0000D7
S1130400FFFFFFFFFFFFFFFFFFFFFFFFFEFFFFFFF9
S11304104FF000004FF000014FF000024FF00003D6
S11304204FF000044FF000054FF000064FF00007B6
S11304304FF000084FF000094FF0000A4FF0000B96
S11304404FF0000C62B602F095FCFEE780B5012384
S113045001220021DFF8A40900F07EFD012301221E
S11304600121DFF8980900F077FD012301220A2118
S1130470DFF8500A00F070FD012301220B21DFF8A0
S1130480440A00F069FD012000F0B0FD01BD80B513
S1130490DFF86C0900684FF400710843DFF8601955
S11304A00860DFF860094FF48071016000230022C6
S11304B01321DFF8140A00F04FFD01BD10B501232C
S11304C001220021DFF8340900F046FD00F01CFC95
S11304D0012301220121DFF8240900F03DFD00F091
S11304E013FC002301220021DFF8100900F034FD81
S11304F000F00AFC002301220121DFF8000900F0CA
S11305002BFD002416E000F0FFFB00F0FDFB0123AF
S113051001220121DFF8E40800F01EFD00F0F4FBE5
S113052000F0F2FB002301220121DFF8D00800F0E3
S113053013FD641CE4B27F2CE5D300F0E5FB00F06E
S1130540E3FB012301220121DFF8B00800F004FDE0
S113055000F0DAFB00F0D8FB002301220121DFF8D0
S11305609C0800F0F9FC10BD10B5012301220B21F9
S1130570DFF8500900F0F0FC00F0C6FB0123012273
S11305800A21DFF8400900F0E7FC00F0BDFB00237E
S113059001220B21DFF82C0900F0DEFC00F0B4FB93
S11305A0002301220A21DFF81C0900F0D5FC0024F5
S11305B016E000F0A9FB00F0A7FB012301220A21A9
S11305C0DFF8000900F0C8FC00F09EFB00F09CFB83
S11305D0002301220A21DFF8EC0800F0BDFC641CB2
S11305E0E4B27F2CE5D300F08FFB00F08DFB0123F8
S11305F001220A21DFF8CC0800F0AEFC00F084FBF5
S113060000F082FB002301220A21DFF8B80800F081
S1130610A3FC10BD38B50400012301220021DFF83A
S1130620DC0700F099FC00F06FFB0123012201219B
S1130630DFF8C80700F090FC00F066FB00230122FD
S11306400021DFF8B80700F087FC00F05DFB00250F
S113065002E000F059FB6D1CEDB2322DF9D30822F3
S11306600621012000F0E9FC2070641C0023012213
S11306700121DFF8880700F06FFC00251DE000F081
S113068043FB00F041FB012301220121DFF86C0749
S113069000F062FC00F038FB00F036FB0822062173
S11306A0012000F0CAFC2070641C002301220121F7
S11306B0DFF8480700F050FC6D1CEDB27F2DDED34F
S11306C000F022FB00F020FB012301220121DFF8CE
S11306D02C0700F041FC00F017FB00F015FB002391
S11306E001220121DFF8140700F036FC31BD38B5D2
S11306F00400012301220B21DFF8C80700F02CFCC1
S113070000F002FB012301220A21DFF8B80700F000
S113071023FC00F0F9FA002301220B21DFF8A407DF
S113072000F01AFC00F0F0FA002502E000F0ECFA08
S11307306D1CEDB2322DF9D308220721012000F0FF
S11307407CFC2070641C002301220A21DFF874075A
S113075000F002FC00251DE000F0D6FA00F0D4FA07
S1130760012301220A21DFF85C0700F0F5FB00F009
S1130770CBFA00F0C9FA08220721012000F05DFC41
S11307802070641C002301220A21DFF8380700F0DE
S1130790E3FB6D1CEDB27F2DDED300F0B5FA00F063
S11307A0B3FA012301220A21DFF8180700F0D4FB71
S11307B000F0AAFA00F0A8FA002301220A21DFF8C7
S11307C0040700F0C9FB31BD80B5DFF800178020B5
S11307D000F0A0F8DFF8F8160870DFF8F4060078E7
S11307E019214843802190FBF1F0DFF8E8160870E6
S11307F0DFF8E4060088DFF8DC160978401ADFF831
S1130800DC160880DFF8D406B0F90000DFF8D01653
S1130810B1F90010C84206DADFF8C8060078401EB5
S1130820DFF8C0160870DFF8B806B0F90000DFF88A
S1130830AC16B1F90010884206DADFF8A806007891
S1130840401CDFF8A0160870DFF89806007802282C
S113085003D2DFF8900601210170DFF888060078E2
S1130860142803D3DFF87C061421017001BD80B580
S1130870DFF87416802000F04DF8DFF87016087069
S1130880DFF86806007819214843802190FBF1F0D5
S1130890DFF85C160870DFF840060088DFF85016B1
S11308A00978401ADFF834160880DFF83006B0F90A
S11308B00000DFF82C16B1F90010C84206DADFF8A0
S11308C034060078401EDFF82C160870DFF8100696
S11308D0B0F90000DFF80416B1F90010884206DA16
S11308E0DFF810060078401CDFF808160870DFF8FF
S11308F004060078022803D2DFF8F805012101700C
S1130900DFF8F0050078142803D3DFF8E805142194
S1130910017001BD10B40023002204E00C7853FAE6
S113092084F3491C521CD2B2C0B28242F6D39BB2A9
S1130930C0B293FBF0F0C0B210BC7047DFF8B8054A
S1130940FF210180DFF8B405FF210180DFF8B00545
S113095000210180002000E0401C00B23E2816DA8D
S113096000B24142DFF86425891891F83F1000B2C3
S11309704242DFF85835D21892F83D20891A09B25C
S11309801529E9DBD0F13D00DFF86C150880002063
S113099000E0401C00B23E2813DA00B2DFF82C1548
S11309A0411891F8401000B2DFF82025821892F81F
S11309B04220891A09B21529EBDB4230DFF83C15D5
S11309C00880DFF83405B0F90000FF2814D0DFF800
S11309D02C05B0F90000FF280ED0DFF81C05B0F993
S11309E00000DFF81815B1F900100818022190FB77
S11309F0F1F0DFF80C150880DFF8FC04B0F9000012
S1130A00FF2826D0DFF8F404B0F90000FF2820D135
S1130A10DFF8F004B0F90000FF280AD0DFF8D804AA
S1130A20B0F900008030022190FBF1F0DFF8D0141F
S1130A300880DFF8D004B0F90000FF2809D1DFF8FE
S1130A40B804B0F90000022190FBF1F0DFF8B01413
S1130A500880DFF8A404B0F90000FF2826D1DFF8ED
S1130A609C04B0F90000FF2820D0DFF89C04B0F902
S1130A700000FF2809D0DFF88404B0F90000022147
S1130A8090FBF1F0DFF878140880DFF87C04B0F90B
S1130A900000FF280AD1DFF86404B0F900008030B8
S1130AA0022190FBF1F0DFF858140880DFF84804C5
S1130AB0B0F90000FF284BD1DFF84004B0F9000082
S1130AC0FF2845D1002000E0401C00B27E282DDA2A
S1130AD000B2DFF8F813415C00B2DFF8F0238218AB
S1130AE09278891A09B215290FDB801CDFF80814E3
S1130AF00880DFF80404B0F900008030022190FB84
S1130B00F1F0DFF8FC13088010E009B21429DBDAF5
S1130B10801CDFF8E8130880DFF8E003B0F9000078
S1130B20022190FBF1F0DFF8D8130880DFF8C80346
S1130B30B0F90000FF280BD1DFF8C003B0F90000C2
S1130B40FF2805D1DFF8B803DFF8C0130988018056
S1130B50DFF8B8030088DFF8A8130988401ADFF823
S1130B60B0130880DFF89C03DFF88C130988018038
S1130B70DFF89403DFF8841309880180704730B4E8
S1130B80DFF8902300231380002200E0521C12B2ED
S1130B903E2A13DA12B25342DFF84C431B1993F87E
S1130BA03F3012B25442DFF84053641994F83D4088
S1130BB01B1BDBB2152BE9D3D2F13D01002200E06F
S1130BC0521C12B23E2A11DA12B2DFF81C33D318C7
S1130BD093F8403012B2DFF81043141994F84240ED
S1130BE01B1BDBB2152BEBD312F14200C0B250FA3F
S1130BF081F0022190FBF1F0DFF818130880DFF890
S1130C0018030088DFF80C130988401ADFF80C1366
S1130C10088030BC704780B5DFF8F002B0F90020DE
S1130C2000210A2000F02BFCDFF8CC02B0F90020F0
S1130C3002210A2000F023FCDFF8C002B0F90020F2
S1130C400221462000F01BFC01BD70B50400002603
S1130C502A21DFF8CC0200F060FD4C21DFF8C0024D
S1130C6000F05BFD4421DFF8B80200F056FD0020DF
S1130C7000F01DF8002000F01AF8002000F017F82A
S1130C80002000F014F8002504E0207800F00FF8AC
S1130C90641C6D1CEDB2802DF7D33000C0B200F09F
S1130CA006F82321DFF8780200F037FD70BD10B597
S1130CB00400E4B22009C0B20A2807D210F13001BE
S1130CC0C9B2DFF85C0200F028FD06E010F137013C
S1130CD0C9B2DFF84C0200F020FD14F00F00C0B2DE
S1130CE00A2807D210F13001C9B2DFF8340200F04B
S1130CF014FD06E010F13701C9B2DFF8240200F058
S1130D000CFD10BD0000000081B000208DF8000033
S1130D1006E000BF00BF9DF80000401C8DF80000F5
S1130D209DF800000128F4D301B0704710B50021EC
S1130D30DFF8DC01B0F90000FF283BD0DFF8E40164
S1130D4000F018FDDFF8E0110860DFF8C401008846
S1130D50DFF8D8110988401ADFF8D4110880DFF8C9
S1130D60B001B0F9000000F047FDDFF8BC110968DC
S1130D7000F06AFD0100DFF8BC0100F0D1FD0400C1
S1130D80DFF8AC01B0F9000000F036FDDFF8A8117F
S1130D90096800F059FD0100200000F0C1FD00F0D9
S1130DA033FEDFF898110880DFF88001DFF8601166
S1130DB009880180DFF88401B0F9000041F20D7167
S1130DC0884204DBDFF8740141F20C710180DFF822
S1130DD06C01B0F9000041F20401884204DADFF842
S1130DE05C0141F204010180DFF85001B0F90020F8
S1130DF00221002001F049F810BD000000F10F406D
S1130E00388004404C90044038B5040040F2E24578
S1130E102000DFF82C1101F04BF902D85FF07E546A
S1130E2006E02000DFF81C1101F054F900D2454C13
S1130E302000002101F03CF912D2002301220921F3
S1130E40414800F089F82DB2280000F0D5FC2100BB
S1130E5000F0FAFC00F0D8FD3C4900B2086015E04F
S1130E60012301220921384800F076F894F0004467
S1130E702DB2280000F0C0FC210000F0E5FC00F0D9
S1130E80C3FD2DB200B2281A3049086031BD80B5C7
S1130E902F480068000313D40A2001F02DF92C48D0
S1130EA0006800030CD42B48FF2101702948027804
S1130EB004210A2000F0E3FA254800680003FBD56A
S1130EC001BD000080F00F4000F00F408404FF1FBC
S1130ED0B805FF1FB905FF1F6C04FF1FB405FF1FF2
S1130EE06E04FF1F7004FF1F0405FF1FBA05FF1FD8
S1130EF0BB05FF1F7104FF1F5C04FF1F5E04FF1F7F
S1130F00A205FF1F9C05FF1F9E05FF1FAC05FF1FC9
S1130F10A805FF1FA005FF1FAE05FF1FAA05FF1FA1
S1130F2000D006400000C8416404FF1FB005FF1F45
S1130F30B205FF1F00409C456804FF1F6004FF1FAB
S1130F400100803F000080BF40F00F40109003403C
S1130F5010F00F40C105FF1F70B405001D4EAD1BFE
S1130F6008D0403D08D0403D08D0403D08D0403D29
S1130F7008D009E0184C07E0184C05E0184C03E0D1
S1130F80184C01E0184CFFE74FF4807544F82150E9
S1130F90012A15D1426901248C4022434261012B6C
S1130FA006D10268012313FA01F1114301600EE036
S1130FB00268012313FA01F132EA0101016006E03B
S1130FC04269012313FA01F132EA0101416170BC63
S1130FD07047000000F00F400090044000A004405F
S1130FE000B0044000C0044000D00440002810D1E8
S1130FF06D48006850F000606B4908606B480068F9
S113100030F09000694908606848002101600120BF
S1131010704701280FD16648006850F000606449A9
S113102008606248006830F41040604908605F4816
S113103000210160EBE70020EAE738B50500002451
S1131040D2B2280000F01EF8002D0CD159480068D7
S11310500006FBD5584804685648006830F0800004
S1131060544908600BE0554800680006FBD5544815
S113107004685248006830F080005049086020003D
S113108080B232BD10B50C000021D2B2082A06D0BD
S11310900A2A08D00C2A04D0102A06D007E000211E
S11310A006E0012104E0022102E0032100E0002126
S11310B0890011F00C0151F05001424A117041496C
S11310C004224A703F4941F234224A803D4945F2A4
S11310D078628A8000282AD1042C0BDA14F01F00CD
S11310E050F04000374908723649324800F048F859
S11310F0012010BD201F14280AD214F01F0050F044
S11311004000304908722F492A4800F039F8EFE7C7
S11311101A2C0AD114F01F0050F04000294908721B
S11311202849244800F02CF8E2E70020E1E7042CE9
S113113009DA14F01F0050F04000224908722149D6
S11311401C4800F01DF8201F14280AD214F01F00B8
S113115050F040001B4908721A49184800F010F872
S1131160C6E71A2C0AD114F01F0050F040001549AC
S113117008721449114800F003F8B9E70020B8E7F1
S11311800A7882604A78C2604A8882618A88C26129
S11311908A790262CA794262CA6802650A7A02607E
S11311A0497A4160704700003C8004401880044044
S11311B03080044000B0034010B0034000B00B4046
S11311C010B00B407404FF1F0821DFF87823126865
S11311D052F40032DFF86C331A6000BFDFF8642386
S11311E0126832F48042DFF85C331A6000BF19E001
S11311F0DFF85023126832F40042DFF848331A60F3
S1131200DFF84023126852F48042DFF838331A6062
S113121000BFDFF83023126832F48042DFF8243351
S11312201A6040000A00511ED2B2002A0AD00206F7
S1131230DED5DFF81023126852F40042DFF80433DD
S11312401A60DDE7704700000821DFF8F822126811
S113125032F40032DFF8EC321A60DFF8E822126868
S113126032F48042DFF8DC321A6019E0DFF8D4226D
S1131270126832F40042DFF8CC321A60DFF8C4227C
S1131280126852F48042DFF8BC321A6000BFDFF803
S1131290B422126832F48042DFF8A8321A604000A7
S11312A00A00511ED2B2002A0AD00206DED5DFF8A7
S11312B09422126852F40042DFF888321A60DDE7A3
S11312C0704710B50400B1F15000C0B2FFF7BCFF85
S11312D0E4B2200950F01000C0B2FFF7B5FF14F0DB
S11312E00F0050F00100C0B2FFF7AEFF10BD70B5A3
S11312F00400002508E02000C0B2FFF765FF761C5B
S1131300F6B2802EF7D36D1CEDB2082D0CD2B5F1D8
S11313105000C0B2FFF798FF0120FFF795FF10209F
S1131320FFF792FF0026EBE770BD07E043F226418A
S11313300A00511E92B2002AFAD1401E80B200283F
S1131340F4D1704780B5DFF800024FF4807101607A
S1131350DFF8F8014FF480710160DFF8F4014FF415
S113136080710160DFF8EC014FF480710160DFF8F7
S1131370E8015FF470310160DFF8C801006850F4DF
S11313808040DFF8C0110860DFF8B801006830F46D
S11313908030DFF8B01108603220FFF7C6FFDFF8B5
S11313A0A401006850F48030DFF898110860AE2082
S11313B0FFF74AFF0020FFF747FF1020FFF744FF25
S11313C04020FFF741FF8120FFF73EFFCF20FFF7CA
S11313D03BFFA120FFF738FFC820FFF735FFA62009
S11313E0FFF732FFA820FFF72FFF3F20FFF72CFF66
S11313F0D320FFF729FF0020FFF726FFD520FFF7B2
S113140023FF8020FFF720FFD920FFF71DFFF120E5
S1131410FFF71AFFDA20FFF717FF1220FFF714FF78
S1131420DB20FFF711FF4020FFF70EFF2020FFF71E
S11314300BFF0220FFF708FF8D20FFF705FF1420A4
S1131440FFF702FFA420FFF7FFFEA620FFF7FCFE34
S1131450AF20FFF7F9FE0020FFF749FF002100202D
S1131460FFF72FFFFF20FFF742FF642000F044FE48
S11314700020FFF73CFF642000F03EFE01BD2DE993
S1131480FC4104000D00002600275FF000086420E2
S113149092FBF0F08DF80000642092FBF0F100FB69
S11314A011200A2190FBF1F08DF801000A2092FB33
S11314B0F0F100FB11208DF802000020804610E0BE
S11314C0F6B2300150FA87F0DFF890104018007A35
S11314D0FFF77AFE7F1CFFB2082FF1D3083418F10E
S11314E001085FFA88F8B8F1030F28D25FFA88F888
S11314F000A818F8000010F11006E4B2792C01D30A
S113150000246D1C2900C9B22000C0B2FFF7D9FE27
S1131510002709E0F6B2300150FA87F0DFF83C10FA
S1131520405CFFF751FE7F1CFFB2082FF2D3691C09
S1131530C9B22000C0B2FFF7C4FE0027CBE7BDE864
S1131540F381000000F00F40389004403C900440C8
S1131550409004404490044014F00F4040210000A7
S113156030B4DFF8C03198420AD1DFF8BC314FF40F
S113157040741C60DFF8B4314FF440741C6049E0DF
S1131580DFF8AC3198420AD1DFF8A8314FF4407447
S11315901C60DFF8A4314FF440741C603AE0DFF8BB
S11315A09C3198420AD1DFF898314FF440741C60A2
S11315B0DFF890314FF440741C602BE0DFF8883181
S11315C098420AD1DFF884314FF440741C60DFF88C
S11315D080314FF440741C601CE0DFF8783198428D
S11315E00AD1DFF874314FF440741C60DFF86C31B9
S11315F04FF440741C600DE0DFF86431984209D167
S1131600DFF860314FF440741C60DFF85C314FF454
S113161040741C60DFF80C31984208D1DFF84C317B
S11316201B6853F48063DFF8444123603BE0DFF838
S11316300031984208D1DFF834311B6853F4006359
S1131640DFF8284123602EE0DFF8F030984208D11B
S1131650DFF818311B6853F48053DFF8104123601E
S113166021E0DFF8E430984208D1DFF800311B684C
S113167053F40053DFF8F440236014E0DFF8D4306F
S1131680984208D1DFF8E8301B6853F48063DFF830
S1131690E040236007E0DFF8D8301B6853F40063B0
S11316A0DFF8CC402360C37813F0F303C370002346
S11316B083701C4B984208D000231D4CA04204D0D8
S11316C053F00003DBB2002B00D049184FF47A73B7
S11316D003FB01F31401B3FBF4F3047814F0E00406
S11316E09BB21D0A15F01F052C43047043704FF480
S11316F0FA4461431201B1FBF2F19BB2B1EB431125
S1131700827A12F0E00411F01F0121438172C17842
S113171051F00C01C17030BC704702791206FCD53F
S1131720C171704700A0064018C004401CC00440AA
S113173000B0064010B004400CB0044000C00640A5
S11317400CC0044008C0044000D0064044B004402B
S113175040B0044000A00E4060D0044064D0044077
S113176000B00E4020D0044024D004403480044013
S11317702880044090EA010F44BF81F0004100F04A
S1131780D7B800BF421A3CBF801A89184FF0004CEA
S1131790C0F3C752FF2A24D0C1F3C75313B3D21ADC
S11317A0D2F1190327DD4CEA01214CFA03F321EAB3
S11317B00303D140C20D4CEA0020401834BF20EA94
S11317C00C004CEA5000D20553EA006373EB0C0C96
S11317D052EB1020420012F1807F38BF7047C00DD9
S11317E0C0057047490212BF9A4200EB5120F8E746
S11317F0D2F11703D9D57047002840F10780F44689
S1131800404200F003F850F0004060470AD0B0FABC
S113181080F18840D1F19D01C905020672F10042B0
S113182041EB1020704750F8041B61B150F8042BB1
S1131830D30744BFA9F101039A18002342F8043BDB
S1131840091FFAD1EFE77047FF2212EAD05C1DBFEF
S113185012EAD153944593422BE09C44D30780EA87
S113186001021A4043EA002043EA0121A1FB0030AF
S1131870410038BF40007CF17F010BDBFE294ADACE
S11318805B0842EAC15153EA006373F1004C51EB27
S113189010207047D1F1080CDCF120012FDB5B082C
S11318A010FA01F10B4373F1004120FA0CF050419E
S11318B0704794451CBF02EAD153934280EA010267
S11318C002F000421DD0400019D0490017D05BB986
S11318D0634514D00902B1FA81F39940BCEB030CBF
S11318E0C00140F00040C1E70002B0FA80FC10FAE9
S11318F00CF0B3EB0C0CC90141F00041B6E7100049
S1131900704740000AD0490008D010F1807F94BF8E
S113191011F1807F02E042F0FF407047D0437047EE
S113192090EA010F44BF81F00041FFF72BBF00BFD5
S1131930431A4FF000423EBF5340C01AC91800BFBB
S1131940D3095FEAD05C13EB400F34BFB3EB410F14
S113195040E07CEBD1530CD342EA012122D8D1EBF5
S1131960402009D3400A28BF5FEA500140EBCC5025
S11319707047401A15D04002B0FA80F2521C9040D1
S1131980400A4FEA3C23B3EB026384BF00EB7300CD
S113199007E040F400001A16DB07C2F10102D04050
S11319A018437047182BFCDC31FA03F202FA03F3F4
S11319B0591A38BF42F00102D2EB40203CBF40002C
S11319C0ACF1010C5FEACC5CC20572F100414CEB56
S11319D05020704713EB400F0FD24B0009D0ACEBF3
S11319E0D153022B03DB4902172BDDDD70479143F2
S11319F0401A4300D5D10020704713EB410FD0D3D8
S1131A006FF00000704770474100090E7F3915D40C
S1131A10D1F11F0114D4400007D2C00140F00040AE
S1131A20C84048BF6FF000407047C00140F000401C
S1131A30C8404CBF4FF00040404270470020704700
S1131A4000424FF0004058BFC043704730B40023F9
S1131A50DFF8C02512684FF47A7462438A4201D2D7
S1131A6000209EE0802303FB01F3B2FBF3F44FF666
S1131A70FF739C4280F017810723C0B2002840F016
S1131A809280DFF894552C60402404FB01F4B2FBEF
S1131A90F4F44FF6FF75AC4260D20623C0B20028BE
S1131AA040F09180DFF870552C604C01B2FBF4F4E7
S1131AB04FF6FF75AC4251D20523C0B2002840F066
S1131AC09280DFF854552C600C01B2FBF4F44FF60D
S1131AD0FF75AC4242D20423C0B2002840F0938088
S1131AE0DFF834552C60CC00B2FBF4F44FF6FF75EC
S1131AF0AC4233D20323C0B2002840F09480DFF814
S1131B0018552C608C00B2FBF4F44FF6FF75AC4210
S1131B1024D20223C0B2002840F09580DFF8F854A4
S1131B202C604C00B2FBF4F44FF6FF75AC4215D2B6
S1131B300123C0B2002840F09680DFF8DC542C600A
S1131B40B2FBF1F44FF6FF718C4207D20023C0B20E
S1131B50002840F09880DFF8C0140C60C0B2002860
S1131B6040F0A380DFF8B404006850F08070DFF820
S1131B70AC140860DBB213F0070050F00800DFF883
S1131B80A0140860DFF89C0400210160DFF89804C9
S1131B9000210160DFF89404DFF87C140968016017
S1131BA0012030BC7047C0B2012803D1DFF8805453
S1131BB02C6069E7C0B2022803D1DFF878542C60A6
S1131BC062E70020EDE7C0B2012803D1DFF86054DA
S1131BD02C606AE7C0B2022803D1DFF858542C60A5
S1131BE063E70020DDE7C0B2012803D1DFF84054E9
S1131BF02C6069E7C0B2022803D1DFF838542C60A6
S1131C0062E70020CDE7C0B2012803D1DFF82054F9
S1131C102C6068E7C0B2022803D1DFF818542C60A6
S1131C2061E70020BDE7C0B2012803D1DFF800540A
S1131C302C6067E7C0B2022803D1DFF8F8532C60A8
S1131C4060E70020ADE7C0B2012803D1DFF8E0531C
S1131C502C6066E7C0B2022803D1DFF8D8532C60A9
S1131C605FE700209DE7C0B2012803D1DFF8C0532D
S1131C702C6065E7C0B2022803D1DFF8B8532C60AA
S1131C805EE700208DE7C0B2012803D1DFF8A0137E
S1131C900C6063E7C0B2022803D1DFF898130C602C
S1131CA05CE700207DE700207BE7C0B201281ED15D
S1131CB0DFF86803006850F00070DFF86013086014
S1131CC0DBB213F0070050F00800DFF86C13086073
S1131CD0DFF8680300210160DFF86403002101607C
S1131CE0DFF86003DFF848130968016058E7C0B201
S1131CF002281ED1DFF85003006850F08070DFF82E
S1131D0048130860DBB213F0070050F00800DFF856
S1131D103C130860DFF8380300210160DFF8340366
S1131D2000210160DFF83003DFF80813096801605F
S1131D3036E7002035E718B442F211739A4201D312
S1131D40002061E0C0B2002860D1B34B1B6800934F
S1131D50009B5B1C5A4342F21073B2FBF3F2C0B215
S1131D60002824D1C9B20B00002B022B05D9DB1E9D
S1131D7068D05B1E032B75D981E0B84B1B684FF408
S1131D8000742343B54C2360C9B28B0003F1804334
S1131D9013F592234FF44074DC60C9B2B04B28248D
S1131DA043F83140C9B2AE4B13EBC1035A60C0B221
S1131DB0012818D1C9B2002963D1A84B1B6853F478
S1131DC08063A64C2360C9B2A64B4FF4407443F819
S1131DD02140C9B2A44B282443F83140C9B2A24BD4
S1131DE013EBC1035A60C0B202280CD1C9B2002956
S1131DF049D1C9B29D48282340F83130C9B29B4823
S1131E0010EBC1004260012012BC7047C0B201282F
S1131E1009D1009B864C2468A34201D1012300E030
S1131E200023DBB294E7C0B2022809D1009B814CA5
S1131E302468A34201D1012300E00023DBB287E739
S1131E400020E1E7854B1B6853F40063834C236057
S1131E50C9B28B0003F1804313F596234FF48064D9
S1131E605C609AE77D4B1B6853F480537B4C236082
S1131E70C9B27F4B4FF4806443F821408DE70020C2
S1131E80C2E70020C0E70020BEE718B442F2117395
S1131E909A4201D3002019E0C0B2002818D15E4B49
S1131EA01B680093009B5B1C5A4342F21073B2FB05
S1131EB0F3F2C0B200282FD1C9B2002903D00229FD
S1131EC025D021D326E06B480260012012BC704764
S1131ED0C0B2012809D1009B554C2468A34201D10A
S1131EE0012300E00023DBB2DCE7C0B2022809D101
S1131EF0009B504C2468A34201D1012300E000233D
S1131F00DBB2CFE70020E1E75B480260DDE75B4836
S1131F100260DAE70020D9E7C0B2012805D1C9B2CE
S1131F20514810EBC1004260CFE7C0B2022805D18E
S1131F30C9B24E4810EBC1004260C6E70020C5E7B5
S1131F4080B5002301220A214D48FFF705F800233C
S1131F50012209214A48FEF7FFFF4048006850F477
S1131F6000603E4908603F484FF4507101602B48BF
S1131F70006850F00070294908603B48006850F040
S1131F800800394908603848006830F004003649D0
S1131F9008603548006850F020003349086026483E
S1131FA0292101603748006850F004003549086071
S1131FB03448006840084000324908603248FC2137
S1131FC0016032480021016031480021016031483C
S1131FD00021016030480021016030480068400859
S1131FE040002E4908602E48002101602D48002140
S1131FF001602D4800210160114800210160114851
S113200040F2E24101602948002101600B480021AF
S1132010016001BD9805FF1F8405FF1F3C8004403B
S113202000800340048003404C8003400880034048
S11320308805FF1F8C05FF1F009003400490034098
S11320404C900340089003403080044000800B40D3
S113205004800B404C800B4008800B4038800440C7
S11320600C80034000A004400C9003400C800B4003
S113207000C00440108003401880034020800340C7
S113208040F00F405490034060900340649003403C
S11320905C9003406C900340709003408090034038
S11320A09090034094900340989003401090034014
S11320B04FF0807C1CEB400F94BF1CEB410F05E0FC
S11320C040EA010C5FEA4C0C01D28142704718BF10
S11320D0884270474FF0807C1CEB400F94BF1CEB90
S11320E0410F05E040EA010C5FEA4C0C01D2884242
S11320F0704718BF814270470D49096851F00101CA
S11321000B4A11600B4908600B48052101600B481C
S1132110006850F00100094908600848006800069A
S1132120FBD5064800684008400004490860704731
S113213038800440080004400400044000000440C7
S1132140000000000000000000000000000000008B
S1132150000000F800000000000000333000000020
S113216000100C06100C0600000000000000000027
S113217040C07840C0784000043F04043F04040099
S1132180007088FC08300000001820FF211E0000A9
S1132190F008F000E018000000211C031E211E00BE
S11321A000F00888700000001E2123241927211044
S11321B010160E00000000000000000000000000E7
S11321C0000000E01804020000000007182040008E
S11321D000020418E000000000402018070000007E
S11321E0404080F0804040000202010F01020200E2
S11321F0000000F0000000000101011F01010100C6
S1132200000000000000000080B07000000000002A
S113221000000000000000000001010101010101B3
S1132220000000000000000000303000000000004A
S1132230000000008060180400601806010000001F
S113224000E010080810E000000F102020100F001C
S1132250001010F8000000000020203F20200000A3
S113226000700808088870000030282422213000FB
S113227000300888884830000018202020110E0003
S11322800000C02010F8000000070424243F2400AC
S113229000F80888880808000019212020110E0081
S11322A000E0108888180000000F112020110E0093
S11322B000380808C83808000000003F000000008B
S11322C00070880808887000001C222121221C004C
S11322D000E010080810E0000000312222110F0075
S11322E0000000C0C000000000000030300000000A
S11322F0000000800000000000008060000000007A
S11323000000804020100800000102040810200092
S113231040404040404040000404040404040400DD
S11323200008102040800000002010080402010072
S1132330007048080808F000000000303601000072
S1132340C030C828E810E0000718272423140B0025
S11323500000C038E0000000203C2302022738209F
S113236008F8888888700000203F202020110E0083
S1132370C03008080808380007182020201008007A
S113238008F808080810E000203F202020100F0063
S113239008F88888E8081000203F2020232018002F
S11323A008F88888E8081000203F20000300000097
S11323B0C03008080838000007182020221E020038
S11323C008F808000008F808203F210101213F20F7
S11323D0000808F8080800000020203F2020000022
S11323E000000808F8080800C08080807F00000012
S11323F008F888C028180800203F2001263820004B
S113240008F8080000000000203F202020203000B1
S113241008F8F800F8F80800203F003F003F2000CB
S113242008F830C00008F808203F200007183F00D3
S1132430E01008080810E0000F10202020100F0002
S113244008F808080808F000203F210101010000F5
S1132450E01008080810E0000F18242438504F003A
S113246008F8888888887000203F2000030C3020FA
S113247000708808080838000038202121221C0038
S1132480180808F8080818000000203F2000000081
S113249008F808000008F808001F202020201F006A
S11324A00878880000C83808000007380E010000CA
S11324B0F80800F80008F800033C0700073C030094
S11324C0081868808068180820302C03032C3020FA
S11324D00838C800C83808000000203F2000000069
S11324E010080808C83808002038262120201800C1
S11324F0000000FE020202000000007F4040400095
S1132500000C30C000000000000000010638C000CC
S113251000020202FE000000004040407F00000074
S11325200000040202020400000000000000000099
S11325300000000000000000808080808080808097
S1132540000202040000000000000000000000007F
S113255000008080808000000019242222223F2075
S113256008F8008080000000003F112020110E00B8
S11325700000008080800000000E11202020110047
S1132580000000808088F800000E112020103F20F9
S11325900000808080800000001F2222222213007D
S11325A0008080F0888888180020203F20200000C8
S11325B00000808080808000006B9494949360007D
S11325C008F8008080800000203F210000203F2088
S11325D000809898000000000020203F2020000088
S11325E0000000809898000000C08080807F000078
S11325F008F8000080808000203F24022D30200055
S1132600000808F8000000000020203F20200000FF
S11326108080808080808000203F20003F20003F19
S11326208080008080800000203F210000203F2027
S11326300000808080800000001F202020201F00D8
S1132640808000808000000080FFA12020110E0007
S11326500000008080808000000E112020A0FF80F8
S1132660808080008080800020203F2120000100A5
S113267000008080808080000033242424241900FA
S1132680008080E0808000000000001F2020000007
S11326908080000000808000001F202020103F2048
S11326A0808080000080808000010E3008060100D8
S11326B080800080008080800F300C030C300F007D
S11326C000808000808080000020312E0E312000A8
S11326D0808080000080808080818E7018060100D8
S11326E000808080808080000021302C22213000F6
S11326F000000000807C020200000000003F404017
S113270000000000FF00000000000000FF000000C7
S11327100002027C800000000040403F00000000F6
S11327200006010102020404000000000000000091
S1132730DFF800F01104FF1F80B57348006850F4FF
S11327407850714908601021052000F02FF86F4976
S113275008606E4800684FF47A7148436C49086019
S11327606B4800686B490968C1F30361491CB0FBFD
S1132770F1F06949086000F003F800F00CF801BDBD
S11327806648006850F480506449086064484FF417
S1132790E061016070476348006850F001006149DE
S11327A0086061484FF4A0610160704780B50A0079
S11327B0C0B2092801D30020A4E0D2B2112A01D367
S11327C001209FE0594A00231370594A126852F0BD
S11327D08052574B1A60574A127852F08002554B78
S11327E01A70554A98231370544A1278D206FBD4AF
S11327F0524A1278C2F38102D2B2022AF8D1504A64
S11328000E2313704F4A00231370C0B200280BD05C
S113281002281FD013D3042832D026D3062845D04B
S113282039D307284DD056E001230022002100208F
S1132830FFF77EFF43484121017032214BE003231F
S1132840012201210020FFF773FF3E485A21017045
S1132850642140E00323012201210020FFF768FFE7
S1132860384858210170782135E0012300220021E5
S11328700020FFF75DFF33484021017030212AE03A
S11328800523022202210020FFF752FF2D484F2189
S1132890017096211FE00723022202210020FFF786
S11328A047FF28485E210170B42114E00723022267
S11328B002210020FFF73CFF22485E210170CF2156
S11328C009E00823022202210020FFF731FF1D48FE
S11328D05E210170E121194800788006FBD5174874
S11328E000784006FBD51448007810F03F00124AE7
S11328F0107012480078C0F38100C0B20328F8D1E8
S11329000800C0B202BD0000388004409405FF1FD7
S11329109005FF1F448004409805FF1F0480044075
S113292018900440408004400CB00440014006402C
S11329303480044008C0074000400640064006407A
S1132940044006400540064038B5002400255D4992
S1132950002003E000220A70491C401CC0B28A28EF
S1132960F8D35949002003E000220A70491C401C96
S1132970C0B28A28F8D300F079F8544800210180C5
S1132980534800780128F8D1514800210170FDF71F
S1132990D5FF504800885049098808184D490880D7
S11329A0641C2000C0B2052803D300244548FEF768
S11329B04CF96D1C280000B20A28DEDB00254548CE
S11329C0B0F900000A2190FBF1F044490880444822
S11329D0B0F900000A2190FBF1F0424908803F4819
S11329E0B0F9002000210A20FEF749FD3E48B0F965
S11329F0002002210A20FEF742FD3C48B0F90020E5
S1132A0002214620FEF73BFD324800210180344874
S1132A1000210180FEF73BFA354800780028ACD04D
S1132A202A48012101802A4800780128F8D1284841
S1132A3000210170FDF782FFFEF7A1F82D48007810
S1132A40401C2C4908702B480078052804D12948DB
S1132A5000210170FEF7DFF8641C2000C0B20528D5
S1132A60DED300241748FEF7F0F8D9E780B572B634
S1132A705FF4E132204801682048FEF771FD4FF40D
S1132A8096710020FEF7E2FF41F288320221002015
S1132A90FFF751F94FF47A710120FEF7D7FFFFF7E2
S1132AA04FFAFDF7D3FCFEF74DFCFDF7F0FC4EF6B4
S1132AB06021002000F024F8002000F050F862B6F5
S1132AC001BD00008404FF1F0405FF1FB605FF1F9E
S1132AD0BE05FF1FA405FF1FA205FF1FAC05FF1FB6
S1132AE0A605FF1FAE05FF1F5C04FF1F5E04FF1F4A
S1132AF0C105FF1FC205FF1F9805FF1F00D0064038
S1132B002A4A126852F40002284B1A60284A1268B2
S1132B1032F00202264B1A60254A126852F0010272
S1132B20234B1A60C0B20201224BD150C0B22149DA
S1132B3011EB0011896851F00101C0B21D4A12EB7A
S1132B4000129160C0B21B4911EB0011896831F089
S1132B500201C0B2174A12EB00108160704780B5C1
S1132B60C0B2144911EB0011896851F00201C0B2DE
S1132B70104A12EB00129160C0B2002805D002285E
S1132B800BD006D303280CD00EE0442000F017F835
S1132B900AE0452000F013F806E0462000F00FF8A4
S1132BA002E0472000F00BF801BD00003C80044027
S1132BB000700340007103402549086070475C2899
S1132BC000DB5B20202190FBF1F1002903D00229D6
S1132BD029D014D33AE00121202290FBF2F303FB25
S1132BE0120399401B4A11600121202290FBF2F349
S1132BF003FB120311FA03F01749086026E00121D0
S1132C00202290FBF2F303FB12039940134A116054
S1132C100121202290FBF2F303FB120311FA03F0CB
S1132C200F49086012E00121202290FBF2F303FB1C
S1132C30120399400B4A11600121202290FBF2F308
S1132C4003FB120311FA03F0074908607047000000
S1132C5008ED00E080E200E000E100E084E200E052
S1132C6004E100E088E200E008E100E080B572B62B
S1132C7034480078D0F114003349087032480078A1
S1132C80022807D33048007830490978884201D1B6
S1132C90FDF714FC2E480078D0F114002D4908707B
S1132CA02C480078022807D32A4800782749097855
S1132CB0884201D1FDF758FC24480078401C234980
S1132CC008702248007814280FD32048002101708E
S1132CD02148FDF79FFCFDF777FD2048FDF707FD30
S1132CE0FDF7C5FD1E48012101701E480078401CF7
S1132CF01C4908701B480078012807D017D3032803
S1132D0006D004D305280FD00BD310E00FE00EE05B
S1132D101548B0F90000012802D11448FEF774F8F0
S1132D2005E0FEF703F802E00E48002101701048A8
S1132D30006850F001000E4908600020FFF70FFF03
S1132D4062B601BD7004FF1FBF05FF1FBD05FF1F55
S1132D507104FF1FC005FF1F8404FF1F0405FF1F2C
S1132D60BE05FF1FBC05FF1FB605FF1FCDCC4C3EA3
S1132D700C71034080B500F055F800F005F8FFF73A
S1132D80DBFCFFF7E1FD01BD80B51C481C4988420E
S1132D900BD0002006E01949194A52F8202041F8C6
S1132DA02020401CB0F5826FF5D31448FFF704FFD0
S1132DB01449154A1548801A03E013780B70521C05
S1132DC0491C0300581E002BF7D111491148401A21
S1132DD002E000220A70491C0200501E002AF8D1A9
S1132DE00D490E4A0E48801A03E013780B70521CEA
S1132DF0491C0300581E002BF7D101BD0000FF1F22
S1132E00000000005C04FF1F242F00003C2F000082
S1132E107404FF1FC305FF1F1004FF1F5C2E000076
S1132E20A82E000080B500F009F80A4800884FF683
S1132E30FE7108400749088001BD000072B60648CB
S1132E404CF22051018004484DF62811018062B6ED
S1132E5070470000002005400E20054070B4104C5F
S1132E6024680F4D2D6855F47F050D4E3560090615
S1132E7011F0706151EA0070110511F470010843FA
S1132E80190411F47021084306490860002000E089
S1132E90401CC0B29842FBD30148046070BC704728
S1132EA000F001404480044010B5084979441C31C5
S1132EB0074C7C441A34A14206D0081D0A685118F4
S1132EC088470146A142F8D110BD00BF08000000A8
S1132ED01400000053E9FFFF500100007404FF1FB9
S1132EE00000000000F009F8002801D0FFF7DCFF23
S1132EF00020FFF729FD00F002F80120704700F0E0
S1132F0001B800000746384600F002F8FBE700006D
S1132F1080B5C046C046024A11001820ABBEFBE78C
S1132F2026000200FF00FF0088130000000040405C
S1132F30000070411E0002000A0A0000C046C0469C
S10B2F40C046C046FFF7CEFFB6
S9032F3D90
