S01D000050686F746F656C6563747269634361722056312E322E7372656395
S1130000F8FF002011040000DF190000DF190000D0
S1130010DF190000DF190000DF190000DF190000FC
S1130020DF190000DF190000DF190000DF190000EC
S1130030DF190000DF190000DF190000DF190000DC
S1130040DF190000DF190000DF190000DF190000CC
S1130050DF190000DF190000DF190000DF190000BC
S1130060DF190000DF190000DF190000DF190000AC
S1130070DF190000DF190000DF190000DF1900009C
S1130080DF190000DF190000DF190000DF1900008C
S1130090DF190000DF190000DF190000DF1900007C
S11300A0DF190000DF190000DF190000DF1900006C
S11300B0DF190000DF190000DF190000DF1900005C
S11300C0DF190000DF190000DF190000DF1900004C
S11300D0DF190000DF190000DF190000DF1900003C
S11300E0DF190000DF190000DF190000DF1900002C
S11300F0DF190000DF190000DF190000DF1900001C
S1130100DF190000DF190000DF190000DF1900000B
S1130110DF190000DF190000DF190000DF190000FB
S1130120DF190000DF190000DF190000DF190000EB
S1130130DF190000DF190000DF190000DF190000DB
S1130140DF190000DF190000DF190000DF190000CB
S1130150993C0000DF190000DF190000DF190000DE
S1130160DF190000DF190000DF190000DF190000AB
S1130170DF190000DF190000DF190000DF1900009B
S1130180DF190000DF190000DF190000DF1900008B
S1130190DF190000DF190000DF190000DF1900007B
S1130400FFFFFFFFFFFFFFFFFFFFFFFFFEFFFFFFF9
S11304104FF000004FF000014FF000024FF00003D6
S11304204FF000044FF000054FF000064FF00007B6
S11304304FF000084FF000094FF0000A4FF0000B96
S11304404FF0000C62B603F0C7FCFEE780B5012351
S113045001220021DFF8F40800F0B4FD0123012299
S11304600121DFF8E80800F0ADFD012301220A2193
S1130470DFF8AC0A00F0A6FD012301220B21DFF80E
S1130480A00A00F09FFD012000F0FEFD01BD10B5A3
S1130490012301220021DFF8B40800F093FD00F0ED
S11304A057FC012301220121DFF8A00800F08AFD96
S11304B000F04EFC002301220021DFF8900800F038
S11304C081FD00F045FC002301220121DFF87C08B6
S11304D000F078FD002416E000F03AFC00F038FC4F
S11304E0012301220121DFF8640800F06BFD00F014
S11304F02FFC00F02DFC002301220121DFF84C0821
S113050000F060FD641CE4B27F2CE5D300F020FC15
S113051000F01EFC012301220121DFF8300800F065
S113052051FD00F015FC00F013FC00230122012111
S1130530DFF8180800F046FD10BD38B504000123AB
S113054001220021DFF8040800F03CFD00F000FC6B
S1130550012301220121DFF8F40700F033FD00F04C
S1130560F7FB002301220021DFF8E00700F02AFD59
S113057000F0EEFB002502E000F0EAFB6D1CEDB29A
S1130580322DF9D308220621012000F0A4FD2070A9
S1130590641C002301220121DFF8B00700F012FDE2
S11305A000251DE000F0D4FB00F0D2FB0123012262
S11305B00121DFF8980700F005FD00F0C9FB00F009
S11305C0C7FB08220621012000F085FD2070641C71
S11305D0002301220121DFF8740700F0F3FC6D1CF5
S11305E0EDB27F2DDED300F0B3FB00F0B1FB0123AD
S11305F001220121DFF8540700F0E4FC00F0A8FB1D
S113060000F0A6FB002301220121DFF8400700F0DF
S1130610D9FC31BD80B5DFF80C19802000F04DF80D
S1130620DFF804190870DFF800090078192148433D
S1130630802190FBF1F0DFF8F4180870DFF8F0087F
S11306400088DFF8E8180978401ADFF8E81808800D
S1130650DFF8E008B0F90000DFF8DC18B1F90010A9
S1130660C84206DADFF8DC080078401EDFF8D41848
S11306700870DFF8C408B0F90000DFF8B818B1F961
S11306800010884206DADFF8BC080078401CDFF866
S1130690B4180870DFF8AC080078022803D2DFF839
S11306A0A40801210170DFF89C080078142803D302
S11306B0DFF890081421017001BD10B4002300225A
S11306C004E00C7853FA84F3491C521CD2B2C0B231
S11306D08242F6D39BB2C0B293FBF0F0C0B210BC1E
S11306E07047002801D54042FFE77047F8B5040081
S11306F00025002600270020DFF828184978DFF8B5
S11307003C281180DFF81C184978DFF83428118060
S1130710012113E0C9B2DFF80C08085CDFF82028D7
S1130720B2F9002000B2904207DA0800C9B2DFF83B
S1130730F4278A5CDFF808381A80491CC9B27F297B
S113074013D2DFF8F807B0F90000C9B2DFF8D427F4
S11307508A5C12B29042DDDA0F00C9B2DFF8C40736
S1130760085CDFF8D8271080E7E7DFF8D007B0F996
S11307700000FFB2DFF8AC17791811F8021C401A18
S11307800B2832DBDFF8B407B0F90000FFB2DFF862
S1130790941779188978401A0B2826DBFFB2DFF802
S11307A08407381810F8020CFFB2DFF878177918AC
S11307B08978401AFFF795FF0A2816DAFFB2DFF8A6
S11307C06407381810F8020CFFB2DFF858177918CC
S11307D089780818FFB2DFF84C177854FFB2DFF8B5
S11307E04407385CDFF854170880DFF85007B0F985
S11307F00000DFF84C17B1F900100818022190FB33
S1130800F1F0DFF84417088000210CE0DFF83C0722
S11308100088C9B2DFF80C278A5C8018DFF82C271F
S11308201080761C491CC9B27F2917D2C9B2DFF8DF
S1130830F406085CDFF81027B2F9002000B29042F9
S1130840E4DBDFF80C070088C9B2DFF8D8268A5C3D
S11308508018DFF8FC2610806D1CE3E7DFF8F00653
S1130860B0F90000EDB290FBF5F0DFF8E416088073
S1130870DFF8D806B0F90000F6B290FBF6F0DFF826
S1130880CC160880DFF8C806B0F90000DFF8BC1603
S1130890B1F900100818022190FBF1F0DFF8A81656
S11308A00880DFF8AC06B0F9002004210A2000F02B
S11308B050FEDFF89806B0F900200421462000F02D
S11308C048FE002103E000202070641C491CC9B2CA
S11308D080290AD22078DFF87026B2F9002000B20D
S11308E09042F0DB01202070EFE7032034E0C0B237
S11308F0DFF83016415C002913D1C0B2DFF82416AA
S1130900411811F8011C01290BD1C0B2DFF81416EB
S113091041184978012904D1C0B2DFF80816012230
S11309204254C0B2DFF8FC15415C012913D1C0B2B6
S1130930DFF8F015411811F8011C00290BD1C0B2E1
S1130940DFF8E01541184978002904D1C0B2DFF876
S1130950D41500224254401CC0B27D28C7D3F1BD37
S113096010B47E2101E00022491E09B2042922DBD1
S113097009B2DFF8B0258A5C012AF4D109B2DFF8A4
S1130980A4258A1812F8012C002AECD109B2DFF848
S113099094258A1812F8022C002AE4D109B2DFF84F
S11309A084258A1812F8032C002ADCD18A1EDFF869
S11309B0A4351A800122012301E000205B1C1BB234
S11309C07B2B1FDA1BB2DFF85C05185C0128F4D11D
S11309D01BB2DFF85005181840780028EDD11BB27F
S11309E0DFF84005181880780028E6D11BB2DFF83C
S11309F034051818C0780028DFD1981CDFF8584552
S1130A002080012012B2012A5AD100B2012857D104
S1130A10DFF83C05B0F90000DFF83025B2F900201A
S1130A20801A2E283FDBDFF83005B0F90000DFF82C
S1130A302425B2F90020904280F2DD80DFF81C0505
S1130A40B0F90000DFF81025B2F90020801A1F2841
S1130A500EDB881EDFF8FC140880DFF8F804008839
S1130A60DFF8FC1409880818DFF8EC140880C2E0E9
S1130A70DFF8E004B0F90000DFF8E814B1F9001081
S1130A80401A1F28C0F2B780981CDFF8CC140880E5
S1130A90DFF8C4040088DFF8C8140988401ADFF8B6
S1130AA0B4140880A7E0DFF8AC04DFF8B8140988B0
S1130AB00180DFF8A404DFF8A414098801809AE017
S1130AC012B2012A37D100B2002834D1DFF88004F1
S1130AD0B0F90000DFF87414B1F90010401A2E28A0
S1130AE01CDBDFF87004B0F900003C280BDBDFF8F6
S1130AF064040088DFF86814098808182330DFF8D4
S1130B005814088077E0DFF84C040088DFF85014AC
S1130B1009880818DFF8401408806CE0DFF8340412
S1130B20DFF8401409880180DFF82C04DFF82C1466
S1130B30098801805FE012B2002A37D100B201288F
S1130B4034D1DFF80C04B0F90000DFF80014B1F977
S1130B500010401A2E281CDBDFF8FC03B0F900005B
S1130B6044280BDADFF8F0030088DFF8F41309886F
S1130B70401A2338DFF8DC1308803CE0DFF8D803A0
S1130B800088DFF8DC130988401ADFF8C8130880EE
S1130B9031E0DFF8C003DFF8CC1309880180DFF807
S1130BA0B803DFF8B8130988018024E0104300B2C9
S1130BB0002820D1DFF8AC03B0F90000402805DAA2
S1130BC0DFF89803B0F9000040280CDADFF884035A
S1130BD0DFF8901309880180DFF87C03DFF87C13C9
S1130BE00988018007E0DFF86C0300210180DFF849
S1130BF068037F210180DFF85C03B0F90000DFF8AF
S1130C005813B1F900100818022190FBF1F0DFF835
S1130C1058130880DFF850030088DFF85013098860
S1130C20401ADFF84C130880DFF83803DFF8241388
S1130C3009880180DFF82403DFF81C130988018088
S1130C40DFF83003DFF81C1309880180DFF828037C
S1130C50DFF808130988018010BC704780B5DFF8FD
S1130C600C03B0F9002000210A2000F072FCDFF828
S1130C70E402B0F9002004210A2000F06AFCDFF845
S1130C80D802B0F900200421462000F062FC01BD26
S1130C9070B5040000262A21DFF8E00200F05BFEB4
S1130CA04C21DFF8D80200F056FE4421DFF8CC02D4
S1130CB000F051FE002000F01DF8002000F01AF8AA
S1130CC0002000F017F8002000F014F8002504E0DC
S1130CD0207800F00FF8641C6D1CEDB2802DF7D362
S1130CE03000C0B200F006F82321DFF8900200F0D3
S1130CF032FE70BD10B50400E4B22009C0B20A2867
S1130D0007D210F13001C9B2DFF8700200F023FEFF
S1130D1006E010F13701C9B2DFF8600200F01BFEF3
S1130D2014F00F00C0B20A2807D210F13001C9B282
S1130D30DFF8480200F00FFE06E010F13701C9B2F7
S1130D40DFF8380200F007FE10BD000000F10F408C
S1130D5081B000208DF8000006E000BF00BF9DF8C0
S1130D600000401C8DF800009DF800000128F4D319
S1130D7001B0704710B5DFF80802DFF808120968FF
S1130D800160DFF8EC010088DFF8FC110988401AE3
S1130D90DFF8F8110880DFF8D801B0F9000000F09E
S1130DA007FEDFF8EC11096800F01AFEDFF8E41121
S1130DB000F082FE0400DFF8D401B0F9000000F076
S1130DC0F7FDDFF8D411096800F00AFE210000F0F5
S1130DD073FE00F0B3FEDFF8C4110880DFF8A80149
S1130DE0DFF88C1109880180DFF8B001B0F9000048
S1130DF041F20D71884204DBDFF8A00141F20C716D
S1130E000180DFF89801B0F9000040F6746188426F
S1130E1004DADFF8880140F674610180DFF87C01B0
S1130E20B0F9000000F0C4FDDFF85811086010BDEF
S1130E3010B5DFF850010068DFF84411096800F0CC
S1130E409FFE0400DFF85801B0F90000401C00F0D8
S1130E50AFFD210000F0C4FDDFF8481100F004FFED
S1130E60DFF81C11096800F027FE00F067FEDFF8C8
S1130E702C11088010BDDFF830010068DFF82C1158
S1130E800880DFF82C010088DFF820110988081891
S1130E90DFF81C110880DFF81001002101607047A1
S1130EA080B5DFF81001DFF80811B1F90010016016
S1130EB0DFF8FC0000210180DFF8FC00008800F06E
S1130EC051FFDFF8F0000068052148430D2190FB35
S1130ED0F1F0303000F054FFDFF8DC10098810FA2C
S1130EE081F0DFF8D8100860DFF8D0000068B0F5B2
S1130EF0487F04DDDFF8C4004FF448710160DFF877
S1130F00BC000068642803DADFF8B00064210160E3
S1130F10DFF8AC00DFF8A4100968016001BD00002F
S1130F2080F00F40C004FF1F8E05FF1F8F05FF1FB9
S1130F306604FF1F7C05FF1F6804FF1F5E05FF1F7B
S1130F406005FF1F6A04FF1F6205FF1F8005FF1F66
S1130F507E05FF1F5C05FF1F6004FF1F6605FF1F62
S1130F606C05FF1F6405FF1F6E05FF1F7405FF1F3F
S1130F707205FF1F6805FF1F6A05FF1F00D00640AA
S1130F80B004FF1FB404FF1F7605FF1F7805FF1F81
S1130F906C04FF1F006095457004FF1F6404FF1F6D
S1130FA05A05FF1F0000A04104800B405805FF1F95
S1130FB07A05FF1FB804FF1F7404FF1FBC04FF1F42
S1130FC01090034070B405001D4EAD1B08D0403D89
S1130FD008D0403D08D0403D08D0403D08D009E04D
S1130FE0184C07E0184C05E0184C03E0184C01E0DD
S1130FF0184CFFE74FF4807544F82150012A15D1AD
S1131000426901248C4022434261012B06D10268CB
S1131010012313FA01F1114301600EE00268012378
S113102013FA01F132EA0101016006E04269012389
S113103013FA01F132EA0101416170BC704700000A
S113104000F00F400090044000A0044000B00440B1
S113105000C0044000D00440006901228A401040CE
S1131060C840C0B2704750F8041B61B150F8042B5B
S1131070D30744BFA9F101039A18002342F8043BA3
S1131080091FFAD1EFE77047002810D16D480068B6
S113109050F000606B4908606B48006830F09000C5
S11310A069490860684800210160012070470128EF
S11310B00FD16648006850F00060644908606248D7
S11310C0006830F41040604908605F480021016006
S11310D0EBE70020EAE738B505000024D2B2280087
S11310E000F01EF8002D0CD1594800680006FBD50D
S11310F0584804685648006830F080005449086035
S11311000BE0554800680006FBD554480468524873
S1131110006830F0800050490860200080B232BD81
S113112010B50C000021D2B2082A06D00A2A08D031
S11311300C2A04D0102A06D007E0002106E0012181
S113114004E0022102E0032100E00021890011F003
S11311500C0151F05001424A1170414904224A7075
S11311603F4941F234224A803D4945F278628A80FF
S113117000282AD1042C0BDA14F01F0050F0400090
S1131180374908723649324800F048F8012010BD4A
S1131190201F14280AD214F01F0050F040003049D8
S11311A008722F492A4800F039F8EFE71A2C0AD1BF
S11311B014F01F0050F040002949087228492448BF
S11311C000F02CF8E2E70020E1E7042C09DA14F03F
S11311D01F0050F040002249087221491C4800F0C9
S11311E01DF8201F14280AD214F01F0050F04000EC
S11311F01B4908721A49184800F010F8C6E71A2C5F
S11312000AD114F01F0050F0400015490872144927
S1131210114800F003F8B9E70020B8E70A788260C3
S11312204A78C2604A8882618A88C2618A79026285
S1131230CA794262CA6802650A7A0260497A4160E0
S1131240704700003C800440188004403080044013
S113125000B0034010B0034000B00B4010B00B408E
S1131260A004FF1F0821DFF81825126852F4003289
S1131270DFF80C351A6000BFDFF80425126832F479
S11312808042DFF8FC341A6000BF19E0DFF8F02474
S1131290126832F40042DFF8E8341A60DFF8E02420
S11312A0126852F48042DFF8D8341A6000BFDFF8C5
S11312B0D024126832F48042DFF8C4341A6040004B
S11312C00A00511ED2B2002A0AD00206DED5DFF887
S11312D0B024126852F40042DFF8A4341A60DDE747
S11312E0704700000821DFF89824126832F40032B5
S11312F0DFF88C341A60DFF88824126832F48042F4
S1131300DFF87C341A6019E0DFF87424126832F4D0
S11313100042DFF86C341A60DFF86424126852F477
S11313208042DFF85C341A6000BFDFF8542412688E
S113133032F48042DFF848341A6040000A00511E3B
S1131340D2B2002A0AD00206DED5DFF834241268AD
S113135052F40042DFF828341A60DDE7704710B514
S11313600400B1F15000C0B2FFF7BCFFE4B22009A1
S113137050F01000C0B2FFF7B5FF14F00F0050F0AA
S11313800100C0B2FFF7AEFF10BD70B50400002528
S113139008E02000C0B2FFF765FF761CF6B2802E8D
S11313A0F7D36D1CEDB2082D0CD2B5F15000C0B2CC
S11313B0FFF798FF0120FFF795FF1020FFF792FF3A
S11313C00026EBE770BD38B5002407E00020FFF7E6
S11313D049FF6D1CEDB2802DF8D3641CE4B2082CD7
S11313E00CD2B4F15000C0B2FFF77CFF0120FFF72C
S11313F079FF1020FFF776FF0025EBE731BD07E00A
S113140043F226410A00511E92B2002AFAD1401E2C
S113141080B20028F4D1704780B5DFF868034FF438
S113142080710160DFF860034FF480710160DFF8C0
S11314305C034FF480710160DFF854034FF4807152
S11314400160DFF850035FF470310160DFF83003AE
S1131450006850F48040DFF828130860DFF82003A8
S1131460006830F48030DFF8181308603220FFF78A
S1131470C6FFDFF80C03006850F48030DFF8001377
S11314800860AE20FFF72EFF0020FFF72BFF10208F
S1131490FFF728FF4020FFF725FF8120FFF722FFF9
S11314A0CF20FFF71FFFA120FFF71CFFC820FFF785
S11314B019FFA620FFF716FFA820FFF713FF3F2010
S11314C0FFF710FFD320FFF70DFF0020FFF70AFFFF
S11314D0D520FFF707FF8020FFF704FFD920FFF78F
S11314E001FFF120FFF7FEFEDA20FFF7FBFE1220DA
S11314F0FFF7F8FEDB20FFF7F5FE4020FFF7F2FED2
S11315002020FFF7EFFE0220FFF7ECFE8D20FFF70F
S1131510E9FE1420FFF7E6FEA420FFF7E3FEA62071
S1131520FFF7E0FEAF20FFF7DDFE0020FFF72DFF01
S113153000210020FFF713FFFF20FFF726FF6420A0
S113154000F064FC0020FFF720FF642000F05EFC44
S113155001BD2DE9FC4104000D00002600275FF0C9
S11315600008642092FBF0F08DF80000642092FBE8
S1131570F0F100FB11200A2190FBF1F08DF801003D
S11315800A2092FBF0F100FB11208DF802000020EC
S1131590804610E0F6B2300150FA87F0DFF8F81117
S11315A04018007AFFF75EFE7F1CFFB2082FF1D3CC
S11315B0083418F101085FFA88F8B8F1030F28D24B
S11315C05FFA88F800A818F8000010F11006E4B2D9
S11315D0792C01D300246D1C2900C9B22000C0B2AB
S11315E0FFF7BDFE002709E0F6B2300150FA87F09C
S11315F0DFF8A411405CFFF735FE7F1CFFB2082F13
S1131600F2D3691CC9B22000C0B2FFF7A8FE0027BC
S1131610CBE7BDE8F3812DE9F84304000D00160083
S113162000275FF000085FF0000913E0FFB2380103
S113163050FA88F0DFF860114018007AFFF712FEC4
S113164018F101085FFA88F8B8F1080FEED30834EE
S113165019F101095FFA89F919F8060000282CD05C
S11316605FFA89F919F80600B0F12007E4B2792C81
S113167001D300246D1C2900C9B22000C0B2FFF7B9
S11316806EFE5FF000080AE0FFB2380150FA88F0FD
S1131690DFF80411405CFFF7E5FD18F101085FFA7B
S11316A088F8B8F1080FEFD3691CC9B22000C0B2A2
S11316B0FFF755FE5FF00008C4E7BDE8F1832DE9AC
S11316C0F04182B004000D00002600275FF00008FE
S11316D06420B2FBF0F08DF800000A20B2FBF0F0B9
S11316E00A21B0FBF1F301FB13008DF801000A207D
S11316F0B2FBF0F100FB11208DF8020000208046BF
S11317000FE0F6B2300150FA87F023494018007A0E
S1131710FFF7A8FD7F1CFFB2082FF2D3083418F19D
S113172001085FFA88F8B8F1030F27D25FFA88F846
S113173000A818F8000010F11006E4B2792C01D3C7
S113174000246D1C2900C9B22000C0B2FFF707FEB7
S1131750002708E0F6B2300150FA87F00E49405CE9
S1131760FFF780FD7F1CFFB2082FF3D3691CC9B2B9
S11317702000C0B2FFF7F3FD0027CCE7BDE8F381FA
S113178000F00F40389004403C90044040900440E6
S11317904490044014F00F409034000030B4DFF85B
S11317A0C03198420AD1DFF8BC314FF440741C6058
S11317B0DFF8B4314FF440741C6049E0DFF8AC3119
S11317C098420AD1DFF8A8314FF440741C60DFF866
S11317D0A4314FF440741C603AE0DFF89C31984225
S11317E00AD1DFF898314FF440741C60DFF890316F
S11317F04FF440741C602BE0DFF8883198420AD122
S1131800DFF884314FF440741C60DFF880314FF40A
S113181040741C601CE0DFF8783198420AD1DFF88C
S113182074314FF440741C60DFF86C314FF4407431
S11318301C600DE0DFF86431984209D1DFF86031B3
S11318404FF440741C60DFF85C314FF440741C604A
S1131850DFF80C31984208D1DFF84C311B6853F49F
S11318608063DFF8444123603BE0DFF800319842B5
S113187008D1DFF834311B6853F40063DFF82841E2
S113188023602EE0DFF8F030984208D1DFF81831F9
S11318901B6853F48053DFF81041236021E0DFF824
S11318A0E430984208D1DFF800311B6853F4005348
S11318B0DFF8F440236014E0DFF8D430984208D114
S11318C0DFF8E8301B6853F48063DFF8E0402360FE
S11318D007E0DFF8D8301B6853F40063DFF8CC402E
S11318E02360C37813F0F303C370002383701C4B8D
S11318F0984208D000231D4CA04204D053F00003AA
S1131900DBB2002B00D049184FF47A7303FB01F3C8
S11319101401B3FBF4F3047814F0E0049BB21D0A41
S113192015F01F052C43047043704FF4FA446143CF
S11319301201B1FBF2F19BB2B1EB4311827A12F0C6
S1131940E00411F01F0121438172C17851F00C01B0
S1131950C17030BC704702791206FCD5C171704762
S113196000A0064018C004401CC0044000B006405B
S113197010B004400CB0044000C006400CC0044049
S113198008C0044000D0064044B0044040B00440C5
S113199000A00E4060D0044064D0044000B00E406B
S11319A020D0044024D004403480044028800440E3
S11319B0002840F10780F446404200F003F850F05C
S11319C0004060470AD0B0FA80F18840D1F19D010F
S11319D0C905020672F1004241EB102070477047BE
S11319E0FF2212EAD05C1DBF12EAD1539445934200
S11319F02BE09C44D30780EA01021A4043EA00200A
S1131A0043EA0121A1FB0030410038BF40007CF1D2
S1131A107F010BDBFE294ADA5B0842EAC15153EA33
S1131A20006373F1004C51EB10207047D1F1080CA6
S1131A30DCF120012FDB5B0810FA01F10B4373F199
S1131A40004120FA0CF05041704794451CBF02EA53
S1131A50D153934280EA010202F000421DD04000BB
S1131A6019D0490017D05BB9634514D00902B1FA03
S1131A7081F39940BCEB030CC00140F00040C1E786
S1131A800002B0FA80FC10FA0CF0B3EB0C0CC901A4
S1131A9041F00041B6E71000704740000AD0490009
S1131AA008D010F1807F94BF11F1807F02E042F0F2
S1131AB0FF407047D043704790EA010F44BF81F064
S1131AC0004100F065B800BF421A3CBF801A891873
S1131AD04FF0004CC0F3C752FF2A24D0C1F3C753C0
S1131AE013B3D21AD2F1190327DD4CEA01214CFABF
S1131AF003F321EA0303D140C20D4CEA002040184D
S1131B0034BF20EA0C004CEA5000D20553EA0063CB
S1131B1073EB0C0C52EB1020420012F1807F38BFA3
S1131B207047C00DC0057047490212BF9A4200EBCE
S1131B305120F8E7D2F11703D9D570474100090EB7
S1131B407F3915D4D1F11F0114D4400007D2C0014C
S1131B5040F00040C84048BF6FF000407047C001EB
S1131B6040F00040C8404CBF4FF000404042704736
S1131B700020704700424FF0004058BFC0437047F8
S1131B8090EA010F44BF81F00041FFF79DBF00BF01
S1131B90431A4FF000423EBF5340C01AC91800BF59
S1131BA0D3095FEAD05C13EB400F34BFB3EB410FB2
S1131BB040E07CEBD1530CD342EA012122D8D1EB93
S1131BC0402009D3400A28BF5FEA500140EBCC50C3
S1131BD07047401A15D04002B0FA80F2521C90406F
S1131BE0400A4FEA3C23B3EB026384BF00EB73006B
S1131BF007E040F400001A16DB07C2F10102D040EE
S1131C0018437047182BFCDC31FA03F202FA03F391
S1131C10591A38BF42F00102D2EB40203CBF4000C9
S1131C20ACF1010C5FEACC5CC20572F100414CEBF3
S1131C305020704713EB400F0FD24B0009D0ACEB90
S1131C40D153022B03DB4902172BDDDD704791438F
S1131C50401A4300D5D10020704713EB410FD0D375
S1131C606FF000007047000010B5FF2313EAD05452
S1131C701DBF13EAD1529C429A4239E0A41ADA07F2
S1131C8080EA0103134042EA012142EA0020421A99
S1131C903CBF641E01EB4202090AB2FBF1FE01FBE8
S1131CA01E221202B2FBF1F001FB10226EF30F2090
S1131CB01202B2FBF1FE4EEA00207F3406DDFE2C58
S1131CC024DA53EA500050EBC45010BDD4F102049E
S1131CD001FB1E2240F08071192C1DDC21FA04F056
S1131CE0C4F12004A140114371F10042584110BDD8
S1131CF09C421ABF03EAD1529A420FE080EA010ED5
S1131D000EF00043400004D0490016D143F0FF40D8
S1131D1010BD490008BFD343180010BD9C4205D133
S1131D20D21AF7D001F00041484010BD4A0212BF58
S1131D300846484000F0004010BD4AB90902B1FA13
S1131D4081F2914044B1A418C00140F000409EE7E4
S1131D50C90141F0004152420002B0FA80F4A040AF
S1131D60141B94E72649096808607047244B1B68D4
S1131D70986023480068C160214800680261704788
S1131D8010B51F4909680968081A1E4908601D48EA
S1131D900068FFF70DFE1A4909688968FFF720FEFD
S1131DA00400174800684069FFF702FE14490968F7
S1131DB0C968FFF715FE01002000FFF7E1FE0400EB
S1131DC00F4800688069FFF7F3FD0D490968096948
S1131DD0FFF706FE2100FFF76FFEFFF7AFFE0A498B
S1131DE00860074800680649096849698161044830
S1131DF000680449096841610348006810BD000097
S1131E005C04FF1F9804FF1F9C04FF1F0D49096811
S1131E1051F001010B4A11600B4908600B48052180
S1131E2001600B48006850F0010009490860084847
S1131E3000680006FBD506480068400840000449D5
S1131E4008607047388004400800044004000440DF
S1131E500000044038B500240025DFF808170020EE
S1131E6003E000220A70491C401CC0B28A28F8D33F
S1131E7000F040FBDFF8F02600210020FFF7CBFB49
S1131E80DFF8E82602210020FFF7C5FBDFF8E02693
S1131E9004210020FFF7BFFBDFF8D826062100202D
S1131EA0FFF7B9FB00F0AEFB00F0ECFBDFF8C8165F
S1131EB008706E20FFF7AAFFDFF8BC06007801283F
S1131EC040F09C80DFF8B006FF210170DFF8AC061B
S1131ED001210170FFF777FA88E0C0A200210020F9
S1131EE0FFF799FBDFF8980600880A2101FB00F24E
S1131EF092B200213C20FFF7E2FBB9A202210020AC
S1131F00FFF789FBDFF87C2602213C20FFF783FBE7
S1131F10EAA204210020FFF77EFBDFF86C260421EF
S1131F203C20FFF778FBE6A206210020FFF773FBB5
S1131F30DFF8582606213C20FFF76DFB6E20FFF7E3
S1131F4065FF00F05FFB00F09DFBDFF844160870AE
S1131F50DFF83C060078FF2805D0DFF81C06DFF820
S1131F60301609780170DFF810060078072813D1BD
S1131F70DFF80C06008800F00DFDDFF81826DFF806
S1131F80183600F015FD00F087FDDFF8F415088021
S1131F90DFF8E405FF210170DFF8DC05007808288C
S1131FA013D1DFF8DC05008800F0F4FCDFF8E42549
S1131FB0DFF8E83500F0FCFC00F06EFDDFF8C0153A
S1131FC00880DFF8B405FF210170DFF8AC05007864
S1131FD009280BD1DFF8A405FF210170DFF898056B
S1131FE0FF210170DFF8A805FF210170DFF88C05DF
S1131FF0007801283FF471AFFFF7E5F9DFF87805C1
S11320000078022840F09880DFF86C05FF21017009
S1132010DFF8680502210170FFF7D5F984E06E202E
S1132020FFF7F4FE00F0EEFA00F02CFBDFF8601589
S11320300870DFF85C050078FF2805D0DFF8380564
S1132040DFF84C1509780170D8A200210020FFF7B1
S1132050E2FADFF84C0500880A2101FB00F292B293
S113206000213C20FFF72BFB5DA202210020FFF79B
S1132070D2FADFF8302502213C20FFF7CCFA8FA2F8
S113208004210020FFF7C7FADFF81C2504213C20B7
S1132090FFF7C1FA8AA206210020FFF7BCFADFF895
S11320A00C2506213C20FFF7B6FADFF8CC040078B3
S11320B0072813D1DFF8E804008800F06BFCDFF890
S11320C0D424DFF8D43400F073FC00F0E5FCDFF82E
S11320D0D0140880DFF8A004FF210170DFF8980411
S11320E00078082813D1DFF8B804008800F052FC07
S11320F0DFF8A024DFF8A43400F05AFC00F0CCFC94
S1132100DFF89C140880DFF87004FF210170DFF809
S113211068040078092807D1DFF86004FF21017002
S1132120DFF85404FF210170DFF85004007802281E
S11321303FF475AFFFF747F9DFF83C040078032854
S113214040F08780DFF83004FF210170DFF82C04B1
S113215003210170FFF737F975E06E20FFF756FE93
S113216000F050FA00F08EFADFF824140870DFF85B
S113217020040078FF2805D0DFF8FC03DFF81014F2
S113218009780170DFF8282400210020FFF743FAC2
S1132190DFF82004028800213C20FFF790FA10A207
S11321A002210020FFF737FADFF8F82302213C2050
S11321B0FFF731FA41A204210020FFF72CFADFF8DF
S11321C0E82304213C20FFF726FA3DA20621002043
S11321D0FFF721FADFF8D42304E000BF4B703A0084
S11321E02B3A000006213C20FFF715FADFF888039C
S11321F0007807280AD1DFF8BC0300880A30DFF82A
S1132200B4130880DFF87003FF210170DFF868035E
S1132210007808280AD1DFF89C0300880A38DFF820
S113222094130880DFF85003FF210170DFF848039E
S11322300078092807D1DFF84403FF210170DFF893
S11322403803FF210170CD480078032885D0FFF7BB
S1132250BAF8C94800780A287FF40CAEC648FF21B2
S11322600170FFF7B0F8DFF850030078012833D18C
S11322709FA200210020FFF7CEF99DA200213C205F
S1132280FFF7C9F99AA202210020FFF7C4F998A226
S113229002213C20FFF7BFF995A204210020FFF79B
S11322A0BAF993A204213C20FFF7B5F990A20621C4
S11322B00020FFF7B0F98EA204E000BF2D3A000021
S11322C052653A0006213C20FFF7A5F940F24C4044
S11322D0FFF79CFDFFF777F8B74802210170B74874
S11322E001210180B64801210180B6480078012807
S11322F0B9D1B44800210170641C2000C0B2052883
S113230003D300249748FEF7C3FC9648FEF7EEF982
S1132310FEF726FBAC480088AC4909880818AA498E
S11323200880AB480088AB4909880818A849088088
S1132330A9480088A94909880818A74908806D1C7C
S1132340280000B20F288EDB00259F48B0F900005A
S11323500F2190FBF1F0A24908809D48B0F90000DC
S11323600F2190FBF1F09F4908809B48B0F90000D1
S11323700F2190FBF1F09C490880934800210180D3
S113238093480021018094480021018096480088E8
S113239094490988401A954908809148B0F9002069
S11323A000210A20FFF7D5F88E4801E04B643A007B
S11323B0B0F9002002210A20FFF7CBF88A48B0F9CF
S11323C0002002214620FFF7C4F800F05BF97049B1
S11323D008706F480078FF2803D067486C49097873
S11323E00170654800780C287FF43DAF6248FF21F6
S11323F0017062480C210170FEF7E5FF1AE06E20BF
S1132400FFF704FD00F03EF9614908706048007868
S1132410FF2803D058485E4909780170564800786F
S11324200C2805D15548FF2101705348FF21017044
S1132430FEF7C9FF514800780C28E0D05E4801211E
S1132440017007E05B48D2210180694800210180C6
S1132450FEF726FD5848007801280AD140A206213B
S11324603C20FFF7D8F840F24C40FFF7CFFCFEF7D2
S1132470AAFF5148022101705048002101805048B0
S1132480002101804F48007801281ED14D480021C9
S11324900170641C2000C0B2052803D30024314815
S11324A0FEF7F6FB2F48FEF721F9FEF759FA5148DB
S11324B00078401C4F4908704E480078052804D124
S11324C04C4800210170FEF7C9FB4948B0F90000EF
S11324D00128BFD14848B0F900004FF6ED71401A09
S11324E080B22728AED23348E1210180ADE7000055
S11324F0636A000080B572B65FF4E1323F48016858
S11325003F48FFF74BF94FF49671002000F0EAFAC8
S113251041F2AC220221002000F059FC4FF47A7100
S1132520012000F0DFFA00F05CFD00F0BEFDFDF7D5
S11325308DFFFEF771FF002200215FF07F50FFF74F
S113254015FC1C480088FFF70DFC4EF660210020A6
S113255000F032FE002000F05EFE62B601BD000015
S1132560676F0000C004FF1FB43F0000BC3F0000C1
S1132570C43F0000CC3F00007804FF1F7604FF1F17
S11325806C04FF1FD43F0000DC3F0000E43F000068
S11325907704FF1F9A9999999999C93F9999C9BF45
S11325A07004FF1FEC3F0000F43F0000FC3F0000FC
S11325B0044000007404FF1F7904FF1F8A05FF1FF5
S11325C08C05FF1F9405FF1F8405FF1F6E05FF1F69
S11325D08605FF1F5C05FF1F8805FF1F6004FF1FA2
S11325E07405FF1F7005FF1F6204FF1F6C05FF1FAA
S11325F08205FF1F9605FF1F7205FF1F5405FF1F6D
S113260000D0064080B5DFF88403006850F48050A1
S1132610DFF878130860002300220021DFF870033C
S1132620FEF7D0FC002300220121DFF86403FEF74B
S1132630C9FC002300220221DFF85403FEF7C2FC88
S1132640002300220321DFF84803FEF7BBFC01232B
S113265000220421DFF83803FEF7B4FC0123002232
S11326600521DFF82C03FEF7ADFC0123002206212F
S1132670C748FEF7A7FC002300220721C448FEF741
S1132680A1FC01BDF8B50025FF240023012200218F
S1132690BF48FEF797FC012301220121BC48FEF745
S11326A091FC012301220221B948FEF78BFC01238E
S11326B001220321B648FEF785FC0421B448FEF745
S11326C0CBFC06000521B248FEF7C6FC0700062134
S11326D0AF48FEF7C1FC790111EB061111EB80162E
S11326E00721AB48FEF7B8FC16EBC0100500EDB2AD
S11326F0702D2AD00A20FFF789FB0421A448FEF795
S1132700ABFC05000521A248FEF7A6FC0600062145
S11327109F48FEF7A1FC710111EB051111EB801527
S113272007219B48FEF798FC15EBC015EDB2702D00
S11327300BD0EDB2302D07D0502D03D0602D04D135
S11327400A2402E00B2400E00C24012301220021CE
S11327508F48FEF737FC0023012201218C48FEF745
S113276031FC0123012202218948FEF72BFC0123BD
S1132770012203218648FEF725FC04218448FEF744
S11327806BFC050005218248FEF766FC0600062165
S11327907F48FEF761FC710111EB051111EB801507
S11327A007217B48FEF758FC15EBC015EDB2702DE0
S11327B02AD00A20FFF72AFB04217548FEF74CFCB7
S11327C0050005217248FEF747FC06000621704803
S11327D0FEF742FC710111EB051111EB8015072185
S11327E06B48FEF739FC15EBC015EDB2702D0BD01C
S11327F0EDB2302D07D0502D03D0602D04D1072425
S113280002E0082400E00924012301220021604899
S1132810FEF7D8FB0123012201215D48FEF7D2FB1C
S11328200023012202215A48FEF7CCFB0123012296
S113283003215748FEF7C6FB04215548FEF70CFC5C
S1132840050005215248FEF707FC06000621504802
S1132850FEF702FC710111EB051111EB8015072144
S11328604B48FEF7F9FB15EBC015EDB2702D2AD0DD
S11328700A20FFF7CBFA04214548FEF7EDFB0500DB
S113288005214348FEF7E8FB060006214048FEF711
S1132890E3FB710111EB051111EB801507213C4895
S11328A0FEF7DAFB15EBC015EDB2702D0BD0EDB2CF
S11328B0302D07D0502D03D0602D04D1042402E024
S11328C0052400E006240123012200213048FEF7FC
S11328D079FB0123012201212D48FEF773FB01231B
S11328E0012202212A48FEF76DFB00230122032165
S11328F02748FEF767FB04212548FEF7ADFB0500DA
S113290005212348FEF7A8FB060006212048FEF710
S1132910A3FB710111EB051111EB801507211C4874
S1132920FEF79AFB15EBC015EDB2702D2AD00A20E4
S1132930FFF76CFA04211648FEF78EFB050005210B
S11329401348FEF789FB060006211148FEF784FBB5
S1132950710111EB051111EB801507210C48FEF7ED
S11329607BFB15EBC015EDB2702D0BD0EDB2302D05
S113297007D0502D03D0602D04D1012402E002249D
S113298000E003242000C0B2F2BD000038800440FF
S1132990C0F00F40010000BF09D0B0FA80F18840B8
S11329A0C91CC1F58461090501EBD02140057047BC
S11329B070B44FF0004591EA030C44BF6B4000F043
S11329C057BC00BF841A71EB030603D2001BB1414C
S11329D0121973414FF4001C1CEB410F34BF7CEB04
S11329E0430443E00C0DA4EB1356352E50DC45EAAA
S11329F0C323DB0A45EAC121C912B6F120050DDD66
S1132A0063FA05F6EB4086EA0305124218BF45F067
S1132A100105C01851F100010CD213E062FA06F569
S1132A20F2405540F3415A40B340F3405A408018B5
S1132A30594107D349085FEA30005FEA350528BFEA
S1132A4045F0010501F58011420875F1004250F18D
S1132A50000041EB045170BC4FF4001C1CEB410F0F
S1132A6038BF70470020090D090570471CEB410F62
S1132A7010D252EA43060BD0BCEB410F05D80C0D23
S1132A80AB43661E342EB5DD02E0AB4380185941DA
S1132A9070BC704770BC7047F446400D40EAC120DA
S1132AA0490006D200F00EF8004248BF6FF0004023
S1132AB0604700F007F84FF0004188428CBF084699
S1132AC04042604740F00040490DA1F58061491C37
S1132AD005D4D1F11F0154BFC840C01770474FF04F
S1132AE00000704730B40023DFF8202612684FF44A
S1132AF07A7462438A4201D200209EE0802303FB61
S1132B0001F3B2FBF3F44FF6FF739C4280F017819C
S1132B100723C0B2002840F09280DFF8F4552C60FF
S1132B20402404FB01F4B2FBF4F44FF6FF75AC420D
S1132B3060D20623C0B2002840F09180DFF8D0555F
S1132B402C604C01B2FBF4F44FF6FF75AC4251D249
S1132B500523C0B2002840F09280DFF8B4552C6001
S1132B600C01B2FBF4F44FF6FF75AC4242D20423DD
S1132B70C0B2002840F09380DFF894552C60CC005C
S1132B80B2FBF4F44FF6FF75AC4233D20323C0B268
S1132B90002840F09480DFF878552C608C00B2FB5C
S1132BA0F4F44FF6FF75AC4224D20223C0B20028DD
S1132BB040F09580DFF858552C604C00B2FBF4F4DB
S1132BC04FF6FF75AC4215D20123C0B2002840F085
S1132BD09680DFF83C552C60B2FBF1F44FF6FF71A0
S1132BE08C4207D20023C0B2002840F09880DFF85E
S1132BF020150C60C0B2002840F0A380DFF8140553
S1132C00006850F08070DFF80C150860DBB213F038
S1132C10070050F00800DFF800150860DFF8FC0436
S1132C2000210160DFF8F80400210160DFF8F404FA
S1132C30DFF8DC1409680160012030BC7047C0B2C1
S1132C40012803D1DFF8E0542C6069E7C0B2022800
S1132C5003D1DFF8D8542C6062E70020EDE7C0B25E
S1132C60012803D1DFF8C0542C606AE7C0B20228FF
S1132C7003D1DFF8B8542C6063E70020DDE7C0B26D
S1132C80012803D1DFF8A0542C6069E7C0B2022800
S1132C9003D1DFF898542C6062E70020CDE7C0B27E
S1132CA0012803D1DFF880542C6068E7C0B2022801
S1132CB003D1DFF878542C6061E70020BDE7C0B28F
S1132CC0012803D1DFF860542C6067E7C0B2022802
S1132CD003D1DFF858542C6060E70020ADE7C0B2A0
S1132CE0012803D1DFF840542C6066E7C0B2022803
S1132CF003D1DFF838542C605FE700209DE7C0B2B1
S1132D00012803D1DFF820542C6065E7C0B2022803
S1132D1003D1DFF818542C605EE700208DE7C0B2C1
S1132D20012803D1DFF800140C6063E7C0B2022865
S1132D3003D1DFF8F8130C605CE700207DE7002086
S1132D407BE7C0B201281ED1DFF8C803006850F049
S1132D500070DFF8C0130860DBB213F0070050F016
S1132D600800DFF8CC130860DFF8C8030021016015
S1132D70DFF8C40300210160DFF8C003DFF8A81303
S1132D800968016058E7C0B202281ED1DFF8B00319
S1132D90006850F08070DFF8A8130860DBB213F00D
S1132DA0070050F00800DFF89C130860DFF8980370
S1132DB000210160DFF8940300210160DFF8900333
S1132DC0DFF868130968016036E7002035E718B4B6
S1132DD042F211739A4201D3002066E0C0B2002887
S1132DE065D1DFF82C331B680093009B5B1C5A43AE
S1132DF042F21073B2FBF3F2C0B2002828D1C9B278
S1132E000B00002B022B05D9DB1E6CD05B1E032BA1
S1132E1079D985E0DFF83C331B684FF40074234311
S1132E20DFF830432360C9B28B0003F1804313F50C
S1132E3092234FF44074DC60C9B2DFF81C332824B9
S1132E4043F83140C9B2DFF8103313EBC1035A60C1
S1132E50C0B2012818D1C9B2002963D1BD4B1B6887
S1132E6053F48063BB4C2360C9B2BC4B4FF4407431
S1132E7043F82140C9B2BA4B282443F83140C9B2BF
S1132E80B74B13EBC1035A60C0B202280CD1C9B2CC
S1132E90002949D1C9B2B348282340F83130C9B216
S1132EA0B04810EBC1004260012012BC7047C0B2B0
S1132EB0012809D1009B9C4C2468A34201D1012321
S1132EC000E00023DBB290E7C0B2022809D1009BE6
S1132ED0964C2468A34201D1012300E00023DBB215
S1132EE083E70020E1E79B4B1B6853F40063994C94
S1132EF02360C9B28B0003F1804313F596234FF48A
S1132F0080645C6098E7934B1B6853F48053914C46
S1132F102360C9B2944B4FF4806443F821408BE79B
S1132F200020C2E70020C0E70020BEE718B442F248
S1132F3011739A4201D3002019E0C0B2002818D1BD
S1132F40734B1B680093009B5B1C5A4342F2107343
S1132F50B2FBF3F2C0B200282FD1C9B2002903D0CA
S1132F60022925D021D326E080480260012012BC2A
S1132F707047C0B2012809D1009B6B4C2468A3425E
S1132F8001D1012300E00023DBB2DCE7C0B2022858
S1132F9009D1009B654C2468A34201D1012300E0C0
S1132FA00023DBB2CFE70020E1E771480260DDE7F0
S1132FB070480260DAE70020D9E7C0B2012805D1E1
S1132FC0C9B2674810EBC1004260CFE7C0B2022823
S1132FD005D1C9B2634810EBC1004260C6E70020C6
S1132FE0C5E780B50023012209216348FDF7EAFF04
S1132FF05848006850F400605649086057484FF438
S1133000507101604348006850F000704149086005
S11330105348006850F0080051490860504800685F
S113302030F004004E4908604D48006850F020001C
S11330304B4908603E48292101605048006850F01F
S113304004004E4908604D480068400840004B4960
S113305008604B48FE2101604A48002101604A484B
S113306000210160494800210160494800210160B4
S11330704848006840084000464908604648002126
S113308001604648002101604548002101602A484A
S113309000210160294840F2E241016041480021D9
S11330A0016024480021016001BD2548006850F0FA
S11330B08070234908603C484FF4C06101603B487C
S11330C04FF4C06101603A48006850F00400384988
S11330D008603848006850F00800364908601B480A
S11330E0002101601A484FF6FF7101603148006801
S11330F050F001002F4908602D48006850F001008D
S11331002B49086010480021016070475405FF1FD7
S11331104005FF1F3C8004400080034004800340BE
S11331204C800340088003404405FF1F4805FF1FEF
S113313000900340049003404C90034008900340E7
S11331403080044000800B4004800B404C800B40D6
S113315008800B40388004400C80034000A00440E9
S11331600C9003400C800B4000C0044010800340CE
S1133170188003402080034040F00F4054900340E7
S113318060900340649003405C9003406C90034063
S113319070900340809003409090034094900340CB
S11331A0989003401090034048A004404CA0044071
S11331B054800B4080800B402A4A126852F400026B
S11331C0284B1A60284A126832F00202264B1A6011
S11331D0254A126852F00102234B1A60C0B2020160
S11331E0224BD150C0B2214911EB0011896851F032
S11331F00101C0B21D4A12EB00129160C0B21B491A
S113320011EB0011896831F00201C0B2174A12EBC8
S113321000108160704780B5C0B2144911EB0011F1
S1133220896851F00201C0B2104A12EB0012916099
S1133230C0B2002805D002280BD006D303280CD036
S11332400EE0442000F0CDF80AE0452000F0C9F873
S113325006E0462000F0C5F802E0472000F0C1F87F
S113326001BD00003C800440007003400071034035
S1133270841A71EB030604D26E40001BB14112198B
S113328073414FF4001C1CEB410F34BF7CEB43062D
S113329084E00C0DA4EB1356362E7DDC012E43DCAA
S11332A045EAC32343EA525312BFD20292025B0897
S11332B0240545EAC12141EA5051D2EBC02099418D
S11332C025D407D1B0FA80F610FA06F164D00020B4
S11332D0203608E0B1FA81F6B140C6F1200220FAA6
S11332E002F21143B0404FEAF474B4EB465434F0A4
S11332F001064FEA74040AD8D6F50016760D04F0D8
S11333000044F04061FA06F25040F1404840C00ADF
S113331040EA415021F0004128BF5FEA500550F1D6
S1133320000044EBD12137E045EAC323DB0A45EA38
S1133330C121C90AB6F120050EDD42EA0242120C8F
S1133340C5F1200603FA06F6EB4042EA06056D4293
S1133350984161F100010DE062FA06F5F240554032
S113336063FA06FC82EA0C02F3405A406D42904133
S113337061EB030111F4801F05D1641E620502D0C4
S11333806D004041494121F48011430875F1004327
S113339050F1000041EB045170BC70471CEB410F2D
S11333A015D223F0004352EA43060BD04FEA4C0CEB
S11333B0BCEB410F04D80C0D661E342EB7DDEBE7D1
S11333C0801A994150EA410608BF0021E4E708BF8A
S11333D01CEB430F28BF6FF00001DDE725490860AF
S11333E070475C2800DB5B20202190FBF1F1002971
S11333F003D0022929D014D33AE00121202290FBE2
S1133400F2F303FB120399401B4A116001212022AD
S113341090FBF2F303FB120311FA03F0174908605F
S113342026E00121202290FBF2F303FB12039940D2
S1133430134A11600121202290FBF2F303FB1203D3
S113344011FA03F00F49086012E00121202290FBD9
S1133450F2F303FB120399400B4A1160012120226D
S113346090FBF2F303FB120311FA03F0074908601F
S11334707047000008ED00E080E200E000E100E0B9
S113348084E200E004E100E088E200E008E100E01A
S11334900000000000000000000000000000000028
S11334A0000000F8000000000000003330000000BD
S11334B000100C06100C06000000000000000000C4
S11334C040C07840C0784000043F04043F04040036
S11334D0007088FC08300000001820FF211E000046
S11334E0F008F000E018000000211C031E211E005B
S11334F000F00888700000001E21232419272110E1
S113350010160E0000000000000000000000000083
S1133510000000E01804020000000007182040002A
S113352000020418E000000000402018070000001A
S1133530404080F0804040000202010F010202007E
S1133540000000F0000000000101011F0101010062
S1133550000000000000000080B0700000000000C7
S11335600000000000000000000101010101010150
S113357000000000000000000030300000000000E7
S113358000000000806018040060180601000000BC
S113359000E010080810E000000F102020100F00B9
S11335A0001010F8000000000020203F2020000040
S11335B00070080808887000003028242221300098
S11335C000300888884830000018202020110E00A0
S11335D00000C02010F8000000070424243F240049
S11335E000F80888880808000019212020110E001E
S11335F000E0108888180000000F112020110E0030
S113360000380808C83808000000003F0000000027
S11336100070880808887000001C222121221C00E8
S113362000E010080810E0000000312222110F0011
S1133630000000C0C00000000000003030000000A6
S11336400000008000000000000080600000000016
S1133650000080402010080000010204081020002F
S1133660404040404040400004040404040404007A
S1133670000810204080000000201008040201000F
S1133680007048080808F00000000030360100000F
S1133690C030C828E810E0000718272423140B00C2
S11336A00000C038E0000000203C2302022738203C
S11336B008F8888888700000203F202020110E0020
S11336C0C030080808083800071820202010080017
S11336D008F808080810E000203F202020100F0000
S11336E008F88888E8081000203F202023201800CC
S11336F008F88888E8081000203F20000300000034
S1133700C03008080838000007182020221E0200D4
S113371008F808000008F808203F210101213F2093
S1133720000808F8080800000020203F20200000BE
S113373000000808F8080800C08080807F000000AE
S113374008F888C028180800203F200126382000E7
S113375008F8080000000000203F2020202030004E
S113376008F8F800F8F80800203F003F003F200068
S113377008F830C00008F808203F200007183F0070
S1133780E01008080810E0000F10202020100F009F
S113379008F808080808F000203F21010101000092
S11337A0E01008080810E0000F18242438504F00D7
S11337B008F8888888887000203F2000030C302097
S11337C000708808080838000038202121221C00D5
S11337D0180808F8080818000000203F200000001E
S11337E008F808000008F808001F202020201F0007
S11337F00878880000C83808000007380E01000067
S1133800F80800F80008F800033C0700073C030030
S1133810081868808068180820302C03032C302096
S11338200838C800C83808000000203F2000000005
S113383010080808C838080020382621202018005D
S1133840000000FE020202000000007F4040400031
S1133850000C30C000000000000000010638C00069
S113386000020202FE000000004040407F00000011
S11338700000040202020400000000000000000036
S11338800000000000000000808080808080808034
S1133890000202040000000000000000000000001C
S11338A000008080808000000019242222223F2012
S11338B008F8008080000000003F112020110E0055
S11338C00000008080800000000E112020201100E4
S11338D0000000808088F800000E112020103F2096
S11338E00000808080800000001F2222222213001A
S11338F0008080F0888888180020203F2020000065
S11339000000808080808000006B94949493600019
S113391008F8008080800000203F210000203F2024
S113392000809898000000000020203F2020000024
S1133930000000809898000000C08080807F000014
S113394008F8000080808000203F24022D302000F1
S1133950000808F8000000000020203F202000009C
S11339608080808080808000203F20003F20003FB6
S11339708080008080800000203F210000203F20C4
S11339800000808080800000001F202020201F0075
S1133990808000808000000080FFA12020110E00A4
S11339A00000008080808000000E112020A0FF8095
S11339B0808080008080800020203F212000010042
S11339C00000808080808000003324242424190097
S11339D0008080E0808000000000001F20200000A4
S11339E08080000000808000001F202020103F20E5
S11339F0808080000080808000010E300806010075
S1133A0080800080008080800F300C030C300F0019
S1133A1000808000808080000020312E0E31200044
S1133A20808080000080808080818E701806010074
S1133A3000808080808080000021302C2221300092
S1133A4000000000807C020200000000003F4040B3
S1133A5000000000FF00000000000000FF00000064
S1133A600002027C800000000040403F0000000093
S1133A70000601010202040400000000000000002E
S1133A80DFF800F01104FF1F80B57348006850F49C
S1133A907850714908601021052000F02FF86F4913
S1133AA008606E4800684FF47A7148436C490860B6
S1133AB06B4800686B490968C1F30361491CB0FB9A
S1133AC0F1F06949086000F003F800F00CF801BD5A
S1133AD06648006850F480506449086064484FF4B4
S1133AE0E061016070476348006850F0010061497B
S1133AF0086061484FF4A0610160704780B50A0016
S1133B00C0B2092801D30020A4E0D2B2112A01D303
S1133B1001209FE0594A00231370594A126852F059
S1133B208052574B1A60574A127852F08002554B14
S1133B301A70554A98231370544A1278D206FBD44B
S1133B40524A1278C2F38102D2B2022AF8D1504A00
S1133B500E2313704F4A00231370C0B200280BD0F9
S1133B6002281FD013D3042832D026D3062845D0E8
S1133B7039D307284DD056E001230022002100202C
S1133B80FFF77EFF43484121017032214BE00323BC
S1133B90012201210020FFF773FF3E485A210170E2
S1133BA0642140E00323012201210020FFF768FF84
S1133BB0384858210170782135E001230022002182
S1133BC00020FFF75DFF33484021017030212AE0D7
S1133BD00523022202210020FFF752FF2D484F2126
S1133BE0017096211FE00723022202210020FFF723
S1133BF047FF28485E210170B42114E00723022204
S1133C0002210020FFF73CFF22485E210170CF21F2
S1133C1009E00823022202210020FFF731FF1D489A
S1133C205E210170E121194800788006FBD5174810
S1133C3000784006FBD51448007810F03F00124A83
S1133C40107012480078C0F38100C0B20328F8D184
S1133C500800C0B202BD0000388004405005FF1FB8
S1133C604C05FF1F448004405405FF1F048004409A
S1133C7018900440408004400CB0044001400640C9
S1133C803480044008C00740004006400640064017
S1133C90044006400540064080B572B641480078AD
S1133CA0D0F11400404908703F480078022807D337
S1133CB03D4800783D490978884201D1FCF7E7FB8B
S1133CC03A480078401C394908703848007814286C
S1133CD00AD33648002101703548FCF72EFCFCF766
S1133CE099FC34480121017033480078401C324962
S1133CF00870FDF79DF831480078401C2F49087082
S1133D002E480078012807D040D3032806D004D3D6
S1133D10052831D019D339E038E037E02848B0F924
S1133D200000002810D1FDF7A6F826480078401CB2
S1133D302449087023480078042805D32248012127
S1133D40018020480021017020E01D48B0F90000E6
S1133D50002810D11D480078401C1C4908701B48DD
S1133D600078042807D3FDF705F8184800210170EE
S1133D7011480021017009E01548B0F90020022122
S1133D800020FFF7D3F80D480021017011480068A6
S1133D9050F001000F4908600020FFF73CFA62B6BA
S1133DA001BD00BF6A04FF1F9505FF1F9105FF1F9A
S1133DB0C004FF1F9405FF1F5A05FF1F9005FF1F36
S1133DC08A05FF1F9205FF1F8205FF1F9305FF1F32
S1133DD06404FF1F0C71034080B500F055F800F037
S1133DE005F8FFF751FEFEF735F801BD80B51C4814
S1133DF01C4988420BD0002006E01949194A52F8A0
S1133E00202041F82020401CB0F5826FF5D31448DF
S1133E10FFF7E4FA1449154A1548801A03E01378A9
S1133E200B70521C491C0300581E002BF7D111497A
S1133E301148401A02E000220A70491C0200501E78
S1133E40002AF8D10D490E4A0E48801A03E013786F
S1133E500B70521C491C0300581E002BF7D101BDE6
S1133E600000FF1F000000005C04FF1F483F00002B
S1133E70683F00007C04FF1F9705FF1F1004FF1F0D
S1133E80C03E00000C3F000080B500F009F80A486D
S1133E9000884FF6FE7108400749088001BD000004
S1133EA072B606484CF22051018004484DF62811A0
S1133EB0018062B670470000002005400E200540D6
S1133EC070B4104C24680F4D2D6855F47F050D4EC9
S1133ED03560090611F0706151EA0070110511F4A2
S1133EE070010843190411F470210843064908605D
S1133EF0002000E0401CC0B29842FBD3014804609B
S1133F0070BC704700F001404480044010B508497B
S1133F1079441C31074C7C441A34A14206D0081D54
S1133F200A68511888470146A142F8D110BD00BF64
S1133F3008000000140000002FD1FFFF1C01000046
S1133F407C04FF1F000000007C04FF1F7F00800032
S1133F50AC121E0002000A0000005041000098410B
S1133F60C300FFFFFF01000000F009F8002801D0A2
S1133F70FFF7CCFF0020FDF76DFF00F002F80120F1
S1133F80704700F001B800000746384600F002F818
S1133F90FBE7000080B5C046C046024A1100182065
S1133FA0ABBEFBE726000200C046C046C046C04682
S1133FB0FFF7DAFF4B705F533A3100004B645F53F5
S1133FC03A32000053706565643A3300476F3A36FD
S1133FD0000000004B657937000000004B6579381C
S1133FE0000000004B657939000000004B6579340E
S1133FF0000000004B657935000000004B65793600
S10F40000000000053706565643A000085
S9033FA914
