S013000062616C616E6365206361722E73726563F5
S3151FFF0000F8FF00201104FF1F0315FF1F0315FF1F16
S3151FFF00100315FF1F0315FF1F0315FF1F0315FF1FE4
S3151FFF00200315FF1F0315FF1F0315FF1F0315FF1FD4
S3151FFF00300315FF1F0315FF1F0315FF1F0315FF1FC4
S3151FFF00400315FF1F0315FF1F0315FF1F0315FF1FB4
S3151FFF0400FFFFFFFFFFFFFFFFFFFFFFFFFEFFFFFFD9
S3151FFF04104FF000004FF000014FF000024FF00003B6
S3151FFF04204FF000044FF000054FF000064FF0000796
S3151FFF04304FF000084FF000094FF0000A4FF0000B76
S3151FFF04404FF0000C62B600F09BFFFEE730B40023AF
S3151FFF0450DFF85C2412684FF47A7462438A4201D232
S3151FFF046000209EE0802303FB01F3B2FBF3F44FF65C
S3151FFF0470FF739C4280F017810723C0B2002840F00C
S3151FFF04809280DFF830542C60402404FB01F4B2FB4A
S3151FFF0490F4F44FF6FF75AC4260D20623C0B20028B4
S3151FFF04A040F09180DFF80C542C604C01B2FBF4F442
S3151FFF04B04FF6FF75AC4251D20523C0B2002840F05C
S3151FFF04C09280DFF8F0532C600C01B2FBF4F44FF669
S3151FFF04D0FF75AC4242D20423C0B2002840F093807E
S3151FFF04E0DFF8D0532C60CC00B2FBF4F44FF6FF7548
S3151FFF04F0AC4233D20323C0B2002840F09480DFF80A
S3151FFF0500B4532C608C00B2FBF4F44FF6FF75AC426C
S3151FFF051024D20223C0B2002840F09580DFF89453FF
S3151FFF05202C604C00B2FBF4F44FF6FF75AC4215D2AC
S3151FFF05300123C0B2002840F09680DFF878532C6065
S3151FFF0540B2FBF1F44FF6FF718C4207D20023C0B204
S3151FFF0550002840F09880DFF85C130C60C0B20028BB
S3151FFF056040F0A380DFF85003006850F08070DFF87B
S3151FFF057048130860DBB213F0070050F00800DFF8DE
S3151FFF05803C130860DFF8380300210160DFF83403EE
S3151FFF059000210160DFF83003DFF8181309680160D7
S3151FFF05A0012030BC7047C0B2012803D1DFF81C53AE
S3151FFF05B02C6069E7C0B2022803D1DFF814532C6001
S3151FFF05C062E70020EDE7C0B2012803D1DFF8FC5236
S3151FFF05D02C606AE7C0B2022803D1DFF8F4522C6001
S3151FFF05E063E70020DDE7C0B2012803D1DFF8DC5245
S3151FFF05F02C6069E7C0B2022803D1DFF8D4522C6002
S3151FFF060062E70020CDE7C0B2012803D1DFF8BC5255
S3151FFF06102C6068E7C0B2022803D1DFF8B4522C6002
S3151FFF062061E70020BDE7C0B2012803D1DFF89C5266
S3151FFF06302C6067E7C0B2022803D1DFF894522C6003
S3151FFF064060E70020ADE7C0B2012803D1DFF87C5277
S3151FFF06502C6066E7C0B2022803D1DFF874522C6004
S3151FFF06605FE700209DE7C0B2012803D1DFF85C5288
S3151FFF06702C6065E7C0B2022803D1DFF854522C6005
S3151FFF06805EE700208DE7C0B2012803D1DFF83C12D9
S3151FFF06900C6063E7C0B2022803D1DFF834120C6087
S3151FFF06A05CE700207DE700207BE7C0B201281ED153
S3151FFF06B0DFF80402006850F00070DFF8FC110860D5
S3151FFF06C0DBB213F0070050F00800DFF808120860CE
S3151FFF06D0DFF8040200210160DFF80002002101603C
S3151FFF06E0DFF8FC01DFF8E4110968016058E7C0B2C3
S3151FFF06F002281DD1DFF8EC01006850F08070DFF88B
S3151FFF0700E4110860DBB213F0070050F00800DFF8B2
S3151FFF0710D8110860DFF8D40100210160DFF8D0018E
S3151FFF072000210160DFF8CC0169490968016037E7DD
S3151FFF0730002036E718B442F211739A4201D3002004
S3151FFF074015E0C0B2002814D15A4B1B680093009BBB
S3151FFF07505B1C5A4342F21073B2FBF3F2C0B200287E
S3151FFF076023D1C9B2654810EBC1004260012012BCFC
S3151FFF07707047C0B2012809D1009B544C2468A3427D
S3151FFF078001D1012300E00023DBB2E0E7C0B202285C
S3151FFF079009D1009B4E4C2468A34201D1012300E0DF
S3151FFF07A00023DBB2D3E70020E1E7C0B2012805D162
S3151FFF07B0C9B2534810EBC1004260D7E7C0B2022847
S3151FFF07C005D1C9B24F4810EBC1004260CEE70020EA
S3151FFF07D0CDE780B5002301220A214B4800F0B0F870
S3151FFF07E0002301220921484800F0AAF84248006861
S3151FFF07F050F400604049086044484FF4507101604F
S3151FFF080043484FF4507101602B48006850F08070C9
S3151FFF0810294908603948006850F0080037490860C1
S3151FFF08203648006830F004003449086033480068D2
S3151FFF083050F02000314908602048292101603548C2
S3151FFF0840006850F0040033490860324800684008CA
S3151FFF08504000304908603048FE2101602F480021C3
S3151FFF086001602F48002101602E48002101602E489C
S3151FFF0870002101602D480068400840002B49086091
S3151FFF08802B48002101602B48002101602A480021C7
S3151FFF089001600C48002101600B4840F2E2410160F4
S3151FFF08A0264840F21A41016005480021016001BD3B
S3151FFF08B0DC15FF1FC815FF1F3C8004400080034047
S3151FFF08C0048003404C80034008800340CC15FF1F64
S3151FFF08D0D015FF1F00900340049003404C90034028
S3151FFF08E0089003403080044000800B4004800B407B
S3151FFF08F04C800B4008800B40388004400C8003401F
S3151FFF09000C9003400C800B4040F00F4004B0044096
S3151FFF091008B0044054800340608003406480034056
S3151FFF09205C8003406C8003407080034080800340DF
S3151FFF093090800340948003409880034010800340BB
S3151FFF094070B405001D4EAD1B08D0403D08D0403D7D
S3151FFF095008D0403D08D0403D08D009E0184C07E0BD
S3151FFF0960184C05E0184C03E0184C01E0184CFFE744
S3151FFF09704FF4807544F82150012A15D1426901248D
S3151FFF09808C4022434261012B06D10268012313FAD1
S3151FFF099001F1114301600EE00268012313FA01F111
S3151FFF09A032EA0101016006E04269012313FA01F1F0
S3151FFF09B032EA0101416170BC7047000000F00F4031
S3151FFF09C00090044000A0044000B0044000C0044053
S3151FFF09D000D00440002810D19748006850F00060EF
S3151FFF09E0954908609548006830F090009349086064
S3151FFF09F09248002101600120704701280FD19048BE
S3151FFF0A00006850F000608E4908608C48006830F41B
S3151FFF0A1010408A490860894800210160EBE70020E2
S3151FFF0A20EAE738B505000024D2B2280000F072F8B5
S3151FFF0A30002D0CD1834800680006FBD58248046849
S3151FFF0A408048006830F080007E4908600BE07F48D1
S3151FFF0A5000680006FBD57E4804687C48006830F0B6
S3151FFF0A6080007A490860200080B232BD2DE9F0412F
S3151FFF0A7004000D0016003200D2B229002000FFF736
S3151FFF0A80D0FF07003200D2B229002000FFF7C9FFAF
S3151FFF0A9080463200D2B229002000FFF7C2FF0100B5
S3151FFF0AA01FFA88F8BFB2B84502D2380047468046BC
S3151FFF0AB01FFA88F889B2884501D2404606E0BFB2C1
S3151FFF0AC089B28F4201D2080000E0380080B2BDE82C
S3151FFF0AD0F0812DE9F84304000D0016001F005FF09B
S3151FFF0AE000085FF0000909E03200D2B2290020009A
S3151FFF0AF0FFF7BCFF18FA80F819F101095FFA89F9A8
S3151FFF0B00FFB2B945F0D3FFB2B8FBF7F8404680B244
S3151FFF0B10BDE8F28310B50C000021D2B2082A06D019
S3151FFF0B200A2A08D00C2A04D0102A06D007E0002173
S3151FFF0B3006E0012104E0022102E0032100E000217B
S3151FFF0B40890011F00C0151F05001424A11704149C1
S3151FFF0B5004224A703F4941F234224A803D4945F2F9
S3151FFF0B6078628A8000282AD1042C0BDA14F01F0022
S3151FFF0B7050F04000374908723649324800F048F8AE
S3151FFF0B80012010BD201F14280AD214F01F0050F099
S3151FFF0B904000304908722F492A4800F039F8EFE71D
S3151FFF0BA01A2C0AD114F01F0050F040002949087271
S3151FFF0BB02849244800F02CF8E2E70020E1E7042C3F
S3151FFF0BC009DA14F01F0050F040002249087221492C
S3151FFF0BD01C4800F01DF8201F14280AD214F01F000E
S3151FFF0BE050F040001B4908721A49184800F010F8C8
S3151FFF0BF0C6E71A2C0AD114F01F0050F04000154902
S3151FFF0C0008721449114800F003F8B9E70020B8E746
S3151FFF0C100A7882604A78C2604A8882618A88C2617E
S3151FFF0C208A790262CA794262CA6802650A7A0260D3
S3151FFF0C30497A4160704700003C8004401880044099
S3151FFF0C403080044000B0034010B0034000B00B409B
S3151FFF0C5010B00B40AC15FF1F30B45C4B984208D148
S3151FFF0C605B4B4FF440741C605A4B4FF440741C602F
S3151FFF0C703AE0594B984208D1584B4FF440741C60C9
S3151FFF0C80574B4FF440741C602EE0564B984208D1C9
S3151FFF0C90554B4FF440741C60544B4FF440741C600B
S3151FFF0CA022E0534B984208D1524B4FF440741C60BD
S3151FFF0CB0514B4FF440741C6016E0504B984208D1BD
S3151FFF0CC04F4B4FF440741C604E4B4FF440741C60E7
S3151FFF0CD00AE04D4B984207D14C4B4FF440741C60B2
S3151FFF0CE04B4B4FF440741C60384B984206D1494B0F
S3151FFF0CF01B6853F48063474C23602DE0364B9842A5
S3151FFF0D0006D1444B1B6853F40063424C236023E018
S3151FFF0D10344B984206D13F4B1B6853F480533D4CCF
S3151FFF0D20236019E0324B984206D13A4B1B6853F4A6
S3151FFF0D300053384C23600FE0304B984206D1364B99
S3151FFF0D401B6853F48063344C236005E0324B1B68EA
S3151FFF0D5053F40063304C2360C37813F0F303C3705F
S3151FFF0D6000238370194B984208D000231A4CA042C8
S3151FFF0D7004D053F00003DBB2002B00D049184FF409
S3151FFF0D807A7303FB01F31401B3FBF4F3047814F036
S3151FFF0D90E0049BB21D0A15F01F052C430470437018
S3151FFF0DA04FF4FA4461431201B1FBF2F19BB2B1EB6F
S3151FFF0DB04311827A12F0E00411F01F012143817261
S3151FFF0DC0C17851F00C01C17030BC704700A00640BE
S3151FFF0DD018C004401CC0044000B0064010B00440B9
S3151FFF0DE00CB0044000C006400CC0044008C00440BD
S3151FFF0DF000D0064044B0044040B0044000A00E405F
S3151FFF0E0060D0044064D0044000B00E4020D00440A0
S3151FFF0E1024D00440348004402880044080B5C27823
S3151FFF0E2052F02002C270C9B2080000F004F801BDDB
S3151FFF0E302549086070475C2800DB5B20202190FB5B
S3151FFF0E40F1F1002903D0022929D014D33AE0012159
S3151FFF0E50202290FBF2F303FB120399401B4A1160FA
S3151FFF0E600121202290FBF2F303FB120311FA03F079
S3151FFF0E701749086026E00121202290FBF2F303FBAE
S3151FFF0E8012039940134A11600121202290FBF2F3AE
S3151FFF0E9003FB120311FA03F00F49086012E0012149
S3151FFF0EA0202290FBF2F303FB120399400B4A1160BA
S3151FFF0EB00121202290FBF2F303FB120311FA03F029
S3151FFF0EC0074908607047000008ED00E080E200E078
S3151FFF0ED000E100E084E200E004E100E088E200E0D8
S3151FFF0EE008E100E080B55A48006850F47850584929
S3151FFF0EF008600321022000F02FF856490860554865
S3151FFF0F0000684FF47A714843534908605248006896
S3151FFF0F1052490968C1F30361491CB0FBF1F05049FF
S3151FFF0F20086000F003F800F00CF801BD4D4800689B
S3151FFF0F3050F480504B4908604B484FF4E061016005
S3151FFF0F4070474A48006850F0010048490860484802
S3151FFF0F504FF4A0610160704780B50A00C0B2042834
S3151FFF0F6001D3002072E0D2B2102A01D301206DE017
S3151FFF0F70404A00231370404A126852F080523E4B7C
S3151FFF0F801A603E4A127852F080023C4B1A703C4A56
S3151FFF0F90982313703B4A1278D206FBD4394A12782C
S3151FFF0FA0C2F38102D2B2022AF8D1374A182313702D
S3151FFF0FB0364A00231370C0B2002805D0022819D065
S3151FFF0FC00DD3032821D02AE0012300220021002070
S3151FFF0FD000F0C6FA2D484121017032211FE003237D
S3151FFF0FE001220121002000F0BBFA28485A21017077
S3151FFF0FF0642114E0032301220121002000F0B0FA2F
S3151FFF1000224858210170602109E001230022002197
S3151FFF1010002000F0A5FA1D48402101703021194814
S3151FFF102000788006FBD5174800784006FBD5144885
S3151FFF1030007810F03F00124A107012480078C0F374
S3151FFF10408100C0B20328F8D10800C0B202BD00005C
S3151FFF105038800440D815FF1FD415FF1F4480044056
S3151FFF1060DC15FF1F04800440189004404080044095
S3151FFF10700CB00440014006403480044008C00740BE
S3151FFF10800040064006400640044006400540064015
S3151FFF10903048006850F000702E4908602E480068DF
S3151FFF10A050F080702C4908602C484FF4E0610160B6
S3151FFF10B02B484FF4E06101602A484FF4C06101607D
S3151FFF10C029484FF4C061016028484FF6FF71016040
S3151FFF10D027484FF6FF710160264800210160264809
S3151FFF10E0002101602548006850F00400234908606D
S3151FFF10F02348006850F00400214908601F48006814
S3151FFF110050F001001D4908601D48006850F001009E
S3151FFF11101B4908601B48006850F001001949086009
S3151FFF11201948006850F00100174908601648006803
S3151FFF113030F00800144908601248006830F00800B4
S3151FFF11401049086011480021016011480021016004
S3151FFF1150704700BF3C8004403080044030900440FD
S3151FFF11603490044048A004404CA00440089003401C
S3151FFF117008800B404C9003404C800B40549003401B
S3151FFF118054800B408090034080800B4004900340A7
S3151FFF119004800B4080B500F039F840F6B83000F0F8
S3151FFF11A069F864230C220D210020FFF792FC2949C1
S3151FFF11B0086064230C220E210020FFF78AFC2649B4
S3151FFF11C0086002E02548002101702548006825496F
S3151FFF11D000F056F805D922480068234900F062F847
S3151FFF11E0F0D21E48007804280AD3002200210020CF
S3151FFF11F0FFF7A0FA002201210020FFF79BFAE4E781
S3151FFF120016480078401C15490870DEE780B572B690
S3151FFF12104FF41652154801681548FFF71DFD42F298
S3151FFF122010710020FFF712F9FFF7D3FA0020FFF71F
S3151FFF1230D1FB2D210E48FFF7F1FD42F21071002061
S3151FFF124000F042F8002000F06EF8FFF721FF62B6AC
S3151FFF125001BD0000BC15FF1FC015FF1FE015FF1FB7
S3151FFF1260C415FF1F00002042FFFF47C2DC15FF1FEB
S3151FFF127000D00640002100E0491C8142FCD3704785
S3151FFF12804FF0807C1CEB400F94BF1CEB410F05E01A
S3151FFF129040EA010C5FEA4C0C01D28142704718BF2E
S3151FFF12A0884270474FF0807C1CEB400F94BF1CEBAE
S3151FFF12B0410F05E040EA010C5FEA4C0C01D2884260
S3151FFF12C0704718BF814270472A4A126852F40002BC
S3151FFF12D0284B1A60284A126832F00202264B1A6000
S3151FFF12E0254A126852F00102234B1A60C0B202014F
S3151FFF12F0224BD150C0B2214911EB0011896851F021
S3151FFF13000101C0B21D4A12EB00129160C0B21B4908
S3151FFF131011EB0011896831F00201C0B2174A12EBB7
S3151FFF132000108160704780B5C0B2144911EB0011E0
S3151FFF1330896851F00201C0B2104A12EB0012916088
S3151FFF1340C0B2002805D002280BD006D303280CD025
S3151FFF13500EE04420FFF76FFD0AE04520FFF76BFD08
S3151FFF136006E04620FFF767FD02E04720FFF763FD14
S3151FFF137001BD00003C800440007003400071034024
S3151FFF138080B500F055F800F005F8FFF7ABFDFFF746
S3151FFF139001FF01BD80B51C481C4988420BD00020A8
S3151FFF13A006E01949194A52F8202041F82020401C0F
S3151FFF13B0B0F5826FF5D31448FFF73AFD1449154A66
S3151FFF13C01548801A03E013780B70521C491C030043
S3151FFF13D0581E002BF7D111491148401A02E000226F
S3151FFF13E00A70491C0200501E002AF8D10D490E4AE9
S3151FFF13F00E48801A03E013780B70521C491C03001A
S3151FFF1400581E002BF7D101BD0000FF1F0000FF1F55
S3151FFF1410000000000000000000000000AC15FF1FC9
S3151FFF1420E115FF1F6015FF1F6814FF1FB414FF1F71
S3151FFF143080B500F009F80A4800884FF6FE7108408C
S3151FFF14400749088001BD000072B606484CF22051BD
S3151FFF1450018004484DF62811018062B670470000CF
S3151FFF1460002005400E20054070B4104C24680F4D18
S3151FFF14702D6855F47F050D4E3560090611F0706115
S3151FFF148051EA0070110511F470010843190411F494
S3151FFF14907021084306490860002000E0401CC0B2C7
S3151FFF14A09842FBD30148046070BC704700F00140AF
S3151FFF14B04480044010B5084979441C31074C7C44CD
S3151FFF14C01A34A14206D0081D0A68511888470146DB
S3151FFF14D0A142F8D110BD00BF2C000000380000004C
S3151FFF14E050F8041B61B150F8042BD30744BFA9F171
S3151FFF14F001039A18002342F8043B091FFAD1EFE7AD
S3151FFF150070477047DDFFFFFF38000000AC15FF1F58
S3151FFF15100000000000F009F8002801D0FFF7CAFFFE
S3151FFF15200020FFF737FE00F002F80120704700F09A
S3151FFF153001B800000746384600F002F8FBE7000037
S3151FFF154080B5C046C046024A11001820ABBEFBE756
S3151FFF155026000200C046C046C046C046FFF7DAFF58
S7051FFF155572
