S01300004C515F4144435F554152542E73726563B2
S3151FFF0000F8FF00201104FF1F630BFF1F630BFF1F6A
S3151FFF0010630BFF1F630BFF1F630BFF1F630BFF1F8C
S3151FFF0020630BFF1F630BFF1F630BFF1F630BFF1F7C
S3151FFF0030630BFF1F630BFF1F630BFF1F630BFF1F6C
S3151FFF0040630BFF1F630BFF1F630BFF1F630BFF1F5C
S3151FFF0400FFFFFFFFFFFFFFFFFFFFFFFFFEFFFFFFD9
S3151FFF04104FF000004FF000014FF000024FF00003B6
S3151FFF04204FF000044FF000054FF000064FF0000796
S3151FFF04304FF000084FF000094FF0000A4FF0000B76
S3151FFF04404FF0000C62B600F063FCFEE738B572B6DC
S3151FFF045001221121DFF8DC0200F0D0F94FF416520A
S3151FFF0460DFF8D4020168DFF8D40200F0D1F90020CB
S3151FFF047000F045F8012000F042F80FF2E421DFF803
S3151FFF0480BC0200F0BBFA0FF2F821DFF8B00200F052
S3151FFF0490B5FA0FF20C31DFF8A40200F0AFFA0FF234
S3151FFF04A02431DFF8980200F0A9FA641C0A2C04D342
S3151FFF04B01121A04800F0A8F900240A230A221021BF
S3151FFF04C0002000F09BF805008FA19C4800F096FACC
S3151FFF04D0ADB22900994800F0CCFA0FF20C319748BC
S3151FFF04E000F08CFA0A2310221021012000F086F853
S3151FFF04F00500ADB22900914800F0BBFAD5E70028E9
S3151FFF050010D18F48006850F000608D4908608D48F4
S3151FFF0510006830F090008B4908608A48002101600F
S3151FFF05200120704701280FD18748006850F00060EF
S3151FFF0530854908608348006830F410408149086088
S3151FFF0540804800210160EBE70020EAE738B5050088
S3151FFF05500024D2B2280000F072F8002D0CD17B4880
S3151FFF056000680006FBD57A4804687848006830F0B3
S3151FFF05708000764908600BE0764800680006FBD5C9
S3151FFF0580754804687348006830F080007149086039
S3151FFF0590200080B232BD2DE9F04104000D00160088
S3151FFF05A03200D2B229002000FFF7D0FF070032002A
S3151FFF05B0D2B229002000FFF7C9FF80463200D2B210
S3151FFF05C029002000FFF7C2FF01001FFA88F8BFB2FC
S3151FFF05D0B84502D23800474680461FFA88F889B2C7
S3151FFF05E0884501D2404606E0BFB289B28F4201D28B
S3151FFF05F0080000E0380080B2BDE8F0812DE9F8431E
S3151FFF060004000D0016001F005FF000085FF00009D1
S3151FFF061009E03200D2B229002000FFF7BCFF18FA0B
S3151FFF062080F819F101095FFA89F9FFB2B945F0D3CD
S3151FFF0630FFB2B8FBF7F8404680B2BDE8F28380B53C
S3151FFF06400023D2B2082A06D00A2A08D00C2A04D0C1
S3151FFF0650102A06D007E0002306E0012304E0022349
S3151FFF066002E0032300E000239A0012F00C0252F06F
S3151FFF067050023A4B1A70394A04235370374A41F2D4
S3151FFF068034235380354A45F27863938000281DD162
S3151FFF0690081F14280BD211F01F0050F040002F49DE
S3151FFF06A008722E49294800F031F8012002BD1A2988
S3151FFF06B00AD111F01F0050F0400028490872274940
S3151FFF06C0224800F023F8F0E70020EFE7081F142861
S3151FFF06D00AD211F01F0050F04000204908721F492F
S3151FFF06E01C4800F013F8E0E71A290AD111F01F0082
S3151FFF06F050F04000194908721849164800F006F8CD
S3151FFF0700D3E70020D2E700000D0A00000A788260B7
S3151FFF07104A78C2604A8882618A88C2618A79026280
S3151FFF0720CA794262CA6802650A7A0260497A4160DB
S3151FFF07307047000000F00F40400FFF1F00A006404C
S3151FFF07403C800440188004403080044000B00340C2
S3151FFF075010B0034000B00B4010B00B40280FFF1F17
S3151FFF076057656C636F6D6520746F204B3630204164
S3151FFF07704443204578616D706C650D0A00000000CB
S3151FFF0780507265706172696E6720666F7220414491
S3151FFF079043206F706572617465210D0A00000000AA
S3151FFF07A0537461727420414443302E2E2E2E2E2EEB
S3151FFF07B02E09616363757261637920697320313016
S3151FFF07C02E0D0A00537461727420414443312E2E3D
S3151FFF07D02E2E2E2E2E096163637572616379206932
S3151FFF07E0732031362E0D0A00092D2D2D2D2D2D2D62
S3151FFF07F02D2D2D2D2D2D2D2D0000000080B5130025
S3151FFF0800012200F05DF901BD80B500F0A3F901BD1E
S3151FFF081030B45C4B984208D15B4B4FF440741C605D
S3151FFF08205A4B4FF440741C603AE0594B984208D11B
S3151FFF0830584B4FF440741C60574B4FF440741C6069
S3151FFF08402EE0564B984208D1554B4FF440741C600F
S3151FFF0850544B4FF440741C6022E0534B984208D10F
S3151FFF0860524B4FF440741C60514B4FF440741C6045
S3151FFF087016E0504B984208D14F4B4FF440741C6003
S3151FFF08804E4B4FF440741C600AE04D4B984207D104
S3151FFF08904C4B4FF440741C604B4B4FF440741C6021
S3151FFF08A0384B984206D1494B1B6853F48063474C1C
S3151FFF08B023602DE0364B984206D1444B1B6853F4F9
S3151FFF08C00063424C236023E0344B984206D13F4BD3
S3151FFF08D01B6853F480533D4C236019E0324B9842FB
S3151FFF08E006D13A4B1B6853F40053384C23600FE075
S3151FFF08F0304B984206D1364B1B6853F48063344CFA
S3151FFF0900236005E0324B1B6853F40063304C2360B2
S3151FFF0910C37813F0F303C37000238370194B9842F8
S3151FFF092008D000231A4CA04204D053F00003DBB2B9
S3151FFF0930002B00D049184FF47A7303FB01F3140100
S3151FFF0940B3FBF4F3047814F0E0049BB21D0A15F011
S3151FFF09501F052C43047043704FF4FA446143120181
S3151FFF0960B1FBF2F19BB2B1EB4311827A12F0E004B5
S3151FFF097011F01F0121438172C17851F00C01C17023
S3151FFF098030BC704700A0064018C004401CC004407E
S3151FFF099000B0064010B004400CB0044000C0064033
S3151FFF09A00CC0044008C0044000D0064044B00440B9
S3151FFF09B040B0044000A00E4060D0044064D0044005
S3151FFF09C000B00E4020D0044024D0044034800440A1
S3151FFF09D02880044002791206FCD5C1717047F8B50D
S3151FFF09E004000D001600002704E0795D2000FFF7C5
S3151FFF09F0F1FF7F1CB6B2B742F7DBF1BD70B504003E
S3151FFF0A000D00002604E0715D2000FFF7E3FF761C53
S3151FFF0A10705D0028F7D170BD3EB400230024002A65
S3151FFF0A2001D5012023E00023002A10D101230B60EB
S3151FFF0A303021017000201AE00A2492FBF4F504FB13
S3151FFF0A40152400AD5C555B1C0A2492FBF4F2012AA8
S3151FFF0A50F2DA0B60002407E0191B00AA891811F8A8
S3151FFF0A60011C30312154641C9C42F5DB00203EBC27
S3151FFF0A7070471FB50400002000900A0000A901A8B7
S3151FFF0A80FFF7CAFF002807D1009A92B201A92000DB
S3151FFF0A90FFF7A5FF012000E0002004B010BD50F8AE
S3151FFF0AA0041B61B150F8042BD30744BFA9F10103FF
S3151FFF0AB09A18002342F8043B091FFAD1EFE7704744
S3151FFF0AC070B405001D4EAD1B08D0403D08D0403DFC
S3151FFF0AD008D0403D08D0403D08D009E0184C07E03C
S3151FFF0AE0184C05E0184C03E0184C01E0184CFFE7C3
S3151FFF0AF04FF4807544F82150012A15D1426901240C
S3151FFF0B008C4022434261012B06D10268012313FA4F
S3151FFF0B1001F1114301600EE00268012313FA01F18F
S3151FFF0B2032EA0101016006E04269012313FA01F16E
S3151FFF0B3032EA0101416170BC7047000000F00F40AF
S3151FFF0B400090044000A0044000B0044000C00440D1
S3151FFF0B5000D004400268012313FA01F151400160DE
S3151FFF0B607047704780B55A48006850F47850584907
S3151FFF0B7008600321022000F02FF8564908605548E8
S3151FFF0B8000684FF47A71484353490860524800681A
S3151FFF0B9052490968C1F30361491CB0FBF1F0504983
S3151FFF0BA0086000F003F800F00CF801BD4D4800681F
S3151FFF0BB050F480504B4908604B484FF4E061016089
S3151FFF0BC070474A48006850F0010048490860484886
S3151FFF0BD04FF4A0610160704780B50A00C0B20428B8
S3151FFF0BE001D3002072E0D2B2102A01D301206DE09B
S3151FFF0BF0404A00231370404A126852F080523E4B00
S3151FFF0C001A603E4A127852F080023C4B1A703C4AD9
S3151FFF0C10982313703B4A1278D206FBD4394A1278AF
S3151FFF0C20C2F38102D2B2022AF8D1374A18231370B0
S3151FFF0C30364A00231370C0B2002805D0022819D0E8
S3151FFF0C400DD3032821D02AE00123002200210020F3
S3151FFF0C5000F044F92D484121017032211FE0032383
S3151FFF0C6001220121002000F039F928485A2101707D
S3151FFF0C70642114E0032301220121002000F02EF935
S3151FFF0C80224858210170602109E00123002200211B
S3151FFF0C90002000F023F91D4840210170302119481B
S3151FFF0CA000788006FBD5174800784006FBD5144809
S3151FFF0CB0007810F03F00124A107012480078C0F3F8
S3151FFF0CC08100C0B20328F8D10800C0B202BD0000E0
S3151FFF0CD0388004403C0FFF1F380FFF1F448004401E
S3151FFF0CE0400FFF1F048004401890044040800440BB
S3151FFF0CF00CB00440014006403480044008C0074042
S3151FFF0D000040064006400640044006400540064098
S3151FFF0D1080B500F055F800F005F8FFF723FFFFF742
S3151FFF0D2095FB01BD80B51C481C4988420BD000208E
S3151FFF0D3006E01949194A52F8202041F82020401C85
S3151FFF0D40B0F5826FF5D3144800F056F81449154ACB
S3151FFF0D501548801A03E013780B70521C491C0300B9
S3151FFF0D60581E002BF7D111491148401A02E00022E5
S3151FFF0D700A70491C0200501E002AF8D10D490E4A5F
S3151FFF0D800E48801A03E013780B70521C491C030090
S3151FFF0D90581E002BF7D101BD0000FF1F0000FF1FCC
S3151FFF0DA0000000000000000000000000280FFF1FCA
S3151FFF0DB0440FFF1FDC0EFF1F040EFF1F500EFF1FEA
S3151FFF0DC080B500F009F80A4800884FF6FE71084003
S3151FFF0DD00749088001BD000072B606484CF2205134
S3151FFF0DE0018004484DF62811018062B67047000046
S3151FFF0DF0002005400E20054001490860704700008E
S3151FFF0E0008ED00E070B4104C24680F4D2D6855F4A3
S3151FFF0E107F050D4E3560090611F0706151EA0070AE
S3151FFF0E20110511F470010843190411F470210843C9
S3151FFF0E3006490860002000E0401CC0B29842FBD361
S3151FFF0E400148046070BC704700F0014044800440B5
S3151FFF0E5010B5084979441C31074C7C441A34A1420A
S3151FFF0E6006D0081D0A68511888470146A142F8D1C6
S3151FFF0E7010BD00BF080000001400000023FCFFFF89
S3151FFF0E801C000000280FFF1F0000000000F009F8DC
S3151FFF0E90002801D0FFF7DCFF0020FFF7D7FA00F08D
S3151FFF0EA002F80120704780B500F002B800BF0000AE
S3151FFF0EB00746384600F002F8FBE7000080B5C0463C
S3151FFF0EC0C046024A11001820ABBEFBE726000200F0
S3111FFF0ED0C046C046C046C046FFF7D8FF0D
S7051FFF0ED1FD
