S018000050686F746F656C6563747269634361722E73726563A1
S3151FFF0000F8FF00201104FF1F2F16FF1F2F16FF1FBC
S3151FFF00102F16FF1F2F16FF1F2F16FF1F2F16FF1F30
S3151FFF00202F16FF1F2F16FF1F2F16FF1F2F16FF1F20
S3151FFF00302F16FF1F2F16FF1F2F16FF1F2F16FF1F10
S3151FFF00402F16FF1F2F16FF1F2F16FF1F2F16FF1F00
S3151FFF00502F16FF1F2F16FF1F2F16FF1F2F16FF1FF0
S3151FFF00602F16FF1F2F16FF1F2F16FF1F2F16FF1FE0
S3151FFF00702F16FF1F2F16FF1F2F16FF1F2F16FF1FD0
S3151FFF00802F16FF1F2F16FF1F2F16FF1F2F16FF1FC0
S3151FFF00902F16FF1F2F16FF1F2F16FF1F2F16FF1FB0
S3151FFF00A02F16FF1F2F16FF1F2F16FF1F2F16FF1FA0
S3151FFF00B02F16FF1F2F16FF1F2F16FF1F2F16FF1F90
S3151FFF00C02F16FF1F2F16FF1F2F16FF1F2F16FF1F80
S3151FFF00D02F16FF1F2F16FF1F2F16FF1F2F16FF1F70
S3151FFF00E02F16FF1F2F16FF1F2F16FF1F2F16FF1F60
S3151FFF00F02F16FF1F2F16FF1F2F16FF1F2F16FF1F50
S3151FFF01002F16FF1F2F16FF1F2F16FF1F2F16FF1F3F
S3151FFF01102F16FF1F2F16FF1F2F16FF1F2F16FF1F2F
S3151FFF01202F16FF1F2F16FF1F2F16FF1F2F16FF1F1F
S3151FFF01302F16FF1F2F16FF1F2F16FF1F2F16FF1F0F
S3151FFF01402F16FF1F2F16FF1F2F16FF1F2F16FF1FFF
S3151FFF0150E92CFF1F2F16FF1F2F16FF1F2F16FF1F1F
S3151FFF01602F16FF1F2F16FF1F2F16FF1F2F16FF1FDF
S3151FFF01702F16FF1F2F16FF1F2F16FF1F2F16FF1FCF
S3151FFF01802F16FF1F2F16FF1F2F16FF1F2F16FF1FBF
S3151FFF01902F16FF1F2F16FF1F2F16FF1F2F16FF1FAF
S3151FFF0400FFFFFFFFFFFFFFFFFFFFFFFFFEFFFFFFD9
S3151FFF04104FF000004FF000014FF000024FF00003B6
S3151FFF04204FF000044FF000054FF000064FF0000796
S3151FFF04304FF000084FF000094FF0000A4FF0000B76
S3151FFF04404FF0000C62B602F0EDFCFEE780B501230C
S3151FFF045001220021DFF8AC0900F060FD0123012214
S3151FFF04600121DFF8A00900F059FD012301220A210E
S3151FFF0470DFF8D00900F052FD012301220B21DFF81F
S3151FFF0480C40900F04BFD012000F092FD01BD80B5B0
S3151FFF0490DFF8A80900684FF400710843DFF89C19BD
S3151FFF04A00860DFF89C094FF480710160002300226A
S3151FFF04B01321DFF8940900F031FD01BD10B50123AB
S3151FFF04C001220021DFF83C0900F028FD00F024FB84
S3151FFF04D0012301220121DFF82C0900F01FFD00F087
S3151FFF04E01BFB002301220021DFF8180900F016FD70
S3151FFF04F000F012FB002301220121DFF8080900F09B
S3151FFF05000DFD002416E000F007FB00F005FB01239D
S3151FFF051001220121DFF8EC0800F000FD00F0FCFAD4
S3151FFF052000F0FAFA002301220121DFF8D80800F0B4
S3151FFF0530F5FC641CE4B27F2CE5D300F0EDFA00F066
S3151FFF0540EBFA012301220121DFF8B80800F0E6FCD0
S3151FFF055000F0E2FA00F0E0FA002301220121DFF8A2
S3151FFF0560A40800F0DBFC10BD10B5012301220B21EF
S3151FFF0570DFF8D00800F0D2FC00F0CEFA01230122EB
S3151FFF05800A21DFF8C00800F0C9FC00F0C5FA0023F6
S3151FFF059001220B21DFF8AC0800F0C0FC00F0BCFA0B
S3151FFF05A0002301220A21DFF89C0800F0B7FC002474
S3151FFF05B016E000F0B1FA00F0AFFA012301220A217B
S3151FFF05C0DFF8800800F0AAFC00F0A6FA00F0A4FAF4
S3151FFF05D0002301220A21DFF86C0800F09FFC641C30
S3151FFF05E0E4B27F2CE5D300F097FA00F095FA0123CA
S3151FFF05F001220A21DFF84C0800F090FC00F08CFA6C
S3151FFF060000F08AFA002301220A21DFF8380800F0DA
S3151FFF061085FC10BD38B50400012301220021DFF838
S3151FFF0620E40700F07BFC00F077FA0123012201218A
S3151FFF0630DFF8D00700F072FC00F06EFA00230122EC
S3151FFF06400021DFF8C00700F069FC00F065FA0025FE
S3151FFF065002E000F061FA6D1CEDB2322DF9D30822CC
S3151FFF06600621012000F0CBFC2070641C0023012211
S3151FFF06700121DFF8900700F051FC00251DE000F077
S3151FFF06804BFA00F049FA012301220121DFF8740713
S3151FFF069000F044FC00F040FA00F03EFA0822062163
S3151FFF06A0012000F0ACFC2070641C002301220121F5
S3151FFF06B0DFF8500700F032FC6D1CEDB27F2DDED345
S3151FFF06C000F02AFA00F028FA012301220121DFF8A0
S3151FFF06D0340700F023FC00F01FFA00F01DFA002379
S3151FFF06E001220121DFF81C0700F018FC31BD38B5C8
S3151FFF06F00400012301220B21DFF8480700F00EFC3F
S3151FFF070000F00AFA012301220A21DFF8380700F059
S3151FFF071005FC00F001FA002301220B21DFF8240755
S3151FFF072000F0FCFB00F0F8F9002502E000F0F4F9F9
S3151FFF07306D1CEDB2322DF9D308220721012000F0DF
S3151FFF07405EFC2070641C002301220A21DFF8F406D9
S3151FFF075000F0E4FB00251DE000F0DEF900F0DCF9F8
S3151FFF0760012301220A21DFF8DC0600F0D7FB00F088
S3151FFF0770D3F900F0D1F908220721012000F03FFC31
S3151FFF07802070641C002301220A21DFF8B80600F03F
S3151FFF0790C5FB6D1CEDB27F2DDED300F0BDF900F05A
S3151FFF07A0BBF9012301220A21DFF8980600F0B6FBE9
S3151FFF07B000F0B2F900F0B0F9002301220A21DFF899
S3151FFF07C0840600F0ABFB31BD80B5DFF880168020B5
S3151FFF07D000F0A0F8DFF878160870DFF874060078C7
S3151FFF07E019214843802190FBF1F0DFF86816087046
S3151FFF07F0DFF864060088DFF85C160978401ADFF811
S3151FFF08005C160880DFF85406B0F90000DFF85016B3
S3151FFF0810B1F90010C84206DADFF848060078401E15
S3151FFF0820DFF840160870DFF83806B0F90000DFF86A
S3151FFF08302C16B1F90010884206DADFF82806007871
S3151FFF0840401CDFF820160870DFF81806007802280C
S3151FFF085003D2DFF8100601210170DFF808060078C2
S3151FFF0860142803D3DFF8FC051421017001BD80B5E1
S3151FFF0870DFF8F415802000F04DF8DFF8F01508704B
S3151FFF0880DFF8E805007819214843802190FBF1F036
S3151FFF0890DFF8DC150870DFF8C0050088DFF8D01514
S3151FFF08A00978401ADFF8B4150880DFF8B005B0F9EC
S3151FFF08B00000DFF8AC15B1F90010C84206DADFF801
S3151FFF08C0B4050078401EDFF8AC150870DFF89005F9
S3151FFF08D0B0F90000DFF88415B1F90010884206DA77
S3151FFF08E0DFF890050078401CDFF888150870DFF8E1
S3151FFF08F084050078022803D2DFF8780501210170ED
S3151FFF0900DFF870050078142803D3DFF86805142174
S3151FFF0910017001BD10B40023002204E00C7853FAC6
S3151FFF092084F3491C521CD2B2C0B28242F6D39BB289
S3151FFF0930C0B293FBF0F0C0B210BC7047DFF83805AA
S3151FFF0940FF2101807F2000E0401E00B2032810DB3D
S3151FFF095000B2DFF8F814415C00B2DFF8F02482180A
S3151FFF096012F8032C891A1F29EEDBC01EDFF80815A4
S3151FFF09700880DFF808050088DFF8FC140988401A8D
S3151FFF0980DFF8FC1408807047DFF8F804FF210180A9
S3151FFF0990002000E0401C00B27D280FDA00B2DFF80E
S3151FFF09A0C814415C00B2DFF8C0248218D278891AB6
S3151FFF09B01F29EFDBC01CDFF8CC140880DFF8C80443
S3151FFF09C00088DFF8C0140988401ADFF8C0140880B2
S3151FFF09D0704780B5DFF87404FFF71CFEFFF7F4FEC0
S3151FFF09E0DFF88404FFF783FEFFF741FFFFF7A6FF3C
S3151FFF09F0FFF7CAFFDFF898040088DFF87C14098821
S3151FFF0A000818DFF88C140880DFF888040088DFF8E1
S3151FFF0A10741409880818DFF87C14088001BDDFF8F5
S3151FFF0A205804B0F90000FF2814D0DFF85804B0F9B6
S3151FFF0A300000FF280ED0DFF84804B0F90000DFF8EA
S3151FFF0A404C14B1F900100818022190FBF1F0DFF8E2
S3151FFF0A5048140880DFF82004B0F90000FF280BD0E8
S3151FFF0A60DFF82004B0F90000FF2805D1DFF82804BE
S3151FFF0A70DFF80C1409880180DFF8FC03B0F90000CA
S3151FFF0A80FF280BD1DFF8FC03B0F90000FF2805D0C4
S3151FFF0A90DFF80404DFF8F41309880180DFF8D803B1
S3151FFF0AA0B0F90000FF2810D1DFF8D803B0F9000016
S3151FFF0AB0FF280AD1DFF8E003B0F900004000032149
S3151FFF0AC090FBF1F0DFF8D0130880704780B5DFF891
S3151FFF0AD0AC03B0F9002000210A2000F0B2FCDFF8BA
S3151FFF0AE0A803B0F900200021462000F0AAFCDFF87A
S3151FFF0AF08803B0F9002002210A2000F0A2FCDFF8CC
S3151FFF0B008403B0F900200221462000F09AFC322010
S3151FFF0B1000F008FD01BD000081B000208DF8000028
S3151FFF0B2006E000BF00BF9DF80000401C8DF80000C7
S3151FFF0B309DF800000128F4D301B0704700B5DFF818
S3151FFF0B4060030068DFF85C1340420880DFF8580334
S3151FFF0B500068002100F00AFD07D3DFF84803B0F94C
S3151FFF0B6000004042DFF83C130880DFF8400300888F
S3151FFF0B70DFF8301309880818DFF830130880DFF80D
S3151FFF0B8020030021016000BD30B5DFF82003B0F957
S3151FFF0B90000000F0FDFCDFF818130860DFF80C03F8
S3151FFF0BA000210180DFF80803006800F019FDDFF858
S3151FFF0BB00423DFF8043300F03BFD00F00BFEDFF8E4
S3151FFF0BC0F0120860DFF8F4020068DFF8F41200F095
S3151FFF0BD049FE09D2DFF8E4020168DFF8E80200F0F8
S3151FFF0BE053FEDFF8D8120860DFF8D0020068DFF87F
S3151FFF0BF0D81200F0BBFC09D8DFF8C0020168DFF886
S3151FFF0C00CC0200F041FEDFF8B4120860DFF8C00225
S3151FFF0C10B0F900001E2809DADFF8A0020068DFF826
S3151FFF0C209012096800F072FE050007E0DFF89002D8
S3151FFF0C30DFF87C12096800F069FE0500DFF87C0209
S3151FFF0C400068DFF86C12096800F060FE05002800D7
S3151FFF0C5000F0C6FCDFF87C22DFF87C3200F0E8FCF0
S3151FFF0C6000F0B8FD0400280000F0BAFCDFF86C2284
S3151FFF0C70DFF86C3200F0DCFC00F0ACFDDFF864122D
S3151FFF0C80096800F001FEDFF85C120860DFF8540206
S3151FFF0C900068DFF8541200F069FC04D8DFF844023D
S3151FFF0CA0DFF848120160DFF83C020068DFF84012E8
S3151FFF0CB000F0D8FD04D2DFF82C02DFF834120160F2
S3151FFF0CC0DFF83002DFF8301209680160DFF814021F
S3151FFF0CD00068210000F0D8FDDFF81C12086030BD48
S3151FFF0CE010B5DFF814020068DFF80812096800F074
S3151FFF0CF00DFE0400DFF804020078401C00F048FCDC
S3151FFF0D00210000F077FEDFF8F81100F0DFFEDFF8B5
S3151FFF0D10E411096800F0B8FDDFF8E811086010BD9F
S3151FFF0D2080B5DFF8E0010068DFF8DC1100F01EFC7C
S3151FFF0D3001D85FF07E50DFF8D41100F093FD01D28A
S3151FFF0D40DFF8C801DFF86011086000F001F801BD88
S3151FFF0D5080B555480068DFF8B01100F007FC01D8D1
S3151FFF0D605FF07E50DFF8A41100F07CFD01D2DFF8A3
S3151FFF0D709C0100F001F801BD38B5040040F2E245C1
S3151FFF0D802000DFF8841100F0F1FB02D85FF07E54DC
S3151FFF0D9007E02000DFF8741100F064FD01D2DFF8D1
S3151FFF0DA06C412000002100F0E1FB14D20123012238
S3151FFF0DB00921574800F0B2F82DB2280000F0E8FBD2
S3151FFF0DC0210000F017FE00F0FFFE2DB200B2281A19
S3151FFF0DD03249086013E00023012209214C4800F025
S3151FFF0DE09DF894F000442DB2280000F0D1FB21009E
S3151FFF0DF000F000FE00F0E8FE284900B2086031BD92
S3151FFF0E000000000000F10F4080B542480068000354
S3151FFF0E1013D40A2000F086FB3E48006800030CD45B
S3151FFF0E203D48FF2101703C48027804210A2000F04B
S3151FFF0E3008FB384800680003FBD501BD3880044016
S3151FFF0E404C90044080F00F4000F00F406830FF1FAA
S3151FFF0E508F31FF1F9031FF1F3430FF1F8A31FF1F56
S3151FFF0E603630FF1F3830FF1FE830FF1F9131FF1F3E
S3151FFF0E709231FF1F3930FF1F7C31FF1F8431FF1F48
S3151FFF0E808031FF1F7E31FF1F8631FF1F8231FF1FFC
S3151FFF0E907431FF1F7631FF1F7831FF1F108003400C
S3151FFF0EA0049003407A31FF1F6430FF1F8831FF1FF5
S3151FFF0EB04C30FF1F7B14AE47E17A943F5030FF1F24
S3151FFF0EC00000A0410000A0400100A0410000A0C0FB
S3151FFF0ED08C31FF1FBA490C022B87A63F691D554D43
S3151FFF0EE01075FF3E5430FF1F0100204100002041B7
S3151FFF0EF0000020C15830FF1F5C30FF1F8E31FF1FC0
S3151FFF0F000000C8426030FF1F0100803F000080BF06
S3151FFF0F1040F00F4010F00F409931FF1F70B40500CE
S3151FFF0F201D4EAD1B08D0403D08D0403D08D0403D6B
S3151FFF0F3008D0403D08D009E0184C07E0184C05E0E3
S3151FFF0F40184C03E0184C01E0184CFFE74FF480756F
S3151FFF0F5044F82150012A15D1426901248C402243AE
S3151FFF0F604261012B06D10268012313FA01F11143D6
S3151FFF0F7001600EE00268012313FA01F132EA010153
S3151FFF0F80016006E04269012313FA01F132EA01010A
S3151FFF0F90416170BC7047000000F00F400090044095
S3151FFF0FA000A0044000B0044000C0044000D004402D
S3151FFF0FB0002810D16D48006850F000606B4908602B
S3151FFF0FC06B48006830F09000694908606848002147
S3151FFF0FD001600120704701280FD16648006850F055
S3151FFF0FE00060644908606248006830F41040604939
S3151FFF0FF008605F4800210160EBE70020EAE738B58C
S3151FFF100005000024D2B2280000F01EF8002D0CD1D7
S3151FFF1010594800680006FBD55848046856480068BB
S3151FFF102030F08000544908600BE055480068000601
S3151FFF1030FBD5544804685248006830F08000504979
S3151FFF10400860200080B232BD10B50C000021D2B25D
S3151FFF1050082A06D00A2A08D00C2A04D0102A06D03E
S3151FFF106007E0002106E0012104E0022102E003213F
S3151FFF107000E00021890011F00C0151F05001424A96
S3151FFF10801170414904224A703F4941F234224A8076
S3151FFF10903D4945F278628A8000282AD1042C0BDA53
S3151FFF10A014F01F0050F04000374908723649324886
S3151FFF10B000F048F8012010BD201F14280AD214F093
S3151FFF10C01F0050F04000304908722F492A4800F090
S3151FFF10D039F8EFE71A2C0AD114F01F0050F0400021
S3151FFF10E0294908722849244800F02CF8E2E7002016
S3151FFF10F0E1E7042C09DA14F01F0050F040002249E3
S3151FFF1100087221491C4800F01DF8201F14280AD217
S3151FFF111014F01F0050F040001B4908721A49184867
S3151FFF112000F010F8C6E71A2C0AD114F01F0050F072
S3151FFF11304000154908721449114800F003F8B9E732
S3151FFF11400020B8E70A7882604A78C2604A888261BF
S3151FFF11508A88C2618A790262CA794262CA6802654F
S3151FFF11600A7A0260497A4160704700003C8004405A
S3151FFF1170188004403080044000B0034010B0034085
S3151FFF118000B00B4010B00B403C30FF1F0821DFF8AB
S3151FFF11907823126852F40032DFF86C331A6000BFEF
S3151FFF11A0DFF86423126832F48042DFF85C331A607B
S3151FFF11B000BF19E0DFF85023126832F40042DFF850
S3151FFF11C048331A60DFF84023126852F48042DFF873
S3151FFF11D038331A6000BFDFF83023126832F48042BB
S3151FFF11E0DFF824331A6040000A00511ED2B2002ACC
S3151FFF11F00AD00206DED5DFF81023126852F400422A
S3151FFF1200DFF804331A60DDE7704700000821DFF8B7
S3151FFF1210F822126832F40032DFF8EC321A60DFF878
S3151FFF1220E822126832F48042DFF8DC321A6019E0D6
S3151FFF1230DFF8D422126832F40042DFF8CC321A608C
S3151FFF1240DFF8C422126852F48042DFF8BC321A60FC
S3151FFF125000BFDFF8B422126832F48042DFF8A832EB
S3151FFF12601A6040000A00511ED2B2002A0AD0020697
S3151FFF1270DED5DFF89422126852F40042DFF8883277
S3151FFF12801A60DDE7704710B50400B1F15000C0B218
S3151FFF1290FFF7BCFFE4B2200950F01000C0B2FFF702
S3151FFF12A0B5FF14F00F0050F00100C0B2FFF7AEFFFD
S3151FFF12B010BD70B50400002508E02000C0B2FFF77F
S3151FFF12C065FF761CF6B2802EF7D36D1CEDB2082D87
S3151FFF12D00CD2B5F15000C0B2FFF798FF0120FFF700
S3151FFF12E095FF1020FFF792FF0026EBE770BD07E083
S3151FFF12F043F226410A00511E92B2002AFAD1401E1E
S3151FFF130080B20028F4D1704780B5DFF800024FF492
S3151FFF131080710160DFF8F8014FF480710160DFF81B
S3151FFF1320F4014FF480710160DFF8EC014FF4807117
S3151FFF13300160DFF8E8015FF470310160DFF8C80173
S3151FFF1340006850F48040DFF8C0110860DFF8B8016D
S3151FFF1350006830F48030DFF8B01108603220FFF7E5
S3151FFF1360C6FFDFF8A401006850F48030DFF898113C
S3151FFF13700860AE20FFF74AFF0020FFF747FF102048
S3151FFF1380FFF744FF4020FFF741FF8120FFF73EFF96
S3151FFF1390CF20FFF73BFFA120FFF738FFC820FFF73E
S3151FFF13A035FFA620FFF732FFA820FFF72FFF3F20AD
S3151FFF13B0FFF72CFFD320FFF729FF0020FFF726FF9C
S3151FFF13C0D520FFF723FF8020FFF720FFD920FFF748
S3151FFF13D01DFFF120FFF71AFFDA20FFF717FF122075
S3151FFF13E0FFF714FFDB20FFF711FF4020FFF70EFF6C
S3151FFF13F02020FFF70BFF0220FFF708FF8D20FFF7C7
S3151FFF140005FF1420FFF702FFA420FFF7FFFEA6200C
S3151FFF1410FFF7FCFEAF20FFF7F9FE0020FFF749FF9E
S3151FFF142000210020FFF72FFFFF20FFF742FF642059
S3151FFF143000F078F80020FFF73CFF642000F072F8F9
S3151FFF144001BD2DE9FC4104000D00002600275FF0BA
S3151FFF14500008642092FBF0F08DF80000642092FBD9
S3151FFF1460F0F100FB11200A2190FBF1F08DF801002E
S3151FFF14700A2092FBF0F100FB11208DF802000020DD
S3151FFF1480804610E0F6B2300150FA87F0DFF8901071
S3151FFF14904018007AFFF77AFE7F1CFFB2082FF1D3A1
S3151FFF14A0083418F101085FFA88F8B8F1030F28D23C
S3151FFF14B05FFA88F800A818F8000010F11006E4B2CA
S3151FFF14C0792C01D300246D1C2900C9B22000C0B29C
S3151FFF14D0FFF7D9FE002709E0F6B2300150FA87F071
S3151FFF14E0DFF83C10405CFFF751FE7F1CFFB2082F51
S3151FFF14F0F2D3691CC9B22000C0B2FFF7C4FE002792
S3151FFF1500CBE7BDE8F381000000F00F4038900440A1
S3151FFF15103C900440409004404490044014F00F4018
S3151FFF15200C1CFF1F0D49096851F001010B4A116081
S3151FFF15300B4908600B48052101600B48006850F0F6
S3151FFF1540010009490860084800680006FBD50648E0
S3151FFF1550006840084000044908607047388004400F
S3151FFF15600800044004000440000004404FF0807C44
S3151FFF15701CEB400F94BF1CEB410F05E040EA010C2B
S3151FFF15805FEA4C0C01D28142704718BF88427047F1
S3151FFF1590002840F10780F446404200F003F850F060
S3151FFF15A0004060470AD0B0FA80F18840D1F19D0113
S3151FFF15B0C905020672F1004241EB1020704750F831
S3151FFF15C0041B61B150F8042BD30744BFA9F10103D4
S3151FFF15D09A18002342F8043B091FFAD1EFE7704719
S3151FFF15E05FF0FF0C1CEAD05114BF614506E0C11026
S3151FFF15F0400721F0E04101F16051704779B900F0D2
S3151FFF1600004100020AD0B0FA80FC00FA0CF001F18B
S3151FFF16106051A1EB0C5101EBD021400570474102F0
S3151FFF16200CBF40F4E0016FF00001002070477047C8
S3151FFF1630B0B581EA030C0CF0004C40F2FF7515EABA
S3151FFF164011541DBF15EA1357AC42AF4239E0E419D7
S3151FFF165023EA455343F48013C90241F0004141EA8F
S3151FFF1660505EC7021100A7FB020200284FF00000C1
S3151FFF1670EEFB01204FF00001E3FB072118BF42F0ED
S3151FFF16800102401800214941E3FB0E01A4F58064C6
S3151FFF16900F0302D252004041494154F101046CDD50
S3151FFF16A0470872F1004250F1000051EB0451A1F5BA
S3151FFF16B080115CBF41EA0C01B0BD4CEA0551002009
S3151FFF16C0B0BD05EA1357AC4214BFAF4241E050EA23
S3151FFF16D0410E1CBF52EA430E02E061460020B0BD19
S3151FFF16E024423C441BD15FEA070EF6D0090302BF13
S3151FFF16F001460020AEF1140EB1FA81F7AEEB0704D7
S3151FFF170001FA07FE0C37C7F1200100FA07F7C84099
S3151FFF17104EEA000E23EA455343F48013A2E733F044
S3151FFF17200043B3FA83F704BFB2FA82FE77440B3F37
S3151FFF1730E41BB7F1200E2FBF02FA0EF3BB40C7F112
S3151FFF1740200E22FA0EFE38BF43EA0E03BA40641C70
S3151FFF175082E750EA410E14BF52EA430E6FF00001B3
S3151FFF17604FF4001717EB430F8ABF194617EB410FAD
S3151FFF1770B5E74CEA05510020B0BDD4F10104B4F121
S3151FFF178020070FDAC4F12007520828BF42F00102D3
S3151FFF179010FA07F501FA07F7E1BF2A43E04038437E
S3151FFF17A0E1400FE0352C98DCC7F1200452EA4002D6
S3151FFF17B020FA07F218BF42F0010231FA07F0A140E3
S3151FFF17C00A43002172F1004250F1000051EB0C0158
S3151FFF17D0B0BD00004FEAF17CBCF1E04C2CBFBCF55D
S3151FFF17E0001F11E05FEA4C0C34BFBCF17F5F2EE098
S3151FFF17F05FEA9C0C4FEA0C1C4FEA3C0CC10071F1CF
S3151FFF180000414CEB50707047C90241EA5051C0026C
S3151FFF181018BF41F0010141F000414FEA6C50C0F182
S3151FFF18200900212810D240EACC7CCCF1200C11FAFA
S3151FFF18300CF070F10040CCF1200C21FA0CF00CF0EB
S3151FFF1840004C40EB0C0070474FEACC7070474900C5
S3151FFF185011F5001F04D84FEACC10FF30C0057047A3
S3151FFF1860C81770474FF0807C1CEB400F94BF1CEBD3
S3151FFF1870410F05E040EA010C5FEA4C0C01D288429A
S3151FFF1880704718BF8142704790EA010F44BF81F02E
S3151FFF1890004100F043B800BF421A3CBF801A8918A7
S3151FFF18A04FF0004CC0F3C752FF2A24D0C1F3C753D2
S3151FFF18B013B3D21AD2F1190327DD4CEA01214CFAD1
S3151FFF18C003F321EA0303D140C20D4CEA002040185F
S3151FFF18D034BF20EA0C004CEA5000D20553EA0063DE
S3151FFF18E073EB0C0C52EB1020420012F1807F38BFB6
S3151FFF18F07047C00DC0057047490212BF9A4200EBE1
S3151FFF19005120F8E7D2F11703D9D5704790EA010F97
S3151FFF191044BF81F00041FFF7BFBF00BF431A4FF01F
S3151FFF192000423EBF5340C01AC91800BFD3095FEA22
S3151FFF1930D05C13EB400F34BFB3EB410F40E07CEBA2
S3151FFF1940D1530CD342EA012122D8D1EB402009D330
S3151FFF1950400A28BF5FEA500140EBCC507047401A40
S3151FFF196015D04002B0FA80F2521C9040400A4FEA4F
S3151FFF19703C23B3EB026384BF00EB730007E040F425
S3151FFF198000001A16DB07C2F10102D0401843704749
S3151FFF1990182BFCDC31FA03F202FA03F3591A38BF8C
S3151FFF19A042F00102D2EB40203CBF4000ACF1010CDC
S3151FFF19B05FEACC5CC20572F100414CEB50207047C9
S3151FFF19C013EB400F0FD24B0009D0ACEBD153022BB9
S3151FFF19D003DB4902172BDDDD70479143401A430096
S3151FFF19E0D5D10020704713EB410FD0D36FF0000006
S3151FFF19F070470000FF2212EAD05C1DBF12EAD153C7
S3151FFF1A00944593422BE09C44D30780EA01021A4078
S3151FFF1A1043EA002043EA0121A1FB0030410038BF02
S3151FFF1A2040007CF17F010BDBFE294ADA5B0842EAA5
S3151FFF1A30C15153EA006373F1004C51EB10207047FD
S3151FFF1A40D1F1080CDCF120012FDB5B0810FA01F145
S3151FFF1A500B4373F1004120FA0CF050417047944538
S3151FFF1A601CBF02EAD153934280EA010202F00042F1
S3151FFF1A701DD0400019D0490017D05BB9634514D05C
S3151FFF1A800902B1FA81F39940BCEB030CC00140F088
S3151FFF1A900040C1E70002B0FA80FC10FA0CF0B3EB6E
S3151FFF1AA00C0CC90141F00041B6E71000704740001A
S3151FFF1AB00AD0490008D010F1807F94BF11F1807FB3
S3151FFF1AC002E042F0FF407047D043704710B5FF2337
S3151FFF1AD013EAD0541DBF13EAD1529C429A4239E0F2
S3151FFF1AE0A41ADA0780EA0103134042EA012142EAF8
S3151FFF1AF00020421A3CBF641E01EB4202090AB2FBD9
S3151FFF1B00F1FE01FB1E221202B2FBF1F001FB1022B6
S3151FFF1B106EF30F201202B2FBF1FE4EEA00207F3456
S3151FFF1B2006DDFE2C24DA53EA500050EBC45010BDDD
S3151FFF1B30D4F1020401FB1E2240F08071192C1DDC1B
S3151FFF1B4021FA04F0C4F12004A140114371F10042B0
S3151FFF1B50584110BD9C421ABF03EAD1529A420FE069
S3151FFF1B6080EA010E0EF00043400004D0490016D153
S3151FFF1B7043F0FF4010BD490008BFD343180010BDF7
S3151FFF1B809C4205D1D21AF7D001F00041484010BD43
S3151FFF1B904A0212BF0846484000F0004010BD4AB92E
S3151FFF1BA00902B1FA81F2914044B1A418C00140F075
S3151FFF1BB000409EE7C90141F0004152420002B0FAC0
S3151FFF1BC080F4A040141B94E74100090E7F3915D4FA
S3151FFF1BD0D1F11F0114D4400007D2C00140F00040CD
S3151FFF1BE0C84048BF6FF000407047C00140F000403B
S3151FFF1BF0C8404CBF4FF0004040427047002070471F
S3151FFF1C0000424FF0004058BFC0437047000000001E
S3151FFF1C10000000000000000000000000000000F8A8
S3151FFF1C2000000000000000333000000000100C060B
S3151FFF1C30100C0600000000000000000040C07840A6
S3151FFF1C40C0784000043F04043F040400007088FC72
S3151FFF1C5008300000001820FF211E0000F008F000CA
S3151FFF1C60E018000000211C031E211E0000F008883B
S3151FFF1C70700000001E2123241927211010160E00A5
S3151FFF1C80000000000000000000000000000000E050
S3151FFF1C901804020000000007182040000002041865
S3151FFF1CA0E00000000040201807000000404080F0C1
S3151FFF1CB0804040000202010F01020200000000F0F7
S3151FFF1CC0000000000101011F0101010000000000CB
S3151FFF1CD00000000080B07000000000000000000040
S3151FFF1CE000000000000101010101010100000000C9
S3151FFF1CF00000000000303000000000000000000060
S3151FFF1D0080601804006018060100000000E010083C
S3151FFF1D100810E000000F102020100F00001010F811
S3151FFF1D20000000000020203F202000000070080850
S3151FFF1D3008887000003028242221300000300888D0
S3151FFF1D40884830000018202020110E000000C020F8
S3151FFF1D5010F8000000070424243F240000F8088819
S3151FFF1D60880808000019212020110E0000E01088A6
S3151FFF1D7088180000000F112020110E0000380808D8
S3151FFF1D80C83808000000003F0000000000708808E8
S3151FFF1D9008887000001C222121221C0000E0100869
S3151FFF1DA00810E0000000312222110F00000000C0C2
S3151FFF1DB0C00000000000003030000000000000805F
S3151FFF1DC0000000000000806000000000000080404F
S3151FFF1DD02010080000010204081020004040404068
S3151FFF1DE040404000040404040404040000081020BB
S3151FFF1DF04080000000201008040201000070480800
S3151FFF1E000808F0000000003036010000C030C82867
S3151FFF1E10E810E0000718272423140B000000C03822
S3151FFF1E20E0000000203C23020227382008F888889C
S3151FFF1E3088700000203F202020110E00C0300808A8
S3151FFF1E4008083800071820202010080008F808087F
S3151FFF1E500810E000203F202020100F0008F8888878
S3151FFF1E60E8081000203F20202320180008F8888844
S3151FFF1E70E8081000203F200003000000C0300808BC
S3151FFF1E800838000007182020221E020008F8080045
S3151FFF1E900008F808203F210101213F20000808F80C
S3151FFF1EA0080800000020203F20200000000008082F
S3151FFF1EB0F8080800C08080807F00000008F888C0EF
S3151FFF1EC028180800203F20012638200008F80800A0
S3151FFF1ED000000000203F20202020300008F8F800D7
S3151FFF1EE0F8F80800203F003F003F200008F830C0E9
S3151FFF1EF00008F808203F200007183F00E0100808D9
S3151FFF1F000810E0000F10202020100F0008F8080807
S3151FFF1F100808F000203F210101010000E01008081A
S3151FFF1F200810E0000F18242438504F0008F888883F
S3151FFF1F3088887000203F2000030C3020007088081F
S3151FFF1F40080838000038202121221C00180808F82D
S3151FFF1F50080818000000203F2000000008F80800AE
S3151FFF1F600008F808001F202020201F00087888007F
S3151FFF1F7000C83808000007380E010000F80800F8EF
S3151FFF1F800008F800033C0700073C03000818688099
S3151FFF1F908068180820302C03032C30200838C8000F
S3151FFF1FA0C83808000000203F20000000100808085E
S3151FFF1FB0C83808002038262120201800000000FE00
S3151FFF1FC0020202000000007F40404000000C30C0AC
S3151FFF1FD000000000000000010638C00000020202D8
S3151FFF1FE0FE000000004040407F000000000004028A
S3151FFF1FF002020400000000000000000000000000B5
S3151FFF200000000000808080808080808000020204A4
S3151FFF2010000000000000000000000000000080809C
S3151FFF2020808000000019242222223F2008F800800A
S3151FFF203080000000003F112020110E0000000080CD
S3151FFF204080800000000E112020201100000000805C
S3151FFF20508088F800000E112020103F20000080808E
S3151FFF206080800000001F222222221300008080F0A2
S3151FFF2070888888180020203F2020000000008080CD
S3151FFF208080808000006B94949493600008F8008012
S3151FFF209080800000203F210000203F20008098986D
S3151FFF20A0000000000020203F2020000000000080CD
S3151FFF20B09898000000C08080807F000008F800000D
S3151FFF20C080808000203F24022D302000000808F862
S3151FFF20D0000000000020203F20200000808080801D
S3151FFF20E080808000203F20003F20003F80800080AF
S3151FFF20F080800000203F210000203F2000008080BD
S3151FFF210080800000001F202020201F00808000806D
S3151FFF21108000000080FFA12020110E00000000801C
S3151FFF212080808000000E112020A0FF80808080000D
S3151FFF21308080800020203F2120000100000080803A
S3151FFF2140808080000033242424241900008080E02F
S3151FFF2150808000000000001F2020000080800000FC
S3151FFF216000808000001F202020103F2080808000DD
S3151FFF21700080808000010E300806010080800080ED
S3151FFF2180008080800F300C030C300F000080800012
S3151FFF2190808080000020312E0E312000808080003D
S3151FFF21A00080808080818E701806010000808080ED
S3151FFF21B0808080000021302C22213000000000008B
S3151FFF21C0807C020200000000003F4040000000002C
S3151FFF21D0FF00000000000000FF0000000002027C5D
S3151FFF21E0800000000040403F000000000006010184
S3151FFF21F002020404000000000000000080B57348BF
S3151FFF2200006850F47850714908601021052000F0CE
S3151FFF22102FF86F4908606E4800684FF47A7148437C
S3151FFF22206C4908606B4800686B490968C1F3036115
S3151FFF2230491CB0FBF1F06949086000F003F800F094
S3151FFF22400CF801BD6648006850F480506449086069
S3151FFF225064484FF4E061016070476348006850F0BF
S3151FFF226001006149086061484FF4A0610160704732
S3151FFF227080B50A00C0B2092801D30020A4E0D2B25C
S3151FFF2280112A01D301209FE0594A00231370594A8F
S3151FFF2290126852F08052574B1A60574A127852F003
S3151FFF22A08002554B1A70554A98231370544A127859
S3151FFF22B0D206FBD4524A1278C2F38102D2B2022A45
S3151FFF22C0F8D1504A0E2313704F4A00231370C0B222
S3151FFF22D000280BD002281FD013D3042832D026D3B1
S3151FFF22E0062845D039D307284DD056E001230022B3
S3151FFF22F00021002000F078FE434841210170322162
S3151FFF23004BE0032301220121002000F06DFE3E4812
S3151FFF23105A210170642140E003230122012100207D
S3151FFF232000F062FE384858210170782135E00123FD
S3151FFF233000220021002000F057FE33484021017084
S3151FFF234030212AE0052302220221002000F04CFE45
S3151FFF23502D484F21017096211FE0072302220221DC
S3151FFF2360002000F041FE28485E210170B42114E0D1
S3151FFF2370072302220221002000F036FE22485E219B
S3151FFF23800170CF2109E0082302220221002000F05D
S3151FFF23902BFE1D485E210170E1211948007880063A
S3151FFF23A0FBD5174800784006FBD51448007810F078
S3151FFF23B03F00124A107012480078C0F38100C0B266
S3151FFF23C00328F8D10800C0B202BD000038800440C0
S3151FFF23D06C31FF1F6831FF1F448004407031FF1FA0
S3151FFF23E00480044018900440408004400CB0044011
S3151FFF23F0014006403480044008C0074000400640A5
S3151FFF240006400640044006400540064030B4DFF84C
S3151FFF2410B83198420AD1DFF8B4314FF440741C60CB
S3151FFF2420DFF8AC314FF440741C6049E0DFF8A4318C
S3151FFF243098420AD1DFF8A0314FF440741C60DFF8D1
S3151FFF24409C314FF440741C603AE0DFF89431984298
S3151FFF24500AD1DFF890314FF440741C60DFF88831E2
S3151FFF24604FF440741C602BE0DFF8803198420AD18D
S3151FFF2470DFF87C314FF440741C60DFF878314FF47E
S3151FFF248040741C601CE0DFF8703198420AD1DFF8F8
S3151FFF24906C314FF440741C60DFF864314FF44074A5
S3151FFF24A01C600DE0DFF85C31984209D1DFF8583127
S3151FFF24B04FF440741C60DFF854314FF440741C60B6
S3151FFF24C0DFF80431984208D1DFF844311B6853F413
S3151FFF24D08063DFF83C4123603BE0DFF8F83098422A
S3151FFF24E008D1DFF82C311B6853F40063DFF8204156
S3151FFF24F023602EE0DFF8E830984208D1DFF810316D
S3151FFF25001B6853F48053DFF80841236021E0DFF88F
S3151FFF2510DC30984208D1DFF8F8301B6853F40053BC
S3151FFF2520DFF8EC40236014E0DFF8CC30984208D187
S3151FFF2530DFF8E0301B6853F48063DFF8D840236071
S3151FFF254007E0DFF8D0301B6853F40063DFF8C440A1
S3151FFF25502360C37813F0F303C370002383701A4BF2
S3151FFF2560984208D000231B4CA04204D053F000030F
S3151FFF2570DBB2002B00D049184FF47A7303FB01F32C
S3151FFF25801401B3FBF4F3047814F0E0049BB21D0AA5
S3151FFF259015F01F052C43047043704FF4FA44614333
S3151FFF25A01201B1FBF2F19BB2B1EB4311827A12F02A
S3151FFF25B0E00411F01F0121438172C17851F00C0114
S3151FFF25C0C17030BC7047000000A0064018C0044011
S3151FFF25D01CC0044000B0064010B004400CB00440BD
S3151FFF25E000C006400CC0044008C0044000D006408F
S3151FFF25F044B0044040B0044000A00E4060D00440E9
S3151FFF260064D0044000B00E4020D0044024D00440C4
S3151FFF2610348004402880044080B5594800218DF836
S3151FFF2620001007E000210170401C9DF80010491C97
S3151FFF26308DF800109DF800108A29F3D35148002109
S3151FFF26408DF8001007E000210170401C9DF8001057
S3151FFF2650491C8DF800109DF800108A29F3D300F04E
S3151FFF266011F8494800780128FBD14748002101701E
S3151FFF2670FEF764F9FEF788F9FEF7D1F9FEF726FA9A
S3151FFF2680EFE7000038B572B65FF4E1323F480168E5
S3151FFF26903F48FFF7BBFE3F4800F090F800F040F9B8
S3151FFF26A0FDF7D4FEFEF730FEFDF7F1FE00242DE009
S3151FFF26B00120FEF737FF38480078D0F1140037495D
S3151FFF26C0087036480078022807D33448007880B24E
S3151FFF26D0ADB2A84201D1FDF7F1FE31480078D0F126
S3151FFF26E01400304908702F480078022807D32D4859
S3151FFF26F0007880B2ADB2A84201D1FDF735FF6D1C40
S3151FFF2700ADB2142DD4D3FEF764F9641CA4B2192CF1
S3151FFF271001D20025F4E72448B0F90000192190FBE8
S3151FFF2720F1F0224908802248B0F90000192190FBD9
S3151FFF2730F1F0204908801D48B0F9002000210A202A
S3151FFF2740FEF77FFE1B48B0F9002000214620FEF74B
S3151FFF275078FE154800210180154800210180FEF7EC
S3151FFF276053FB154800780028A0D04EF660210020A5
S3151FFF277000F060F9002000F08CF962B631BD000051
S3151FFF27806830FF1FE830FF1F9631FF1F7031FF1F95
S3151FFF279000D00640A12BFF1F3830FF1F9731FF1FA9
S3151FFF27A03930FF1F9831FF1F7431FF1F8431FF1F01
S3151FFF27B07631FF1F8631FF1F9931FF1F80B500231B
S3151FFF27C001220A214848FEF7A9FB002301220921FE
S3151FFF27D04548FEF7A3FB4048006850F400603E499A
S3151FFF27E0086042484FF48861016041484FF4886191
S3151FFF27F001603448006850F08070324908603748DE
S3151FFF2800006850F00800354908603448006830F00A
S3151FFF28100400324908603148006850F020002F49F4
S3151FFF282008603448006850F0080032490860314894
S3151FFF2830006830F004002F4908602E48006850F0EA
S3151FFF284020002C4908602048292101602A4800687A
S3151FFF285050F00400284908602748006840084000D8
S3151FFF2860254908602548FC21016025480021016094
S3151FFF287024480021016024480021016023480021CC
S3151FFF2880016023480068400840002149086021482D
S3151FFF289000210160204800210160204800210160BE
S3151FFF28A00B48002101600B4840F2E24101600C48D2
S3151FFF28B0002101600B4800210160044800210160CF
S3151FFF28C001BD00003C80044000800340048003409C
S3151FFF28D04C80034008800340388004400C8003402F
S3151FFF28E0108003401880034040F00F4004B004409F
S3151FFF28F008B00440148003405480034060800340A7
S3151FFF2900648003405C8003406C80034070800340FB
S3151FFF2910808003409080034094800340988003404B
S3151FFF29203348006850F0007031490860314800682D
S3151FFF293050F080702F4908602F4800684FF40071D0
S3151FFF294008432D4908602D484FF4E06101602C486C
S3151FFF29504FF4E06101602B484FF4C06101602A48C4
S3151FFF29604FF4C061016029480021016028480021FA
S3151FFF2970016028484FF6FF71016027484FF6FF7128
S3151FFF298001602648006850F0040024490860244867
S3151FFF2990006850F00400224908602248006850F082
S3151FFF29A00800204908602048006850F008001E49AB
S3151FFF29B008601C48006850F001001A4908601A4851
S3151FFF29C0006850F00100184908601448006850F06D
S3151FFF29D00100124908601248006850F001001049B3
S3151FFF29E008601248002101601148002101607047ED
S3151FFF29F03C800440308004403880044030900440BF
S3151FFF2A003490044048A004404CA004404C9003401F
S3151FFF2A104C800B400890034008800B4054900340A6
S3151FFF2A2054800B408090034080800B4004900340EE
S3151FFF2A3004800B402A4A126852F40002284B1A6080
S3151FFF2A40284A126832F00202264B1A60254A12687C
S3151FFF2A5052F00102234B1A60C0B20201224BD15022
S3151FFF2A60C0B2214911EB0011896851F00101C0B2B3
S3151FFF2A701D4A12EB00129160C0B21B4911EB0011E8
S3151FFF2A80896831F00201C0B2174A12EB001081604C
S3151FFF2A90704780B5C0B2144911EB0011896851F018
S3151FFF2AA00201C0B2104A12EB00129160C0B2002899
S3151FFF2AB005D002280BD006D303280CD00EE04420E6
S3151FFF2AC000F017F80AE0452000F013F806E046204D
S3151FFF2AD000F00FF802E0472000F00BF801BD0000E1
S3151FFF2AE03C80044000700340007103402549086085
S3151FFF2AF070475C2800DB5B20202190FBF1F100294A
S3151FFF2B0003D0022929D014D33AE00121202290FBBA
S3151FFF2B10F2F303FB120399401B4A11600121202286
S3151FFF2B2090FBF2F303FB120311FA03F01749086038
S3151FFF2B3026E00121202290FBF2F303FB12039940AB
S3151FFF2B40134A11600121202290FBF2F303FB1203AC
S3151FFF2B5011FA03F00F49086012E00121202290FBB2
S3151FFF2B60F2F303FB120399400B4A11600121202246
S3151FFF2B7090FBF2F303FB120311FA03F007490860F8
S3151FFF2B807047000008ED00E080E200E000E100E092
S3151FFF2B9084E200E004E100E088E200E008E100E0F3
S3151FFF2BA0DFF8F80000684FF400710843DFF8EC10F8
S3151FFF2BB00860DFF8EC004FF450710160DFF8E400A6
S3151FFF2BC0006850F00070DFF8DC100860DFF8D800EF
S3151FFF2BD0006850F00800DFF8D0100860DFF8C80063
S3151FFF2BE0006830F00400DFF8C0100860DFF8B80097
S3151FFF2BF0006850F02000DFF8B0100860DFF8AC0067
S3151FFF2C002D210160DFF8A800006850F00400DFF8EF
S3151FFF2C10A0100860DFF89800006840084000DFF842
S3151FFF2C2090100860DFF88C00FE210160DFF8880036
S3151FFF2C3000210160DFF8840000210160DFF88000BA
S3151FFF2C4000210160DFF87C0000210160DFF87800BA
S3151FFF2C50006840084000DFF870100860DFF86C005E
S3151FFF2C6000210160DFF8680000210160DFF86400C2
S3151FFF2C7000210160DFF8600000210160DFF85C00C2
S3151FFF2C8044F64B410160DFF8580040F2DC5101600A
S3151FFF2C90DFF85000002101607047000038800440B4
S3151FFF2CA0209004403C8004400C900340009003405A
S3151FFF2CB05490034060900340649003405C90034030
S3151FFF2CC06C900340709003408090034090900340A8
S3151FFF2CD094900340989003404C9003400890034004
S3151FFF2CE0109003400490034080B572B640480078A9
S3151FFF2CF0D0F114003F4908703E480078022807D3D9
S3151FFF2D003C4800783C490978884201D1FDF7D6FB3C
S3151FFF2D103A480078D0F114003949087038480078CE
S3151FFF2D20022807D33648007833490978884201D1EC
S3151FFF2D30FDF71AFC30480078401C2F4908702E48B3
S3151FFF2D40007814280FD32C48002101702D48FDF75A
S3151FFF2D5061FCFDF739FD2C48FDF7C9FCFDF787FD23
S3151FFF2D602A48012101702A480078401C284908700B
S3151FFF2D70FDF7B6FF27480078401C264908702548EF
S3151FFF2D800078012807D027D3032808D004D30528A6
S3151FFF2D901DD01BD320E01FE0FDF7C2FF1CE01E481E
S3151FFF2DA00078401C1C4908701B48007814280CD358
S3151FFF2DB01A480088401C19490880FDF7E5FE16488A
S3151FFF2DC00021017012480021017005E004E011483F
S3151FFF2DD000210170FDF7B2FE1148006850F0010097
S3151FFF2DE00F4908600020FFF754FE62B601BD00BF02
S3151FFF2DF03830FF1F9731FF1F9431FF1F3930FF1FD9
S3151FFF2E009831FF1F6830FF1FE830FF1F9631FF1FE6
S3151FFF2E108E31FF1F9331FF1F9531FF1F8C31FF1F10
S3151FFF2E200C71034080B500F055F800F005F8FFF769
S3151FFF2E30E5F9FFF7F1FB01BD80B51C481C49884228
S3151FFF2E400BD0002006E01949194A52F8202041F8F5
S3151FFF2E502020401CB0F5826FF5D31448FFF746FEBE
S3151FFF2E601449154A1548801A03E013780B70521C34
S3151FFF2E70491C0300581E002BF7D111491148401A50
S3151FFF2E8002E000220A70491C0200501E002AF8D1D8
S3151FFF2E900D490E4A0E48801A03E013780B70521C19
S3151FFF2EA0491C0300581E002BF7D101BD0000FF1F51
S3151FFF2EB00000FF1F3430FF1FE02FFF1FE82FFF1FEC
S3151FFF2EC03C30FF1F9A31FF1FE82FFF1F0C2FFF1FDD
S3151FFF2ED0582FFF1F80B500F009F80A4800884FF6E4
S3151FFF2EE0FE7108400749088001BD000072B60648FB
S3151FFF2EF04CF22051018004484DF62811018062B61D
S3151FFF2F0070470000002005400E20054070B4104C8E
S3151FFF2F1024680F4D2D6855F47F050D4E3560090644
S3151FFF2F2011F0706151EA0070110511F47001084329
S3151FFF2F30190411F47021084306490860002000E0B8
S3151FFF2F40401CC0B29842FBD30148046070BC704757
S3151FFF2F5000F001404480044010B5084979441C31F4
S3151FFF2F60074C7C441A34A14206D0081D0A68511823
S3151FFF2F7088470146A142F8D110BD00BF08000000D7
S3151FFF2F80140000003BE6FFFF600100003C30FF1FFF
S3151FFF2F900000000000F009F8002801D0FFF7DCFF52
S3151FFF2FA00020FFF739FB00F002F80120704700F001
S3151FFF2FB001B800000746384600F002F8FBE700009D
S3151FFF2FC080B5C046C046024A11001820ABBEFBE7BC
S3151FFF2FD026000200C046C046C046C046FFF7DAFFBE
S30D1FFF2FE01E0002000A0A000091
S7051FFF2FD5D8
